:0300000002456F47
:0C456F00787FE4F6D8FD7581210245B686
:104D23001252741249D21256C71256F31257BC12BA
:104D330057261255021256D775B10CE4F5B27F828D
:0C4D4300FE124CC6120C3112004680F823
:03002300025491F3
:06549100C0E0C083C082F0
:105497009005F4E4F0309802C298309904C299C29A
:0154A70009FB
:0754A800D082D083D0E03276
:0300430002553330
:10553300C0E0E59A30E003539AFEE59A30E1055363
:075543009AFDC209D0E0321D
:095731002009FDEFD209F59922CF
:104C5A009006CBEBF0A3EAF0A3E9F09006CBE0FBD9
:104C6A00A3E0FAA3E0F91223DB60179006CBA3E4D2
:104C7A0075F0011224BCA9F0FA1223DBFF12573196
:034C8A0080D922AC
:09573A002009FDEFD209F59B22C4
:104C8D009006CEEBF0A3EAF0A3E9F09006CEE0FBA0
:104C9D00A3E0FAA3E0F91223DB60179006CEA3E49C
:104CAD0075F0011224BCA9F0FA1223DBFF12573A5A
:034CBD0080D92279
:10527400E5A2543FF5A253BAFE759850759A50753D
:10528400D7C875D6FE758E14438E01D2AC75AF01A6
:03529400D2AF2274
:0B488300900000EBF0A3EAF0A3E9F0C6
:10488E0090002B7401F0A37400F0A37403F0900059
:10489E0000E0F9A3E0FAA3E09006C5C9F0A3EAF0A0
:1048AE00A3E9F090002BE0F9A3E0FAA3E09006C88C
:1048BE00C9F0A3EAF0A3E9F07B017A00792E124A3F
:0A48CE00747B017A00792E024C5A27
:101A39000000000000FF55B601020E0F00FF00066E
:101A49000203011500FF001E0304021900FF58A13B
:101A59000405031D00FF58A60506041F00FF58AB27
:101A69000607052000FF58B00708062100FF58B5F2
:101A79000809072600FF58BA090A082A00FF58BFB3
:101A89000A0B092C00FF58C40B0C0A2E00FF58C979
:101A99000C0D0B2F00FF58CE0D0E0C3000FF58D344
:101AA9000E010D3100FF58D80F0F0F1001FF4B3CED
:101AB9001010101101FF4DF91111111201FF4E21E2
:101AC9001212121301FF522C1313131401FF525057
:101AD9001414140F01FF4E491516183502FF560448
:101AE9001617153902FF56161718163D02FF562804
:101AF9001815174102FF563A191A1C4503FF564C8F
:101B09001A1B194903FF565E1B1C1A4D03FF567019
:101B19001C191B5103FF56821D1E1E5204FF58DD5E
:101B29001E1D1D5304FF58E21F1F1F1F05FF574CA1
:101B39002020202006FF57542122255407FF58E76B
:101B49002223215507FF58EC2324225607FF58F179
:101B59002425235707FF58F62521245807FF58FB4A
:101B69002627295908FF59002728265A08FF590509
:101B79002829275B08FF590A2926285C08FF590FDD
:101B89002A2B2B5D09FF56E52B2A2A5E09FF5914DA
:101B99002C2D2D000AFF59192D2C2C000AFF591E36
:101BA9002E2E2E000BFF54E82F2F2F000CFF575C11
:101BB900303030000DFF5764313131000EFF5923A9
:101BC9003232323515FF538C3333333215FF002649
:101BD9003434343315FF53AE3535353415FF53D00E
:101BE9003636363916FF4E713737373616FF529764
:101BF9003838383716FF4E993939393816FF4EC1FA
:101C09003A3A3A3D17FF4EE93B3B3B3A17FF52BA86
:101C19003C3C3C3B17FF4F113D3D3D3C17FF4F39C5
:101C29003E3E3E4118FF4F613F3F3F3E18FF52DDA8
:101C39004040403F18FF4F894141414018FF4FB193
:101C49004242424519FF4FD94343434219FF5300CA
:101C59004444444319FF50014545454419FF50295F
:101C6900464646491AFF5051474747461AFF5323EC
:101C7900484848471AFF5079494949481AFF50A12D
:101C89004A4A4A4D1BFF50C94B4B4B4A1BFF53460F
:101C99004C4C4C4B1BFF50F14D4D4D4C1BFF5119FA
:101CA9004E4E4E511CFF51414F4F4F4E1CFF536931
:101CB9005050504F1CFF5169515151501CFF5191C7
:101CC900525252521DFF576C535353531EFF5774B0
:101CD9005454545421FF577C5555555522FF578468
:101CE9005656565623FF578C5757575724FF54AF0C
:101CF9005858585825FF57945959595926FF51B9D9
:101D09005A5A5A5A27FF579C5B5B5B5B28FF57A4BB
:101D19005C5C5C5C29FF57AC5D5D5D5D2AFF4BB681
:101D29005E5E5E5E2BFF4C255F5F5F5F5FFF584124
:101D3900000000000000000000000000000000009A
:101D4900000000000000000000000000000000008A
:101D59004105F900410623004105FA004405FE004A
:101D69000000014406060000000144060F000000BF
:101D79000144061900000001440602000000014464
:101D8900060B000000014406150000000144061E70
:101D99000000000141060A014106140C4106130026
:101DA90041061D0041062200410625024106280080
:101DB90041062B0041062D004106240B4106270050
:101DC90041062A0041062C00410626024106290047
:0C1DD9004105F70141062E014105F8010B
:10444100E4900592F0A3F043907C53A007E59054CB
:104451007C641F70030244DB1256D7E590547C64E0
:104461007C607712587143907C43A0F853A07FE59C
:1044710090547C647C60639005F97401F0E590547C
:104481007CFF900592E4F0A3EFF0E0F8E4F0E8900F
:104491000592F0E5A054F8FFA3E02FF0900592E01B
:1044A1003400F0E0B4780DA3E0B4780812585F7FCF
:1044B10001125853E590547CFFBF7CF81256D7E5A2
:1044C10090547CFFBF7CF8E4FF125853E4FF12586C
:0E44D1006B900592E0FEA3E0FF227E0F7FFFBE
:0144DF0022BA
:10420E00E4900590F0A3F0FF124441900590EEF07B
:10421E00A3EFF0125895900590E0640F7003A3E0A1
:10422E00F47070EF6401706B9005FAE0702A9006DE
:10423E008DE0540FFFBF0808900623E004F08005C0
:10424E00E4900623F0900623E0D3940A400A7F14EC
:10425E00125877E4900623F012589B90068DE05486
:10426E000F24FE601324FE601624FC601E240770CB
:10427E0022900590745C800C90059074748005906B
:10428E000590746CF0A37478F080087478900590A3
:10429E00F0A3F0900590E0FEA3E08EF01224F84219
:1042AE00C15C7842C46C7842C7747842CA78780090
:1042BE000042CD7F03227F02227F01227F00227FD8
:0142CE00FFF0
:0142CF0022CC
:100C3100E4FF90058FF012420EEF147003020DE7EE
:100C410014700302127A147003020DC124036003AD
:100C51000216A99005FAE0FF6003B45F1812585913
:100C610090058FEFF0C3941450030216A99005FA72
:100C71007402020DBA9005FAE0FF6442600FEF645E
:100C810043600AEF64446005EF6445702D125859C2
:100C910090058FEFF0C3940A40657B017A067902D3
:100CA1001238B35057125829BF010C7F807E0012B1
:100CB1004CC6E4FF12582F020D8B9005FAE0FF6439
:100CC10046600FEF6447600AEF64486005EF6449CE
:100CD100703012585990058FEFF0C3940A40207B71
:100CE100017A06790B123B2F5012125829BF010CC1
:100CF1007F807E00124CC6E4FF12582F020D8B023A
:100D01000D909005FAE0FF644A600FEF644B600AB2
:100D1100EF644C6005EF644D702E12585990058FA9
:100D2100EFF0C3940A401F7B017A06791512360948
:100D31005012125829BF010C7F807E00124CC6E46C
:100D4100FF12582F804480479005FAE0FF644E60FF
:100D51000FEF644F600AEF64506005EF6451704219
:100D610012585990058FEFF0C3940A40227B017A03
:100D710006791E12375E5012125829BF010C7F806E
:100D81007E00124CC6E4FF12582F1256D7802B90CA
:100D910005FAE075F008A4243CF582E5F0341A0266
:100DA10016A19005FAE075F008A4243CF582E5F05F
:100DB100341AF583E4939005FAF012585F0216A9EC
:100DC1009005FAE0B45F0C12583BEF6006124678CA
:100DD1000216A99005FAE075F008A4243DF582E514
:100DE100F0341A0216A19005FAE01224D20E9A0FDD
:100DF1000EAC100EBC110ECC120EDC130EEE141143
:100E01005F1F11712012562F1244300F00320F1242
:100E1100330F24340F36350F48360F5A370F6C38DD
:100E21000F7E390F903A0FA23B0FB43C0FC63D0F16
:100E3100D83E0FEA3F0FFC40100E41102042103205
:100E410043104444105645106846107A47108C48A8
:100E5100109E4910B04A10C24B10D44C10E64D10F0
:100E6100F84E110A4F111C50112E51113F52114FC2
:100E71005311835411955511A55611B85711C958DD
:100E810011DA5911EB5A11FB5B120B5C121B5D124B
:100E91002C5E123F5F000012679006A5E0B4630567
:100EA100E4F00212679006A502123A9006A6E0B499
:100EB1000C030211569006A602123A9006A7E0B45E
:100EC1001F030211569006A702123A9006ABE0B436
:100ED10007030211569006AB02123A9006A8E0B43D
:100EE1001705E4F00212679006A802123A9006A9CB
:100EF100E0B43B05E4F00212679006A902123A90B1
:100F010005FEE0B41405E4F00212679005FE02123A
:100F11003A9005FFE0B40905E4F00212679005FF7D
:100F210002123A900600E0B40905E4F0021267905B
:100F3100060002123A900601E0B40905E4F002123B
:100F41006790060102123A900606E0B41405E4F037
:100F510002126790060602123A900607E0B40905EC
:100F6100E4F002126790060702123A900608E0B414
:100F71000905E4F002126790060802123A90060988
:100F8100E0B40905E4F002126790060902123A90F2
:100F9100060FE0B41405E4F002126790060F021286
:100FA1003A900610E0B40905E4F0021267900610C9
:100FB10002123A900611E0B40905E4F002126790BA
:100FC100061102123A900612E0B40905E4F0021289
:100FD1006790061202123A900619E0B41405E4F083
:100FE10002126790061902123A90061AE0B4090536
:100FF100E4F002126790061A02123A90061BE0B45E
:101001000905E4F002126790061B02123A90061CD1
:10101100E0B40905E4F002126790061C02123A904E
:101021000602E0B41405E4F002126790060202120F
:101031003A900603E0B40905E4F002126790060352
:1010410002123A900604E0B40905E4F00212679036
:10105100060402123A900605E0B40905E4F0021212
:101061006790060502123A90060BE0B41405E4F00D
:1010710002126790060B02123A90060CE0B40905C1
:10108100E4F002126790060C02123A90060DE0B4E9
:101091000905E4F002126790060D02123A90060E5D
:1010A100E0B40905E4F002126790060E02123A90CC
:1010B1000615E0B41405E4F0021267900615021259
:1010C1003A900616E0B40905E4F00212679006169C
:1010D10002123A900617E0B40905E4F00212679093
:1010E100061702123A900618E0B40905E4F002125C
:1010F1006790061802123A90061EE0B41405E4F057
:1011010002126790061E02123A90061FE0B409050A
:10111100E4F002126790061F02123A900620E0B432
:101121000905E4F002126790062002123A900621A6
:10113100E0B40904E4F08006900621E004F0900692
:101141000AE0B4010302122290060A021264900618
:1011510014E0B4140302126490061402123A9006C9
:1011610013E0B46305E4F002126790061302123A29
:1011710090061DE0B46305E4F002126790061D02BB
:10118100123A900622E0B40505E4F00212679006D7
:101191002202123A900625E0B40903021264900675
:1011A1002502123A900628E0700504F0021267E465
:1011B100900628F002126790062BE0B40905E4F0CE
:1011C10002126790062B807190062DE0B40705E4AA
:1011D100F002126790062D8060900624E0B40B05A2
:1011E100E4F0021267900624804F900627E0B40BCA
:1011F10004E4F08071900627803F90062AE0B40B4A
:1012010004E4F0806190062A802F90062CE0B40B54
:1012110004E4F0805190062C801F900626E0B40172
:10122100057402F080409006268038900629E0B4CB
:101231002B04E4F08030900629E004F0802812406D
:1012410060802390062EE0B401057402F0800690C0
:10125100062E7401F09005F7E0B40104E4F0800675
:101261009005F77401F09005FAE075F008A4243AAE
:10127100F582E5F0341A0216A19005FAE01224D2A3
:10128100132D0F133C10134F11136212137213130A
:10129100841415981F15A62016802F166E301396EC
:1012A1003213A53313B43413C33513D23613E137D4
:1012B10013F03813FF39140E3A141D3B142C3C144F
:1012C1003B3D144A3E14593F14684014774114863B
:1012D1004214954314A44414B34514C24614D1478F
:1012E10014E04814EF4914FE4A150D4B151C4C151A
:1012F1002B4D153A4E15484F15575015665115751A
:101301005215855315B85415CA5515D95615EC57AC
:1013110015FD58160E59161B5A16285B16355C1604
:10132100455D16565E16695F000016919006A5E0B0
:1013310070030215AC9006A50216649006A6E0B4EF
:101341000106740CF00216919006A602166490062E
:10135100A7E0B40106741FF00216919006A70216C9
:10136100649006ABE0B401030216039006AB0216CB
:10137100649006A8E070067417F00216919006A812
:101381000216649006A9E07006743BF00216919073
:1013910006A90216649005FEE0700302158C900503
:1013A100FE0216649005FFE070030215F29005FF3E
:1013B100021664900600E070030215F29006000226
:1013C1001664900601E070030215F2900601021600
:1013D10064900606E0700302158C900606021664FE
:1013E100900607E070030215F2900607021664905A
:1013F1000608E070030215F29006080216649006D2
:1014010009E070030215F290060902166490060FB6
:10141100E0700302158C90060F021664900610E02E
:1014210070030215F2900610021664900611E07026
:10143100030215F2900611021664900612E0700381
:101441000215F2900612021664900619E07003026A
:10145100158C90061902166490061AE070030215A5
:10146100F290061A02166490061BE070030215F250
:1014710090061B02166490061CE070030215F290A0
:10148100061C021664900602E0700302158C900699
:1014910002021664900603E070030215F29006033F
:1014A100021664900604E070030215F2900604022D
:1014B1001664900605E070030215F2900605021607
:1014C1006490060BE0700302158C90060B02166403
:1014D10090060CE070030215F290060C021664905F
:1014E100060DE070030215F290060D0216649006D7
:1014F1000EE070030215F290060E021664900615B6
:10150100E0700302158C900615021664900616E031
:1015110070030215F2900616021664900617E07029
:10152100030215F2900617021664900618E0700384
:101531000215F290061802166490061EE0700280F1
:101541004A90061E02166490061FE070030215F20F
:1015510090061F021664900620E070030215F290B7
:101561000620021664900621E070030215F290062F
:101571002102166490060AE0B4010302164C90069B
:101581000A02168E900614E0B401067414F00216D5
:1015910091900614021664900613E07002800C907C
:1015A100061302166490061DE070067463F00216BD
:1015B1009190061D021664900622E070067405F0F3
:1015C100021691900622021664900625E0B40102EB
:1015D100801F900625021664900628E0700504F02D
:1015E100021691E4900628F002169190062BE07005
:1015F100067409F002169190062B806790062DE083
:1016010070067407F002169190062D8056900624FC
:10161100E0700280259006248049900627E0700240
:101621008018900627803C90062AE07002800B907B
:10163100062A802F90062CE07005740BF0805190E3
:10164100062C801F900626E0B401057402F080404C
:101651009006268038900629E07005742BF08030C2
:10166100900629E014F08028124138802390062E3C
:10167100E0B401057402F0800690062E7401F0902A
:1016810005F7E0B40104E4F080069005F77401F079
:101691009005FAE075F008A4243BF582E5F0341AD0
:1016A100F583E4939005FAF09005FAE075F008A44B
:1016B100243EF582E5F0341AF583E493FB7401933B
:1016C100FA740293F99005FBEBF0A3EAF0A3E9F0B9
:0316D100022525CA
:0D56D7007F047E347DDCDDFEDEFADFF600B0
:0156E40022A3
:0557C3009005FAE0FF73
:0157C80022BE
:0657C9009005FAEFF0224A
:0557CF0090060AE0FF56
:0157D40022B2
:0557D500900614E0FF46
:0157DA0022AC
:0557DB00900613E0FF41
:0157E00022A6
:0557E10090061DE0FF31
:0157E60022A0
:0557E700900622E0FF26
:0157EC00229A
:0557ED00900625E0FF1D
:0157F2002294
:0557F300900628E0FF14
:0157F800228E
:0557F90090062BE0FF0B
:0157FE002288
:0557FF0090062DE0FF03
:015804002281
:05580500900624E0FF05
:01580A00227B
:05580B00900627E0FFFC
:015810002275
:0558110090062AE0FFF3
:01581600226F
:0558170090062CE0FFEB
:01581C002269
:05581D00900626E0FFEB
:015822002263
:05582300900629E0FFE2
:01582800225D
:055829009005F9E0FF0D
:01582E002257
:06582F009005F9EFF022E4
:0558350090062EE0FFCB
:01583A00224B
:05583B009005F7E0FFFD
:015840002245
:10551B000000000000000000000000000000000080
:08552B00000000000000000078
:101DE50055045F3F065B4F666D7D077F6F777C39D6
:101DF5005E797176385C733E4805840102040810EB
:101E050020408042058C40006030042F0000000017
:101E150000000000000000000000000000000000BD
:101E250000000000000000000000000000000000AD
:101E350000000000000000000000000060F00484C5
:101E4500000000000000000000000000000000008D
:101E5500000000000000000000000000000000007D
:101E6500000000000000000000000000000000006D
:101E7500000000000000000000000000000000005D
:101E8500000000000000000000000000000000004D
:101E9500000000000000000000000000000000003D
:101EA500000000000000000000000000000000002D
:101EB500000000000000000000000000000000001D
:101EC500000000000000000000000000000000000D
:101ED50000000000000000000000000000000000FD
:101EE50000000000000000000000000000000000ED
:101EF50000000000000000000000000000000000DD
:101F050000000000000000000000000000000000CC
:101F150000000000000000000000000000000000BC
:101F250000000000000000000000000000000000AC
:101F350041042E0041058E00500574010101010187
:101F450001010101010101010101015004740100B8
:0E1F550003010201010101010101010101016D
:104D4F00C282E4FDFCC280EF30E004D2818002C257
:104D5F008100000000D280EFC313FF0DBD00010CD6
:0A4D6F00ED64084C70DFC280C281C1
:014D79002217
:104D7A00C283E4FDFCC280EF30E004D2818002C22B
:104D8A008100000000D280EFC313FF0DBD00010CAB
:0A4D9A00ED64084C70DFC280C28196
:014DA40022EC
:104DA500C2CCE4FDFCC280EF30E004D2818002C2B7
:104DB5008100000000D280EFC313FF0DBD00010C80
:0A4DC500ED64084C70DFC280C2816B
:014DCF0022C1
:0D000E00D282000000000000C282024D4FAF
:0D570100D283000000000000C283024D7A38
:0D570E00D2CC000000000000C2CC024DA56E
:05438E00E4900431F091
:104393001257FFAE077F4012000E7FC012000EE4DB
:1043A300FB742F2BF582E43404F583E0FF124D4FA9
:1043B30074372BF582E43404F583E0FF124D4F0B81
:1043C300EBB408DDEE2488FF12000ED2827F401288
:1043D30057017FC0125701E4FB743F2BF582E4348D
:1043E30004F583E0FF124D7A74472BF582E434041D
:1043F300F583E0FF124D7A0BEBB408DDEE2488FF62
:10440300125701D2837F4012570E7FC012570EE41A
:10441300FB744F2BF582E43404F583E0FF124DA5C2
:1044230074572BF582E43404F583E0FF124DA50B9A
:0D443300EBB408DDEE2488FF12570ED2CC4A
:014440002259
:1049D200E490058FF0E4FFE4FE90058FE02484F577
:1049E20082E43405F583E0FDEF75F008A4242FF589
:1049F20082E43404F583E5822EF582E43583F5837F
:104A0200EDF00EEEB408D20FEFB406CB1243937F53
:104A12001E1255F290058FE004F0E0C3940840B5F1
:014A22002271
:1055F200EFD39400400B7EFF7DFFDDFEDEFA1F80BD
:01560200EFB8
:015603002284
:104DD000E4FFE4FEEF75F008A4242FF582E4340428
:104DE000F583E5822EF582E43583F583E4F00EEE5B
:084DF000B408E10FEFB406DA8C
:014DF8002298
:0A571B007F78900484E4F0A3DFFC23
:015725002261
:104BF000E4FF125847EF6401702A124DD090042E42
:104C0000E05403FF242FF582E43404F5837440F06C
:104C1000124393E4FF12584D90042EE004F0E0B4E8
:044C20000402E4F0B6
:014C2400226D
:103D8700124DD01246F0900461E090043EF090048A
:103D97005FE090043DF09006A5E0FF75F00A8424EB
:103DA7005FF582E43404F583E090043CF0EF75F0AE
:103DB7000A84745F25F0F582E43404F583E0900407
:103DC7003BF090043A7440F09006A6E0FF75F00AC5
:103DD70084245FF582E43404F583E0900439F0EF3E
:103DE70075F00A84745F25F0F582E43404F583E006
:103DF700900438F09004377440F09006A7E0FF7500
:103E0700F00A84245FF582E43404F583E0900436F5
:103E1700F0EF75F00A84745F25F0F582E43404F559
:103E270083E0900435F09006ABE0245FF582E4343C
:103E370004F583E0900434F09006A8E0FF75F00ADB
:103E470084245FF582E43404F583E0900432F0EFD4
:103E570075F00A84745F25F0F582E43404F583E095
:103E6700900431F09006A9E0FF75F00A84245FF50D
:103E770082E43404F583E0900430F0EF75F00A84AF
:103E8700745F25F0F582E43404F583E090042FF0A5
:033E970002439350
:10545300AD07124DD090046EE0900430F0745F2DD0
:0F546300F582E43404F583E090042FF0024393C4
:10547200AD07124DD090046DE0900430F0745F2DB2
:0F548200F582E43404F583E090042FF0024393A5
:1055A200124DD090045FE0900430F090042F7437D5
:0455B200F00243932D
:10556100124DD090045FE0900430F090046EE09012
:06557100042FF002439339
:10554A00AD07124DD0745F2DF582E43404F583E083
:07555A0090042FF0024393BF
:104CF300AD07124DD0ED75F00A84245FF582E434DC
:104D030004F583E0900430F0ED75F00A84745F25B8
:104D1300F0F582E43404F583E090042FF00243932A
:1047CB00AB07AA06124DD07C007D64AF03AE02127C
:1047DB002467745F2FF58274043EF583E0900431F7
:1047EB00F07C007D0AAF03AE021224677C007D0AC9
:1047FB00122467745F2DF58274043CF583E09004FA
:10480B0030F0AE02AF037C007D0A122467745F2D7B
:0F481B00F58274043CF583E090042FF002439380
:06482A007B017A0579FE16
:10483000124DD01223DB245FF582E43404F583E0CB
:10484000900432F09000011223F4245FF582E434E6
:1048500004F583E0900431F09000021223F4245F09
:10486000F582E43404F583E0900430F09000031204
:1048700023F4245FF582E43404F583E090042FF000
:034880000243935D
:10334D00124DD09004C6E060179005D27401F0A321
:10335D007404F0A374C6F07B017A04795E1242D036
:10336D009004C0E060179005D27401F0A37404F0CE
:10337D00A374C0F07B017A04795A1242D09004BA3A
:10338D00E060179005D27401F0A37404F0A374BA31
:10339D00F07B017A0479561242D09004B4E06017A4
:1033AD009005D27401F0A37404F0A374B4F07B0102
:1033BD007A0479521242D09004AEE060179005D293
:1033CD007401F0A37404F0A374AEF07B017A047958
:1033DD004E1242D09004A8E060179005D27401F00F
:1033ED00A37404F0A374A8F07B017A04794A124205
:1033FD00D09004A2E060179005D27401F0A374047C
:10340D00F0A374A2F07B017A0479461242D09004A5
:10341D009CE060179005D27401F0A37404F0A374BE
:10342D009CF07B017A0479421242D0900496E060C0
:10343D00179005D27401F0A37404F0A37496F07B79
:10344D00017A04793E1242D0900490E06017900505
:10345D00D27401F0A37404F0A37490F07B017A048C
:10346D00793A1242D090048AE060179005D2740127
:10347D00F0A37404F0A3748AF07B017A04793612F8
:10348D0042D0900484E060179005D27401F0A374CB
:10349D0004F0A37484F07B017A0479321242D022B5
:1042D0009005CFEBF0A3EAF0A3E9F0A3E0FBA3E0A5
:1042E000FAA3E0F99000011223F4245FF582E4348C
:1042F00004F583E0FF9005CFE0FBA3E0FAA3E0F92B
:10430000EF1224219005D2E0FBA3E0FAA3E0F9909C
:1043100000021223F4245FF582E43404F583E0FF05
:104320009005CFE0FBA3E0FAA3E0F990FFFFEF12C6
:1043300024339005D2E0FBA3E0FAA3E0F990000358
:104340001223F4245FF582E43404F583E0FF900542
:10435000CFE0FBA3E0FAA3E0F990FFFEEF122433D5
:104360009005D2E0FBA3E0FAA3E0F9900004122349
:10437000F4245FF582E43404F583E0FF9005CFE098
:0E438000FBA3E0FAA3E0F990FFFDEF02243367
:103F85009005C3EBF0A3EAF0A3E9F0A3E0FBA3E0FF
:103F9500FAA3E0F91223DBFF9005C3E0FBA3E0FAE7
:103FA500A3E0F9EF1224219005C6E0FBA3E0FAA3F4
:103FB500E0F99000011223F4FF9005C3E0FBA3E0B4
:103FC500FAA3E0F9900001EF1224339005C6E0FB57
:103FD500A3E0FAA3E0F99000021223F4FF9005C3D1
:103FE500E0FBA3E0FAA3E0F9900002EF122433907E
:103FF50005C6E0FBA3E0FAA3E0F99000031223F461
:10400500FF9005C3E0FBA3E0FAA3E0F9900003EFFE
:104015001224339005C6E0FBA3E0FAA3E0F9900073
:10402500041223F4FF9005C3E0FBA3E0FAA3E0F933
:10403500900004EF1224339005C6E0FBA3E0FAA339
:10404500E0F99000071223F4FF9005C3E0FBA3E01D
:0B405500FAA3E0F9900005EF0224330D
:0F48D800EF75F006A42478F9740435F0FA7B012B
:1048E7001223DB9000061224339000011223F49068
:1048F70000071224339000021223F49000081224B8
:10490700339000031223F49000091224339000041B
:104917001223F490000A1224339000051223F49016
:05492700000B02243327
:0F492C00EE75F006A42484F9740435F0FA7B01CB
:10493B009000061223F41224219000071223F49006
:10494B0000011224339000081223F4900002122469
:10495B00339000091223F490000312243390000AC1
:10496B001223F490000412243390000B1223F490C2
:05497B000005022433D9
:1034AD0078C77C057D017BFF7A55791B7E007F06F1
:1034BD001223B5E49005CDF0A3F01257F39005CD8E
:1034CD00EFF01257E79005CEEFF01257E19005C5DA
:1034DD00EFF01257DB9005C6EFF01258659005C658
:1034ED00E0FE9005C5E0FDC39E500AEF9D4006EE3F
:1034FD006003E0701B9005C6E0600302360890057E
:10350D00C5E0FE7003023608EFD39E500302360865
:10351D00E49005C3F09005C3E0FFC3940A5021EF7A
:10352D0075F006A42484F582E43404F583E0700874
:10353D009005C3E0A3F080089005C3E004F080D5AA
:10354D00E49005C3F09005C3E0FFA3E075F006A479
:10355D002FF582E435F0F583E582247EF582E5834F
:10356D003404F583E0FE74C72FF582E43405F5834A
:10357D00EEF09005C3E004F0E0B406C99005C4E098
:10358D009005C3F09005C3E0FFD39401400B1248A2
:10359D00D89005C3E014F080EBE49005C3F09005DE
:1035AD00C3E0FF24C7F582E43405F583E0FE74849F
:1035BD002FF582E43404F583EEF09005C3E004F0BA
:1035CD00E0B406DA12334D124393E4FF12586B90B8
:1035DD0005CDE0B401257B017A047984900484E063
:1035ED00FD9005D3E4F0A3EDF0900489E0540F9025
:0B35FD0005D5F09005CEE0FF12254B35
:01360800229F
:103C6600E49005C9F0A3F01257E19005C4EFF012F5
:103C760057DB9005C5EFF01258659005C6EFF012B8
:103C860057D59005C7EFF01257CF9005C8EFF01241
:103C960057ED9005CAEFF09005C4E0FFA3E0FEC320
:103CA6009F500EA3E09E4009EF60069005C5E070A8
:103CB6001A9005C4E06003023D86A3E0FF7003028C
:103CC6003D86A3E0D39F5003023D86E49005C3F0F2
:103CD6009005C7E014FF9005C3E0FEC39F500B128A
:103CE600492C9005C3E004F080E69005C7E0147502
:103CF600F006A49005C3F09005C7E075F006A4FF92
:103D06009005C3E0FDC39FE5F06480F87480985089
:103D16001474842DF582E43404F583E4F09005C32D
:103D2600E004F080D212334D124393E4FF12586B35
:103D3600900484E07004FF0257C99005C8E064024D
:103D4600703E9005C3F09005CAE0FF9005C3E0C33E
:103D56009F502D7B017A047984900484E0FD9005C0
:103D6600D3E4F0A3EDF0900489E0540F9005D5F06C
:103D76009005C9E0FF12254B9005C3E004F080C60C
:013D8600221A
:10467800E4900591F01257D5900591EFF0E490057C
:1046880090F0900591E014FF900590E0FEC39F50D4
:104698000B12492C900590E004F080E6900591E01B
:1046A8001475F006A4900590F0900591E075F00659
:1046B800A4FF900590E0FDC39FE5F06480F8748046
:1046C80098501474842DF582E43404F583E4F09052
:1046D8000590E004F080D212334D12439390048485
:0746E800E07004FF1257C946
:0146EF0022A8
:1040600078927C057D017BFF7A5579217E007F0661
:104070001223B51257D5900591EFF01257D5E49061
:104080000590F0900590E0FEC39F5020EE75F0067D
:10409000A42484F582E43404F583E070079005914C
:1040A000EEF08008900590E004F080D7E490059051
:1040B000F0900590E0FF2484F582E43404F583E079
:1040C000FE74922FF582E43405F583EEF0900590AE
:1040D000E004F0E0B406DAE4900590F0900591E099
:1040E000FF900590E0FEC39F500B12492C90059065
:1040F000E004F080E7E4900590F0900590E0FF2464
:1041000092F582E43405F583E0FE900591E075F0C8
:1041100006A42FF582E435F0F583E582247EF5824E
:10412000E5833404F583EEF0900590E004F0E0B40C
:0841300006C812334D0243934F
:1041380078927C057D017BFF7A5579277E007F0682
:104148001223B51257D5900591EFF01257D5E49088
:104158000590F0900590E0FEC39F5020EE75F006A4
:10416800A42484F582E43404F583E0700790059173
:10417800EEF08008900590E004F080D7E490059078
:10418800F0900590E0FFA3E075F006A42FF582E417
:1041980035F0F583E582247EF582E5833404F583E2
:1041A800E0FE74922FF582E43405F583EEF0900575
:1041B80090E004F0E0B406C9900591E0900590F015
:1041C800900590E0FFD39401400B1248D8900590D9
:1041D800E014F080EBE4900590F0900590E0FF2467
:1041E80092F582E43405F583E0FE74842FF582E4C9
:1041F8003404F583EEF0900590E004F0E0B406DABC
:0642080012334D02439346
:0B301E009005C3EBF0A3EAF0A3E9F07B
:1030290078CC7C057D017BFF7A55792D7E007F0662
:103039001223B51257D59005CAEFF01257D590054E
:10304900CBEFF0E49005C9F09005CBE0FF9005C9FE
:10305900E0FEC39F4003023131EE75F006A4FFAED6
:10306900F09005C6E0FBA3E0FAA3E02FF9EA3EFAE7
:103079009000011223F4FD9005C3E0FBA3E0FAA33D
:10308900E0F99000011223F46D60030231289005E4
:10309900C6E0FBA3E0FAA3E02FF9EA3EFA900002AA
:1030A9001223F4FF9005C3E0FBA3E0FAA3E0F99033
:1030B90000021223F46F70679005C9E075F006A449
:1030C900FFAEF09005C6E0FBA3E0FAA3E02FF9EA12
:1030D9003EFA9000031223F4FD9005C3E0FBA3E040
:1030E900FAA3E0F99000031223F4B505329005C65E
:1030F900E0FBA3E0FAA3E02FF9EA3EFA90000412FC
:1031090023F4FF9005C3E0FBA3E0FAA3E0F99000E4
:10311900041223F4B507089005C9E0A3F0800990CB
:1031290005C9E004F00230519005CAE09005C9F0E4
:103139009005CBE0FF9005C9E0FEC39F5021EE75D5
:10314900F006A4FF9005C6E0FBA3E0FAA3E02FF97F
:10315900EA35F0FA12493B9005C9E004F080D190B4
:1031690005CBE0FF9005CAE06F603DE49005C9F02A
:103179009005CBE024FFFFE434FFFE7C007D0612BE
:1031890024559005C6E0FBA3E0FAA3E02FF9EA3E37
:10319900FAA3E07E0029F9EE3AFAE4122421900517
:1031A900C9E004F0E0B406C89005C6E0FBA3E0FA64
:0C31B900A3E0F91223DB7004FF1257C9D9
:0131C50022E7
:1055B600E4FF125835EFB40105124BF08003123D9B
:0455C6008702571BE6
:05000600E4FF02545369
:05001E007F01025453B4
:0558A1007F02025453D8
:0558A6007F03025453D2
:0558AB007F04025453CC
:0558B0007F05025453C6
:0558B5007F06025453C0
:0558BA007F07025453BA
:0558BF007F08025453B4
:0558C4007F09025453AE
:0558C9007F0A025453A8
:0558CE007F0B025453A2
:0558D3007F0C0254539C
:0558D8007F0D02545396
:104B3C00125835EFB401057F010257C9125847BF0F
:104B4C000108123D877F0212584D125847BF0319B6
:104B5C00E490043EF090043DF090043CF090043B53
:0C4B6C00F0124393E4FF12584D1244E095
:014B7800221A
:104DF900125847BF0108123D877F0212584D1258B9
:104E090047BF0311E4900439F0900438F01243933A
:084E1900E4FF12584D0244E0D1
:104E2100125847BF0108123D877F0212584D125890
:104E310047BF0311E4900436F0900435F012439318
:084E4100E4FF12584D0244E0A9
:10522C00125847BF0108123D877F0212584D125881
:10523C0047BF030DE4900434F0124393E4FF12587B
:04524C004D0244E0EB
:10525000125847BF0108123D877F0212584D12585D
:1052600047BF030DE4900432F012438FE4FF12585D
:045270004D0244E0C7
:104E4900125847BF0108123D877F0212584D125868
:104E590047BF0311E4900430F090042FF0124393FC
:084E6900E4FF12584D0244E081
:105604007F01125472E49005FEF0A3F0A3F0A3040A
:02561400F02282
:105616007F02125472E4900606F0A3F0A3F0A304EE
:02562600F02270
:105628007F03125472E490060FF0A3F0A3F0A304D2
:02563800F0225E
:10563A007F04125472E4900619F0A3F0A3F0A304B5
:02564A00F0224C
:10564C007F01125472E4900602F0A3F0A3F0A304BD
:02565C00F0223A
:10565E007F02125472E490060BF0A3F0A3F0A304A1
:02566E00F02228
:105670007F03125472E4900615F0A3F0A3F0A30484
:02568000F02216
:105682007F04125472E490061EF0A3F0A3F0A30468
:02569200F02204
:0558DD007F010254727E
:0558E2007F0202547278
:08574C00E4FF1257DB024CF3ED
:08575400E4FF1257E1024CF3DF
:0558E7007F0102547274
:0558EC007F020254726E
:0558F1007F0302547268
:0558F6007F0402547262
:0558FB007F050254725C
:055900007F010254725A
:055905007F0202547254
:05590A007F030254724E
:05590F007F0402547248
:0E56E5007F0112547212581D90058EEFF022B4
:055914007F0202547245
:055919007F0102547241
:05591E007F020254723B
:1054E800E4FFFEFDFC125743AC06AD077E277F1094
:0A54F800122467AC06AD070247CB93
:08575C00E4FF12583B02554A1C
:08576400E4FF12583502554A1A
:055923007F0F02545348
:10538C00125847BF010812482A7F0212584D125872
:10539C0047BF030DE4900432F0124393E4FF12581C
:0253AC004D2290
:10002600125847BF010812482A7F0212584D12582B
:0D00360047BF030812438EE4FF12584D220D
:1053AE00125847BF010812482A7F0212584D125850
:1053BE0047BF030DE4900430F0124393E4FF1258FC
:0253CE004D226E
:1053D000125847BF010812482A7F0212584D12582E
:1053E00047BF030DE490042FF0124393E4FF1258DB
:0253F0004D224C
:104E7100125847BF010E7B017A0679061248307F2E
:104E81000212584D125847BF030DE4900432F0123C
:084E91004393E4FF12584D2287
:10529700125847BF010E7B017A0679061248307F04
:1052A7000212584D125847BF030812438EE4FF12EB
:0352B700584D222D
:104E9900125847BF010E7B017A0679061248307F06
:104EA9000212584D125847BF030DE4900430F01216
:084EB9004393E4FF12584D225F
:104EC100125847BF010E7B017A0679061248307FDE
:104ED1000212584D125847BF030DE490042FF012EF
:084EE1004393E4FF12584D2237
:104EE900125847BF010E7B017A06790F1248307FAD
:104EF9000212584D125847BF030DE4900432F012C4
:084F09004393E4FF12584D220E
:1052BA00125847BF010E7B017A06790F1248307FD8
:1052CA000212584D125847BF030812438EE4FF12C8
:0352DA00584D220A
:104F1100125847BF010E7B017A06790F1248307F84
:104F21000212584D125847BF030DE4900430F0129D
:084F31004393E4FF12584D22E6
:104F3900125847BF010E7B017A06790F1248307F5C
:104F49000212584D125847BF030DE490042FF01276
:084F59004393E4FF12584D22BE
:104F6100125847BF010E7B017A0679191248307F2A
:104F71000212584D125847BF030DE4900432F0124B
:084F81004393E4FF12584D2296
:1052DD00125847BF010E7B017A0679191248307FAB
:1052ED000212584D125847BF030812438EE4FF12A5
:0352FD00584D22E7
:104F8900125847BF010E7B017A0679191248307F02
:104F99000212584D125847BF030DE4900430F01225
:084FA9004393E4FF12584D226E
:104FB100125847BF010E7B017A0679191248307FDA
:104FC1000212584D125847BF030DE490042FF012FE
:084FD1004393E4FF12584D2246
:104FD900125847BF010E7B017A0679021248307FC9
:104FE9000212584D125847BF030DE4900432F012D3
:084FF9004393E4FF12584D221E
:10530000125847BF010E7B017A0679021248307F9E
:105310000212584D125847BF030812438EE4FF1281
:03532000584D22C3
:10500100125847BF010E7B017A0679021248307FA0
:105011000212584D125847BF030DE4900430F012AC
:085021004393E4FF12584D22F5
:10502900125847BF010E7B017A0679021248307F78
:105039000212584D125847BF030DE490042FF01285
:085049004393E4FF12584D22CD
:10505100125847BF010E7B017A06790B1248307F47
:105061000212584D125847BF030DE4900432F0125A
:085071004393E4FF12584D22A5
:10532300125847BF010E7B017A06790B1248307F72
:105333000212584D125847BF030812438EE4FF125E
:03534300584D22A0
:10507900125847BF010E7B017A06790B1248307F1F
:105089000212584D125847BF030DE4900430F01234
:085099004393E4FF12584D227D
:1050A100125847BF010E7B017A06790B1248307FF7
:1050B1000212584D125847BF030DE490042FF0120D
:0850C1004393E4FF12584D2255
:1050C900125847BF010E7B017A0679151248307FC5
:1050D9000212584D125847BF030DE4900432F012E2
:0850E9004393E4FF12584D222D
:10534600125847BF010E7B017A0679151248307F45
:105356000212584D125847BF030812438EE4FF123B
:03536600584D227D
:1050F100125847BF010E7B017A0679151248307F9D
:105101000212584D125847BF030DE4900430F012BB
:085111004393E4FF12584D2204
:10511900125847BF010E7B017A0679151248307F74
:105129000212584D125847BF030DE490042FF01294
:085139004393E4FF12584D22DC
:10514100125847BF010E7B017A06791E1248307F43
:105151000212584D125847BF030DE4900432F01269
:085161004393E4FF12584D22B4
:10536900125847BF010E7B017A06791E1248307F19
:105379000212584D125847BF030812438EE4FF1218
:03538900584D225A
:10516900125847BF010E7B017A06791E1248307F1B
:105179000212584D125847BF030DE4900430F01243
:085189004393E4FF12584D228C
:10519100125847BF010E7B017A06791E1248307FF3
:1051A1000212584D125847BF030DE490042FF0121C
:0851B1004393E4FF12584D2264
:08576C00E4FF1257CF02554A79
:08577400E4FF1257D5024CF3CB
:08577C00E4FF1257E702554A51
:08578400E4FF1257ED02554A43
:08578C00E4FF1257F302554A35
:1054AF00E4900590F01257F9900590EFF075F00326
:0D54BF00A4FF1253F2900590E0FF02554A41
:08579400E4FF1257FF02554A21
:1051B900E4900590F0125805900590EFF0C3940A19
:1051C9005005E0FF02554A900590E0C3940B500347
:0651D9000255A21255610F
:0151DF0022AD
:08579C00E4FF12580B02554A0C
:0857A400E4FF12581102554AFE
:0857AC00E4FF12581702554AF0
:104BB600E4900590F012581D900590EFF012554ABA
:104BC60090058EE0FF900590E06F601D1249809081
:104BD6000590E090058EF0125829BF010C7F807E6B
:094BE60000124CC6E4FF12582F26
:014BEF0022A3
:104C2500E4900590F0125823900590EFF0124CF3A4
:104C3500125829BF011E1256D71255CA1256D790BF
:104C45000590E02442FFE433FE124CC61256D7E429
:044C5500FF12582FC3
:014C59002238
:0658410012334D024393F7
:101F63004106B6004106BB004106B9004106BA006E
:101F73004106B7004106B4004106BC004106B80063
:041F83004106B5005E
:1056C700438901758C3C758AB0D2AFD2A9D28C229E
:0E56F300438910758DFF758B9CD2AFD2AB2210
:03000B00023E9A18
:103E9A00C0E0C0F0C083C082C0D075D000C000C0EE
:0D3EAA0001C002C003C004C005C006C0076F
:103EB7009005F5E4F0A3F0C28D758C3C758AB012BD
:103EC70057C39005F5EFF01258359005F6EFF090CF
:103ED70006B6E004F0E0B4050B9006BBE004F090F2
:103EE70006B6E4F09006BBE0C394044002E4F09009
:103EF70006B9E0B40104A3E004F0125889BF011425
:103F07009006B7E004F0E0D39478400812588F90F9
:103F170006B7E4F09005F5E0FFB45F159006B4E04E
:103F270004F0E0B4140B9006BCE004F09006B4E48F
:103F3700F0EF645F60129006B8E004F0E0D394C835
:103F47004006E4F0FF1257C99005F5E07015A3E0AD
:103F5700B402109006B5E004F0E0C3940A4004B23E
:033F6700CDE4F0B6
:103F6A00D007D006D005D004D003D002D001D000AB
:0B3F7A00D0D0D082D083D0F0D0E03255
:03001B00024A2373
:104A2300C0E0C0F0C083C082C0D075D000C000C059
:0D4A330001C002C003C004C005C006C007DA
:104A4000E4FF1257C3C28F758DFF758B9CEFB42E98
:094A50000512203780031231C663
:104A5900D007D006D005D004D003D002D001D000B1
:0B4A6900D0D0D082D083D0F0D0E0325B
:055847009006BBE0FF2C
:01584C002239
:06584D009006BBEFF02203
:065853009006B9EFF022FF
:055859009006BAE0FF1B
:01585E002227
:06585F00E49006BAF022FD
:055865009006BCE0FF0D
:01586A00221B
:06586B009006BCEFF022E4
:06587100E49006B8F022ED
:065877009006BAEFF022DA
:0B1F87004806A4140F09040C220006F9
:044ABE00E0FD7F8A0E
:104AC200D2A0EF54FEFFE4FEEF30E004D2A1800258
:104AD200C2A1D2A2C2A2EFC313FF0EEEB408E9E450
:104AE200FEED30E004D2A18002C2A1D2A2C2A2EDA8
:0A4AF200C313FD0EEEB408E9C2A0E4
:014AFC002297
:104AFD00D2A0EF4401FFE4FDEF30E004D2A180022B
:104B0D00C2A1D2A2C2A2EFC313FF0DEDB408E9E416
:104B1D00FDEEC313FE30A1054480FE8004EE547FEC
:0E4B2D00FED2A2C2A20DEDB408E7C2A0AF06F0
:014B3B002257
:1044E000E4FF74A42FF582E43406F583E0FE75F052
:1044F0000A84FDEE75F00A8474AC2FF582E434066C
:10450000F583E5F0F0EDC454F0FE74AC2FF582E4D1
:104510003406F583E02EF00FEFB408C6E4FD7F8E7D
:10452000124AC27D807F80124AC29006ADE0FD7FB4
:104530008C124AC2A3E0FD7F88124AC2A3E0FD7F2D
:1045400086124AC29006B3124ABE9006B0E0FD7FC2
:1045500084124AC2A3E0FD7F82124AC2A3E0FD7F1B
:0F45600080124AC2A3124ABE7D807F8E024AC2D9
:1046F0007F8C124AFD9006ADEFF07F88124AFDA331
:10470000EFF07F86124AFDA3EFF07F84124AFDA3EB
:10471000EFF07F82124AFDA3EFF07F80124AFDEF97
:10472000547FA3F07F8A124AFDA3EFF0E4FF74AC3C
:104730002FF582E43406F583E0FEC4540FFDEE54F9
:104740000FFE74A42FF582E43406F583EEF0ED75C8
:10475000F00AA4FE74A42FF582E43406F583E02E5B
:06476000F00FEFB408C8E1
:014766002230
:0B572600C2A0C2A2E4FD7F80024AC2C4
:101F920041069100410690004106960041069900D3
:101FA2004106A000410685004106840043069D00CB
:101FB2000000420697004642069B007842068100D6
:101FC2000042067F000042068E0000420692004652
:101FD20042069400784206A20000410683004106B0
:101FE200A10041069A004106860041068A00430686
:0A1FF2008700000043068B0000008A
:0757BC00D2AFD2A8D288226F
:030003000257B4ED
:0857B400C2A8208E02D28E3241
:1054CC00E4900691F0900690F0900699F090069674
:0C54DC00F09006A0F0900684F0A3F022EF
:1031C60030B2059006998003900696E004F09006CA
:1031D60085E004F0E0D394A07480948F4007C28EFB
:1031E600D2A80254CC900684E014603F1460751493
:1031F60070030232B524036003023345900699E05A
:10320600D394004003023345900696E0FFC3900630
:1032160098E09F900697E09400400302334C900696
:1032260084E004F0E4900699F08034900699E0FF7B
:10323600FD900696E02DFDE433FCC390069CE09DD0
:1032460090069BE09C5003023345EFD39401500354
:1032560002334C30A802C2A8900684E004F0E49041
:103266000696F022900696E0D394004013900699B5
:10327600E0900691F0E4900699F0900684E004F060
:10328600900697E0FEA3E0FF90069CE02FFF9006D5
:103296009BE03EFEEF7803CEC313CE13D8F9FF9022
:1032A6000699E0D39FE49E500302334C02334590C7
:1032B6000699E0D39400405C900696E0FF90069055
:1032C600F0E4900696F09006847402F09006A0E072
:1032D600131313541FFE249DF582E43406F583E090
:1032E600FD25E0F0900691E0D39F400E749D2EF5EB
:1032F60082E43406F583E04401F09006A0E004F091
:10330600E0D39417400EC28E1254CC9006837401FB
:10331600F0D2A822900697E0FEA3E0FF90069CE07C
:103326002FFF90069BE03EFEEF7803CEC313CE132D
:10333600D8F9FF900696E0D39FE49E4009800012DC
:0733460054CCD2A8C28E2274
:102CBB00900683E064016003022E73C2A890069A0B
:102CCB00E0146027046003022E6C90069DE09006D2
:102CDB0087F090069EE0900688F090069FE09006A5
:102CEB0089F090069A7401F0022E6C90069DE0FF1D
:102CFB00900687E06F6003022E5490069EE0FE90D4
:102D0B000688E06E6003022E5490069FE0FD90064D
:102D1B0089E06D6003022E5490068BE06F7012A356
:102D2B00E06E700DA3E0B50508900686E07020807C
:102D3B000090069DE090068BF090069EE090068C2E
:102D4B00F090069FE090068DF09006A17401F09034
:102D5B0006867401F0125871E49005C4F09005C416
:102D6B00E0FFC394084003022E37EF75F020A42434
:102D7B0000FDE5F03406FC7B017A0579CD9005F377
:102D8B007420F07FA01246111256D7E49005C3F0C1
:102D9B009005C3E0FFC394204003022E2E74CD2F69
:102DAB00F582E43405F583E070709005C4E075F0AE
:102DBB0020A4FF9005C3E07C002FFFEC35F0FEEF65
:102DCB007803C333CE33CED8F92400FDEE3437FC71
:102DDB007B017A0579C59005F37408F07FA0124644
:102DEB00111256D790068BE0FF9005CAE0B5072A63
:102DFB0090068CE0FF9005CBE0B5071E90068DE0AA
:102E0B00C4540FFF9005CCE0FEC4540FB5070B90D4
:102E1B00068A7401F012587180099005C3E004F022
:102E2B00022D9B9005C4E004F0022D68E490069DF2
:102E3B00F0A3F0A3F0900687F0A3F0A3F07F0112AC
:102E4B00582FE490069AF0801890069DE090068724
:102E5B00F090069EE0900688F090069FE090068921
:082E6B00F0D2A8E4900683F008
:012E7300223C
:1020370030B2059006998003900696E004F090066A
:1020470085E004F0E0D394A07480948F4006C28E9C
:10205700D2A88027900684E014605A1470030221E6
:102067004B147003022196240360030222DD9006BD
:1020770099E0D394004007D2A8C28E0254CC9006B0
:1020870081E0FEA3E0FF7C007D0F122455EF243C86
:10209700FFE43EFE900696E0D39FEC9E500302229B
:1020A700E4900684E004F0900697EEF0A3EFF0E4E6
:1020B700A3F002214690067FE0FEA3E0FF7C007DAF
:1020C7000F122455EF2478FFE43EFE900699E0F9BD
:1020D700FD900696E02DFDE433FCD3ED9FEC9E408A
:1020E70022E9701C900680E004F0700690067FE0FD
:1020F70004F0900682E004F07006900681E004F098
:102107000222DDE9D3940150030222E490067FE026
:10211700FEA3E0FF7C007D0F122455EF2478FFE437
:102127003E90069BF0A3EFF0E490067FF0A3F0A3A8
:10213700F0A3F030A802C2A8900684E004F0E4906F
:102147000696F022900696E0D394004013900699E5
:10215700E0900691F0E4900699F0900684E004F090
:10216700900697E0FEA3E0FF90069CE02FFF900605
:102177009BE03EFEEF7803CEC313CE13D8F9FF9052
:102187000699E0D39FE49E50030222E40222DD90E9
:102197000699E0D3940050030222B2900696E0FF1E
:1021A700900690F0E4900696F09006847402F09002
:1021B70006A0E0131313541FFE249DF582E4340692
:1021C700F583E025E0F0900691E0FDD39F400E7483
:1021D7009D2EF582E43406F583E04401F09006A0D5
:1021E700E004F0E0D3941750030222B2C28E9006A7
:1021F70090E02DFEE43390068EF0A3CEF01254CC7F
:102207009006A3E004F070069006A2E004F09006A2
:102217009BE0FEA3E0FF900695E02FF0900694E088
:102227003EF0E0C313FEA3E013FF90069BEEF0A37E
:10223700EFF0900694EEF0A3EFF0D39006A3E094AE
:10224700019006A2E09400405F900692E0FEA3E0B2
:10225700FF900697E0FCA3E0FD9FFFEC9EFED3EF07
:10226700941EEE94004015900693E09DFF90069211
:10227700E09CFED3EF941EEE9400502C900697E05E
:10228700FEA3E0FF900693E02FF0900692E03EF069
:10229700E0C313FEA3E013FF900697EEF0A3EFF061
:1022A700900692EEF0A3EFF0D2A822900697E0FEF8
:1022B700A3E0FF90069CE02FFF90069BE03EFEEF19
:1022C7007803CEC313CE13D8F9FF900696E0D39FB9
:0E22D700E49E400980001254CCD2A8C28E2290
:05587D009006A1E0FF10
:015882002203
:06588300E49006A1F022F2
:05588900900686E0FF1F
:01588E0022F7
:06588F00E4900686F02201
:0558950090068AE0FF0F
:01589A0022EB
:06589B00E490068AF022F1
:0857430090068EE0FEA3E0FFDA
:01574B00223B
:105413000000000000000000000000000000000089
:105423000000000000000000000000000000000079
:0B1FFC004806BD0000000000000000CF
:10004600789B7C057D017BFF7A5479137E007F20A7
:100056001223B5E49005BBF0A3F0A3F0A3F0A3F040
:10006600A3F0A3F0A3F01257C39005BBEFF012580C
:100076001D9005BCEFF01258239005BDEFF0125706
:10008600CF9005BEEFF01257D59005BFEFF012588E
:10009600059005C0EFF01257E79005C1EFF0125733
:1000A600ED9005C2EFF0122CBB12587DEF64016093
:1000B60003020C2B9005BBE024CE24FC400302096E
:1000C6005824FC4003020A0724FC4003020AA82421
:1000D600FC4003020B4924E47003020BF91470037D
:1000E6000203B5245F6003020C28E4FF12586B90EC
:1000F600068DE0FF54F060030201EA90068BE0FEF5
:10010600C4540FFD9005C0E0FC6D6008EC640A6005
:10011600030201EA9005BCE0B4010CEF540F24740D
:10012600F582E43405800D90068DE0540F2474F5B5
:1001360082E43404F583E0900593F090068BE0FFAB
:10014600900594EDF0EF540FA3F090068CE0FFC4F9
:10015600540F900596F0EF540FA3F0A3EEF090061F
:100166008CE0900599F090068DE090059AF0900548
:1001760093E0FF64336042EF603FE4900591F090B6
:1001860005C2E0FF900591E0C39F50307B017A05E0
:100196007993900593E0FD9005D3E4F0A3EDF090FC
:1001A600068DE0540F9005D5F09005C1E0FF1225AD
:1001B6004B900591E004F080C602048F124DD0905A
:1001C60005C67401F0A37405F0A37493F07B017A5D
:1001D600047984123F8512334D1243937F5F125781
:1001E600C9020C28E4900590F0900590E0FFC394B6
:1001F600304003020C28EF75F020A4FDACF07B0123
:100206007A05799B9005F37420F07FA012461112AF
:1002160056D7E490058FF090058FE0FFC3942040F9
:10022600030203AC749B2FF582E43405F583E0608A
:10023600030203A3900590E075F020A4FF90058FBC
:10024600E07C002FFFEC35F0FEEF7803C333CE33AE
:10025600CED8F92400FDEE3407FC7B017A057993AC
:100266009005F37408F07FA01246111256D7900538
:10027600BCE06401602B90068BE0FF900598E0B52A
:10028600071F90068CE0FF900599E0B507139006CE
:100296008DE0C4540FFF90059AE0FEC4540F6F60C2
:1002A600389005BCE0640160030203A390068BE06E
:1002B600FF900598E06F60030203A390068CE0FFB1
:1002C600900599E06F60030203A390068DE0FF900E
:1002D600059AE06F60030203A3900593E0C394328E
:1002E60050279005BCE090068DB4010CE0540F2415
:1002F60074F582E43405800AE0540F2474F582E430
:100306003404F583E0900593F0900593E0FF6433A1
:100316006042EF603FE4900591F09005C2E0FF90E7
:100326000591E0C39F504C7B017A05799390059324
:10033600E0FD9005D3E4F0A3EDF090068DE0540FB8
:100346009005D5F09005C1E0FF12254B900591E090
:1003560004F080C69005C67401F0A37404F0A3747B
:1003660084F07B017A05799312301E12334D1243C5
:10037600938033124DD09005C67401F0A37405F036
:10038600A37493F07B017A047984123F8512334D6E
:100396001243937F5F1257C9125883800990058FC5
:1003A600E004F002021D900590E004F00201EFE483
:1003B600FF12586B90068DE0FF54F060030206288A
:1003C60090068BE0FEC4540FFD9005C0E0FC6D6006
:1003D60008EC640A60030206289005BCE0B4010C30
:1003E600EF540F2474F582E43405800D90068DE0F9
:1003F600540F2474F582E43404F583E0900593F0F9
:1004060090068BE0FF900594EDF0EF540FA3F0906B
:10041600068CE0FFC4540F900596F0EF540FA3F03E
:10042600A3EEF090068CE0900599F090068DE09092
:10043600059AF09005BEE06401600302054490054C
:1004460093E0FF64336042EF603FE4900591F090E3
:1004560005C2E0FF900591E0C39F50477B017A05F6
:100466007993900593E0FD9005D3E4F0A3EDF09029
:10047600068DE0540F9005D5F09005C1E0FF1225DA
:100486004B900591E004F080C69005C67401F0A378
:100496007404F0A37484F07B017A05799312301EFC
:1004A600020616900594E0FF900485E06F70269092
:1004B6000595E0FF900486E06F701A900596E0FFC0
:1004C600900487E0B5070E900597E0FF900488E05A
:1004D600B50702804F9005BFE0900591F090059119
:1004E600E0FFD39401401AEF75F006A42478F9745E
:1004F6000435F0FA7B011248E7900591E014F0808C
:10050600DCE4900591F0900591E0FFC39406501449
:1005160074842FF582E43404F583E4F0900591E0C9
:1005260004F080E29005C67401F0A37405F0A3748C
:1005360093F07B017A047984123F850206169005B2
:10054600BEE064026003020C28900592F09005BF9D
:10055600E0FF900592E0FEC39F4003020C28EE7573
:10056600F006A42484F582E43404F583E0600302F3
:10057600061FEE75F006A4247FF582E43404F583A5
:10058600E0FF900594E0FEEF6E705F900592E0FF4D
:1005960075F006A42480F582E43404F583E0FE9029
:1005A6000595E0FDEE6D7042EF75F006A42481F529
:1005B60082E43404F583E0FF900596E0FEEF6E706A
:1005C60029900592E0FF75F006A42482F582E434B2
:1005D60004F583E0FE900597E0FDEEB5050CEF759A
:1005E600F006A4247EF97404800D900592E075F05F
:1005F60006A42484F9740435F0FA7B01C00390053F
:10060600C6EBF0A37405F0A37493F0D003123F85F4
:1006160012334D124393020C28900592E004F00227
:100626000553E4900590F0900590E0FFC3943040A8
:1006360003020C28EF75F020A4FDACF07B017A05CF
:10064600799B9005F37420F07FA01246111256D7BD
:10065600E490058FF090058FE0FFC39420400302DD
:10066600094F749B2FF582E43405F583E06003029D
:100676000946900590E075F020A4FF90058FE07C78
:10068600002FFFEC35F0FEEF7803C333CE33CED820
:10069600F92400FDEE3407FC7B017A057993900579
:1006A600F37408F07FA01246111256D79005BCE0ED
:1006B6006401602B90068BE0FF900598E0B5071F5C
:1006C60090068CE0FF900599E0B5071390068DE043
:1006D600C4540FFF90059AE0FEC4540F6F60389023
:1006E60005BCE06401600302094690068BE0FF90BA
:1006F6000598E06F600302094690068CE0FF9005BE
:1007060099E06F600302094690068DE0FF90059A16
:10071600E06F6003020946900593E0C394325027C8
:100726009005BCE090068DB4010CE0540F2474F5DE
:1007360082E43405800AE0540F2474F582E434041C
:10074600F583E0900593F09005BEE0640160030236
:10075600085E900593E0FF64336042EF603FE490EB
:100766000591F09005C2E0FF900591E0C39F504DC2
:100776007B017A057993900593E0FD9005D3E4F02B
:10078600A3EDF090068DE0540F9005D5F09005C1CD
:10079600E0FF12254B900591E004F080C69005C657
:1007A6007401F0A37404F0A37484F07B017A0579D4
:1007B6009312301E12334D12439302094F90059443
:1007C600E0FF900485E06F7026900595E0FF9004A9
:1007D60086E06F701A900596E0FF900487E0B507F3
:1007E6000E900597E0FF900488E0B50702804F90D1
:1007F60005BFE0900591F0900591E0FFD39401408C
:100806001AEF75F006A42478F9740435F0FA7B0122
:100816001248E7900591E014F080DCE4900591F031
:10082600900591E0FFC39406501474842FF582E47A
:100836003404F583E4F0900591E004F080E290053D
:10084600C67401F0A37405F0A37493F07B017A04D7
:100856007984123F850209309005BEE06402600388
:10086600020941900592F09005BFE0FF900592E0E5
:10087600FEC39F4003020941EE75F006A42484F5E9
:1008860082E43404F583E06003020938EE75F0066D
:10089600A4247FF582E43404F583E0FF900594E018
:1008A600FEEF6E705F900592E0FF75F006A424805F
:1008B600F582E43404F583E0FE900595E0FDEE6DE7
:1008C6007042EF75F006A42481F582E43404F583C2
:1008D600E0FF900596E0FEEF6E7029900592E0FF2E
:1008E60075F006A42482F582E43404F583E0FE90D4
:1008F6000597E0FDEEB5050CEF75F006A4247EF92C
:100906007404800D900592E075F006A42484F974B1
:100916000435F0FA7B01C0039005C6EBF0A374051D
:10092600F0A37493F0D003123F8512334D12439314
:100936008009900592E004F002086D125883800940
:1009460090058FE004F002065B900590E004F0024B
:10095600062D7F351257C990068DE0540F9006BDBF
:10096600F09005FEE09006BEF09005FFE09006BF11
:10097600F0900600E09006C0F0900601E09006C1F7
:10098600F090068BE09006C2F090068CE09006C3CD
:10099600F09005BCE090068DB40103E08003E054BE
:1009A600F09006C4F07B017A0679BD122E744003DE
:1009B600020C281256D7900601E06409703D900695
:1009C60000E06409702F9005FFE0B409229005FE4F
:1009D600E004F0E4A3F0A3F09005FEE0B4150AE409
:1009E600F090060104F0020C28900601020BD49048
:1009F60005FF020BDC900600020BE9900601020BD4
:100A0600F47F391257C990068DE0FE540F9006BD4B
:100A1600F0900606E09006BEF0900607E09006BF4E
:100A2600F0900608E09006C0F0900609E09006C136
:100A3600F090068BE09006C2F090068CE09006C31C
:100A4600F0EE54F0A3F07B017A0679BD122AFE403F
:100A560003020C281256D7900609E06409703D90EF
:100A66000608E06409702F900607E0B40922900694
:100A760006E004F0E4A3F0A3F0900606E0B4150A3D
:100A8600E4F090060904F0020C28900609020BD443
:100A9600900607020BDC900608020BE99006090295
:100AA6000BF47F3D1257C99006BD7434F090060FC3
:100AB600E09006BEF0900610E09006BFF09006119A
:100AC600E09006C0F0900612E09006C1F090068B0A
:100AD600E09006C2F090068CE09006C3F090068D7A
:100AE600E054F09006C4F07B017A0679BD12276CBB
:100AF6004003020C281256D7900612E06409703D96
:100B0600900611E06409702F900610E0B409229057
:100B1600060FE004F0E4A3F0A3F090060FE0B4158E
:100B26000AE4F090061204F0020C28900612020B5A
:100B3600D4900610020BDC900611020BE990061207
:100B4600020BF47F411257C99006BD7433F090062C
:100B560019E09006BEF090061AE09006BFF09006E7
:100B66001BE09006C0F090061CE09006C1F09006CF
:100B76008BE09006C2F090068CE09006C3F09006DB
:100B86008DE054F09006C4F07B017A0679BD1229F7
:100B9600354003020C281256D790061CE0640970F3
:100BA6004A90061BE06409703790061AE0B40923E0
:100BB600900619E004F0E4A3F0A3F0900619E0B45F
:100BC6001509E4F090061C04F0805790061C740189
:100BD600F0804F90061AE004F0E4A3F0A3F0804200
:100BE60090061BE004F0E4A3F0803790061CE004B6
:100BF600F0802F9005BCE0B40112A3E0FF90068DB3
:100C0600E0540F2474F582E4340580129005BDE0AB
:100C1600FF90068DE0540F2474F582E43404F583C6
:0B0C2600EFF0125883123C660234AD60
:10543300FFFFFFFFFFFFFFFFFFFFFFFFFFFFFFFF79
:10544300FFFFFFFFFFFFFFFFFFFFFFFFFFFFFFFF69
:102007006020062F00000000000000000000000014
:1020170000000000000000000000000000000000B9
:0F2027000000000048064F00000000000000000D
:03592800DFFE227D
:10558D00AE07AF061EEF600C7FF51259287FF5129E
:05559D00592880EE22F8
:10557700D2B400D2B50000000000C2B400000000A1
:0655870000C2B500002285
:10569400C2B400D2B50000000000D2B40000000083
:0156A40022E3
:104B7900E4FEEFA806088002C333D8FC30E704D26C
:104B8900B48002C2B400D2B50000000000C2B50E64
:104B9900EEB408DE0000D2B40000D2B50000003047
:0C4BA900B404C20A8002D20AC2B50000A7
:014BB50022DD
:10520700E4FFD2B4FE00C2B50000000000D2B50032
:1052170000EF25E0FF30B4010F00000EEEB408E503
:04522700C2B500000C
:01522B002260
:1056A500C2B4000000D2B50000000000C2B5000081
:0156B50022D2
:1056B600D2B4000000D2B50000000000C2B5000060
:0156C60022C1
:10476700900593E075F020A42400FDE5F03406FCE5
:0E4777007A06792F7B0174209005CEF07FA08A
:10478500125577124B79200A02C322ECFF124B799E
:10479500200A02C322AF05124B79200A02C322E484
:1047A500FD9005CEE0FFEDC39F50161223DBFF12EF
:1047B5004B79200A02C322740129F9E43AFA0D80E3
:0547C500E0125694D340
:0147CA0022CC
:1045FB00EF75F020A4FDACF07A06792F74207B01C7
:06460B009005F3F07FA012
:054611009005EDEFF043
:10461600125577E0FF124B79200A02C322ECFF12F3
:104626004B79200A02C322AF05124B79200A02C336
:10463600221255779005EDE004FF124B79200A020D
:10464600C322E4FD9005F3E014FFEDC39F5014125E
:104656005207EF1224211256A5740129F9E43AFAF9
:104666000D80E1125207EF1224211256B61256940B
:01467600D370
:014677002220
:0B2E74009005C3EBF0A3EAF0A3E9F027
:102E7F00E4A3F0A3F09005C6F09005C6E0FFC3945D
:102E8F00384003022F681245FB1256D7E49005C74E
:102E9F00F09005C7E0FFC394204003022F5F742F0B
:102EAF002FF582E43406F583E06003022F56900578
:102EBF00C6E075F020A4FFA3E07C002FFFEC35F0F7
:102ECF00FEEF7803C333CE33CED8F92400FDEE34B2
:102EDF0007FC7A06794F74081246091256D79005E7
:102EEF00C3E0FBA3E0FAA3E0F99000051223F4FF7F
:102EFF00900654E06F70509000061223F4FF900676
:102F0F0055E06F70429000071223F4FF900656E0D1
:102F1F006F7034900650E09005FEF0900651E090EF
:102F2F0005FFF0900652E0900600F0900653E090F7
:102F3F000601F0125829BF010C7F817E00124CC68A
:102F4F00E4FF12582FC3229005C7E004F0022EA011
:102F5F009005C6E004F0022E88E49005C6F09005B7
:102F6F00C6E0FFC39420400302301C1245FB1256EB
:102F7F00D7E49005C7F09005C7E0FFC39420400346
:102F8F00023013742F2FF582E43406F583E0606B63
:102F9F009005C6E075F020A4FFA3E07C002FFFECA6
:102FAF0035F0FEEF7803C333CE33CED8F92400FDCE
:102FBF00EE3407FC9005C3E0FBA3E0FAA3E0F9743D
:102FCF000812477F1256D79005C7E0242FF582E4E9
:102FDF003406F583E4F09005C6E075F020A4FDAC4F
:102FEF00F01247771256D7125829BF010C7F807EF7
:102FFF0000124CC6E4FF12582FD3229005C7E004ED
:0E300F00F0022F859005C6E004F0022F6DC37D
:01301D002290
:0B2AFE009005C3EBF0A3EAF0A3E9F0A1
:102B0900E4A3F0A3F09005C6F09005C6E0FFC394D6
:102B1900384003022BFA1245FB1256D7E49005C739
:102B2900F09005C7E0FFC394204003022BF1742FF6
:102B39002FF582E43406F583E06003022BE8900563
:102B4900C6E075F020A4FFA3E07C002FFFEC35F070
:102B5900FEEF7803C333CE33CED8F92400FDEE342B
:102B690007FC7B017A06794F9005F37408F07FA082
:102B79001246111256D79005C3E0FBA3E0FAA3E071
:102B8900F99000051223F4FF900654E06F705090FD
:102B990000061223F4FF900655E06F70429000077B
:102BA9001223F4FF900656E06F7034900650E090BF
:102BB9000606F0900651E0900607F0900652E09064
:102BC9000608F0900653E0900609F0125829BF0153
:102BD9000C7F817E00124CC6E4FF12582FC322904D
:102BE90005C7E004F0022B2A9005C6E004F0022B89
:102BF90012E49005C6F09005C6E0FFC394084003AF
:102C0900022CB9EF75F020A42400FDE5F03406FC90
:102C19001246031256D7E49005C7F09005C7E0FFA6
:102C2900C394204003022CB0742F2FF582E434069C
:102C3900F583E060699005C6E075F020A4FFA3E084
:102C49007C002FFFEC35F0FEEF7803C333CE33CE93
:102C5900D8F92400FDEE3437FC9005C3E0FBA3E06E
:102C6900FAA3E0F99005CE7408F07FA01247851207
:102C790056D79005C7E0242FF582E43406F583E49E
:102C8900F09005C612476A1256D7125829BF010C8F
:102C99007F807E00124CC6E4FF12582FD322900584
:102CA900C7E004F0022C249005C6E004F0022BFFD3
:012CB900C357
:012CBA0022F7
:0B276C009005C3EBF0A3EAF0A3E9F036
:10277700E4A3F0A3F09005C6F09005C6E0FFC3946C
:102787003840030228681245FB1256D7E49005C764
:10279700F09005C7E0FFC39420400302285F742F21
:1027A7002FF582E43406F583E0600302285690058E
:1027B700C6E075F020A4FFA3E07C002FFFEC35F006
:1027C700FEEF7803C333CE33CED8F92400FDEE34C1
:1027D70007FC7B017A06794F9005F37408F07FA018
:1027E7001246111256D79005C3E0FBA3E0FAA3E007
:1027F700F99000051223F4FF900654E06F70509093
:1028070000061223F4FF900655E06F704290000710
:102817001223F4FF900656E06F7034900650E09054
:10282700060FF0900651E0900610F0900652E090E7
:102837000611F0900653E0900612F0125829BF01D6
:102847000C7F817E00124CC6E4FF12582FC32290E2
:1028570005C7E004F00227989005C6E004F00227B8
:1028670080E49005C6F09005C6E0FFC394084003D6
:10287700022933EF75F020A42400FDE5F03404FCB1
:102887001246031256D7E49005C7F09005C7E0FF3C
:10289700C39420400302292A742F2FF582E43406BB
:1028A700F583E060759005C6E075F020A4FFA3E00E
:1028B7007C002FFFEC35F0FEEF7803C333CE33CE29
:1028C700D8F92400FDEE3427FC9005C3E0FBA3E014
:1028D700FAA3E0F99005CE7408F07FA0124785129D
:1028E70056D79005C7E0242FF582E43406F583E434
:1028F700F09005C6E075F020A42400FDE5F034044F
:102907001247761256D7125829BF010C7F807E00D6
:10291700124CC6E4FF12582FD3229005C7E004F0EB
:0D2927000228929005C6E004F002286DC35E
:012934002280
:0B2935009005C3EBF0A3EAF0A3E9F06B
:10294000E4A3F0A3F09005C6F09005C6E0FFC394A1
:10295000384003022A311245FB1256D7E49005C7CE
:10296000F09005C7E0FFC394204003022A28742F8B
:102970002FF582E43406F583E06003022A1F9005F8
:10298000C6E075F020A4FFA3E07C002FFFEC35F03B
:10299000FEEF7803C333CE33CED8F92400FDEE34F6
:1029A00007FC7B017A06794F9005F37408F07FA04D
:1029B0001246111256D79005C3E0FBA3E0FAA3E03C
:1029C000F99000051223F4FF900654E06F705090C8
:1029D00000061223F4FF900655E06F704290000746
:1029E0001223F4FF900656E06F7034900650E0908A
:1029F0000619F0900651E090061AF0900652E09009
:102A0000061BF0900653E090061CF0125829BF01F7
:102A10000C7F817E00124CC6E4FF12582FC3229017
:102A200005C7E004F00229619005C6E004F0022920
:102A300049E49005C6F09005C6E0FFC39408400342
:102A4000022AFCEF75F020A42400FDE5F03405FC1B
:102A50001246031256D7E49005C7F09005C7E0FF71
:102A6000C394204003022AF3742F2FF582E4340626
:102A7000F583E060759005C6E075F020A4FFA3E043
:102A80007C002FFFEC35F0FEEF7803C333CE33CE5E
:102A9000D8F92400FDEE342FFC9005C3E0FBA3E041
:102AA000FAA3E0F99005CE7408F07FA012478512D2
:102AB00056D79005C7E0242FF582E43406F583E469
:102AC000F09005C6E075F020A42400FDE5F0340583
:102AD0001247761256D7125829BF010C7F807E000C
:102AE000124CC6E4FF12582FD3229005C7E004F021
:0D2AF000022A5B9005C6E004F0022A36C3FE
:012AFD0022B6
:0B38B300900590EBF0A3EAF0A3E9F011
:1038BE00E4A3F0A3F0900593F0900593E0FFC3947A
:1038CE002040030239F11245FB1256D7E4900594BD
:1038DE00F0900594E0FFC3942040030239D7900581
:1038EE0090E0FBA3E0FAA3E0F91223DB702890002E
:1038FE00011223F470209000021223F4701890002D
:10390E00031223F47010742F2FF582E43406F5831E
:10391E0074FFF00239CE900594E0FD242FF582E479
:10392E003406F583E060030239CE900593E075F01E
:10393E0020A47C002DFFEC35F0FEEF7803C333CED0
:10394E0033CED8F92400FDEE3407FC7B017A0679DC
:10395E004F9005F37408F07FA01246111256D790BF
:10396E000590E0FBA3E0FAA3E0F91223DBFF90063B
:10397E0050E06F704B9000011223F4FF900651E05F
:10398E006F703D9000021223F4FF900652E06F70AC
:10399E002F9000031223F4FF900653E0B5072190F9
:1039AE000594E0242FF582E43406F58374FFF0903D
:1039BE000593E075F020A4FDACF01247771256D7B0
:1039CE00900594E004F00238DF900593E075F02046
:1039DE00A4FDACF01247771256D7900593E004F091
:0439EE000238C7D301
:0139F20022B2
:0B3B2F00900590EBF0A3EAF0A3E9F092
:103B3A00E4A3F0A3F0900593F0900593E0FFC394FB
:103B4A00084003023C64EF75F020A42400FDE5F070
:103B5A003406FC1246031256D7E4900594F09005F9
:103B6A0094E0FFC394204003023C55900590E0FB8B
:103B7A00A3E0FAA3E0F91223DB70289000011223D4
:103B8A00F470209000021223F4701890000312239C
:103B9A00F47010742F2FF582E43406F58374FFF065
:103BAA00023C4C900594E0FD242FF582E43406F59E
:103BBA0083E06003023C4C900593E075F020A47CFE
:103BCA00002DFFEC35F0FEEF7803C333CE33CED8A9
:103BDA00F92400FDEE3437FC7B017A06794F900513
:103BEA00F37408F07FA01246111256D7900590E0A0
:103BFA00FBA3E0FAA3E0F91223DBFF900650E06F83
:103C0A0070409000011223F4FF900651E06F703269
:103C1A009000021223F4FF900652E06F7024900085
:103C2A00031223F4FF900653E06F7016900594E098
:103C3A00242FF582E43406F58374FFF012476712E5
:103C4A0056D7900594E004F0023B68124767125673
:0B3C5A00D7900593E004F0023B43D339
:013C6500223C
:0B360900900590EBF0A3EAF0A3E9F0BD
:10361400E4A3F0A3F0900593F0900593E0FFC39426
:1036240008400302375CEF75F020A42400FDE5F0A8
:103634003404FC1246031256D7E4900594F0900526
:1036440094E0FFC39420400302373E900590E0FBD2
:10365400A3E0FAA3E0F91223DB70289000011223FF
:10366400F470209000021223F470189000031223C7
:10367400F47010742F2FF582E43406F58374FFF090
:10368400023735900594E0FD242FF582E43406F5E5
:1036940083E06003023735900593E075F020A47C45
:1036A400002DFFEC35F0FEEF7803C333CE33CED8D4
:1036B400F92400FDEE3427FC7B017A06794F90054E
:1036C400F37408F07FA01246111256D7900590E0CB
:1036D400FBA3E0FAA3E0F91223DBFF900650E06FAE
:1036E400704F9000011223F4FF900651E06F704177
:1036F4009000021223F4FF900652E06F70339000A2
:10370400031223F4FF900653E06F7025900594E0B4
:10371400242FF582E43406F58374FFF0900593E0DA
:1037240075F020A42400FDE5F03404124776125607
:10373400D7900594E004F0023642900593E075F0CA
:1037440020A42400FDE5F034041247761256D790E5
:093754000593E004F002361DD3D8
:01375D002249
:0B375E00900590EBF0A3EAF0A3E9F067
:10376900E4A3F0A3F0900593F0900593E0FFC394D0
:103779000840030238B1EF75F020A42400FDE5F0FC
:103789003405FC1246031256D7E4900594F09005CF
:1037990094E0FFC394204003023893900590E0FB26
:1037A900A3E0FAA3E0F91223DB70289000011223A9
:1037B900F470209000021223F47018900003122371
:1037C900F47010742F2FF582E43406F58374FFF03A
:1037D90002388A900594E0FD242FF582E43406F539
:1037E90083E0600302388A900593E075F020A47C99
:1037F900002DFFEC35F0FEEF7803C333CE33CED87E
:10380900F92400FDEE342FFC7B017A06794F9005EF
:10381900F37408F07FA01246111256D7900590E074
:10382900FBA3E0FAA3E0F91223DBFF900650E06F57
:10383900704F9000011223F4FF900651E06F704120
:103849009000021223F4FF900652E06F703390004B
:10385900031223F4FF900653E06F7025900594E05E
:10386900242FF582E43406F58374FFF0900593E084
:1038790075F020A42400FDE5F034051247761256B0
:10388900D7900594E004F0023797900593E075F01E
:1038990020A42400FDE5F034051247761256D7908E
:0938A9000593E004F0023772D32C
:0138B20022F3
:1049800078917C057D017BFF7A5479337E007F200E
:104990001223B5E49005B1F0A3F09005B1E0FEA3B9
:1049A000E0FFC39438EE94005027EF7805C333CE70
:1049B00033CED8F9FDAC067A05799112477B1256B1
:1049C000D79005B2E004F070D19005B1E004F0801A
:0149D000C91D
:0149D10022C3
:105502007F7E12573A7F0312573A7F3312573A7F00
:095512000412573A7FEF02573AE8
:064CC0002401FFE433FEB5
:104CC6009005E3EEF0A3EFF07F7E12573A7F0412D1
:104CD600573A7F4112573A9005E3E0FF12573A9050
:0D4CE60005E3A3E0FF12573A7FEF02573AB3
:1053F200900591EFF07F7E12573A7F0312573A7F62
:105402003112573A900591E0FF12573A7FEF025757
:015412003A5F
:1055CA007F7E12573A7F0212573A7F0E12573A7F5E
:0455DA00EF02573A4B
:1055DE007F7E12573A7F0212573A7F0112573A7F57
:0455EE00EF02573A37
:0F39F3009005D6A3E0FFA3E0FBA3E0FAA3E0F961
:053A02009005DFEFF06C
:103A0700A3EBF0A3EAF0A3E9F0EFD394024003029B
:103A17003B0C9005DFE064016017A3E0FBA3E0FA2D
:103A2700A3E0F99000021223F42401FFE433FE809F
:103A3700219005E0E0FBA3E0FAA3E0F99000021271
:103A470023F46011124CC07F1D7E00124CC67F1EEE
:103A57007E00124CC69005DFE064016013A3E0FB13
:103A6700A3E0FAA3E0F99000031223F42401804EA7
:103A77009005E0E0FBA3E0FAA3E0F990000312232E
:103A8700F46042640170249000041223F470047FF0
:103A97000B802E9005E0E0FBA3E0FAA3E0F990008D
:103AA700041223F4240BFFE43380169005E0E0FBB7
:103AB700A3E0FAA3E0F99000031223F42413FFE430
:103AC70033FE124CC69005DFE064016011A3E0FBF2
:103AD700A3E0FAA3E0F99000041223F4801F9005F5
:103AE700E0E0FBA3E0FAA3E0F99000041223F4FF5F
:103AF70060359000031223F46401602BEF2401FF6B
:103B0700E433FE801F9005DFE024FC600D14601095
:103B1700240270137F3E7E00800A7F3C7E00800473
:073B27007F3B7E00124CC63B
:013B2E002274
:0E254B009005CFEFF0A3EBF0A3EAF0A3E9F0C8
:10255900E49005DEF01258059005DEEFF09005CF06
:10256900E0FF7E009005D6EEF0A3EFF09005D0E0F5
:10257900F9A3E0FAA3E09005D8C9F0A3EAF0A3E92A
:10258900F09005D3E0FDA3E09005DBCDF0A3EDF0DD
:102599009005D5E09005DDF0D3EF9402EE9400406C
:1025A900030227567F3E124CC69005DDE0640F708A
:1025B900030226777F687E00124CC69005DEE06430
:1025C9000A600302267E9005D8E0FBA3E0FAA3E0A7
:1025D900F99000011223F4FFD39409502B9005D6EA
:1025E900E07004A3E064016005EF2401803A9005DE
:1025F900D8E0FBA3E0FAA3E0F99000011223F4600C
:1026090074124CC07F1F804A9005D8E0FBA3E0FA02
:10261900A3E0F99000011223F4FFD3940F500FEFB8
:10262900C3940A4009EF2417FFE433FE8044900560
:10263900D8E0FBA3E0FAA3E0F99000011223F42407
:10264900EF601314601614601914601C24047025BB
:102659007F287E00801C7F2C7E0080167F2F7E00C5
:1026690080107F307E00800A7F357E0080047F3FA6
:102679007E00124CC61239F39005DDE0640F600349
:102689000227207F40FE124CC69005DEE0640A60F6
:102699000302271A9005D8E0FBA3E0FAA3E0F9901A
:1026A90000011223F4FFD394095005EF2401801A85
:1026B9009005D8E0FBA3E0FAA3E0F990000112230A
:1026C900F4FFD3940F5009EF2417FFE433FE803E43
:1026D9009005D8E0FBA3E0FAA3E0F99000011223EA
:1026E900F424EF601314601614601914601C240498
:1026F900701F7F287E0080167F2C7E0080107F2F20
:102709007E00800A7F307E0080047F357E00124C77
:10271900C67F417E0080459005D6E07004A3E06441
:1027290002603F9005DBE0FEA3E0FFC39432EE9424
:10273900005009EF2442FFE43EFE80209005DBE0D3
:102749007004A3E06434701A7F3BFE800F9005DBB0
:10275900E07004A3E0643470067F3BFE024CC612AD
:0227690039F342
:01276B00224B
:10457B00024D23E493A3F8E493A34003F68001F2E6
:10458B0008DFF48029E493A3F85407240CC8C33341
:10459B00C4540F4420C8834004F456800146F6DF10
:1045AB00E4800B0102040810204080901D59E47E2A
:1045BB00019360BCA3FF543F30E509541FFEE49305
:1045CB00A360010ECF54C025E060A840B8E493A3CC
:1045DB00FAE493A3F8E493A3C8C582C8CAC583CAF7
:1045EB00F0A3C8C582C8CAC583CADFE9DEE780BEAF
:0120360000A9
:1022E500E709F608DFFA8046E709F208DFFA803EDB
:1022F50088828C83E709F0A3DFFA8032E309F608C8
:10230500DFFA8078E309F208DFFA807088828C832F
:10231500E309F0A3DFFA806489828A83E0A3F608E3
:10232500DFFA805889828A83E0A3F208DFFA804CBD
:1023350080D280FA80C680D4806980F28033801094
:1023450080A680EA809A80A880DA80E280CA8033FD
:1023550089828A83ECFAE493A3C8C582C8CCC58375
:10236500CCF0A3C8C582C8CCC583CCDFE9DEE78045
:102375000D89828A83E493A3F608DFF9ECFAA9F0C4
:10238500EDFB2289828A83ECFAE0A3C8C582C8CC1A
:10239500C583CCF0A3C8C582C8CCC583CCDFEADE33
:1023A500E880DB89828A83E493A3F208DFF980CC95
:1023B50088F0EF60010E4E60C388F0ED2402B4048E
:1023C5000050B9F582EB2402B4040050AF23234535
:0623D50082239023357302
:1023DB00BB010689828A83E0225002E722BBFE0200
:0923EB00E32289828A83E4932233
:1023F400BB010CE58229F582E5833AF583E022509E
:1024040006E92582F8E622BBFE06E92582F8E222E7
:0D241400E58229F582E5833AF583E4932201
:10242100BB010689828A83F0225002F722BBFE019A
:02243100F32294
:10243300F8BB010DE58229F582E5833AF583E8F0DF
:10244300225006E92582C8F622BBFE05E92582C88B
:02245300F22273
:10245500EF8DF0A4A8F0CF8CF0A428CE8DF0A42E9B
:02246500FE2255
:10246700BC000BBE0029EF8DF084FFADF022E4CC59
:10247700F875F008EF2FFFEE33FEEC33FCEE9DEC22
:10248700984005FCEE9DFE0FD5F0E9E4CEFD22ED68
:10249700F8F5F0EE8420D21CFEADF075F008EF2FB2
:1024A700FFED33FD4007985006D5F0F222C398FDA3
:0524B7000FD5F0EA2240
:1024BC00A3F8E0C5F025F0F0E582158270021583D3
:0624CC00E0C838F0E82230
:1024D200D083D082F8E4937012740193700DA3A399
:1024E20093F8740193F5828883E4737402936860AD
:0624F200EFA3A3A380DFAD
:1024F800D083D082F8E4937012740193700DA3A373
:1025080093F8740193F5828883E473740293B5F0A9
:0D251800067403936860E9A3A3A3A380D811
:062525008A838982E47341
:104A74009006C5E0FFA3E0FEA3E0CF90065AF0A3A2
:104A8400EEF0A3EFF09006C8E0CBF0A3E0CAF0A3E9
:104A9400E0C9F07F2290065DAD82AC831223DB8DEA
:104AA400828C83F0A309E970010ADFEC9006C8E068
:0A4AB400FBA3E0FAA3E0F9021739B2
:1016D400E508245AF582E43406F583E005082290EF
:1016E400065730070390065AE475F00112252B02C1
:1016F40023DB2000E97F2ED2008018EF540F2490C2
:10170400D43440D4FF30040BEF24BFB41A00500388
:101714002461FFE50960021509050CE50C7002055A
:101724000B30070E900657E475F00112252BEF02DB
:1017340024210251E07403D2078003E4C207F508B0
:10174400900657122542E4F509F50BF50CE50960FE
:10175400077F2012171780F5750AFFC201C200C265
:1017640002C203C205C206C2081216E3FF700D309E
:1017740007057F00121728AF0CAE0B22B4255FC2F9
:10178400D5C2041216E3FF24D0B40A00501A75F02F
:101794000A780930D50508B6FF0106C6A426F62046
:1017A400D5047002D20380D924CFB41A00EF5004B8
:1017B400C2E5D204021929D20180C6D20080C0D267
:1017C4000280BCD2D580BAD20580B47F201217170C
:1017D4002002077401B5090040F11216D4FF121754
:1017E40017021751D208D20680951216D4FB12168E
:1017F400D4FA1216D4F94A4B700679FA7A197BFF97
:1018040020022EE509602A7E008E82758300122351
:10181400F460060EEE650A70F0C2D5EBC0E0EAC0D3
:10182400E0E9C0E0EE121970D0E0F9D0E0FAD0E0BF
:10183400FB1223DBFF60AAEBC0E0EAC0E0E9C0E0F2
:10184400121717D0E02401F9D0E03400FAD0E0FBFD
:10185400E50A0460DCD50AD980877BFF7A19796CA4
:10186400D202809C791080027908C206C2088008DE
:10187400D2D5790A8004790AC2D5E50A047002F542
:101884000AE4FAFDFEFF1216D4FC7B0820011312B1
