:03000000024B7040
:0C4B7000787FE4F6D8FD758121024BB778
:10540900125AA0124FD3125F4A125F7612603512F8
:105419005F8F125D9B125F5A75B10CE4F5B27F7B09
:0C542900FE1253AC120DF112004680F888
:03002300025CBDBF
:065CBD00C0E0C083C082BC
:105CC3009005F6E4F0309802C298309904C299C264
:015CD30009C7
:075CD400D082D083D0E03242
:03004300025DB4A7
:105DB400C0E0E59A30E003539AFEE59A30E10553DA
:075DC4009AFDC209D0E03294
:095F9A002009FDEFD209F599225E
:105340009006D1EBF0A3EAF0A3E9F09006D1E0FBE0
:10535000A3E0FAA3E0F912285B60179006D1A3E45A
:1053600075F00112293CA9F0FA12285BFF125F9A2E
:0353700080D922BF
:095FA3002009FDEFD209F59B2253
:105373009006D4EBF0A3EAF0A3E9F09006D4E0FBA7
:10538300A3E0FAA3E0F912285B60179006D4A3E424
:1053930075F00112293CA9F0FA12285BFF125FA3F2
:0353A30080D9228C
:105AA000E5A2543FF5A253BAFE759850759A507509
:105AB000D7C875D6FE758E14438E01D2AC75AF0172
:035AC000D2AF2240
:0B4E8400900000EBF0A3EAF0A3E9F0BF
:104E8F0090002B7401F0A37400F0A37403F0900052
:104E9F0000E0F9A3E0FAA3E09006CBC9F0A3EAF093
:104EAF00A3E9F090002BE0F9A3E0FAA3E09006CE7F
:104EBF00C9F0A3EAF0A3E9F07B017A00792E125131
:0A4ECF00127B017A00792E02534095
:101C4C000000000000FF002601020E0F00FF00063E
:101C5C000203011500FF58ED0304021900FF593867
:101C6C000405031D00FF595C0506041F00FF598085
:101C7C000607052000FF59A40708062100FF59C8D4
:101C8C000809072600FF59EC090A082A00FF5A1018
:101C9C000A0B092C00FF5A340B0C0A2E00FF001EF5
:101CAC000C0D0B2F00FF61380D0E0C3000FF613D49
:101CBC000E010D3100FF000E0F0F0F1001FF52220D
:101CCC001010101101FF54DF1111111201FF5507F3
:101CDC001212121301FF5A581313131401FF5A7CDA
:101CEC001414140F01FF552F1516183502FF5E87BB
:101CFC001617153902FF5E991718163D02FF5EABD9
:101D0C001815174102FF5EBD191A1C4503FF5ECF63
:101D1C001A1B194903FF5EE11B1C1A4D03FF5EF3EE
:101D2C001C191B5103FF5F051D1E1E5204FF61424F
:101D3C001E1D1D5304FF61471F1F1F1F05FF5FB5AD
:101D4C002020202006FF5FBD2122625407FF614C3A
:101D5C002223215507FF61512324225607FF615688
:101D6C002425235707FF615B2560245807FF61601A
:101D7C002627295908FF61652728265A08FF616A1A
:101D8C002829275B08FF616F2926285C08FF6174EE
:101D9C002A2B2B5D09FF5F682B2A2A5E09FF6179CC
:101DAC002C2D2D000AFF617E2D2C2C000AFF618347
:101DBC002E2E2E000BFF5D4F2F2F2F000CFF5FC51B
:101DCC00303030000DFF5FCD313131000EFF5075DA
:101DDC003232323515FF5BB83333333215FF5CF9D1
:101DEC003434343315FF5BDA3535353415FF5BFC91
:101DFC003636363916FF55573737373616FF5AC32E
:101E0C003838383716FF557F3939393816FF55A70A
:101E1C003A3A3A3D17FF55CF3B3B3B3A17FF5AE650
:101E2C003C3C3C3B17FF55F73D3D3D3C17FF561FD7
:101E3C003E3E3E4118FF56473F3F3F3E18FF5B0971
:101E4C004040403F18FF566F4141414018FF5697A4
:101E5C004242424519FF56BF4343434219FF5B2C94
:101E6C004444444319FF56E74545454419FF570F71
:101E7C00464646491AFF5737474747461AFF5B4FB6
:101E8C00484848471AFF575F494949481AFF57873E
:101E9C004A4A4A4D1BFF57AF4B4B4B4A1BFF5B72D9
:101EAC004C4C4C4B1BFF57D74D4D4D4C1BFF57FF0C
:101EBC004E4E4E511CFF58274F4F4F4E1CFF5B95FB
:101ECC005050504F1CFF584F515151501CFF5877D8
:101EDC00525252521DFF5FD5535353531EFF5FDDB9
:101EEC005454545421FF5FE55555555522FF5FED71
:101EFC005656565623FF5FF55757575724FF5D1616
:101F0C005858585825FF5FFD5959595926FF589F65
:101F1C005A5A5A5A27FF60055B5B5B5B28FF600DC2
:101F2C005C5C5C5C29FF60155D5D5D5D2AFF529C0D
:101F3C005E5E5E5E2BFF50C55F5F5F5F5FFF530BA6
:101F4C006062256107FF61886161616160FF601DEE
:101F5C006221606307FF618D6363636362FF6025C9
:101F6C004105FB00410625004105FC00440600002C
:101F7C0000000144060800000001440611000000A6
:101F8C000144061B0000000144060400000001444B
:101F9C00060D000000014406170000000144062055
:101FAC000000000141060C014106160C410615000B
:101FBC0041061F00410624004106270141062A0064
:101FCC0041062D0041062F0041063001410631002B
:101FDC004106260B4106290041062C0041062E0025
:101FEC004106280241062B004105F9014106320148
:041FFC004105FA01A0
:1049A600E4900592F0A3F043903CE590543C643CBF
:1049B6007003024A4A125F5AE590543C643C700305
:1049C600024A4A1260F09005FCE0645E60291260BB
:1049D6007EEF60119005FCE0D3940E40047F0180C9
:1049E600067F0080027F01EF600D125E4D125F5A56
:1049F6007F787E001253AC9005FB7401F0E590546D
:104A06003CFF900592E4F0A3EFF0900592E070046D
:104A1600A3E0643870081260DE7F011260D2E59070
:104A2600543CFFBF3CF8125F5AE590543CFFBF3C34
:104A3600F8E4FF1260D2E4FF1260EA900592E0FE0D
:084A4600A3E0FF227E0F7FFFB9
:014A4E002245
:1048E000E4900590F0A3F0FF1249A6900590EEF039
:1048F000A3EFF0126120900590E0640F7003A3E035
:10490000F47078EF640170739005FCE0702A9006F3
:1049100091E0540FFFBF0808900625E004F08005E1
:10492000E4900625F0900625E0D3940A400A7F140F
:104930001260F6E4900625F0126126900691E0548C
:104940000F24FE601724FE601E24FC6025240770DF
:104950002A900590E4F0A3741CF0801F900590E469
:10496000F0A3742CF08014900590E4F0A37434F05C
:104970008009900590E4F0A37438F0900590E0FE73
:10498000A3E0FFEE701DEF24D4600F24F8600E2426
:10499000FC600D241C700C7F03227F02227F012209
:0549A0007F00227FFFF3
:0149A50022EF
:100DF100E4FF90058FF01248E0EF147003020FB981
:100E010014700302146F147003020F932403600320
:100E11000218BC1260C0EF70069005FCE060101271
:100E210060C0BF01229005FCE0FF6003B45F1812AF
:100E310060D890058FEFF0C3941450030218BC9052
:100E410005FC7402020F8C9005FCE0FF6442600F08
:100E5100EF6443600AEF64446005EF6445702D124E
:100E610060D890058FEFF0C3940A40657B017A0644
:100E71007904123F7150571260AEBF010C7F797E29
:100E8100001253ACE4FF1260B4020F5D9005FCE068
:100E9100FF6446600FEF6447600AEF64486005EF46
:100EA100644970301260D890058FEFF0C3940A4006
:100EB100207B017A06790D1241E850121260AEBF13
:100EC100010C7F797E001253ACE4FF1260B4020F73
:100ED1005D020F629005FCE0FF644A600FEF644B16
:100EE100600AEF644C6005EF644D702E1260D8907B
:100EF100058FEFF0C3940A401F7B017A0679171220
:100F01003A3750121260AEBF010C7F797E00125346
:100F1100ACE4FF1260B4804480479005FCE0FF64BC
:100F21004E600FEF644F600AEF64506005EF64514B
:100F310070421260D890058FEFF0C3940A40227B73
:100F4100017A067920123B8C50121260AEBF010C5F
:100F51007F797E001253ACE4FF1260B4125F5A80B5
:100F61002B9005FCE075F008A4244FF582E5F034E0
:100F71001C0218B49005FCE075F008A4244FF5821A
:100F8100E5F0341CF583E4939005FCF01260DE0279
:100F910018BC9005FCE0B45F0C1260C0EF60061253
:100FA1004C790218BC9005FCE075F008A42450F5BA
:100FB10082E5F0341C0218B49005FCE012295210AD
:100FC100720F10841010941110A41210B41310C6D3
:100FD1001413371F134920142B2F141A3010D83231
:100FE10010EA3310FC34110E35112036113237114D
:100FF100443811563911683A117A3B118C3C119ED3
:101001003D11B03E11C23F11D44011E64111F842E9
:10101100120A43121C44122E451240461252471224
:10102100644812764912884A129A4B12AC4C12BE8D
:101031004D12D04E12E24F12F450130651131752B3
:10104100132753135B54136D55137D561390571388
:10105100A15813B25913C35A13D45B13E45C13F4AC
:101061005D14025E14155F143B61144B63000014A0
:101071005C9006A9E0B46305E4F002145C9006A953
:101081000214109006AAE0B40C0302132E9006AAD3
:101091000214109006ABE0B41F0302132E9006ABAE
:1010A1000214109006AFE0B4070302132E9006AFAE
:1010B1000214109006ACE0B41705E4F002145C9041
:1010C10006AC0214109006ADE0B43B05E4F0021446
:1010D1005C9006AD021410900600E0B41405E4F033
:1010E10002145C900600021410900601E0B4090598
:1010F100E4F002145C900601021410900602E0B4C0
:101101000905E4F002145C90060202141090060333
:10111100E0B40905E4F002145C9006030214109097
:101121000608E0B41405E4F002145C900608021409
:1011310010900609E0B40905E4F002145C90060978
:1011410002141090060AE0B40905E4F002145C9060
:10115100060A02141090060BE0B40905E4F002142B
:101161005C90060B021410900611E0B41405E4F033
:1011710002145C900611021410900612E0B40905E5
:10118100E4F002145C900612021410900613E0B40D
:101191000905E4F002145C90061302141090061481
:1011A100E0B40905E4F002145C90061402141090F6
:1011B100061BE0B41405E4F002145C90061B021453
:1011C1001090061CE0B40905E4F002145C90061CC2
:1011D10002141090061DE0B40905E4F002145C90BD
:1011E100061D02141090061EE0B40905E4F0021475
:1011F1005C90061E021410900604E0B41405E4F09D
:1012010002145C900604021410900605E0B409056E
:10121100E4F002145C900605021410900606E0B496
:101221000905E4F002145C9006060214109006070A
:10123100E0B40905E4F002145C9006070214109072
:10124100060DE0B41405E4F002145C90060D0214DE
:101251001090060EE0B40905E4F002145C90060E4D
:1012610002141090060FE0B40905E4F002145C903A
:10127100060F021410900610E0B40905E4F0021400
:101281005C900610021410900617E0B41405E4F007
:1012910002145C900617021410900618E0B40905B8
:1012A100E4F002145C900618021410900619E0B4E0
:1012B1000905E4F002145C90061902141090061A54
:1012C100E0B40905E4F002145C90061A02141090CF
:1012D1000620E0B41405E4F002145C900620021428
:1012E10010900621E0B40905E4F002145C90062197
:1012F100021410900622E0B40905E4F002145C9097
:101301000622021410900623E0B40904E4F08006DA
:10131100900623E004F090060CE0B40103021421CE
:1013210090060C021459900616E0B41403021459E5
:10133100900616021410900615E0B46305E4F0025D
:10134100145C90061502141090061FE0B46305E4C6
:10135100F002145C90061F021410900624E0B407FA
:1013610005E4F002145C900624021410900627E0B4
:10137100B4090302145990062702141090062AE0BA
:10138100700504F002145CE490062AF002145C90EB
:10139100062DE0B40905E4F002145C90062D806F7F
:1013A10090062FE0B40705E4F002145C90062F804C
:1013B1005E900626E0B40B05E4F002145C9006266C
:1013C100804D900629E0B40B05E4F002145C900610
:1013D10029803C90062CE0B40B04E4F0807D90065B
:1013E1002C802C90062EE0B40B04E4F0806D900666
:1013F1002E801C900628E0B40102802490062880EB
:101401005790062BE0B42604E4F0804F90062BE0C1
:1014110004F080471247328042900632E0B4010561
:101421007402F08036900632802E9005F9E0B40106
:1014310004E4F080269005F9801E900630E0B401A6
:1014410004E4F08016900630800E900631E0B4017D
:1014510004E4F080069006317401F09005FCE0751B
:10146100F008A4244DF582E5F0341C0218B490056F
:10147100FCE012295215280F153710154A11155D78
:1014810012156D13157F1417931F17A12018732FB1
:1014910018623015913215A03315AF3415BE3515CC
:1014A100CD3615DC3715EB3815FA3916093A161809
:1014B1003B16273C16363D16453E16543F166340F3
:1014C100167241168142169043169F4416AE451678
:1014D100BD4616CC4716DB4816EA4916F94A1708E5
:1014E1004B17174C17264D17354E17434F175250B0
:1014F10017615117705217805317B35417C15517FD
:10150100D05617E35717F45818055918125A181FCF
:101511005B182C5C183C5D184A5E185D5F1883618E
:10152100189363000018A49006A9E070030217A79E
:101531009006A90218589006AAE0B40106740CF0AE
:101541000218A49006AA0218589006ABE0B401064E
:10155100741FF00218A49006AB0218589006AFE071
:10156100B401030217FA9006AF0218589006ACE0D6
:1015710070067417F00218A49006AC021858900671
:10158100ADE07006743BF00218A49006AD02185845
:10159100900600E070030217879006000218589029
:1015A1000601E070030217E990060102185890063F
:1015B10002E070030217E990060202185890060330
:1015C100E070030217E9900603021858900608E03C
:1015D1007003021787900608021858900609E070F8
:1015E100030217E990060902185890060AE07003F1
:1015F1000217E990060A02185890060BE0700302E0
:1016010017E990060B021858900611E070030217B3
:1016110087900611021858900612E070030217E92C
:10162100900612021858900613E070030217E99011
:101631000613021858900614E070030217E9900689
:101641001402185890061BE0700302178790061BBE
:1016510002185890061CE070030217E990061C025C
:10166100185890061DE070030217E990061D021834
:101671005890061EE070030217E990061E021858E2
:10168100900604E070030217879006040218589030
:101691000605E070030217E9900605021858900646
:1016A10006E070030217E990060602185890060733
:1016B100E070030217E990060702185890060DE042
:1016C100700302178790060D02185890060EE070FD
:1016D100030217E990060E02185890060FE07003F6
:1016E1000217E990060F021858900610E0700302E5
:1016F10017E9900610021858900617E070030217B8
:1017010087900617021858900618E070030217E92F
:10171100900618021858900619E070030217E99014
:10172100061902185890061AE070030217E990068C
:101731001A021858900620E07002804A9006200292
:101741001858900621E070030217E990062102184B
:1017510058900622E070030217E9900622021858F9
:10176100900623E070030217E990062302185890AF
:10177100060CE0B4010302186990060C0218A1904E
:101781000616E0B401067414F00218A490061602BD
:101791001858900615E07002800C90061502185832
:1017A10090061FE070067463F00218A490061F02F1
:1017B1001858900624E07002803F900624021858C1
:1017C100900627E0B40102801F9006270218589066
:1017D100062AE0700504F00218A4E490062AF0023B
:1017E10018A490062DE070067409F00218A4900662
:1017F1002D806490062FE070067407F00218A49003
:10180100062F8053900626E07002802590062680E0
:1018110046900629E07002801890062980399006CA
:101821002CE07002800B90062C802C90062EE0702C
:1018310005740BF0806D90062E801C900628E0B494
:1018410001028024900628805790062BE0700574D1
:1018510026F0804F90062BE014F0804712480A8052
:1018610042900632E0B401057402F08036900632EF
:10187100802E9005F9E0B40104E4F080269005F98A
:10188100801E900630E0B40104E4F080169006302A
:10189100800E900631E0B40104E4F0800690063138
:1018A1007401F09005FCE075F008A4244EF582E582
:1018B100F0341CF583E4939005FCF09005FCE07591
:1018C100F008A42451F582E5F0341CF583E493FB80
:1018D100740193FA740293F99005FDEBF0A3EAF019
:0618E100A3E9F0022978E2
:0D5F5A007F047E347DDCDDFEDEFADFF60024
:015F67002217
:05603C009005FCE0FFEF
:01604100223C
:066042009005FCEFF022C6
:0560480090060CE0FFD2
:01604D002230
:05604E00900616E0FFC2
:01605300222A
:05605400900615E0FFBD
:016059002224
:05605A0090061FE0FFAD
:01605F00221E
:05606000900624E0FFA2
:016065002218
:05606600900627E0FF99
:01606B002212
:05606C0090062AE0FF90
:01607100220C
:0560720090062DE0FF87
:016077002206
:0560780090062FE0FF7F
:01607D002200
:05607E00900630E0FF78
:0160830022FA
:05608400900631E0FF71
:0160890022F4
:05608A00900626E0FF76
:01608F0022EE
:05609000900629E0FF6D
:0160950022E8
:0560960090062CE0FF64
:01609B0022E2
:05609C0090062EE0FF5C
:0160A10022DC
:0560A200900628E0FF5C
:0160A70022D6
:0560A80090062BE0FF53
:0160AD0022D0
:0560AE009005FBE0FF7E
:0160B30022CA
:0660B4009005FBEFF02255
:0560BA00900632E0FF3A
:0160BF0022BE
:0560C0009005F9E0FF6E
:0160C50022B8
:105CDB0000000000000000000000000000000000B9
:0E5CEB000000000000000000000000000000AB
:1020000055045F3F065B4F666D7D077F6F777C39B8
:102010005E797176385C733E4805840102040810CD
:1020200020408042058C40006030042F00000000FA
:1020300000000000000000000000000000000000A0
:102040000000000000000000000000000000000090
:1020500000000000000000000000000060F00484A8
:102060000000000000000000000000000000000070
:102070000000000000000000000000000000000060
:102080000000000000000000000000000000000050
:102090000000000000000000000000000000000040
:1020A0000000000000000000000000000000000030
:1020B0000000000000000000000000000000000020
:1020C0000000000000000000000000000000000010
:1020D0000000000000000000000000000000000000
:1020E00000000000000000000000000000000000F0
:1020F00000000000000000000000000000000000E0
:1021000000000000000000000000000000000000CF
:1021100000000000000000000000000000000000BF
:1021200000000000000000000000000000000000AF
:10213000000000000000000000000000000000009F
:10214000000000000000000000000000000000008F
:1021500041042E0041058E0050057401010101016A
:10216000010101010101010101010150047401009B
:0E217000030102010101010101010101010150
:10543500C282E4FDFCC280EF30E004D2818002C26A
:105445008100000000D280EFC313FF0DBD00010CE9
:0A545500ED64084C70DFC280C281D4
:01545F00222A
:10546000C283E4FDFCC280EF30E004D2818002C23E
:105470008100000000D280EFC313FF0DBD00010CBE
:0A548000ED64084C70DFC280C281A9
:01548A0022FF
:10548B00C2CCE4FDFCC280EF30E004D2818002C2CA
:10549B008100000000D280EFC313FF0DBD00010C93
:0A54AB00ED64084C70DFC280C2817E
:0154B50022D4
:095DE200AE077F40125DEB7FC0AB
:0D5DEB00D282000000000000C28202543588
:0C5D6900125DEBD2827F40125D757FC09E
:0D5D7500D283000000000000C283025460D1
:0C5D8200125D75D2837F40125D8E7FC0E1
:0D5D8E00D2CC000000000000C2CC02548BFB
:054A4F00E4900431F0C9
:104A5400126078125DE2E4FB742F2BF582E43404D7
:104A6400F583E0FF12543574372BF582E43404F5F2
:104A740083E0FF1254350BEBB408DDEE2488FF12FB
:104A84005D69E4FB743F2BF582E43404F583E0FFB5
:104A940012546074472BF582E43404F583E0FF126A
:104AA40054600BEBB408DDEE2488FF125D82E4FB56
:104AB400744F2BF582E43404F583E0FF12548B74B5
:104AC400572BF582E43404F583E0FF12548B0BEB8F
:0C4AD400B408DDEE2488FF125D8ED2CC09
:014AE00022B3
:10515C00125DE2E4FBAF06125435AF061254350B68
:10516C00EBB408F17F8F125D69E4FBAF061254605B
:10517C00AF061254600BEBB408F17F8F125D82E422
:10518C00FBAF0612548BAF0612548B0BEBB408F129
:07519C007F8F125D8ED2CC63
:0151A30022E9
:104FD300E490058FF0E4FFE4FE90058FE02484F570
:104FE30082E43405F583E0FDEF75F008A4242FF582
:104FF30082E43404F583E5822EF582E43583F58378
:10500300EDF00EEEB408D20FEFB406CB124A547F84
:105013001E125E7590058FE004F0E0C3940840B55E
:01502300226A
:105E7500EFD39400400B7EFF7DFFDDFEDEFA1F8031
:015E8500EF2D
:015E860022F9
:1054B600E4FFE4FEEF75F008A4242FF582E434043B
:1054C600F583E5822EF582E43583F583E4F00EEE6E
:0854D600B408E10FEFB406DA9F
:0154DE0022AB
:0A5F84007F78900484E4F0A3DFFCB2
:015F8E0022F0
:1052D600E4FF1260C6EF6401702A1254B690042EE1
:1052E600E05403FF242FF582E43404F5837440F080
:1052F600124A54E4FF1260CC90042EE004F0E0B4AD
:045306000402E4F0C9
:01530A002280
:104440001254B6124CF1900461E090043EF09004D6
:104450005FE090043DF09006A9E0FF75F00A842427
:104460005FF582E43404F583E090043CF0EF75F0EE
:104470000A84745F25F0F582E43404F583E0900447
:104480003BF090043A7440F09006AAE0FF75F00A01
:1044900084245FF582E43404F583E0900439F0EF7E
:1044A00075F00A84745F25F0F582E43404F583E046
:1044B000900438F09004377440F09006ABE0FF753C
:1044C000F00A84245FF582E43404F583E090043636
:1044D000F0EF75F00A84745F25F0F582E43404F59A
:1044E00083E0900435F09006AFE0245FF582E43479
:1044F00004F583E0900434F09006ACE0FF75F00A18
:1045000084245FF582E43404F583E0900432F0EF14
:1045100075F00A84745F25F0F582E43404F583E0D5
:10452000900431F09006ADE0FF75F00A84245FF549
:1045300082E43404F583E0900430F0EF75F00A84EF
:10454000745F25F0F582E43404F583E090042FF0E5
:03455000024A54C8
:105C7F00AD071254B690046EE0900430F0745F2DAF
:0F5C8F00F582E43404F583E090042FF0024A54C8
:105C9E00AD071254B690046DE0900430F0745F2D91
:0F5CAE00F582E43404F583E090042FF0024A54A9
:105E39001254B690045FE0900430F090042F743748
:045E4900F0024A54C5
:105DF8001254B690045FE0900430F090046EE09086
:065E0800042FF0024A54D1
:105DCB00AD071254B6745F2DF582E43404F583E00D
:075DDB0090042FF0024A546E
:1053D900AD071254B6ED75F00A84245FF582E43402
:1053E90004F583E0900430F0ED75F00A84745F25CC
:1053F900F0F582E43404F583E090042FF0024A5476
:104DCC00AB07AA061254B67C007D64AF03AE021288
:104DDC0028E7745F2FF58274043EF583E09004316C
:104DEC00F07C007D0AAF03AE021228E77C007D0A3E
:104DFC001228E7745F2DF58274043CF583E090046F
:104E0C0030F0AE02AF037C007D0A1228E7745F2DF0
:0F4E1C00F58274043CF583E090042FF0024A54B1
:064E2B007B017A0679000C
:104E31001254B612285B245FF582E43404F583E052
:104E4100900432F0900001122874245FF582E4345A
:104E510004F583E0900431F0900002122874245F7D
:104E6100F582E43404F583E0900430F090000312FD
:104E71002874245FF582E43404F583E090042FF074
:034E8100024A548E
:10377B001254B69004C6E060179005D37401F0A301
:10378B007404F0A374C6F07B017A04795E12299E4F
:10379B009004C0E060179005D37401F0A37404F09B
:1037AB00A374C0F07B017A04795A12299E9004BA53
:1037BB00E060179005D37401F0A37404F0A374BAFE
:1037CB00F07B017A04795612299E9004B4E06017BD
:1037DB009005D37401F0A37404F0A374B4F07B01CF
:1037EB007A04795212299E9004AEE060179005D3AB
:1037FB007401F0A37404F0A374AEF07B017A047926
:10380B004E12299E9004A8E060179005D37401F026
:10381B00A37404F0A374A8F07B017A04794A1229EB
:10382B009E9004A2E060179005D37401F0A374047A
:10383B00F0A374A2F07B017A04794612299E9004BE
:10384B009CE060179005D37401F0A37404F0A3748B
:10385B009CF07B017A04794212299E900496E060D9
:10386B00179005D37401F0A37404F0A37496F07B46
:10387B00017A04793E12299E900490E0601790051E
:10388B00D37401F0A37404F0A37490F07B017A0459
:10389B00793A12299E90048AE060179005D374013F
:1038AB00F0A37404F0A3748AF07B017A04793612C6
:1038BB00299E900484E060179005D37401F0A374E3
:1038CB0004F0A37484F07B017A04793212299E22CE
:10299E009005D0EBF0A3EAF0A3E9F0A3E0FBA3E0EF
:1029AE00FAA3E0F9900001122874245FF582E43452
:1029BE0004F583E0FF9005D0E0FBA3E0FAA3E0F975
:1029CE00EF1228A19005D3E0FBA3E0FAA3E0F99063
:1029DE000002122874245FF582E43404F583E0FFCC
:1029EE009005D0E0FBA3E0FAA3E0F990FFFFEF1211
:1029FE0028B39005D3E0FBA3E0FAA3E0F99000031F
:102A0E00122874245FF582E43404F583E0FF900508
:102A1E00D0E0FBA3E0FAA3E0F990FFFEEF1228B39B
:102A2E009005D3E0FBA3E0FAA3E0F990000412288E
:102A3E0074245FF582E43404F583E0FF9005D0E062
:102A4E00FBA3E0FAA3E0F990FFFDEF1228B3900587
:102A5E00D3E0FBA3E0FAA3E0F9900005122874542A
:102A6E000F24FD6036147003022B0124FD70030247
:102A7E002B46147003022B5924066003022B72900E
:102A8E0005D0E0FBA3E0FAA3E024FDF9EA34FFFA57
:102A9E0012285B44801228A1022B469005D0E0FB41
:102AAE00A3E0FAA3E024FDF9EA34FFFA12285B440E
:102ABE00801228A19005D0E0FBA3E0FAA3E024FE4B
:102ACE00F9EA34FFFA12285B44801228A19005D04F
:102ADE00E0FBA3E0FAA3E024FFF9EA34FFFA1228A0
:102AEE005B44801228A19005D0E0FBA3E0FAA3E09E
:102AFE00F980699005D0E0FBA3E0FAA3E024FDF98C
:102B0E00EA34FFFA12285B44801228A19005D0E027
:102B1E00FBA3E0FAA3E024FEF9EA34FFFA12285BE5
:102B2E0044801228A19005D0E0FBA3E0FAA3E02494
:102B3E00FFF9EA34FFFA80249005D0E0FBA3E0FA17
:102B4E00A3E024FEF9EA34FFFA80119005D0E0FBF1
:102B5E00A3E0FAA3E024FDF9EA34FFFA12285B445D
:052B6E00801228A122E5
:104657009005C4EBF0A3EAF0A3E9F0A3E0FBA3E025
:10466700FAA3E0F912285BFF9005C4E0FBA3E0FA88
:10467700A3E0F9EF1228A19005C7E0FBA3E0FAA396
:10468700E0F9900001122874FF9005C4E0FBA3E055
:10469700FAA3E0F9900001EF1228B39005C7E0FBF9
:1046A700A3E0FAA3E0F9900002122874FF9005C472
:1046B700E0FBA3E0FAA3E0F9900002EF1228B39021
:1046C70005C7E0FBA3E0FAA3E0F990000312287402
:1046D700FF9005C4E0FBA3E0FAA3E0F9900003EF25
:1046E7001228B39005C7E0FBA3E0FAA3E0F9900016
:1046F70004122874FF9005C4E0FBA3E0FAA3E0F9D5
:10470700900004EF1228B39005C7E0FBA3E0FAA3DB
:10471700E0F9900007122874FF9005C4E0FBA3E0BE
:0B472700FAA3E0F9900005EF0228B3B0
:0F4ED900EF75F006A42478F9740435F0FA7B0124
:104EE80012285B9000061228B390000112287490D3
:104EF80000071228B39000021228749000081228A4
:104F0800B39000031228749000091228B39000048B
:104F180012287490000A1228B39000051228749081
:054F2800000B0228B39C
:0F4F2D00EE75F006A42484F9740435F0FA7B01C4
:104F3C009000061228741228A19000071228749071
:104F4C0000011228B3900008122874900002122855
:104F5C00B39000091228749000031228B390000A31
:104F6C001228749000041228B390000B122874902D
:054F7C0000050228B34E
:1038DB0078C87C057D017BFF7A5C79DB7E007F06F7
:1038EB00122835E49005CEF0A3F012606C9005CE53
:1038FB00EFF01260609005CFEFF012605A9005C6A2
:10390B00EFF01260549005C7EFF01260E49005C71A
:10391B00E0FE9005C6E0FDC39E500AEF9D4006EE0B
:10392B006003E0701B9005C7E06003023A36900518
:10393B00C6E0FE7003023A36EFD39E5003023A36CE
:10394B00E49005C4F09005C4E0FFC3940A5021EF46
:10395B0075F006A42484F582E43404F583E0700842
:10396B009005C4E0A3F080089005C4E004F080D576
:10397B00E49005C4F09005C4E0FFA3E075F006A445
:10398B002FF582E435F0F583E582247EF582E5831D
:10399B003404F583E0FE74C82FF582E43405F58317
:1039AB00EEF09005C4E004F0E0B406C99005C5E064
:1039BB009005C4F09005C4E0FFD39401400B124E68
:1039CB00D99005C4E014F080EBE49005C4F09005A9
:1039DB00C4E0FF24C8F582E43405F583E0FE74846B
:1039EB002FF582E43404F583EEF09005C4E004F087
:1039FB00E0B406DA12377B124A54E4FF1260EA9005
:103A0B0005CEE0B401257B017A047984900484E02F
:103A1B00FD9005D4E4F0A3EDF0900489E0540F90F1
:0B3A2B0005D6F09005CFE0FF12250843
:013A3600226D
:10431F00E49005CAF0A3F012605A9005C5EFF012B1
:10432F0060549005C6EFF01260E49005C7EFF012ED
:10433F00604E9005C8EFF01260489005C9EFF0127B
:10434F0060669005CBEFF09005C5E0FFA3E0FEC3DC
:10435F009F500EA3E09E4009EF60069005C6E070E7
:10436F001A9005C5E0600302443FA3E0FF7003020B
:10437F00443FA3E0D39F500302443FE49005C4F0B1
:10438F009005C8E014FF9005C4E0FEC39F500B12C8
:10439F004F2D9005C4E004F080E69005C8E0147539
:1043AF00F006A49005C4F09005C8E075F006A4FFD0
:1043BF009005C4E0FDC39FE5F06480F874809850C9
:1043CF001474842DF582E43404F583E4F09005C46D
:1043DF00E004F080D212377B124A54E4FF1260EAF5
:1043EF00900484E07004FF0260429005C9E064020B
:1043FF00703E9005C4F09005CBE0FF9005C4E0C37C
:10440F009F502D7B017A047984900484E0FD900500
:10441F00D4E4F0A3EDF0900489E0540F9005D6F0AA
:10442F009005CAE0FF1225089005C4E004F080C68D
:01443F00225A
:104C7900E4900591F012604E900591EFF0E49005F3
:104C890090F0900591E014FF900590E0FEC39F50CD
:104C99000B124F2D900590E004F080E6900591E00D
:104CA9001475F006A4900590F0900591E075F00652
:104CB900A4FF900590E0FDC39FE5F06480F874803F
:104CC90098501474842DF582E43404F583E4F0904B
:104CD9000590E004F080D212377B124A5490048484
:074CE900E07004FF126042BD
:014CF00022A1
:1047320078927C057D017BFF7A5C79E17E007F06C1
:1047420012283512604E900591EFF012604EE490FF
:104752000590F0900590E0FEC39F5020EE75F006A4
:10476200A42484F582E43404F583E0700790059173
:10477200EEF08008900590E004F080D7E490059078
:10478200F0900590E0FF2484F582E43404F583E0A0
:10479200FE74922FF582E43405F583EEF0900590D5
:1047A200E004F0E0B406DAE4900590F0900591E0C0
:1047B200FF900590E0FEC39F500B124F2D90059085
:1047C200E004F080E7E4900590F0900590E0FF248B
:1047D20092F582E43405F583E0FE900591E075F0F0
:1047E20006A42FF582E435F0F583E582247EF58276
:1047F200E5833404F583EEF0900590E004F0E0B434
:0848020006C812377B024A547C
:10480A0078927C057D017BFF7A5C79E77E007F06E2
:10481A0012283512604E900591EFF012604EE49026
:10482A000590F0900590E0FEC39F5020EE75F006CB
:10483A00A42484F582E43404F583E070079005919A
:10484A00EEF08008900590E004F080D7E49005909F
:10485A00F0900590E0FFA3E075F006A42FF582E43E
:10486A0035F0F583E582247EF582E5833404F58309
:10487A00E0FE74922FF582E43405F583EEF090059C
:10488A0090E004F0E0B406C9900591E0900590F03C
:10489A00900590E0FFD39401400B124ED9900590F9
:1048AA00E014F080EBE4900590F0900590E0FF248E
:1048BA0092F582E43405F583E0FE74842FF582E4F0
:1048CA003404F583EEF0900590E004F0E0B406DAE3
:0648DA0012377B024A5474
:0B328C009005C4EBF0A3EAF0A3E9F00A
:1032970078CD7C057D017BFF7A5C79ED7E007F062A
:1032A70012283512604E9005CBEFF012604E900554
:1032B700CCEFF0E49005CAF09005CCE0FF9005CA8A
:1032C700E0FEC39F400302339FEE75F006A4FFAEF6
:1032D700F09005C7E0FBA3E0FAA3E02FF9EA3EFA76
:1032E700900001122874FD9005C4E0FBA3E0FAA347
:1032F700E0F99000011228746D600302339690057F
:10330700C7E0FBA3E0FAA3E02FF9EA3EFA90000238
:10331700122874FF9005C4E0FBA3E0FAA3E0F9903C
:1033270000021228746F70679005CAE075F006A452
:10333700FFAEF09005C7E0FBA3E0FAA3E02FF9EAA0
:103347003EFA900003122874FD9005C4E0FBA3E049
:10335700FAA3E0F9900003122874B505329005C767
:10336700E0FBA3E0FAA3E02FF9EA3EFA900004128B
:103377002874FF9005C4E0FBA3E0FAA3E0F99000EE
:1033870004122874B507089005CAE0A3F0800990D5
:1033970005CAE004F00232BF9005CBE07003125E6D
:1033A7004D9005CBE09005CAF09005CCE0FF900565
:1033B700CAE0FEC39F5021EE75F006A4FF9005C733
:1033C700E0FBA3E0FAA3E02FF9EA35F0FA124F3C4D
:1033D7009005CAE004F080D19005CCE0FF9005CBC2
:1033E700E06F603DE49005CAF09005CCE024FFFF54
:1033F700E434FFFE7C007D061228D59005C7E0FB6C
:10340700A3E0FAA3E02FF9EA3EFAA3E07E0029F948
:10341700EE3AFAE41228A19005CAE004F0E0B406F7
:10342700C89005C7E0FBA3E0FAA3E0F912285B7098
:0534370004FF126042D9
:01343C00226D
:0B35E7009005C4EBF0A3EAF0A3E9F0AC
:1035F20078CD7C057D017BFF7A5C79F37E007F06C6
:1036020012283512604E9005CBEFF012604E9005F5
:10361200CCEFF0E49005CAF09005CCE0FF9005CA2B
:10362200E0FEC39F40030236FAEE75F006A4FFAE39
:10363200F09005C7E0FBA3E0FAA3E02FF9EA3EFA17
:10364200900001122874FD9005C4E0FBA3E0FAA3E8
:10365200E0F99000011228746D60030236F19005C2
:10366200C7E0FBA3E0FAA3E02FF9EA3EFA900002DA
:10367200122874FF9005C4E0FBA3E0FAA3E0F990DE
:1036820000021228746F70679005CAE075F006A4F4
:10369200FFAEF09005C7E0FBA3E0FAA3E02FF9EA42
:1036A2003EFA900003122874FD9005C4E0FBA3E0EB
:1036B200FAA3E0F9900003122874B505329005C709
:1036C200E0FBA3E0FAA3E02FF9EA3EFA900004122D
:1036D2002874FF9005C4E0FBA3E0FAA3E0F9900090
:1036E20004122874B507089005CAE0A3F080099077
:1036F20005CAE004F002361A9005CBE09005CAF044
:103702009005CCE0FF9005CAE0FEC39F5021EE7504
:10371200F006A4FF9005C7E0FBA3E0FAA3E02FF9AF
:10372200EA35F0FA124F3C9005CAE004F080D190DD
:1037320005CCE0FF9005CBE06F603DE49005CAF058
:103742009005CCE024FFFFE434FFFE7C007D0612EE
:1037520028D59005C7E0FBA3E0FAA3E02FF9EA3EE3
:10376200FAA3E07E0029F9EE3AFAE41228A19005C4
:08377200CAE004F0E0B406C84F
:01377A00222C
:10002600E4FF1260BAEFB40107D2CD1252D68003B4
:0C0036001244401260C0BF0103125F843E
:01004200229B
:05000600E4FF025C7F35
:1058ED00D2CD7F01125C7F1260AEBF011812607EB7
:1058FD00BF0112125E4D125F5A7F6F7E001253ACC4
:06590D00E4FF1260B42269
:105938007F02125C7F1260AEBF011812607EBF0149
:1059480012125E4D125F5A7F707E001253ACE4FF54
:045958001260B42203
:10595C007F03125C7F1260AEBF011812607EBF0124
:10596C0012125E4D125F5A7F717E001253ACE4FF2F
:04597C001260B422DF
:105980007F04125C7F1260AEBF011812607EBF01FF
:1059900012125E4D125F5A7F727E001253ACE4FF0A
:0459A0001260B422BB
:1059A4007F05125C7F1260AEBF011812607EBF01DA
:1059B40012125E4D125F5A7F737E001253ACE4FFE5
:0459C4001260B42297
:1059C8007F06125C7F1260AEBF011812607EBF01B5
:1059D80012125E4D125F5A7F747E001253ACE4FFC0
:0459E8001260B42273
:1059EC007F07125C7F1260AEBF011812607EBF0190
:1059FC0012125E4D125F5A7F757E001253ACE4FF9B
:045A0C001260B4224E
:105A10007F08125C7F1260AEBF011812607EBF016A
:105A200012125E4D125F5A7F767E001253ACE4FF75
:045A30001260B4222A
:105A34007F09125C7F1260AEBF011812607EBF0145
:105A440012125E4D125F5A7F777E001253ACE4FF50
:045A54001260B42206
:05001E007F0A025C7F77
:056138007F0B025C7FFB
:05613D007F0C025C7FF5
:0D000E007F0D125C7FE4FF126102D2CD2253
:105222001260BAEFB401057F010260421260C6BF8C
:1052320001081244407F021260CC1260C6BF0319FB
:10524200E490043EF090043DF090043CF090043B66
:0C525200F0124A54E4FF1260CC124AE152
:01525E00222D
:1054DF001260C6BF01081244407F021260CC1260F6
:1054EF00C6BF0311E4900439F0900438F0124A5407
:0854FF00E4FF1260CC024AE157
:105507001260C6BF01081244407F021260CC1260CD
:10551700C6BF0311E4900436F0900435F0124A54E4
:08552700E4FF1260CC024AE12E
:105A58001260C6BF01081244407F021260CC126077
:105A6800C6BF030DE4900434F0124A54E4FF1260F8
:045A7800CC024AE131
:105A7C001260C6BF01081244407F021260CC126053
:105A8C00C6BF030DE4900432F0124A50E4FF1260DA
:045A9C00CC024AE10D
:10552F001260C6BF01081244407F021260CC1260A5
:10553F00C6BF0311E4900430F090042FF0124A54C8
:08554F00E4FF1260CC024AE106
:105E87007F01125C9EE4900600F0A3F0A3F0A30448
:025E9700F022F7
:105E99007F02125C9EE4900608F0A3F0A3F0A3042D
:025EA900F022E5
:105EAB007F03125C9EE4900611F0A3F0A3F0A30411
:025EBB00F022D3
:105EBD007F04125C9EE490061BF0A3F0A3F0A304F4
:025ECD00F022C1
:105ECF007F01125C9EE4900604F0A3F0A3F0A304FC
:025EDF00F022AF
:105EE1007F02125C9EE490060DF0A3F0A3F0A304E0
:025EF100F0229D
:105EF3007F03125C9EE4900617F0A3F0A3F0A304C3
:025F0300F0228A
:105F05007F04125C9EE4900620F0A3F0A3F0A304A6
:025F1500F02278
:056142007F01025C9EDC
:056147007F02025C9ED6
:085FB500E4FF1260540253D90D
:085FBD00E4FF12605A0253D9FF
:05614C007F01025C9ED2
:056151007F02025C9ECC
:056156007F03025C9EC6
:05615B007F04025C9EC0
:056160007F05025C9EBA
:056165007F01025C9EB9
:05616A007F02025C9EB3
:05616F007F03025C9EAD
:056174007F04025C9EA7
:0E5F68007F01125C9E1260A290058EEFF02267
:056179007F02025C9EA4
:05617E007F01025C9EA0
:056183007F02025C9E9A
:105D4F00E4FFFEFDFC125FACAC06AD077E277F10B3
:0A5D5F001228E7AC06AD07024DCC98
:085FC500E4FF1260C0025DCB95
:085FCD00E4FF1260BA025DCB93
:105075001260FC900590EFF0D394145031E0FAC320
:10508500940450028019EAD394125013900590E0CD
:10509500C3132482F582E43405F583E0FF80027FA3
:1050A500FF12515C30A4077F3C7E001253AC900583
:0F50B50090E0D3941440061254B6124A54C2CD60
:0150C40022C9
:105BB8001260C6BF0108124E2B7F021260CC126021
:105BC800C6BF030DE4900432F0124A54E4FF126099
:025BD800CC22DD
:105CF9001260C6BF0108124E2B7F021260CC1260DF
:0D5D0900C6BF0308124A4FE4FF1260CC220F
:105BDA001260C6BF0108124E2B7F021260CC1260FF
:105BEA00C6BF030DE4900430F0124A54E4FF126079
:025BFA00CC22BB
:105BFC001260C6BF0108124E2B7F021260CC1260DD
:105C0C00C6BF030DE490042FF0124A54E4FF126057
:025C1C00CC2298
:105557001260C6BF010E7B017A067908124E317FB1
:10556700021260CC1260C6BF030DE4900432F01241
:085577004A54E4FF1260CC224B
:105AC3001260C6BF010E7B017A067908124E317F40
:105AD300021260CC1260C6BF0308124A4FE4FF12E1
:035AE30060CC2272
:10557F001260C6BF010E7B017A067908124E317F89
:10558F00021260CC1260C6BF030DE4900430F0121B
:08559F004A54E4FF1260CC2223
:1055A7001260C6BF010E7B017A067908124E317F61
:1055B700021260CC1260C6BF030DE490042FF012F4
:0855C7004A54E4FF1260CC22FB
:1055CF001260C6BF010E7B017A067911124E317F30
:1055DF00021260CC1260C6BF030DE4900432F012C9
:0855EF004A54E4FF1260CC22D3
:105AE6001260C6BF010E7B017A067911124E317F14
:105AF600021260CC1260C6BF0308124A4FE4FF12BE
:035B060060CC224E
:1055F7001260C6BF010E7B017A067911124E317F08
:10560700021260CC1260C6BF030DE4900430F012A2
:085617004A54E4FF1260CC22AA
:10561F001260C6BF010E7B017A067911124E317FDF
:10562F00021260CC1260C6BF030DE490042FF0127B
:08563F004A54E4FF1260CC2282
:105647001260C6BF010E7B017A06791B124E317FAD
:10565700021260CC1260C6BF030DE4900432F01250
:085667004A54E4FF1260CC225A
:105B09001260C6BF010E7B017A06791B124E317FE6
:105B1900021260CC1260C6BF0308124A4FE4FF129A
:035B290060CC222B
:10566F001260C6BF010E7B017A06791B124E317F85
:10567F00021260CC1260C6BF030DE4900430F0122A
:08568F004A54E4FF1260CC2232
:105697001260C6BF010E7B017A06791B124E317F5D
:1056A700021260CC1260C6BF030DE490042FF01203
:0856B7004A54E4FF1260CC220A
:1056BF001260C6BF010E7B017A067904124E317F4C
:1056CF00021260CC1260C6BF030DE4900432F012D8
:0856DF004A54E4FF1260CC22E2
:105B2C001260C6BF010E7B017A067904124E317FDA
:105B3C00021260CC1260C6BF0308124A4FE4FF1277
:035B4C0060CC2208
:1056E7001260C6BF010E7B017A067904124E317F24
:1056F700021260CC1260C6BF030DE4900430F012B2
:085707004A54E4FF1260CC22B9
:10570F001260C6BF010E7B017A067904124E317FFB
:10571F00021260CC1260C6BF030DE490042FF0128A
:08572F004A54E4FF1260CC2291
:105737001260C6BF010E7B017A06790D124E317FCA
:10574700021260CC1260C6BF030DE4900432F0125F
:085757004A54E4FF1260CC2269
:105B4F001260C6BF010E7B017A06790D124E317FAE
:105B5F00021260CC1260C6BF0308124A4FE4FF1254
:035B6F0060CC22E5
:10575F001260C6BF010E7B017A06790D124E317FA2
:10576F00021260CC1260C6BF030DE4900430F01239
:08577F004A54E4FF1260CC2241
:105787001260C6BF010E7B017A06790D124E317F7A
:10579700021260CC1260C6BF030DE490042FF01212
:0857A7004A54E4FF1260CC2219
:1057AF001260C6BF010E7B017A067917124E317F48
:1057BF00021260CC1260C6BF030DE4900432F012E7
:0857CF004A54E4FF1260CC22F1
:105B72001260C6BF010E7B017A067917124E317F81
:105B8200021260CC1260C6BF0308124A4FE4FF1231
:035B920060CC22C2
:1057D7001260C6BF010E7B017A067917124E317F20
:1057E700021260CC1260C6BF030DE4900430F012C1
:0857F7004A54E4FF1260CC22C9
:1057FF001260C6BF010E7B017A067917124E317FF8
:10580F00021260CC1260C6BF030DE490042FF01299
:08581F004A54E4FF1260CC22A0
:105827001260C6BF010E7B017A067920124E317FC6
:10583700021260CC1260C6BF030DE4900432F0126E
:085847004A54E4FF1260CC2278
:105B95001260C6BF010E7B017A067920124E317F55
:105BA500021260CC1260C6BF0308124A4FE4FF120E
:035BB50060CC229F
:10584F001260C6BF010E7B017A067920124E317F9E
:10585F00021260CC1260C6BF030DE4900430F01248
:08586F004A54E4FF1260CC2250
:105877001260C6BF010E7B017A067920124E317F76
:10588700021260CC1260C6BF030DE490042FF01221
:085897004A54E4FF1260CC2228
:085FD500E4FF126048025DCBFD
:085FDD00E4FF12604E0253D9EB
:085FE500E4FF126060025DCBD5
:085FED00E4FF126066025DCBC7
:085FF500E4FF12606C025DCBB9
:105D1600E4900590F0126072900590EFF075F00334
:0D5D2600A4FF125C1E900590E0FF025DCB13
:085FFD00E4FF126078025DCBA5
:10589F00E4900590F012608A900590EFF0C3940A9F
:1058AF005005E0FF025DCB900590E0C3940B5003D1
:0658BF00025E39125DF8E3
:0158C50022C0
:08600500E4FF126090025DCB84
:08600D00E4FF126096025DCB76
:08601500E4FF12609C025DCB68
:10529C00E4900590F01260A2900590EFF0125DCBB7
:1052AC0090058EE0FF900590E06F601D124F81908D
:1052BC000590E090058EF01260AEBF010C7F797EF8
:0952CC00001253ACE4FF1260B4BF
:0152D50022B6
:1050C500E4900590F01260A8900590EFF01253D986
:1050D5001260AEBF011E125F5A125E4D125F5A90EA
:1050E5000590E02442FFE433FE1253AC125F5AE40C
:1050F500FF1260B412612CBF0112125E4D125F5A8D
:0C5105007F797E001253ACE4FF1261328F
:01511100227B
:10530B00E4900590F0126060900590EFF012377BFF
:10531B00124A54900484E0FF6426600CEF643460FE
:10532B0007900590E0B4070A30A4077F687E00124F
:04533B0053ACD2CDD0
:01533F00224B
:056188007F06025C9E91
:08601D00E4FF12607E025DCB7E
:05618D007F07025C9E8B
:08602500E4FF126084025DCB70
:10217E004106BA004106C0004106BE004106BF003E
:10218E004106BB004106B8004106C1004106BC0035
:08219E004106B9004106BD0035
:105F4A00438901758C3C758AB0D2AFD2A9D28C2212
:0E5F7600438910758DFF758B9CD2AFD2AB2284
:03000B0002455358
:10455300C0E0C0F0C083C082C0D075D000C000C02E
:0D45630001C002C003C004C005C006C007AF
:104570009005F7E4F0A3F0C28D758C3C758AB012FB
:10458000603C9005F7EFF01260BA9005F8EFF090FC
:1045900006BAE004F0E0B40A119006C0E004F0901E
:1045A00006BDE004F09006BAE4F09006C0E0C394C3
:1045B000044002E4F09006BDE0C394184002E4F029
:1045C0009006BEE0B40104A3E004F0126114BF0140
:1045D000149006BBE004F0E0D39478400812611A0E
:1045E0009006BBE4F09005F7E0FFB45F159006B8C5
:1045F000E004F0E0B4140B9006C1E004F09006B8BB
:10460000E4F0EF645F601A9005F7E06431601290A7
:1046100006BCE004F0E0D394C84006E4F0FF12606A
:10462000429005F7E07015A3E0B402109006B9E0DF
:0C46300004F0E0C3940A4004B2CDE4F0B2
:10463C00D007D006D005D004D003D002D001D000D2
:0B464C00D0D0D082D083D0F0D0E0327C
:03001B000250246C
:10502400C0E0C0F0C083C082C0D075D000C000C052
:0D50340001C002C003C004C005C006C007D3
:10504100E4FF12603CC28F758DFF758B9CEFB42E0F
:095051000512225A80031240B13D
:10505A00D007D006D005D004D003D002D001D000AA
:0B506A00D0D0D082D083D0F0D0E03254
:0560C6009006C0E0FFA0
:0160CB0022B2
:0660CC009006C0EFF02277
:0660D2009006BEEFF02273
:0560D8009006BFE0FF8F
:0160DD0022A0
:0660DE00E49006BFF02271
:0560E4009006C1E0FF81
:0160E9002294
:0660EA009006C1EFF02258
:0660F000E49006BCF02262
:0660F6009006BFEFF0224E
:0560FC009006BDE0FF6D
:01610100227B
:066102009006BDEFF02243
:0B21A6004806A8140F09040C220006D4
:0451A400E0FD7F8A21
:1051A800D2A0EF54FEFFE4FEEF30E004D2A180026B
:1051B800C2A1D2A2C2A2EFC313FF0EEEB408E9E463
:1051C800FEED30E004D2A18002C2A1D2A2C2A2EDBB
:0A51D800C313FD0EEEB408E9C2A0F7
:0151E20022AA
:1051E300D2A0EF4401FFE4FDEF30E004D2A180023E
:1051F300C2A1D2A2C2A2EFC313FF0DEDB408E9E42A
:10520300FDEEC313FE30A1054480FE8004EE547FFF
:0E521300FED2A2C2A20DEDB408E7C2A0AF0603
:01522100226A
:104AE100E4FF74A82FF582E43406F583E0FE75F047
:104AF1000A84FDEE75F00A8474B02FF582E4340661
:104B0100F583E5F0F0EDC454F0FE74B02FF582E4C6
:104B11003406F583E02EF00FEFB408C6E4FD7F8E76
:104B21001251A87D807F801251A89006B1E0FD7FCF
:104B31008C1251A8A3E0FD7F881251A8A3E0FD7F4C
:104B4100861251A89006B71251A49006B4E0FD7FD9
:104B5100841251A8A3E0FD7F821251A8A3E0FD7F3A
:0F4B6100801251A8A31251A47D807F8E0251A80B
:104CF1007F8C1251E39006B1EFF07F881251E3A34C
:104D0100EFF07F861251E3A3EFF07F841251E3A30A
:104D1100EFF07F821251E3A3EFF07F801251E3EFB6
:104D2100547FA3F07F8A1251E3A3EFF0E4FF74B044
:104D31002FF582E43406F583E0FEC4540FFDEE54F2
:104D41000FFE74A82FF582E43406F583EEF0ED75BD
:104D5100F00AA4FE74A82FF582E43406F583E02E50
:064D6100F00FEFB408C8DA
:014D67002229
:0B5F8F00C2A0C2A2E4FD7F800251A866
:1021B100410695004106940041069A0041069D00A2
:1021C1004106A40041068900410688004306A1009A
:1021D100000042069B004642069F007842068500A9
:1021E1000042068300004206920000420696004625
:1021F10042069800784206A6000041068700410683
:10220100A50041069E0041068A0041068E00430654
:0A2211008B00000043068F00000060
:07603500D2AFD2A8D28822ED
:0300030002602D6B
:08602D00C2A8208E02D28E32BF
:105D3300E4900695F0900694F090069DF090069AF4
:0C5D4300F09006A4F0900688F0A3F02277
:1040B10030B20590069D800390069AE004F09006C8
:1040C10089E004F0E0D394A07480948F4007C28EFD
:1040D100D2A8025D33900688E0146035146069143B
:1040E1007003024170240360030241E090069DE0E9
:1040F100D3940040030241E090069AE0D3944650E5
:10410100030241E7900688E004F0E490069DF08008
:104111003290069DE0FFFD90069AE02DFDE433FC10
:10412100D3ED948CEC6480948040030241E0EFD3A2
:10413100940150030241E730A802C2A8900688E02A
:1041410004F0E490069AF02290069AE0D39401409C
:104151001390069DE0900695F0E490069DF0900680
:1041610088E004F090069DE0D39419407980709026
:10417100069DE0D39401405C90069AE0FF9006947E
:10418100F0E490069AF09006887402F09006A4E09C
:10419100131313541FFE24A1F582E43406F583E0C2
:1041A100FD25E0F0900695E0D39F400E74A12EF519
:1041B10082E43406F583E04401F09006A4E004F0C3
:1041C100E0D39417400EC28E125D339006877401BE
:1041D100F0D2A82290069AE0D394194009800012E7
:0741E1005D33D2A8C28E225B
:102B7300E49005EEF012603C9005EEEFF0900687CE
:102B8300E064016003022D3CF0C2A890069EE014AD
:102B93006027046003022D3A9006A1E090068BF0B3
:102BA3009006A2E090068CF09006A3E090068DF0CC
:102BB30090069E7401F0022D3A9006A1E0FF900664
:102BC3008BE06F6003022D229006A2E0FE90068C3C
:102BD300E06E6003022D229006A3E0FD90068DE0D7
:102BE3006D6003022D2290068FE06F7012A3E06EDA
:102BF300700DA3E0B5050890068AE0702080009070
:102C030006A1E090068FF09006A2E0900690F09067
:102C130006A3E0900691F09006A57401F090068A51
:102C23007401F01260F0E49005C5F09005C5E0FF73
:102C3300C394084003022CFDEF75F020A42400FD8B
:102C4300E5F03406FC7B017A0579CE9005F5742016
:102C5300F07FA0124C12125F5AE49005C4F0900565
:102C6300C4E0FFC394204003022CF474CE2FF582FA
:102C7300E43405F583E070709005C5E075F020A499
:102C8300FF9005C4E07C002FFFEC35F0FEEF7803E6
:102C9300C333CE33CED8F92400FDEE3437FC7B01A9
:102CA3007A0579C69005F57408F07FA0124C1212CC
:102CB3005F5A90068FE0FF9005CBE0B5072A900698
:102CC30090E0FF9005CCE0B5071E900691E0C45458
:102CD3000FFF9005CDE0FEC4540FB5070B90068E91
:102CE3007401F01260F080099005C4E004F0022C36
:102CF300619005C5E004F0022C2EE49006A1F0A338
:102D0300F0A3F090068BF0A3F0A3F09005EEE0643F
:102D13005E60057F011260B4E490069EF080189017
:102D230006A1E090068BF09006A2E090068CF0904E
:092D330006A3E090068DF0D2A881
:012D3C002274
:10225A0030B20590069D800390069AE004F090063D
:10226A0089E004F0E0D394A07480948F4006C28E73
:10227A00D2A88027900688E014605A1470030223BB
:10228A006E1470030223B92403600302250090062A
:10229A009DE0D394004007D2A8C28E025D33900617
:1022AA0085E0FEA3E0FF7C007D0F1228D5EF243CD9
:1022BA00FFE43EFE90069AE0D39FEC9E500302256F
:1022CA0007900688E004F090069BEEF0A3EFF0E496
:1022DA00A3F0022369900683E0FEA3E0FF7C007D61
:1022EA000F1228D5EF2478FFE43EFE90069DE0F910
:1022FA00FD90069AE02DFDE433FCD3ED9FEC9E4061
:10230A0022E9701C900684E004F07006900683E0CF
:10231A0004F0900686E004F07006900685E004F06A
:10232A00022500E9D394015003022507900683E0B1
:10233A00FEA3E0FF7C007D0F1228D5EF2478FFE48E
:10234A003E90069FF0A3EFF0E4900683F0A3F0A37B
:10235A00F0A3F030A802C2A8900688E004F0E49046
:10236A00069AF02290069AE0D39400401390069DB4
:10237A00E0900695F0E490069DF0900688E004F05F
:10238A0090069BE0FEA3E0FF9006A0E02FFF9006D8
:10239A009FE03EFEEF7803CEC313CE13D8F9FF9029
:1023AA00069DE0D39FE49E50030225070225009074
:1023BA00069DE0D3940050030224D590069AE0FFCC
:1023CA00900694F0E490069AF09006887402F090D1
:1023DA0006A4E0131313541FFE24A1F582E4340665
:1023EA00F583E025E0F0900695E0FDD39F400E745A
:1023FA00A12EF582E43406F583E04401F09006A4A8
:10240A00E004F0E0D3941750030224D5C28E90065C
:10241A0094E02DFEE433900692F0A3CEF0125D33E1
:10242A009006A7E004F070069006A6E004F0900675
:10243A009FE0FEA3E0FF900699E02FF0900698E057
:10244A003EF0E0C313FEA3E013FF90069FEEF0A355
:10245A00EFF0900698EEF0A3EFF0D39006A7E09481
:10246A00019006A6E09400405F900696E0FEA3E085
:10247A00FF90069BE0FCA3E0FD9FFFEC9EFED3EFDE
:10248A00941EEE94004015900697E09DFF900696E4
:10249A00E09CFED3EF941EEE9400502C90069BE035
:1024AA00FEA3E0FF900697E02FF0900696E03EF03C
:1024BA00E0C313FEA3E013FF90069BEEF0A3EFF038
:1024CA00900696EEF0A3EFF0D2A82290069BE0FECB
:1024DA00A3E0FF9006A0E02FFF90069FE03EFEEFEC
:1024EA007803CEC313CE13D8F9FF90069AE0D39F90
:0E24FA00E49E40098000125D33D2A8C28E22FB
:056108009006A5E0FF78
:01610D00226F
:06610E00E49006A5F0225A
:0561140090068AE0FF87
:016119002263
:06611A00E490068AF02269
:0561200090068EE0FF77
:016125002257
:06612600E490068EF02259
:085FAC00900692E0FEA3E0FF65
:015FB40022CA
:105C3F000000000000000000000000000000000055
:105C4F000000000000000000000000000000000045
:0F221B004806C200000000000000004106CA0093
:10004600E4900593F0789C7C057D017BFF7A5C79D2
:100056003FFE7F20122835E49005BCF0A3F0A3F004
:10006600A3F0A3F0A3F0A3F0A3F012603C9005BCAC
:10007600EFF01260A29005BDEFF01260A89005BEE9
:10008600EFF01260489005BFEFF012604E9005C089
:10009600EFF012604E900593EFF012608A9005C162
:1000A600EFF01260609005C2EFF01260669005C333
:1000B600EFF0122B73126108EF64016003020DEB7F
:1000C6009005BCE024CE24FC4003020B0D24FC402A
:1000D60003020BBC24FC4003020C5D24FC4003021B
:1000E6000CFE24E47003020DAE14700302043524E2
:1000F6005F6003020DE8E4FF1260EA900691E0FFFC
:1001060054F0600302023790068FE0FEC4540FFDE0
:100116009005C1E0FC6D6008EC640A6003020237DA
:100126009005BDE0B4010CEF540F2474F582E4345D
:1001360005800D900691E0540F2474F582E4340492
:10014600F583E0900594F090068FE0FF900595ED1D
:10015600F0EF540FA3F0900690E0FFC4540F900503
:1001660097F0EF540FA3F0A3EEF0900690E0900501
:100176009AF0900691E090059BF0900594E0FF645C
:10018600336042EF603FE4900591F09005C3E0FFD5
:10019600900591E0C39F505C7B017A0579949005A8
:1001A60094E0FD9005D4E4F0A3EDF0900691E054C0
:1001B6000F9005D6F09005C2E0FF12250890059134
:1001C600E004F080C69005C77401F0A37404F0A3A0
:1001D6007484F07B017A05799412328C7B017A055E
:1001E6007994900691E0540F9005C8F07F92123CE6
:1001F600E10207461254B67B017A0579949006917E
:10020600E0540F9005C8F07F91123CE19005C77449
:1002160001F0A37405F0A37494F07B017A04798449
:1002260012465712377B124A547F5F126042020D04
:10023600E8E4900590F0900590E0FFC39430400309
:10024600020DE8EF75F020A4FDACF07B017A05798C
:100256009C9005F57420F07FA0124C12125F5AE4B0
:1002660090058FF090058FE0FFC3942040030204B1
:100276002C749C2FF582E43405F583E060030204B8
:1002860023900590E075F020A4FF90058FE07C0098
:100296002FFFEC35F0FEEF7803C333CE33CED8F91B
:1002A6002400FDEE3407FC7B017A0579949005F570
:1002B6007408F07FA0124C12125F5A9005BDE064DC
:1002C60001602B90068FE0FF900599E0B5071F901F
:1002D6000690E0FF90059AE0B50713900691E0C4FA
:1002E600540FFF90059BE0FEC4540F6F60389005D5
:1002F600BDE06401600302042390068FE0FF9005D1
:1003060099E06F6003020423900690E0FF90059A3F
:10031600E06F6003020423900691E0FF90059BE0E6
:100326006F6003020423900691E0FF90059BF09016
:100336000594E0C3943250279005BDE0B4010CEF5C
:10034600540F2474F582E43405800D900691E05430
:100356000F2474F582E43404F583E0900594F0905C
:100366000594E0FF64336042EF603FE4900591F04E
:100376009005C3E0FF900591E0C39F50617B017A31
:10038600057994900594E0FD9005D4E4F0A3EDF092
:10039600900691E0540F9005D6F09005C2E0FF124A
:1003A6002508900591E004F080C67B017A057994D2
:1003B600900691E0540F9005C8F07F92123CE190B0
:1003C60005C77401F0A37404F0A37484F07B017A6A
:1003D60005799412328C12377B124A548048125493
:1003E600B67B017A057994900691E0540F9005C882
:1003F600F07F91123CE19005C77401F0A37405F0FB
:10040600A37494F07B017A04798412465712377BE1
:10041600124A547F5F12604212610E800990058F66
:10042600E004F002026A900590E004F002023CE467
:10043600FF1260EA900691E0FF54F060030207574E
:1004460090068FE0FEC4540FFD9005C1E0FC6D6080
:1004560008EC640A60030207579005BDE0B4010C7E
:10046600EF540F2474F582E43405800D900691E074
:10047600540F2474F582E43404F583E0900594F077
:1004860090068FE0FF900595EDF0EF540FA3F090E6
:100496000690E0FFC4540F900597F0EF540FA3F0B9
:1004A600A3EEF0900690E090059AF0900691E09009
:1004B600059BF09005BFE0640160030205D390053B
:1004C60094E0FF64336042EF603FE4900591F09062
:1004D60005C3E0FF900591E0C39F505C7B017A0560
:1004E6007994900594E0FD9005D4E4F0A3EDF090A6
:1004F6000691E0540F9005D6F09005C2E0FF122554
:1005060008900591E004F080C67B017A0579949005
:100516000691E0540F9005C8F07F92123CE19005D9
:10052600C77401F0A37404F0A37484F07B017A0508
:10053600799412328C0207467B017A0579949006EB
:1005460091E0540F9005C8F07F91123CE19005C7E9
:100556007401F0A37404F0A37484F07B017A057926
:10056600941235E79005C0E0900591F0900591E072
:10057600FFD39401401AEF75F006A42478F97404A9
:1005860035F0FA7B01124EE8900591E014F080DC1C
:10059600E4900591F0900591E0FFC3940650147421
:1005A600842FF582E43404F583E4F0900591E004A9
:1005B600F080E29005C77401F0A37405F0A374946B
:1005C600F07B017A0479841246570207469005BFEC
:1005D600E064026003020DE8900594E0FF64336076
:1005E60003EF702F7B017A057994900691E0540F02
:1005F6009005C8F07F92123CE19005C77401F0A304
:100606007404F0A37484F07B017A05799412328C19
:10061600020746E4900592F09005C0E0FF9005922F
:10062600E0FEC39F40030206D6EE75F006A42485BD
:10063600F582E43404F583E0FF900595E0FEEF6E65
:1006460060030206CD900592E0FF75F006A42486AD
:10065600F582E43404F583E0FE900596E0FDEE6D48
:100666007065EF75F006A42487F582E43404F583FB
:10067600E0FF900597E0FEEF6E704C900592E075F6
:10068600F006A42488F582E43404F583E0FF90059F
:1006960098E0FEEFB50630900592E0A3F075F006FF
:1006A600A42484F9740435F0FA7B01C0039005C7CD
:1006B600EBF0A37405F0A37494F0D003124657121E
:1006C600377B124A548009900592E004F002061E18
:1006D6009005C0E0FF900593E06F6003020DE8907F
:1006E6000592F09005C0E0FF900592E0FEC39F40A2
:1006F60003020DE8EE75F006A42484F582E43404C2
:10070600F583E070447B017A057994900691E05474
:100716000F9005C8F07F91123CE1900592E075F0CC
:1007260006A42484F9740435F0FA7B01C00390050D
:10073600C7EBF0A37405F0A37494F0D003124657E8
:1007460012377B124A54020DE8900592E004F080BD
:1007560092E4900590F0900590E0FFC3943040033A
:10076600020DE8EF75F020A4FDACF07B017A057967
:100776009C9005F57420F07FA0124C12125F5AE48B
:1007860090058FF090058FE0FFC394204003020B85
:1007960004749C2FF582E43405F583E06003020AB5
:1007A600FB900590E075F020A4FF90058FE07C009B
:1007B6002FFFEC35F0FEEF7803C333CE33CED8F9F6
:1007C6002400FDEE3407FC7B017A0579949005F54B
:1007D6007408F07FA0124C12125F5A9005BDE064B7
:1007E60001602B90068FE0FF900599E0B5071F90FA
:1007F6000690E0FF90059AE0B50713900691E0C4D5
:10080600540FFF90059BE0FEC4540F6F60389005AF
:10081600BDE064016003020AFB90068FE0FF9005CD
:1008260099E06F6003020AFB900690E0FF90059A3C
:10083600E06F6003020AFB900691E0FF90059BE0E3
:100846006F6003020AFB900691E0FF90059BF09013
:100856000594E0C3943250279005BDE0B4010CEF37
:10086600540F2474F582E43405800D900691E0540B
:100876000F2474F582E43404F583E0900594F09037
:1008860005BFE064016003020973900594E0FF640C
:1008960033700302098AEF700302098AE490059116
:1008A600F09005C3E0FF900591E0C39F502D7B01BA
:1008B6007A057994900594E0FD9005D4E4F0A3EDD3
:1008C600F0900691E0540F9005D6F09005C2E0FF37
:1008D600122508900591E004F080C67B017A05791F
:1008E60094900691E0540F9005C8F07F91123CE178
:1008F6009005C77401F0A37404F0A37484F07B011F
:100906007A0579941235E79005C0E0900591F0904C
:100916000591E0FFD39401401AEF75F006A4247800
:10092600F9740435F0FA7B01124EE8900591E01453
:10093600F080DCE4900591F0900591E0FFC3940609
:10094600501474842FF582E43404F583E4F09005A2
:1009560091E004F080E29005C77401F0A37405F0FD
:10096600A37494F07B017A047984020AE39005BFAC
:10097600E064026003020AF6900594E0FF643360C7
:1009860003EF70357B017A057994900691E0540F58
:100996009005C8F07F92123CE19005C77401F0A360
:1009A6007404F0A37484F07B017A05799412328C76
:1009B60012377B124A54020B04E4900592F090051C
:1009C600C0E0FF900592E0FEC39F4003020A7CEE62
:1009D60075F006A42485F582E43404F583E0FF90DF
:1009E6000595E0FEEF6E6003020A73900592E0FF44
:1009F60075F006A42486F582E43404F583E0FE90BF
:100A06000596E0FDEE6D7065EF75F006A42487F59A
:100A160082E43404F583E0FF900597E0FEEF6E7004
:100A26004C900592E075F006A42488F582E434041F
:100A3600F583E0FF900598E0FEEFB506309005924D
:100A4600E0A3F075F006A42484F9740435F0FA7B6B
:100A560001C0039005C7EBF0A37405F0A37494F0EE
:100A6600D00312465712377B124A548009900592DA
:100A7600E004F00209C49005C0E0FF900593E06F22
:100A8600706E900592F09005C0E0FF900592E0FE32
:100A9600C39F505CEE75F006A42484F582E434040A
:100AA600F583E070437B017A057994900691E054D2
:100AB6000F9005C8F07F91123CE1900592E075F029
:100AC60006A42484F9740435F0FA7B01C00390056A
:100AD600C7EBF0A37405F0A37494F0D00312465745
:100AE60012377B124A548008900592E004F08096F3
:100AF60012610E800990058FE004F002078A9005C6
:100B060090E004F002075C7F35126042900691E0A7
:100B1600540F9006C2F0900600E09006C3F09006CF
:100B260001E09006C4F0900602E09006C5F090063B
:100B360003E09006C6F090068FE09006C7F0900698
:100B460090E09006C8F09005BDE0900691B40103D0
:100B5600E08003E054F09006C9F07B017A0679C282
:100B660012343D4003020DE8125F5A900603E0641A
:100B760009703D900602E06409702F900601E0B40A
:100B86000922900600E004F0E4A3F0A3F09006002A
:100B9600E0B4150AE4F090060304F0020DE89006AE
:100BA60003020D89900601020D91900602020D9E28
:100BB600900603020DA97F39126042900691E0FE6D
:100BC600540F9006C2F0900608E09006C3F0900617
:100BD60009E09006C4F090060AE09006C5F090067B
:100BE6000BE09006C6F090068FE09006C7F09006E0
:100BF60090E09006C8F0EE54F0A3F07B017A0679F7
:100C0600C21230CF4003020DE8125F5A90060BE085
:100C16006409703D90060AE06409702F900609E0A9
:100C2600B40922900608E004F0E4A3F0A3F09006CD
:100C360008E0B4150AE4F090060B04F0020DE89003
:100C4600060B020D89900609020D9190060A020D07
:100C56009E90060B020DA97F3D1260429006C2745B
:100C660034F0900611E09006C3F0900612E090066C
:100C7600C4F0900613E09006C5F0900614E09006C6
:100C8600C6F090068FE09006C7F0900690E09006BA
:100C9600C8F0900691E054F09006C9F07B017A0600
:100CA60079C2122D3D4003020DE8125F5A900614D8
:100CB600E06409703D900613E06409702F900612F7
:100CC600E0B40922900611E004F0E4A3F0A3F0904A
:100CD6000611E0B4150AE4F090061404F0020DE8DB
:100CE600900614020D89900612020D9190061302C9
:100CF6000D9E900614020DA97F411260429006C215
:100D06007433F090061BE09006C3F090061CE0904A
:100D160006C4F090061DE09006C5F090061EE09011
:100D260006C6F090068FE09006C7F0900690E09019
:100D360006C8F0900691E054F09006C9F07B017A5F
:100D46000679C2122F064003020DE8125F5A90067A
:100D56001EE06409704A90061DE06409703790062B
:100D66001CE0B4092390061BE004F0E4A3F0A3F012
:100D760090061BE0B41509E4F090061E04F08062AC
:100D860090061E7401F0805A90061CE004F0E4A35D
:100D9600F0A3F0804D90061DE004F0E4A3F080423D
:100DA60090061EE004F0803AE4FF1260B49006CA92
:100DB6007401F09005BDE0B40112A3E0FF90069126
:100DC600E0540F2474F582E4340580129005BEE0E9
:100DD600FF900691E0540F2474F582E43404F58301
:0B0DE600EFF012610E12431F0238DB19
:05612C009006CAE0FF2F
:01613100224B
:066132009006CAEFF02206
:105C5F00FFFFFFFFFFFFFFFFFFFFFFFFFFFFFFFF45
:105C6F00FFFFFFFFFFFFFFFFFFFFFFFFFFFFFFFF35
:10222A0060200633000000000000000000000000EB
:10223A000000000000000000000000000000000094
:0F224A00000000004806530000000000000000E4
:03619200DFFE220B
:105E2400AE07AF061EEF600C7FF51261927FF5128C
:055E3400619280EE22E6
:105E0E00D2B400D2B50000000000C2B40000000001
:065E1E0000C2B5000022E5
:105F1700C2B400D2B50000000000D2B400000000F7
:015F27002257
:10525F00E4FEEFA806088002C333D8FC30E704D27F
:10526F00B48002C2B400D2B50000000000C2B50E77
:10527F00EEB408DE0000D2B40000D2B5000000305A
:0C528F00B404C20A8002D20AC2B50000BA
:01529B0022F0
:10591300E4FFD2B4FE00C2B50000000000D2B5001F
:1059230000EF25E0FF30B4010F00000EEEB408E5F0
:04593300C2B50000F9
:01593700224D
:105F2800C2B4000000D2B50000000000C2B50000F5
:015F38002246
:105F3900D2B4000000D2B50000000000C2B50000D4
:015F49002235
:104D6800900593E075F020A42400FDE5F03406FCDE
:0E4D78007A0679337B0174209005CFF07FA07E
:104D8600125E0E12525F200A02C322ECFF12525F1D
:104D9600200A02C322AF0512525F200A02C322E490
:104DA600FD9005CFE0FFEDC39F501612285BFF1262
:104DB600525F200A02C322740129F9E43AFA0D80EF
:054DC600E0125F17D3AD
:014DCB0022C5
:104BFC00EF75F020A4FDACF07A06793374207B01BC
:064C0C009005F5F07FA009
:054C12009005EFEFF03A
:104C1700125E0EE0FF12525F200A02C322ECFF125F
:104C2700525F200A02C322AF0512525F200A02C355
:104C370022125E0E9005EFE004FF12525F200A0277
:104C4700C322E4FD9005F5E014FFEDC39F50141255
:104C57005913EF1228A1125F28740129F9E43AFACF
:104C67000D80E1125913EF1228A1125F39125F1755
:014C7700D369
:014C78002219
:0B343D009005C4EBF0A3EAF0A3E9F057
:10344800E4A3F0A3F09005C7F09005C7E0FFC3948C
:10345800384003023531124BFC125F5AE49005C81C
:10346800F09005C8E0FFC394204003023528743368
:103478002FF582E43406F583E0600302351F9005DA
:10348800C7E075F020A4FFA3E07C002FFFEC35F027
:10349800FEEF7803C333CE33CED8F92400FDEE34E3
:1034A80007FC7A0679537408124C0A125F5A900581
:1034B800C4E0FBA3E0FAA3E0F9900005122874FF2A
:1034C800900658E06F7050900006122874FF90061E
:1034D80059E06F7042900007122874FF90065AE076
:1034E8006F7034900654E0900600F0900655E09016
:1034F8000601F0900656E0900602F0900657E0901C
:103508000603F01260AEBF010C7F7A7E001253AC46
:10351800E4FF1260B4C3229005C8E004F0023469E5
:103528009005C7E004F0023451E49005C7F0900517
:10353800C7E0FFC3942040030235E5124BFC125F3D
:103548005AE49005C8F09005C8E0FFC394204003F2
:103558000235DC74332FF582E43406F583E0606BC2
:103568009005C7E075F020A4FFA3E07C002FFFECD6
:1035780035F0FEEF7803C333CE33CED8F92400FDFF
:10358800EE3407FC9005C4E0FBA3E0FAA3E0F9746D
:1035980008124D80125F5A9005C8E02433F582E482
:1035A8003406F583E4F09005C7E075F020A4FDAC7F
:1035B800F0124D78125F5A1260AEBF010C7F797E0F
:1035C800001253ACE4FF1260B4D3229005C8E004A3
:0E35D800F002354E9005C7E004F0023536C310
:0135E60022C2
:0B30CF009005C4EBF0A3EAF0A3E9F0C9
:1030DA00E4A3F0A3F09005C7F09005C7E0FFC394FE
:1030EA003840030231CB124BFC125F5AE49005C8F8
:1030FA00F09005C8E0FFC3942040030231C2743344
:10310A002FF582E43406F583E060030231B99005B5
:10311A00C7E075F020A4FFA3E07C002FFFEC35F098
:10312A00FEEF7803C333CE33CED8F92400FDEE3454
:10313A0007FC7B017A0679539005F57408F07FA0A5
:10314A00124C12125F5A9005C4E0FBA3E0FAA3E006
:10315A00F9900005122874FF900658E06F7050909D
:10316A000006122874FF900659E06F70429000071B
:10317A00122874FF90065AE06F7034900654E0905B
:10318A000608F0900655E0900609F0900656E09081
:10319A00060AF0900657E090060BF01260AEBF01E7
:1031AA000C7F7A7E001253ACE4FF1260B4C3229003
:1031BA0005C8E004F00230FB9005C7E004F00230D5
:1031CA00E3E49005C7F09005C7E0FFC39408400305
:1031DA0002328AEF75F020A42400FDE5F03406FCE3
:1031EA00124C04125F5AE49005C8F09005C8E0FF3B
:1031FA00C39420400302328174332FF582E43406EB
:10320A00F583E060699005C7E075F020A4FFA3E0AC
:10321A007C002FFFEC35F0FEEF7803C333CE33CEBC
:10322A00D8F92400FDEE3437FC9005C4E0FBA3E096
:10323A00FAA3E0F99005CF7408F07FA0124D861228
:10324A005F5A9005C8E02433F582E43406F583E436
:10325A00F09005C7124D6B125F5A1260AEBF010C97
:10326A007F797E001253ACE4FF1260B4D32290053A
:10327A00C8E004F00231F59005C7E004F00231D04D
:01328A00C380
:01328B002220
:0B2D3D009005C4EBF0A3EAF0A3E9F05E
:102D4800E4A3F0A3F09005C7F09005C7E0FFC39493
:102D5800384003022E39124BFC125F5AE49005C822
:102D6800F09005C8E0FFC394204003022E3074336E
:102D78002FF582E43406F583E06003022E279005E0
:102D8800C7E075F020A4FFA3E07C002FFFEC35F02E
:102D9800FEEF7803C333CE33CED8F92400FDEE34EA
:102DA80007FC7B017A0679539005F57408F07FA03B
:102DB800124C12125F5A9005C4E0FBA3E0FAA3E09C
:102DC800F9900005122874FF900658E06F70509033
:102DD8000006122874FF900659E06F7042900007B1
:102DE800122874FF90065AE06F7034900654E090F1
:102DF8000611F0900655E0900612F0900656E09005
:102E08000613F0900657E0900614F01260AEBF016A
:102E18000C7F7A7E001253ACE4FF1260B4C3229098
:102E280005C8E004F0022D699005C7E004F0022D02
:102E380051E49005C7F09005C7E0FFC3940840032C
:102E4800022F04EF75F020A42400FDE5F03404FC03
:102E5800124C04125F5AE49005C8F09005C8E0FFD0
:102E6800C394204003022EFB74332FF582E434060A
:102E7800F583E060759005C7E075F020A4FFA3E036
:102E88007C002FFFEC35F0FEEF7803C333CE33CE52
:102E9800D8F92400FDEE3427FC9005C4E0FBA3E03C
:102EA800FAA3E0F99005CF7408F07FA0124D8612BE
:102EB8005F5A9005C8E02433F582E43406F583E4CC
:102EC800F09005C7E075F020A42400FDE5F0340477
:102ED800124D77125F5A1260AEBF010C7F797E00E7
:102EE8001253ACE4FF1260B4D3229005C8E004F09A
:0D2EF800022E639005C7E004F0022E3EC3D9
:012F050022A9
:0B2F06009005C4EBF0A3EAF0A3E9F093
:102F1100E4A3F0A3F09005C7F09005C7E0FFC394C8
:102F2100384003023002124BFC125F5AE49005C88C
:102F3100F09005C8E0FFC394204003022FF97433D9
:102F41002FF582E43406F583E06003022FF090054B
:102F5100C7E075F020A4FFA3E07C002FFFEC35F063
:102F6100FEEF7803C333CE33CED8F92400FDEE341F
:102F710007FC7B017A0679539005F57408F07FA070
:102F8100124C12125F5A9005C4E0FBA3E0FAA3E0D1
:102F9100F9900005122874FF900658E06F70509068
:102FA1000006122874FF900659E06F7042900007E6
:102FB100122874FF90065AE06F7034900654E09026
:102FC100061BF0900655E090061CF0900656E09026
:102FD100061DF0900657E090061EF01260AEBF018C
:102FE1000C7F7A7E001253ACE4FF1260B4C32290CE
:102FF10005C8E004F0022F329005C7E004F0022F6B
:103001001AE49005C7F09005C7E0FFC39408400398
:103011000230CDEF75F020A42400FDE5F03405FC6D
:10302100124C04125F5AE49005C8F09005C8E0FF05
:10303100C3942040030230C474332FF582E4340674
:10304100F583E060759005C7E075F020A4FFA3E06B
:103051007C002FFFEC35F0FEEF7803C333CE33CE87
:10306100D8F92400FDEE342FFC9005C4E0FBA3E069
:10307100FAA3E0F99005CF7408F07FA0124D8612F3
:103081005F5A9005C8E02433F582E43406F583E401
:10309100F09005C7E075F020A42400FDE5F03405AB
:1030A100124D77125F5A1260AEBF010C7F797E001C
:1030B1001253ACE4FF1260B4D3229005C8E004F0CF
:0D30C10002302C9005C7E004F0023007C378
:0130CE0022DF
:0B3F7100900590EBF0A3EAF0A3E9F04C
:103F7C00E4A3F0A3F0900593F0900593E0FFC394B5
:103F8C002040030240AF124BFC125F5AE4900594A0
:103F9C00F0900594E0FFC3942040030240959005F7
:103FAC0090E0FBA3E0FAA3E0F912285B70289000E4
:103FBC00011228747020900002122874701890005E
:103FCC0003122874701074332FF582E43406F583D1
:103FDC0074FFF002408C900594E0FD2433F582E4EC
:103FEC003406F583E0600302408C900593E075F095
:103FFC0020A47C002DFFEC35F0FEEF7803C333CE0C
:10400C0033CED8F92400FDEE3407FC7B017A067917
:10401C00539005F57408F07FA0124C12125F5A9061
:10402C000590E0FBA3E0FAA3E0F912285BFF9006F1
:10403C0054E06F704B900001122874FF900655E00D
:10404C006F703D900002122874FF900656E06F705E
:10405C002F900003122874FF900657E0B5072190AB
:10406C000594E02433F582E43406F58374FFF09074
:10407C000593E075F020A4FDACF0124D78125F5A58
:10408C00900594E004F0023F9D900593E075F020BC
:10409C00A4FDACF0124D78125F5A900593E004F039
:0440AC00023F85D377
:0140B00022ED
:0B41E800900590EBF0A3EAF0A3E9F0D3
:1041F300E4A3F0A3F0900593F0900593E0FFC3943C
:1042030008400302431DEF75F020A42400FDE5F0F0
:104213003406FC124C04125F5AE4900594F09005A6
:1042230094E0FFC39420400302430E900590E0FB0B
:10423300A3E0FAA3E0F912285B702890000112288A
:1042430074702090000212287470189000031228D2
:1042530074701074332FF582E43406F58374FFF021
:10426300024305900594E0FD2433F582E43406F51A
:1042730083E06003024305900593E075F020A47C7E
:10428300002DFFEC35F0FEEF7803C333CE33CED8E9
:10429300F92400FDEE3437FC7B017A06795390054F
:1042A300F57408F07FA0124C12125F5A900590E04B
:1042B300FBA3E0FAA3E0F912285BFF900654E06F3A
:1042C3007040900001122874FF900655E06F703221
:1042D300900002122874FF900656E06F702490003D
:1042E30003122874FF900657E06F7016900594E050
:1042F3002433F582E43406F58374FFF0124D68121B
:104303005F5A900594E004F0024221124D68125F57
:0B4313005A900593E004F00241FCD337
:01431E00227C
:0B3A3700900590EBF0A3EAF0A3E9F08B
:103A4200E4A3F0A3F0900593F0900593E0FFC394F4
:103A5200084003023B8AEF75F020A42400FDE5F044
:103A62003404FC124C04125F5AE4900594F0900561
:103A720094E0FFC394204003023B6C900590E0FB6E
:103A8200A3E0FAA3E0F912285B7028900001122843
:103A9200747020900002122874701890000312288B
:103AA20074701074332FF582E43406F58374FFF0DA
:103AB200023B63900594E0FD2433F582E43406F57D
:103AC20083E06003023B63900593E075F020A47CE1
:103AD200002DFFEC35F0FEEF7803C333CE33CED8A2
:103AE200F92400FDEE3427FC7B017A067953900518
:103AF200F57408F07FA0124C12125F5A900590E004
:103B0200FBA3E0FAA3E0F912285BFF900654E06FF2
:103B1200704F900001122874FF900655E06F7041BB
:103B2200900002122874FF900656E06F70339000E6
:103B320003122874FF900657E06F7025900594E0F9
:103B42002433F582E43406F58374FFF0900593E0A4
:103B520075F020A42400FDE5F03404124D77125FC5
:103B62005A900594E004F0023A70900593E075F0E3
:103B720020A42400FDE5F03404124D77125F5A9020
:093B82000593E004F0023A4BD374
:013B8B002217
:0B3B8C00900590EBF0A3EAF0A3E9F035
:103B9700E4A3F0A3F0900593F0900593E0FFC3949E
:103BA700084003023CDFEF75F020A42400FDE5F098
:103BB7003405FC124C04125F5AE4900594F090050A
:103BC70094E0FFC394204003023CC1900590E0FBC2
:103BD700A3E0FAA3E0F912285B70289000011228ED
:103BE7007470209000021228747018900003122835
:103BF70074701074332FF582E43406F58374FFF084
:103C0700023CB8900594E0FD2433F582E43406F5D0
:103C170083E06003023CB8900593E075F020A47C34
:103C2700002DFFEC35F0FEEF7803C333CE33CED84B
:103C3700F92400FDEE342FFC7B017A0679539005B9
:103C4700F57408F07FA0124C12125F5A900590E0AD
:103C5700FBA3E0FAA3E0F912285BFF900654E06F9C
:103C6700704F900001122874FF900655E06F704165
:103C7700900002122874FF900656E06F7033900090
:103C870003122874FF900657E06F7025900594E0A3
:103C97002433F582E43406F58374FFF0900593E04E
:103CA70075F020A42400FDE5F03405124D77125F6E
:103CB7005A900594E004F0023BC5900593E075F037
:103CC70020A42400FDE5F03405124D77125F5A90C9
:093CD7000593E004F0023BA0D3C8
:013CE00022C1
:104F810078917C057D017BFF7A5C795F7E007F20D3
:104F9100122835E49005B1F0A3F09005B1E0FEA32D
:104FA100E0FFC39438EE94005027EF7805C333CE69
:104FB10033CED8F9FDAC067A057991124D7C125F9A
:104FC1005A9005B2E004F070D19005B1E004F08090
:014FD100C916
:014FD20022BC
:105D9B007F7E125FA37F03125FA37F33125FA37F0C
:095DAB0004125FA37FEF025FA365
:0653A6002401FFE433FEC8
:1053AC009005E5EEF0A3EFF07F7E125FA37F041271
:1053BC005FA37F41125FA39005E5E0FF125FA3900E
:0D53CC0005E5A3E0FF125FA37FEF025FA3E2
:105C1E00900591EFF07F7E125FA37F03125FA37F4B
:105C2E0031125FA3900591E0FF125FA37FEF025F39
:015C3E00A3C2
:105E4D007F7E125FA37F02125FA37F0E125FA37F7F
:045E5D00EF025FA34E
:105E61007F7E125FA37F02125FA37F01125FA37F78
:045E7100EF025FA33A
:0F3E2A009005D7A3E0FFA3E0FBA3E0FAA3E0F924
:053E39009005E1EFF02F
:103E3E00A3EBF0A3EAF0A3E9F0EFD394034003025F
:103E4E003F459005E1E094015017A3E0FBA3E0FA93
:103E5E00A3E0F99000021228742401FFE433FE80DF
:103E6E00219005E2E0FBA3E0FAA3E0F99000021234
:103E7E00287460111253A67F1D7E001253AC7F1E54
:103E8E007E001253AC9005E1E0D394015013A3E0F1
:103E9E00FBA3E0FAA3E0F99000031228742401803A
:103EAE004E9005E2E0FBA3E0FAA3E0F990000312C6
:103EBE002874604264017024900004122874700407
:103ECE007F0B802E9005E2E0FBA3E0FAA3E0F990D1
:103EDE000004122874240BFFE43380169005E2E0F0
:103EEE00FBA3E0FAA3E0F99000031228742413FF59
:103EFE00E433FE1253AC9005E1E0D394015011A3CC
:103F0E00E0FBA3E0FAA3E0F9900004122874801FEE
:103F1E009005E2E0FBA3E0FAA3E0F990000412287A
:103F2E0074FF603E90000312287464016034EF2425
