:03000000024B0CA4
:0C4B0C00787FE4F6D8FD758121024B5340
:1053A500125A3C124F6F125EE6125F12125FC9125B
:1053B5005F2B125D37125EF675B10CE4F5B27F7B9B
:0C53C500FE125348120DF112004680F851
:03002300025C5923
:065C5900C0E0C083C08220
:105C5F009005F6E4F0309802C298309904C299C2C8
:015C6F00092B
:075C7000D082D083D0E032A6
:03004300025D500B
:105D5000C0E0E59A30E003539AFEE59A30E105533E
:075D60009AFDC209D0E032F8
:095F36002009FDEFD209F59922C2
:1052DC009006D0EBF0A3EAF0A3E9F09006D0E0FB47
:1052EC00A3E0FAA3E0F91225D360179006D0A3E44B
:1052FC0075F0011226B4A9F0FA1225D3FF125F360D
:03530C0080D92223
:095F3F002009FDEFD209F59B22B7
:10530F009006D3EBF0A3EAF0A3E9F09006D3E0FB0D
:10531F00A3E0FAA3E0F91225D360179006D3A3E414
:10532F0075F0011226B4A9F0FA1225D3FF125F3FD0
:03533F0080D922F0
:105A3C00E5A2543FF5A253BAFE759850759A50756D
:105A4C00D7C875D6FE758E14438E01D2AC75AF01D6
:035A5C00D2AF22A4
:0B4E2000900000EBF0A3EAF0A3E9F023
:104E2B0090002B7401F0A37400F0A37403F09000B6
:104E3B0000E0F9A3E0FAA3E09006CAC9F0A3EAF0F8
:104E4B00A3E9F090002BE0F9A3E0FAA3E09006CDE4
:104E5B00C9F0A3EAF0A3E9F07B017A00792E125096
:0A4E6B00AE7B017A00792E0252DCC2
:101C25000000000000FF002601020E0F00FF000665
:101C35000203011500FF58890304021900FF58D457
:101C45000405031D00FF58F80506041F00FF591C75
:101C55000607052000FF59400708062100FF5964C3
:101C65000809072600FF5988090A082A00FF59AC08
:101C75000A0B092C00FF59D00B0C0A2E00FF001E81
:101C85000C0D0B2F00FF60C60D0E0C3000FF60CB56
:101C95000E010D3100FF000E0F0F0F1001FF51BE99
:101CA5001010101101FF547B1111111201FF54A3E3
:101CB5001212121301FF59F41313131401FF5A18CA
:101CC5001414140F01FF54CB1516183502FF5E23AB
:101CD5001617153902FF5E351718163D02FF5E47C8
:101CE5001815174102FF5E59191A1C4503FF5E6B53
:101CF5001A1B194903FF5E7D1B1C1A4D03FF5E8FDE
:101D05001C191B5103FF5EA11D1E1E5204FF60D04E
:101D15001E1D1D5304FF60D51F1F1F1F05FF5F51AB
:101D25002020202006FF5F592122605407FF60DA3A
:101D35002223215507FF60DF2324225607FF60E495
:101D45002425235707FF60E92560245807FF60EE27
:101D55002627295908FF60F32728265A08FF60F827
:101D65002829275B08FF60FD2926285C08FF6102FA
:101D75002A2B2B5D09FF5F042B2A2A5E09FF6107C9
:101D85002C2D2D000AFF610C2D2C2C000AFF611152
:101D95002E2E2E000BFF5CEB2F2F2F000CFF5F610B
:101DA500303030000DFF5F69313131000EFF5011C9
:101DB5003232323515FF5B543333333215FF5C95C0
:101DC5003434343315FF5B763535353415FF5B9880
:101DD5003636363916FF54F33737373616FF5A5F1E
:101DE5003838383716FF551B3939393816FF5543FA
:101DF5003A3A3A3D17FF556B3B3B3B3A17FF5A8240
:101E05003C3C3C3B17FF55933D3D3D3C17FF55BBC7
:101E15003E3E3E4118FF55E33F3F3F3E18FF5AA562
:101E25004040403F18FF560B4141414018FF563393
:101E35004242424519FF565B4343434219FF5AC884
:101E45004444444319FF56834545454419FF56AB61
:101E5500464646491AFF56D3474747461AFF5AEBA7
:101E6500484848471AFF56FB494949481AFF57232E
:101E75004A4A4A4D1BFF574B4B4B4B4A1BFF5B0EC8
:101E85004C4C4C4B1BFF57734D4D4D4C1BFF579BFB
:101E95004E4E4E511CFF57C34F4F4F4E1CFF5B31EB
:101EA5005050504F1CFF57EB515151501CFF5813C8
:101EB500525252521DFF5F71535353531EFF5F79A8
:101EC5005454545421FF5F815555555522FF5F8960
:101ED5005656565623FF5F915757575724FF5CB206
:101EE5005858585825FF5F995959595926FF583B55
:101EF5005A5A5A5A27FF5FA15B5B5B5B28FF5FA9B4
:101F05005C5C5C5C29FF5FB15D5D5D5D2AFF5238FD
:101F15005E5E5E5E2BFF50615F5F5F5F5FFF52A796
:101F25006021256107FF61166161616160FF5FB92D
:101F3500000000000000000000000000000000009C
:101F45004105FB00410625004105FC004406000053
:101F550000000144060800000001440611000000CD
:101F65000144061B00000001440604000000014472
:101F7500060D00000001440617000000014406207C
:101F85000000000141060C014106160C4106150032
:101F950041061F00410624004106270141062A008B
:101FA50041062D0041062F00410630014106260B52
:101FB5004106290041062C0041062E004106280253
:101FC50041062B004105F901410631014105FA01A0
:10494200E4900592F0A3F043903CE590543C643C23
:1049520070030249E6125EF6E590543C643C700333
:104962000249E612607E9005FCE0645E60291260F6
:1049720012EF60119005FCE0D3940E40047F018099
:10498200067F0080027F01EF600D125DE9125EF684
:104992007F787E001253489005FB7401F0E5905435
:1049A2003CFF900592E4F0A3EFF0900592E07004D2
:1049B200A3E06438700812606C7F01126060E590B9
:1049C200543CFFBF3CF8125EF6E590543CFFBF3CFE
:1049D200F8E4FF126060E4FF126078900592E0FE56
:0849E200A3E0FF227E0F7FFF1E
:0149EA0022AA
:10487C00E4900590F0A3F0FF124942900590EEF001
:10488C00A3EFF01260AE900590E0640F7003A3E00C
:10489C00F47078EF640170739005FCE0702A900658
:1048AC0090E0540FFFBF0808900625E004F0800547
:1048BC00E4900625F0900625E0D3940A400A7F1474
:1048CC00126084E4900625F01260B4900690E054D7
:1048DC000F24FE601724FE601E24FC602524077044
:1048EC002A900590E4F0A3741CF0801F900590E4CE
:1048FC00F0A3742CF08014900590E4F0A37434F0C1
:10490C008009900590E4F0A37438F0900590E0FED7
:10491C00A3E0FFEE701DEF24D4600F24F8600E248A
:10492C00FC600D241C700C7F03227F02227F01226D
:05493C007F00227FFF57
:014941002253
:100DF100E4FF90058FF012487CEF147003020FB9E5
:100E010014700302145B147003020F932403600334
:100E110002189512604EEF70069005FCE06010120A
:100E2100604EBF01229005FCE0FF6003B45F181221
:100E3100606690058FEFF0C39414500302189590EB
:100E410005FC7402020F8C9005FCE0FF6442600F08
:100E5100EF6443600AEF64446005EF6445702D124E
:100E6100606690058FEFF0C3940A40657B017A06B6
:100E71007904123F0D505712603CBF010C7F797EFF
:100E810000125348E4FF126042020F5D9005FCE03E
:100E9100FF6446600FEF6447600AEF64486005EF46
:100EA1006449703012606690058FEFF0C3940A4078
:100EB100207B017A06790D124184501212603CBFE9
:100EC100010C7F797E00125348E4FF126042020F49
:100ED1005D020F629005FCE0FF644A600FEF644B16
:100EE100600AEF644C6005EF644D702E12606690ED
:100EF100058FEFF0C3940A401F7B017A0679171220
:100F010039D3501212603CBF010C7F797E0012531D
:100F110048E4FF126042804480479005FCE0FF6492
:100F21004E600FEF644F600AEF64506005EF64514B
:100F3100704212606690058FEFF0C3940A40227BE5
:100F4100017A067920123B28501212603CBF010C35
:100F51007F797E00125348E4FF126042125EF680F0
:100F61002B9005FCE075F008A42428F582E5F03407
:100F71001C02188D9005FCE075F008A42428F58268
:100F8100E5F0341CF583E4939005FCF012606C02EB
:100F910018959005FCE0B45F0C12604EEF600612EC
:100FA1004C150218959005FCE075F008A42429F56C
:100FB10082E5F0341C02188D9005FCE01226CA105F
:100FC1006F0F10811010911110A11210B11310C3E5
:100FD1001413341F13462014272F14163010D53242
:100FE10010E73310F934110B35111D36112F37115C
:100FF100413811533911653A11773B11893C119BE5
:101001003D11AD3E11BF3F11D14011E34111F542F8
:10101100120743121944122B45123D46124F471233
:10102100614812734912854A12974B12A94C12BB9F
:101031004D12CD4E12DF4F12F150130351131452C2
:10104100132453135854136A55137A56138D571397
:101051009E5813AF5913C05A13D05B13E05C13F0C1
:101061005D13FE5E14115F14376100001448900691
:10107100A8E0B46305E4F00214489006A802140C39
:101081009006A9E0B40C0302132B9006A902140CDC
:101091009006AAE0B41F0302132B9006AA02140CB7
:1010A1009006AEE0B4070302132B9006AE02140CB7
:1010B1009006ABE0B41705E4F00214489006AB02C9
:1010C100140C9006ACE0B43B05E4F0021448900621
:1010D100AC02140C900600E0B41405E4F0021448CC
:1010E10090060002140C900601E0B40905E4F00238
:1010F100144890060102140C900602E0B40905E4BC
:10110100F002144890060202140C900603E0B409A0
:1011110005E4F002144890060302140C900608E05E
:10112100B41405E4F002144890060802140C900669
:1011310009E0B40905E4F002144890060902140C10
:1011410090060AE0B40905E4F002144890060A0288
:10115100140C90060BE0B40905E4F0021448900663
:101161000B02140C900611E0B41405E4F0021448CB
:1011710090061102140C900612E0B40905E4F00285
:10118100144890061202140C900613E0B40905E409
:10119100F002144890061302140C900614E0B409EE
:1011A10005E4F002144890061402140C90061BE0AA
:1011B100B41405E4F002144890061B02140C9006C6
:1011C1001CE0B40905E4F002144890061C02140C5A
:1011D10090061DE0B40905E4F002144890061D02D2
:1011E100140C90061EE0B40905E4F00214489006C0
:1011F1001E02140C900604E0B41405E4F002144835
:1012010090060402140C900605E0B40905E4F0020E
:10121100144890060502140C900606E0B40905E492
:10122100F002144890060602140C900607E0B40977
:1012310005E4F002144890060702140C90060DE034
:10124100B41405E4F002144890060D02140C900643
:101251000EE0B40905E4F002144890060E02140CE5
:1012610090060FE0B40905E4F002144890060F025D
:10127100140C900610E0B40905E4F002144890063D
:101281001002140C900617E0B41405E4F00214489F
:1012910090061702140C900618E0B40905E4F00258
:1012A100144890061802140C900619E0B40905E4DC
:1012B100F002144890061902140C90061AE0B409C1
:1012C10005E4F002144890061A02140C900620E07E
:1012D100B41405E4F002144890062002140C9006A0
:1012E10021E0B40905E4F002144890062102140C2F
:1012F100900622E0B40905E4F002144890062202A7
:10130100140C900623E0B40904E4F080069006234F
:10131100E004F090060CE0B4010302141D90060CE9
:10132100021445900616E0B4140302144590061603
:1013310002140C900615E0B46305E4F00214489021
:10134100061502140C90061FE0B46305E4F00214C4
:101351004890061F02140C900624E0B40705E4F03F
:1013610002144890062402140C900627E0B40903E5
:1013710002144590062702140C90062AE070050419
:10138100F0021448E490062AF002144890062DE079
:10139100B40905E4F002144890062D806E90062FE2
:1013A100E0B40705E4F002144890062F805D900632
:1013B10026E0B40B05E4F0021448900626804C9018
:1013C1000629E0B40B04E4F0807D900629803C906E
:1013D100062CE0B40B04E4F0806D90062C802C9078
:1013E100062EE0B40B04E4F0805D90062E801C9084
:1013F1000628E0B401028024900628804790062B3D
:10140100E0B42604E4F0803F90062BE004F080373E
:101411001246CE8032900631E0B401057402F080AC
:1014210026900631801E9005F9E0B40104E4F080B5
:10143100169005F9800E900630E0B40104E4F080C6
:10144100069006307401F09005FCE075F008A424C4
:1014510026F582E5F0341C02188D9005FCE0122679
:10146100CA15110F152010153311154612155613F3
:10147100156814177C1F178A20185C2F184B30151C
:101481007A3215893315983415A73515B63615C531
:101491003715D43815E33915F23A16013B16103CCD
:1014A100161F3D162E3E163D3F164C40165B41164B
:1014B1006A4216794316884416974516A64616B50C
:1014C1004716C44816D34916E24A16F14B17004C89
:1014D100170F4D171E4E172C4F173B50174A511718
:1014E1005952176953179C5417AA5517B95617CC57
:1014F1005717DD5817EE5917FB5A18085B18155C7A
:1015010018255D18335E18465F186C610000187D60
:101511009006A8E070030217909006A80218419067
:1015210006A9E0B40106740CF002187D9006A90228
:1015310018419006AAE0B40106741FF002187D90CC
:1015410006AA0218419006AEE0B401030217E39027
:1015510006AE0218419006ABE070067417F002184F
:101561007D9006AB0218419006ACE07006743BF02A
:1015710002187D9006AC021841900600E07003024B
:101581001770900600021841900601E070030217DF
:10159100D2900601021841900602E070030217D2B0
:1015A100900602021841900603E070030217D290E0
:1015B1000603021841900608E070030217709006B6
:1015C10008021841900609E070030217D29006093B
:1015D10002184190060AE070030217D290060A022F
:1015E100184190060BE070030217D290060B021807
:1015F10041900611E0700302177090061102184124
:10160100900612E070030217D29006120218419060
:101611000613E070030217D29006130218419006D8
:1016210014E070030217D290061402184190061BB1
:10163100E0700302177090061B02184190061CE02F
:1016410070030217D290061C02184190061DE0702B
:10165100030217D290061D02184190061EE0700386
:101661000217D290061E021841900604E070030290
:101671001770900604021841900605E070030217E6
:10168100D2900605021841900606E070030217D2B7
:10169100900606021841900607E070030217D290E7
:1016A100060702184190060DE070030217709006BC
:1016B1000D02184190060EE070030217D290060E3B
:1016C10002184190060FE070030217D290060F0234
:1016D1001841900610E070030217D290061002180C
:1016E10041900617E0700302177090061702184127
:1016F100900618E070030217D29006180218419064
:101701000619E070030217D29006190218419006DB
:101711001AE070030217D290061A021841900620AF
:10172100E07002804A900620021841900621E07084
:10173100030217D2900621021841900622E070039D
:101741000217D2900622021841900623E07003028C
:1017510017D290062302184190060CE0B40103024F
:10176100185290060C02187A900616E0B40106741D
:1017710014F002187D900616021841900615E070CB
:1017810002800C90061502184190061FE070067445
:1017910063F002187D90061F021841900624E07044
:1017A10002803F900624021841900627E0B401020E
:1017B100801F90062702184190062AE0700504F068
:1017C10002187DE490062AF002187D90062DE07043
:1017D100067409F002187D90062D806490062FE0B2
:1017E10070067407F002187D90062F80539006262C
:1017F100E0700280259006268046900629E070025E
:101801008018900629803990062CE07002800B9098
:10181100062C802C90062EE07005740BF0805D90F4
:10182100062E801C900628E0B40102802490062830
:10183100804790062BE070057426F0803F90062BC0
:10184100E014F080371247A68032900631E0B401EF
:10185100057402F08026900631801E9005F9E0B4EF
:101861000104E4F080169005F9800E900630E0B492
:101871000104E4F080069006307401F09005FCE06C
:1018810075F008A42427F582E5F0341CF583E49370
:101891009005FCF09005FCE075F008A4242AF5827F
:1018A100E5F0341CF583E493FB740193FA7402931D
:0F18B100F99005FDEBF0A3EAF0A3E9F00226F0B1
:0D5EF6007F047E347DDCDDFEDEFADFF60089
:015F0300227B
:055FD0009005FCE0FF5C
:015FD50022A9
:065FD6009005FCEFF02233
:055FDC0090060CE0FF3F
:015FE100229D
:055FE200900616E0FF2F
:015FE7002297
:055FE800900615E0FF2A
:015FED002291
:055FEE0090061FE0FF1A
:015FF300228B
:055FF400900624E0FF0F
:015FF9002285
:055FFA00900627E0FF06
:015FFF00227F
:0560000090062AE0FFFC
:016005002278
:0560060090062DE0FFF3
:01600B002272
:05600C0090062FE0FFEB
:01601100226C
:05601200900630E0FFE4
:016017002266
:05601800900626E0FFE8
:01601D002260
:05601E00900629E0FFDF
:01602300225A
:0560240090062CE0FFD6
:016029002254
:05602A0090062EE0FFCE
:01602F00224E
:05603000900628E0FFCE
:016035002248
:0560360090062BE0FFC5
:01603B002242
:05603C009005FBE0FFF0
:01604100223C
:066042009005FBEFF022C7
:05604800900631E0FFAD
:01604D002230
:05604E009005F9E0FFE0
:01605300222A
:105C7700000000000000000000000000000000001D
:0E5C870000000000000000000000000000000F
:101FD50055045F3F065B4F666D7D077F6F777C39E4
:101FE5005E797176385C733E4805840102040810F9
:101FF50020408042058C40006030042F0000000026
:1020050000000000000000000000000000000000CB
:1020150000000000000000000000000000000000BB
:1020250000000000000000000000000060F00484D3
:10203500000000000000000000000000000000009B
:10204500000000000000000000000000000000008B
:10205500000000000000000000000000000000007B
:10206500000000000000000000000000000000006B
:10207500000000000000000000000000000000005B
:10208500000000000000000000000000000000004B
:10209500000000000000000000000000000000003B
:1020A500000000000000000000000000000000002B
:1020B500000000000000000000000000000000001B
:1020C500000000000000000000000000000000000B
:1020D50000000000000000000000000000000000FB
:1020E50000000000000000000000000000000000EB
:1020F50000000000000000000000000000000000DB
:1021050000000000000000000000000000000000CA
:1021150000000000000000000000000000000000BA
:1021250041042E0041058E00500574010101010195
:1021350001010101010101010101015004740100C6
:0E21450003010201010101010101010101017B
:1053D100C282E4FDFCC280EF30E004D2818002C2CF
:1053E1008100000000D280EFC313FF0DBD00010C4E
:0A53F100ED64084C70DFC280C28139
:0153FB00228F
:1053FC00C283E4FDFCC280EF30E004D2818002C2A3
:10540C008100000000D280EFC313FF0DBD00010C22
:0A541C00ED64084C70DFC280C2810D
:015426002263
:10542700C2CCE4FDFCC280EF30E004D2818002C22E
:105437008100000000D280EFC313FF0DBD00010CF7
:0A544700ED64084C70DFC280C281E2
:015451002238
:095D7E00AE077F40125D877FC073
:0D5D8700D282000000000000C2820253D151
:0C5D0500125D87D2827F40125D117FC0CA
:0D5D1100D283000000000000C2830253FC9A
:0C5D1E00125D11D2837F40125D2A7FC00D
:0D5D2A00D2CC000000000000C2CC025427C3
:0549EB00E4900431F02E
:1049F00012600C125D7EE4FB742F2BF582E434040C
:104A0000F583E0FF1253D174372BF582E43404F5BB
:104A100083E0FF1253D10BEBB408DDEE2488FF12C4
:104A20005D05E4FB743F2BF582E43404F583E0FF7D
:104A30001253FC74472BF582E43404F583E0FF1233
:104A400053FC0BEBB408DDEE2488FF125D1EE4FB83
:104A5000744F2BF582E43404F583E0FF125427747D
:104A6000572BF582E43404F583E0FF1254270BEB57
:0C4A7000B408DDEE2488FF125D2AD2CCD1
:014A7C002217
:1050F800125D7EE4FBAF061253D1AF061253D10BFB
:10510800EBB408F17F8F125D05E4FBAF061253FC88
:10511800AF061253FC0BEBB408F17F8F125D1EE44F
:10512800FBAF06125427AF061254270BEBB408F155
:075138007F8F125D2AD2CC2B
:01513F00224D
:104F6F00E490058FF0E4FFE4FE90058FE02484F5D4
:104F7F0082E43405F583E0FDEF75F008A4242FF5E6
:104F8F0082E43404F583E5822EF582E43583F583DC
:104F9F00EDF00EEEB408D20FEFB406CB1249F07F4E
:104FAF001E125E1190058FE004F0E0C3940840B527
:014FBF0022CF
:105E1100EFD39400400B7EFF7DFFDDFEDEFA1F8095
:015E2100EF91
:015E2200225D
:10545200E4FFE4FEEF75F008A4242FF582E434049F
:10546200F583E5822EF582E43583F583E4F00EEED2
:08547200B408E10FEFB406DA03
:01547A00220F
:0A5F20007F78900484E4F0A3DFFC16
:015F2A002254
:10527200E4FF126054EF6401702A12545290042E1B
:10528200E05403FF242FF582E43404F5837440F0E4
:105292001249F0E4FF12605A90042EE004F0E0B4E8
:0452A2000402E4F02E
:0152A60022E5
:1043DC00125452124C8D900461E090043EF0900403
:1043EC005FE090043DF09006A8E0FF75F00A84248D
:1043FC005FF582E43404F583E090043CF0EF75F053
:10440C000A84745F25F0F582E43404F583E09004AB
:10441C003BF090043A7440F09006A9E0FF75F00A66
:10442C0084245FF582E43404F583E0900439F0EFE2
:10443C0075F00A84745F25F0F582E43404F583E0AA
:10444C00900438F09004377440F09006AAE0FF75A1
:10445C00F00A84245FF582E43404F583E09004369A
:10446C00F0EF75F00A84745F25F0F582E43404F5FE
:10447C0083E0900435F09006AEE0245FF582E434DE
:10448C0004F583E0900434F09006ABE0FF75F00A7D
:10449C0084245FF582E43404F583E0900432F0EF79
:1044AC0075F00A84745F25F0F582E43404F583E03A
:1044BC00900431F09006ACE0FF75F00A84245FF5AF
:1044CC0082E43404F583E0900430F0EF75F00A8454
:1044DC00745F25F0F582E43404F583E090042FF04A
:0344EC000249F092
:105C1B00AD0712545290046EE0900430F0745F2D77
:0F5C2B00F582E43404F583E090042FF00249F091
:105C3A00AD0712545290046DE0900430F0745F2D59
:0F5C4A00F582E43404F583E090042FF00249F072
:105DD50012545290045FE0900430F090042F743711
:045DE500F00249F08F
:105D940012545290045FE0900430F090046EE0904E
:065DA400042FF00249F09B
:105D6700AD07125452745F2DF582E43404F583E0D5
:075D770090042FF00249F037
:10537500AD07125452ED75F00A84245FF582E434CA
:1053850004F583E0900430F0ED75F00A84745F2530
:10539500F0F582E43404F583E090042FF00249F03F
:104D6800AB07AA061254527C007D64AF03AE021250
:104D7800265F745F2FF58274043EF583E09004315A
:104D8800F07C007D0AAF03AE0212265F7C007D0A2C
:104D980012265F745F2DF58274043CF583E090045D
:104DA80030F0AE02AF037C007D0A12265F745F2DDF
:0F4DB800F58274043CF583E090042FF00249F07B
:064DC7007B017A06790071
:104DCD001254521225D3245FF582E43404F583E0A6
:104DDD00900432F09000011225EC245FF582E4344A
:104DED0004F583E0900431F09000021225EC245F6D
:104DFD00F582E43404F583E0900430F09000031262
:104E0D0025EC245FF582E43404F583E090042FF063
:034E1D000249F057
:103717001254529004C6E060179005D37401F0A3C9
:103727007404F0A374C6F07B017A04795E12293A17
:103737009004C0E060179005D37401F0A37404F0FF
:10374700A374C0F07B017A04795A12293A9004BA1B
:10375700E060179005D37401F0A37404F0A374BA62
:10376700F07B017A04795612293A9004B4E0601785
:103777009005D37401F0A37404F0A374B4F07B0133
:103787007A04795212293A9004AEE060179005D373
:103797007401F0A37404F0A374AEF07B017A04798A
:1037A7004E12293A9004A8E060179005D37401F0EF
:1037B700A37404F0A374A8F07B017A04794A122950
:1037C7003A9004A2E060179005D37401F0A3740443
:1037D700F0A374A2F07B017A04794612293A900487
:1037E7009CE060179005D37401F0A37404F0A374F0
:1037F7009CF07B017A04794212293A900496E060A2
:10380700179005D37401F0A37404F0A37496F07BAA
:10381700017A04793E12293A900490E060179005E6
:10382700D37401F0A37404F0A37490F07B017A04BD
:10383700793A12293A90048AE060179005D3740107
:10384700F0A37404F0A3748AF07B017A047936122A
:10385700293A900484E060179005D37401F0A374AB
:1038670004F0A37484F07B017A04793212293A2296
:10293A009005D0EBF0A3EAF0A3E9F0A3E0FBA3E053
:10294A00FAA3E0F99000011225EC245FF582E43441
:10295A0004F583E0FF9005D0E0FBA3E0FAA3E0F9D9
:10296A00EF1226199005D3E0FBA3E0FAA3E0F99051
:10297A0000021225EC245FF582E43404F583E0FFBB
:10298A009005D0E0FBA3E0FAA3E0F990FFFFEF1275
:10299A00262B9005D3E0FBA3E0FAA3E0F99000030D
:1029AA001225EC245FF582E43404F583E0FF9005F8
:1029BA00D0E0FBA3E0FAA3E0F990FFFEEF12262B8A
:1029CA009005D3E0FBA3E0FAA3E0F99000041225F6
:1029DA00EC245FF582E43404F583E0FF9005D0E04F
:1029EA00FBA3E0FAA3E0F990FFFDEF12262B900576
:1029FA00D3E0FBA3E0FAA3E0F99000051225EC541A
:102A0A000F24FD6036147003022A9D24FD70030210
:102A1A002AE2147003022AF524066003022B0E90A0
:102A2A0005D0E0FBA3E0FAA3E024FDF9EA34FFFABB
:102A3A001225D34480122619022AE29005D0E0FB1F
:102A4A00A3E0FAA3E024FDF9EA34FFFA1225D344FD
:102A5A00801226199005D0E0FBA3E0FAA3E024FE39
:102A6A00F9EA34FFFA1225D344801226199005D0C8
:102A7A00E0FBA3E0FAA3E024FFF9EA34FFFA122507
:102A8A00D344801226199005D0E0FBA3E0FAA3E014
:102A9A00F980699005D0E0FBA3E0FAA3E024FDF9F0
:102AAA00EA34FFFA1225D344801226199005D0E0A1
:102ABA00FBA3E0FAA3E024FEF9EA34FFFA1225D3D5
:102ACA0044801226199005D0E0FBA3E0FAA3E02483
:102ADA00FFF9EA34FFFA80249005D0E0FBA3E0FA7C
:102AEA00A3E024FEF9EA34FFFA80119005D0E0FB56
:102AFA00A3E0FAA3E024FDF9EA34FFFA1225D3444D
:052B0A008012261922D3
:1045F3009005C4EBF0A3EAF0A3E9F0A3E0FBA3E08A
:10460300FAA3E0F91225D3FF9005C4E0FBA3E0FA77
:10461300A3E0F9EF1226199005C7E0FBA3E0FAA384
:10462300E0F99000011225ECFF9005C4E0FBA3E044
:10463300FAA3E0F9900001EF12262B9005C7E0FBE7
:10464300A3E0FAA3E0F99000021225ECFF9005C461
:10465300E0FBA3E0FAA3E0F9900002EF12262B900F
:1046630005C7E0FBA3E0FAA3E0F99000031225ECF1
:10467300FF9005C4E0FBA3E0FAA3E0F9900003EF89
:1046830012262B9005C7E0FBA3E0FAA3E0F9900004
:10469300041225ECFF9005C4E0FBA3E0FAA3E0F9C4
:1046A300900004EF12262B9005C7E0FBA3E0FAA3CA
:1046B300E0F99000071225ECFF9005C4E0FBA3E0AE
:0B46C300FAA3E0F9900005EF02262B9F
:0F4E7500EF75F006A42478F9740435F0FA7B0188
:104E84001225D390000612262B9000011225EC90D7
:104E9400000712262B9000021225EC90000812261F
:104EA4002B9000031225EC90000912262B9000048D
:104EB4001225EC90000A12262B9000051225EC9086
:054EC400000B02262B8B
:0F4EC900EE75F006A42484F9740435F0FA7B0129
:104ED8009000061225EC1226199000071225EC9076
:104EE800000112262B9000081225EC9000021226D1
:104EF8002B9000091225EC90000312262B90000A33
:104F08001225EC90000412262B90000B1225EC9031
:054F1800000502262B3C
:1038770078C87C057D017BFF7A5C79777E007F06BF
:103887001225ADE49005CEF0A3F01260009005CEAE
:10389700EFF0125FF49005CFEFF0125FEE9005C6E0
:1038A700EFF0125FE89005C7EFF01260729005C75E
:1038B700E0FE9005C6E0FDC39E500AEF9D4006EE70
:1038C7006003E0701B9005C7E060030239D29005E2
:1038D700C6E0FE70030239D2EFD39E50030239D2FD
:1038E700E49005C4F09005C4E0FFC3940A5021EFAB
:1038F70075F006A42484F582E43404F583E07008A7
:103907009005C4E0A3F080089005C4E004F080D5DA
:10391700E49005C4F09005C4E0FFA3E075F006A4A9
:103927002FF582E435F0F583E582247EF582E58381
:103937003404F583E0FE74C82FF582E43405F5837B
:10394700EEF09005C4E004F0E0B406C99005C5E0C8
:103957009005C4F09005C4E0FFD39401400B124ECC
:10396700759005C4E014F080EBE49005C4F0900571
:10397700C4E0FF24C8F582E43405F583E0FE7484CF
:103987002FF582E43404F583EEF09005C4E004F0EB
:10399700E0B406DA1237171249F0E4FF12607890A4
:1039A70005CEE0B401257B017A047984900484E094
:1039B700FD9005D4E4F0A3EDF0900489E0540F9056
:0B39C70005D6F09005CFE0FF12271698
:0139D20022D2
:1042BB00E49005CAF0A3F0125FEE9005C5EFF01283
:1042CB005FE89005C6EFF01260729005C7EFF01231
:1042DB005FE29005C8EFF0125FDC9005C9EFF012BA
:1042EB005FFA9005CBEFF09005C5E0FFA3E0FEC3AE
:1042FB009F500EA3E09E4009EF60069005C6E0704C
:10430B001A9005C5E060030243DBA3E0FF700302D4
:10431B0043DBA3E0D39F50030243DBE49005C4F0DF
:10432B009005C8E014FF9005C4E0FEC39F500B122C
:10433B004EC99005C4E004F080E69005C8E0147502
:10434B00F006A49005C4F09005C8E075F006A4FF34
:10435B009005C4E0FDC39FE5F06480F8748098502D
:10436B001474842DF582E43404F583E4F09005C4D1
:10437B00E004F080D21237171249F0E4FF12607894
:10438B00900484E07004FF025FD69005C9E06402DC
:10439B00703E9005C4F09005CBE0FF9005C4E0C3E0
:1043AB009F502D7B017A047984900484E0FD900565
:1043BB00D4E4F0A3EDF0900489E0540F9005D6F00F
:1043CB009005CAE0FF1227169005C4E004F080C6E2
:0143DB0022BF
:104C1500E4900591F0125FE2900591EFF0E49005C4
:104C250090F0900591E014FF900590E0FEC39F5031
:104C35000B124EC9900590E004F080E6900591E0D6
:104C45001475F006A4900590F0900591E075F006B6
:104C5500A4FF900590E0FDC39FE5F06480F87480A3
:104C650098501474842DF582E43404F583E4F090AF
:104C75000590E004F080D21237171249F0900484B1
:074C8500E07004FF125FD68E
:014C8C002205
:1046CE0078927C057D017BFF7A5C797D7E007F068A
:1046DE001225AD125FE2900591EFF0125FE2E490C9
:1046EE000590F0900590E0FEC39F5020EE75F00609
:1046FE00A42484F582E43404F583E07007900591D8
:10470E00EEF08008900590E004F080D7E4900590DC
:10471E00F0900590E0FF2484F582E43404F583E004
:10472E00FE74922FF582E43405F583EEF090059039
:10473E00E004F0E0B406DAE4900590F0900591E024
:10474E00FF900590E0FEC39F500B124EC99005904E
:10475E00E004F080E7E4900590F0900590E0FF24EF
:10476E0092F582E43405F583E0FE900591E075F054
:10477E0006A42FF582E435F0F583E582247EF582DA
:10478E00E5833404F583EEF0900590E004F0E0B498
:08479E0006C81237170249F0AA
:1047A60078927C057D017BFF7A5C79837E007F06AB
:1047B6001225AD125FE2900591EFF0125FE2E490F0
:1047C6000590F0900590E0FEC39F5020EE75F00630
:1047D600A42484F582E43404F583E07007900591FF
:1047E600EEF08008900590E004F080D7E490059004
:1047F600F0900590E0FFA3E075F006A42FF582E4A3
:1048060035F0F583E582247EF582E5833404F5836D
:10481600E0FE74922FF582E43405F583EEF0900500
:1048260090E004F0E0B406C9900591E0900590F0A0
:10483600900590E0FFD39401400B124E75900590C1
:10484600E014F080EBE4900590F0900590E0FF24F2
:1048560092F582E43405F583E0FE74842FF582E454
:104866003404F583EEF0900590E004F0E0B406DA47
:064876001237170249F0A1
:0B3228009005C4EBF0A3EAF0A3E9F06E
:1032330078CD7C057D017BFF7A5C79897E007F06F2
:103243001225AD125FE29005CBEFF0125FE290051D
:10325300CCEFF0E49005CAF09005CCE0FF9005CAEE
:10326300E0FEC39F400302333BEE75F006A4FFAEBE
:10327300F09005C7E0FBA3E0FAA3E02FF9EA3EFADA
:103283009000011225ECFD9005C4E0FBA3E0FAA336
:10329300E0F99000011225EC6D60030233329005D2
:1032A300C7E0FBA3E0FAA3E02FF9EA3EFA9000029D
:1032B3001225ECFF9005C4E0FBA3E0FAA3E0F9902C
:1032C30000021225EC6F70679005CAE075F006A442
:1032D300FFAEF09005C7E0FBA3E0FAA3E02FF9EA05
:1032E3003EFA9000031225ECFD9005C4E0FBA3E039
:1032F300FAA3E0F99000031225ECB505329005C757
:10330300E0FBA3E0FAA3E02FF9EA3EFA90000412EF
:1033130025ECFF9005C4E0FBA3E0FAA3E0F99000DD
:10332300041225ECB507089005CAE0A3F0800990C4
:1033330005CAE004F002325B9005CBE07003125D36
:10334300E99005CBE09005CAF09005CCE0FF90052D
:10335300CAE0FEC39F5021EE75F006A4FF9005C797
:10336300E0FBA3E0FAA3E02FF9EA35F0FA124ED816
:103373009005CAE004F080D19005CCE0FF9005CB26
:10338300E06F603DE49005CAF09005CCE024FFFFB8
:10339300E434FFFE7C007D0612264D9005C7E0FB5A
:1033A300A3E0FAA3E02FF9EA3EFAA3E07E0029F9AD
:1033B300EE3AFAE41226199005CAE004F0E0B406E6
:1033C300C89005C7E0FBA3E0FAA3E0F91225D37088
:0533D30004FF125FD6AB
:0133D80022D2
:0B3583009005C4EBF0A3EAF0A3E9F010
:10358E0078CD7C057D017BFF7A5C798F7E007F068E
:10359E001225AD125FE29005CBEFF0125FE29005BF
:1035AE00CCEFF0E49005CAF09005CCE0FF9005CA90
:1035BE00E0FEC39F4003023696EE75F006A4FFAE02
:1035CE00F09005C7E0FBA3E0FAA3E02FF9EA3EFA7C
:1035DE009000011225ECFD9005C4E0FBA3E0FAA3D8
:1035EE00E0F99000011225EC6D600302368D900516
:1035FE00C7E0FBA3E0FAA3E02FF9EA3EFA9000023F
:10360E001225ECFF9005C4E0FBA3E0FAA3E0F990CD
:10361E0000021225EC6F70679005CAE075F006A4E3
:10362E00FFAEF09005C7E0FBA3E0FAA3E02FF9EAA6
:10363E003EFA9000031225ECFD9005C4E0FBA3E0DA
:10364E00FAA3E0F99000031225ECB505329005C7F8
:10365E00E0FBA3E0FAA3E02FF9EA3EFA9000041291
:10366E0025ECFF9005C4E0FBA3E0FAA3E0F990007F
:10367E00041225ECB507089005CAE0A3F080099066
:10368E0005CAE004F00235B69005CBE09005CAF00D
:10369E009005CCE0FF9005CAE0FEC39F5021EE7569
:1036AE00F006A4FF9005C7E0FBA3E0FAA3E02FF914
:1036BE00EA35F0FA124ED89005CAE004F080D190A7
:1036CE0005CCE0FF9005CBE06F603DE49005CAF0BD
:1036DE009005CCE024FFFFE434FFFE7C007D061253
:1036EE00264D9005C7E0FBA3E0FAA3E02FF9EA3ED2
:1036FE00FAA3E07E0029F9EE3AFAE41226199005B3
:08370E00CAE004F0E0B406C8B3
:013716002290
:10002600E4FF126048EFB40107D2CD12527280038A
:0C0036001243DC12604EBF0103125F2079
:01004200229B
:05000600E4FF025C1B99
:10588900D2CD7F01125C1B12603CBF01181260125D
:10589900BF0112125DE9125EF67F6F7E0012534856
:0658A900E4FF1260422240
:1058D4007F02125C1B12603CBF0118126012BF01F0
:1058E40012125DE9125EF67F707E00125348E4FFE7
:0458F40012604222DA
:1058F8007F03125C1B12603CBF0118126012BF01CB
:1059080012125DE9125EF67F717E00125348E4FFC1
:0459180012604222B5
:10591C007F04125C1B12603CBF0118126012BF01A5
:10592C0012125DE9125EF67F727E00125348E4FF9C
:04593C001260422291
:105940007F05125C1B12603CBF0118126012BF0180
:1059500012125DE9125EF67F737E00125348E4FF77
:04596000126042226D
:105964007F06125C1B12603CBF0118126012BF015B
:1059740012125DE9125EF67F747E00125348E4FF52
:045984001260422249
:105988007F07125C1B12603CBF0118126012BF0136
:1059980012125DE9125EF67F757E00125348E4FF2D
:0459A8001260422225
:1059AC007F08125C1B12603CBF0118126012BF0111
:1059BC0012125DE9125EF67F767E00125348E4FF08
:0459CC001260422201
:1059D0007F09125C1B12603CBF0118126012BF01EC
:1059E00012125DE9125EF67F777E00125348E4FFE3
:0459F00012604222DD
:05001E007F0A025C1BDB
:0560C6007F0B025C1BD2
:0560CB007F0C025C1BCC
:0D000E007F0D125C1BE4FF126090D2CD222A
:1051BE00126048EFB401057F01025FD6126054BF42
:1051CE0001081243DC7F0212605A126054BF0319A9
:1051DE00E490043EF090043DF090043CF090043BCB
:0C51EE00F01249F0E4FF12605A124A7DF2
:0151FA002292
:10547B00126054BF01081243DC7F0212605A1260A3
:10548B0054BF0311E4900439F0900438F01249F042
:08549B00E4FF12605A024A7D91
:1054A300126054BF01081243DC7F0212605A12607B
:1054B30054BF0311E4900436F0900435F01249F020
:0854C300E4FF12605A024A7D69
:1059F400126054BF01081243DC7F0212605A126025
:105A040054BF030DE4900434F01249F0E4FF126033
:045A14005A024A7D6B
:105A1800126054BF01081243DC7F0212605A126000
:105A280054BF030DE4900432F01249ECE4FF126015
:045A38005A024A7D47
:1054CB00126054BF01081243DC7F0212605A126053
:1054DB0054BF0311E4900430F090042FF01249F004
:0854EB00E4FF12605A024A7D41
:105E23007F01125C3AE4900600F0A3F0A3F0A30410
:025E3300F0225B
:105E35007F02125C3AE4900608F0A3F0A3F0A304F5
:025E4500F02249
:105E47007F03125C3AE4900611F0A3F0A3F0A304D9
:025E5700F02237
:105E59007F04125C3AE490061BF0A3F0A3F0A304BC
:025E6900F02225
:105E6B007F01125C3AE4900604F0A3F0A3F0A304C4
:025E7B00F02213
:105E7D007F02125C3AE490060DF0A3F0A3F0A304A8
:025E8D00F02201
:105E8F007F03125C3AE4900617F0A3F0A3F0A3048B
:025E9F00F022EF
:105EA1007F04125C3AE4900620F0A3F0A3F0A3046F
:025EB100F022DD
:0560D0007F01025C3AB3
:0560D5007F02025C3AAD
:085F5100E4FF125FE802537542
:085F5900E4FF125FEE02537534
:0560DA007F01025C3AA9
:0560DF007F02025C3AA3
:0560E4007F03025C3A9D
:0560E9007F04025C3A97
:0560EE007F05025C3A91
:0560F3007F01025C3A90
:0560F8007F02025C3A8A
:0560FD007F03025C3A84
:056102007F04025C3A7D
:0E5F04007F01125C3A12603090058EEFF022A1
:056107007F02025C3A7A
:05610C007F01025C3A76
:056111007F02025C3A70
:105CEB00E4FFFEFDFC125F48AC06AD077E277F107C
:0A5CFB0012265FAC06AD07024D68EB
:085F6100E4FF12604E025D67CF
:085F6900E4FF126048025D67CD
:1050110012608A900590EFF0D394145031E0FAC3F6
:10502100940450028019EAD394125013900590E031
:10503100C3132482F582E43405F583E0FF80027F07
:10504100FF1250F830A4077F3C7E001253489005B0
:0F50510090E0D3941440061254521249F0C2CD8D
:01506000222D
:105B5400126054BF0108124DC77F0212605A1260CE
:105B640054BF030DE4900432F01249F0E4FF1260D4
:025B74005A22B3
:105C9500126054BF0108124DC77F0212605A12608C
:0D5CA50054BF03081249EBE4FF12605A22BD
:105B7600126054BF0108124DC77F0212605A1260AC
:105B860054BF030DE4900430F01249F0E4FF1260B4
:025B96005A2291
:105B9800126054BF0108124DC77F0212605A12608A
:105BA80054BF030DE490042FF01249F0E4FF126093
:025BB8005A226F
:1054F300126054BF010E7B017A067908124DCD7FED
:105503000212605A126054BF030DE4900432F01289
:0855130049F0E4FF12605A2286
:105A5F00126054BF010E7B017A067908124DCD7F7B
:105A6F000212605A126054BF03081249EBE4FF128E
:035A7F00605A2248
:10551B00126054BF010E7B017A067908124DCD7FC4
:10552B000212605A126054BF030DE4900430F01263
:08553B0049F0E4FF12605A225E
:10554300126054BF010E7B017A067908124DCD7F9C
:105553000212605A126054BF030DE490042FF0123C
:0855630049F0E4FF12605A2236
:10556B00126054BF010E7B017A067911124DCD7F6B
:10557B000212605A126054BF030DE4900432F01211
:08558B0049F0E4FF12605A220E
:105A8200126054BF010E7B017A067911124DCD7F4F
:105A92000212605A126054BF03081249EBE4FF126B
:035AA200605A2225
:10559300126054BF010E7B017A067911124DCD7F43
:1055A3000212605A126054BF030DE4900430F012EB
:0855B30049F0E4FF12605A22E6
:1055BB00126054BF010E7B017A067911124DCD7F1B
:1055CB000212605A126054BF030DE490042FF012C4
:0855DB0049F0E4FF12605A22BE
:1055E300126054BF010E7B017A06791B124DCD7FE9
:1055F3000212605A126054BF030DE4900432F01299
:0856030049F0E4FF12605A2295
:105AA500126054BF010E7B017A06791B124DCD7F22
:105AB5000212605A126054BF03081249EBE4FF1248
:035AC500605A2202
:10560B00126054BF010E7B017A06791B124DCD7FC0
:10561B000212605A126054BF030DE4900430F01272
:08562B0049F0E4FF12605A226D
:10563300126054BF010E7B017A06791B124DCD7F98
:105643000212605A126054BF030DE490042FF0124B
:0856530049F0E4FF12605A2245
:10565B00126054BF010E7B017A067904124DCD7F87
:10566B000212605A126054BF030DE4900432F01220
:08567B0049F0E4FF12605A221D
:105AC800126054BF010E7B017A067904124DCD7F16
:105AD8000212605A126054BF03081249EBE4FF1225
:035AE800605A22DF
:10568300126054BF010E7B017A067904124DCD7F5F
:105693000212605A126054BF030DE4900430F012FA
:0856A30049F0E4FF12605A22F5
:1056AB00126054BF010E7B017A067904124DCD7F37
:1056BB000212605A126054BF030DE490042FF012D3
:0856CB0049F0E4FF12605A22CD
:1056D300126054BF010E7B017A06790D124DCD7F06
:1056E3000212605A126054BF030DE4900432F012A8
:0856F30049F0E4FF12605A22A5
:105AEB00126054BF010E7B017A06790D124DCD7FEA
:105AFB000212605A126054BF03081249EBE4FF1202
:035B0B00605A22BB
:1056FB00126054BF010E7B017A06790D124DCD7FDE
:10570B000212605A126054BF030DE4900430F01281
:08571B0049F0E4FF12605A227C
:10572300126054BF010E7B017A06790D124DCD7FB5
:105733000212605A126054BF030DE490042FF0125A
:0857430049F0E4FF12605A2254
:10574B00126054BF010E7B017A067917124DCD7F83
:10575B000212605A126054BF030DE4900432F0122F
:08576B0049F0E4FF12605A222C
:105B0E00126054BF010E7B017A067917124DCD7FBC
:105B1E000212605A126054BF03081249EBE4FF12DE
:035B2E00605A2298
:10577300126054BF010E7B017A067917124DCD7F5B
:105783000212605A126054BF030DE4900430F01209
:0857930049F0E4FF12605A2204
:10579B00126054BF010E7B017A067917124DCD7F33
:1057AB000212605A126054BF030DE490042FF012E2
:0857BB0049F0E4FF12605A22DC
:1057C300126054BF010E7B017A067920124DCD7F02
:1057D3000212605A126054BF030DE4900432F012B7
:0857E30049F0E4FF12605A22B4
:105B3100126054BF010E7B017A067920124DCD7F90
:105B41000212605A126054BF03081249EBE4FF12BB
:035B5100605A2275
:1057EB00126054BF010E7B017A067920124DCD7FDA
:1057FB000212605A126054BF030DE4900430F01291
:08580B0049F0E4FF12605A228B
:10581300126054BF010E7B017A067920124DCD7FB1
:105823000212605A126054BF030DE490042FF01269
:0858330049F0E4FF12605A2263
:085F7100E4FF125FDC025D6732
:085F7900E4FF125FE202537520
:085F8100E4FF125FF4025D670A
:085F8900E4FF125FFA025D67FC
:085F9100E4FF126000025D67ED
:105CB200E4900590F0126006900590EFF075F00305
:0D5CC200A4FF125BBA900590E0FF025D6741
:085F9900E4FF12600C025D67D9
:10583B00E4900590F0126018900590EFF0C3940A75
:10584B005005E0FF025D67900590E0C3940B500399
:06585B00025DD5125D9410
:015861002224
:085FA100E4FF12601E025D67BF
:085FA900E4FF126024025D67B1
:085FB100E4FF12602A025D67A3
:10523800E4900590F0126030900590EFF0125D67F1
:1052480090058EE0FF900590E06F601D124F1D9055
:105258000590E090058EF012603CBF010C7F797ECE
:0952680000125348E4FF126042F9
:01527100221A
:10506100E4900590F0126036900590EFF0125375C0
:1050710012603CBF011E125EF6125DE9125EF690EF
:105081000590E02442FFE433FE125348125EF6E439
:10509100FF1260421260BABF0112125DE9125EF6A0
:0C50A1007F797E00125348E4FF1260C0CB
:0150AD0022E0
:1052A700E4900590F0125FF4900590EFF012371735
:1052B7001249F0900484E0FF6426600CEF643460C8
:1052C70007900590E0B4070A30A4077F687E0012B4
:0452D7005348D2CD99
:0152DB0022B0
:056116007F06025C3A67
:085FB900E4FF126012025D67B3
:102153004106B9004106BF004106BD004106BE006D
:102163004106BA004106B7004106C0004106BB0064
:082173004106B8004106BC0062
:105EE600438901758C3C758AB0D2AFD2A9D28C2277
:0E5F1200438910758DFF758B9CD2AFD2AB22E8
:03000B000244EFBD
:1044EF00C0E0C0F0C083C082C0D075D000C000C093
:0D44FF0001C002C003C004C005C006C00714
:10450C009005F7E4F0A3F0C28D758C3C758AB0125F
:10451C005FD09005F7EFF01260489005F8EFF0903F
:10452C0006B9E004F0E0B40A119006BFE004F09084
:10453C0006BCE004F09006B9E4F09006BFE0C3942A
:10454C00044002E4F09006BCE0C394184002E4F08E
:10455C009006BDE0B40104A3E004F01260A2BF0118
:10456C00149006BAE004F0E0D3947840081260A8E6
:10457C009006BAE4F09005F7E0FFB45F159006B72B
:10458C00E004F0E0B4140B9006C0E004F09006B721
:10459C00E4F0EF645F601A9005F7E064316012900C
:1045AC0006BBE004F0E0D394C84006E4F0FF125FD1
:1045BC00D69005F7E07015A3E0B402109006B8E0B1
:0C45CC0004F0E0C3940A4004B2CDE4F017
:1045D800D007D006D005D004D003D002D001D00037
:0B45E800D0D0D082D083D0F0D0E032E1
:03001B00024FC0D1
:104FC000C0E0C0F0C083C082C0D075D000C000C0B7
:0D4FD00001C002C003C004C005C006C00738
:104FDD00E4FF125FD0C28F758DFF758B9CEFB42EE1
:094FED000512222F800312404D31
:104FF600D007D006D005D004D003D002D001D0000F
:0B500600D0D0D082D083D0F0D0E032B8
:056054009006BFE0FF13
:016059002224
:06605A009006BFEFF022EA
:066060009006BDEFF022E6
:056066009006BEE0FF02
:01606B002212
:06606C00E49006BEF022E4
:056072009006C0E0FFF4
:016077002206
:066078009006C0EFF022CB
:06607E00E49006BBF022D5
:066084009006BEEFF022C1
:05608A009006BCE0FFE0
:01608F0022EE
:066090009006BCEFF022B7
:0B217B004806A7140F09040C22000600
:04514000E0FD7F8A85
:10514400D2A0EF54FEFFE4FEEF30E004D2A18002CF
:10515400C2A1D2A2C2A2EFC313FF0EEEB408E9E4C7
:10516400FEED30E004D2A18002C2A1D2A2C2A2ED1F
:0A517400C313FD0EEEB408E9C2A05B
:01517E00220E
:10517F00D2A0EF4401FFE4FDEF30E004D2A18002A2
:10518F00C2A1D2A2C2A2EFC313FF0DEDB408E9E48E
:10519F00FDEEC313FE30A1054480FE8004EE547F64
:0E51AF00FED2A2C2A20DEDB408E7C2A0AF0668
:0151BD0022CF
:104A7D00E4FF74A72FF582E43406F583E0FE75F0AC
:104A8D000A84FDEE75F00A8474AF2FF582E43406C6
:104A9D00F583E5F0F0EDC454F0FE74AF2FF582E42C
:104AAD003406F583E02EF00FEFB408C6E4FD7F8EDB
:104ABD001251447D807F801251449006B0E0FD7FFD
:104ACD008C125144A3E0FD7F88125144A3E0FD7F79
:104ADD00861251449006B61251409006B3E0FD7F08
:104AED0084125144A3E0FD7F82125144A3E0FD7F67
:0F4AFD0080125144A31251407D807F8E0251449C
:104C8D007F8C12517F9006B0EFF07F8812517FA379
:104C9D00EFF07F8612517FA3EFF07F8412517FA337
:104CAD00EFF07F8212517FA3EFF07F8012517FEFE3
:104CBD00547FA3F07F8A12517FA3EFF0E4FF74AF0E
:104CCD002FF582E43406F583E0FEC4540FFDEE5457
:104CDD000FFE74A72FF582E43406F583EEF0ED7523
:104CED00F00AA4FE74A72FF582E43406F583E02EB6
:064CFD00F00FEFB408C83F
:014D0300228D
:0B5F2B00C2A0C2A2E4FD7F800251442E
:1021860041069400410693004106990041069C00D1
:102196004106A30041068800410687004306A000C9
:1021A600000042069A004642069E007842068400D7
:1021B6000042068200004206910000420695004653
:1021C60042069700784206A50000410686004106B1
:1021D600A40041069D004106890041068D00430684
:0A21E6008A00000043068E0000008E
:075FC900D2AFD2A8D288225A
:03000300025FC1D8
:085FC100C2A8208E02D28E322C
:105CCF00E4900694F0900693F090069CF09006995D
:0C5CDF00F09006A3F0900687F0A3F022DE
:10404D0030B20590069C8003900699E004F090062E
:10405D0088E004F0E0D394A07480948F4007C28E62
:10406D00D2A8025CCF900687E01460351460691405
:10407D00700302410C2403600302417C90069CE016
:10408D00D39400400302417C900699E0D3944650AE
:10409D0003024183900687E004F0E490069CF080D3
:1040AD003290069CE0FFFD900699E02DFDE433FC77
:1040BD00D3ED948CEC64809480400302417CEFD36B
:1040CD009401500302418330A802C2A8900687E0F4
:1040DD0004F0E4900699F022900699E0D394014003
:1040ED001390069CE0900694F0E490069CF09006E8
:1040FD0087E004F090069CE0D3941940798070908D
:10410D00069CE0D39401405C900699E0FF900693E5
:10411D00F0E4900699F09006877402F09006A3E003
:10412D00131313541FFE24A0F582E43406F583E027
:10413D00FD25E0F0900694E0D39F400E74A02EF57F
:10414D0082E43406F583E04401F09006A3E004F028
:10415D00E0D39417400EC28E125CCF900686740188
:10416D00F0D2A822900699E0D3941940098000124C
:07417D005CCFD2A8C28E2224
:102B0F00E49005EEF0125FD09005EEEFF0900686A0
:102B1F00E064016003022CD8F0C2A890069DE01477
:102B2F006027046003022CD69006A0E090068AF07E
:102B3F009006A1E090068BF09006A2E090068CF034
:102B4F0090069D7401F0022CD69006A0E0FF90062F
:102B5F008AE06F6003022CBE9006A1E0FE90068B08
:102B6F00E06E6003022CBE9006A2E0FD90068CE0A2
:102B7F006D6003022CBE90068EE06F7012A3E06EA4
:102B8F00700DA3E0B50508900689E07020800090D5
:102B9F0006A0E090068EF09006A1E090068FF090D0
:102BAF0006A2E0900690F09006A47401F0900689BA
:102BBF007401F012607EE49005C5F09005C5E0FF4A
:102BCF00C394084003022C99EF75F020A42400FD54
:102BDF00E5F03406FC7B017A0579CE9005F574207B
:102BEF00F07FA0124BAE125EF6E49005C4F0900594
:102BFF00C4E0FFC394204003022C9074CE2FF582C3
:102C0F00E43405F583E070709005C5E075F020A4FD
:102C1F00FF9005C4E07C002FFFEC35F0FEEF78034A
:102C2F00C333CE33CED8F92400FDEE3437FC7B010D
:102C3F007A0579C69005F57408F07FA0124BAE1295
:102C4F005EF690068EE0FF9005CBE0B5072A900662
:102C5F008FE0FF9005CCE0B5071E900690E0C454BE
:102C6F000FFF9005CDE0FEC4540FB5070B90068DF6
:102C7F007401F012607E80099005C4E004F0022B0D
:102C8F00FD9005C5E004F0022BCAE49006A0F0A366
:102C9F00F0A3F090068AF0A3F0A3F09005EEE064A5
:102CAF005E60057F01126042E490069DF0801890EF
:102CBF0006A0E090068AF09006A1E090068BF090B7
:092CCF0006A2E090068CF0D2A8E8
:012CD80022D9
:10222F0030B20590069C8003900699E004F090066A
:10223F0088E004F0E0D394A07480948F4006C28E9F
:10224F00D2A88027900687E014605A1470030223E7
:10225F004314700302238E240360030224D59006D7
:10226F009CE0D394004007D2A8C28E025CCF9006A8
:10227F0084E0FEA3E0FF7C007D0F12264DEF243C8F
:10228F00FFE43EFE900699E0D39FEC9E500302249C
:10229F00DC900687E004F090069AEEF0A3EFF0E4EE
:1022AF00A3F002233E900682E0FEA3E0FF7C007DB8
:1022BF000F12264DEF2478FFE43EFE90069CE0F9C6
:1022CF00FD900699E02DFDE433FCD3ED9FEC9E408D
:1022DF0022E9701C900683E004F07006900682E0FD
:1022EF0004F0900685E004F07006900684E004F098
:1022FF000224D5E9D3940150030224DC900682E036
:10230F00FEA3E0FF7C007D0F12264DEF2478FFE443
:10231F003E90069EF0A3EFF0E4900682F0A3F0A3A8
:10232F00F0A3F030A802C2A8900687E004F0E49072
:10233F000699F022900699E0D39400401390069CE2
:10234F00E0900694F0E490069CF0900687E004F08D
:10235F0090069AE0FEA3E0FF90069FE02FFF900605
:10236F009EE03EFEEF7803CEC313CE13D8F9FF9055
:10237F00069CE0D39FE49E50030224DC0224D590F8
:10238F00069CE0D3940050030224AA900699E0FF24
:10239F00900693F0E4900699F09006877402F090FF
:1023AF0006A3E0131313541FFE24A0F582E4340692
:1023BF00F583E025E0F0900694E0FDD39F400E7486
:1023CF00A02EF582E43406F583E04401F09006A3D5
:1023DF00E004F0E0D3941750030224AAC28E9006B3
:1023EF0093E02DFEE433900691F0A3CEF0125CCF74
:1023FF009006A6E004F070069006A5E004F09006A3
:10240F009EE0FEA3E0FF900698E02FF0900697E085
:10241F003EF0E0C313FEA3E013FF90069EEEF0A381
:10242F00EFF0900697EEF0A3EFF0D39006A6E094AE
:10243F00019006A5E09400405F900695E0FEA3E0B2
:10244F00FF90069AE0FCA3E0FD9FFFEC9EFED3EF0A
:10245F00941EEE94004015900696E09DFF90069511
:10246F00E09CFED3EF941EEE9400502C90069AE061
:10247F00FEA3E0FF900696E02FF0900695E03EF069
:10248F00E0C313FEA3E013FF90069AEEF0A3EFF064
:10249F00900695EEF0A3EFF0D2A82290069AE0FEF8
:1024AF00A3E0FF90069FE02FFF90069EE03EFEEF19
:1024BF007803CEC313CE13D8F9FF900699E0D39FBC
:0E24CF00E49E40098000125CCFD2A8C28E228B
:056096009006A4E0FFEC
:01609B0022E2
:06609C00E49006A4F022CE
:0560A200900689E0FFFB
:0160A70022D6
:0660A800E4900689F022DD
:0560AE0090068DE0FFEB
:0160B30022CA
:0660B400E490068DF022CD
:085F4800900691E0FEA3E0FFCA
:015F5000222E
:105BDB0000000000000000000000000000000000BA
:105BEB0000000000000000000000000000000000AA
:0F21F0004806C100000000000000004106C900C1
:10004600E4900593F0789C7C057D017BFF7A5B79D3
:10005600DBFE7F201225ADE49005BCF0A3F0A3F0F3
:10006600A3F0A3F0A3F0A3F0A3F0125FD09005BC19
:10007600EFF01260309005BDEFF01260369005BECD
:10008600EFF0125FDC9005BFEFF0125FE29005C063
:10009600EFF0125FE2900593EFF01260189005C141
:1000A600EFF0125FF49005C2EFF0125FFA9005C30D
:1000B600EFF0122B0F126096EF64016003020DEB56
:1000C6009005BCE024CE24FC4003020B0D24FC402A
:1000D60003020BBC24FC4003020C5D24FC4003021B
:1000E6000CFE24E47003020DAE14700302043524E2
:1000F6005F6003020DE8E4FF126078900690E0FF6F
:1001060054F0600302023790068EE0FEC4540FFDE1
:100116009005C1E0FC6D6008EC640A6003020237DA
:100126009005BDE0B4010CEF540F2474F582E4345D
:1001360005800D900690E0540F2474F582E4340493
:10014600F583E0900594F090068EE0FF900595ED1E
:10015600F0EF540FA3F090068FE0FFC4540F900504
:1001660097F0EF540FA3F0A3EEF090068FE0900502
:100176009AF0900690E090059BF0900594E0FF645D
:10018600336042EF603FE4900591F09005C3E0FFD5
:10019600900591E0C39F505C7B017A0579949005A8
:1001A60094E0FD9005D4E4F0A3EDF0900690E054C1
:1001B6000F9005D6F09005C2E0FF12271690059124
:1001C600E004F080C69005C77401F0A37404F0A3A0
:1001D6007484F07B017A0579941232287B017A05C2
:1001E6007994900690E0540F9005C8F07F92123CE7
:1001F6007D0207461254527B017A05799490069047
:10020600E0540F9005C8F07F91123C7D9005C774AD
:1002160001F0A37405F0A37494F07B017A04798449
:100226001245F31237171249F07F5F125FD6020D9F
:10023600E8E4900590F0900590E0FFC39430400309
:10024600020DE8EF75F020A4FDACF07B017A05798C
:100256009C9005F57420F07FA0124BAE125EF6E47A
:1002660090058FF090058FE0FFC3942040030204B1
:100276002C749C2FF582E43405F583E060030204B8
:1002860023900590E075F020A4FF90058FE07C0098
:100296002FFFEC35F0FEEF7803C333CE33CED8F91B
:1002A6002400FDEE3407FC7B017A0579949005F570
:1002B6007408F07FA0124BAE125EF69005BDE064A6
:1002C60001602B90068EE0FF900599E0B5071F9020
:1002D600068FE0FF90059AE0B50713900690E0C4FC
:1002E600540FFF90059BE0FEC4540F6F60389005D5
:1002F600BDE06401600302042390068EE0FF9005D2
:1003060099E06F600302042390068FE0FF90059A40
:10031600E06F6003020423900690E0FF90059BE0E7
:100326006F6003020423900690E0FF90059BF09017
:100336000594E0C3943250279005BDE0B4010CEF5C
:10034600540F2474F582E43405800D900690E05431
:100356000F2474F582E43404F583E0900594F0905C
:100366000594E0FF64336042EF603FE4900591F04E
:100376009005C3E0FF900591E0C39F50617B017A31
:10038600057994900594E0FD9005D4E4F0A3EDF092
:10039600900690E0540F9005D6F09005C2E0FF124B
:1003A6002716900591E004F080C67B017A057994C2
:1003B600900690E0540F9005C8F07F92123C7D9015
:1003C60005C77401F0A37404F0A37484F07B017A6A
:1003D6000579941232281237171249F080481254C0
:1003E600527B017A057994900690E0540F9005C8E7
:1003F600F07F91123C7D9005C77401F0A37405F05F
:10040600A37494F07B017A0479841245F3123717AA
:100416001249F07F5F125FD612609C800990058FAB
:10042600E004F002026A900590E004F002023CE467
:10043600FF126078900690E0FF54F06003020757C1
:1004460090068EE0FEC4540FFD9005C1E0FC6D6081
:1004560008EC640A60030207579005BDE0B4010C7E
:10046600EF540F2474F582E43405800D900690E075
:10047600540F2474F582E43404F583E0900594F077
:1004860090068EE0FF900595EDF0EF540FA3F090E7
:10049600068FE0FFC4540F900597F0EF540FA3F0BA
:1004A600A3EEF090068FE090059AF0900690E0900B
:1004B600059BF09005BFE0640160030205D390053B
:1004C60094E0FF64336042EF603FE4900591F09062
:1004D60005C3E0FF900591E0C39F505C7B017A0560
:1004E6007994900594E0FD9005D4E4F0A3EDF090A6
:1004F6000690E0540F9005D6F09005C2E0FF122753
:1005060016900591E004F080C67B017A05799490F7
:100516000690E0540F9005C8F07F92123C7D90053E
:10052600C77401F0A37404F0A37484F07B017A0508
:1005360079941232280207467B017A05799490064F
:1005460090E0540F9005C8F07F91123C7D9005C74E
:100556007401F0A37404F0A37484F07B017A057926
:10056600941235839005C0E0900591F0900591E0D6
:10057600FFD39401401AEF75F006A42478F97404A9
:1005860035F0FA7B01124E84900591E014F080DC80
:10059600E4900591F0900591E0FFC3940650147421
:1005A600842FF582E43404F583E4F0900591E004A9
:1005B600F080E29005C77401F0A37405F0A374946B
:1005C600F07B017A0479841245F30207469005BF51
:1005D600E064026003020DE8900594E0FF64336076
:1005E60003EF702F7B017A057994900690E0540F03
:1005F6009005C8F07F92123C7D9005C77401F0A368
:100606007404F0A37484F07B017A0579941232287D
:10061600020746E4900592F09005C0E0FF9005922F
:10062600E0FEC39F40030206D6EE75F006A42485BD
:10063600F582E43404F583E0FF900595E0FEEF6E65
:1006460060030206CD900592E0FF75F006A42486AD
:10065600F582E43404F583E0FE900596E0FDEE6D48
:100666007065EF75F006A42487F582E43404F583FB
:10067600E0FF900597E0FEEF6E704C900592E075F6
:10068600F006A42488F582E43404F583E0FF90059F
:1006960098E0FEEFB50630900592E0A3F075F006FF
:1006A600A42484F9740435F0FA7B01C0039005C7CD
:1006B600EBF0A37405F0A37494F0D0031245F31283
:1006C60037171249F08009900592E004F002061EE1
:1006D6009005C0E0FF900593E06F6003020DE8907F
:1006E6000592F09005C0E0FF900592E0FEC39F40A2
:1006F60003020DE8EE75F006A42484F582E43404C2
:10070600F583E070447B017A057994900690E05475
:100716000F9005C8F07F91123C7D900592E075F030
:1007260006A42484F9740435F0FA7B01C00390050D
:10073600C7EBF0A37405F0A37494F0D0031245F34D
:100746001237171249F0020DE8900592E004F08086
:1007560092E4900590F0900590E0FFC3943040033A
:10076600020DE8EF75F020A4FDACF07B017A057967
:100776009C9005F57420F07FA0124BAE125EF6E455
:1007860090058FF090058FE0FFC394204003020B85
:1007960004749C2FF582E43405F583E06003020AB5
:1007A600FB900590E075F020A4FF90058FE07C009B
:1007B6002FFFEC35F0FEEF7803C333CE33CED8F9F6
:1007C6002400FDEE3407FC7B017A0579949005F54B
:1007D6007408F07FA0124BAE125EF69005BDE06481
:1007E60001602B90068EE0FF900599E0B5071F90FB
:1007F600068FE0FF90059AE0B50713900690E0C4D7
:10080600540FFF90059BE0FEC4540F6F60389005AF
:10081600BDE064016003020AFB90068EE0FF9005CE
:1008260099E06F6003020AFB90068FE0FF90059A3D
:10083600E06F6003020AFB900690E0FF90059BE0E4
:100846006F6003020AFB900690E0FF90059BF09014
:100856000594E0C3943250279005BDE0B4010CEF37
:10086600540F2474F582E43405800D900690E0540C
:100876000F2474F582E43404F583E0900594F09037
:1008860005BFE064016003020973900594E0FF640C
:1008960033700302098AEF700302098AE490059116
:1008A600F09005C3E0FF900591E0C39F502D7B01BA
:1008B6007A057994900594E0FD9005D4E4F0A3EDD3
:1008C600F0900690E0540F9005D6F09005C2E0FF38
:1008D600122716900591E004F080C67B017A05790F
:1008E60094900690E0540F9005C8F07F91123C7DDD
:1008F6009005C77401F0A37404F0A37484F07B011F
:100906007A0579941235839005C0E0900591F090B0
:100916000591E0FFD39401401AEF75F006A4247800
:10092600F9740435F0FA7B01124E84900591E014B7
:10093600F080DCE4900591F0900591E0FFC3940609
:10094600501474842FF582E43404F583E4F09005A2
:1009560091E004F080E29005C77401F0A37405F0FD
:10096600A37494F07B017A047984020AE39005BFAC
:10097600E064026003020AF6900594E0FF643360C7
:1009860003EF70357B017A057994900690E0540F59
:100996009005C8F07F92123C7D9005C77401F0A3C4
:1009A6007404F0A37484F07B017A057994123228DA
:1009B6001237171249F0020B04E4900592F09005E5
:1009C600C0E0FF900592E0FEC39F4003020A7CEE62
:1009D60075F006A42485F582E43404F583E0FF90DF
:1009E6000595E0FEEF6E6003020A73900592E0FF44
:1009F60075F006A42486F582E43404F583E0FE90BF
:100A06000596E0FDEE6D7065EF75F006A42487F59A
:100A160082E43404F583E0FF900597E0FEEF6E7004
:100A26004C900592E075F006A42488F582E434041F
:100A3600F583E0FF900598E0FEEFB506309005924D
:100A4600E0A3F075F006A42484F9740435F0FA7B6B
:100A560001C0039005C7EBF0A37405F0A37494F0EE
:100A6600D0031245F31237171249F0800990059208
:100A7600E004F00209C49005C0E0FF900593E06F22
:100A8600706E900592F09005C0E0FF900592E0FE32
:100A9600C39F505CEE75F006A42484F582E434040A
:100AA600F583E070437B017A057994900690E054D3
:100AB6000F9005C8F07F91123C7D900592E075F08D
:100AC60006A42484F9740435F0FA7B01C00390056A
:100AD600C7EBF0A37405F0A37494F0D0031245F3AA
:100AE6001237171249F08008900592E004F08096BC
:100AF60012609C800990058FE004F002078A900539
:100B060090E004F002075C7F35125FD6900690E015
:100B1600540F9006C1F0900600E09006C2F09006D1
:100B260001E09006C3F0900602E09006C4F090063D
:100B360003E09006C5F090068EE09006C6F090069B
:100B46008FE09006C7F09005BDE0900690B40103D3
:100B5600E08003E054F09006C8F07B017A0679C184
:100B66001233D94003020DE8125EF6900603E064E4
:100B760009703D900602E06409702F900601E0B40A
:100B86000922900600E004F0E4A3F0A3F09006002A
:100B9600E0B4150AE4F090060304F0020DE89006AE
:100BA60003020D89900601020D91900602020D9E28
:100BB600900603020DA97F39125FD6900690E0FEDB
:100BC600540F9006C1F0900608E09006C2F0900619
:100BD60009E09006C3F090060AE09006C4F090067D
:100BE6000BE09006C5F090068EE09006C6F09006E3
:100BF6008FE09006C7F0EE54F0A3F07B017A0679F9
:100C0600C112306B4003020DE8125EF690060BE04F
:100C16006409703D90060AE06409702F900609E0A9
:100C2600B40922900608E004F0E4A3F0A3F09006CD
:100C360008E0B4150AE4F090060B04F0020DE89003
:100C4600060B020D89900609020D9190060A020D07
:100C56009E90060B020DA97F3D125FD69006C174C9
:100C660034F0900611E09006C2F0900612E090066D
:100C7600C3F0900613E09006C4F0900614E09006C8
:100C8600C5F090068EE09006C6F090068FE09006BE
:100C9600C7F0900690E054F09006C8F07B017A0603
:100CA60079C1122CD94003020DE8125EF6900614A3
:100CB600E06409703D900613E06409702F900612F7
:100CC600E0B40922900611E004F0E4A3F0A3F0904A
:100CD6000611E0B4150AE4F090061404F0020DE8DB
:100CE600900614020D89900612020D9190061302C9
:100CF6000D9E900614020DA97F41125FD69006C183
:100D06007433F090061BE09006C2F090061CE0904B
:100D160006C3F090061DE09006C4F090061EE09013
:100D260006C5F090068EE09006C6F090068FE0901D
:100D360006C7F0900690E054F09006C8F07B017A62
:100D46000679C1122EA24003020DE8125EF6900645
:100D56001EE06409704A90061DE06409703790062B
:100D66001CE0B4092390061BE004F0E4A3F0A3F012
:100D760090061BE0B41509E4F090061E04F08062AC
:100D860090061E7401F0805A90061CE004F0E4A35D
:100D9600F0A3F0804D90061DE004F0E4A3F080423D
:100DA60090061EE004F0803AE4FF1260429006C905
:100DB6007401F09005BDE0B40112A3E0FF90069027
:100DC600E0540F2474F582E4340580129005BEE0E9
:100DD600FF900690E0540F2474F582E43404F58302
:0B0DE600EFF012609C1242BB02387755
:0560BA009006C9E0FFA3
:0160BF0022BE
:0660C0009006C9EFF0227A
:105BFB00FFFFFFFFFFFFFFFFFFFFFFFFFFFFFFFFAA
:105C0B00FFFFFFFFFFFFFFFFFFFFFFFFFFFFFFFF99
:1021FF006020063200000000000000000000000018
:10220F0000000000000000000000000000000000BF
:0F221F0000000000480652000000000000000010
:03611B00DFFE2282
:105DC000AE07AF061EEF600C7FF512611B7FF51268
:055DD000611B80EE22C2
:105DAA00D2B400D2B50000000000C2B40000000066
:065DBA0000C2B50000224A
:105EB300C2B400D2B50000000000D2B4000000005C
:015EC30022BC
:1051FB00E4FEEFA806088002C333D8FC30E704D2E4
:10520B00B48002C2B400D2B50000000000C2B50EDB
:10521B00EEB408DE0000D2B40000D2B500000030BE
:0C522B00B404C20A8002D20AC2B500001E
:015237002254
:1058AF00E4FFD2B4FE00C2B50000000000D2B50084
:1058BF0000EF25E0FF30B4010F00000EEEB408E555
:0458CF00C2B500005E
:0158D30022B2
:105EC400C2B4000000D2B50000000000C2B500005A
:015ED40022AB
:105ED500D2B4000000D2B50000000000C2B5000039
:015EE500229A
:104D0400900593E075F020A42400FDE5F03406FC42
:0E4D14007A0679327B0174209005CFF07FA0E3
:104D2200125DAA1251FB200A02C322ECFF1251FBB0
:104D3200200A02C322AF051251FB200A02C322E459
:104D4200FD9005CFE0FFEDC39F50161225D3FF1251
:104D520051FB200A02C322740129F9E43AFA0D80B8
:054D6200E0125EB3D376
:014D67002229
:104B9800EF75F020A4FDACF07A06793274207B0121
:064BA8009005F5F07FA06E
:054BAE009005EFEFF09F
:104BB300125DAAE0FF1251FB200A02C322ECFF128E
:104BC30051FB200A02C322AF051251FB200A02C384
:104BD30022125DAA9005EFE004FF1251FB200A02A6
:104BE300C322E4FD9005F5E014FFEDC39F501412BA
:104BF30058AFEF122619125EC4740129F9E43AFA88
:104C03000D80E11258AFEF122619125ED5125EB372
:014C1300D3CD
:014C1400227D
:0B33D9009005C4EBF0A3EAF0A3E9F0BC
:1033E400E4A3F0A3F09005C7F09005C7E0FFC394F1
:1033F4003840030234CD124B98125EF6E49005C8AF
:10340400F09005C8E0FFC3942040030234C4743232
:103414002FF582E43406F583E060030234BB9005A3
:10342400C7E075F020A4FFA3E07C002FFFEC35F08B
:10343400FEEF7803C333CE33CED8F92400FDEE3447
:1034440007FC7A0679527408124BA6125EF69005B0
:10345400C4E0FBA3E0FAA3E0F99000051225ECFF19
:10346400900657E06F70509000061225ECFF90060E
:1034740058E06F70429000071225ECFF900659E067
:103484006F7034900653E0900600F0900654E0907C
:103494000601F0900655E0900602F0900656E09082
:1034A4000603F012603CBF010C7F7A7E0012534881
:1034B400E4FF126042C3229005C8E004F002340520
:1034C4009005C7E004F00233EDE49005C7F09005E1
:1034D400C7E0FFC394204003023581124B98125E6B
:1034E400F6E49005C8F09005C8E0FFC394204003BB
:1034F40002357874322FF582E43406F583E0606B8C
:103504009005C7E075F020A4FFA3E07C002FFFEC3A
:1035140035F0FEEF7803C333CE33CED8F92400FD63
:10352400EE3407FC9005C4E0FBA3E0FAA3E0F974D1
:1035340008124D1C125EF69005C8E02432F582E4B0
:103544003406F583E4F09005C7E075F020A4FDACE3
:10355400F0124D14125EF612603CBF010C7F797EAE
:1035640000125348E4FF126042D3229005C8E004DD
:0E357400F00234EA9005C7E004F00234D2C33E
:013582002226
:0B306B009005C4EBF0A3EAF0A3E9F02D
:10307600E4A3F0A3F09005C7F09005C7E0FFC39462
:10308600384003023167124B98125EF6E49005C889
:10309600F09005C8E0FFC39420400302315E74320D
:1030A6002FF582E43406F583E0600302315590057E
:1030B600C7E075F020A4FFA3E07C002FFFEC35F0FD
:1030C600FEEF7803C333CE33CED8F92400FDEE34B9
:1030D60007FC7B017A0679529005F57408F07FA00B
:1030E600124BAE125EF69005C4E0FBA3E0FAA3E035
:1030F600F99000051225ECFF900657E06F7050908E
:1031060000061225ECFF900658E06F70429000070B
:103116001225ECFF900659E06F7034900653E0904C
:103126000608F0900654E0900609F0900655E090E7
:10313600060AF0900656E090060BF012603CBF01BE
:103146000C7F7A7E00125348E4FF126042C322903D
:1031560005C8E004F00230979005C7E004F002309D
:103166007FE49005C7F09005C7E0FFC394084003CD
:10317600023226EF75F020A42400FDE5F03406FCAB
:10318600124BA0125EF6E49005C8F09005C8E0FF69
:10319600C39420400302321D74322FF582E43406B4
:1031A600F583E060699005C7E075F020A4FFA3E011
:1031B6007C002FFFEC35F0FEEF7803C333CE33CE21
:1031C600D8F92400FDEE3437FC9005C4E0FBA3E0FB
:1031D600FAA3E0F99005CF7408F07FA0124D2212F1
:1031E6005EF69005C8E02432F582E43406F583E401
:1031F600F09005C7124D07125EF612603CBF010C37
:103206007F797E00125348E4FF126042D322900574
:10321600C8E004F00231919005C7E004F002316C79
:01322600C3E4
:013227002284
:0B2CD9009005C4EBF0A3EAF0A3E9F0C3
:102CE400E4A3F0A3F09005C7F09005C7E0FFC394F8
:102CF400384003022DD5124B98125EF6E49005C8B5
:102D0400F09005C8E0FFC394204003022DCC743238
:102D14002FF582E43406F583E06003022DC39005A9
:102D2400C7E075F020A4FFA3E07C002FFFEC35F092
:102D3400FEEF7803C333CE33CED8F92400FDEE344E
:102D440007FC7B017A0679529005F57408F07FA0A0
:102D5400124BAE125EF69005C4E0FBA3E0FAA3E0CA
:102D6400F99000051225ECFF900657E06F70509023
:102D740000061225ECFF900658E06F7042900007A1
:102D84001225ECFF900659E06F7034900653E090E2
:102D94000611F0900654E0900612F0900655E0906B
:102DA4000613F0900656E0900614F012603CBF0142
:102DB4000C7F7A7E00125348E4FF126042C32290D3
:102DC40005C8E004F0022D059005C7E004F0022CCC
:102DD400EDE49005C7F09005C7E0FFC394084003F5
:102DE400022EA0EF75F020A42400FDE5F03404FCCD
:102DF400124BA0125EF6E49005C8F09005C8E0FFFF
:102E0400C394204003022E9774322FF582E43406D3
:102E1400F583E060759005C7E075F020A4FFA3E09A
:102E24007C002FFFEC35F0FEEF7803C333CE33CEB6
:102E3400D8F92400FDEE3427FC9005C4E0FBA3E0A0
:102E4400FAA3E0F99005CF7408F07FA0124D221286
:102E54005EF69005C8E02432F582E43406F583E496
:102E6400F09005C7E075F020A42400FDE5F03404DB
:102E7400124D13125EF612603CBF010C7F797E0086
:102E8400125348E4FF126042D3229005C8E004F0D4
:0D2E9400022DFF9005C7E004F0022DDAC307
:012EA100220E
:0B2EA2009005C4EBF0A3EAF0A3E9F0F8
:102EAD00E4A3F0A3F09005C7F09005C7E0FFC3942D
:102EBD00384003022F9E124B98125EF6E49005C81F
:102ECD00F09005C8E0FFC394204003022F957432A3
:102EDD002FF582E43406F583E06003022F8C900514
:102EED00C7E075F020A4FFA3E07C002FFFEC35F0C8
:102EFD00FEEF7803C333CE33CED8F92400FDEE3484
:102F0D0007FC7B017A0679529005F57408F07FA0D5
:102F1D00124BAE125EF69005C4E0FBA3E0FAA3E0FF
:102F2D00F99000051225ECFF900657E06F70509058
:102F3D0000061225ECFF900658E06F7042900007D6
:102F4D001225ECFF900659E06F7034900653E09017
:102F5D00061BF0900654E090061CF0900655E0908C
:102F6D00061DF0900656E090061EF012603CBF0163
:102F7D000C7F7A7E00125348E4FF126042C3229008
:102F8D0005C8E004F0022ECE9005C7E004F0022E35
:102F9D00B6E49005C7F09005C7E0FFC39408400361
:102FAD00023069EF75F020A42400FDE5F03405FC36
:102FBD00124BA0125EF6E49005C8F09005C8E0FF34
:102FCD00C39420400302306074322FF582E434063E
:102FDD00F583E060759005C7E075F020A4FFA3E0D0
:102FED007C002FFFEC35F0FEEF7803C333CE33CEEC
:102FFD00D8F92400FDEE342FFC9005C4E0FBA3E0CE
:10300D00FAA3E0F99005CF7408F07FA0124D2212BB
:10301D005EF69005C8E02432F582E43406F583E4CB
:10302D00F09005C7E075F020A42400FDE5F034050F
:10303D00124D13125EF612603CBF010C7F797E00BB
:10304D00125348E4FF126042D3229005C8E004F009
:0D305D00022FC89005C7E004F0022FA3C3A6
:01306A002243
:0B3F0D00900590EBF0A3EAF0A3E9F0B0
:103F1800E4A3F0A3F0900593F0900593E0FFC39419
:103F280020400302404B124B98125EF6E490059431
:103F3800F0900594E0FFC3942040030240319005BF
:103F480090E0FBA3E0FAA3E0F91225D370289000D3
:103F5800011225EC70209000021225EC70189000D8
:103F6800031225EC701074322FF582E43406F583C1
:103F780074FFF0024028900594E0FD2432F582E4B5
:103F88003406F583E06003024028900593E075F05D
:103F980020A47C002DFFEC35F0FEEF7803C333CE70
:103FA80033CED8F92400FDEE3407FC7B017A06797C
:103FB800529005F57408F07FA0124BAE125EF69091
:103FC8000590E0FBA3E0FAA3E0F91225D3FF9006E1
:103FD80053E06F704B9000011225ECFF900654E0FF
:103FE8006F703D9000021225ECFF900655E06F704F
:103FF8002F9000031225ECFF900656E0B50721909C
:104008000594E02432F582E43406F58374FFF090D9
:104018000593E075F020A4FDACF0124D14125EF685
:10402800900594E004F0023F39900593E075F02084
:10403800A4FDACF0124D14125EF6900593E004F066
:04404800023F21D33F
:01404C002251
:0B418400900590EBF0A3EAF0A3E9F037
:10418F00E4A3F0A3F0900593F0900593E0FFC394A0
:10419F000840030242B9EF75F020A42400FDE5F0BA
:1041AF003406FC124BA0125EF6E4900594F09005D5
:1041BF0094E0FFC3942040030242AA900590E0FBD5
:1041CF00A3E0FAA3E0F91225D3702890000112257D
:1041DF00EC70209000021225EC701890000312254D
:1041EF00EC701074322FF582E43406F58374FFF00F
:1041FF000242A1900594E0FD2432F582E43406F5E5
:10420F0083E060030242A1900593E075F020A47C47
:10421F00002DFFEC35F0FEEF7803C333CE33CED84D
:10422F00F92400FDEE3437FC7B017A0679529005B4
:10423F00F57408F07FA0124BAE125EF6900590E079
:10424F00FBA3E0FAA3E0F91225D3FF900653E06F2A
:10425F0070409000011225ECFF900654E06F703211
:10426F009000021225ECFF900655E06F702490002D
:10427F00031225ECFF900656E06F7016900594E040
:10428F002432F582E43406F58374FFF0124D0412E4
:10429F005EF6900594E004F00241BD124D04125EEB
:0B42AF00F6900593E004F0024198D364
:0142BA0022E1
:0B39D300900590EBF0A3EAF0A3E9F0F0
:1039DE00E4A3F0A3F0900593F0900593E0FFC39459
:1039EE00084003023B26EF75F020A42400FDE5F00D
:1039FE003404FC124BA0125EF6E4900594F0900590
:103A0E0094E0FFC394204003023B08900590E0FB36
:103A1E00A3E0FAA3E0F91225D37028900001122535
:103A2E00EC70209000021225EC7018900003122505
:103A3E00EC701074322FF582E43406F58374FFF0C7
:103A4E00023AFF900594E0FD2432F582E43406F547
:103A5E0083E06003023AFF900593E075F020A47CAA
:103A6E00002DFFEC35F0FEEF7803C333CE33CED806
:103A7E00F92400FDEE3427FC7B017A06795290057D
:103A8E00F57408F07FA0124BAE125EF6900590E032
:103A9E00FBA3E0FAA3E0F91225D3FF900653E06FE3
:103AAE00704F9000011225ECFF900654E06F7041AC
:103ABE009000021225ECFF900655E06F70339000D7
:103ACE00031225ECFF900656E06F7025900594E0EA
:103ADE002432F582E43406F58374FFF0900593E00A
:103AEE0075F020A42400FDE5F03404124D13125E8F
:103AFE00F6900594E004F0023A0C900593E075F010
:103B0E0020A42400FDE5F03404124D13125EF6904D
:093B1E000593E004F00239E7D33D
:013B2700227B
:0B3B2800900590EBF0A3EAF0A3E9F099
:103B3300E4A3F0A3F0900593F0900593E0FFC39402
:103B4300084003023C7BEF75F020A42400FDE5F060
:103B53003405FC124BA0125EF6E4900594F0900538
:103B630094E0FFC394204003023C5D900590E0FB8A
:103B7300A3E0FAA3E0F91225D370289000011225DF
:103B8300EC70209000021225EC70189000031225AF
:103B9300EC701074322FF582E43406F58374FFF071
:103BA300023C54900594E0FD2432F582E43406F59A
:103BB30083E06003023C54900593E075F020A47CFD
:103BC300002DFFEC35F0FEEF7803C333CE33CED8B0
:103BD300F92400FDEE342FFC7B017A06795290051F
:103BE300F57408F07FA0124BAE125EF6900590E0DC
:103BF300FBA3E0FAA3E0F91225D3FF900653E06F8D
:103C0300704F9000011225ECFF900654E06F704155
:103C13009000021225ECFF900655E06F7033900080
:103C2300031225ECFF900656E06F7025900594E093
:103C33002432F582E43406F58374FFF0900593E0B3
:103C430075F020A42400FDE5F03405124D13125E37
:103C5300F6900594E004F0023B61900593E075F063
:103C630020A42400FDE5F03405124D13125EF690F6
:093C73000593E004F0023B3CD390
:013C7C002225
:104F1D0078917C057D017BFF7A5B79FB7E007F209C
:104F2D001225ADE49005B1F0A3F09005B1E0FEA31C
:104F3D00E0FFC39438EE94005027EF7805C333CECD
:104F4D0033CED8F9FDAC067A057991124D18125E63
:104F5D00F69005B2E004F070D19005B1E004F08058
:014F6D00C97A
:014F6E002220
:105D37007F7E125F3F7F03125F3F7F33125F3F7F9C
:095D470004125F3F7FEF025F3F91
:065342002401FFE433FE2C
:105348009005E4EEF0A3EFF07F7E125F3F7F04123A
:105358005F3F7F41125F3F9005E4E0FF125F3F909F
:0D53680005E4A3E0FF125F3F7FEF025F3F0F
:105BBA00900591EFF07F7E125F3F7F03125F3F7F78
:105BCA0031125F3F900591E0FF125F3F7FEF025F66
:015BDA003F8B
:105DE9007F7E125F3F7F02125F3F7F0E125F3F7F10
:045DF900EF025F3F17
:105DFD007F7E125F3F7F02125F3F7F01125F3F7F09
:045E0D00EF025F3F02
:0F3DC6009005D7A3E0FFA3E0FBA3E0FAA3E0F989
:053DD5009005E0EFF095
:103DDA00A3EBF0A3EAF0A3E9F0EFD39403400302C4
:103DEA003EE19005E0E094015017A3E0FBA3E0FA5E
:103DFA00A3E0F99000021225EC2401FFE433FE80CF
:103E0A00219005E1E0FBA3E0FAA3E0F99000021299
:103E1A0025EC60111253427F1D7E001253487F1E0B
:103E2A007E001253489005E0E0D394015013A3E0BA
:103E3A00FBA3E0FAA3E0F99000031225EC24018029
:103E4A004E9005E1E0FBA3E0FAA3E0F9900003122B
:103E5A0025EC6042640170249000041225EC700481
:103E6A007F0B802E9005E1E0FBA3E0FAA3E0F99036
:103E7A0000041225EC240BFFE43380169005E1E0E0
:103E8A00FBA3E0FAA3E0F99000031225EC2413FF48
:103E9A00E433FE1253489005E0E0D394015011A395
:103EAA00E0FBA3E0FAA3E0F99000041225EC801FDE
:103EBA009005E1E0FBA3E0FAA3E0F99000041225E3
:103ECA00ECFF603E9000031225EC64016034EF249D
:103EDA0001FFE433FE80289005E0E024FB60101423
:103EEA006013146016240370197F3E7E0080107FD1
:103EFA003C7E00800A7F3D7E0080047F687E00123F
:023F0A0053481A
:013F0C002292
:0E2716009005D0EFF0A3EBF0A3EAF0A3E9F0FA
