:03000000024D2C82
:0C4D2C00787FE4F6D8FD758121024D73FC
:104A94005573617274496E697420436F6D706C65EF
:104AA400746521200D0A00746D313632395F696EE8
:104AB400697420436F6D706C65746521200D0A0064
:104AC400496E69745F54696D65723020436F6D700F
:104AD4006C65746521200D0A00496E69745F546920
:104AE4006D65723120436F6D706C65746521200DA6
:104AF4000A006578696E74305F696E697420436F6B
:104B04006D706C65746521200D0A00447331333077
:104B1400325F496E697420436F6D706C65746521F2
:104B2400200D0A004744353830305F696E69746976
:104B3400616C697A6174696F6E20436F6D706C6526
:074B4400746521200D0A0039
:104F2400125A297BFF7A4A79941250AD1251FC7BB4
:104F3400FF7A4A79AB1250AD125DD77BFF7A4A797A
:104F4400C41250AD125DF57BFF7A4A79DD1250AD83
:104F5400125EBD7BFF7A4A79F61250AD125E287B51
:104F6400FF7A4B790F1250AD125C3C125DE77BFF68
:104F74007A4B79281250AD75B10CE4F5B27F82FEFC
:0B4F8400125479120E0412004680F84F
:03002300025BE598
:065BE500C0E0C083C08295
:105BEB00900495E4F0309802C298309904C299C29F
:015BFB0009A0
:075BFC00D082D083D0E0321B
:03004300025C6DEF
:105C6D00C0E0E59A30E003539AFEE59A30E1055322
:075C7D009AFDC209D0E032DC
:095E33002009FDEFD209F59922C6
:10540D00900467EBF0A3EAF0A3E9F0900467E0FBEA
:10541D00A3E0FAA3E0F9122ADA6017900467A3E477
:10542D0075F001122B66A9F0FA122ADAFF125E331B
:03543D0080D922F1
:095E3C002009FDEFD209F59B22BB
:105440009006BEEBF0A3EAF0A3E9F09006BEE0FB05
:10545000A3E0FAA3E0F9122ADA60179006BEA3E4EB
:1054600075F001122B66A9F0FA122ADAFF125E3CDF
:0354700080D922BE
:105A2900E5A2543FF5A253BAFE759850759A507580
:105A3900D7C875D6FE758E14438E01D2AC75AF01E9
:035A4900D2AF22B7
:0B50AD00900039EBF0A3EAF0A3E9F05B
:1050B8009000647401F0A37400F0A3743CF09000B5
:1050C80039E0F9A3E0FAA3E0900467C9F0A3EAF095
:1050D800A3E9F0900064E0F9A3E0FAA3E090046A81
:1050E800C9F0A3EAF0A3E9F07B017A0079671252CC
:0A50F8009E7B017A00796702540DD7
:101B83006B65795F76616C206973202578202E0D53
:101B93000A000000000000FF5CC601020E0F00FFF8
:101BA30000060203011500FF001E0304021900FFD3
:101BB3005F8A0405031D00FF5F8F0506041F00FFF6
:101BC3005F940607052000FF5F990708062100FFC1
:101BD3005F9E0809072600FF5FA3090A082A00FF82
:101BE3005FA80A0B092C00FF5FAD0B0C0A2E00FF48
:101BF3005FB20C0D0B2F00FF5FB70D0E0C3000FF13
:101C03005FBC0E010D3100FF5FC10F0F0F1001FF0D
:101C130054D61010101101FF55B01111111201FF0C
:101C230055D81212121301FF59E11313131401FFB4
:101C33005A051414140F01FF56001516183502FF28
:101C43005D141617153902FF5D261718163D02FF9E
:101C53005D381815174102FF5D4A191A1C4503FF29
:101C63005D5C1A1B194903FF5D6E1B1C1A4D03FFB4
:101C73005D801C191B5103FF5D921D1E1E5204FF44
:101C83005FC61E1D1D5304FF5FCB1F1F1F1F05FFD4
:101C93005E452020202006FF5E4D2122255407FFAC
:101CA3005FD02223215507FF5FD52324225607FF48
:101CB3005FDA2425235707FF5FDF2521245807FF19
:101CC3005FE42627295908FF5FE92728265A08FFDA
:101CD3005FEE2829275B08FF5FF32926285C08FFAE
:101CE3005FF82A2B2B5D09FF5FFD2B2A2A5E09FF74
:101CF30060022C2D2D000AFF60072D2C2C000AFFFB
:101D0300600C2E2E2E000BFF60112F2F2F000CFFC7
:101D13006016303030000DFF5E55313131000EFF5B
:101D2300601B3232323515FF5B413333333215FFDB
:101D330000263434343315FF5B633535353415FFF2
:101D43005B853636363916FF56283737373616FF52
:101D53005A4C3838383716FF56503939393816FF48
:101D630056783A3A3A3D17FF56A03B3B3B3A17FFAA
:101D73005A6F3C3C3C3B17FF56C83D3D3D3C17FF6B
:101D830056F03E3E3E4118FF57183F3F3F3E18FF77
:101D93005A924040403F18FF57404141414018FF8D
:101DA30057684242424519FF57904343434219FF44
:101DB3005AB54444444319FF57B84545454419FFB0
:101DC30057E0464646491AFF5808474747461AFF11
:101DD3005AD8484848471AFF5830494949481AFFD2
:101DE30058584A4A4A4D1BFF58804B4B4B4A1BFFDE
:101DF3005AFB4C4C4C4B1BFF58A84D4D4D4C1BFFF5
:101E030058D04E4E4E511CFF58F84F4F4F4E1CFFAB
:101E13005B1E5050504F1CFF5920515151501CFF15
:101E23005948525252521DFF5E5D535353531EFF86
:101E33005E655454545421FF5E6D5555555522FF2C
:101E43005E755656565623FF5E7D5757575724FFE8
:101E53005C035858585825FF5E855959595926FF30
:101E63005E8D5A5A5A5A27FF5E955B5B5B5B28FF70
:101E73005E9D5C5C5C5C29FF5EA55D5D5D5D2AFF2C
:101E83005EAD5E5E5E5E2BFF53D85F5F5F5F5FFF9D
:101E93005F3C0000000000000000000000000000A4
:101EA300000000000000000000000000000000002F
:021EB30000002D
:10218C004105FA004105FB004405FF000000014435
:10219C000607000000014406100000000144061A66
:1021AC00000000014406030000000144060C00007E
:1021BC0000014406160000000144061F0000000147
:1021CC0041060B014106150C4106140041061E0088
:1021DC0041062300410625014106280041062B003B
:1021EC0041062D00410624004106270041062A0025
:1021FC0041062C0041062602410629004105F80142
:08220C0041062E014105F90114
:104BFE00E4900003F0A3F043907C53A007E590549B
:104C0E007C641F7003024C98125DE7E590547C643F
:104C1E007C6077125F6C43907C43A0F853A07FE5D5
:104C2E0090547C647C60639005FA7401F0E59054B6
:104C3E007CFF900003E4F0A3EFF0E0F8E4F0E890DE
:104C4E000003F0E5A054F8FFA3E02FF0900003E07E
:104C5E003400F0E0B4780DA3E0B47808125F5A7F08
:104C6E0001125F4EE590547CFFBF7CF8125DE7E5C4
:104C7E0090547CFFBF7CF8E4FF125F4EE4FF125F9E
:0E4C8E0066900003E0FEA3E0FF227E0F7FFF92
:014C9C0022F5
:104FF300E4900001F0A3F0124BFE900001EEF0A349
:10500300EFF0F47003EE640F60187BFF7A1B798373
:10501300900001E0FFA3E090003CCFF0A3EFF0127B
:1050230050AD900001E0FEA3E08EF0122BA250459C
:105033005C7850486C78504B7478504E7878000008
:1050430050517F03227F02227F01227F00227FFFB4
:01505300223A
:100E0400E4FF900000F0124FF3EF147003020F623E
:100E14001470030213DC147003020F4224036003F2
:100E24000217F39005FBE0FF6003B45F18125F54F0
:100E3400900000EFF0C3941450030217F39005FBE5
:100E44007401020F3B9005FBE0FF6442600FEF6406
:100E540043600AEF64446005EF64457019125F54FF
:100E6400900000EFF0C3940A403C7B017A067903BA
:100E74001237B3020F0C9005FBE0FF6446600FEFDE
:100E84006447600AEF64486005EF6449701A125FB2
:100E940054900000EFF0C3940A400B7B017A06796A
:100EA4000C123976806280659005FBE0FF644A602D
:100EB4000FEF644B600AEF644C6005EF644D701AE9
:100EC400125F54900000EFF0C3940A400B7B017A48
:100ED4000679161233FB803080339005FBE0FF6403
:100EE4004E600FEF644F600AEF64506005EF645189
:100EF400702E125F54900000EFF0C3940A400E7BF2
:100F0400017A06791F1235D7125DE7802B9005FB15
:100F1400E075F008A42498F582E5F0341B0217EB81
:100F24009005FBE075F008A42498F582E5F0341BE5
:100F3400F583E4939005FBF0125F5A0217F39005D2
:100F4400FBE0B45F06124E350217F39005FBE07523
:100F5400F008A42499F582E5F0341B0217EB900500
:100F6400FBE0122B7C10120F1024101034111044CB
:100F74001210541310661412D71F12E92013B7303D
:100F8400107832108A33109C3410AE3510C03610ED
:100F9400D23710E43810F63911083A111A3B112CE3
:100FA4003C113E3D11503E11623F11744011864187
:100FB40011984211AA4311BC4411CE4511E04611C7
:100FC400F24712044812164912284A123A4B124C9C
:100FD4004C125E4D12704E12824F12945012A65152
:100FE40012B75212C75312FB54130D55131D561347
:100FF400305713415813515913615A13715B1381BC
:101004005C13915D139F5E13B25F000013C99006D9
:101014009EE0B46305E4F00213C990069E0213AD8A
:1010240090069FE0B40C030212CE90069F0213AD0B
:101034009006A0E0B41F030212CE9006A00213ADE6
:101044009006A4E0B407030212CE9006A40213ADE6
:101054009006A1E0B41705E4F00213C99006A102BA
:1010640013AD9006A2E0B43B05E4F00213C9900668
:10107400A20213AD9005FFE0B41405E4F00213C915
:101084009005FF0213AD900600E0B40905E4F002F8
:1010940013C99006000213AD900601E0B40905E4FB
:1010A400F00213C99006010213AD900602E0B409E0
:1010B40005E4F00213C99006020213AD900607E09E
:1010C400B41405E4F00213C99006070213AD9006A8
:1010D40008E0B40905E4F00213C99006080213AD50
:1010E400900609E0B40905E4F00213C99006090268
:1010F40013AD90060AE0B40905E4F00213C99006A2
:101104000A0213AD900610E0B41405E4F00213C90A
:101114009006100213AD900611E0B40905E4F00244
:1011240013C99006110213AD900612E0B40905E448
:10113400F00213C99006120213AD900613E0B4092D
:1011440005E4F00213C99006130213AD90061AE0E9
:10115400B41405E4F00213C990061A0213AD900604
:101164001BE0B40905E4F00213C990061B0213AD99
:1011740090061CE0B40905E4F00213C990061C02B1
:1011840013AD90061DE0B40905E4F00213C99006FE
:101194001D0213AD900603E0B41405E4F00213C974
:1011A4009006030213AD900604E0B40905E4F002CE
:1011B40013C99006040213AD900605E0B40905E4D2
:1011C400F00213C99006050213AD900606E0B409B7
:1011D40005E4F00213C99006060213AD90060CE074
:1011E400B41405E4F00213C990060C0213AD900682
:1011F4000DE0B40905E4F00213C990060D0213AD25
:1012040090060EE0B40905E4F00213C990060E023C
:1012140013AD90060FE0B40905E4F00213C990067B
:101224000F0213AD900616E0B41405E4F00213C9DE
:101234009006160213AD900617E0B40905E4F00217
:1012440013C99006170213AD900618E0B40905E41B
:10125400F00213C99006180213AD900619E0B40900
:1012640005E4F00213C99006190213AD90061FE0BD
:10127400B41405E4F00213C990061F0213AD9006DE
:1012840020E0B40905E4F00213C99006200213AD6E
:10129400900621E0B40905E4F00213C99006210286
:1012A40013AD900622E0B40904E4F080069006220F
:1012B400E004F090060BE0B401030213BE90060BA9
:1012C4000213C6900615E0B414030213C690061563
:1012D4000213AD900614E0B46305E4F00213C99060
:1012E40006140213AD90061EE0B46305E4F0021385
:1012F400C990061E0213AD900623E0B40505E4F080
:101304000213C99006230213AD900625E0B4090325
:101314000213C69006250213AD900628E07005045A
:10132400F00213C9E4900628F00213C990062BE0DA
:10133400B40905E4F00213C990062B806C90062DC5
:10134400E0B40704E4F0807D90062D805C900624D0
:10135400E0B40B04E4F0806D900624804C900627E2
:10136400E0B40B04E4F0805D900627803C90062AEC
:10137400E0B40B04E4F0804D90062A802C90062CF7
:10138400E0B40B04E4F0803D90062C801C9006260B
:10139400E0B4010280249006268027900629E0B458
:1013A4002B04E4F0801F900629E004F08017124714
:1013B4006D801290062EE0B401057402F080069050
:1013C400062E7401F09005FBE075F008A42496F550
:1013D40082E5F0341B0217EB9005FBE0122B7C1422
:1013E4008C0F149B1014AE1114C11214D11314E3F6
:1013F4001416F71F17052017C93014F532150433D6
:10140400151334152235153136154037154F381557
:101414005E39156D3A157C3B158B3C159A3D15A923
:101424003E15B83F15C74015D64115E54215F4439E
:10143400160344161245162146163047163F481621
:101444004E49165D4A166C4B167B4C168A4D1699FE
:101454004E16A74F16B65016C55116D45216E4535D
:10146400171754172955173856174B57175C581721
:101474006C5917795A17865B17935C17A35D17B1DC
:101484005E17C45F000017DB90069EE0700302172E
:101494000B90069E0217BF90069FE0B40106740CE1
:1014A400F00217DB90069F0217BF9006A0E0B4017C
:1014B40006741FF00217DB9006A00217BF9006A463
:1014C400E0B401030217629006A40217BF9006A1BC
:1014D400E070067417F00217DB9006A10217BF90A4
:1014E40006A2E07006743BF00217DB9006A2021716
:1014F400BF9005FFE070030216EB9005FF0217BFD3
:10150400900600E070030217519006000217BF9086
:101514000601E070030217519006010217BF9006FE
:1015240002E070030217519006020217BF900607EB
:10153400E070030216EB9006070217BF900608E05E
:1015440070030217519006080217BF900609E07055
:10155400030217519006090217BF90060AE07003B0
:1015640002175190060A0217BF900610E07003029A
:1015740016EB9006100217BF900611E070030217D5
:10158400519006110217BF900612E0700302175122
:101594009006120217BF900613E0700302175190D1
:1015A40006130217BF90061AE070030216EB9006AA
:1015B4001A0217BF90061BE0700302175190061B16
:1015C4000217BF90061CE0700302175190061C021C
:1015D40017BF90061DE0700302175190061D0217F5
:1015E400BF900603E070030216EB9006030217BFD8
:1015F400900604E070030217519006040217BF908E
:101604000605E070030217519006050217BF900605
:1016140006E070030217519006060217BF90060CED
:10162400E070030216EB90060C0217BF90060DE063
:10163400700302175190060D0217BF90060EE0705A
:101644000302175190060E0217BF90060FE07003B5
:1016540002175190060F0217BF900616E07003029E
:1016640016EB9006160217BF900617E070030217D8
:10167400519006170217BF900618E0700302175125
:101684009006180217BF900619E0700302175190D4
:1016940006190217BF90061FE07002804A90061FC9
:1016A4000217BF900620E070030217519006200233
:1016B40017BF900621E0700302175190062102170C
:1016C400BF900622E070030217519006220217BF52
:1016D40090060BE0B401030217D090060B0217D852
:1016E400900615E0B401067414F00217DB90061599
:1016F4000217BF900614E07002800C9006140217C3
:10170400BF90061EE070067463F00217DB90061E9D
:101714000217BF900623E070067405F00217DB90F1
:1017240006230217BF900625E0B40102801F90062D
:10173400250217BF900628E0700504F00217DBE4C9
:10174400900628F00217DB90062BE070067409F06F
:101754000217DB90062B806390062DE0700574075A
:10176400F0807490062D8053900624E0700280254A
:101774009006248046900627E07002801890062781
:10178400803990062AE07002800B90062A802C9003
:10179400062CE07005740BF0803D90062C801C90A4
:1017A4000626E0B4010280249006268027900629AC
:1017B400E07005742BF0801F900629E014F0801768
:1017C400124845801290062EE0B401057402F080A0
:1017D4000690062E7401F09005FBE075F008A42431
:1017E40097F582E5F0341BF583E4939005FBF090C4
:1017F40005FBE075F008A4249AF582E5F0341BF5A6
:1018040083E493FB740193FA740293F99005FCEB5F
:0A181400F0A3EAF0A3E9F0022BCFE5
:0D5DE7007F047E347DDCDDFEDEFADFF60099
:015DF400228C
:055EC4009005FBE0FF6A
:015EC90022B6
:065ECA009005FBEFF02241
:055ED00090060BE0FF4D
:015ED50022AA
:055ED600900615E0FF3D
:015EDB0022A4
:055EDC00900614E0FF38
:015EE100229E
:055EE20090061EE0FF28
:015EE7002298
:055EE800900623E0FF1D
:015EED002292
:055EEE00900625E0FF15
:015EF300228C
:055EF400900628E0FF0C
:015EF9002286
:055EFA0090062BE0FF03
:015EFF002280
:055F000090062DE0FFFA
:015F05002279
:055F0600900624E0FFFD
:015F0B002273
:055F0C00900627E0FFF4
:015F1100226D
:055F120090062AE0FFEB
:015F17002267
:055F180090062CE0FFE3
:015F1D002261
:055F1E00900626E0FFE3
:015F2300225B
:055F2400900629E0FFDA
:015F29002255
:055F2A009005FAE0FF04
:015F2F00224F
:065F30009005FAEFF022DB
:055F360090062EE0FFC3
:015F3B002243
:105C5500000000000000000000000000000000003F
:085C6500000000000000000037
:102214005504C93F065B4F666D7D077F6F777C3938
:102224005E797176385C733E4805EE01020408104D
:102234002040804205F64000603004990000000010
:10224400000000000000000000000000000000008A
:10225400000000000000000000000000000000007A
:1022640000000000000000000000000060F004EE28
:10227400000000000000000000000000000000005A
:10228400000000000000000000000000000000004A
:10229400000000000000000000000000000000003A
:1022A400000000000000000000000000000000002A
:1022B400000000000000000000000000000000001A
:1022C400000000000000000000000000000000000A
:1022D40000000000000000000000000000000000FA
:1022E40000000000000000000000000000000000EA
:1022F40000000000000000000000000000000000DA
:1023040000000000000000000000000000000000C9
:1023140000000000000000000000000000000000B9
:1023240000000000000000000000000000000000A9
:102334000000000000000000000000000000000099
:102344000000000000000000000000000000000089
:102354000000000000000000000000000000000079
:10236400410498005005DE01010101010101010150
:10237400010101010101015004DE01000301020118
:0A2384000101010101010101010145
:10550600C282E4FDFCC280EF30E004D2818002C298
:105516008100000000D280EFC313FF0DBD00010C17
:0A552600ED64084C70DFC280C28102
:015530002258
:10553100C283E4FDFCC280EF30E004D2818002C26C
:105541008100000000D280EFC313FF0DBD00010CEC
:0A555100ED64084C70DFC280C281D7
:01555B00222D
:10555C00C2CCE4FDFCC280EF30E004D2818002C2F8
:10556C008100000000D280EFC313FF0DBD00010CC1
:0A557C00ED64084C70DFC280C281AC
:015586002202
:0D000E00D282000000000000C282025506F0
:0D5E0300D283000000000000C28302553170
:0D5E1000D2CC000000000000C2CC02555CA6
:054B4B00E490049BF062
:104B5000125F00AE077F4012000E7FC012000EE40D
:104B6000FB74992BF582E43404F583E0FF125506BB
:104B700074A12BF582E43404F583E0FF1255060B93
:104B8000EBB408DDEE2488FF12000ED2827F4012C3
:104B90005E037FC0125E03E4FB74A92BF582E4344C
:104BA00004F583E0FF12553174B12BF582E434042F
:104BB000F583E0FF1255310BEBB408DDEE2488FFDE
:104BC000125E03D2837F40125E107FC0125E10E43B
:104BD000FB74B92BF582E43404F583E0FF12555CD5
:104BE00074C12BF582E43404F583E0FF12555C0BAD
:0D4BF000EBB408DDEE2488FF125E10D2CC7D
:014BFD002295
:1051FC00E4900000F0E4FFE4FE900000E024EEF503
:10520C0082E43405F583E0FDEF75F008A42499F5EC
:10521C0082E43404F583E5822EF582E43583F5834C
:10522C00EDF00EEEB408D20FEFB406CB124B507F5C
:10523C001E125D02900000E004F0E0C3940840B53B
:01524C00223F
:105D0200EFD39400400B7EFF7DFFDDFEDEFA1F80A5
:015D1200EFA1
:015D1300226D
:10558700E4FFE4FEEF75F008A42499F582E43404FF
:10559700F583E5822EF582E43583F583E4F00EEE9C
:0855A700B408E10FEFB406DACD
:0155AF0022D9
:0A5E1D007F789004EEE4F0A3DFFCB0
:015E27002258
:1053A300E4FF125F42EF6401702A1255879004985C
:1053B300E05403FF2499F582E43404F5837440F048
:1053C300124B50E4FF125F48900498E004F0E0B4FD
:0453D3000402E4F0FC
:0153D70022B3
:1043BA00125587124EAD9004CBE09004A8F09004F9
:1043CA00C9E09004A7F090069EE0FF75F00A8424E5
:1043DA00C9F582E43404F583E09004A6F0EF75F0A1
:1043EA000A8474C925F0F582E43404F583E0900464
:1043FA00A5F09004A47440F090069FE0FF75F00ABF
:10440A008424C9F582E43404F583E09004A3F0EF30
:10441A0075F00A8474C925F0F582E43404F583E062
:10442A009004A2F09004A17440F09006A0E0FF75F9
:10443A00F00A8424C9F582E43404F583E09004A0E8
:10444A00F0EF75F00A8474C925F0F582E43404F5B6
:10445A0083E090049FF09006A4E024C9F582E43436
:10446A0004F583E090049EF09006A1E0FF75F00A3F
:10447A008424C9F582E43404F583E090049CF0EFC7
:10448A0075F00A8474C925F0F582E43404F583E0F2
:10449A0090049BF09006A2E0FF75F00A8424C9F507
:1044AA0082E43404F583E090049AF0EF75F00A840C
:1044BA0074C925F0F582E43404F583E0900499F098
:0344CA00024B5052
:105BA700AD071255879004D8E090049AF074C92D78
:0F5BB700F582E43404F583E0900499F0024B503A
:105BC600AD071255879004D7E090049AF074C92D5A
:0F5BD600F582E43404F583E0900499F0024B501B
:105C8400AD0712558774C92DF582E43404F583E019
:075C9400900499F0024B504F
:1054A600AD07125587ED75F00A8424C9F582E434F8
:1054B60004F583E090049AF0ED75F00A8474C9252A
:1054C600F0F582E43404F583E0900499F0024B5041
:065054007B017A0579FFE3
:10505A00125587122ADA24C9F582E43404F583E06A
:10506A0090049CF0900001122AF324C9F582E434DA
:10507A0004F583E090049BF0900002122AF324C9FD
:10508A00F582E43404F583E090049AF09000031268
:10509A002AF324C9F582E43404F583E0900499F0F4
:0350AA00024B5066
:10400B00125587900530E060179000417401F0A3C2
:10401B007405F0A37430F07B017A0479C812491B44
:10402B0090052AE060179000417401F0A37405F02D
:10403B00A3742AF07B017A0479C412491B900524DE
:10404B00E060179000417401F0A37405F0A3742491
:10405B00F07B017A0479C012491B90051EE06017B2
:10406B009000417401F0A37405F0A3741EF07B0162
:10407B007A0479BC12491B900518E0601790004137
:10408B007401F0A37405F0A37418F07B017A047922
:10409B00B812491B900512E060179000417401F0B3
:1040AB00A37405F0A37412F07B017A0479B412495E
:1040BB001B90050CE060179000417401F0A3740590
:1040CB00F0A3740CF07B017A0479B012491B9005B4
:1040DB0006E060179000417401F0A37405F0A3741F
:1040EB0006F07B017A0479AC12491B900500E06065
:1040FB00179000417401F0A37405F0A37400F07BDA
:10410B00017A0479A812491B9004FAE06017900019
:10411B00417401F0A37404F0A374FAF07B017A04E8
:10412B0079A412491B9004F4E060179000417401CC
:10413B00F0A37404F0A374F4F07B017A0479A01259
:10414B00491B9004EEE060179000417401F0A374DA
:10415B0004F0A374EEF07B017A04799C12491B22C4
:10491B0090003EEBF0A3EAF0A3E9F0A3E0FBA3E0E9
:10492B00FAA3E0F9900001122AF324C9F582E434CA
:10493B0004F583E0FF90003EE0FBA3E0FAA3E0F96F
:10494B00EF122B20900041E0FBA3E0FAA3E0F990DB
:10495B000002122AF324C9F582E43404F583E0FF44
:10496B0090003EE0FBA3E0FAA3E0F990FFFFEF120B
:10497B002B32900041E0FBA3E0FAA3E0F990000397
:10498B00122AF324C9F582E43404F583E0FF900086
:10499B003EE0FBA3E0FAA3E0F990FFFEEF122B320F
:1049AB00900041E0FBA3E0FAA3E0F9900004122A87
:1049BB00F324C9F582E43404F583E0FF90003EE074
:0E49CB00FBA3E0FAA3E0F990FFFDEF022B3210
:1045B800900034EBF0A3EAF0A3E9F0A3E0FBA3E05A
:1045C800FAA3E0F9122ADAFF900034E0FBA3E0FA3C
:1045D800A3E0F9EF122B20900037E0FBA3E0FAA349
:1045E800E0F9900001122AF3FF900034E0FBA3E009
:1045F800FAA3E0F9900001EF122B32900037E0FBAC
:10460800A3E0FAA3E0F9900002122AF3FF90003425
:10461800E0FBA3E0FAA3E0F9900002EF122B32903E
:104628000037E0FBA3E0FAA3E0F9900003122AF3B5
:10463800FF900034E0FBA3E0FAA3E0F9900003EF59
:10464800122B32900037E0FBA3E0FAA3E0F99000C8
:1046580004122AF3FF900034E0FBA3E0FAA3E0F988
:10466800900004EF122B32900037E0FBA3E0FAA38E
:10467800E0F9900005122AF3FF900034E0FBA3E074
:0B468800FAA3E0F9900005EF022B32CE
:0F510200EF75F006A424E2F9740435F0FA7B018E
:10511100122ADA900006122B32900001122AF39023
:105121000007122B32900002122AF3900008122B72
:1051310032900003122AF3900009122B32900004DE
:10514100122AF390000A122B32900005122AF390D2
:05515100000B022B32EF
:0F515600EE75F006A424EEF9740435F0FA7B012F
:10516500900006122AF3122B20900007122AF390C2
:105175000001122B32900008122AF3900002122B24
:1051850032900009122AF3900003122B3290000A84
:10519500122AF3900004122B3290000B122AF3907E
:0551A5000005022B32A1
:1042A10078387C007D017BFF7A5C79557E007F0642
:1042B100122AB4125EE2900036EFF0125EDC90003A
:1042C10037EFF0125F60900037E0FE900036E0FDBE
:1042D100C39E500AEF9D4006EE6003E0701B900004
:1042E10037E060030243B9900036E0FE70030243F9
:1042F100B9EFD39E50030243B9E4900034F090002B
:1043010034E0FFC3940A5021EF75F006A424EEF5C2
:1043110082E43404F583E07008900034E0A3F08077
:1043210008900034E004F080D5E4900034F090006F
:1043310034E0FFA3E075F006A42FF582E435F0F533
:1043410083E58224E8F582E5833404F583E0FE7495
:10435100382FF582E43400F583EEF0900034E00468
:10436100F0E0B406C9900035E0900034F0900034DC
:10437100E0FFD39401400B125102900034E014F09D
:1043810080EBE4900034F0900034E0FF2438F582B3
:10439100E43400F583E0FE74EE2FF582E43404F595
:1043A10083EEF0900034E004F0E0B406DA12400B42
:0843B100124B50E4FF125F669D
:0143B90022E1
:1049D900125EE2900035EFF0125EDC900036EFF0E7
:1049E900125F60900037EFF0125ED6900038EFF05A
:1049F900900035E0FFA3E0FEC39F500EA3E09E4068
:104A090009EF6006900036E07011900035E0707A89
:104A1900A3E0FF6075A3E0D39F406FE4900034F0FA
:104A2900900038E014FF900034E0FEC39F500B1251
:104A39005156900034E004F080E6900038E0147597
:104A4900F006A4900034F0900038E075F006A4FF59
:104A5900900034E0FDC39FE5F06480F874809850BD
:104A69001474EE2DF582E43404F583E4F0900034F7
:104A7900E004F080D212400B124B50E4FF125F6643
:0A4A89009004EEE07004FF125ECA14
:014A93002200
:104E3500E4900002F0125ED6900002EFF0E49000DC
:104E450001F0900002E014FF900001E0FEC39F50C6
:104E55000B125156900001E004F080E6900002E04C
:104E65001475F006A4900001F0900002E075F006BC
:104E7500A4FF900001E0FDC39FE5F06480F8748015
:104E850098501474EE2DF582E43404F583E4F09023
:104E95000001E004F080D212400B124B509004EE5A
:074EA500E07004FF125ECA79
:014EAC0022E3
:10476D0078037C007D017BFF7A5C795B7E007F06A0
:10477D00122AB4125ED6900002EFF0125ED6E490CB
:10478D000001F0900001E0FEC39F5020EE75F00691
:10479D00A424EEF582E43404F583E0700790000262
:1047AD00EEF08008900001E004F080D7E490000165
:1047BD00F0900001E0FF24EEF582E43404F583E08F
:1047CD00FE74032FF582E43400F583EEF0900001C2
:1047DD00E004F0E0B406DAE4900001F0900002E0AD
:1047ED00FF900001E0FEC39F500B12515690000147
:1047FD00E004F080E7E4900001F0900001E0FF2478
:10480D0003F582E43400F583E0FE900002E075F0DC
:10481D0006A42FF582E435F0F583E58224E8F582D0
:10482D00E5833404F583EEF0900001E004F0E0B48C
:08483D0006C812400B024B50AB
:1048450078037C007D017BFF7A5C79617E007F06C1
:10485500122AB4125ED6900002EFF0125ED6E490F2
:104865000001F0900001E0FEC39F5020EE75F006B8
:10487500A424EEF582E43404F583E0700790000289
:10488500EEF08008900001E004F080D7E49000018C
:10489500F0900001E0FFA3E075F006A42FF582E497
:1048A50035F0F583E58224E8F582E5833404F58364
:1048B500E0FE74032FF582E43400F583EEF09000FA
:1048C50001E004F0E0B406C9900002E0900001F0B8
:1048D500900001E0FFD39401400B125102900001BA
:1048E500E014F080EBE4900001F0900001E0FF247B
:1048F50003F582E43400F583E0FE74EE2FF582E4DF
:104905003404F583EEF0900001E004F0E0B406DA3B
:0649150012400B024B50A2
:0B3B3400900034EBF0A3EAF0A3E9F0EE
:103B3F00783D7C007D017BFF7A5C79677E007F0694
:103B4F00122AB4125ED690003BEFF0125ED69000B0
:103B5F003CEFF0E490003AF090003CE0FF90003A28
:103B6F00E0FEC39F4003023C47EE75F006A4FFAE94
:103B7F00F0900037E0FBA3E0FAA3E02FF9EA3EFA5A
:103B8F00900001122AF3FD900034E0FBA3E0FAA3AA
:103B9F00E0F9900001122AF36D6003023C3E9000A1
:103BAF0037E0FBA3E0FAA3E02FF9EA3EFA90000218
:103BBF00122AF3FF900034E0FBA3E0FAA3E0F990A0
:103BCF000002122AF36F706790003AE075F006A4B6
:103BDF00FFAEF0900037E0FBA3E0FAA3E02FF9EA85
:103BEF003EFA900003122AF3FD900034E0FBA3E0AD
:103BFF00FAA3E0F9900003122AF3B50532900037CB
:103C0F00E0FBA3E0FAA3E02FF9EA3EFA90000412DA
:103C1F002AF3FF900034E0FBA3E0FAA3E0F9900051
:103C2F0004122AF3B5070890003AE0A3F080099038
:103C3F00003AE004F0023B6790003BE090003AF05E
:103C4F0090003CE0FF90003AE0FEC39F5021EE75DC
:103C5F00F006A4FF900037E0FBA3E0FAA3E02FF9F2
:103C6F00EA35F0FA12516590003AE004F080D190F5
:103C7F00003CE0FF90003BE06F603DE490003AF0C5
:103C8F0090003CE024FFFFE434FFFE7C007D061231
:103C9F002B54900037E0FBA3E0FAA3E02FF9EA3EA4
:103CAF00FAA3E07E0029F9EE3AFAE4122B209000F5
:103CBF003AE004F0E0B406C8900037E0FBA3E0FA66
:0C3CCF00A3E0F9122ADA7004FF125ECAAA
:013CDB0022C6
:105CC600E4FF125F36EFB401051253A380031243BB
:045CD600BA025E1D93
:05000600E4FF025BA70E
:05001E007F01025BA759
:055F8A007F02025BA78D
:055F8F007F03025BA787
:055F94007F04025BA781
:055F99007F05025BA77B
:055F9E007F06025BA775
:055FA3007F07025BA76F
:055FA8007F08025BA769
:055FAD007F09025BA763
:055FB2007F0A025BA75D
:055FB7007F0B025BA757
:055FBC007F0C025BA751
:055FC1007F0D025BA74B
:1054D600125F42BF01081243BA7F02125F48125F91
:1054E60042BF0319E49004A8F09004A7F09004A624
:1054F600F09004A5F0124B50E4FF125F48024C9D59
:1055B000125F42BF01081243BA7F02125F48125FB6
:1055C00042BF0311E49004A3F09004A2F0124B50E8
:0855D000E4FF125F48024C9D4C
:1055D800125F42BF01081243BA7F02125F48125F8E
:1055E80042BF0311E49004A0F090049FF0124B50C6
:0855F800E4FF125F48024C9D24
:1059E100125F42BF01081243BA7F02125F48125F81
:1059F10042BF030DE490049EF0124B50E4FF125F8E
:045A010048024C9D6E
:105A0500125F42BF01081243BA7F02125F48125F5C
:105A150042BF030DE490049CF0124B4CE4FF125F6F
:045A250048024C9D4A
:10560000125F42BF01081243BA7F02125F48125F65
:1056100042BF0311E490049AF0900499F0124B50A9
:08562000E4FF125F48024C9DFB
:105D14007F01125BC6E49005FFF0A3F0A3F0A30497
:025D2400F0226B
:105D26007F02125BC6E4900607F0A3F0A3F0A3047B
:025D3600F02259
:105D38007F03125BC6E4900610F0A3F0A3F0A3045F
:025D4800F02247
:105D4A007F04125BC6E490061AF0A3F0A3F0A30442
:025D5A00F02235
:105D5C007F01125BC6E4900603F0A3F0A3F0A3044A
:025D6C00F02223
:105D6E007F02125BC6E490060CF0A3F0A3F0A3042E
:025D7E00F02211
:105D80007F03125BC6E4900616F0A3F0A3F0A30411
:025D9000F022FF
:105D92007F04125BC6E490061FF0A3F0A3F0A304F5
:025DA200F022ED
:055FC6007F01025BC633
:055FCB007F02025BC62D
:085E4500E4FF125EDC0254A62A
:085E4D00E4FF125EE20254A61C
:055FD0007F01025BC629
:055FD5007F02025BC623
:055FDA007F03025BC61D
:055FDF007F04025BC617
:055FE4007F05025BC611
:055FE9007F01025BC610
:055FEE007F02025BC60A
:055FF3007F03025BC604
:055FF8007F04025BC6FE
:055FFD007F01025BC6FC
:056002007F02025BC6F5
:056007007F01025BC6F1
:05600C007F02025BC6EB
:056011007F0F025BA7F8
:056016007F0F025BA7F3
:085E5500E4FF125F36025BA7B7
:05601B007F0F025BA7EE
:105B4100125F42BF01081250547F02125F48125F78
:105B510042BF030DE490049CF0124B50E4FF125F2E
:025B61004822D8
:10002600125F42BF01081250547F02125F48125FEE
:0D00360042BF0308124B4BE4FF125F48224B
:105B6300125F42BF01081250547F02125F48125F56
:105B730042BF030DE490049AF0124B50E4FF125F0E
:025B83004822B6
:105B8500125F42BF01081250547F02125F48125F34
:105B950042BF030DE4900499F0124B50E4FF125FED
:025BA500482294
:10562800125F42BF010E7B017A06790712505A7F3A
:1056380002125F48125F42BF030DE490049CF0120F
:085648004B50E4FF125F482201
:105A4C00125F42BF010E7B017A06790712505A7F12
:105A5C0002125F48125F42BF0308124B4BE4FF1265
:035A6C005F48226E
:10565000125F42BF010E7B017A06790712505A7F12
:1056600002125F48125F42BF030DE490049AF012E9
:085670004B50E4FF125F4822D9
:10567800125F42BF010E7B017A06790712505A7FEA
:1056880002125F48125F42BF030DE4900499F012C2
:085698004B50E4FF125F4822B1
:1056A000125F42BF010E7B017A06791012505A7FB9
:1056B00002125F48125F42BF030DE490049CF01297
:0856C0004B50E4FF125F482289
:105A6F00125F42BF010E7B017A06791012505A7FE6
:105A7F0002125F48125F42BF0308124B4BE4FF1242
:035A8F005F48224B
:1056C800125F42BF010E7B017A06791012505A7F91
:1056D80002125F48125F42BF030DE490049AF01271
:0856E8004B50E4FF125F482261
:1056F000125F42BF010E7B017A06791012505A7F69
:1057000002125F48125F42BF030DE4900499F01249
:085710004B50E4FF125F482238
:10571800125F42BF010E7B017A06791A12505A7F36
:1057280002125F48125F42BF030DE490049CF0121E
:085738004B50E4FF125F482210
:105A9200125F42BF010E7B017A06791A12505A7FB9
:105AA20002125F48125F42BF0308124B4BE4FF121F
:035AB2005F482228
:10574000125F42BF010E7B017A06791A12505A7F0E
:1057500002125F48125F42BF030DE490049AF012F8
:085760004B50E4FF125F4822E8
:10576800125F42BF010E7B017A06791A12505A7FE6
:1057780002125F48125F42BF030DE4900499F012D1
:085788004B50E4FF125F4822C0
:10579000125F42BF010E7B017A06790312505A7FD5
:1057A00002125F48125F42BF030DE490049CF012A6
:0857B0004B50E4FF125F482298
:105AB500125F42BF010E7B017A06790312505A7FAD
:105AC50002125F48125F42BF0308124B4BE4FF12FC
:035AD5005F482205
:1057B800125F42BF010E7B017A06790312505A7FAD
:1057C80002125F48125F42BF030DE490049AF01280
:0857D8004B50E4FF125F482270
:1057E000125F42BF010E7B017A06790312505A7F85
:1057F00002125F48125F42BF030DE4900499F01259
:085800004B50E4FF125F482247
:10580800125F42BF010E7B017A06790C12505A7F53
:1058180002125F48125F42BF030DE490049CF0122D
:085828004B50E4FF125F48221F
:105AD800125F42BF010E7B017A06790C12505A7F81
:105AE80002125F48125F42BF0308124B4BE4FF12D9
:035AF8005F4822E2
:10583000125F42BF010E7B017A06790C12505A7F2B
:1058400002125F48125F42BF030DE490049AF01207
:085850004B50E4FF125F4822F7
:10585800125F42BF010E7B017A06790C12505A7F03
:1058680002125F48125F42BF030DE4900499F012E0
:085878004B50E4FF125F4822CF
:10588000125F42BF010E7B017A06791612505A7FD1
:1058900002125F48125F42BF030DE490049CF012B5
:0858A0004B50E4FF125F4822A7
:105AFB00125F42BF010E7B017A06791612505A7F54
:105B0B0002125F48125F42BF0308124B4BE4FF12B5
:035B1B005F4822BE
:1058A800125F42BF010E7B017A06791612505A7FA9
:1058B80002125F48125F42BF030DE490049AF0128F
:0858C8004B50E4FF125F48227F
:1058D000125F42BF010E7B017A06791612505A7F81
:1058E00002125F48125F42BF030DE4900499F01268
:0858F0004B50E4FF125F482257
:1058F800125F42BF010E7B017A06791F12505A7F50
:1059080002125F48125F42BF030DE490049CF0123C
:085918004B50E4FF125F48222E
:105B1E00125F42BF010E7B017A06791F12505A7F27
:105B2E0002125F48125F42BF0308124B4BE4FF1292
:035B3E005F48229B
:10592000125F42BF010E7B017A06791F12505A7F27
:1059300002125F48125F42BF030DE490049AF01216
:085940004B50E4FF125F482206
:10594800125F42BF010E7B017A06791F12505A7FFF
:1059580002125F48125F42BF030DE4900499F012EF
:085968004B50E4FF125F4822DE
:085E5D00E4FF125ED0025C8438
:085E6500E4FF125ED60254A610
:085E6D00E4FF125EE8025C8410
:085E7500E4FF125EEE025C8402
:085E7D00E4FF125EF4025C84F4
:105C0300E4900003F0125EFA900003EFF075F003E6
:0D5C1300A4FF1259BC900003E0FF025C8466
:085E8500E4FF125F00025C84DF
:085E8D00E4FF125F06025C84D1
:085E9500E4FF125F0C025C84C3
:085E9D00E4FF125F12025C84B5
:085EA500E4FF125F18025C84A7
:085EAD00E4FF125F1E025C8499
:1053D800E4900003F0125F24900003EFF01254A64B
:1053E800125F2ABF011E125DE7125CDA125DE790B8
:1053F8000003E02442FFE433FE125479125DE7E42F
:04540800FF125F3000
:01540C00227D
:065F3C0012400B024B5065
:10238E004106AF004106B4004106B2004106B3005B
:10239E004106B0004106AD004106B5004106B10050
:0423AE004106AE0036
:105DD700438901758C3C758AB0D2AFD2A9D28C2287
:0E5DF500438910758DFF758B9CD2AFD2AB2207
:03000B000244CDDF
:1044CD00C0E0C0F0C083C082C0D075D000C000C0B5
:0D44DD0001C002C003C004C005C006C00736
:1044EA00900496E4F0A3F0C28D758C3C758AB012E4
:1044FA005EC4900496EFF0125F36900497EFF09046
:10450A0006AFE004F0E0B40A0B9006B4E004F090C1
:10451A0006AFE4F09006B4E0C394044002E4F090DD
:10452A0006B2E0B40104A3E004F0125F7EBF0114F6
:10453A009006B0E004F0E0D394784008125F8490CB
:10454A0006B0E4F0900496E0FFB45F159006ADE083
:10455A0004F0E0B4140B9006B5E004F09006ADE464
:10456A00F0EF645F60129006B1E004F0E0D394C803
:10457A004006E4F0FF125ECA900496E07015A3E0CC
:10458A00B402109006AEE004F0E0C3940A4004B20C
:03459A00CDE4F07D
:10459D00D007D006D005D004D003D002D001D00072
:0B45AD00D0D0D082D083D0F0D0E0321C
:03001B0002524D41
:10524D00C0E0C0F0C083C082C0D075D000C000C027
:0D525D0001C002C003C004C005C006C007A8
:10526A00E4FF125EC4C28F758DFF758B9CEFB42E5E
:09527A00051227308003123E8466
:10528300D007D006D005D004D003D002D001D0007F
:0B529300D0D0D082D083D0F0D0E03229
:055F42009006B4E0FF31
:015F47002237
:065F48009006B4EFF02208
:065F4E009006B2EFF02204
:055F54009006B3E0FF20
:015F59002225
:065F5A00E49006B3F02202
:055F60009006B5E0FF12
:015F65002219
:065F66009006B5EFF022E9
:065F6C00E49006B1F022F2
:0B23B20048069D140F09040C220006D1
:0452E800E0FD7F8ADC
:1052EC00D2A0EF54FEFFE4FEEF30E004D2A1800226
:1052FC00C2A1D2A2C2A2EFC313FF0EEEB408E9E41E
:10530C00FEED30E004D2A18002C2A1D2A2C2A2ED75
:0A531C00C313FD0EEEB408E9C2A0B1
:015326002264
:10532700D2A0EF4401FFE4FDEF30E004D2A18002F8
:10533700C2A1D2A2C2A2EFC313FF0DEDB408E9E4E4
:10534700FDEEC313FE30A1054480FE8004EE547FBA
:0E535700FED2A2C2A20DEDB408E7C2A0AF06BE
:015365002225
:104C9D00E4FF749D2FF582E43406F583E0FE75F094
:104CAD000A84FDEE75F00A8474A52FF582E43406AE
:104CBD00F583E5F0F0EDC454F0FE74A52FF582E414
:104CCD003406F583E02EF00FEFB408C6E4FD7F8EB9
:104CDD001252EC7D807F801252EC9006A6E0FD7F93
:104CED008C1252ECA3E0FD7F881252ECA3E0FD7F05
:104CFD00861252EC9006AC1252E89006A9E0FD7FA8
:104D0D00841252ECA3E0FD7F821252ECA3E0FD7FF2
:0F4D1D00801252ECA31252E87D807F8E0252EC7E
:104EAD007F8C1253279006A6EFF07F88125327A30D
:104EBD00EFF07F86125327A3EFF07F84125327A3C1
:104ECD00EFF07F82125327A3EFF07F80125327EF6D
:104EDD00547FA3F07F8A125327A3EFF0E4FF74A54C
:104EED002FF582E43406F583E0FEC4540FFDEE5435
:104EFD000FFE749D2FF582E43406F583EEF0ED750B
:104F0D00F00AA4FE749D2FF582E43406F583E02E9D
:064F1D00F00FEFB408C81C
:014F2300226B
:0B5E2800C2A0C2A2E4FD7F800252EC89
:1023BD00410668004106670041066D004106700048
:1023CD004106770041065D0041065C00430674003E
:1023DD00000042066E004642067200784206590021
:1023ED00004206570000420665000042066900469D
:1023FD0042066B0078420679000041065B004106FB
:10240D0078004106710041065E0043065F00000042
:06241D004306620000000E
:075EBD00D2AFD2A8D2882267
:03000300025EB5E5
:085EB500C2A8208E02D28E3239
:105C2000E4900668F0900667F0900670F090066DBC
:0C5C3000F0900677F090065CF0A3F022E4
:103E840030B205900670800390066DE004F0900651
:103E94005DE004F0E0D394A07480948F4007C28E58
:103EA400D2A8025C2090065CE014603F1460751494
:103EB4007003023F7324036003024003900670E022
:103EC400D39400400302400390066DE0FFC39006C4
:103ED4006FE09F90066EE09400400302400A900653
:103EE4005CE004F0E4900670F08034900670E0FF2B
:103EF400FD90066DE02DFDE433FCC3900673E09D58
:103F0400900672E09C5003024003EFD394015003E7
:103F140002400A30A802C2A890065CE004F0E490D3
:103F2400066DF02290066DE0D39400401390067065
:103F3400E0900668F0E4900670F090065CE004F00F
:103F440090066EE0FEA3E0FF900673E02FFF90065C
:103F540072E03EFEEF7803CEC313CE13D8F9FF9080
:103F64000670E0D39FE49E500302400A024003908F
:103F74000670E0D39400405C90066DE0FF90066705
:103F8400F0E490066DF090065C7402F0900677E021
:103F9400131313541FFE2474F582E43406F583E0EE
:103FA400FD25E0F0900668E0D39F400E74742EF572
:103FB40082E43406F583E04401F0900677E004F0EF
:103FC400E0D39417400EC28E125C2090065B7401FD
:103FD400F0D2A82290066EE0FEA3E0FF900673E004
:103FE4002FFF900672E03EFEEF7803CEC313CE138C
:103FF400D8F9FF90066DE0D39FE49E40098000123B
:074004005C20D2A8C28E224D
:1046930090065BE06401600302476CC2A890067158
:1046A300E0146027046003024765900674E09006F7
:1046B3005FF0900675E0900660F0900676E0900655
:1046C30061F09006717401F0024765900674E0FF93
:1046D30090065FE06F7073900675E0FE900660E0F1
:1046E3006E7067900676E0FD900661E06D705BA3E7
:1046F300E06F7012A3E06E700DA3E0B5050890069D
:104703005EE070208000900674E0900662F09006F0
:1047130075E0900663F0900676E0900664F09006EC
:10472300787401F090065E7401F0125F6CE49006F9
:1047330074F0A3F0A3F090065FF0A3F0A3F07F0161
:10474300125F30E4900671F08018900674E09006D2
:104753005FF0900675E0900660F0900676E09006B4
:0A47630061F0D2A8E490065BF0229A
:1027300030B205900670800390066DE004F09006BC
:102740005DE004F0E0D394A07480948F4006C28EC4
:10275000D2A8802790065CE014605A147003022807
:102760004414700302288F240360030229DC9006BE
:1027700070E0D394004007D2A8C28E025C2090067D
:1027800059E0FEA3E0FF7C007D0F122B54EF243CA8
:10279000FFE43EFE90066DE0D39FEC9E50030229BD
:1027A000E390065CE004F090066EEEF0A3EFF0E438
:1027B000A3F002283F900657E0FEA3E0FF7C007DD7
:1027C0000F122B54EF2478FFE43EFE900670E0F9E0
:1027D000FD90066DE02DFDE433FCD3ED9FEC9E40B3
:1027E00022E9701C900658E004F07006900657E04D
:1027F00004F090065AE004F07006900659E004F0E8
:102800000229DCE9D3940150030229E3900657E042
:10281000FEA3E0FF7C007D0F122B54EF2478FFE431
:102820003E900672F0A3EFF0E4900657F0A3F0A3F9
:10283000F0A3F030A802C2A890065CE004F0E49097
:10284000066DF02290066DE0D39400401390067060
:10285000E0900668F0E4900670F090065CE004F00A
:1028600090066EE0FEA3E0FF900673E02FFF900657
:1028700072E03EFEEF7803CEC313CE13D8F9FF907B
:102880000670E0D39FE49E50030229E30229DC9006
:102890000670E0D3940050030229B190066DE0FF6A
:1028A000900667F0E490066DF090065C7402F0907C
:1028B0000677E0131313541FFE2474F582E43406E4
:1028C000F583E025E0F0900668E0FDD39F400E74AC
:1028D000742EF582E43406F583E04401F090066737
:1028E000E02DFEE433900665F0A3CEF0900677E08D
:1028F00004F0E0D3941750030229B1C28E125C2079
:1029000090065B7401F090067AE004F07006900681
:1029100079E004F0900672E0FEA3E0FF90066CE020
:102920002FF090066BE03EF0E0C313FEA3E013FF30
:10293000900672EEF0A3EFF090066BEEF0A3EFF0CE
:10294000D390067AE09401900679E09400405F907D
:102950000669E0FEA3E0FF90066EE0FCA3E0FD9FA9
:10296000FFEC9EFED3EF941EEE9400401590066A95
:10297000E09DFF900669E09CFED3EF941EEE94006C
:10298000502C90066EE0FEA3E0FF90066AE02FF068
:10299000900669E03EF0E0C313FEA3E013FF90064B
:1029A0006EEEF0A3EFF0900669EEF0A3EFF0D2A880
:1029B0002290066EE0FEA3E0FF900673E02FFF90EA
:1029C0000672E03EFEEF7803CEC313CE13D8F9FFB4
:1029D00090066DE0D39FE49E40098000125C20D2F7
:0429E000A8C28E22D9
:055F7200900678E0FF3D
:015F77002207
:065F7800E4900678F0221F
:055F7E0090065EE0FF4B
:015F830022FB
:065F8400E490065EF0222D
:101EB5006465636F6465725F76616C206973202564
:101EC50030327820253032782025303278202E0D9A
:101ED5000A006A203D2025303278200D0A00B7A27D
:101EE500CFD6D2BBB8F6B1EAD6BECEBB200D0A001E
:101EF500B6D4C2EBB3C9B9A6200D0A00D2A3BFD888
:101F0500C6F7C2EBCAC72025303278202530327893
:101F150020253032782E0D0A00B1EAD6BEB5D8D6C6
:101F2500B7CEAA2025782021200A0D00B4E6B4A258
:101F3500B5D8D6B7CEAA2025782021200A0D007461
:101F4500656D705F627566665B305D203C2035307F
:101F5500200D0A0063616E63656E2066756E746997
:101F65006F6E200D0A0063616E63656E2066756E87
:101F750074696F6E206661756C74200D0A0063616B
:101F85006E63656E2066756E74696F6E207375631A
:101F950063657373200D0A006465636F6465722061
:101FA500737563636573732100C4E3BAC3200D0AB7
:101FB50000646973706C61795F72616D206973206B
:101FC500253032782025303278202530327820258A
:101FD5003032782E0D0A0063616C6C206973202500
:101FE50030327820253032782025303278202E0D79
:101FF5000A0063616C6C20697320253032782025D6
:10200500303278202530327820253032782E0D0A6E
:102015000063616C6C65722069732072696769730E
:102025007465722073756363657373200D0A0068A8
:102035006F7374206973202530327820253032780B
:102045002025303278202E0D0A00686F73742069C0
:1020550073202530327820253032782025303278AB
:1020650020253032782E0D0A00686F73742069734D
:10207500207269676973746572207375636365732C
:1020850073200D0A00616C61726D20697320253023
:10209500327820253032782025303278202E0D0AEE
:1020A50000616C61726D20697320253032782025BE
:1020B500303278202530327820253032782E0D0ABE
:1020C50000616C61726D2069732072696769737450
:1020D50065722073756363657373200D0A00636110
:1020E5006E63656C20697320253032782025303287
:1020F500782025303278202E0D0A0063616E6365E5
:102105006C206973202530327820253032782025DF
:1021150030327820253032782E0D0A0063616E63E7
:10212500656C2069732072696769737465722073C1
:10213500756363657373200D0A0073696E676C655B
:102145005F6B6579A3BA202000253032642000201A
:102155000D0A006D756C7469706C655F6B6579A3AC
:10216500BA002532642000000000000000000000D5
:10217500000000000000000000000000000000005A
:072185000000000000000053
:0B2423004806B60000000000000000AA
:10004600780C7C007D017BFF7A21796C7E007F2015
:10005600122AB4E490002CF0A3F0A3F0A3F0A3F0CE
:10006600A3F0A3F0A3F0125EC490002CEFF0125F91
:100076001E90002DEFF0125F2490002EEFF0125E1E
:10008600D090002FEFF0125ED6900030EFF0125FA6
:1000960006900031EFF0125EE8900032EFF0125E4B
:1000A600EE900033EFF0124693125F72EF64016038
:1000B60003020DFE7BFF7A1E79B5900662E0FF9083
:1000C600003CE4F0A3EFF0900663E0FF90003EE40E
:1000D600F0A3EFF0900664E0FF900040E4F0A3EF99
:1000E600F01250AD90002CE024CE24FC4003020810
:1000F600C224FC40030209E724FC4003020AFE2452
:10010600FC4003020C1524E47003020D4014700336
:1001160002047F245F6003020DFBE4FF125F66901A
:100126000664E0FF54F060030201EE900662E0FE12
:10013600C4540FFD900031E0FC6D6008EC640A6069
:10014600030201EE90002DE0B4010CEF540F24DE03
:10015600F582E43405800D900664E0540F24DEF544
:1001660082E43404F583E0900004F0900662E0FF38
:10017600900005EDF0EF540FA3F0900663E0FFC486
:10018600540F900007F0EF540FA3F0A3EEF0900089
:1001960004E0FF64336026EF60237B017A00790474
:1001A600FD900038E4F0A3EDF0900664E0540F9063
:1001B600003AF0900032E0FF12300D800302052D68
:1001C6001255879000377401F0A37400F0A37404ED
:1001D600F07B017A0479EE1245B812400B124B50AF
:1001E6007F5F125ECA020DFBE4900001F0900001F1
:1001F600E0FFC394304003020DFBEF75F020A4FD31
:10020600ACF07B017A00790C90003F7420F07FA05F
:10021600124DCE125DE77BFF7A1E79D7900001E082
:10022600FF90003CE4F0A3EFF01250ADE490000024
:10023600F0900000E0FFC394204003020476740CA3
:100246002FF582E43400F583E0600302046D7BFF42
:100256007A1E79E31250AD900001E075F020A4FFFC
:10026600900000E07C002FFFEC35F0FEEF7803C332
:1002760033CE33CED8F92400FDEE3407FC7B017A69
:1002860000790490003F7408F07FA0124DCE125DF5
:10029600E790002DE06401602B900662E0FF90007D
:1002A60009E0B5071F900663E0FF90000AE0B50776
:1002B60013900664E0C4540FFF90000BE0FEC45494
:1002C6000F6F603890002DE06401600302046D90AA
:1002D6000662E0FF900009E06F600302046D90067D
:1002E60063E0FF90000AE06F600302046D9006640D
:1002F600E0FF90000BE06F600302046D7BFF7A1E47
:1003060079F51250AD7BFF7A1F7901900662E0FF06
:1003160090003CE4F0A3EFF0900663E0FF90003E0F
:10032600E4F0A3EFF0900664E0FF900040E4F0A351
:10033600EFF01250AD7BFF7A1F791E900001E07539
:10034600F020A4FF900000E07C002FFEEC35F0903A
:10035600003CF0A3CEF01250AD7BFF7A1F793190AE
:100366000001E075F020A4FF900000E07C002FFF64
:10037600EC35F0FEEF7803C333CE33CED8F9240044
:10038600FFEE340790003CF0A3EFF01250AD900062
:1003960004E0C3943250307BFF7A1F79441250AD8B
:1003A60090002DE0900664B4010CE0540F24DEF5B5
:1003B60082E43405800AE0540F24DEF582E4340436
:1003C600F583E0900004F07BFF7A1F79591250AD57
:1003D600900004E0FF64336033EF60307BFF7A1FE8
:1003E600796B1250AD7B017A007904900004E0FD30
:1003F600900038E4F0A3EDF0900664E0540F90000E
:100406003AF0900032E0FF12300D80287BFF7A1F11
:1004160079831250AD9000377401F0A37404F0A3F1
:1004260074EEF07B017A007904123B3412400B1211
:100436004B50803C1255879000377401F0A374002E
:10044600F0A37404F07B017A0479EE1245B81240E9
:100456000B124B507BFF7A1F799D1250AD7F5F12B6
:100466005ECA125F788009900000E004F00202374D
:10047600900001E004F00201F3E4FF125F669006CB
:1004860064E0FF54F06003020617900662E0FEC4C3
:10049600540FFD900031E0FC6D6008EC640A6003C7
:1004A60002061790002DE0B4010CEF540F24DEF580
:1004B60082E43405800D900664E0540F24DEF58254
:1004C600E43404F583E0900004F0900662E0FF90C7
:1004D6000005EDF0EF540FA3F0900663E0FFC4545F
:1004E6000F900007F0EF540FA3F0A3EEF090002F4B
:1004F600E0640160030205AF900004E0FF6433602E
:1005060026EF60237B017A007904FD900038E4F041
:10051600A3EDF0900664E0540F90003AF09000329C
:10052600E0FF12300D801A9000377401F0A37404B6
:10053600F0A374EEF07B017A007904123B340206D4
:1005460006900030E0900002F0900002E0FFD394A5
:1005560001401AEF75F006A424E2F9740435F0FAA6
:100566007B01125111900002E014F080DCE490004F
:1005760002F0900002E0FFC39406501474EE2FF5CB
:1005860082E43404F583E4F0900002E004F080E2B3
:100596009000377401F0A37400F0A37404F07B019B
:1005A6007A0479EE1245B8805790002FE064026015
:1005B60003020DFB900003F0900030E0FF90000373
:1005C600E0FEC39F4003020DFBEE75F006A424EE89
:1005D600F582E43404F583E0702F900003E075F0B3
:1005E60006A424EEF9740435F0FA7B01C0039000EA
:1005F60037EBF0A37400F0A37404F0D0031245B8EF
:1006060012400B124B50020DFB900003E004F080E9
:10061600A7E4900001F0900001E0FFC3943040038E
:10062600020DFBEF75F020A4FDACF07B017A00799A
:100636000C90003F7420F07FA0124DCE125DE7E4CF
:10064600900000F0900000E0FFC3942040030208F1
:10065600B9740C2FF582E43400F583E060030208D8
:10066600B0900001E075F020A4FF900000E07C004F
:100676002FFFEC35F0FEEF7803C333CE33CED8F937
:100686002400FDEE3407FC7B017A00790490003FDC
:100696007408F07FA0124DCE125DE790002DE06445
:1006A60001602B900662E0FF900009E0B5071F90FD
:1006B6000663E0FF90000AE0B50713900664E0C405
:1006C600540FFF90000BE0FEC4540F6F603890008B
:1006D6002DE0640160030208B0900662E0FF90001E
:1006E60009E06F60030208B0900663E0FF90000A1D
:1006F600E06F60030208B0900664E0FF90000BE034
:100706006F60030208B07BFF7A1F79AE1250AD907E
:100716000004E0C39432502790002DE0900664B4A4
:10072600010CE0540F24DEF582E43405800AE0541F
:100736000F24DEF582E43404F583E0900004F090A3
:10074600002FE064016003020804900004E0FF64E7
:10075600336026EF60237B017A007904FD90003830
:10076600E4F0A3EDF0900664E0540F90003AF090A8
:100776000032E0FF12300D80209000377401F0A3A4
:100786007404F0A374EEF07B017A007904123B3412
:1007960012400B124B500208B9900030E090000254
:1007A600F0900002E0FFD39401401AEF75F006A422
:1007B60024E2F9740435F0FA7B011251119000021B
:1007C600E014F080DCE4900002F0900002E0FFC349
:1007D6009406501474EE2FF582E43404F583E4F0A5
:1007E600900002E004F080E29000377401F0A374F8
:1007F60000F0A37404F07B017A0479EE804E900039
:100806002FE064027059900003F0900030E0FF90F2
:100816000003E0FEC39F5047EE75F006A424EEF5F4
:1008260082E43404F583E0702E900003E075F00650
:10083600A424EEF9740435F0FA7B01C00390003766
:10084600EBF0A37400F0A37404F0D0031245B812C1
:10085600400B124B508008900003E004F080AB7B05
:10086600FF7A1F799D1250AD7BFF7A1F79B69004EF
:10087600EEE0FF90003CE4F0A3EFF09004EFE0FF21
:1008860090003EE4F0A3EFF09004F0E0FF9000400B
:10089600E4F0A3EFF09004F1E0FF900042E4F0A34F
:1008A600EFF01250AD125F788009900000E004F07E
:1008B60002064A900001E004F002061C7F35125E33
:1008C600CA900664E0540F9006B6F09005FFE090DB
:1008D60006B7F0900600E09006B8F0900601E090AA
:1008E60006B9F0900602E09006BAF0900662E09033
:1008F60006BBF0900663E09006BCF090002DE090F9
:100906000664B40103E08003E054F09006BDF07B7A
:10091600017A0679B61232124003020DFB7BFF7A8A
:100926001F79DC9006BBE0FF90003CE4F0A3EFF0FB
:100936009006BCE0FF90003EE4F0A3EFF09006BD09
:10094600E0FF900040E4F0A3EFF01250AD7BFF7A99
:100956001F79F79005FFE0FF90003CE4F0A3EFF06D
:10096600900600E0FF90003EE4F0A3EFF090060151
:10097600E0FF900040E4F0A3EFF0900602E0FF9065
:100986000042E4F0A3EFF01250AD7BFF7A20791617
:100996001250AD125DE7900602E06409703D9006C4
:1009A60001E06409702F900600E0B409229005FF6B
:1009B600E004F0E4A3F0A3F09005FFE0B4150AE428
:1009C600F090060204F0020DFB900602020D17904D
:1009D6000600020D20900601020D2E900602020D61
:1009E6003A7F39125ECA900664E0FE540F9006B64E
:1009F600F0900607E09006B7F0900608E09006B87B
:100A0600F0900609E09006B9F090060AE09006BA62
:100A1600F0900662E09006BBF0900663E09006BC9C
:100A2600F0EE54F0A3F07B017A0679B6123CDC4076
:100A360003020DFB7BFF7A2079349006BBE0FF9022
:100A4600003CE4F0A3EFF09006BCE0FF90003EE42B
:100A5600F0A3EFF09006BDE0FF900040E4F0A3EFB6
:100A6600F01250AD7BFF7A20794F900607E0FF9099
:100A7600003CE4F0A3EFF0900608E0FF90003EE4AF
:100A8600F0A3EFF0900609E0FF900040E4F0A3EF3A
:100A9600F090060AE0FF900042E4F0A3EFF0125057
:100AA600AD7BFF7A20796E1250AD125DE790060A93
:100AB600E06409703D900609E06409702F9006080D
:100AC600E0B40922900607E004F0E4A3F0A3F09056
:100AD6000607E0B4150AE4F090060A04F0020DFBDE
:100AE60090060A020D17900608020D2090060902CC
:100AF6000D2E90060A020D3A7F3D125ECA9006B68A
:100B06007434F0900610E09006B7F0900611E0906D
:100B160006B8F0900612E09006B9F0900613E09041
:100B260006BAF0900662E09006BBF0900663E0908D
:100B360006BCF0900664E054F09006BDF07B017AA6
:100B46000679B6122BF54003020DFB7BFF7A20795E
:100B56008A9006BBE0FF90003CE4F0A3EFF090061D
:100B6600BCE0FF90003EE4F0A3EFF09006BDE0FF8E
:100B7600900040E4F0A3EFF01250AD7BFF7A2079AD
:100B8600A6900610E0FF90003CE4F0A3EFF090067C
:100B960011E0FF90003EE4F0A3EFF0900612E0FFB4
:100BA600900040E4F0A3EFF0900613E0FF900042BF
:100BB600E4F0A3EFF01250AD7BFF7A2079C6125015
:100BC600AD125DE7900613E06409703D900612E0F1
:100BD6006409702F900611E0B40922900610E00413
:100BE600F0E4A3F0A3F0900610E0B4150AE4F09048
:100BF600061304F0020DFB900613020D1790061162
:100C0600020D20900612020D2E900613020D3A7F59
:100C160041125ECA9006B67433F090061AE090064A
:100C2600B7F090061BE09006B8F090061CE0900620
:100C3600B9F090061DE09006BAF0900662E09006C4
:100C4600BBF0900663E09006BCF0900664E054F0BA
:100C56009006BDF07B017A0679B6122E014003029A
:100C66000DFB7BFF7A2079E39006BBE0FF90003C0A
:100C7600E4F0A3EFF09006BCE0FF90003EE4F0A3A2
:100C8600EFF09006BDE0FF900040E4F0A3EFF01215
:100C960050AD7BFF7A21790090061AE0FF90003C68
:100CA600E4F0A3EFF090061BE0FF90003EE4F0A313
:100CB600EFF090061CE0FF900040E4F0A3EFF09008
:100CC600061DE0FF900042E4F0A3EFF01250AD7B6A
:100CD600FF7A2179211250AD125DE790061DE0647E
:100CE60009704E90061CE06409703A90061BE0B449
:100CF600092590061AE004F0E4A3F0A3F090061A82
:100D0600E0B4150AE4F090061D04F0020DFB90060F
:100D16001D7401F0020DFB90061BE004F0E4A3F045
:100D2600A3F0020DFB90061CE004F0E4A3F0020D14
:100D3600FB90061DE004F0020DFB90002DE0B401CF
:100D460012A3E0FF900664E0540F24DEF582E4343B
:100D560005801290002EE0FF900664E0540F24DE1A
:100D6600F582E43404F583EFF07BFF7A21793F12B4
:100D760050ADE4900000F0900000E0FFC3941050E6
:100D8600257BFF7A21794E74DE2FF582E43405F552
:100D960083E0FF90003CE4F0A3EFF01250AD90002A
:100DA60000E004F080D17BFF7A2179541250AD7BAC
:100DB600FF7A2179581250ADE4900000F0900000BF
:100DC600E0FFC3941050257BFF7A21796774DE2FEC
:100DD600F582E43404F583E0FF90003CE4F0A3EFF1
:100DE600F01250AD900000E004F080D17BFF7A2134
:0E0DF60079541250AD125F781249D90242A111
:10245E0063616C6C65722072656769737465722056
:10246E006973206F6C6421200A0D0063616C6C65CA
:10247E0072207265676973746572206973206E6568
:10248E007721200A0D00B1EAD6BEB5D8D6B7CEAAAE
:10249E002025782021200A0D00B4E6B4A2B5D8D6A6
:1024AE00B7CEAA2025782021200A0D00686F7374FC
:1024BE00207265676973746572206973206F6C642E
:1024CE0021200A0D00686F7374207265676973743A
:1024DE006572206973206E657721200A0D00616C8C
:1024EE0061726D65722072656769737465722069B9
:1024FE0073206F6C6421200A0D00616C61726D6532
:10250E0072207265676973746572206973206E65D7
:10251E007721200A0D0063616E63656C657220720F
:10252E0065676973746572206973206F6C6421200E
:10253E000A0D0063616E63656C6572207265676972
:10254E0073746572206973206E657721200A0D0001
:10255E0063616C6C65722069732064656C6574656B
:10256E002073756363657373200D0A0063616C6C71
:10257E00206973202530327820253032782025309E
:10258E003278202E0D0A0063616C6C206973202551
:10259E0030327820253032782025303278202530A0
:1025AE0032782E0D0A00686F73746572206973207D
:1025BE0064656C6574652073756363657373200D54
:1025CE000A00686F737420697320253032782025D5
:1025DE003032782025303278202E0D0A00686F7345
:1025EE0074206973202530327820253032782025EA
:1025FE0030327820253032782E0D0A00686F7374D1
:10260E002069732064656C657465207375636365FA
:10261E007373200D0A00616C61726D6572206973AF
:10262E002064656C657465207375636365737320D0
:10263E000D0A00616C61726D20697320253032784D
:10264E0020253032782025303278202E0D0A006178
:10265E006C61726D206973202530327820253032FE
:10266E0078202530327820253032782E0D0A006100
:10267E006C61726D2069732064656C65746520737E
:10268E00756363657373200D0A0063616E63656C19
:10269E0065722069732064656C657465207375635B
:1026AE0063657373200D0A0063616E63656C206948
:1026BE00732025303278202530327820253032783C
:1026CE00202E0D0A0063616E63656C2069732025F0
:1026DE00303278202530327820253032782025305F
:1026EE0032782E0D0A0063616E63656C206973206B
:1026FE0064656C6574652073756363657373200D13
:10270E000A00FFFFFFFFFFFFFFFFFFFFFFFFFFFFBF
:10271E00FFFFFFFFFFFFFFFFFFFFFFFFFFFFFFFFBB
:02272E00FFFFAB
:10242E006020062F000000000000000000000000E9
:10243E00000000000000000000000000000000008E
:0F244E000000000048064F0000000000000000E2
:03602000DFFE227E
:105CB100AE07AF061EEF600C7FF51260207FF51274
:055CC100602080EE22CE
:105C9B00D2B400D2B50000000000C2B40000000076
:065CAB0000C2B50000225A
:105DA400C2B400D2B50000000000D2B4000000006C
:015DB40022CC
:10536600E4FEEFA806088002C333D8FC30E704D277
:10537600B48002C2B400D2B50000000000C2B50E6F
:10538600EEB408DE0000D2B40000D2B50000003052
:0C539600B404C20A8002D20AC2B50000B2
:0153A20022E8
:10599700E4FFD2B4FE00C2B50000000000D2B5009B
:1059A70000EF25E0FF30B4010F00000EEEB408E56C
:0459B700C2B5000075
:0159BB0022C9
:105DB500C2B4000000D2B50000000000C2B500006A
:015DC50022BB
:105DC600D2B4000000D2B50000000000C2B5000049
:015DD60022AA
:104F8F00900004E075F020A42400FDE5F03406FC49
:0E4F9F007A06792F7B01742090003FF07FA0EE
:104FAD00125C9B125366200A02C322ECFF12536659
:104FBD00200A02C322AF05125366200A02C322E45F
:104FCD00FD90003FE0FFEDC39F5016122ADAFF124D
:104FDD005366200A02C322740129F9E43AFA0D80BE
:054FED00E0125DA4D3F9
:014FF200229C
:104DB800EF75F020A4FDACF07A06792F74207B0102
:064DC80090003FF07FA007
:054DCE00900039EFF038
:104DD300125C9BE0FF125366200A02C322ECFF120F
:104DE3005366200A02C322AF05125366200A02C388
:104DF30022125C9B900039E004FF125366200A02E2
:104E0300C322E4FD90003FE014FFEDC39F50141252
:104E13005997EF122B20125DB5740129F9E43AFA80
:104E23000D80E1125997EF122B20125DC6125DA47B
:014E3300D3AB
:014E3400225B
:0B321200900034EBF0A3EAF0A3E9F019
:10321D00E4A3F0A3F0900037F0900037E0FFC394E3
:10322D003840030232FD124DB8125DE7E4900038CC
:10323D00F0900038E0FFC3942040030232F4742F65
:10324D002FF582E43406F583E060030232EB900043
:10325D0037E075F020A4FFA3E07C002FFFEC35F0E4
:10326D00FEEF7803C333CE33CED8F92400FDEE3410
:10327D0007FC7A06794F7408124DC6125DE790006F
:10328D0034E0FBA3E0FAA3E0F9900005122AF3FF66
:10329D00900654E06F7047900006122AF3FF9006D7
:1032AD0055E06F7039900007122AF3FF900656E033
:1032BD006F702B900650E09005FFF0900651E09056
:1032CD000600F0900652E0900601F0900653E09053
:1032DD000602F07BFF7A24795E1250ADC322900076
:1032ED0038E004F002323E900037E004F00232265E
:1032FD00E4900037F0900037E0FFC39420400302C4
:10330D0033F9124DB8125DE7E4900038F0900038B3
:10331D00E0FFC3942040030233F0742F2FF582E4B5
:10332D003406F583E070030233E7900037E075F063
:10333D0020A4FFA3E07C002FFFEC35F0FEEF780317
:10334D00C333CE33CED8F92400FDEE3407FC900004
:10335D0034E0FBA3E0FAA3E0F97408124FA7125D65
:10336D00E7900038E0242FF582E43406F583E4F08D
:10337D00900037E075F020A4FDACF0124F9F125D68
:10338D00E77BFF7A2479791250AD7BFF7A2479940B
:10339D00900037E075F020A4FF90003CE5F0F0A31D
:1033AD00EFF01250AD7BFF7A2479A7900037E075CE
:1033BD00F020A4FFA3E07C002FFFEC35F0FEEF78AA
:1033CD0003C333CE33CED8F92400FFEE340790007B
:1033DD003CF0A3EFF01250ADD322900038E004F092
:0D33ED0002331A900037E004F0023302C3EF
:0133FA0022B0
:0B3CDC00900034EBF0A3EAF0A3E9F045
:103CE700E4A3F0A3F0900037F0900037E0FFC3940F
:103CF700384003023DCF124DB8125DE7E49000381B
:103D0700F0900038E0FFC394204003023DC6742FB3
:103D17002FF582E43406F583E06003023DBD900091
:103D270037E075F020A4FFA3E07C002FFFEC35F00F
:103D3700FEEF7803C333CE33CED8F92400FDEE343B
:103D470007FC7B017A06794F90003F7408F07FA04B
:103D5700124DCE125DE7900034E0FBA3E0FAA3E03A
:103D6700F9900005122AF3FF900654E06F70479010
:103D77000006122AF3FF900655E06F70399000078E
:103D8700122AF3FF900656E06F702B900650E090D2
:103D97000607F0900651E0900608F0900652E09072
:103DA7000609F0900653E090060AF07BFF7A247923
:103DB700BA1250ADC322900038E004F0023D0890DB
:103DC7000037E004F0023CF0E4900037F090003751
:103DD700E0FFC394084003023E82EF75F020A4245D
:103DE70000FDE5F03406FC124DC0125DE7E49000DB
:103DF70038F0900038E0FFC394205076742F2FF5E9
:103E070082E43406F583E06060900037E075F020C7
:103E1700A4FFA3E07C002FFFEC35F0FEEF7803C38F
:103E270033CE33CED8F92400FDEE3437FC9000347E
:103E3700E0FBA3E0FAA3E0F990003F7408F07FA04D
:103E4700124FAD125DE7900038E0242FF582E4347D
:103E570006F583E4F0900037124F92125DE77BFF7F
:103E67007A2479D31250ADD322900038E004F002BF
:0C3E77003DF9900037E004F0023DD4C398
:013E8300221C
:0B2BF500900034EBF0A3EAF0A3E9F03D
:102C0000E4A3F0A3F0900037F0900037E0FFC39406
:102C1000384003022CE8124DB8125DE7E49000380A
:102C2000F0900038E0FFC394204003022CDF742FA3
:102C30002FF582E43406F583E06003022CD6900081
:102C400037E075F020A4FFA3E07C002FFFEC35F007
:102C5000FEEF7803C333CE33CED8F92400FDEE3433
:102C600007FC7B017A06794F90003F7408F07FA043
:102C7000124DCE125DE7900034E0FBA3E0FAA3E032
:102C8000F9900005122AF3FF900654E06F70479008
:102C90000006122AF3FF900655E06F703990000786
:102CA000122AF3FF900656E06F702B900650E090CA
:102CB0000610F0900651E0900611F0900652E09058
:102CC0000612F0900653E0900613F07BFF7A247909
:102CD000EC1250ADC322900038E004F0022C219099
:102CE0000037E004F0022C09E4900037F090003740
:102CF000E0FFC394084003022DFFEF75F020A424E9
:102D000000FDE5F03404FC124DC0125DE7E49000D4
:102D100038F0900038E0FFC394204003022DF67491
:102D20002F2FF582E43406F583E07003022DED9039
:102D30000037E075F020A4FFA3E07C002FFFEC3506
:102D4000F0FEEF7803C333CE33CED8F92400FDEE86
:102D50003427FC900034E0FBA3E0FAA3E0F99000F4
:102D60003F7408F07FA0124FAD125DE7900038E08D
:102D7000242FF582E43406F583E4F0900037E07503
:102D8000F020A42400FDE5F03404124F9E125DE70C
:102D90007BFF7A2579081250AD7BFF7A24799490D5
:102DA0000037E075F020A42400FEE5F03404900024
:102DB0003CF0A3CEF01250AD7BFF7A2479A79000AF
:102DC00037E075F020A4FFA3E07C002FFFEC35F086
:102DD000FEEF7803C333CE33CED8F92400FFEE34B0
:102DE0002790003CF0A3EFF01250ADD322900038B2
:102DF000E004F0022D12900037E004F0022CEDC345
:012E000022AF
:0B2E0100900034EBF0A3EAF0A3E9F02E
:102E0C00E4A3F0A3F0900037F0900037E0FFC394F8
:102E1C00384003022EF4124DB8125DE7E4900038EE
:102E2C00F0900038E0FFC394204003022EEB742F87
:102E3C002FF582E43406F583E06003022EE2900065
:102E4C0037E075F020A4FFA3E07C002FFFEC35F0F9
:102E5C00FEEF7803C333CE33CED8F92400FDEE3425
:102E6C0007FC7B017A06794F90003F7408F07FA035
:102E7C00124DCE125DE7900034E0FBA3E0FAA3E024
:102E8C00F9900005122AF3FF900654E06F704790FA
:102E9C000006122AF3FF900655E06F703990000778
:102EAC00122AF3FF900656E06F702B900650E090BC
:102EBC00061AF0900651E090061BF0900652E09036
:102ECC00061CF0900653E090061DF07BFF7A2579E6
:102EDC00241250ADC322900038E004F0022E2D9045
:102EEC000037E004F0022E15E4900037F090003724
:102EFC00E0FFC39408400302300BEF75F020A424CC
:102F0C0000FDE5F03405FC124DC0125DE7E49000C5
:102F1C0038F0900038E0FFC3942040030230027474
:102F2C002F2FF582E43406F583E07003022FF9901D
:102F3C000037E075F020A4FFA3E07C002FFFEC35F8
:102F4C00F0FEEF7803C333CE33CED8F92400FDEE78
:102F5C00342FFC900034E0FBA3E0FAA3E0F99000DE
:102F6C003F7408F07FA0124FAD125DE7900038E07F
:102F7C00242FF582E43406F583E4F0900037E075F5
:102F8C00F020A42400FDE5F03405124F9E125DE7FD
:102F9C007BFF7A2579411250AD7BFF7A247994908E
:102FAC000037E075F020A42400FEE5F03405900015
:102FBC003CF0A3CEF01250AD7BFF7A2479A79000A1
:102FCC0037E075F020A4FFA3E07C002FFFEC35F078
:102FDC00FEEF7803C333CE33CED8F92400FFEE34A2
:102FEC002F90003CF0A3EFF01250ADD3229000389C
:102FFC00E004F0022F1E900037E004F0022EF9C31B
:01300C0022A1
:0B37B300900001EBF0A3EAF0A3E9F0A6
:1037BE00E4A3F0A3F0900004F0900004E0FFC394A3
:1037CE00204003023974124DB8125DE7E4900005F3
:1037DE00F0900005E0FFC39420400302395A900098
:1037EE0001E0FBA3E0FAA3E0F9122ADA70299000B7
:1037FE0001122AF37021900002122AF37019900020
:10380E0003122AF37011742F2FF582E43406F58318
:10381E0074FFF0FB02394A900005E0FD242FF5827B
:10382E00E43406F583E06003023951900004E0753C
:10383E00F020A47C002DFFEC35F0FEEF7803C333AF
:10384E00CE33CED8F92400FDEE3407FC7B017A0688
:10385E00794F90003F7408F07FA0124DCE125DE7B5
:10386E00900001E0FBA3E0FAA3E0F9122ADAFF9040
:10387E000650E06F6003023951900001122AF3FFE7
:10388E00900651E06F6003023951900002122AF344
:10389E00FF900652E06F6003023951900003122A26
:1038AE00F3FF900653E06F6003023951900005E07C
:1038BE00242FF582E43406F58374FFF0900004E0C3
:1038CE0075F020A4FDACF0124F9F125DE77BFF7ADE
:1038DE0025797A900654E0FF90003CE4F0A3EFF0D7
:1038EE00900655E0FF90003EE4F0A3EFF0900656F0
:1038FE00E0FF900040E4F0A3EFF01250AD7BFF7AB2
:10390E00257995900650E0FF90003CE4F0A3EFF08F
:10391E00900651E0FF90003EE4F0A3EFF0900652C7
:10392E00E0FF900040E4F0A3EFF0900653E0FF902C
:10393E000042E4F0A3EFF01250AD7BFF7A25795EE2
:10394E001250AD900005E004F00237DF900004E065
:10395E0075F020A4FDACF0124F9F125DE7900004AD
:07396E00E004F00237C7D3AB
:01397500222F
:0B397600900001EBF0A3EAF0A3E9F0E1
:10398100E4A3F0A3F0900004F0900004E0FFC394DE
:10399100084003023B32EF75F020A42400FDE5F05E
:1039A1003406FC124DC0125DE7E4900005F0900072
:1039B10005E0FFC394204003023B23900001E0FB9C
:1039C100A3E0FAA3E0F9122ADA702D900001122A7D
:1039D100F37025900002122AF3701D900003122A41
:1039E100F37015742F2FF582E43406F58374FFF01C
:1039F100FB7A2579B4023B17900005E0FD242FF5F1
:103A010082E43406F583E06003023B1A900004E08F
:103A110075F020A47C002DFFEC35F0FEEF7803C398
:103A210033CE33CED8F92400FDEE3437FC7B017A56
:103A310006794F90003F7408F07FA0124DCE125DC1
:103A4100E7900001E0FBA3E0FAA3E0F9122ADAFF14
:103A5100900650E06F6003023B1A900001122AF3B6
:103A6100FF900651E06F6003023B1A900002122A98
:103A7100F3FF900652E06F6003023B1A90000312BD
:103A81002AF3FF900653E06F6003023B1A90000592
:103A9100E0242FF582E43406F58374FFF0124F8F92
:103AA100125DE77BFF7A2579D0900654E0FF900004
:103AB1003CE4F0A3EFF0900655E0FF90003EE4F007
:103AC100A3EFF0900656E0FF900040E4F0A3EFF082
:103AD1001250AD7BFF7A2579EB900650E0FF900004
:103AE1003CE4F0A3EFF0900651E0FF90003EE4F0DB
:103AF100A3EFF0900652E0FF900040E4F0A3EFF056
:103B0100900653E0FF900042E4F0A3EFF01250ADB5
:103B11007BFF7A26790A1250AD900005E004F0028D
:103B210039AF124F8F125DE7900004E004F00239C3
:023B31008AD335
:013B3300226F
:0B33FB00900001EBF0A3EAF0A3E9F062
:10340600E4A3F0A3F0900004F0900004E0FFC3945E
:103416000840030235D5EF75F020A42400FDE5F041
:103426003404FC124DC0125DE7E4900005F09000F4
:1034360005E0FFC3942040030235B7900001E0FB8E
:10344600A3E0FAA3E0F9122ADA702D900001122AFD
:10345600F37025900002122AF3701D900003122AC1
:10346600F37015742F2FF582E43406F58374FFF09C
:10347600FB7A2679240235AB900005E0FD242FF572
:1034860082E43406F583E060030235AE900004E082
:1034960075F020A47C002DFFEC35F0FEEF7803C319
:1034A60033CE33CED8F92400FDEE3427FC7B017AE7
:1034B60006794F90003F7408F07FA0124DCE125D42
:1034C600E7900001E0FBA3E0FAA3E0F9122ADAFF95
:1034D600900650E06F60030235AE900001122AF3A9
:1034E600FF900651E06F60030235AE900002122A8B
:1034F600F3FF900652E06F60030235AE90000312B0
:103506002AF3FF900653E06F60030235AE90000584
:10351600E0242FF582E43406F58374FFF09000046E
:10352600E075F020A42400FDE5F03404124F9E124D
:103536005DE77BFF7A267941900654E0FF90003CD8
:10354600E4F0A3EFF0900655E0FF90003EE4F0A310
:10355600EFF0900656E0FF900040E4F0A3EFF01283
:1035660050AD7BFF7A26795D900650E0FF90003CD7
:10357600E4F0A3EFF0900651E0FF90003EE4F0A3E4
:10358600EFF0900652E0FF900040E4F0A3EFF090D9
:103596000653E0FF900042E4F0A3EFF01250AD7B3B
:1035A600FF7A26797D1250AD900005E004F00234D2
:1035B60034900004E075F020A42400FDE5F0340406
:1035C600124F9E125DE7900004E004F002340FD320
:0135D60022D2
:0B35D700900001EBF0A3EAF0A3E9F084
:1035E200E4A3F0A3F0900004F0900004E0FFC39481
:1035F2000840030237B1EF75F020A42400FDE5F086
:103602003405FC124DC0125DE7E4900005F0900015
:1036120005E0FFC394204003023793900001E0FBD2
:10362200A3E0FAA3E0F9122ADA702D900001122A1F
:10363200F37025900002122AF3701D900003122AE3
:10364200F37015742F2FF582E43406F58374FFF0BE
:10365200FB7A267998023787900005E0FD242FF542
:1036620082E43406F583E0600302378A900004E0C6
:1036720075F020A47C002DFFEC35F0FEEF7803C33B
:1036820033CE33CED8F92400FDEE342FFC7B017A01
:1036920006794F90003F7408F07FA0124DCE125D64
:1036A200E7900001E0FBA3E0FAA3E0F9122ADAFFB7
:1036B200900650E06F600302378A900001122AF3ED
:1036C200FF900651E06F600302378A900002122ACF
:1036D200F3FF900652E06F600302378A90000312F4
:1036E2002AF3FF900653E06F600302378A900005C9
:1036F200E0242FF582E43406F58374FFF090000491
:10370200E075F020A42400FDE5F03405124F9E126E
:103712005DE77BFF7A2679B6900654E0FF90003C85
:10372200E4F0A3EFF0900655E0FF90003EE4F0A332
:10373200EFF0900656E0FF900040E4F0A3EFF012A5
:1037420050AD7BFF7A2679D3900650E0FF90003C83
:10375200E4F0A3EFF0900651E0FF90003EE4F0A306
:10376200EFF0900652E0FF900040E4F0A3EFF090FB
:103772000653E0FF900042E4F0A3EFF01250AD7B5D
:10378200FF7A2679F41250AD900005E004F002367B
:1037920010900004E075F020A42400FDE5F034054B
:1037A200124F9E125DE7900004E004F00235EBD365
:0137B20022F4
:1051AA00787B7C067D017BFF7A2779107E007F2041
:1051BA00122AB4E490069BF0A3F090069BE0FEA3AB
:1051CA00E0FFC39438EE94005027EF7805C333CE3E
:1051DA0033CED8F9FDAC067A06797B124FA3125D5D
:1051EA00E790069CE004F070D190069BE004F08002
:0151FA00C9EB
:0151FB002291
:105C3C007F7E125E3C7F03125E3C7F33125E3C7FA4
:095C4C0004125E3C7FEF025E3C95
:065473002401FFE433FEFA
:10547900900048EEF0A3EFF07F7E125E3C7F0412AD
:105489005E3C7F41125E3C900048E0FF125E3C901A
:0D5499000048A3E0FF125E3C7FEF025E3C86
:1059BC00900004EFF07F7E125E3C7F03125E3C7F12
:1059CC0031125E3C900004E075F008A4FF125E3CBE
:0559DC007FEF025E3CBC
:105CDA007F7E125E3C7F02125E3C7F0E125E3C7F2C
:045CEA00EF025E3C2B
:105CEE007F7E125E3C7F02125E3C7F01125E3C7F25
:045CFE00EF025E3C17
:0F416B0090003BA3E0FFA3E0FBA3E0FAA3E0F981
:05417A00900044EFF08D
:10417F00A3EBF0A3EAF0A3E9F0EFD394024003021C
:10418F004284900044E064016017A3E0FBA3E0FACF
:10419F00A3E0F9900002122AF32401FFE433FE801A
:1041AF0021900045E0FBA3E0FAA3E0F99000021292
:1041BF002AF360111254737F1D7E001254797F1EF3
:1041CF007E00125479900044E064016013A3E0FB79
:1041DF00A3E0FAA3E0F9900003122AF32401804E22
:1041EF00900045E0FBA3E0FAA3E0F9900003122A48
:1041FF00F3604264017024900004122AF370047F6C
:10420F000B802E900045E0FBA3E0FAA3E0F99000AD
:10421F0004122AF3240BFFE4338016900045E0FBD1
:10422F00A3E0FAA3E0F9900003122AF32413FFE4AA
:10423F0033FE125479900044E064016011A3E0FB57
:10424F00A3E0FAA3E0F9900004122AF3801F900074
:10425F0045E0FBA3E0FAA3E0F9900004122AF3FF74
:10426F00602F900003122AF364016025EF2401FFF1
