:0300000002503774
:0C503700787FE4F6D8FD75812102507EE0
:104D9F005573617274496E697420436F6D706C65E1
:104DAF00746521200D0A00746D313632395F696EDA
:104DBF00697420436F6D706C65746521200D0A0056
:104DCF00496E69745F54696D65723020436F6D7001
:104DDF006C65746521200D0A00496E69745F546912
:104DEF006D65723120436F6D706C65746521200D98
:104DFF000A006578696E74305F696E697420436F5D
:104E0F006D706C65746521200D0A00447331333069
:104E1F00325F496E697420436F6D706C65746521E4
:104E2F00200D0A004744353830305F696E69746968
:104E3F00616C697A6174696F6E20436F6D706C6518
:074E4F00746521200D0A002B
:10522F00125D6B7BFF7A4D799F1253B81255077B36
:10523F00FF7A4D79B61253B81261647BFF7A4D79BC
:10524F00CF1253B81261907BFF7A4D79E81253B8A1
:10525F001262507BFF7A4E79011253B81261C37BF1
:10526F00FF7A4E791A1253B8125F9F1261747BFF47
:10527F007A4E79331253B875B10CE4F5B27F82FED2
:0B528F001257C112100912004680F8EF
:03002300025F4831
:065F4800C0E0C083C0822E
:105F4E00900495E4F0309802C298309904C299C238
:015F5E000939
:075F5F00D082D083D0E032B4
:03004300025FD089
:105FD000C0E0E59A30E003539AFEE59A30E10553BC
:075FE0009AFDC209D0E03276
:0961CE002009FDEFD209F5992228
:10575500900467EBF0A3EAF0A3E9F0900467E0FB9F
:10576500A3E0FAA3E0F9122F3B6017900467A3E4C6
:1057750075F001122FC7A9F0FA122F3BFF1261CE67
:0357850080D922A6
:0961D7002009FDEFD209F59B221D
:1057880090069DEBF0A3EAF0A3E9F090069DE0FBFC
:10579800A3E0FAA3E0F9122F3B601790069DA3E45B
:1057A80075F001122FC7A9F0FA122F3BFF1261D72B
:0357B80080D92273
:105D6B00E5A2543FF5A253BAFE759850759A50753B
:105D7B00D7C875D6FE758E14438E01D2AC75AF01A4
:035D8B00D2AF2272
:0B53B800900039EBF0A3EAF0A3E9F04D
:1053C3009000647401F0A37400F0A3743CF09000A7
:1053D30039E0F9A3E0FAA3E0900467C9F0A3EAF087
:1053E300A3E9F0900064E0F9A3E0FAA3E090046A73
:1053F300C9F0A3EAF0A3E9F07B017A0079671255BB
:0A540300A97B017A00796702575572
:101DBF006B65795F76616C206973202578202E0D15
:101DCF000A000000000000FF605301020E0F00FF29
:101DDF0000060203011500FF001E0304021900FF95
:101DEF0063230405031D00FF63280506041F00FF7E
:101DFF00632D0607052000FF63320708062100FF49
:101E0F0063370809072600FF633C090A082A00FF09
:101E1F0063410A0B092C00FF63460B0C0A2E00FFCF
:101E2F00634B0C0D0B2F00FF63500D0E0C3000FF9A
:101E3F0063550E010D3100FF635A0F0F0F1001FF95
:101E4F0056711010101101FF58C81111111201FF16
:101E5F0058F01212121301FF5D231313131401FF15
:101E6F005D471414140F01FF59181516183502FF8A
:101E7F0060A11617153902FF60B31718163D02FF40
:101E8F0060C51815174102FF60D7191A1C4503FFCB
:101E9F0060E91A1B194903FF60FB1B1C1A4D03FF56
:101EAF00610D1C191B5103FF611F1D1E1E5204FFE4
:101EBF00635F1E1D1D5304FF63641F1F1F1F05FF5C
:101ECF0061E02020202006FF61E82122255407FF32
:101EDF0063692223215507FF636E2324225607FFD0
:101EEF0063732425235707FF63782521245807FFA1
:101EFF00637D2627295908FF63822728265A08FF62
:101F0F0063872829275B08FF638C2926285C08FF35
:101F1F0063912A2B2B5D09FF61822B2A2A5E09FF11
:101F2F0063962C2D2D000AFF639B2D2C2C000AFF8E
:101F3F0063A02E2E2E000BFF63A52F2F2F000CFF5B
:101F4F0061F0303030000DFF61F8313131000EFF9C
:101F5F0063AA3232323515FF5E833333333215FFC6
:101F6F0000263434343315FF5EA53535353415FF6F
:101F7F005EC73636363916FF59403737373616FFB4
:101F8F005D8E3838383716FF59683939393816FFAA
:101F9F0059903A3A3A3D17FF59B83B3B3B3A17FF36
:101FAF005DB13C3C3C3B17FF59E03D3D3D3C17FFCD
:101FBF005A083E3E3E4118FF5A303F3F3F3E18FF02
:101FCF005DD44040403F18FF5A584141414018FFEF
:101FDF005A804242424519FF5AA84343434219FFD0
:101FEF005DF74444444319FF5AD04545454419FF12
:101FFF005AF8464646491AFF5B20474747461AFF9D
:10200F005E1A484848471AFF5B48494949481AFF32
:10201F005B704A4A4A4D1BFF5B984B4B4B4A1BFF69
:10202F005E3D4C4C4C4B1BFF5BC04D4D4D4C1BFF55
:10203F005BE84E4E4E511CFF5C104F4F4F4E1CFF36
:10204F005E605050504F1CFF5C38515151501CFF77
:10205F005C60525252521DFF6200535353531EFF86
:10206F0062085454545421FF62105555555522FFA0
:10207F0062185656565623FF62205757575724FF5C
:10208F005F665858585825FF62285959595926FFE5
:10209F005CB05A5A5A5A27FF62305B5B5B5B28FF72
:1020AF0062385C5C5C5C29FF62405D5D5D5D2AFFB0
:1020BF005C885E5E5E5E2BFF57205F5F5F5F5FFF3A
:1020CF0062D50000000000000000000000000000CA
:1020DF0000000000000000000000000000000000F1
:0220EF000000EF
:1023C8004105FB004105FC004406000000000144F3
:1023D8000608000000014406110000000144061B25
:1023E800000000014406040000000144060D00003E
:1023F8000001440617000000014406200000000107
:1024080041060C014106160C4106150041061F0045
:1024180041062400410626024106290041062C00F7
:1024280041062E004106250B4106280041062B00D7
:1024380041062D004106270241062A004105F901FF
:0824480041062F014105FA01D4
:104F0900E4900003F0A3F043907C53A007E590548C
:104F19007C641F7003024FA3126174E590547C6492
:104F29007C607712630543907C43A0F853A07FE52A
:104F390090547C647C60639005FB7401F0E59054A7
:104F49007CFF900003E4F0A3EFF0E0F8E4F0E890D0
:104F59000003F0E5A054F8FFA3E02FF0900003E070
:104F69003400F0E0B4780DA3E0B478081262F37F5E
:104F7900011262E7E590547CFFBF7CF8126174E589
:104F890090547CFFBF7CF8E4FF1262E7E4FF1262F1
:0E4F9900FF900003E0FEA3E0FF227E0F7FFFEB
:014FA70022E7
:1052FE00E4900001F0A3F0124F09900001EEF0A32C
:10530E00EFF0F47003EE640F60187BFF7A1D79BF27
:10531E00900001E0FFA3E090003CCFF0A3EFF0126D
:10532E0053B8900001E0FEA3E08EF012300353500C
:10533E005C7853536C7853567478535978780000D0
:10534E00535C7F03227F02227F01227F00227FFF98
:01535E00222C
:10100900E4FF900000F01252FEEF14700302116D1C
:1010190014700302160014700302114724036003BD
:10102900021A2F9005FCE0FF6003B45F181262ED0D
:10103900900000EFF0C394145003021A2F9005FC9E
:1010490074020211409005FCE0FF6442600FEF64F6
:1010590043600AEF64446005EF644570191262ED5C
:10106900900000EFF0C3940A403C7B017A067904B2
:10107900123A0F0211119005FCE0FF6446600FEF70
:101089006447600AEF64486005EF6449701A1262A8
:10109900ED900000EFF0C3940A400B7B017A0679CA
:1010A9000D123BD2806280659005FCE0FF644A60C6
:1010B9000FEF644B600AEF644C6005EF644D701AE2
:1010C9001262ED900000EFF0C3940A400B7B017AA5
:1010D900067917123657803080339005FCE0FF649B
:1010E9004E600FEF644F600AEF64506005EF645182
:1010F900702E1262ED900000EFF0C3940A400E7B4F
:10110900017A067920123833126174802B9005FC1C
:10111900E075F008A424D4F582E5F0341D021A27FD
:101129009005FCE075F008A424D4F582E5F0341D9F
:10113900F583E4939005FCF01262F3021A2F9005EF
:10114900FCE0B45F0C1262CFEF6006125140021A44
:101159002F9005FCE075F008A424D5F582E5F0345C
:101169001D021A279005FCE0122FDD12200F123202
:101179001012421112521212621312741414E51F42
:1011890014F72015DC2F15CA301286321298331243
:10119900AA3412BC3512CE3612E03712F2381304D3
:1011A9003913163A13283B133A3C134C3D135E3E50
:1011B90013703F13824013944113A64213B843138B
:1011C900CA4413DC4513EE4614004714124814248C
:1011D9004914364A14484B145A4C146C4D147E4E1B
:1011E90014904F14A25014B45114C55214D5531568
:1011F9000954151B55152B56153E57154F58156093
:101209005915715A15815B15915C15A15D15B25E71
:1012190015C55F000015ED90067DE0B46305E4F0A7
:101229000215ED90067D0215C090067EE0B40C0310
:101239000214DC90067E0215C090067FE0B41F03FD
:101249000214DC90067F0215C0900683E0B4070300
:101259000214DC9006830215C0900680E0B41705DD
:10126900E4F00215ED9006800215C0900681E0B405
:101279003B05E4F00215ED9006810215C0900600C9
:10128900E0B41405E4F00215ED9006000215C090D3
:101299000601E0B40905E4F00215ED900601021516
:1012A900C0900602E0B40905E4F00215ED900602CB
:1012B9000215C0900603E0B40905E4F00215ED90AB
:1012C90006030215C0900608E0B41405E4F00215FF
:1012D900ED9006080215C0900609E0B40905E4F08E
:1012E9000215ED9006090215C090060AE0B4090539
:1012F900E4F00215ED90060A0215C090060BE0B461
:101309000905E4F00215ED90060B0215C0900611CF
:10131900E0B41405E4F00215ED9006110215C09031
:101329000612E0B40905E4F00215ED900612021563
:10133900C0900613E0B40905E4F00215ED90061318
:101349000215C0900614E0B40905E4F00215ED9009
:1013590006140215C090061BE0B41405E4F002154A
:10136900ED90061B0215C090061CE0B40905E4F0D7
:101379000215ED90061C0215C090061DE0B4090582
:10138900E4F00215ED90061D0215C090061EE0B4AA
:101399000905E4F00215ED90061E0215C090060439
:1013A900E0B41405E4F00215ED9006040215C090AE
:1013B9000605E0B40905E4F00215ED9006050215ED
:1013C900C0900606E0B40905E4F00215ED900606A2
:1013D9000215C0900607E0B40905E4F00215ED9086
:1013E90006070215C090060DE0B41405E4F00215D5
:1013F900ED90060D0215C090060EE0B40905E4F063
:101409000215ED90060E0215C090060FE0B409050D
:10141900E4F00215ED90060F0215C0900610E0B435
:101429000905E4F00215ED9006100215C0900617A3
:10143900E0B41405E4F00215ED9006170215C0900A
:101449000618E0B40905E4F00215ED900618021536
:10145900C0900619E0B40905E4F00215ED900619EB
:101469000215C090061AE0B40905E4F00215ED90E2
:10147900061A0215C0900620E0B41405E4F002151E
:10148900ED9006200215C0900621E0B40905E4F0AC
:101499000215ED9006210215C0900622E0B4090557
:1014A900E4F00215ED9006220215C0900623E0B47F
:1014B9000904E4F08006900623E004F090060CE0AD
:1014C900B401030215A890060C0215EA900616E06D
:1014D900B414030215EA9006160215C0900615E029
:1014E900B46305E4F00215ED9006150215C09006E7
:1014F9001FE0B46305E4F00215ED90061F0215C064
:10150900900624E0B40505E4F00215ED90062402E6
:1015190015C0900626E0B409030215EA90062602D2
:1015290015C0900629E0700504F00215EDE4900657
:1015390029F00215ED90062CE0B40905E4F0021536
:10154900ED90062C807190062EE0B40705E4F002B8
:1015590015ED90062E8060900625E0B40B05E4F0A9
:101569000215ED900625804F900628E0B40B04E49F
:10157900F08071900628803F90062BE0B40B04E4BC
:10158900F0806190062B802F90062DE0B40B04E4C7
:10159900F0805190062D801F900627E0B401057454
:1015A90002F08040900627803890062AE0B42B0488
:1015B900E4F0803090062AE004F08028124B338052
:1015C9002390062FE0B401057402F0800690062FDF
:1015D9007401F09005F9E0B40104E4F08006900587
:1015E900F97401F09005FCE075F008A424D2F582A5
:1015F900E5F0341D021A279005FCE0122FDD16B321
:101609000F16C21016D51116E81216F813170A1478
:10161900191E1F192C201A062F19F430171C3217FE
:101629002B33173A34174935175836176737177652
:101639003817853917943A17A33B17B23C17C13DA0
:1016490017D03E17DF3F17EE4017FD41180C42181F
:101659001B43182A4418394518484618574718662D
:101669004818754918844A18934B18A24C18B14D5B
:1016790018C04E18CE4F18DD5018EC5118FB5219EE
:101689000B53193E54195055195F5619725719833E
:101699005819945919A15A19AE5B19BB5C19CB5D3C
:1016A90019DC5E19EF5F00001A1790067DE07003E0
:1016B90002193290067D0219EA90067EE0B401060D
:1016C900740CF0021A1790067E0219EA90067FE060
:1016D900B40106741FF0021A1790067F0219EA90E6
:1016E9000683E0B401030219899006830219EA907E
:1016F9000680E070067417F0021A17900680021926
:10170900EA900681E07006743BF0021A1790068190
:101719000219EA900600E07003021912900600020D
:1017290019EA900601E0700302197890060102197E
:10173900EA900602E070030219789006020219EA9B
:10174900900603E070030219789006030219EA90E3
:101759000608E070030219129006080219EA9006B9
:1017690009E070030219789006090219EA90060A3D
:10177900E0700302197890060A0219EA90060BE054
:10178900700302197890060B0219EA900611E070AD
:10179900030219129006110219EA900612E0700369
:1017A9000219789006120219EA900613E0700302F2
:1017B90019789006130219EA900614E070030219C9
:1017C900789006140219EA90061BE07003021912B8
:1017D90090061B0219EA90061CE070030219789022
:1017E900061C0219EA90061DE0700302197890069A
:1017F9001D0219EA90061EE0700302197890061E70
:101809000219EA900604E070030219129006040214
:1018190019EA900605E07003021978900605021985
:10182900EA900606E070030219789006060219EAA2
:10183900900607E070030219789006070219EA90EA
:10184900060DE0700302191290060D0219EA9006BE
:101859000EE0700302197890060E0219EA90060F3D
:10186900E0700302197890060F0219EA900610E059
:1018790070030219789006100219EA900617E070B1
:10188900030219129006170219EA900618E070036C
:101899000219789006180219EA900619E0700302F5
:1018A90019789006190219EA90061AE070030219CC
:1018B9007890061A0219EA900620E07002804A9090
:1018C90006200219EA900621E070030219789006B1
:1018D900210219EA900622E0700302197890062283
:1018E9000219EA900623E070030219789006230290
:1018F90019EA90060CE0B401030219D290060C0211
:101909001A14900616E0B401067414F0021A17901E
:1019190006160219EA900615E07002800C90061569
:101929000219EA90061FE070067463F0021A179014
:10193900061F0219EA900624E070067405F0021ADF
:10194900179006240219EA900626E0B40102801FC6
:101959009006260219EA900629E0700504F0021A99
:1019690017E4900629F0021A1790062CE070067405
:1019790009F0021A1790062C806790062EE070066F
:101989007407F0021A1790062E8056900625E0700B
:101999000280259006258049900628E0700280186B
:1019A900900628803C90062BE07002800B90062B55
:1019B900802F90062DE07005740BF0805190062D54
:1019C900801F900627E0B401057402F0804090065C
:1019D90027803890062AE07005742BF08030900635
:1019E9002AE014F08028124C0B802390062FE0B4D3
:1019F90001057402F0800690062F7401F09005F934
:101A0900E0B40104E4F080069005F97401F0900552
:101A1900FCE075F008A424D3F582E5F0341DF583C4
:101A2900E4939005FCF09005FCE075F008A424D639
:101A3900F582E5F0341DF583E493FB740193FA74A0
:101A49000293F99005FDEBF0A3EAF0A3E9F0023067
:011A5900305C
:0D6174007F047E347DDCDDFEDEFADFF60008
:0161810022FB
:056257009005FCE0FFD2
:01625C00221F
:06625D009005FCEFF022A9
:0562630090060CE0FFB5
:016268002213
:05626900900616E0FFA5
:01626E00220D
:05626F00900615E0FFA0
:016274002207
:0562750090061FE0FF90
:01627A002201
:05627B00900624E0FF85
:0162800022FB
:05628100900626E0FF7D
:0162860022F5
:05628700900629E0FF74
:01628C0022EF
:05628D0090062CE0FF6B
:0162920022E9
:0562930090062EE0FF63
:0162980022E3
:05629900900625E0FF66
:01629E0022DD
:05629F00900628E0FF5D
:0162A40022D7
:0562A50090062BE0FF54
:0162AA0022D1
:0562AB0090062DE0FF4C
:0162B00022CB
:0562B100900627E0FF4C
:0162B60022C5
:0562B70090062AE0FF43
:0162BC0022BF
:0562BD009005FBE0FF6D
:0162C20022B9
:0662C3009005FBEFF02244
:0562C90090062FE0FF2C
:0162CE0022AD
:0562CF009005F9E0FF5D
:0162D40022A7
:105FB80000000000000000000000000000000000D9
:085FC8000000000000000000D1
:102450005504C93F065B4F666D7D077F6F777C39FA
:102460005E797176385C733E4805EE01020408100F
:102470002040804205F640006030049900000000D2
:10248000000000000000000000000000000000004C
:10249000000000000000000000000000000000003C
:1024A00000000000000000000000000060F004EEEA
:1024B000000000000000000000000000000000001C
:1024C000000000000000000000000000000000000C
:1024D00000000000000000000000000000000000FC
:1024E00000000000000000000000000000000000EC
:1024F00000000000000000000000000000000000DC
:1025000000000000000000000000000000000000CB
:1025100000000000000000000000000000000000BB
:1025200000000000000000000000000000000000AB
:10253000000000000000000000000000000000009B
:10254000000000000000000000000000000000008B
:10255000000000000000000000000000000000007B
:10256000000000000000000000000000000000006B
:10257000000000000000000000000000000000005B
:10258000000000000000000000000000000000004B
:10259000000000000000000000000000000000003B
:1025A000410498004105F8005005DE0101010101D8
:1025B00001010101010101010101015004DE0100DD
:0E25C0000301020101010101010101010101FC
:10581E00C282E4FDFCC280EF30E004D2818002C27D
:10582E008100000000D280EFC313FF0DBD00010CFC
:0A583E00ED64084C70DFC280C281E7
:01584800223D
:10584900C283E4FDFCC280EF30E004D2818002C251
:105859008100000000D280EFC313FF0DBD00010CD1
:0A586900ED64084C70DFC280C281BC
:015873002212
:10587400C2CCE4FDFCC280EF30E004D2818002C2DD
:105884008100000000D280EFC313FF0DBD00010CA6
:0A589400ED64084C70DFC280C28191
:01589E0022E7
:0D000E00D282000000000000C28202581ED5
:0D619E00D283000000000000C283025849B7
:0D61AB00D2CC000000000000C2CC025874ED
:054E5600E490049BF054
:104E5B00126293AE077F4012000E7FC012000EE469
:104E6B00FB74992BF582E43404F583E0FF12581E92
:104E7B0074A12BF582E43404F583E0FF12581E0B6A
:104E8B00EBB408DDEE2488FF12000ED2827F4012B5
:104E9B00619E7FC012619EE4FB74A92BF582E43402
:104EAB0004F583E0FF12584974B12BF582E4340406
:104EBB00F583E0FF1258490BEBB408DDEE2488FFB5
:104ECB0012619ED2837F401261AB7FC01261ABE453
:104EDB00FB74B92BF582E43404F583E0FF125874AC
:104EEB0074C12BF582E43404F583E0FF1258740B84
:0D4EFB00EBB408DDEE2488FF1261ABD2CCD1
:014F08002286
:10550700E4900000F0E4FFE4FE900000E024EEF5F4
:1055170082E43405F583E0FDEF75F008A42499F5DE
:1055270082E43404F583E5822EF582E43583F5833E
:10553700EDF00EEEB408D20FEFB406CB124E5B7F40
:105547001E12608F900000E004F0E0C3940840B59D
:015557002231
:10608F00EFD39400400B7EFF7DFFDDFEDEFA1F8015
:01609F00EF11
:0160A00022DD
:10589F00E4FFE4FEEF75F008A42499F582E43404E4
:1058AF00F583E5822EF582E43583F583E4F00EEE81
:0858BF00B408E10FEFB406DAB2
:0158C70022BE
:0A61B8007F789004EEE4F0A3DFFC12
:0161C20022BA
:1056EB00E4FF1262DBEF6401702A12589F9004985A
:1056FB00E05403FF2499F582E43404F5837440F0FD
:10570B00124E5BE4FF1262E1900498E004F0E0B407
:04571B000402E4F0B0
:01571F002267
:1047800012589F1251B89004CBE09004A8F0900406
:10479000C9E09004A7F090067DE0FF75F00A84243C
:1047A000C9F582E43404F583E09004A6F0EF75F0D7
:1047B0000A8474C925F0F582E43404F583E090049A
:1047C000A5F09004A47440F090067EE0FF75F00A16
:1047D0008424C9F582E43404F583E09004A3F0EF67
:1047E00075F00A8474C925F0F582E43404F583E099
:1047F0009004A2F09004A17440F090067FE0FF7551
:10480000F00A8424C9F582E43404F583E09004A01E
:10481000F0EF75F00A8474C925F0F582E43404F5EC
:1048200083E090049FF0900683E024C9F582E4348D
:1048300004F583E090049EF0900680E0FF75F00A96
:104840008424C9F582E43404F583E090049CF0EFFD
:1048500075F00A8474C925F0F582E43404F583E028
:1048600090049BF0900681E0FF75F00A8424C9F55E
:1048700082E43404F583E090049AF0EF75F00A8442
:1048800074C925F0F582E43404F583E0900499F0CE
:03489000024E5B7A
:105F0A00AD0712589F9004D8E090049AF074C92DF6
:0F5F1A00F582E43404F583E0900499F0024E5BC5
:105F2900AD0712589F9004D7E090049AF074C92DD8
:0F5F3900F582E43404F583E0900499F0024E5BA6
:10603F0012589F9004C9E090049AF09004997454F8
:04604F00F0024E5BB2
:105FFE0012589F9004C9E090049AF09004D8E09053
:06600E000499F0024E5B54
:105FE700AD0712589F74C92DF582E43404F583E098
:075FF700900499F0024E5BDB
:1057EE00AD0712589FED75F00A8424C9F582E43492
:1057FE0004F583E090049AF0ED75F00A8474C925DF
:10580E00F0F582E43404F583E0900499F0024E5BE7
:06535F007B017A067900D3
:1053650012589F122F3B24C9F582E43404F583E0DB
:1053750090049CF0900001122F5424C9F582E43466
:1053850004F583E090049BF0900002122F5424C989
:10539500F582E43404F583E090049AF0900003125A
:1053A5002F5424C9F582E43404F583E0900499F080
:0353B500024E5B4A
:1042670012589F900530E060179000437401F0A347
:104277007405F0A37430F07B017A0479C8124CE11D
:1042870090052AE060179000437401F0A37405F0CD
:10429700A3742AF07B017A0479C4124CE1900524B7
:1042A700E060179000437401F0A37405F0A3742431
:1042B700F07B017A0479C0124CE190051EE060178B
:1042C7009000437401F0A37405F0A3741EF07B0102
:1042D7007A0479BC124CE1900518E060179000430E
:1042E7007401F0A37405F0A37418F07B017A0479C4
:1042F700B8124CE1900512E060179000437401F08A
:10430700A37405F0A37412F07B017A0479B4124CFC
:10431700E190050CE060179000437401F0A3740569
:10432700F0A3740CF07B017A0479B0124CE190058C
:1043370006E060179000437401F0A37405F0A374BE
:1043470006F07B017A0479AC124CE1900500E0603D
:10435700179000437401F0A37405F0A37400F07B79
:10436700017A0479A8124CE19004FAE060179000F2
:10437700437401F0A37404F0A374FAF07B017A0488
:1043870079A4124CE19004F4E060179000437401A3
:10439700F0A37404F0A374F4F07B017A0479A012FB
:1043A7004CE19004EEE060179000437401F0A374B1
:1043B70004F0A374EEF07B017A04799C124CE1229D
:104CE100900040EBF0A3EAF0A3E9F0A3E0FBA3E01E
:104CF100FAA3E0F9900001122F5424C9F582E4349B
:104D010004F583E0FF900040E0FBA3E0FAA3E0F9A3
:104D1100EF122F81900043E0FBA3E0FAA3E0F990AA
:104D21000002122F5424C9F582E43404F583E0FF14
:104D3100900040E0FBA3E0FAA3E0F990FFFFEF123F
:104D41002F93900043E0FBA3E0FAA3E0F990000366
:104D5100122F5424C9F582E43404F583E0FF900056
:104D610040E0FBA3E0FAA3E0F990FFFEEF122F93DE
:104D7100900043E0FBA3E0FAA3E0F9900004122FB6
:104D81005424C9F582E43404F583E0FF900040E047
:0E4D9100FBA3E0FAA3E0F990FFFDEF022F93E1
:10497E00900034EBF0A3EAF0A3E9F0A3E0FBA3E090
:10498E00FAA3E0F9122F3BFF900034E0FBA3E0FA0C
:10499E00A3E0F9EF122F81900037E0FBA3E0FAA31A
:1049AE00E0F9900001122F54FF900034E0FBA3E0D9
:1049BE00FAA3E0F9900001EF122F93900037E0FB7D
:1049CE00A3E0FAA3E0F9900002122F54FF900034F6
:1049DE00E0FBA3E0FAA3E0F9900002EF122F939010
:1049EE000037E0FBA3E0FAA3E0F9900003122F5486
:1049FE00FF900034E0FBA3E0FAA3E0F9900003EF90
:104A0E00122F93900037E0FBA3E0FAA3E0F9900099
:104A1E0004122F54FF900034E0FBA3E0FAA3E0F958
:104A2E00900004EF122F93900037E0FBA3E0FAA35F
:104A3E00E0F9900007122F54FF900034E0FBA3E042
:0B4A4E00FAA3E0F9900005EF022F939F
:0F540D00EF75F006A424E2F9740435F0FA7B0180
:10541C00122F3B900006122F93900001122F5490E4
:10542C000007122F93900002122F54900008122F95
:10543C0093900003122F54900009122F93900004A4
:10544C00122F5490000A122F93900005122F549093
:05545C00000B022F937C
:0F546100EE75F006A424EEF9740435F0FA7B0121
:10547000900006122F54122F81900007122F549083
:105480000001122F93900008122F54900002122F47
:1054900093900009122F54900003122F9390000A4A
:1054A000122F54900004122F9390000B122F54903F
:0554B0000005022F932E
:1043C70078387C007D017BFF7A5F79B87E007F06B5
:1043D700122F15E490003EF0A3F012628790003E82
:1043E700EFF012627B90003FEFF01262759000369B
:1043F700EFF012626F900037EFF01262F99000371A
:10440700E0FE900036E0FDC39E500AEF9D4006EEA9
:104417006003E0701B900037E060030245229000C4
:1044270036E0FE7003024522EFD39E500302452279
:10443700E4900034F0900034E0FFC3940A5021EF79
:1044470075F006A424EEF582E43404F583E07008E1
:10445700900034E0A3F08008900034E004F080D5A9
:10446700E4900034F0900034E0FFA3E075F006A478
:104477002FF582E435F0F583E58224E8F582E583BC
:104487003404F583E0FE74382FF582E43400F583B5
:10449700EEF0900034E004F0E0B406C9900035E097
:1044A700900034F0900034E0FFD39401400B125495
:1044B7000D900034E014F080EBE4900034F09000AD
:1044C70034E0FF2438F582E43400F583E0FE74EE2F
:1044D7002FF582E43404F583EEF0900034E004F025
:1044E700E0B406DA124267124E5BE4FF1262FF90F5
:1044F700003EE0B401257B017A0479EE9004EEE0FA
:10450700FD900044E4F0A3EDF09004F3E0540F9025
:0B4517000046F090003FE0FF122C2453
:014522002276
:10465F00E490003AF0A3F0126275900035EFF0127B
:10466F00626F900036EFF01262F9900037EFF012A0
:10467F006269900038EFF0126263900039EFF01228
:10468F00628190003BEFF0900035E0FFA3E0FEC3A6
:10469F009F500EA3E09E4009EF6006900036E07039
:1046AF001A900035E0600302477FA3E0FF7003021A
:1046BF00477FA3E0D39F500302477FE4900034F07D
:1046CF00900038E014FF900034E0FEC39F500B12AF
:1046DF005461900034E004F080E6900038E01475E7
:1046EF00F006A4900034F0900038E075F006A4FFB7
:1046FF00900034E0FDC39FE5F06480F8748098501B
:10470F001474EE2DF582E43404F583E4F090003454
:10471F00E004F080D2124267124E5BE4FF1262FF98
:10472F009004EEE07004FF02625D900039E06402D5
:10473F00703E900034F090003BE0FF900034E0C3F7
:10474F009F502D7B017A0479EE9004EEE0FD9000EE
:10475F0044E4F0A3EDF09004F3E0540F900046F022
:10476F0090003AE0FF122C24900034E004F080C651
:01477F002217
:10514000E4900002F0126269900002EFF0E4900037
:1051500001F0900002E014FF900001E0FEC39F50B8
:105160000B125461900001E004F080E6900002E030
:105170001475F006A4900001F0900002E075F006AE
:10518000A4FF900001E0FDC39FE5F06480F8748007
:1051900098501474EE2DF582E43404F583E4F09015
:1051A0000001E004F080D2124267124E5B9004EEE0
:0751B000E07004FF12625DD4
:0151B70022D5
:104B330078037C007D017BFF7A5F79BE7E007F0670
:104B4300122F15126269900002EFF0126269E4906D
:104B53000001F0900001E0FEC39F5020EE75F006C7
:104B6300A424EEF582E43404F583E0700790000298
:104B7300EEF08008900001E004F080D7E49000019B
:104B8300F0900001E0FF24EEF582E43404F583E0C5
:104B9300FE74032FF582E43400F583EEF0900001F8
:104BA300E004F0E0B406DAE4900001F0900002E0E3
:104BB300FF900001E0FEC39F500B1254619000016F
:104BC300E004F080E7E4900001F0900001E0FF24AE
:104BD30003F582E43400F583E0FE900002E075F013
:104BE30006A42FF582E435F0F583E58224E8F58207
:104BF300E5833404F583EEF0900001E004F0E0B4C3
:084C030006C8124267024E5B75
:104C0B0078037C007D017BFF7A5F79C47E007F0691
:104C1B00122F15126269900002EFF0126269E49094
:104C2B000001F0900001E0FEC39F5020EE75F006EE
:104C3B00A424EEF582E43404F583E07007900002BF
:104C4B00EEF08008900001E004F080D7E4900001C2
:104C5B00F0900001E0FFA3E075F006A42FF582E4CD
:104C6B0035F0F583E58224E8F582E5833404F5839A
:104C7B00E0FE74032FF582E43400F583EEF0900030
:104C8B0001E004F0E0B406C9900002E0900001F0EE
:104C9B00900001E0FFD39401400B12540D900001E2
:104CAB00E014F080EBE4900001F0900001E0FF24B1
:104CBB0003F582E43400F583E0FE74EE2FF582E415
:104CCB003404F583EEF0900001E004F0E0B406DA72
:064CDB00124267024E5B6D
:0B3D9000900034EBF0A3EAF0A3E9F090
:103D9B00783D7C007D017BFF7A5F79CA7E007F06D0
:103DAB00122F1512626990003BEFF01262699000BE
:103DBB003CEFF0E490003AF090003CE0FF90003ACA
:103DCB00E0FEC39F4003023EA3EE75F006A4FFAED8
:103DDB00F0900037E0FBA3E0FAA3E02FF9EA3EFAFC
:103DEB00900001122F54FD900034E0FBA3E0FAA3E6
:103DFB00E0F9900001122F546D6003023E9A90007F
:103E0B0037E0FBA3E0FAA3E02FF9EA3EFA900002B9
:103E1B00122F54FF900034E0FBA3E0FAA3E0F990DB
:103E2B000002122F546F706790003AE075F006A4F1
:103E3B00FFAEF0900037E0FBA3E0FAA3E02FF9EA26
:103E4B003EFA900003122F54FD900034E0FBA3E0E8
:103E5B00FAA3E0F9900003122F54B5053290003706
:103E6B00E0FBA3E0FAA3E02FF9EA3EFA900004127C
:103E7B002F54FF900034E0FBA3E0FAA3E0F990008D
:103E8B0004122F54B5070890003AE0A3F080099074
:103E9B00003AE004F0023DC390003BE090003AF0A2
:103EAB0090003CE0FF90003AE0FEC39F5021EE757E
:103EBB00F006A4FF900037E0FBA3E0FAA3E02FF994
:103ECB00EA35F0FA12547090003AE004F080D19089
:103EDB00003CE0FF90003BE06F603DE490003AF067
:103EEB0090003CE024FFFFE434FFFE7C007D0612D3
:103EFB002FB5900037E0FBA3E0FAA3E02FF9EA3EE1
:103F0B00FAA3E07E0029F9EE3AFAE4122F81900031
:103F1B003AE004F0E0B406C8900037E0FBA3E0FA07
:0C3F2B00A3E0F9122F3B7004FF12625D4E
:013F37002267
:10605300E4FF1262C9EFB401051256EB8003124745
:04606300800261B89E
:05000600E4FF025F0AA7
:05001E007F01025F0AF2
:056323007F02025F0A89
:056328007F03025F0A83
:05632D007F04025F0A7D
:056332007F05025F0A77
:056337007F06025F0A71
:05633C007F07025F0A6B
:056341007F08025F0A65
:056346007F09025F0A5F
:05634B007F0A025F0A59
:056350007F0B025F0A53
:056355007F0C025F0A4D
:05635A007F0D025F0A47
:105671001262C9EFB401057F0102625D1262DBBFF4
:1056810001081247807F021262E11262DBBF031937
:10569100E49004A8F09004A7F09004A6F09004A56B
:0C56A100F0124E5BE4FF1262E1124FA811
:0156AD0022DA
:1058C8001262DBBF01081247807F021262E1126296
:1058D800DBBF0311E49004A3F09004A2F0124E5B26
:0858E800E4FF1262E1024FA887
:1058F0001262DBBF01081247807F021262E112626E
:10590000DBBF0311E49004A0F090049FF0124E5B03
:08591000E4FF1262E1024FA85E
:105D23001262DBBF01081247807F021262E1126236
:105D3300DBBF030DE490049EF0124E5BE4FF12629E
:045D4300E1024FA882
:105D47001262DBBF01081247807F021262E1126212
:105D5700DBBF030DE490049CF0124E57E4FF126280
:045D6700E1024FA85E
:105918001262DBBF01081247807F021262E1126245
:10592800DBBF0311E490049AF0900499F0124E5BE7
:08593800E4FF1262E1024FA836
:1060A1007F01125F29E4900600F0A3F0A3F0A3049E
:0260B100F022DB
:1060B3007F02125F29E4900608F0A3F0A3F0A30483
:0260C300F022C9
:1060C5007F03125F29E4900611F0A3F0A3F0A30467
:0260D500F022B7
:1060D7007F04125F29E490061BF0A3F0A3F0A3044A
:0260E700F022A5
:1060E9007F01125F29E4900604F0A3F0A3F0A30452
:0260F900F02293
:1060FB007F02125F29E490060DF0A3F0A3F0A30436
:02610B00F02280
:10610D007F03125F29E4900617F0A3F0A3F0A30418
:02611D00F0226E
:10611F007F04125F29E4900620F0A3F0A3F0A304FC
:02612F00F0225C
:05635F007F01025F292F
:056364007F02025F2929
:0861E000E4FF12626F0257EEAA
:0861E800E4FF1262750257EE9C
:056369007F01025F2925
:05636E007F02025F291F
:056373007F03025F2919
:056378007F04025F2913
:05637D007F05025F290D
:056382007F01025F290C
:056387007F02025F2906
:05638C007F03025F2900
:056391007F04025F29FA
:0E6182007F01125F291262B19005F8EFF02242
:056396007F02025F29F7
:05639B007F01025F29F3
:0563A0007F02025F29ED
:0563A5007F0F025F0AFA
:0861F000E4FF1262CF025FE739
:0861F800E4FF1262C9025FE737
:0563AA007F0F025F0AF5
:105E83001262DBBF010812535F7F021262E11262EA
:105E9300DBBF030DE490049CF0124E5BE4FF12623F
:025EA300E122FA
:100026001262DBBF010812535F7F021262E11262A5
:0D003600DBBF0308124E56E4FF1262E12208
:105EA5001262DBBF010812535F7F021262E11262C8
:105EB500DBBF030DE490049AF0124E5BE4FF12621F
:025EC500E122D8
:105EC7001262DBBF010812535F7F021262E11262A6
:105ED700DBBF030DE4900499F0124E5BE4FF1262FE
:025EE700E122B6
:105940001262DBBF010E7B017A0679081253657F74
:10595000021262E11262DBBF030DE490049CF012BC
:085960004E5BE4FF1262E1223C
:105D8E001262DBBF010E7B017A0679081253657F22
:105D9E00021262E11262DBBF0308124E56E4FF12DA
:035DAE0062E1228D
:105968001262DBBF010E7B017A0679081253657F4C
:10597800021262E11262DBBF030DE490049AF01296
:085988004E5BE4FF1262E12214
:105990001262DBBF010E7B017A0679081253657F24
:1059A000021262E11262DBBF030DE4900499F0126F
:0859B0004E5BE4FF1262E122EC
:1059B8001262DBBF010E7B017A0679111253657FF3
:1059C800021262E11262DBBF030DE490049CF01244
:0859D8004E5BE4FF1262E122C4
:105DB1001262DBBF010E7B017A0679111253657FF6
:105DC100021262E11262DBBF0308124E56E4FF12B7
:035DD10062E1226A
:1059E0001262DBBF010E7B017A0679111253657FCB
:1059F000021262E11262DBBF030DE490049AF0121E
:085A00004E5BE4FF1262E1229B
:105A08001262DBBF010E7B017A0679111253657FA2
:105A1800021262E11262DBBF030DE4900499F012F6
:085A28004E5BE4FF1262E12273
:105A30001262DBBF010E7B017A06791B1253657F70
:105A4000021262E11262DBBF030DE490049CF012CB
:085A50004E5BE4FF1262E1224B
:105DD4001262DBBF010E7B017A06791B1253657FC9
:105DE400021262E11262DBBF0308124E56E4FF1294
:035DF40062E12247
:105A58001262DBBF010E7B017A06791B1253657F48
:105A6800021262E11262DBBF030DE490049AF012A5
:085A78004E5BE4FF1262E12223
:105A80001262DBBF010E7B017A06791B1253657F20
:105A9000021262E11262DBBF030DE4900499F0127E
:085AA0004E5BE4FF1262E122FB
:105AA8001262DBBF010E7B017A0679041253657F0F
:105AB800021262E11262DBBF030DE490049CF01253
:085AC8004E5BE4FF1262E122D3
:105DF7001262DBBF010E7B017A0679041253657FBD
:105E0700021262E11262DBBF0308124E56E4FF1270
:035E170062E12223
:105AD0001262DBBF010E7B017A0679041253657FE7
:105AE000021262E11262DBBF030DE490049AF0122D
:085AF0004E5BE4FF1262E122AB
:105AF8001262DBBF010E7B017A0679041253657FBF
:105B0800021262E11262DBBF030DE4900499F01205
:085B18004E5BE4FF1262E12282
:105B20001262DBBF010E7B017A06790D1253657F8D
:105B3000021262E11262DBBF030DE490049CF012DA
:085B40004E5BE4FF1262E1225A
:105E1A001262DBBF010E7B017A06790D1253657F90
:105E2A00021262E11262DBBF0308124E56E4FF124D
:035E3A0062E12200
:105B48001262DBBF010E7B017A06790D1253657F65
:105B5800021262E11262DBBF030DE490049AF012B4
:085B68004E5BE4FF1262E12232
:105B70001262DBBF010E7B017A06790D1253657F3D
:105B8000021262E11262DBBF030DE4900499F0128D
:085B90004E5BE4FF1262E1220A
:105B98001262DBBF010E7B017A0679171253657F0B
:105BA800021262E11262DBBF030DE490049CF01262
:085BB8004E5BE4FF1262E122E2
:105E3D001262DBBF010E7B017A0679171253657F63
:105E4D00021262E11262DBBF0308124E56E4FF122A
:035E5D0062E122DD
:105BC0001262DBBF010E7B017A0679171253657FE3
:105BD000021262E11262DBBF030DE490049AF0123C
:085BE0004E5BE4FF1262E122BA
:105BE8001262DBBF010E7B017A0679171253657FBB
:105BF800021262E11262DBBF030DE4900499F01215
:085C08004E5BE4FF1262E12291
:105C10001262DBBF010E7B017A0679201253657F89
:105C2000021262E11262DBBF030DE490049CF012E9
:085C30004E5BE4FF1262E12269
:105E60001262DBBF010E7B017A0679201253657F37
:105E7000021262E11262DBBF0308124E56E4FF1207
:035E800062E122BA
:105C38001262DBBF010E7B017A0679201253657F61
:105C4800021262E11262DBBF030DE490049AF012C3
:085C58004E5BE4FF1262E12241
:105C60001262DBBF010E7B017A0679201253657F39
:105C7000021262E11262DBBF030DE4900499F0129C
:085C80004E5BE4FF1262E12219
:08620000E4FF126263025FE794
:08620800E4FF1262690257EE87
:08621000E4FF12627B025FE76C
:08621800E4FF126281025FE75E
:08622000E4FF126287025FE750
:105F6600E4900003F012628D900003EFF075F003E9
:0D5F7600A4FF125EE9900003E0FF025FE768
:08622800E4FF126293025FE73C
:105CB000E4900003F0126299900003EFF0C3940A9D
:105CC0005005E0FF025FE7900003E0C3940B500330
:065CD00002603F125FFEBE
:015CD60022AB
:08623000E4FF12629F025FE728
:08623800E4FF1262A5025FE71A
:08624000E4FF1262AB025FE70C
:105C8800E4900003F01262B1900003EFF0125FE7B6
:105C98009005F8E0FF900003E06F600B1254B59098
:075CA8000003E09005F8F095
:015CAF0022D2
:10572000E4900003F01262B7900003EFF01257EE1E
:105730001262BDBF011E1261741260671261749023
:105740000003E02442FFE433FE1257C1126174E407
:04575000FF1262C31F
:015754002232
:0662D500124267024E5B5D
:1025CE0041068E004106930041069100410692009D
:1025DE0041068F0041068C00410694004106900092
:0425EE0041068D0015
:10616400438901758C3C758AB0D2AFD2A9D28C22F6
:0E619000438910758DFF758B9CD2AFD2AB2268
:03000B0002489315
:10489300C0E0C0F0C083C082C0D075D000C000C0EB
:0D48A30001C002C003C004C005C006C0076C
:1048B000900496E4F0A3F0C28D758C3C758AB0121A
:1048C0006257900496EFF01262C9900497EFF0904F
:1048D000068EE004F0E0B40A0B900693E004F0903A
:1048E000068EE4F0900693E0C394044002E4F09056
:1048F0000691E0B40104A3E004F0126317BF0114B1
:1049000090068FE004F0E0D39478400812631D9085
:10491000068FE4F0900496E0FFB45F1590068CE0FB
:1049200004F0E0B4140B900694E004F090068CE4DC
:10493000F0EF645F6012900690E004F0E0D394C85A
:104940004006E4F0FF12625D900496E07015A3E06B
:10495000B4021090068DE004F0E0C3940A4004B263
:03496000CDE4F0B3
:10496300D007D006D005D004D003D002D001D000A8
:0B497300D0D0D082D083D0F0D0E03252
:03001B0002555833
:10555800C0E0C0F0C083C082C0D075D000C000C019
:0D55680001C002C003C004C005C006C0079A
:10557500E4FF126257C28F758DFF758B9CEFB42EB9
:095585000512297080031240E0B8
:10558E00D007D006D005D004D003D002D001D00071
:0B559E00D0D0D082D083D0F0D0E0321B
:0562DB00900693E0FFB6
:0162E000229B
:0662E100900693EFF0228D
:0662E700900691EFF02289
:0562ED00900692E0FFA5
:0162F2002289
:0662F300E4900692F02287
:0562F900900694E0FF97
:0162FE00227D
:0662FF00900694EFF0226E
:06630500E4900690F02276
:0B25F20048067C140F09040C220006B0
:0455F300E0FD7F8ACE
:1055F700D2A0EF54FEFFE4FEEF30E004D2A1800218
:10560700C2A1D2A2C2A2EFC313FF0EEEB408E9E40F
:10561700FEED30E004D2A18002C2A1D2A2C2A2ED67
:0A562700C313FD0EEEB408E9C2A0A3
:015631002256
:10563200D2A0EF4401FFE4FDEF30E004D2A18002EA
:10564200C2A1D2A2C2A2EFC313FF0DEDB408E9E4D6
:10565200FDEEC313FE30A1054480FE8004EE547FAC
:0E566200FED2A2C2A20DEDB408E7C2A0AF06B0
:015670002217
:104FA800E4FF747C2FF582E43406F583E0FE75F0A7
:104FB8000A84FDEE75F00A8474842FF582E43406C1
:104FC800F583E5F0F0EDC454F0FE74842FF582E427
:104FD8003406F583E02EF00FEFB408C6E4FD7F8EAB
:104FE8001255F77D807F801255F7900685E0FD7F8A
:104FF8008C1255F7A3E0FD7F881255F7A3E0FD7FDB
:10500800861255F790068B1255F3900688E0FD7FBF
:10501800841255F7A3E0FD7F821255F7A3E0FD7FC8
:0F502800801255F7A31255F37D807F8E0255F746
:1051B8007F8C125632900685EFF07F88125632A304
:1051C800EFF07F86125632A3EFF07F84125632A397
:1051D800EFF07F82125632A3EFF07F80125632EF43
:1051E800547FA3F07F8A125632A3EFF0E4FF748451
:1051F8002FF582E43406F583E0FEC4540FFDEE5427
:105208000FFE747C2FF582E43406F583EEF0ED751D
:10521800F00AA4FE747C2FF582E43406F583E02EB0
:06522800F00FEFB408C80E
:01522E00225D
:0B61C300C2A0C2A2E4FD7F800255F7DD
:1025FD00410669004106680041066E004106710002
:10260D004106780041065E0041065D0043067500F7
:10261D00000042066F0046420673007842065A00DB
:10262D00004206580000420666000042066A004657
:10263D0042066C007842067A000041065C004106B5
:10264D0079004106720041065F00430660000000FC
:06265D00430663000000CB
:07625000D2AFD2A8D28822D0
:030003000262484E
:08624800C2A8208E02D28E32A2
:105F8300E4900669F0900668F0900671F090066E52
:0C5F9300F0900678F090065DF0A3F0227C
:1040E00030B205900671800390066EE004F09006F1
:1040F0005EE004F0E0D394A07480948F4007C28EF9
:10410000D2A8025F8390065DE014603F14607514CE
:1041100070030241CF2403600302425F900671E006
:10412000D39400400302425F90066EE0FFC3900606
:1041300070E09F90066FE094004003024266900694
:104140005DE004F0E4900671F08034900671E0FFC9
:10415000FD90066EE02DFDE433FCC3900674E09DF7
:10416000900673E09C500302425FEFD3940150032A
:1041700002426630A802C2A890065DE004F0E49016
:10418000066EF02290066EE0D39400401390067104
:10419000E0900669F0E4900671F090065DE004F0AE
:1041A00090066FE0FEA3E0FF900674E02FFF9006FC
:1041B00073E03EFEEF7803CEC313CE13D8F9FF9021
:1041C0000671E0D39FE49E500302426602425F9074
:1041D0000671E0D39400405C90066EE0FF900668A4
:1041E000F0E490066EF090065D7402F0900678E0C0
:1041F000131313541FFE2475F582E43406F583E08F
:10420000FD25E0F0900669E0D39F400E74752EF511
:1042100082E43406F583E04401F0900678E004F08F
:10422000E0D39417400EC28E125F8390065C740137
:10423000F0D2A82290066FE0FEA3E0FF900674E0A3
:104240002FFF900673E03EFEEF7803CEC313CE132C
:10425000D8F9FF90066EE0D39FE49E4009800012DB
:074260005F83D2A8C28E2289
:104A590090065CE064016003024B32C2A8900672C2
:104A6900E0146027046003024B2B900675E0900662
:104A790060F0900676E0900661F0900677E0900687
:104A890062F09006727401F0024B2B900675E0FFFC
:104A9900900660E06F7073900676E0FE900661E024
:104AA9006E7067900677E0FD900662E06D705BA31B
:104AB900E06F7012A3E06E700DA3E0B505089006D3
:104AC9005FE070208000900675E0900663F0900624
:104AD90076E0900664F0900677E0900665F090061F
:104AE900797401F090065F7401F0126305E4900691
:104AF90075F0A3F0A3F0900660F0A3F0A3F07F0196
:104B09001262C3E4900672F08018900675E0900670
:104B190060F0900676E0900661F0900677E09006E6
:0A4B290062F0D2A8E490065CF022CE
:1029700030B205900671800390066EE004F0900678
:102980005EE004F0E0D394A07480948F4006C28E81
:10299000D2A8802790065DE014605A147003022AC2
:1029A00084147003022ACF24036003022C1C9006B7
:1029B00071E0D394004007D2A8C28E025F839006D4
:1029C0005AE0FEA3E0FF7C007D0F122FB5EF243C00
:1029D000FFE43EFE90066EE0D39FEC9E5003022C77
:1029E0002390065DE004F090066FEEF0A3EFF0E4B4
:1029F000A3F0022A7F900658E0FEA3E0FF7C007D52
:102A00000F122FB5EF2478FFE43EFE900671E0F937
:102A1000FD90066EE02DFDE433FCD3ED9FEC9E406F
:102A200022E9701C900659E004F07006900658E008
:102A300004F090065BE004F0700690065AE004F0A3
:102A4000022C1CE9D394015003022C23900658E079
:102A5000FEA3E0FF7C007D0F122FB5EF2478FFE48A
:102A60003E900673F0A3EFF0E4900658F0A3F0A3B5
:102A7000F0A3F030A802C2A890065DE004F0E49054
:102A8000066EF02290066EE0D3940040139006711B
:102A9000E0900669F0E4900671F090065DE004F0C5
:102AA00090066FE0FEA3E0FF900674E02FFF900613
:102AB00073E03EFEEF7803CEC313CE13D8F9FF9038
:102AC0000671E0D39FE49E5003022C23022C1C903D
:102AD0000671E0D394005003022BF190066EE0FFE4
:102AE000900668F0E490066EF090065D7402F09037
:102AF0000678E0131313541FFE2475F582E43406A0
:102B0000F583E025E0F0900669E0FDD39F400E7468
:102B1000752EF582E43406F583E04401F0900668F2
:102B2000E02DFEE433900666F0A3CEF0900678E048
:102B300004F0E0D394175003022BF1C28E125F838E
:102B400090065C7401F090067BE004F0700690063D
:102B50007AE004F0900673E0FEA3E0FF90066DE0DB
:102B60002FF090066CE03EF0E0C313FEA3E013FFED
:102B7000900673EEF0A3EFF090066CEEF0A3EFF08A
:102B8000D390067BE0940190067AE09400405F9039
:102B9000066AE0FEA3E0FF90066FE0FCA3E0FD9F65
:102BA000FFEC9EFED3EF941EEE9400401590066B52
:102BB000E09DFF90066AE09CFED3EF941EEE940029
:102BC000502C90066FE0FEA3E0FF90066BE02FF024
:102BD00090066AE03EF0E0C313FEA3E013FF900608
:102BE0006FEEF0A3EFF090066AEEF0A3EFF0D2A83C
:102BF0002290066FE0FEA3E0FF900674E02FFF90A6
:102C00000673E03EFEEF7803CEC313CE13D8F9FF70
:102C100090066EE0D39FE49E40098000125F83D24D
:042C2000A8C28E2296
:05630B00900679E0FF9F
:01631000226A
:06631100E4900679F02281
:0563170090065FE0FFAD
:01631C00225E
:06631D00E490065FF0228F
:1020F1006465636F6465725F76616C206973202526
:1021010030327820253032782025303278202E0D5B
:102111000A006A203D2025303278200D0A00B7A23E
:10212100CFD6D2BBB8F6B1EAD6BECEBB200D0A00DF
:10213100B6D4C2EBB3C9B9A6200D0A00D2A3BFD849
:10214100C6F7C2EBCAC72025303278202530327855
:1021510020253032782E0D0A00B1EAD6BEB5D8D688
:10216100B7CEAA2025782021200A0D00B4E6B4A21A
:10217100B5D8D6B7CEAA2025782021200A0D007423
:10218100656D705F627566665B305D203C20353041
:10219100200D0A0063616E63656E2066756E746959
:1021A1006F6E200D0A0063616E63656E2066756E49
:1021B10074696F6E206661756C74200D0A0063612D
:1021C1006E63656E2066756E74696F6E20737563DC
:1021D10063657373200D0A006465636F6465722023
:1021E100737563636573732100C4E3BAC3200D0A79
:1021F10000646973706C61795F72616D206973202D
:10220100253032782025303278202530327820254B
:102211003032782E0D0A0063616C6C2069732025C1
:1022210030327820253032782025303278202E0D3A
:102231000A0063616C6C2069732025303278202597
:10224100303278202530327820253032782E0D0A30
:102251000063616C6C6572206973207269676973D0
:102261007465722073756363657373200D0A00686A
:102271006F737420697320253032782025303278CD
:102281002025303278202E0D0A00686F7374206982
:10229100732025303278202530327820253032786D
:1022A10020253032782E0D0A00686F73742069730F
:1022B10020726967697374657220737563636573EE
:1022C10073200D0A00616C61726D206973202530E5
:1022D100327820253032782025303278202E0D0AB0
:1022E10000616C61726D2069732025303278202580
:1022F100303278202530327820253032782E0D0A80
:1023010000616C61726D2069732072696769737411
:1023110065722073756363657373200D0A006361D1
:102321006E63656C20697320253032782025303248
:10233100782025303278202E0D0A0063616E6365A6
:102341006C206973202530327820253032782025A1
:1023510030327820253032782E0D0A0063616E63A9
:10236100656C206973207269676973746572207383
:10237100756363657373200D0A0073696E676C651D
:102381005F6B6579A3BA20200025303264200020DC
:102391000D0A006D756C7469706C655F6B6579A36E
:1023A100BA00253264200000000000000000000097
:1023B100000000000000000000000000000000001C
:0723C1000000000000000015
:0B266300480695000000000000000089
:10004600780C7C007D017BFF7A2379A87E007F20D7
:10005600122F15E490002CF0A3F0A3F0A3F0A3F068
:10006600A3F0A3F0A3F012625790002CEFF01262F7
:10007600B190002DEFF01262B790002EEFF01262F1
:100086006390002FEFF0126269900030EFF0126279
:1000960099900031EFF012627B900032EFF012621D
:1000A60081900033EFF0124A5912630BEF6401603E
:1000B600030210037BFF7A2079F1900663E0FF903C
:1000C600003CE4F0A3EFF0900664E0FF90003EE40D
:1000D600F0A3EFF0900665E0FF900040E4F0A3EF98
:1000E600F01253B890002CE024CE24FC4003020A00
:1000F600C724FC4003020BEC24FC4003020D03243E
:10010600FC4003020E1A24E47003020F4514700328
:100116000204C3245F6003021000E4FF1262FF9032
:100126000665E0FF54F0600302021A900663E0FEE3
:10013600C4540FFD900031E0FC6D6008EC640A6069
:100146000302021A90002DE0B4010CEF540F24DED6
:10015600F582E43405800D900665E0540F24DEF543
:1001660082E43404F583E0900004F0900663E0FF37
:10017600900005EDF0EF540FA3F0900664E0FFC485
:10018600540F900007F0EF540FA3F0A3EEF0900683
:1001960064E090000AF0900665E090000BF0900095
:1001A60004E0FF64336042EF603FE4900002F090A9
:1001B6000033E0FF900002E0C39F50307B017A00DD
:1001C6007904900004E0FD900044E4F0A3EDF09083
:1001D6000665E0540F900046F0900032E0FF122CC6
:1001E60024900002E004F080C602059D12589F90FC
:1001F60000377401F0A37400F0A37404F07B017A55
:100206000479EE12497E124267124E5B7F5F1262DC
:100216005D021000E4900001F0900001E0FFC3943D
:10022600304003021000EF75F020A4FDACF07B0116
:100236007A00790C90003F7420F07FA01250D912FA
:1002460061747BFF7A217913900001E0FF90003CF6
:10025600E4F0A3EFF01253B8E4900000F090000031
:10026600E0FFC3942040030204BA740C2FF582E425
:100276003400F583E060030204B17BFF7A21791F25
:100286001253B8900001E075F020A4FF900000E042
:100296007C002FFFEC35F0FEEF7803C333CE33CE70
:1002A600D8F92400FDEE3407FC7B017A007904902E
:1002B600003F7408F07FA01250D912617490002D8F
:1002C600E06401602B900663E0FF900009E0B5074B
:1002D6001F900664E0FF90000AE0B50713900665DC
:1002E600E0C4540FFF90000BE0FEC4540F6F60385B
:1002F60090002DE0640160030204B1900663E0FF04
:10030600900009E06F60030204B1900664E0FF907C
:10031600000AE06F60030204B1900665E0FF9000FA
:100326000BE06F60030204B17BFF7A21793112532F
:10033600B87BFF7A21793D900663E0FF90003CE4AC
:10034600F0A3EFF0900664E0FF90003EE4F0A3EF28
:10035600F0900665E0FF900040E4F0A3EFF0125342
:10036600B87BFF7A21795A900001E075F020A4FF4E
:10037600900000E07C002FFEEC35F090003CF0A3EE
:10038600CEF01253B87BFF7A21796D900001E075AB
:10039600F020A4FF900000E07C002FFFEC35F0FE7B
:1003A600EF7803C333CE33CED8F92400FFEE3407FB
:1003B60090003CF0A3EFF01253B8900004E0C39411
:1003C6003250307BFF7A2179801253B890002DE0AD
:1003D600900665B4010CE0540F24DEF582E4340582
:1003E600800AE0540F24DEF582E43404F583E090BD
:1003F6000004F07BFF7A2179951253B8900004E04F
:10040600FF6433604BEF60487BFF7A2179A7125374
:10041600B8E4900002F0900033E0FF900002E0C3E1
:100426009F50557B017A007904900004E0FD90000E
:1004360044E4F0A3EDF0900665E0540F900046F01A
:10044600900032E0FF122C24900002E004F080C6F7
:100456007BFF7A2179BF1253B89000377401F0A35D
:100466007404F0A374EEF07B017A007904123D90D7
:10047600124267124E5B803C12589F9000377401FF
:10048600F0A37400F0A37404F07B017A0479EE12F1
:10049600497E124267124E5B7BFF7A2179D912534D
:1004A600B87F5F12625D1263118009900000E0045C
:1004B600F0020263900001E004F002021FE4FF1262
:1004C60062FF900665E0FF54F0600302073690066F
:1004D60063E0FEC4540FFD900031E0FC6D6008EC53
:1004E600640A600302073690002DE0B4010CEF5455
:1004F6000F24DEF582E43405800D900665E0540F86
:1005060024DEF582E43404F583E0900004F09006DE
:1005160063E0FF900005EDF0EF540FA3F090066442
:10052600E0FFC4540F900007F0EF540FA3F0A3EEC2
:10053600F0900664E090000AF0900665E090000BEB
:10054600F090002FE064016003020652900004E080
:10055600FF64336042EF603FE4900002F0900033A6
:10056600E0FF900002E0C39F50477B017A007904C8
:10057600900004E0FD900044E4F0A3EDF0900665E1
:10058600E0540F900046F0900032E0FF122C2490C9
:100596000002E004F080C69000377401F0A37404F2
:1005A600F0A374EEF07B017A007904123D90020705
:1005B60024900005E0FF9004EFE06F70269000069F
:1005C600E0FF9004F0E06F701A900007E0FF9004DF
:1005D600F1E0B5070E900008E0FF9004F2E0B507E1
:1005E60002804F900030E0900002F0900002E0FFA1
:1005F600D39401401AEF75F006A424E2F974043589
:10060600F0FA7B0112541C900002E014F080DCE446
:10061600900002F0900002E0FFC39406501474EEBE
:100626002FF582E43404F583E4F0900002E004F050
:1006360080E29000377401F0A37400F0A37404F014
:100646007B017A0479EE12497E02072490002FE09E
:1006560064026003021000900003F0900030E0FF97
:10066600900003E0FEC39F4003021000EE75F00603
:10067600A424EEF582E43404F583E0600302072D3A
:10068600EE75F006A424E9F582E43404F583E0FF70
:10069600900005E0FEEF6E705F900003E0FF75F0DE
:1006A60006A424EAF582E43404F583E0FE9000060D
:1006B600E0FDEE6D7042EF75F006A424EBF582E4E2
:1006C6003404F583E0FF900007E0FEEF6E7029909A
:1006D6000003E0FF75F006A424ECF582E43404F58B
:1006E60083E0FE900008E0FDEEB5050CEF75F00620
:1006F600A424E8F97404800D900003E075F006A4C4
:1007060024EEF9740435F0FA7B01C003900037EB50
:10071600F0A37400F0A37404F0D00312497E1242D1
:1007260067124E5B021000900003E004F0020661BF
:10073600E4900001F0900001E0FFC3943040030212
:100746001000EF75F020A4FDACF07B017A00790C67
:1007560090003F7420F07FA01250D9126174E4908B
:100766000000F0900000E0FFC394204003020ABEA0
:10077600740C2FF582E43400F583E06003020AB5B9
:10078600900001E075F020A4FF900000E07C002FAF
:10079600FFEC35F0FEEF7803C333CE33CED8F92421
:1007A60000FDEE3407FC7B017A00790490003F746B
:1007B60008F07FA01250D912617490002DE06401F8
:1007C600602B900663E0FF900009E0B5071F9006D6
:1007D60064E0FF90000AE0B50713900665E0C45494
:1007E6000FFF90000BE0FEC4540F6F603890002D91
:1007F600E064016003020AB5900663E0FF90000919
:10080600E06F6003020AB5900664E0FF90000AE01C
:100816006F6003020AB5900665E0FF90000BE06F7B
:100826006003020AB57BFF7A2179EA1253B8900079
:1008360004E0C39432502790002DE0900665B40181
:100846000CE0540F24DEF582E43405800AE0540FF0
:1008560024DEF582E43404F583E0900004F0900091
:100866002FE064016003020987900004E0FF64330F
:10087600604BEF60487BFF7A2179A71253B8E4906A
:100886000002F0900033E0FF900002E0C39F505654
:100896007B017A007904900004E0FD900044E4F0C6
:1008A600A3EDF0900665E0540F900046F0900032FC
:1008B600E0FF122C24900002E004F080C67BFF7A51
:1008C6002179BF1253B89000377401F0A37404F075
:1008D600A374EEF07B017A007904123D9012426710
:1008E600124E5B020ABE900005E0FF9004EFE06F37
:1008F6007026900006E0FF9004F0E06F701A9000FA
:1009060007E0FF9004F1E0B5070E900008E0FF90C5
:1009160004F2E0B50702804F900030E0900002F04C
:10092600900002E0FFD39401401AEF75F006A4246C
:10093600E2F9740435F0FA7B0112541C900002E0CF
:1009460014F080DCE4900002F0900002E0FFC39413
:1009560006501474EE2FF582E43404F583E4F09027
:100966000002E004F080E29000377401F0A3740006
:10097600F0A37404F07B017A0479EE12497E020A30
:100986005990002FE064026003020A6A900003F0A7
:10099600900030E0FF900003E0FEC39F4003020A90
:1009A6006AEE75F006A424EEF582E43404F583E0DD
:1009B6006003020A61EE75F006A424E9F582E434C8
:1009C60004F583E0FF900005E0FEEF6E705F900097
:1009D60003E0FF75F006A424EAF582E43404F58307
:1009E600E0FE900006E0FDEE6D7042EF75F006A4A5
:1009F60024EBF582E43404F583E0FF900007E0FE83
:100A0600EF6E7029900003E0FF75F006A424ECF564
:100A160082E43404F583E0FE900008E0FDEEB505BF
:100A26000CEF75F006A424E8F97404800D90000319
:100A3600E075F006A424EEF9740435F0FA7B01C0E3
:100A460003900037EBF0A37400F0A37404F0D00316
:100A560012497E124267124E5B8009900003E00441
:100A6600F00209967BFF7A2179D91253B87BFF7A77
:100A76002179F29004EEE0FF90003CE4F0A3EFF061
:100A86009004EFE0FF90003EE4F0A3EFF09004F056
:100A9600E0FF900040E4F0A3EFF09004F1E0FF9057
:100AA6000042E4F0A3EFF01253B8126311800990EC
:100AB6000000E004F0020769900001E004F002077C
:100AC6003B7F3512625D900665E0540F900695F007
:100AD600900600E0900696F0900601E0900697F0EA
:100AE600900602E0900698F0900603E0900699F0D2
:100AF600900663E090069AF0900664E090069BF0FC
:100B060090002DE0900665B40103E08003E054F008
:100B160090069CF07B017A06799512346E400302AA
:100B260010007BFF7A22791890069AE0FF90003C2D
:100B3600E4F0A3EFF090069BE0FF90003EE4F0A304
:100B4600EFF090069CE0FF900040E4F0A3EFF01277
:100B560053B87BFF7A227933900600E0FF90003C81
:100B6600E4F0A3EFF0900601E0FF90003EE4F0A36E
:100B7600EFF0900602E0FF900040E4F0A3EFF09063
:100B86000603E0FF900042E4F0A3EFF01253B87BB7
:100B9600FF7A2279521253B8126174900603E06408
:100BA60009703D900602E06409702F900601E0B4DA
:100BB6000922900600E004F0E4A3F0A3F0900600FA
:100BC600E0B4150AE4F090060304F0021000900663
:100BD60003020F1C900601020F25900602020F3336
:100BE600900603020F3F7F3912625D900665E0FEB4
:100BF600540F900695F0900608E0900696F0900641
:100C060009E0900697F090060AE0900698F09006A4
:100C16000BE0900699F0900663E090069AF0900635
:100C260064E090069BF0EE54F0A3F07B017A06791F
:100C360095123F3840030210007BFF7A22797090AC
:100C4600069AE0FF90003CE4F0A3EFF090069BE0EC
:100C5600FF90003EE4F0A3EFF090069CE0FF9000CA
:100C660040E4F0A3EFF01253B87BFF7A22798B9021
:100C76000608E0FF90003CE4F0A3EFF0900609E0E0
:100C8600FF90003EE4F0A3EFF090060AE0FF90002C
:100C960040E4F0A3EFF090060BE0FF900042E4F092
:100CA600A3EFF01253B87BFF7A2279AA1253B81237
:100CB600617490060BE06409703D90060AE06409D1
:100CC600702F900609E0B40922900608E004F0E4CB
:100CD600A3F0A3F0900608E0B4150AE4F090060B22
:100CE60004F002100090060B020F1C900609020F7A
:100CF6002590060A020F3390060B020F3F7F3D1226
:100D0600625D9006957434F0900611E0900696F0B8
:100D1600900612E0900697F0900613E0900698F081
:100D2600900614E0900699F0900663E090069AF01B
:100D3600900664E090069BF0900665E054F09006FD
:100D46009CF07B017A06799512305640030210001A
:100D56007BFF7A2279C690069AE0FF90003CE4F089
:100D6600A3EFF090069BE0FF90003EE4F0A3EFF0C7
:100D760090069CE0FF900040E4F0A3EFF01253B819
:100D86007BFF7A2279E2900611E0FF90003CE4F0C6
:100D9600A3EFF0900612E0FF90003EE4F0A3EFF020
:100DA600900613E0FF900040E4F0A3EFF0900614E5
:100DB600E0FF900042E4F0A3EFF01253B87BFF7A15
:100DC6002379021253B8126174900614E064097014
:100DD6003D900613E06409702F900612E0B40922D4
:100DE600900611E004F0E4A3F0A3F0900611E0B43D
:100DF600150AE4F090061404F0021000900614029E
:100E06000F1C900612020F25900613020F33900650
:100E160014020F3F7F4112625D9006957433F09085
:100E2600061BE0900696F090061CE0900697F09060
:100E3600061DE0900698F090061EE0900699F09048
:100E46000663E090069AF0900664E090069BF090A8
:100E56000665E054F090069CF07B017A06799512BF
:100E6600326240030210007BFF7A23791F90069AB4
:100E7600E0FF90003CE4F0A3EFF090069BE0FF90CB
:100E8600003EE4F0A3EFF090069CE0FF900040E403
:100E9600F0A3EFF01253B87BFF7A23793C90061B40
:100EA600E0FF90003CE4F0A3EFF090061CE0FF901A
:100EB600003EE4F0A3EFF090061DE0FF900040E452
:100EC600F0A3EFF090061EE0FF900042E4F0A3EFDF
:100ED600F01253B87BFF7A23795D1253B81261740E
:100EE60090061EE06409704E90061DE06409703A93
:100EF60090061CE0B4092590061BE004F0E4A3F07C
:100F0600A3F090061BE0B4150AE4F090061E04F068
:100F160002100090061E7401F002100090061CE0FC
:100F260004F0E4A3F0A3F002100090061DE004F024
:100F3600E4A3F002100090061EE004F002100090F8
:100F4600002DE0B40112A3E0FF900665E0540F24E3
:100F5600DEF582E43405801290002EE0FF900665EF
:100F6600E0540F24DEF582E43404F583EFF07BFFD2
:100F76007A23797B1253B8E4900000F0900000E0E9
:100F8600FFC3941050257BFF7A23798A74DE2FF5F0
:100F960082E43405F583E0FF90003CE4F0A3EFF033
:100FA6001253B8900000E004F080D17BFF7A2379D9
:100FB600901253B87BFF7A2379941253B8E49000C9
:100FC60000F0900000E0FFC3941050257BFF7A23C9
:100FD60079A374DE2FF582E43404F583E0FF9000F4
:100FE6003CE4F0A3EFF01253B8900000E004F08068
:100FF600D17BFF7A2379901253B812631112465FA0
:031006000243C7DB
:10269E0063616C6C65722072656769737465722014
:1026AE006973206F6C6421200A0D0063616C6C6588
:1026BE0072207265676973746572206973206E6526
:1026CE007721200A0D00B1EAD6BEB5D8D6B7CEAA6C
:1026DE002025782021200A0D00B4E6B4A2B5D8D664
:1026EE00B7CEAA2025782021200A0D00686F7374BA
:1026FE00207265676973746572206973206F6C64EC
:10270E0021200A0D00686F737420726567697374F7
:10271E006572206973206E657721200A0D00616C49
:10272E0061726D6572207265676973746572206976
:10273E0073206F6C6421200A0D00616C61726D65EF
:10274E0072207265676973746572206973206E6595
:10275E007721200A0D0063616E63656C65722072CD
:10276E0065676973746572206973206F6C642120CC
:10277E000A0D0063616E63656C6572207265676930
:10278E0073746572206973206E657721200A0D00BF
:10279E0063616C6C65722069732064656C65746529
:1027AE002073756363657373200D0A0063616C6C2F
:1027BE00206973202530327820253032782025305C
:1027CE003278202E0D0A0063616C6C20697320250F
:1027DE00303278202530327820253032782025305E
:1027EE0032782E0D0A00686F73746572206973203B
:1027FE0064656C6574652073756363657373200D12
:10280E000A00686F73742069732025303278202592
:10281E003032782025303278202E0D0A00686F7302
:10282E0074206973202530327820253032782025A7
:10283E0030327820253032782E0D0A00686F73748E
:10284E002069732064656C657465207375636365B8
:10285E007373200D0A00616C61726D65722069736D
:10286E002064656C6574652073756363657373208E
:10287E000D0A00616C61726D20697320253032780B
:10288E0020253032782025303278202E0D0A006136
:10289E006C61726D206973202530327820253032BC
:1028AE0078202530327820253032782E0D0A0061BE
:1028BE006C61726D2069732064656C65746520733C
:1028CE00756363657373200D0A0063616E63656CD7
:1028DE0065722069732064656C6574652073756319
:1028EE0063657373200D0A0063616E63656C206906
:1028FE0073202530327820253032782025303278FA
:10290E00202E0D0A0063616E63656C2069732025AD
:10291E00303278202530327820253032782025301C
:10292E0032782E0D0A0063616E63656C2069732028
:10293E0064656C6574652073756363657373200DD0
:10294E000A00FFFFFFFFFFFFFFFFFFFFFFFFFFFF7D
:10295E00FFFFFFFFFFFFFFFFFFFFFFFFFFFFFFFF79
:02296E00FFFF69
:10266E0060200630000000000000000000000000A6
:10267E00000000000000000000000000000000004C
:0F268E000000000048065000000000000000009F
:0363AF00DFFE22EC
:10602A00AE07AF061EEF600C7FF51263AF7FF51265
:05603A0063AF80EE22BF
:10601400D2B400D2B50000000000C2B400000000F9
:0660240000C2B5000022DD
:10613100C2B400D2B50000000000D2B400000000DB
:01614100223B
:1056AE00E4FEEFA806088002C333D8FC30E704D22C
:1056BE00B48002C2B400D2B50000000000C2B50E24
:1056CE00EEB408DE0000D2B40000D2B50000003007
:0C56DE00B404C20A8002D20AC2B5000067
:0156EA00229D
:105CFE00E4FFD2B4FE00C2B50000000000D2B50031
:105D0E0000EF25E0FF30B4010F00000EEEB408E501
:045D1E00C2B500000A
:015D2200225E
:10614200C2B4000000D2B50000000000C2B50000D9
:01615200222A
:10615300D2B4000000D2B50000000000C2B50000B8
:016163002219
:10529A00900004E075F020A42400FDE5F03406FC3B
:0E52AA007A0679307B01742090003FF07FA0DF
:1052B8001260141256AE200A02C322ECFF1256AE38
:1052C800200A02C322AF051256AE200A02C322E406
:1052D800FD90003FE0FFEDC39F5016122F3BFF12D9
:1052E80056AE200A02C322740129F9E43AFA0D8065
:0552F800E0126131D35A
:0152FD00228E
:1050C300EF75F020A4FDACF07A06793074207B01F3
:0650D30090003FF07FA0F9
:0550D900900039EFF02A
:1050DE00126014E0FF1256AE200A02C322ECFF1239
:1050EE0056AE200A02C322AF051256AE200A02C3E4
:1050FE0022126014900039E004FF1256AE200A020C
:10510E00C322E4FD90003FE014FFEDC39F50141244
:10511E005CFEEF122F81126142740129F9E43AFA12
:10512E000D80E1125CFEEF122F811261531261317C
:01513E00D39D
:01513F00224D
:0B346E00900034EBF0A3EAF0A3E9F0BB
:10347900E4A3F0A3F0900037F0900037E0FFC39485
:103489003840030235591250C3126174E490003870
:10349900F0900038E0FFC3942040030235507430A7
:1034A9002FF582E43406F583E06003023547900086
:1034B90037E075F020A4FFA3E07C002FFFEC35F086
:1034C900FEEF7803C333CE33CED8F92400FDEE34B2
:1034D90007FC7A06795074081250D1126174900071
:1034E90034E0FBA3E0FAA3E0F9900005122F54FFA2
:1034F900900655E06F7047900006122F54FF900612
:1035090056E06F7039900007122F54FF900657E06C
:103519006F702B900651E0900600F0900652E090F3
:103529000601F0900653E0900602F0900654E090F0
:103539000603F07BFF7A26799E1253B8C3229000C6
:1035490038E004F002349A900037E004F002348243
:10355900E4900037F0900037E0FFC3942040030265
:1035690036551250C3126174E4900038F090003857
:10357900E0FFC39420400302364C74302FF582E4F7
:103589003406F583E07003023643900037E075F0A6
:1035990020A4FFA3E07C002FFFEC35F0FEEF7803B9
:1035A900C333CE33CED8F92400FDEE3407FC9000A6
:1035B90034E0FBA3E0FAA3E0F974081252B21261F5
:1035C90074900038E02430F582E43406F583E4F0A1
:1035D900900037E075F020A4FDACF01252AA1261F8
:1035E900747BFF7A2679B91253B87BFF7A2679D48E
:1035F900900037E075F020A4FF90003CE5F0F0A3BF
:10360900EFF01253B87BFF7A2679E7900037E0751F
:10361900F020A4FFA3E07C002FFFEC35F0FEEF784B
:1036290003C333CE33CED8F92400FFEE340790001C
:103639003CF0A3EFF01253B8D322900038E004F025
:0D364900023576900037E004F002355EC3D4
:013656002251
:0B3F3800900034EBF0A3EAF0A3E9F0E6
:103F4300E4A3F0A3F0900037F0900037E0FFC394B0
:103F530038400302402B1250C3126174E4900038BE
:103F6300F0900038E0FFC3942040030240227430F5
:103F73002FF582E43406F583E060030240199000D4
:103F830037E075F020A4FFA3E07C002FFFEC35F0B1
:103F9300FEEF7803C333CE33CED8F92400FDEE34DD
:103FA30007FC7B017A06795090003F7408F07FA0EC
:103FB3001250D9126174900034E0FBA3E0FAA3E03D
:103FC300F9900005122F54FF900655E06F7047904B
:103FD3000006122F54FF900656E06F7039900007C9
:103FE300122F54FF900657E06F702B900651E0900C
:103FF3000608F0900652E0900609F0900653E09010
:10400300060AF0900654E090060BF07BFF7A2679BF
:10401300FA1253B8C322900038E004F0023F6490D0
:104023000037E004F0023F4CE4900037F090003793
:10403300E0FFC3940840030240DEEF75F020A424A0
:1040430000FDE5F03406FC1250CB126174E49000DD
:1040530038F0900038E0FFC39420507674302FF589
:1040630082E43406F583E06060900037E075F02069
:10407300A4FFA3E07C002FFFEC35F0FEEF7803C331
:1040830033CE33CED8F92400FDEE3437FC90003420
:10409300E0FBA3E0FAA3E0F990003F7408F07FA0EF
:1040A3001252B8126174900038E02430F582E4347F
:1040B30006F583E4F090003712529D1261747BFF82
:1040C3007A2779131253B8D322900038E004F00210
:0C40D3004055900037E004F0024030C37C
:0140DF0022BE
:0B305600900034EBF0A3EAF0A3E9F0D7
:10306100E4A3F0A3F0900037F0900037E0FFC394A1
:103071003840030231491250C3126174E4900038A0
:10308100F0900038E0FFC3942040030231407430D7
:103091002FF582E43406F583E060030231379000B6
:1030A10037E075F020A4FFA3E07C002FFFEC35F0A2
:1030B100FEEF7803C333CE33CED8F92400FDEE34CE
:1030C10007FC7B017A06795090003F7408F07FA0DD
:1030D1001250D9126174900034E0FBA3E0FAA3E02E
:1030E100F9900005122F54FF900655E06F7047903C
:1030F1000006122F54FF900656E06F7039900007BA
:10310100122F54FF900657E06F702B900651E090FC
:103111000611F0900652E0900612F0900653E090EE
:103121000613F0900654E0900614F07BFF7A27799D
:103131002C1253B8C322900038E004F00230829080
:103141000037E004F002306AE4900037F090003775
:10315100E0FFC394084003023260EF75F020A4241D
:1031610000FDE5F03404FC1250CB126174E49000D0
:1031710038F0900038E0FFC39420400302325774C6
:10318100302FF582E43406F583E0700302324E906D
:103191000037E075F020A4FFA3E07C002FFFEC35A1
:1031A100F0FEEF7803C333CE33CED8F92400FDEE21
:1031B1003427FC900034E0FBA3E0FAA3E0F990008F
:1031C1003F7408F07FA01252B8126174900038E089
:1031D1002430F582E43406F583E4F0900037E0759D
:1031E100F020A42400FDE5F034041252A912617408
:1031F1007BFF7A2779481253B87BFF7A2679D490DE
:103201000037E075F020A42400FEE5F034049000BE
:103211003CF0A3CEF01253B87BFF7A2679E79000F9
:1032210037E075F020A4FFA3E07C002FFFEC35F020
:10323100FEEF7803C333CE33CED8F92400FFEE344A
:103241002790003CF0A3EFF01253B8D3229000383E
:10325100E004F0023173900037E004F002314EC314
:01326100224A
:0B326200900034EBF0A3EAF0A3E9F0C9
:10326D00E4A3F0A3F0900037F0900037E0FFC39493
:10327D003840030233551250C3126174E490003884
:10328D00F0900038E0FFC39420400302334C7430BB
:10329D002FF582E43406F583E0600302334390009A
:1032AD0037E075F020A4FFA3E07C002FFFEC35F094
:1032BD00FEEF7803C333CE33CED8F92400FDEE34C0
:1032CD0007FC7B017A06795090003F7408F07FA0CF
:1032DD001250D9126174900034E0FBA3E0FAA3E020
:1032ED00F9900005122F54FF900655E06F7047902E
:1032FD000006122F54FF900656E06F7039900007AC
:10330D00122F54FF900657E06F702B900651E090EE
:10331D00061BF0900652E090061CF0900653E090CC
:10332D00061DF0900654E090061EF07BFF7A27797B
:10333D00641253B8C322900038E004F002328E902C
:10334D000037E004F0023276E4900037F090003759
:10335D00E0FFC39408400302346CEF75F020A42401
:10336D0000FDE5F03405FC1250CB126174E49000C1
:10337D0038F0900038E0FFC39420400302346374AA
:10338D00302FF582E43406F583E0700302345A9051
:10339D000037E075F020A4FFA3E07C002FFFEC3593
:1033AD00F0FEEF7803C333CE33CED8F92400FDEE13
:1033BD00342FFC900034E0FBA3E0FAA3E0F9900079
:1033CD003F7408F07FA01252B8126174900038E07B
:1033DD002430F582E43406F583E4F0900037E0758F
:1033ED00F020A42400FDE5F034051252A9126174F9
:1033FD007BFF7A2779811253B87BFF7A2679D49097
:10340D000037E075F020A42400FEE5F034059000AF
:10341D003CF0A3CEF01253B87BFF7A2679E79000EB
:10342D0037E075F020A4FFA3E07C002FFFEC35F012
:10343D00FEEF7803C333CE33CED8F92400FFEE343C
:10344D002F90003CF0A3EFF01253B8D32290003828
:10345D00E004F002337F900037E004F002335AC3EA
:01346D00223C
:0B3A0F00900001EBF0A3EAF0A3E9F047
:103A1A00E4A3F0A3F0900004F0900004E0FFC39444
:103A2A00204003023BD01250C3126174E490000597
:103A3A00F0900005E0FFC394204003023BB69000DB
:103A4A0001E0FBA3E0FAA3E0F9122F3B70299000F2
:103A5A0001122F547021900002122F5470199000F5
:103A6A0003122F54701174302FF582E43406F58353
:103A7A0074FFF0FB023BA6900005E0FD2430F582BE
:103A8A00E43406F583E06003023BAD900004E07580
:103A9A00F020A47C002DFFEC35F0FEEF7803C33351
:103AAA00CE33CED8F92400FDEE3407FC7B017A062A
:103ABA00795090003F7408F07FA01250D9126174B7
:103ACA00900001E0FBA3E0FAA3E0F9122F3BFF907C
:103ADA000651E06F6003023BAD900001122F54FFC4
:103AEA00900652E06F6003023BAD900002122F5421
:103AFA00FF900653E06F6003023BAD900003122F64
:103B0A0054FF900654E06F6003023BAD900005E05D
:103B1A002430F582E43406F58374FFF0900004E063
:103B2A0075F020A4FDACF01252AA1261747BFF7AE0
:103B3A002779BA900655E0FF90003CE4F0A3EFF035
:103B4A00900656E0FF90003EE4F0A3EFF09006578F
:103B5A00E0FF900040E4F0A3EFF01253B87BFF7A45
:103B6A002779D5900651E0FF90003CE4F0A3EFF0EE
:103B7A00900652E0FF90003EE4F0A3EFF090065367
:103B8A00E0FF900040E4F0A3EFF0900654E0FF90CD
:103B9A000042E4F0A3EFF01253B87BFF7A27799E34
:103BAA001253B8900005E004F0023A3B900004E09A
:103BBA0075F020A4FDACF01252AA126174900004B0
:073BCA00E004F0023A23D3EE
:013BD10022D1
:0B3BD200900001EBF0A3EAF0A3E9F083
:103BDD00E4A3F0A3F0900004F0900004E0FFC39480
:103BED00084003023D8EEF75F020A42400FDE5F0A2
:103BFD003406FC1250CB126174E4900005F0900075
:103C0D0005E0FFC394204003023D7F900001E0FBDF
:103C1D00A3E0FAA3E0F9122F3B702D900001122FB3
:103C2D00547025900002122F54701D900003122F16
:103C3D0054701574302FF582E43406F58374FFF05B
:103C4D00FB7A2779F4023D73900005E0FD2430F5F1
:103C5D0082E43406F583E06003023D76900004E0D3
:103C6D0075F020A47C002DFFEC35F0FEEF7803C33A
:103C7D0033CE33CED8F92400FDEE3437FC7B017AF8
:103C8D0006795090003F7408F07FA01250D9126150
:103C9D0074900001E0FBA3E0FAA3E0F9122F3BFFC3
:103CAD00900651E06F6003023D76900001122F5493
:103CBD00FF900652E06F6003023D76900002122FD6
:103CCD0054FF900653E06F6003023D76900003129F
:103CDD002F54FF900654E06F6003023D769000056F
:103CED00E02430F582E43406F58374FFF012529A25
:103CFD001261747BFF7A287910900655E0FF9000D1
:103D0D003CE4F0A3EFF0900656E0FF90003EE4F0A7
:103D1D00A3EFF0900657E0FF900040E4F0A3EFF022
:103D2D001253B87BFF7A28792B900651E0FF900053
:103D3D003CE4F0A3EFF0900652E0FF90003EE4F07B
:103D4D00A3EFF0900653E0FF900040E4F0A3EFF0F6
:103D5D00900654E0FF900042E4F0A3EFF01253B848
:103D6D007BFF7A28794A1253B8900005E004F002DF
:103D7D003C0B12529A126174900004E004F0023B65
:023D8D00E6D37B
:013D8F002211
:0B365700900001EBF0A3EAF0A3E9F003
:10366200E4A3F0A3F0900004F0900004E0FFC39400
:10367200084003023831EF75F020A42400FDE5F084
:103682003404FC1250CB126174E4900005F09000F7
:1036920005E0FFC394204003023813900001E0FBD1
:1036A200A3E0FAA3E0F9122F3B702D900001122F34
:1036B200547025900002122F54701D900003122F97
:1036C20054701574302FF582E43406F58374FFF0DC
:1036D200FB7A287964023807900005E0FD2430F572
:1036E20082E43406F583E0600302380A900004E0C5
:1036F20075F020A47C002DFFEC35F0FEEF7803C3BB
:1037020033CE33CED8F92400FDEE3427FC7B017A88
:1037120006795090003F7408F07FA01250D91261D0
:1037220074900001E0FBA3E0FAA3E0F9122F3BFF43
:10373200900651E06F600302380A900001122F5484
:10374200FF900652E06F600302380A900002122FC7
:1037520054FF900653E06F600302380A9000031290
:103762002F54FF900654E06F600302380A90000560
:10377200E02430F582E43406F58374FFF09000040F
:10378200E075F020A42400FDE5F034041252A912E1
:1037920061747BFF7A287981900655E0FF90003CA6
:1037A200E4F0A3EFF0900656E0FF90003EE4F0A3B1
:1037B200EFF0900657E0FF900040E4F0A3EFF01224
:1037C20053B87BFF7A28799D900651E0FF90003C28
:1037D200E4F0A3EFF0900652E0FF90003EE4F0A385
:1037E200EFF0900653E0FF900040E4F0A3EFF0907A
:1037F2000654E0FF900042E4F0A3EFF01253B87BCE
:10380200FF7A2879BD1253B8900005E004F0023621
:1038120090900004E075F020A42400FDE5F034044B
:103822001252A9126174900004E004F002366BD3C4
:013832002273
:0B383300900001EBF0A3EAF0A3E9F025
:10383E00E4A3F0A3F0900004F0900004E0FFC39422
:10384E00084003023A0DEF75F020A42400FDE5F0C8
:10385E003405FC1250CB126174E4900005F0900018
:10386E0005E0FFC3942040030239EF900001E0FB16
:10387E00A3E0FAA3E0F9122F3B702D900001122F56
:10388E00547025900002122F54701D900003122FB9
