:0300000002493A78
:0C493A00787FE4F6D8FD758121024981E8
:1052080012577F124E24125C21125C4D125D061259
:105218005C66125A5C125C3175B10CE4F5B27F829F
:0C522800FE1251AB120D8C12004680F8F3
:0300230002599CE3
:06599C00C0E0C083C082E0
:1059A2009005F5E4F0309802C298309904C299C289
:0159B20009EB
:0759B300D082D083D0E03266
:03004300025A8DD1
:105A8D00C0E0E59A30E003539AFEE59A30E1055304
:075A9D009AFDC209D0E032BE
:095C7B002009FDEFD209F5992280
:10510C009006CEEBF0A3EAF0A3E9F09006CEE0FB1C
:10511C00A3E0FAA3E0F912255060179006CEA3E4A1
:10512C0075F001122631A9F0FA122550FF125C7BA2
:03513C0080D922F5
:095C84002009FDEFD209F59B2275
:10513F009006D1EBF0A3EAF0A3E9F09006D1E0FBE3
:10514F00A3E0FAA3E0F912255060179006D1A3E46B
:10515F0075F001122631A9F0FA122550FF125C8466
:03516F0080D922C2
:10577F00E5A2543FF5A253BAFE759850759A50752D
:10578F00D7C875D6FE758E14438E01D2AC75AF0196
:03579F00D2AF2264
:0B4CD500900000EBF0A3EAF0A3E9F070
:104CE00090002B7401F0A37400F0A37403F0900003
:104CF00000E0F9A3E0FAA3E09006C8C9F0A3EAF047
:104D0000A3E9F090002BE0F9A3E0FAA3E09006CB32
:104D1000C9F0A3EAF0A3E9F07B017A00792E124FE3
:0A4D2000137B017A00792E02510C7A
:101BA6000000000000FF002601020E0F00FF0006E5
:101BB6000203011500FF000E0304021900FF001EB8
:101BC6000405031D00FF5DFD0506041F00FF5E0200
:101BD6000607052000FF5E070708062100FF5E0CCA
:101BE6000809072600FF5E11090A082A00FF5E168B
:101BF6000A0B092C00FF5E1B0B0C0A2E00FF5E2051
:101C06000C0D0B2F00FF5E250D0E0C3000FF5E2A1B
:101C16000E010D3100FF5C710F0F0F1001FF5023F5
:101C26001010101101FF52DE1111111201FF53069F
:101C36001212121301FF57371313131401FF575BC8
:101C46001414140F01FF532E1516183502FF5B5E90
:101C56001617153902FF5B701718163D02FF5B82D7
:101C66001815174102FF5B94191A1C4503FF5BA662
:101C76001A1B194903FF5BB81B1C1A4D03FF5BCAED
:101C86001C191B5103FF5BDC1D1E1E5204FF5E2F39
:101C96001E1D1D5304FF5E341F1F1F1F05FF5C968C
:101CA6002020202006FF5C9E2122255407FF5E3956
:101CB6002223215507FF5E3E2324225607FF5E435B
:101CC6002425235707FF5E482521245807FF5E4D2C
:101CD6002627295908FF5E522728265A08FF5E57ED
:101CE6002829275B08FF5E5C2926285C08FF5E61C1
:101CF6002A2B2B5D09FF5C3F2B2A2A5E09FF5E66B5
:101D06002C2D2D000AFF5E6B2D2C2C000AFF5E7019
:101D16002E2E2E000BFF5A102F2F2F000CFF5CA625
:101D2600303030000DFF5CAE313131000EFF56EC25
:101D36003232323515FF58973333333215FF59BADD
:101D46003434343315FF58B93535353415FF58DB7F
:101D56003636363916FF53563737373616FF57A2FB
:101D66003838383716FF537E3939393816FF53A6B7
:101D76003A3A3A3D17FF53CE3B3B3B3A17FF57C51E
:101D86003C3C3C3B17FF53F63D3D3D3C17FF541E84
:101D96003E3E3E4118FF54463F3F3F3E18FF57E840
:101DA6004040403F18FF546E4141414018FF549651
:101DB6004242424519FF54BE4343434219FF580B62
:101DC6004444444319FF54E64545454419FF550E1E
:101DD600464646491AFF5536474747461AFF582E84
:101DE600484848471AFF555E494949481AFF5586EB
:101DF6004A4A4A4D1BFF55AE4B4B4B4A1BFF5851A7
:101E06004C4C4C4B1BFF55D64D4D4D4C1BFF55FEB8
:101E16004E4E4E511CFF56264F4F4F4E1CFF5874C8
:101E26005050504F1CFF564E515151501CFF567684
:101E3600525252521DFF5CB6535353531EFF5CBEA3
:101E46005454545421FF5CC65555555522FF5CCE5B
:101E56005656565623FF5CD65757575724FF59D721
:101E66005858585825FF5CDE5959595926FF569E31
:101E76005A5A5A5A27FF5CE65B5B5B5B28FF5CEEAF
:101E86005C5C5C5C29FF5CF65D5D5D5D2AFF509DD8
:101E96005E5E5E5E2BFF4EC65F5F5F5F5FFF5172E9
:101EA600000000000000000000000000000000002C
:101EB600000000000000000000000000000000001C
:101EC6004105FA00410624004105FB004405FF00D8
:101ED600000001440607000000014406100000004F
:101EE6000144061A000000014406030000000144F4
:101EF600060C000000014406160000000144061FFF
:101F06000000000141060B014106150C41061400B4
:101F160041061E004106230041062601410629000E
:101F260041062C0041062E004106250B41062800DD
:101F360041062B0041062D004106270241062A00D4
:0C1F46004105F80141062F014105F90199
:1049C600E4900592F0A3F043903CE590543C643C9F
:1049D6006070125C31E590543C643C6065125DB5D4
:1049E6009005FBE0645E600D125B24125C317F7FF4
:1049F6007E001251AB9005FA7401F0E590543CFF2D
:104A0600900592E4F0A3EFF0900592E07004A3E025
:104A160064387008125DA37F01125D97E590543CDF
:104A2600FFBF3CF8125C31E590543CFFBF3CF8E414
:104A3600FF125D97E4FF125DAF900592E0FEA3E0E2
:064A4600FF227E0F7FFF3E
:014A4C002247
:10475100E4900590F0A3F0FF1249C6900590EEF0A9
:10476100A3EFF0125DE5900590E0640F7003A3E004
:10477100F47078EF640170739005FBE0702A900685
:104781008EE0540FFFBF0808900624E004F0800576
:10479100E4900624F0900624E0D3940A400A7F14A2
:1047A100125DBBE4900624F0125DEB90068EE0549E
:1047B1000F24FE601724FE601E24FC602524077070
:1047C1002A900590E4F0A3741CF0801F900590E4FA
:1047D100F0A3742CF08014900590E4F0A37434F0ED
:1047E1008009900590E4F0A37438F0900590E0FE04
:1047F100A3E0FFEE701DEF24D4600F24F8600E24B7
:10480100FC600D241C700C7F03227F02227F012299
:054811007F00227FFF83
:01481600227F
:100D8C00E4FF90058FF0124751EF147003020F54DB
:100D9C001470030213E7147003020F2E2403600374
:100DAC00021816125D85EF70069005FBE0601012BC
:100DBC005D85BF01229005FBE0FF6003B45F181254
:100DCC005D9D90058FEFF0C394145003021816909C
:100DDC0005FB7402020F279005FBE0FF6442600FD5
:100DEC00EF6443600AEF64446005EF6445702D12B4
:100DFC005D9D90058FEFF0C3940A40657B017A06E8
:100E0C007903123DDD5057125D73BF010C7F807E5C
:100E1C00001251ABE4FF125D79020EF89005FBE075
:100E2C00FF6446600FEF6447600AEF64486005EFAB
:100E3C0064497030125D9D90058FEFF0C3940A40A9
:100E4C00207B017A06790C1240595012125D73BF47
:100E5C00010C7F807E001251ABE4FF125D79020E13
:100E6C00F8020EFD9005FBE0FF644A600FEF644B47
:100E7C00600AEF644C6005EF644D702E125D9D901E
:100E8C00058FEFF0C3940A401F7B017A0679161286
:100E9C0039EA5012125D73BF010C7F807E00125133
:100EAC00ABE4FF125D79804480479005FBE0FF6462
:100EBC004E600FEF644F600AEF64506005EF6451B1
:100ECC007042125D9D90058FEFF0C3940A40227B17
:100EDC00017A06791F123B3F5012125D73BF010C51
:100EEC007F807E001251ABE4FF125D79125C318081
:100EFC002B9005FBE075F008A424A9F582E5F034ED
:100F0C001B02180E9005FBE075F008A424A9F582CD
:100F1C00E5F0341BF583E4939005FBF0125DA3021E
:100F2C0018169005FBE0B45F0C125D85EF6006129D
:100F3C004ACA0218169005FBE075F008A424AAF51D
:100F4C0082E5F0341B02180E9005FBE012264710C8
:100F5C00070F101910102911103912104913105BBA
:100F6C001412CC1F12DE2013C32F13B130106D32AC
:100F7C00107F3310913410A33510B53610C73710CD
:100F8C00D93810EB3910FD3A110F3B11213C1133BC
:100F9C003D11453E11573F116940117B41118D4266
:100FAC00119F4311B14411C34511D54611E74711A7
:100FBC00F948120B49121D4A122F4B12414C125375
:100FCC004D12654E12774F128950129B5112AC5232
:100FDC0012BC5312F0541302551312561325571307
:100FEC00365813475913585A13685B13785C138897
:100FFC005D13995E13AC5F000013D49006A6E0B4A9
:10100C006305E4F00213D49006A60213A79006A77A
:10101C00E0B40C030212C39006A70213A79006A813
:10102C00E0B41F030212C39006A80213A79006ACEB
:10103C00E0B407030212C39006AC0213A79006A9F2
:10104C00E0B41705E4F00213D49006A90213A7909C
:10105C0006AAE0B43B05E4F00213D49006AA0213EE
:10106C00A79005FFE0B41405E4F00213D49005FF3B
:10107C000213A7900600E0B40905E4F00213D49023
:10108C0006000213A7900601E0B40905E4F0021370
:10109C00D49006010213A7900602E0B40905E4F00F
:1010AC000213D49006020213A7900607E0B41405AD
:1010BC00E4F00213D49006070213A7900608E0B4DC
:1010CC000905E4F00213D49006080213A790060950
:1010DC00E0B40905E4F00213D49006090213A790BA
:1010EC00060AE0B40905E4F00213D490060A0213D0
:1010FC00A7900610E0B41405E4F00213D490061087
:10110C000213A7900611E0B40905E4F00213D49081
:10111C0006110213A7900612E0B40905E4F00213BD
:10112C00D49006120213A7900613E0B40905E4F05C
:10113C000213D49006130213A790061AE0B41405F8
:10114C00E4F00213D490061A0213A790061BE0B425
:10115C000905E4F00213D490061B0213A790061C99
:10116C00E0B40905E4F00213D490061C0213A79016
:10117C00061DE0B40905E4F00213D490061D021319
:10118C00A7900603E0B41405E4F00213D490060310
:10119C000213A7900604E0B40905E4F00213D490FE
:1011AC0006040213A7900605E0B40905E4F0021347
:1011BC00D49006050213A7900606E0B40905E4F0E6
:1011CC000213D49006060213A790060CE0B4140583
:1011DC00E4F00213D490060C0213A790060DE0B4B1
:1011EC000905E4F00213D490060D0213A790060E25
:1011FC00E0B40905E4F00213D490060E0213A79094
:10120C00060FE0B40905E4F00213D490060F0213A4
:10121C00A7900616E0B41405E4F00213D490061659
:10122C000213A7900617E0B40905E4F00213D4905A
:10123C0006170213A7900618E0B40905E4F0021390
:10124C00D49006180213A7900619E0B40905E4F02F
:10125C000213D49006190213A790061FE0B41405CC
:10126C00E4F00213D490061F0213A7900620E0B4FA
:10127C000905E4F00213D49006200213A79006216E
:10128C00E0B40905E4F00213D49006210213A790F0
:10129C000622E0B40904E4F08006900622E004F093
:1012AC0090060BE0B4010302138F90060B0213D1CE
:1012BC00900615E0B414030213D19006150213A77F
:1012CC00900614E0B46305E4F00213D49006140203
:1012DC0013A790061EE0B46305E4F00213D4900645
:1012EC001E0213A7900623E0B40505E4F00213D404
:1012FC009006230213A7900626E0B409030213D12B
:10130C009006260213A7900629E0700504F002133C
:10131C00D4E4900629F00213D490062CE0B409050D
:10132C00E4F00213D490062C807190062EE0B407E2
:10133C0005E4F00213D490062E8060900625E0B4EC
:10134C000B05E4F00213D4900625804F900628E09C
:10135C00B40B04E4F08071900628803F90062BE0DB
:10136C00B40B04E4F0806190062B802F90062DE0E6
:10137C00B40B04E4F0805190062D801F900627E0FA
:10138C00B401057402F08040900627803890062A3C
:10139C00E0B42604E4F0803090062AE004F08028C3
:1013AC001245A3802390062FE0B401057402F0804F
:1013BC000690062F7401F09005F8E0B40104E4F0F7
:1013CC0080069005F87401F09005FBE075F008A418
:1013DC0024A7F582E5F0341B02180E9005FBE012F1
:1013EC002647149A0F14A91014BC1114CF1214DF31
:1013FC001314F11417051F17132017ED2F17DB30DB
:10140C00150332151233152134153035153F3615A9
:10141C004E37155D38156C39157B3A158A3B159985
:10142C003C15A83D15B73E15C63F15D54015E441F2
:10143C0015F342160243161144162045162F461674
:10144C003E47164D48165C49166B4A167A4B168960
:10145C004C16984D16A74E16B54F16C45016D351B0
:10146C0016E25216F25317255417375517465617CE
:10147C005957176A58177B5917885A17955B17A233
:10148C005C17B25D17C35E17D65F000017FE90069F
:10149C00A6E070030217199006A60217D19006A7B2
:1014AC00E0B40106740CF00217FE9006A70217D1E7
:1014BC009006A8E0B40106741FF00217FE9006A86F
:1014CC000217D19006ACE0B401030217709006AC81
:1014DC000217D19006A9E070067417F00217FE905F
:1014EC0006A90217D19006AAE07006743BF0021709
:1014FC00FE9006AA0217D19005FFE070030216F9C0
:10150C009005FF0217D1900600E0700302175F9060
:10151C0006000217D1900601E0700302175F9006D7
:10152C00010217D1900602E0700302175F900602C9
:10153C000217D1900607E070030216F99006070215
:10154C0017D1900608E0700302175F900608021787
:10155C00D1900609E0700302175F9006090217D1BB
:10156C0090060AE0700302175F90060A0217D190EA
:10157C000610E070030216F99006100217D19006BF
:10158C0011E0700302175F9006110217D19006123A
:10159C00E0700302175F9006120217D1900613E059
:1015AC00700302175F9006130217D190061AE070B1
:1015BC00030216F990061A0217D190061BE070036D
:1015CC0002175F90061B0217D190061CE0700302F5
:1015DC00175F90061C0217D190061DE070030217CE
:1015EC005F90061D0217D1900603E070030216F9F6
:1015FC009006030217D1900604E0700302175F9067
:10160C0006040217D1900605E0700302175F9006DE
:10161C00050217D1900606E0700302175F900606CC
:10162C000217D190060CE070030216F990060C021A
:10163C0017D190060DE0700302175F90060D02178C
:10164C00D190060EE0700302175F90060E0217D1C0
:10165C0090060FE0700302175F90060F0217D190EF
:10166C000616E070030216F99006160217D19006C2
:10167C0017E0700302175F9006170217D190061837
:10168C00E0700302175F9006180217D1900619E05C
:10169C00700302175F9006190217D190061FE070B5
:1016AC0002804A90061F0217D1900620E0700302B8
:1016BC00175F9006200217D1900621E070030217E5
:1016CC005F9006210217D1900622E0700302175F8B
:1016DC009006220217D190060BE0B401030217B951
:1016EC0090060B0217FB900615E0B401067414F07B
:1016FC000217FE9006150217D1900614E0700280B6
:10170C000C9006140217D190061EE070067463F05C
:10171C000217FE90061E0217D1900623E070067485
:10172C0005F00217FE9006230217D1900626E0B4AE
:10173C000102801F9006260217D1900629E0700541
:10174C0004F00217FEE4900629F00217FE90062C16
:10175C00E070067409F00217FE90062C8067900664
:10176C002EE070067407F00217FE90062E8056903D
:10177C000625E0700280259006258049900628E019
:10178C0070028018900628803C90062BE070028036
:10179C000B90062B802F90062DE07005740BF080BB
:1017AC005190062D801F900627E0B401057402F0BD
:1017BC008040900627803890062AE070057426F049
:1017CC00803090062AE014F0802812467B8023900B
:1017DC00062FE0B401057402F0800690062F740108
:1017EC00F09005F8E0B40104E4F080069005F8747C
:1017FC0001F09005FBE075F008A424A8F582E5F053
:10180C00341BF583E4939005FBF09005FBE075F039
:10181C0008A424ABF582E5F0341BF583E493FB7448
:10182C000193FA740293F99005FCEBF0A3EAF0A390
:05183C00E9F002266D39
:0D5C31007F047E347DDCDDFEDEFADFF60050
:015C3E002243
:055D0D009005FBE0FF22
:015D1200226E
:065D13009005FBEFF022F9
:055D190090060BE0FF05
:015D1E002262
:055D1F00900615E0FFF5
:015D2400225C
:055D2500900614E0FFF0
:015D2A002256
:055D2B0090061EE0FFE0
:015D30002250
:055D3100900623E0FFD5
:015D3600224A
:055D3700900626E0FFCC
:015D3C002244
:055D3D00900629E0FFC3
:015D4200223E
:055D430090062CE0FFBA
:015D48002238
:055D490090062EE0FFB2
:015D4E002232
:055D4F00900625E0FFB5
:015D5400222C
:055D5500900628E0FFAC
:015D5A002226
:055D5B0090062BE0FFA3
:015D60002220
:055D610090062DE0FF9B
:015D6600221A
:055D6700900627E0FF9B
:015D6C002214
:055D6D0090062AE0FF92
:015D7200220E
:055D73009005FAE0FFBD
:015D78002208
:065D79009005FAEFF02294
:055D7F0090062FE0FF7B
:015D840022FC
:055D85009005F8E0FFAD
:015D8A0022F6
:105A75000000000000000000000000000000000021
:085A8500000000000000000019
:101F520055045F3F065B4F666D7D077F6F777C3967
:101F62005E797176385C733E48058401020408107C
:101F720020408042058C40006030042F00000000A9
:101F8200000000000000000000000000000000004F
:101F9200000000000000000000000000000000003F
:101FA20000000000000000000000000060F0048457
:101FB200000000000000000000000000000000001F
:101FC200000000000000000000000000000000000F
:101FD20000000000000000000000000000000000FF
:101FE20000000000000000000000000000000000EF
:101FF20000000000000000000000000000000000DF
:1020020000000000000000000000000000000000CE
:1020120000000000000000000000000000000000BE
:1020220000000000000000000000000000000000AE
:10203200000000000000000000000000000000009E
:10204200000000000000000000000000000000008E
:10205200000000000000000000000000000000007E
:10206200000000000000000000000000000000006E
:10207200000000000000000000000000000000005E
:10208200000000000000000000000000000000004E
:10209200000000000000000000000000000000003E
:1020A20041042E0041058E00500574010101010119
:1020B200010101010101010101010150047401004A
:0E20C2000301020101010101010101010101FF
:10523400C282E4FDFCC280EF30E004D2818002C26D
:105244008100000000D280EFC313FF0DBD00010CEC
:0A525400ED64084C70DFC280C281D7
:01525E00222D
:10525F00C283E4FDFCC280EF30E004D2818002C241
:10526F008100000000D280EFC313FF0DBD00010CC1
:0A527F00ED64084C70DFC280C281AC
:015289002202
:10528A00C2CCE4FDFCC280EF30E004D2818002C2CD
:10529A008100000000D280EFC313FF0DBD00010C96
:0A52AA00ED64084C70DFC280C28181
:0152B40022D7
:075AFC007F40125B037FC035
:0D5B0300D282000000000000C28202523475
:0C5A2A00125B03D2827F40125A367FC00C
:0D5A3600D283000000000000C28302525F16
:0C5A4300125A36D2837F40125A4F7FC0A7
:0D5A4F00D2CC000000000000C2CC02528A40
:05481700E4900431F003
:10481C00125D49AE07125AFCE4FB742F2BF582E4AF
:10482C003404F583E0FF12523474372BF582E434F0
:10483C0004F583E0FF1252340BEBB408DDEE248850
:10484C00FF125A2AE4FB743F2BF582E43404F583FF
:10485C00E0FF12525F74472BF582E43404F583E0D9
:10486C00FF12525F0BEBB408DDEE2488FF125A43A3
:10487C00E4FB744F2BF582E43404F583E0FF125211
:10488C008A74572BF582E43404F583E0FF12528AC4
:0E489C000BEBB408DDEE2488FF125A4FD2CC8D
:0148AA0022EB
:104F5D00125AFCE4FE7FFF1252347FFF1252340EC0
:104F6D00EEB408F17F8F125A2AE4FE7FFF12525FD2
:104F7D007FFF12525F0EEEB408F17F8F125A43E499
:104F8D00FE7FFF12528A7FFF12528A0EEEB408F195
:074F9D007F8F125A4FD2CCA6
:014FA40022EA
:104E2400E490058FF0E4FFE4FE90058FE02484F520
:104E340082E43405F583E0FDEF75F008A4242FF532
:104E440082E43404F583E5822EF582E43583F58328
:104E5400EDF00EEEB408D20FEFB406CB12481C7F6F
:104E64001E125B4C90058FE004F0E0C3940840B53B
:014E7400221B
:105B4C00EFD39400400B7EFF7DFFDDFEDEFA1F805D
:015B5C00EF59
:015B5D002225
:1052B500E4FFE4FEEF75F008A4242FF582E434043E
:1052C500F583E5822EF582E43583F583E4F00EEE71
:0852D500B408E10FEFB406DAA2
:0152DD0022AE
:0A5C5B007F78900484E4F0A3DFFCDE
:015C6500221C
:1050D700E4FF125D8BEF6401702A1252B590042E23
:1050E700E05403FF242FF582E43404F5837440F081
:1050F70012481CE4FF125D9190042EE004F0E0B426
:045107000402E4F0CA
:01510B002281
:1042B1001252B5124B42900461E090043EF090041A
:1042C1005FE090043DF09006A6E0FF75F00A8424BB
:1042D1005FF582E43404F583E090043CF0EF75F07F
:1042E1000A84745F25F0F582E43404F583E09004D8
:1042F1003BF090043A7440F09006A7E0FF75F00A95
:1043010084245FF582E43404F583E0900439F0EF0E
:1043110075F00A84745F25F0F582E43404F583E0D6
:10432100900438F09004377440F09006A8E0FF75CF
:10433100F00A84245FF582E43404F583E0900436C6
:10434100F0EF75F00A84745F25F0F582E43404F52A
:1043510083E0900435F09006ACE0245FF582E4340C
:1043610004F583E0900434F09006A9E0FF75F00AAB
:1043710084245FF582E43404F583E0900432F0EFA5
:1043810075F00A84745F25F0F582E43404F583E066
:10439100900431F09006AAE0FF75F00A84245FF5DD
:1043A10082E43404F583E0900430F0EF75F00A8480
:1043B100745F25F0F582E43404F583E090042FF076
:0343C10002481C93
:10595E00AD071252B590046EE0900430F0745F2DD6
:0F596E00F582E43404F583E090042FF002481C26
:10597D00AD071252B590046DE0900430F0745F2DB8
:0F598D00F582E43404F583E090042FF002481C07
:105B10001252B590045FE0900430F090042F743777
:045B2000F002481C2B
:105ABB001252B590045FE0900430F090046EE090C9
:065ACB00042FF002481C4C
:105AA400AD071252B5745F2DF582E43404F583E03A
:075AB40090042FF002481CD2
:1051D800AD071252B5ED75F00A84245FF582E43408
:1051E80004F583E0900430F0ED75F00A84745F25CF
:1051F800F0F582E43404F583E090042FF002481CB3
:104C1D00AB07AA061252B57C007D64AF03AE02123B
:104C2D0025DC745F2FF58274043EF583E09004312A
:104C3D00F07C007D0AAF03AE021225DC7C007D0AFC
:104C4D001225DC745F2DF58274043CF583E090042D
:104C5D0030F0AE02AF037C007D0A1225DC745F2DAF
:0F4C6D00F58274043CF583E090042FF002481C9C
:064C7C007B017A0579FFBF
:104C82001252B5122550245FF582E43404F583E014
:104C9200900432F0900001122569245FF582E43419
:104CA20004F583E0900431F0900002122569245F3C
:104CB200F582E43404F583E0900430F090000312AE
:104CC2002569245FF582E43404F583E090042FF033
:034CD20002481C79
:10372E001252B59004C6E060179005D27401F0A352
:10373E007404F0A374C6F07B017A04795E122AE158
:10374E009004C0E060179005D27401F0A37404F0E9
:10375E00A374C0F07B017A04795A122AE19004BA5C
:10376E00E060179005D27401F0A37404F0A374BA4C
:10377E00F07B017A047956122AE19004B4E06017C6
:10378E009005D27401F0A37404F0A374B4F07B011D
:10379E007A047952122AE19004AEE060179005D2B5
:1037AE007401F0A37404F0A374AEF07B017A047973
:1037BE004E122AE19004A8E060179005D27401F031
:1037CE00A37404F0A374A8F07B017A04794A122A38
:1037DE00E19004A2E060179005D27401F0A3740486
:1037EE00F0A374A2F07B017A047946122AE19004C8
:1037FE009CE060179005D27401F0A37404F0A374DA
:10380E009CF07B017A047942122AE1900496E060E2
:10381E00179005D27401F0A37404F0A37496F07B94
:10382E00017A04793E122AE1900490E06017900527
:10383E00D27401F0A37404F0A37490F07B017A04A7
:10384E00793A122AE190048AE060179005D2740149
:10385E00F0A37404F0A3748AF07B017A0479361213
:10386E002AE1900484E060179005D27401F0A374ED
:10387E0004F0A37484F07B017A047932122AE122D7
:102AE1009005CFEBF0A3EAF0A3E9F0A3E0FBA3E0AC
:102AF100FAA3E0F9900001122569245FF582E4341C
:102B010004F583E0FF9005CFE0FBA3E0FAA3E0F931
:102B1100EF1225969005D2E0FBA3E0FAA3E0F9902D
:102B21000002122569245FF582E43404F583E0FF95
:102B31009005CFE0FBA3E0FAA3E0F990FFFFEF12CD
:102B410025A89005D2E0FBA3E0FAA3E0F9900003E9
:102B5100122569245FF582E43404F583E0FF9005D2
:102B6100CFE0FBA3E0FAA3E0F990FFFEEF1225A866
:102B71009005D2E0FBA3E0FAA3E0F990000412254E
:102B810069245FF582E43404F583E0FF9005CFE02A
:102B9100FBA3E0FAA3E0F990FFFDEF1225A8900551
:102BA100D2E0FBA3E0FAA3E0F990000512256954F5
:102BB1000F24FD6036147003022C4424FD700302BF
:102BC1002C89147003022C9C24066003022CB590FE
:102BD10005CFE0FBA3E0FAA3E024FDF9EA34FFFA14
:102BE1001225504480122596022C899005CFE0FBD6
:102BF100A3E0FAA3E024FDF9EA34FFFA12255044D8
:102C0100801225969005CFE0FBA3E0FAA3E024FE15
:102C1100F9EA34FFFA12255044801225969005CF27
:102C2100E0FBA3E0FAA3E024FFF9EA34FFFA12255E
:102C31005044801225969005CFE0FBA3E0FAA3E073
:102C4100F980699005CFE0FBA3E0FAA3E024FDF948
:102C5100EA34FFFA12255044801225969005CFE000
:102C6100FBA3E0FAA3E024FEF9EA34FFFA122550AF
:102C710044801225969005CFE0FBA3E0FAA3E0245F
:102C8100FFF9EA34FFFA80249005CFE0FBA3E0FAD4
:102C9100A3E024FEF9EA34FFFA80119005CFE0FBAE
:102CA100A3E0FAA3E024FDF9EA34FFFA1225504427
:052CB1008012259622AF
:1044C8009005C3EBF0A3EAF0A3E9F0A3E0FBA3E0B7
:1044D800FAA3E0F9122550FF9005C3E0FBA3E0FA28
:1044E800A3E0F9EF1225969005C6E0FBA3E0FAA336
:1044F800E0F9900001122569FF9005C3E0FBA3E0F5
:10450800FAA3E0F9900001EF1225A89005C6E0FB98
:10451800A3E0FAA3E0F9900002122569FF9005C311
:10452800E0FBA3E0FAA3E0F9900002EF1225A890BF
:1045380005C6E0FBA3E0FAA3E0F9900003122569A1
:10454800FF9005C3E0FBA3E0FAA3E0F9900003EFB6
:104558001225A89005C6E0FBA3E0FAA3E0F99000B5
:1045680004122569FF9005C3E0FBA3E0FAA3E0F974
:10457800900004EF1225A89005C6E0FBA3E0FAA37B
:10458800E0F9900007122569FF9005C3E0FBA3E05E
:0B459800FAA3E0F9900005EF0225A84F
:0F4D2A00EF75F006A42478F9740435F0FA7B01D4
:104D39001225509000061225A890000112256990AD
:104D490000071225A8900002122569900008122573
:104D5900A89000031225699000091225A890000463
:104D690012256990000A1225A8900005122569905C
:054D7900000B0225A85B
:0F4D7E00EE75F006A42484F9740435F0FA7B0175
:104D8D00900006122569122596900007122569904C
:104D9D0000011225A8900008122569900002122525
:104DAD00A89000091225699000031225A890000A09
:104DBD001225699000041225A890000B1225699008
:054DCD0000050225A80D
:10388E0078C77C057D017BFF7A5A79757E007F06AD
:10389E0012252AE49005CDF0A3F0125D3D9005CDE2
:1038AE00EFF0125D319005CEEFF0125D2B9005C555
:1038BE00EFF0125D259005C6EFF0125DA99005C6DA
:1038CE00E0FE9005C5E0FDC39E500AEF9D4006EE5A
:1038DE006003E0701B9005C6E060030239E99005B5
:1038EE00C5E0FE70030239E9EFD39E50030239E9B9
:1038FE00E49005C3F09005C3E0FFC3940A5021EF96
:10390E0075F006A42484F582E43404F583E070088F
:10391E009005C3E0A3F080089005C3E004F080D5C5
:10392E00E49005C3F09005C3E0FFA3E075F006A494
:10393E002FF582E435F0F583E582247EF582E5836A
:10394E003404F583E0FE74C72FF582E43405F58365
:10395E00EEF09005C3E004F0E0B406C99005C4E0B3
:10396E009005C3F09005C3E0FFD39401400B124DB8
:10397E002A9005C3E014F080EBE49005C3F09005A7
:10398E00C3E0FF24C7F582E43405F583E0FE7484BA
:10399E002FF582E43404F583EEF09005C3E004F0D5
:1039AE00E0B406DA12372E12481CE4FF125DAF9017
:1039BE0005CDE0B401257B017A047984900484E07E
:1039CE00FD9005D3E4F0A3EDF0900489E0540F9040
:0B39DE0005D5F09005CEE0FF1228C0D8
:0139E90022BB
:10419000E49005C9F0A3F0125D2B9005C4EFF01276
:1041A0005D259005C5EFF0125DA99005C6EFF012F0
:1041B0005D1F9005C7EFF0125D199005C8EFF01272
:1041C0005D379005CAEFF09005C4E0FFA3E0FEC3A1
:1041D0009F500EA3E09E4009EF60069005C5E07079
:1041E0001A9005C4E060030242B0A3E0FF7003022E
:1041F00042B0A3E0D39F50030242B0E49005C3F065
:104200009005C7E014FF9005C3E0FEC39F500B125A
:104210004D7E9005C3E004F080E69005C7E014757C
:10422000F006A49005C3F09005C7E075F006A4FF62
:104230009005C3E0FDC39FE5F06480F8748098505A
:104240001474842DF582E43404F583E4F09005C3FE
:10425000E004F080D212372E12481CE4FF125DAF4A
:10426000900484E07004FF025D139005C8E06402CE
:10427000703E9005C3F09005CAE0FF9005C3E0C30F
:104280009F502D7B017A047984900484E0FD900591
:10429000D3E4F0A3EDF0900489E0540F9005D5F03D
:1042A0009005C9E0FF1228C09005C3E004F080C665
:0142B00022EB
:104ACA00E4900591F0125D1F900591EFF0E49005D6
:104ADA0090F0900591E014FF900590E0FEC39F507E
:104AEA000B124D7E900590E004F080E6900591E06F
:104AFA001475F006A4900590F0900591E075F00603
:104B0A00A4FF900590E0FDC39FE5F06480F87480EF
:104B1A0098501474842DF582E43404F583E4F090FB
:104B2A000590E004F080D212372E12481C900484BB
:074B3A00E07004FF125D139F
:014B41002251
:1045A30078927C057D017BFF7A5A797B7E007F06BA
:1045B30012252A125D1F900591EFF0125D1FE49002
:1045C3000590F0900590E0FEC39F5020EE75F00635
:1045D300A42484F582E43404F583E0700790059104
:1045E300EEF08008900590E004F080D7E490059009
:1045F300F0900590E0FF2484F582E43404F583E031
:10460300FE74922FF582E43405F583EEF090059065
:10461300E004F0E0B406DAE4900590F0900591E050
:10462300FF900590E0FEC39F500B124D7E900590C6
:10463300E004F080E7E4900590F0900590E0FF241B
:1046430092F582E43405F583E0FE900591E075F080
:1046530006A42FF582E435F0F583E582247EF58206
:10466300E5833404F583EEF0900590E004F0E0B4C4
:0846730006C812372E02481C94
:10467B0078927C057D017BFF7A5A79817E007F06DB
:10468B0012252A125D1F900591EFF0125D1FE49029
:10469B000590F0900590E0FEC39F5020EE75F0065C
:1046AB00A42484F582E43404F583E070079005912B
:1046BB00EEF08008900590E004F080D7E490059030
:1046CB00F0900590E0FFA3E075F006A42FF582E4CF
:1046DB0035F0F583E582247EF582E5833404F5839A
:1046EB00E0FE74922FF582E43405F583EEF090052D
:1046FB0090E004F0E0B406C9900591E0900590F0CD
:10470B00900590E0FFD39401400B124D2A90059039
:10471B00E014F080EBE4900590F0900590E0FF241E
:10472B0092F582E43405F583E0FE74842FF582E480
:10473B003404F583EEF0900590E004F0E0B406DA73
:06474B0012372E02481C8B
:0B33D3009005C3EBF0A3EAF0A3E9F0C3
:1033DE0078CC7C057D017BFF7A5A79877E007F064B
:1033EE0012252A125D1F9005CAEFF0125D1F90057F
:1033FE00CBEFF0E49005C9F09005CBE0FF9005C946
:10340E00E0FEC39F40030234E6EE75F006A4FFAE65
:10341E00F09005C6E0FBA3E0FAA3E02FF9EA3EFA2E
:10342E00900001122569FD9005C3E0FBA3E0FAA30D
:10343E00E0F99000011225696D60030234DD9005FC
:10344E00C6E0FBA3E0FAA3E02FF9EA3EFA900002F1
:10345E00122569FF9005C3E0FBA3E0FAA3E0F99003
:10346E0000021225696F70679005C9E075F006A419
:10347E00FFAEF09005C6E0FBA3E0FAA3E02FF9EA59
:10348E003EFA900003122569FD9005C3E0FBA3E010
:10349E00FAA3E0F9900003122569B505329005C62E
:1034AE00E0FBA3E0FAA3E02FF9EA3EFA9000041243
:1034BE002569FF9005C3E0FBA3E0FAA3E0F99000B5
:1034CE0004122569B507089005C9E0A3F08009909C
:1034DE0005C9E004F00234069005CAE07003125BE1
:1034EE00249005CAE09005C9F09005CBE0FF900549
:1034FE00C9E0FEC39F5021EE75F006A4FF9005C6ED
:10350E00E0FBA3E0FAA3E02FF9EA35F0FA124D8DB5
:10351E009005C9E004F080D19005CBE0FF9005CA7C
:10352E00E06F603DE49005C9F09005CBE024FFFF0D
:10353E00E434FFFE7C007D061225CA9005C6E0FB32
:10354E00A3E0FAA3E02FF9EA3EFAA3E07E0029F900
:10355E00EE3AFAE41225969005C9E004F0E0B406BE
:10356E00C89005C6E0FBA3E0FAA3E0F9122550705F
:05357E0004FF125D13C3
:013583002225
:10002600E4FF125D7FEFB40107D2CD1250D78003F3
:0C0036001242B1125D85BF0103125C5B39
:01004200229B
:05000600E4FF02595E59
:0D000E00125D7FBF0102D2CD7F0102595E5D
:05001E007F0202595EA3
:055DFD007F0302595E66
:055E02007F0402595E5F
:055E07007F0502595E59
:055E0C007F0602595E53
:055E11007F0702595E4D
:055E16007F0802595E47
:055E1B007F0902595E41
:055E20007F0A02595E3B
:055E25007F0B02595E35
:055E2A007F0C02595E2F
:0A5C71007F0D12595EE4FF025DC7CB
:10502300125D7FEFB401057F01025D13125D8BBF3B
:1050330001081242B17F02125D91125D8BBF031909
:10504300E490043EF090043DF090043CF090043B67
:0C505300F012481CE4FF125D911248AB03
:01505F00222E
:1052DE00125D8BBF01081242B17F02125D91125D09
:1052EE008BBF0311E4900439F0900438F012481C7F
:0852FE00E4FF125D910248ABD0
:10530600125D8BBF01081242B17F02125D91125DE0
:105316008BBF0311E4900436F0900435F012481C5C
:08532600E4FF125D910248ABA7
:10573700125D8BBF01081242B17F02125D91125DAB
:105747008BBF030DE4900434F012481CE4FF125D94
:04575700910248ABC8
:10575B00125D8BBF01081242B17F02125D91125D87
:10576B008BBF030DE4900432F0124818E4FF125D76
:04577B00910248ABA4
:10532E00125D8BBF01081242B17F02125D91125DB8
:10533E008BBF0311E4900430F090042FF012481C40
:08534E00E4FF125D910248AB7F
:105B5E007F0112597DE49005FFF0A3F0A3F0A3049A
:025B6E00F02223
:105B70007F0212597DE4900607F0A3F0A3F0A3047E
:025B8000F02211
:105B82007F0312597DE4900610F0A3F0A3F0A30462
:025B9200F022FF
:105B94007F0412597DE490061AF0A3F0A3F0A30445
:025BA400F022ED
:105BA6007F0112597DE4900603F0A3F0A3F0A3044D
:025BB600F022DB
:105BB8007F0212597DE490060CF0A3F0A3F0A30431
:025BC800F022C9
:105BCA007F0312597DE4900616F0A3F0A3F0A30414
:025BDA00F022B7
:105BDC007F0412597DE490061FF0A3F0A3F0A304F8
:025BEC00F022A5
:055E2F007F0102597D16
:055E34007F0202597D10
:085C9600E4FF125D250251D864
:085C9E00E4FF125D2B0251D856
:055E39007F0102597D0C
:055E3E007F0202597D06
:055E43007F0302597D00
:055E48007F0402597DFA
:055E4D007F0502597DF4
:055E52007F0102597DF3
:055E57007F0202597DED
:055E5C007F0302597DE7
:055E61007F0402597DE1
:0E5C3F007F0112597D125D6790058EEFF022F5
:055E66007F0202597DDE
:055E6B007F0102597DDA
:055E70007F0202597DD4
:105A1000E4FFFEFDFC125C8DAC06AD077E277F1017
:0A5A20001225DCAC06AD07024C1D98
:085CA600E4FF125D85025AA41F
:085CAE00E4FF125D7F025AA41D
:1056EC00125DC1EFD39414500D124F5D30A4077F9F
:1056FC00687E001251AB125DC1EFD39414400612B8
:06570C0052B512481C22F8
:10589700125D8BBF0108124C7C7F02125D91125D75
:1058A7008BBF030DE4900432F012481CE4FF125D35
:0258B70091223C
:1059BA00125D8BBF0108124C7C7F02125D91125D51
:0D59CA008BBF0308124817E4FF125D912205
:1058B900125D8BBF0108124C7C7F02125D91125D53
:1058C9008BBF030DE4900430F012481CE4FF125D15
:0258D90091221A
:1058DB00125D8BBF0108124C7C7F02125D91125D31
:1058EB008BBF030DE490042FF012481CE4FF125DF4
:0258FB009122F8
:10535600125D8BBF010E7B017A067907124C827FA4
:1053660002125D91125D8BBF030DE4900432F012C0
:08537600481CE4FF125D9122C6
:1057A200125D8BBF010E7B017A067907124C827F54
:1057B20002125D91125D8BBF0308124817E4FF12BB
:0357C2005D9122D4
:10537E00125D8BBF010E7B017A067907124C827F7C
:10538E0002125D91125D8BBF030DE4900430F0129A
:08539E00481CE4FF125D91229E
:1053A600125D8BBF010E7B017A067907124C827F54
:1053B60002125D91125D8BBF030DE490042FF01273
:0853C600481CE4FF125D912276
:1053CE00125D8BBF010E7B017A067910124C827F23
:1053DE0002125D91125D8BBF030DE4900432F01248
:0853EE00481CE4FF125D91224E
:1057C500125D8BBF010E7B017A067910124C827F28
:1057D50002125D91125D8BBF0308124817E4FF1298
:0357E5005D9122B1
:1053F600125D8BBF010E7B017A067910124C827FFB
:1054060002125D91125D8BBF030DE4900430F01221
:08541600481CE4FF125D912225
:10541E00125D8BBF010E7B017A067910124C827FD2
:10542E0002125D91125D8BBF030DE490042FF012FA
:08543E00481CE4FF125D9122FD
:10544600125D8BBF010E7B017A06791A124C827FA0
:1054560002125D91125D8BBF030DE4900432F012CF
:08546600481CE4FF125D9122D5
:1057E800125D8BBF010E7B017A06791A124C827FFB
:1057F80002125D91125D8BBF0308124817E4FF1275
:035808005D91228D
:10546E00125D8BBF010E7B017A06791A124C827F78
:10547E0002125D91125D8BBF030DE4900430F012A9
:08548E00481CE4FF125D9122AD
:10549600125D8BBF010E7B017A06791A124C827F50
:1054A60002125D91125D8BBF030DE490042FF01282
:0854B600481CE4FF125D912285
:1054BE00125D8BBF010E7B017A067903124C827F3F
:1054CE0002125D91125D8BBF030DE4900432F01257
:0854DE00481CE4FF125D91225D
:10580B00125D8BBF010E7B017A067903124C827FEE
:10581B0002125D91125D8BBF0308124817E4FF1251
:03582B005D91226A
:1054E600125D8BBF010E7B017A067903124C827F17
:1054F60002125D91125D8BBF030DE4900430F01231
:08550600481CE4FF125D912234
:10550E00125D8BBF010E7B017A067903124C827FEE
:10551E0002125D91125D8BBF030DE490042FF01209
:08552E00481CE4FF125D91220C
:10553600125D8BBF010E7B017A06790C124C827FBD
:1055460002125D91125D8BBF030DE4900432F012DE
:08555600481CE4FF125D9122E4
:10582E00125D8BBF010E7B017A06790C124C827FC2
:10583E0002125D91125D8BBF0308124817E4FF122E
:03584E005D912247
:10555E00125D8BBF010E7B017A06790C124C827F95
:10556E0002125D91125D8BBF030DE4900430F012B8
:08557E00481CE4FF125D9122BC
:10558600125D8BBF010E7B017A06790C124C827F6D
:1055960002125D91125D8BBF030DE490042FF01291
:0855A600481CE4FF125D912294
:1055AE00125D8BBF010E7B017A067916124C827F3B
:1055BE0002125D91125D8BBF030DE4900432F01266
:0855CE00481CE4FF125D91226C
:10585100125D8BBF010E7B017A067916124C827F95
:1058610002125D91125D8BBF0308124817E4FF120B
:035871005D912224
:1055D600125D8BBF010E7B017A067916124C827F13
:1055E60002125D91125D8BBF030DE4900430F01240
:0855F600481CE4FF125D912244
:1055FE00125D8BBF010E7B017A067916124C827FEB
:10560E0002125D91125D8BBF030DE490042FF01218
:08561E00481CE4FF125D91221B
:10562600125D8BBF010E7B017A06791F124C827FB9
:1056360002125D91125D8BBF030DE4900432F012ED
:08564600481CE4FF125D9122F3
:10587400125D8BBF010E7B017A06791F124C827F69
:1058840002125D91125D8BBF0308124817E4FF12E8
:035894005D912201
:10564E00125D8BBF010E7B017A06791F124C827F91
:10565E0002125D91125D8BBF030DE4900430F012C7
:08566E00481CE4FF125D9122CB
:10567600125D8BBF010E7B017A06791F124C827F69
:1056860002125D91125D8BBF030DE490042FF012A0
:08569600481CE4FF125D9122A3
:085CB600E4FF125D19025AA47B
:085CBE00E4FF125D1F0251D842
:085CC600E4FF125D31025AA453
:085CCE00E4FF125D37025AA445
:085CD600E4FF125D3D025AA437
:1059D700E4900590F0125D43900590EFF075F003A9
:0D59E700A4FF1258FD900590E0FF025AA4A5
:085CDE00E4FF125D49025AA423
:10569E00E4900590F0125D4F900590EFF0C3940AE0
:1056AE005005E0FF025AA4900590E0C3940B5003FE
:0656BE00025B10125ABB52
:0156C40022C3
:085CE600E4FF125D55025AA40F
:085CEE00E4FF125D5B025AA401
:085CF600E4FF125D61025AA4F3
:10509D00E4900590F0125D67900590EFF0125AA420
:1050AD0090058EE0FF900590E06F601D124DD2903F
:1050BD000590E090058EF0125D73BF010C7F807E30
:0950CD00001251ABE4FF125D7901
:0150D60022B7
:104EC600E4900590F0125D6D900590EFF01251D8C8
:104ED600125D73BF011E125C31125B24125C3190AD
:104EE6000590E02442FFE433FE1251AB125C31E43C
:104EF600FF125D79125DF1BF0112125B24125C3163
:0C4F06007F807E001251ABE4FF125DF7CB
:014F1200227C
:10517200E4900590F0125D31900590EFF012372E19
:1051820012481C900484E0FF6426600CEF643460D3
:1051920007900590E0B4050A30A4077F687E0012EC
:0251A20051AB0F
:0151A40022E8
:1020D0004106B7004106BD004106BB004106BC00F9
:1020E0004106B8004106B5004106BE004106B900F0
:0820F0004106B6004106BA00EA
:105C2100438901758C3C758AB0D2AFD2A9D28C223E
:0E5C4D00438910758DFF758B9CD2AFD2AB22B0
:03000B000243C4E9
:1043C400C0E0C0F0C083C082C0D075D000C000C0BF
:0D43D40001C002C003C004C005C006C00740
:1043E1009005F6E4F0A3F0C28D758C3C758AB0128D
:1043F1005D0D9005F6EFF0125D7F9005F7EFF090FF
:1044010006B7E004F0E0B40A119006BDE004F090B4
:1044110006BAE004F09006B7E4F09006BDE0C3945C
:10442100044002E4F09006BAE0C394184002E4F0BC
:104431009006BBE0B40104A3E004F0125DD9BF0112
:10444100149006B8E004F0E0D394784008125DDFE0
:104451009006B8E4F09005F6E0FFB45F159006B55C
:10446100E004F0E0B4140B9006BEE004F09006B551
:10447100E4F0EF645F601A9005F6E0643160129039
:1044810006B9E004F0E0D394C84006E4F0FF125D01
:10449100139005F6E07015A3E0B402109006B6E0A3
:0C44A10004F0E0C3940A4004B2CDE4F043
:1044AD00D007D006D005D004D003D002D001D00063
:0B44BD00D0D0D082D083D0F0D0E0320D
:03001B00024E751D
:104E7500C0E0C0F0C083C082C0D075D000C000C003
:0D4E850001C002C003C004C005C006C00784
:104E9200E4FF125D0DC28F758DFF758B9CEFB42EF2
:094EA200051221AC8003122693D5
:104EAB00D007D006D005D004D003D002D001D0005B
:0B4EBB00D0D0D082D083D0F0D0E03205
:055D8B009006BDE0FFE1
:015D900022F0
:065D91009006BDEFF022B8
:065D97009006BBEFF022B4
:055D9D009006BCE0FFD0
:015DA20022DE
:065DA300E49006BCF022B2
:055DA9009006BEE0FFC2
:015DAE0022D2
:065DAF009006BEEFF02299
:065DB500E49006B9F022A3
:065DBB009006BCEFF0228F
:055DC1009006BAE0FFAE
:015DC60022BA
:065DC7009006BAEFF02285
:0B20F8004806A5140F09040C22000686
:044FA500E0FD7F8A22
:104FA900D2A0EF54FEFFE4FEEF30E004D2A180026C
:104FB900C2A1D2A2C2A2EFC313FF0EEEB408E9E464
:104FC900FEED30E004D2A18002C2A1D2A2C2A2EDBC
:0A4FD900C313FD0EEEB408E9C2A0F8
:014FE30022AB
:104FE400D2A0EF4401FFE4FDEF30E004D2A180023F
:104FF400C2A1D2A2C2A2EFC313FF0DEDB408E9E42B
:10500400FDEEC313FE30A1054480FE8004EE547F00
:0E501400FED2A2C2A20DEDB408E7C2A0AF0604
:01502200226B
:1048AB00E4FF74A52FF582E43406F583E0FE75F082
:1048BB000A84FDEE75F00A8474AD2FF582E434069C
:1048CB00F583E5F0F0EDC454F0FE74AD2FF582E402
:1048DB003406F583E02EF00FEFB408C6E4FD7F8EAF
:1048EB00124FA97D807F80124FA99006AEE0FD7F0D
:1048FB008C124FA9A3E0FD7F88124FA9A3E0FD7F87
:10490B0086124FA99006B4124FA59006B1E0FD7F19
:10491B0084124FA9A3E0FD7F82124FA9A3E0FD7F74
:0F492B0080124FA9A3124FA57D807F8E024FA946
:104B42007F8C124FE49006AEEFF07F88124FE4A301
:104B5200EFF07F86124FE4A3EFF07F84124FE4A3BD
:104B6200EFF07F82124FE4A3EFF07F80124FE4EF69
:104B7200547FA3F07F8A124FE4A3EFF0E4FF74ADF9
:104B82002FF582E43406F583E0FEC4540FFDEE54A3
:104B92000FFE74A52FF582E43406F583EEF0ED7571
:104BA200F00AA4FE74A52FF582E43406F583E02E04
:064BB200F00FEFB408C88B
:014BB80022DA
:0B5C6600C2A0C2A2E4FD7F80024FA993
:1021030041069200410691004106970041069A005C
:102113004106A100410686004106850043069E0054
:102123000000420698004642069C00784206820060
:1021330000420680000042068F00004206930046DC
:1021430042069500784206A300004106840041063A
:10215300A20041069B004106870041068B0043060F
:0A2163008800000043068C00000015
:075D0600D2AFD2A8D288221F
:03000300025CFE9E
:085CFE00C2A8208E02D28E32F2
:1059F400E4900692F0900691F090069AF090069743
:0C5A0400F09006A1F0900685F0A3F022BF
:1026930030B20590069A8003900697E004F0900606
:1026A30086E004F0E0D394A07480948F4007C28E38
:1026B300D2A80259F4900685E014604E1470030208
:1026C300274614700302279114700302281E147006
:1026D30003022865240560030228B890069AE0D314
:1026E300940040030228B8900697E0FFC390069930
:1026F300E09F900698E0940040030228BF9006856F
:10270300E004F0E490069AF0803490069AE0FFFD2E
:10271300900697E02DFDE433FCC390069DE09D9069
:10272300069CE09C50030228B8EFD39401500302A7
:1027330028BF30A802C2A8900685E004F0E4900602
:1027430097F022900697E0D39400401390069AE006
:10275300900692F0E490069AF0900685E004F090DB
:102763000698E0FEA3E0FF90069DE02FFF90069CF5
:10277300E03EFEEF7803CEC313CE13D8F9FF9006E5
:102783009AE0D39FE49E50030228BF0228B8900624
:102793009AE0D394004055900697E0FF900691F09D
:1027A300E4900697F09006857402F09006A1E0137A
:1027B3001313541FFE249EF582E43406F583E0FDD3
:1027C30025E0F0900692E0D39F400E749E2EF58292
:1027D300E43406F583E04401F09006A1E004F0E060
:1027E300D3941740079006857404F022900698E06E
:1027F300FEA3E0FF90069DE02FFF90069CE03EFEC7
:10280300EF7803CEC313CE13D8F9FF900697E0D326
:102813009FE49E50030228BF0228B8900697E0D396
:102823009400401390069AE0900692F0E490069A82
:10283300F0900685E004F0900698E0FEA3E0FF9098
:10284300069DE02FFF90069CE03EFEEF7803CEC38B
:1028530013CE13D8F9FF90069AE0D39FE49E405C11
:10286300805390069AE0D39400401F900697E0FFB0
:1028730090069DE09F90069CE09400500AC28E90C3
:1028830006847401F0D2A81259F4900698E0FEA3CE
:10289300E0FF90069DE02FFF90069CE03EFE900631
:1028A30097E0D39FE49E40141259F4D2A8C28EE459
:0D28B300900684F0221259F4D2A8C28E22A1
:102CB600E49005EDF0125D0D9005EDEFF0900684C1
:102CC600E064016003022E83C2A890069BE01460B4
:102CD60027046003022E7C90069EE0900688F09002
:102CE600069FE0900689F09006A0E090068AF09094
:102CF600069B7401F0022E7C90069EE0FF900688EB
:102D0600E06F6003022E6490069FE0FE900689E065
:102D16006E6003022E649006A0E0FD90068AE06DC8
:102D26006003022E6490068CE06F7012A3E06E7052
:102D36000DA3E0B50508900687E070208000900698
:102D46009EE090068CF090069FE090068DF090062F
:102D5600A0E090068EF09006A27401F090068774AB
:102D660001F0125DB5E49005C4F09005C4E0FFC320
:102D760094084003022E3FEF75F020A42400FDE5E1
:102D8600F03406FC7B017A0579CD9005F47420F0C9
:102D96007FA0124A63125C31E49005C3F09005C32C
:102DA600E0FFC394204003022E3674CD2FF582E453
:102DB6003405F583E070709005C4E075F020A4FF3B
:102DC6009005C3E07C002FFFEC35F0FEEF7803C3DF
:102DD60033CE33CED8F92400FDEE3437FC7B017AAE
:102DE6000579C59005F47408F07FA0124A63125C59
:102DF6003190068CE0FF9005CAE0B5072A90068D53
:102E0600E0FF9005CBE0B5071E90068EE0C4540F98
:102E1600FF9005CCE0FEC4540FB5070B90068B74EB
:102E260001F0125DB580099005C3E004F0022DA300
:102E36009005C4E004F0022D70E490069EF0A3F025
:102E4600A3F0900688F0A3F0A3F09005EDE0645E91
:102E560060057F01125D79E490069BF0801890066C
:102E66009EE0900688F090069FE0900689F0900616
:0D2E7600A0E090068AF0D2A8E4900684F057
:012E8300222C
:1021AC0030B20590069A8003900697E004F09006F2
:1021BC0086E004F0E0D394A07480948F4006C28E25
:1021CC00D2A88027900685E014605A14700302226E
:1021DC00C014700302230B240360030224529006E4
:1021EC009AE0D394004007D2A8C28E0259F490060C
:1021FC0082E0FEA3E0FF7C007D0F1225CAEF243C99
:10220C00FFE43EFE900697E0D39FEC9E5003022421
:10221C0059900685E004F0900698EEF0A3EFF0E4F8
:10222C00A3F00222BB900680E0FEA3E0FF7C007DC1
:10223C000F1225CAEF2478FFE43EFE90069AE0F9CF
:10224C00FD900697E02DFDE433FCD3ED9FEC9E4012
:10225C0022E9701C900681E004F07006900680E084
:10226C0004F0900683E004F07006900682E004F01F
:10227C00022452E9D394015003022459900680E0C1
:10228C00FEA3E0FF7C007D0F1225CAEF2478FFE44B
:10229C003E90069CF0A3EFF0E4900680F0A3F0A330
:1022AC00F0A3F030A802C2A8900685E004F0E490F8
:1022BC000697F022900697E0D39400401390069A6C
:1022CC00E0900692F0E490069AF0900685E004F017
:1022DC00900698E0FEA3E0FF90069DE02FFF90068D
:1022EC009CE03EFEEF7803CEC313CE13D8F9FF90DB
:1022FC00069AE0D39FE49E50030224590224529084
:10230C00069AE0D394005003022427900697E0FF2E
:10231C00900691F0E4900697F09006857402F09088
:10232C0006A1E0131313541FFE249EF582E4340619
:10233C00F583E025E0F0900692E0FDD39F400E740B
:10234C009E2EF582E43406F583E04401F09006A15C
:10235C00E004F0E0D394175003022427C28E9006B9
:10236C0091E02DFEE43390068FF0A3CEF01259F4D9
:10237C009006A4E004F070069006A3E004F090062A
:10238C009CE0FEA3E0FF900696E02FF0900695E00F
:10239C003EF0E0C313FEA3E013FF90069CEEF0A307
:1023AC00EFF0900695EEF0A3EFF0D39006A4E09436
:1023BC00019006A3E09400405F900693E0FEA3E03A
:1023CC00FF900698E0FCA3E0FD9FFFEC9EFED3EF90
:1023DC00941EEE94004015900694E09DFF90069399
:1023EC00E09CFED3EF941EEE9400502C900698E0E7
:1023FC00FEA3E0FF900694E02FF0900693E03EF0F1
:10240C00E0C313FEA3E013FF900698EEF0A3EFF0E9
:10241C00900693EEF0A3EFF0D2A822900698E0FE7F
:10242C00A3E0FF90069DE02FFF90069CE03EFEEFA0
:10243C007803CEC313CE13D8F9FF900697E0D39F41
:0E244C00E49E400980001259F4D2A8C28E22EC
:055DCD009006A2E0FFBA
:015DD20022AE
:065DD300E49006A2F0229C
:055DD900900687E0FFC9
:015DDE0022A2
:065DDF00E4900687F022AB
:055DE50090068BE0FFB9
:015DEA002296
:065DEB00E490068BF0229B
:085C8D0090068FE0FEA3E0FF8A
:015C950022EC
:10591E000000000000000000000000000000000079
:10592E000000000000000000000000000000000069
:0F216D004806BF00000000000000004106C70048
:10004600789B7C057D017BFF7A59791E7E007F2097
:1000560012252AE49005BBF0A3F0A3F0A3F0A3F0C9
:10006600A3F0A3F0A3F0125D0D9005BBEFF0125DB7
:10007600679005BCEFF0125D6D9005BDEFF0125D67
:10008600199005BEEFF0125D1F9005BFEFF0125DEF
:100096004F9005C0EFF0125D319005C1EFF0125D93
:1000A600379005C2EFF0122CB6125DCDEF640160F9
:1000B60003020D869005BBE024CE24FC4003020A11
:1000C600A824FC4003020B5724FC4003020BF8242F
:1000D600FC4003020C9924E47003020D49147003DA
:1000E600020429245F6003020D83E4FF125DAF90D2
:1000F600068EE0FF54F0600302022B90068CE0FEB1
:10010600C4540FFD9005C0E0FC6D6008EC640A6005
:100116000302022B9005BCE0B4010CEF540F2474CB
:10012600F582E43405800D90068EE0540F2474F5B4
:1001360082E43404F583E0900593F090068CE0FFAA
:10014600900594EDF0EF540FA3F090068DE0FFC4F8
:10015600540F900596F0EF540FA3F0A3EEF090061F
:100166008DE0900599F090068EE090059AF0900546
:1001760093E0FF64336042EF603FE4900591F090B6
:1001860005C2E0FF900591E0C39F505C7B017A05B4
:100196007993900593E0FD9005D3E4F0A3EDF090FC
:1001A600068EE0540F9005D5F09005C1E0FF1228A9
:1001B600C0900591E004F080C69005C67401F0A3D6
:1001C6007404F0A37484F07B017A0579931233D317
:1001D6007B017A05799390068EE0540F9005C7F05F
:1001E6007F92123C940207081252B57B017A057978
:1001F6009390068EE0540F9005C7F07F91123C94C1
:100206009005C67401F0A37405F0A37493F07B0106
:100216007A0479841244C812372E12481C7F5F1262
:100226005D13020D83E4900590F0900590E0FFC306
:1002360094304003020D83EF75F020A4FDACF07BF3
:10024600017A05799B9005F47420F07FA0124A6329
:10025600125C31E490058FF090058FE0FFC3942087
:100266004003020420749B2FF582E43405F583E0F5
:100276006003020417900590E075F020A4FF900536
:100286008FE07C002FFFEC35F0FEEF7803C333CE12
:1002960033CED8F92400FDEE3407FC7B017A0579CC
:1002A600939005F47408F07FA0124A63125C3190B3
:1002B60005BCE06401602B90068CE0FF900598E099
:1002C600B5071F90068DE0FF900599E0B5071390DE
:1002D600068EE0C4540FFF90059AE0FEC4540F6FDB
:1002E60060389005BCE06401600302041790068C38
:1002F600E0FF900598E06F600302041790068DE01A
:10030600FF900599E06F600302041790068EE0FFE8
:1003160090059AE06F600302041790068EE0FF9046
:10032600059AF0900593E0C3943250279005BCE0FF
:10033600B4010CEF540F2474F582E43405800D905B
:10034600068EE0540F2474F582E43404F583E090BD
:100356000593F0900593E0FF64336042EF603FE45D
:10036600900591F09005C2E0FF900591E0C39F5083
:10037600617B017A057993900593E0FD9005D3E4BE
:10038600F0A3EDF090068EE0540F9005D5F09005A1
:10039600C1E0FF1228C0900591E004F080C67B0101
:1003A6007A05799390068EE0540F9005C7F07F92F8
:1003B600123C949005C67401F0A37404F0A37484EF
:1003C600F07B017A0579931233D312372E12481C2B
:1003D60080481252B57B017A05799390068EE054D7
:1003E6000F9005C7F07F91123C949005C67401F0FA
:1003F600A37405F0A37493F07B017A047984124404
:10040600C812372E12481C7F5F125D13125DD3800F
:100416000990058FE004F002025E900590E004F07A
:10042600020230E4FF125DAF90068EE0FF54F060EA
:100436000302071A90068CE0FEC4540FFD9005C017
:10044600E0FC6D6008EC640A600302071A9005BCC4
:10045600E0B4010CEF540F2474F582E43405800DEA
:1004660090068EE0540F2474F582E43404F583E09C
:10047600900593F090068CE0FF900594EDF0EF5414
:100486000FA3F090068DE0FFC4540F900596F0EF91
:10049600540FA3F0A3EEF090068DE0900599F0902E
:1004A600068EE090059AF09005BEE06401600302B6
:1004B60005E2900593E0FF64336042EF603FE4900D
:1004C6000591F09005C2E0FF900591E0C39F505C56
:1004D6007B017A057993900593E0FD9005D3E4F0CE
:1004E600A3EDF090068EE0540F9005D5F09005C16F
:1004F600E0FF1228C0900591E004F080C67B017AE7
:1005060005799390068EE0540F9005C7F07F9212FE
:100516003C949005C67401F0A37404F0A37484F0AF
:100526007B017A0579931233D30207087B017A059A
:10053600799390068EE0540F9005C7F07F91123C98
:1005460094900594E0FF900485E06F7026900595E1
:10055600E0FF900486E06F701A900596E0FF900425
:1005660087E0B5070E900597E0FF900488E0B50791
:1005760002804F9005BFE0900591F0900591E0FF55
:10058600D39401401AEF75F006A42478F974043563
:10059600F0FA7B01124D39900591E014F080DCE40D
:1005A600900591F0900591E0FFC394065014748471
:1005B6002FF582E43404F583E4F0900591E004F02D
:1005C60080E29005C67401F0A37405F0A37493F05D
:1005D6007B017A0479841244C80207089005BEE0BC
:1005E60064026003020D83900593E0FF64336003A9
:1005F600EF702F7B017A05799390068EE0540F9069
:1006060005C7F07F92123C949005C67401F0A3745E
:1006160004F0A37484F07B017A0579931233D30234
:100626000708E4900592F09005BFE0FF900592E080
:10063600FEC39F4003020D83EE75F006A42484F5E5
:1006460082E43404F583E060030207117B017A0536
:10065600799390068EE0540F9005C7F07F91123C77
:1006660094900592E0FF75F006A4247FF582E434A9
:1006760004F583E0FE900594E0FDEE6D705EEF7587
:10068600F006A42480F582E43404F583E0FF9005A7
:1006960095E0FEEF6E7045900592E0FF75F006A4BA
:1006A6002481F582E43404F583E0FE900596E0FDAE
:1006B600EE6D7028EF75F006A42482F582E434040A
:1006C600F583E0FF900597E0FEEFB5060F900592E3
:1006D600E075F006A4247EF97404800D900592E07E
:1006E60075F006A42484F9740435F0FA7B01C0037E
:1006F6009005C6EBF0A37405F0A37493F0D0031233
:1007060044C812372E12481C020D83900592E0044D
:10071600F002062DE4900590F0900590E0FFC3945A
:10072600304003020D83EF75F020A4FDACF07B0191
:100736007A05799B9005F47420F07FA0124A631223
:100746005C31E490058FF090058FE0FFC394204064
:1007560003020A9F749B2FF582E43405F583E0605B
:1007660003020A96900590E075F020A4FF90058F8D
:10077600E07C002FFFEC35F0FEEF7803C333CE3379
:10078600CED8F92400FDEE3407FC7B017A05799377
:100796009005F47408F07FA0124A63125C3190054C
:1007A600BCE06401602B90068CE0FF900598E0B5F4
:1007B600071F90068DE0FF900599E0B50713900698
:1007C6008EE0C4540FFF90059AE0FEC4540F6F608C
:1007D600389005BCE064016003020A9690068CE03E
:1007E600FF900598E06F6003020A9690068DE0FF81
:1007F600900599E06F6003020A9690068EE0FF90DE
:10080600059AE06F6003020A9690068EE0FF900557
:100816009AF0900593E0C3943250279005BCE0B45B
:10082600010CEF540F2474F582E43405800D900614
:100836008EE0540F2474F582E43404F583E09005C9
:1008460093F09005BEE0640160030209549005939D
:10085600E0FF6433700302096BEF700302096BE477
:10086600900591F09005C2E0FF900591E0C39F507E
:100876002D7B017A057993900593E0FD9005D3E4ED
:10088600F0A3EDF090068EE0540F9005D5F090059C
:10089600C1E0FF1228C0900591E004F080C67B01FC
:1008A6007A05799390068EE0540F9005C7F07F91F4
:1008B600123C94900594E0FF900485E06F702690BA
:1008C6000595E0FF900486E06F701A900596E0FFAC
:1008D600900487E0B5070E900597E0FF900488E046
:1008E600B50702804F9005BFE0900591F090059105
:1008F600E0FFD39401401AEF75F006A42478F9744A
:100906000435F0FA7B01124D39900591E014F08020
:10091600DCE4900591F0900591E0FFC39406501435
:1009260074842FF582E43404F583E4F0900591E0B5
:1009360004F080E29005C67401F0A37405F0A37478
:1009460093F07B017A0479841244C8020A809005E8
:10095600BEE064026003020A91900593E0FF6433EF
:100966006003EF70357B017A05799390068EE0542B
:100976000F9005C7F07F92123C949005C67401F063
:10098600A37404F0A37484F07B017A05799312337F
:10099600D312372E12481C020A9FE4900592F0905B
:1009A60005BFE0FF900592E0FEC39F4003020A9157
:1009B600EE75F006A42484F582E43404F583E06041
:1009C60003020A887B017A05799390068EE0540F1C
:1009D6009005C7F07F91123C94900592E0FF75F068
:1009E60006A4247FF582E43404F583E0FE900594A2
:1009F600E0FDEE6D705EEF75F006A42480F582E4EE
:100A06003404F583E0FF900595E0FEEF6E704590A7
:100A16000592E0FF75F006A42481F582E43404F51E
:100A260083E0FE900596E0FDEE6D7028EF75F0060A
:100A3600A42482F582E43404F583E0FF900597E070
:100A4600FEEFB5060F900592E075F006A4247EF938
:100A56007404800D900592E075F006A42484F97460
:100A66000435F0FA7B01C0039005C6EBF0A37405CC
:100A7600F0A37493F0D0031244C812372E12481C08
:100A86008009900592E004F00209A5125DD3800961
:100A960090058FE004F002074D900590E004F00207
:100AA600071F7F35125D1390068EE0540F9006BF28
:100AB600F09005FFE09006C0F0900600E09006C1B9
:100AC600F0900601E09006C2F0900602E09006C3A0
:100AD600F090068CE09006C4F090068DE09006C576
:100AE600F09005BCE090068EB40103E08003E0546C
:100AF600F09006C6F07B017A0679BF123584400372
:100B0600020D83125C31900602E06409703D900686
:100B160001E06409702F900600E0B409229005FFF9
:100B2600E004F0E4A3F0A3F09005FFE0B4150AE4B6
:100B3600F090060204F0020D83900602020D249046
:100B46000600020D2C900601020D39900602020DD8
:100B5600447F39125D1390068EE0FE540F9006BF57
:100B6600F0900607E09006C0F0900608E09006C1F7
:100B7600F0900609E09006C2F090060AE09006C3DF
:100B8600F090068CE09006C4F090068DE09006C5C5
:100B9600F0EE54F0A3F07B017A0679BF12321640CC
:100BA60003020D83125C3190060AE06409703D90E1
:100BB6000609E06409702F900608E0B40922900641
:100BC60007E004F0E4A3F0A3F0900607E0B4150AEA
:100BD600E4F090060A04F0020D8390060A020D2442
:100BE600900608020D2C900609020D3990060A029D
:100BF6000D447F3D125D139006BF7434F0900610CD
:100C0600E09006C0F0900611E09006C1F090061242
:100C1600E09006C2F0900613E09006C3F090068CB2
:100C2600E09006C4F090068DE09006C5F090068E22
:100C3600E054F09006C6F07B017A0679BF122E8446
:100C46004003020D83125C31900613E06409703D87
:100C5600900612E06409702F900611E0B409229004
:100C66000610E004F0E4A3F0A3F0900610E0B4153B
:100C76000AE4F090061304F0020D83900613020DA9
:100C860024900611020D2C900612020D39900613BF
:100C9600020D447F41125D139006BF7433F0900637
:100CA6001AE09006C0F090061BE09006C1F0900690
:100CB6001CE09006C2F090061DE09006C3F0900678
:100CC6008CE09006C4F090068DE09006C5F0900684
:100CD6008EE054F09006C6F07B017A0679BF12309A
:100CE6004D4003020D83125C3190061DE0640970CD
:100CF6004A90061CE06409703790061BE0B409238D
:100D060090061AE004F0E4A3F0A3F090061AE0B40B
:100D16001509E4F090061D04F0806290061D74012A
:100D2600F0805A90061BE004F0E4A3F0A3F0804D97
:100D360090061CE004F0E4A3F0804290061DE00457
:100D4600F0803AE4FF125D799006C77401F09005D1
:100D5600BCE0B40112A3E0FF90068EE0540F2474A9
:100D6600F582E4340580129005BDE0FF90068EE022
:100D7600540F2474F582E43404F583EFF0125DD346
:060D860012419002388EBC
:055DF1009006C7E0FF71
:015DF600228A
:065DF7009006C7EFF02248
:10593E00FFFFFFFFFFFFFFFFFFFFFFFFFFFFFFFF69
:10594E00FFFFFFFFFFFFFFFFFFFFFFFFFFFFFFFF59
:10217C00602006300000000000000000000000009D
:10218C000000000000000000000000000000000043
:0F219C0000000000480650000000000000000096
:035E7500DFFE222B
:105AE700AE07AF061EEF600C7FF5125E757FF512ED
:055AF7005E7580EE2247
:105AD100D2B400D2B50000000000C2B40000000042
:065AE10000C2B500002226
:105BEE00C2B400D2B50000000000D2B40000000024
:015BFE002284
:10506000E4FEEFA806088002C333D8FC30E704D280
:10507000B48002C2B400D2B50000000000C2B50E78
:10508000EEB408DE0000D2B40000D2B5000000305B
:0C509000B404C20A8002D20AC2B50000BB
:01509C0022F1
:10571200E4FFD2B4FE00C2B50000000000D2B50022
:1057220000EF25E0FF30B4010F00000EEEB408E5F3
:04573200C2B50000FC
:015736002250
:105BFF00C2B4000000D2B50000000000C2B5000022
:015C0F002272
:105C1000D2B4000000D2B50000000000C2B5000000
:015C20002261
:104BB900900593E075F020A42400FDE5F03406FC8F
:0E4BC9007A0679307B0174209005CEF07FA033
:104BD700125AD1125060200A02C322ECFF12506011
:104BE700200A02C322AF05125060200A02C322E442
:104BF700FD9005CEE0FFEDC39F5016122550FF1222
:104C07005060200A02C322740129F9E43AFA0D80A0
:054C1700E0125BEED38A
:014C1C002275
:104A4D00EF75F020A4FDACF07A06793074207B016F
:064A5D009005F4F07FA0BB
:054A63009005EEEFF0EC
:104A6800125AD1E0FF125060200A02C322ECFF1252
:104A78005060200A02C322AF05125060200A02C308
:104A880022125AD19005EEE004FF125060200A026B
:104A9800C322E4FD9005F4E014FFEDC39F50141207
:104AA8005712EF122596125BFF740129F9E43AFABE
:104AB8000D80E1125712EF122596125C10125BEE70
:014AC800D31A
:014AC90022CA
:0B3584009005C3EBF0A3EAF0A3E9F010
:10358F00E4A3F0A3F09005C6F09005C6E0FFC39446
:10359F00384003023678124A4D125C31E49005C769
:1035AF00F09005C7E0FFC39420400302366F7430DC
:1035BF002FF582E43406F583E0600302366690054A
:1035CF00C6E075F020A4FFA3E07C002FFFEC35F0E0
:1035DF00FEEF7803C333CE33CED8F92400FDEE349B
:1035EF0007FC7A0679507408124A5B125C31900519
:1035FF00C3E0FBA3E0FAA3E0F9900005122569FFF1
:10360F00900655E06F7050900006122569FF9006E6
:10361F0056E06F7042900007122569FF900657E041
:10362F006F7034900651E09005FFF0900652E090D5
:10363F000600F0900653E0900601F0900654E090DB
:10364F000602F0125D73BF010C7F817E001251AB39
:10365F00E4FF125D79C3229005C7E004F00235B094
:10366F009005C6E004F0023598E49005C6F0900589
:10367F00C6E0FFC39420400302372C124A4D125C60
:10368F0031E49005C7F09005C7E0FFC394204003D5
:10369F0002372374302FF582E43406F583E0606B34
:1036AF009005C6E075F020A4FFA3E07C002FFFEC8F
:1036BF0035F0FEEF7803C333CE33CED8F92400FDB7
:1036CF00EE3407FC9005C3E0FBA3E0FAA3E0F97426
:1036DF0008124BD1125C319005C7E02430F582E41B
:1036EF003406F583E4F09005C6E075F020A4FDAC38
:1036FF00F0124BC9125C31125D73BF010C7F807EDB
:10370F00001251ABE4FF125D79D3229005C7E0049C
:0E371F00F00236959005C6E004F002367DC338
:01372D002279
:0B3216009005C3EBF0A3EAF0A3E9F081
:10322100E4A3F0A3F09005C6F09005C6E0FFC394B7
:10323100384003023312124A4D125C31E49005C743
:10324100F09005C7E0FFC3942040030233097430B6
:103251002FF582E43406F583E06003023300900524
:10326100C6E075F020A4FFA3E07C002FFFEC35F051
:10327100FEEF7803C333CE33CED8F92400FDEE340C
:1032810007FC7B017A0679509005F47408F07FA061
:10329100124A63125C319005C3E0FBA3E0FAA3E09C
:1032A100F9900005122569FF900655E06F70509066
:1032B1000006122569FF900656E06F7042900007E4
:1032C100122569FF900657E06F7034900651E09027
:1032D1000607F0900652E0900608F0900653E09041
:1032E1000609F0900654E090060AF0125D73BF01E2
:1032F1000C7F817E001251ABE4FF125D79C32290F5
:1033010005C7E004F00232429005C6E004F0023243
:103311002AE49005C6F09005C6E0FFC39408400377
:103321000233D1EF75F020A42400FDE5F03406FC52
:10333100124A55125C31E49005C7F09005C7E0FFD1
:10334100C3942040030233C874302FF582E434065D
:10335100F583E060699005C6E075F020A4FFA3E065
:103361007C002FFFEC35F0FEEF7803C333CE33CE74
:10337100D8F92400FDEE3437FC9005C3E0FBA3E04F
:10338100FAA3E0F99005CE7408F07FA0124BD71292
:103391005C319005C7E02430F582E43406F583E41E
:1033A100F09005C6124BBC125C31125D73BF010C6B
:1033B1007F807E001251ABE4FF125D79D32290052C
:1033C100C7E004F002333C9005C6E004F002331775
:0133D100C338
:0133D20022D8
:0B2E84009005C3EBF0A3EAF0A3E9F017
:102E8F00E4A3F0A3F09005C6F09005C6E0FFC3944D
:102E9F00384003022F80124A4D125C31E49005C76F
:102EAF00F09005C7E0FFC394204003022F777430E2
:102EBF002FF582E43406F583E06003022F6E900550
:102ECF00C6E075F020A4FFA3E07C002FFFEC35F0E7
:102EDF00FEEF7803C333CE33CED8F92400FDEE34A2
:102EEF0007FC7B017A0679509005F47408F07FA0F7
:102EFF00124A63125C319005C3E0FBA3E0FAA3E032
:102F0F00F9900005122569FF900655E06F705090FB
:102F1F000006122569FF900656E06F704290000779
:102F2F00122569FF900657E06F7034900651E090BC
:102F3F000610F0900652E0900611F0900653E090C4
:102F4F000612F0900654E0900613F0125D73BF0165
:102F5F000C7F817E001251ABE4FF125D79C322908A
:102F6F0005C7E004F0022EB09005C6E004F0022E73
:102F7F0098E49005C6F09005C6E0FFC3940840039F
:102F8F0002304BEF75F020A42400FDE5F03404FC73
:102F9F00124A55125C31E49005C7F09005C7E0FF67
:102FAF00C39420400302304274302FF582E434067C
:102FBF00F583E060759005C6E075F020A4FFA3E0EF
:102FCF007C002FFFEC35F0FEEF7803C333CE33CE0A
:102FDF00D8F92400FDEE3427FC9005C3E0FBA3E0F5
:102FEF00FAA3E0F99005CE7408F07FA0124BD71228
:102FFF005C319005C7E02430F582E43406F583E4B4
:10300F00F09005C6E075F020A42400FDE5F034042F
:10301F00124BC8125C31125D73BF010C7F807E00B2
:10302F001251ABE4FF125D79D3229005C7E004F093
:0D303F00022FAA9005C6E004F0022F85C301
:01304C002261
:0B304D009005C3EBF0A3EAF0A3E9F04C
:10305800E4A3F0A3F09005C6F09005C6E0FFC39482
:10306800384003023149124A4D125C31E49005C7D9
:10307800F09005C7E0FFC39420400302314074304C
:103088002FF582E43406F583E060030231379005BA
:10309800C6E075F020A4FFA3E07C002FFFEC35F01C
:1030A800FEEF7803C333CE33CED8F92400FDEE34D7
:1030B80007FC7B017A0679509005F47408F07FA02C
:1030C800124A63125C319005C3E0FBA3E0FAA3E067
:1030D800F9900005122569FF900655E06F70509031
:1030E8000006122569FF900656E06F7042900007AF
:1030F800122569FF900657E06F7034900651E090F2
:10310800061AF0900652E090061BF0900653E090E5
:10311800061CF0900654E090061DF0125D73BF0186
:103128000C7F817E001251ABE4FF125D79C32290BF
:1031380005C7E004F00230799005C6E004F00230DB
:1031480061E49005C6F09005C6E0FFC3940840030B
:10315800023214EF75F020A42400FDE5F03405FCDC
:10316800124A55125C31E49005C7F09005C7E0FF9C
:10317800C39420400302320B74302FF582E43406E6
:10318800F583E060759005C6E075F020A4FFA3E024
:103198007C002FFFEC35F0FEEF7803C333CE33CE3F
:1031A800D8F92400FDEE342FFC9005C3E0FBA3E022
:1031B800FAA3E0F99005CE7408F07FA0124BD7125D
:1031C8005C319005C7E02430F582E43406F583E4E9
:1031D800F09005C6E075F020A42400FDE5F0340564
:1031E800124BC8125C31125D73BF010C7F807E00E8
:1031F8001251ABE4FF125D79D3229005C7E004F0C9
:0D3208000231739005C6E004F002314EC3A0
:013215002296
:0B3DDD00900590EBF0A3EAF0A3E9F0E2
:103DE800E4A3F0A3F0900593F0900593E0FFC3944B
:103DF800204003023F1B124A4D125C31E4900594A7
:103E0800F0900594E0FFC394204003023F01900521
:103E180090E0FBA3E0FAA3E0F91225507028900087
:103E2800011225697020900002122569701890000F
:103E380003122569701074302FF582E43406F58377
:103E480074FFF0023EF8900594E0FD2430F582E41A
:103E58003406F583E06003023EF8900593E075F0C0
:103E680020A47C002DFFEC35F0FEEF7803C333CEA1
:103E780033CED8F92400FDEE3407FC7B017A0679AD
:103E8800509005F47408F07FA0124A63125C3190D8
:103E98000590E0FBA3E0FAA3E0F9122550FF900695
:103EA80051E06F704B900001122569FF900652E0B7
:103EB8006F703D900002122569FF900653E06F7005
:103EC8002F900003122569FF900654E0B507219052
:103ED8000594E02430F582E43406F58374FFF0900D
:103EE8000593E075F020A4FDACF0124BC9125C31CB
:103EF800900594E004F0023E09900593E075F020E7
:103F0800A4FDACF0124BC9125C31900593E004F0AB
:043F1800023DF1D3A2
:013F1C002282
:0B405900900590EBF0A3EAF0A3E9F063
:10406400E4A3F0A3F0900593F0900593E0FFC394CC
:1040740008400302418EEF75F020A42400FDE5F012
:104084003406FC124A55125C31E4900594F0900514
:1040940094E0FFC39420400302417F900590E0FB2D
:1040A400A3E0FAA3E0F9122550702890000112252C
:1040B400697020900002122569701890000312257F
:1040C40069701074302FF582E43406F58374FFF0C0
:1040D400024176900594E0FD2430F582E43406F53F
:1040E40083E06003024176900593E075F020A47CA0
:1040F400002DFFEC35F0FEEF7803C333CE33CED87A
:10410400F92400FDEE3437FC7B017A0679509005E2
:10411400F47408F07FA0124A63125C31900590E0B9
:10412400FBA3E0FAA3E0F9122550FF900651E06FDB
:104134007040900001122569FF900652E06F7032C2
:10414400900002122569FF900653E06F70249000DE
:1041540003122569FF900654E06F7016900594E0F1
:104164002430F582E43406F58374FFF0124BB9125F
:104174005C31900594E004F0024092124BB9125C59
:0B41840031900593E004F002406DD381
:01418F00220D
:0B39EA00900590EBF0A3EAF0A3E9F0D9
:1039F500E4A3F0A3F0900593F0900593E0FFC39442
:103A0500084003023B3DEF75F020A42400FDE5F0DE
:103A15003404FC124A55125C31E4900594F090058B
:103A250094E0FFC394204003023B1F900590E0FB08
:103A3500A3E0FAA3E0F912255070289000011225A1
:103A450069702090000212256970189000031225F4
:103A550069701074302FF582E43406F58374FFF035
:103A6500023B16900594E0FD2430F582E43406F51A
:103A750083E06003023B16900593E075F020A47C7B
:103A8500002DFFEC35F0FEEF7803C333CE33CED8EF
:103A9500F92400FDEE3427FC7B017A067950900568
:103AA500F47408F07FA0124A63125C31900590E02F
:103AB500FBA3E0FAA3E0F9122550FF900651E06F51
:103AC500704F900001122569FF900652E06F70411A
:103AD500900002122569FF900653E06F7033900045
:103AE50003122569FF900654E06F7025900594E058
:103AF5002430F582E43406F58374FFF0900593E0F5
:103B050075F020A42400FDE5F03404124BC8125CC6
:103B150031900594E004F0023A23900593E075F0A6
:103B250020A42400FDE5F03404124BC8125C31904A
:093B35000593E004F00239FED30F
:013B3E002264
:0B3B3F00900590EBF0A3EAF0A3E9F082
:103B4A00E4A3F0A3F0900593F0900593E0FFC394EB
:103B5A00084003023C92EF75F020A42400FDE5F032
:103B6A003405FC124A55125C31E4900594F0900534
:103B7A0094E0FFC394204003023C74900590E0FB5C
:103B8A00A3E0FAA3E0F9122550702890000112254B
:103B9A00697020900002122569701890000312259E
:103BAA0069701074302FF582E43406F58374FFF0DF
:103BBA00023C6B900594E0FD2430F582E43406F56E
:103BCA0083E06003023C6B900593E075F020A47CCF
:103BDA00002DFFEC35F0FEEF7803C333CE33CED899
:103BEA00F92400FDEE342FFC7B017A06795090050A
:103BFA00F47408F07FA0124A63125C31900590E0D9
:103C0A00FBA3E0FAA3E0F9122550FF900651E06FFA
:103C1A00704F900001122569FF900652E06F7041C3
:103C2A00900002122569FF900653E06F70339000EE
:103C3A0003122569FF900654E06F7025900594E001
:103C4A002430F582E43406F58374FFF0900593E09E
:103C5A0075F020A42400FDE5F03405124BC8125C6F
:103C6A0031900594E004F0023B78900593E075F0FA
:103C7A0020A42400FDE5F03405124BC8125C3190F3
:093C8A000593E004F0023B53D362
:013C9300220E
:104DD20078917C057D017BFF7A59793E7E007F20A8
:104DE20012252AE49005B1F0A3F09005B1E0FEA3EC
:104DF200E0FFC39438EE94005027EF7805C333CE1A
:104E020033CED8F9FDAC067A057991124BCD125CFE
:104E1200319005B2E004F070D19005B1E004F08069
:014E2200C9C6
:014E2300226C
:105A5C007F7E125C847F03125C847F33125C847FB4
:095A6C0004125C847FEF025C84EB
:0651A5002401FFE433FECB
:1051AB009005E3EEF0A3EFF07F7E125C847F041298
:1051BB005C847F41125C849005E3E0FF125C849079
:0D51CB0005E3A3E0FF125C847FEF025C842B
:1058FD00900591EFF07F7E125C847F03125C847FB4
:10590D0031125C84900591E0FF125C847FEF025CA4
:01591D008405
:105B24007F7E125C847F02125C847F0E125C847F11
:045B3400EF025C849C
:105B38007F7E125C847F02125C847F01125C847F0A
:045B4800EF025C8488
:0F3F1D009005D6A3E0FFA3E0FBA3E0FAA3E0F931
:053F2C009005DFEFF03D
:103F3100A3EBF0A3EAF0A3E9F0EFD394024003026C
:103F410040369005DFE064016017A3E0FBA3E0FACF
:103F5100A3E0F99000021225692401FFE433FE80F9
:103F6100219005E0E0FBA3E0FAA3E0F99000021242
:103F7100256960111251A57F1D7E001251AB7F1E74
:103F81007E001251AB9005DFE064016013A3E0FBFA
:103F9100A3E0FAA3E0F99000031225692401804E01
:103FA1009005E0E0FBA3E0FAA3E0F99000031225FD
:103FB1006960426401702490000412256970047FD5
:103FC1000B802E9005E0E0FBA3E0FAA3E0F990005E
:103FD10004122569240BFFE43380169005E0E0FB11
:103FE100A3E0FAA3E0F99000031225692413FFE48A
:103FF10033FE1251AB9005DFE064016011A3E0FBD9
:10400100A3E0FAA3E0F9900004122569801F90054E
:10401100E0E0FBA3E0FAA3E0F9900004122569FFB8
:1040210060359000031225696401602BEF2401FFC4
:10403100E433FE801F9005DFE024FC600D14601066
:10404100240270137F3E7E00800A7F3C7E00800444
:074051007F687E001251ABF5
:014058002245
:0E28C0009005CFEFF0A3EBF0A3EAF0A3E9F050
:1028CE00E49005DEF0125D4F9005DEEFF09005CF3F
:1028DE00E0FF7E009005D6EEF0A3EFF09005D0E07D
:1028EE00F9A3E0FAA3E09005D8C9F0A3EAF0A3E9B2
:1028FE00F09005D3E0FDA3E09005DBCDF0A3EDF065
:10290E009005D5E09005DDF0D3EF9402EE940040F3
:10291E0003022ACB7F3E1251AB9005DDE0640F70AF
:10292E00030229EC7F697E001251AB9005DEE06454
:10293E000A60030229F39005D8E0FBA3E0FAA3E0B6
:10294E00F9900001122569FFD39409502B9005D6FA
:10295E00E07004A3E064016005EF2401803A900565
:10296E00D8E0FBA3E0FAA3E0F9900001122569601C
:10297E00741251A57F1F804A9005D8E0FBA3E0FAA0
:10298E00A3E0F9900001122569FFD3940F500FEFC9
:10299E00C3940A4009EF2417FFE433FE80449005E8
:1029AE00D8E0FBA3E0FAA3E0F99000011225692418
:1029BE00EF601314601614601914601C2404702543
:1029CE007F287E00801C7F2C7E0080167F2F7E004D
:1029DE0080107F307E00800A7F357E0080047F3F2E
:1029EE007E001251AB123F1D9005DDE0640F6003B7
:1029FE00022A957F40FE1251AB9005DEE0640A601C
:102A0E0003022A8F9005D8E0FBA3E0FAA3E0F99029
:102A1E000001122569FFD394095005EF2401801A95
:102A2E009005D8E0FBA3E0FAA3E0F990000112258F
:102A3E0069FFD3940F5009EF2417FFE433FE803E55
:102A4E009005D8E0FBA3E0FAA3E0F990000112256F
:102A5E006924EF601314601614601914601C2404AA
:102A6E00701F7F287E0080167F2C7E0080107F2FA7
:102A7E007E00800A7F307E0080047F357E001251FA
:102A8E00AB7F417E0080459005D6E07004A3E064E4
:102A9E0002603F9005DBE0FEA3E0FFC39432EE94AC
:102AAE00005009EF2442FFE43EFE80209005DBE05B
:102ABE007004A3E06434701A7F68FE800F9005DB0B
:102ACE00E07004A3E0643470067F68FE0251AB121E
:022ADE003F1D9A
:012AE00022D3
:0E3C94009005C3EFF0A3EBF0A3EAF0A3E9F074
:103CA200E49005C8F0A3F0A3F0A3F0A3F0A3F012F0
:103CB2004B427FAA125C7B7F42125C7B7F01125CCB
:103CC2007B7F01125C7B7F01125C7B9005C3E0FF6E
:103CD200125C7B7FFF125C7B9005C4E0FBA3E0FAE1
:103CE200A3E0F9900001122569C454F0FF9000028C
:103CF2001225694FFF9005C8F0900003122569C490
:103D020054F0FE9000041225694E9005C9F0125C31
:103D12007B9005C9E0FF125C7B9005C7E024FE6042
:103D22001324FE601624FC60192407701C9005CA37
