:0300000002557432
:0C557400787FE4F6D8FD7581210255BB5C
:105F6800126495125ABA126A42126A6E126B43127E
:105F78006A9D126888126A5275B10CE4F5B27F7B8B
:0F5F8800FE125F0B123547120EA612004680F86C
:106A32004F4B535049005350494F4B00535049005C
:101ACE004105D0004405D2000000004105CF004181
:101ADE0005D6004105D1004305CCFF6A324305C946
:091AEE00FF6A384305D7FF6A3E88
:030023000266F57D
:0666F500C0E0C083C0827A
:1066FB00900537E4F0309802C298309904C299C2E1
:01670B000984
:07670C00D082D083D0E032FF
:0300430002560062
:0D560000C0E0C0F0C083C082C0D075D008EB
:10560D00E4FFE59A30E063539AFEAF9B9005D0E03E
:10561D006401702EA3E0FEB401139005CFE0FD04EC
:10562D00F074D22DF582E43405F583EFF0EFB45329
:10563D0011EE700E9005D104F09005CFF09005D2CB
:10564D00EFF09005CFE0B40321A3E4F0A3F078D2FE
:10565D007C057D019005D7E0FBA3E0FAA3E0F912EC
:10566D00243AEF70059005D604F0E59A30E1055324
:04567D009AFDC209C7
:0B568100D0D0D082D083D0F0D0E03237
:096AA8002009FDEFD209F5992245
:105E9F0090061BEBF0A3EAF0A3E9F090061BE0FBE2
:105EAF00A3E0FAA3E0F91220FF601790061BA3E40A
:105EBF0075F0011221E0A9F0FA1220FFFF126AA873
:035ECF0080D92255
:096AB1002009FDEFD209F59B223A
:105ED20090061EEBF0A3EAF0A3E9F090061EE0FBA9
:105EE200A3E0FAA3E0F91220FF601790061EA3E4D4
:105EF20075F0011221E0A9F0FA1220FFFF126AB137
:035F020080D92221
:10649500E5A2543FF5A253BAFE759850759A50750A
:1064A500D7C875D6FE758E14438E01D2AC75AF0173
:0364B500D2AF2241
:0B596B00900391EBF0A3EAF0A3E9F039
:105976009003BC7401F0A37403F0A37494F0900335
:1059860091E0F9A3E0FAA3E0900615C9F0A3EAF0C6
:10599600A3E9F09003BCE0F9A3E0FAA3E0900618AF
:1059A600C9F0A3EAF0A3E9F07B017A0379BF125BA1
:0A59B600FA7B017A0379BF025E9FBD
:102854000000000000FF65AD01020E0F00FF00063E
:102864000203011500FF66770304021900FF6713D2
:102874000405031D00FF67310506041F00FF674FB1
:102884000607052000FF676D0708062100FF678B18
:102894000809072600FF67A9090A082A00FF67C775
:1028A4000A0B092C00FF67E50B0C0A0B00FF001E46
:1028B4000C0D0B0C00FF6C6A0D0E0C0D00FF6C6F01
:1028C4000E010D0E00FF000E0F0F0F1001FF5D0A29
:1028D4001010101101FF60411111111201FF606904
:1028E4001212121301FF644D1313131401FF6471C8
:1028F4001414140F01FF60911516183502FF695D59
:102904001617153902FF696F1718163D02FF698102
:102914001815174102FF6993191A1C4503FF69A58D
:102924001A1B194903FF69B71B1C1A4D03FF69C918
:102934001C191B5103FF69DB1D1E1E5204FF6C741E
:102944001E1D1D5304FF6C791F1F1F1F05FF6AC343
:102954002020202006FF6ACB2122625407FF6C7ED0
:102964002223215507FF6C832324225607FF6C88FA
:102974002425235707FF6C8D2560245807FF6C928C
:102984002627295908FF6C972728265A08FF6C9C8C
:102994002829275B08FF6CA12926285C08FF6CA660
:1029A4002A2B2B5D09FF6A602B2A2A5E09FF6CAB78
:1029B4002C2D2D000AFF6CB02D2C2C000AFF6CB5B9
:1029C4002E2E2E000BFF683C2F2F2F000CFF6AD3F6
:1029D400303030000DFF6ADB313131000EFF5B5CBB
:1029E4003232323515FF65CF3333333215FF0026CB
:1029F4003434343315FF65F13535353415FF66133A
:102A04003636363916FF60B93737373616FF64B8AD
:102A14003838383716FF60E13939393816FF61091B
:102A24003A3A3A3D17FF61313B3B3B3A17FF64DBCF
:102A34003C3C3C3B17FF61593D3D3D3C17FF6181E8
:102A44003E3E3E4118FF61A93F3F3F3E18FF64FEF2
:102A54004040403F18FF61D14141414018FF61F9B6
:102A64004242424519FF62214343434219FF652113
:102A74004444444319FF62494545454419FF627182
:102A8400464646491AFF6299474747461AFF654436
:102A9400484848471AFF62C1494949481AFF62E950
:102AA4004A4A4A4D1BFF63114B4B4B4A1BFF656758
:102AB4004C4C4C4B1BFF63394D4D4D4C1BFF63611C
:102AC4004E4E4E511CFF63894F4F4F4E1CFF658A7B
:102AD4005050504F1CFF63B1515151501CFF63D9EA
:102AE400525252521DFF6AE3535353531EFF6AEB73
:102AF4005454545421FF6AF35555555522FF6AFB2B
:102B04005656565623FF6B035757575724FF6803EF
:102B14005858585825FF6B0B5959595926FF69EDD8
:102B24005A5A5A5A27FF6B135B5B5B5B28FF6B1B7C
:102B34005C5C5C5C29FF6B235D5D5D5D2AFF5DC0B1
:102B44005E5E5E5E2BFF5E345F5F5F5F5FFF6635D8
:102B54006062256107FF6CBA6161616160FF6B2B84
:102B64006221606307FF6CBF6363636362FF6B335F
:101AF70041053C0041056E0041053D00450541009B
:101B07000000010045054B00000001004505560097
:101B17000000010045056200000001004505460080
:101B270000000100450551000000010045055D006A
:101B37000000010045056800000001004105500153
:101B470041055C0141055B004105670041056D00EA
:101B5700410570024105730041057606410578038A
:101B67004105790141057A0041056F0B4105720076
:101B77004105750041057700410571024105740073
:0C1B870041053A0141057B0141053B018D
:10528300E49004C2F0A3F043903CE590543C643CAA
:10529300700302531E126A52E590543C643C607BD7
:1052A300126BFEE590543CFF9004C2E4F0A3EFF0D0
:1052B3009004C2E07004A3E064387008126BEC7FC2
:1052C30001126BE0E590543CFFBF3CF8126A52E5D3
:1052D30090543CFFBF3CF8E4FF126BE0E4FF126B19
:1052E300F890053DE0645E6023126B8CEF601190D3
:1052F300053DE0D3940E40047F0180067F008002C9
:105303007F01EF60077F787E00125DFA90053C74A1
:0F53130001F09004C2E0FEA3E0FF227E0F7FFFB7
:015322002268
:104BAD00E49004C0F0A3F0FF1252839004C0EEF025
:104BBD00A3EFF0126C529004C0E0640F7003A3E0F9
:104BCD00F46003024C87EF64016003024C8790058B
:104BDD003DE0FF601C640B6018EF640C6013EF6424
:104BED000D600EEF640E6009EF642D6004EFB42CC0
:104BFD002A9005B2E0540FFFBF080890056EE0043F
:104C0D00F08005E490056EF090056EE0D3940340BE
:104C1D000A7F14126C04E490056EF0126C58900526
:104C2D00B2E0540F24FE601B24FE602624FC60318C
:104C3D0024077046126C16EF70409004C0F0A374F8
:104C4D001C8031126C16EF70319004C0F0A37434D7
:104C5D008022126C16EF70229004C0F0A3742C8089
:104C6D0013126C10EF7013126C16EF700D9004C0D0
:104C7D00F0A37438F07F05126C1C9004C0E0FEA305
:104C8D00E0FFEE701DEF24D4601224F8600B24FCBD
:104C9D00600D241C700C7F03227F02227F01227F76
:044CAD0000227FFF63
:014CB10022E0
:100EA600E4FF9004BFF0124BADEF14700302119CE7
:100EB60014700302165214700302117624036003A1
:100EC600021AA0126BCEEF700690053DE06012127A
:100ED6006BCEEF6401702290053DE0FF6003B45FC6
:100EE60018126BE69004BFEFF0C394145003021A75
:100EF600A090053D740202104990053DE0FF644252
:100F0600600FEF6443600AEF64446005EF64457068
:100F16002D126BE69004BFEFF0C3940A40657B0187
:100F26007A057946124AA34057126BBCBF010C7F63
:100F3600797E00125F0BE4FF126BC202101490055B
:100F46003DE0FF6446600FEF6447600AEF64486067
:100F560005EF64497030126BE69004BFEFF0C3945E
:100F66000A40207B017A05795112474E4012126BD6
:100F7600BCBF010C7F797E00125F0BE4FF126BC2CF
:100F860002101402101A90053DE0FF644A600FEF4C
:100F9600644B600AEF644C6005EF644D702E126B73
:100FA600E69004BFEFF0C3940A401F7B017A0579EF
:100FB6005D1243D24012126BBCBF010C7F797E00DA
:100FC600125F0BE4FF126BC28044804890053DE03F
:100FD600FF644E600FEF644F600AEF64506005EFE8
:100FE60064517043126BE69004BFEFF0C3940A405D
:100FF600237B017A0579681244FD4012126BBCBF4F
:10100600010C7F797E00125F0BE4FF126BC2126A3D
:101016005202117090053DE075F008A42457F58240
:10102600E5F03428021A9890053DE0B40B1E126BC9
:10103600E69004BFEFF0C394145003021AA0900583
:101046003D742EF07F06126A9202117090053DE003
:10105600B40C1E126BE69004BFEFF0C39414500359
:10106600021AA090053D742FF07F06126A920211B3
:101076007090053DE0B40D1E126BE69004BFEFF0D4
:10108600C394145003021AA090053D7430F07F06F5
:10109600126A9202117090053DE0B40E1E126BE6C4
:1010A6009004BFEFF0C394145003021AA090053DBC
:1010B6007431F07F06126A9202117090053DE0B419
:1010C6002D28126BE69004BFEFF0C3941450030270
:1010D6001AA07F797E00125F0B125A691254557559
:1010E600C7207F06126A9202117090053DE0642CBB
:1010F6007060126BE69004BFEFF0C39414500302C5
:101106001AA07F797E00125F0B125A69125D841253
:1011160054557B017A0379769005017410F07D2091
:101126007C157FA01259CF126A527B017A0079464C
:101136009005017410F07D307C157FA01259CF12F6
:101146006A521258B6126A5275C7207F06126A9200
:10115600801890053DE075F008A42457F582E5F067
:101166003428F583E49390053DF0126BEC021AA047
:1011760090053DE0B45F0C126BCEEF600612577916
:10118600021AA090053DE075F008A42458F582E502
:10119600F03428021A9890053DE012229012550F5D
:1011A60012671012771112871212971312A91415CB
:1011B6001A1F152C20160E2F15FD3012BB3212CD1C
:1011C6003312DF3412F1351303361315371327386C
:1011D600133939134B3A135D3B136F3C13813D139F
:1011E600933E13A53F13B74013C94113DB4213EDDA
:1011F6004313FF4414114514234614354714474836
:10120600145949146B4A147D4B148F4C14A14D1478
:10121600B34E14C54F14D75014E95114FA52150A97
:1012260053153E5415505515605615735715845869
:1012360015955915A65A15B75B15C75C15D75D15D3
:10124600E55E15F85F161E61162E630000163F90C8
:1012560005DBE0B46305E4F002163F9005DB0215FA
:10126600F39005DCE0B40C030215119005DC0215C1
:10127600F39005DDE0B41F030215119005DD02159C
:10128600F39005E1E0B407030215119005E102159C
:10129600F39005DEE0B41705E4F002163F9005DE94
:1012A6000215F39005DFE0B43B05E4F002163F902B
:1012B60005DF0215F3900541E0B41405E4F00216CB
:1012C6003F9005410215F3900542E0B40905E4F0AC
:1012D60002163F9005420215F3900543E0B4090556
:1012E600E4F002163F9005430215F3900544E0B47E
:1012F6000905E4F002163F9005440215F390054BEC
:10130600E0B41405E4F002163F90054B0215F39085
:10131600054CE0B40905E4F002163F90054C0215B1
:10132600F390054DE0B40905E4F002163F90054D33
:101336000215F390054EE0B40905E4F002163F905D
:10134600054E0215F3900556E0B41405E4F00216B6
:101356003F9005560215F3900557E0B40905E4F0F1
:1013660002163F9005570215F3900558E0B409059B
:10137600E4F002163F9005580215F3900559E0B4C3
:101386000905E4F002163F9005590215F39005622F
:10139600E0B41405E4F002163F9005620215F390DE
:1013A6000563E0B40905E4F002163F9005630215F3
:1013B600F3900564E0B40905E4F002163F90056475
:1013C6000215F3900565E0B40905E4F002163F90B6
:1013D60005650215F3900546E0B41405E4F002161F
:1013E6003F9005460215F3900547E0B40905E4F081
:1013F60002163F9005470215F3900548E0B409052B
:10140600E4F002163F9005480215F3900549E0B452
:101416000905E4F002163F9005490215F3900551BF
:10142600E0B41405E4F002163F9005510215F3905E
:101436000552E0B40905E4F002163F900552021584
:10144600F3900553E0B40905E4F002163F90055306
:101456000215F3900554E0B40905E4F002163F9036
:1014660005540215F390055DE0B41405E4F0021688
:101476003F90055D0215F390055EE0B40905E4F0C2
:1014860002163F90055E0215F390055FE0B409056C
:10149600E4F002163F90055F0215F3900560E0B494
:1014A6000905E4F002163F9005600215F390056801
:1014B600E0B41405E4F002163F9005680215F390B7
:1014C6000569E0B40905E4F002163F9005690215C6
:1014D600F390056AE0B40905E4F002163F90056A48
:1014E6000215F390056BE0B40904E4F0800690055C
:1014F6006BE004F0900550E0B40103021604900579
:101506005002163C90055CE0B4630302163C90055D
:101516005C0215F390055BE0B46305E4F002163F48
:1015260090055B0215F3900567E0B46305E4F002ED
:10153600163F9005670215F390056DE0B40705E4C4
:10154600F002163F90056D0215F3900570E0B409A0
:101556000302163C9005700215F3900573E07005C2
:1015660004F002163FE4900573F002163F900576EC
:10157600E0B40905E4F002163F900576806F900509
:1015860078E0B40705E4F002163F900578805E9097
:10159600056FE0B40A05E4F002163F90056F804D32
:1015A600900572E0B40B05E4F002163F90057280D8
:1015B6003C900575E0B40B04E4F0807D90057580E1
:1015C6002C900577E0B40B04E4F0806D90057780ED
:1015D6001C900571E0B4010280249005718057903B
:1015E6000574E0B42604E4F0804F900574E004F03E
:1015F60080471251CB804290057BE0B4010574020E
:10160600F0803690057B802E90053AE0B40104E424
:10161600F0802690053A801E900579E0B40104E436
:10162600F08016900579800E90057AE0B40104E406
:10163600F0800690057A7401F090053DE075F0089B
:10164600A42455F582E5F03428021A9890053DE069
:10165600122290170B0F171A10172D111740121779
:10166600501317621419731F1981201A572F1A461F
:101676003017743217833317923417A13517B036E3
:1016860017BF3717CE3817DD3917EC3A17FB3B185B
:101696000A3C18193D18283E18373F184640185579
:1016A6004118644218734318824418914518A0469D
:1016B60018AE4718BD4818CC4918DB4A18E94B182C
:1016C600F84C19074D19164E19284F193750194657
:1016D6005119545219645319935419A15519B056F6
:1016E60019C35719D45819E55919F65A1A035B1A2A
:1016F600105C1A205D1A2E5E1A415F1A67611A770E
:101706006300001A889005DBE070030219879005D4
:10171600DB021A3C9005DCE0B40106740CF0021AF8
:10172600889005DC021A3C9005DDE0B40106741FC2
:10173600F0021A889005DD021A3C9005E1E0B4013A
:10174600030219DA9005E1021A3C9005DEE0700604
:101756007417F0021A889005DE021A3C9005DFE045
:101766007006743BF0021A889005DF021A3C900559
:1017760041E0700302191C900541021A3C90054293
:10178600E070030219C9900542021A3C900543E035
:1017960070030219C9900543021A3C900544E07093
:1017A600030219C9900544021A3C90054BE07003E8
:1017B60002191C90054B021A3C90054CE07003027E
:1017C60019C990054C021A3C90054DE070030219A8
:1017D600C990054D021A3C90054EE070030219C9E6
:1017E60090054E021A3C900556E0700302191C90B3
:1017F6000556021A3C900557E070030219C9900578
:1018060057021A3C900558E070030219C990055812
:10181600021A3C900559E070030219C99005590255
:101826001A3C900562E0700302191C900562021AC8
:101836003C900563E070030219C9900563021A3CE7
:10184600900564E070030219C9900564021A3C9081
:101856000565E070030219C9900565021A3C9005FA
:1018660046E0700302191C900546021A3C90054793
:10187600E070030219C9900547021A3C900548E03A
:1018860070030219C9900548021A3C900549E07098
:10189600030219C9900549021A3C900551E07002ED
:1018A6008074900551021A3C900552E070030219AB
:1018B600C9900552021A3C900553E070030219C9FB
:1018C600900553021A3C900554E070030219C99022
:1018D6000554021A3C90055DE07002803990055D62
:1018E600021A3C90055EE070030219C990055E027B
:1018F6001A3C90055FE070030219C990055F021A51
:101906003C900560E070030219C9900560021A3C1C
:10191600900568E070067414F0021A889005680253
:101926001A3C900569E070030219C9900569021A0C
:101936003C90056AE070030219C990056A021A3CD8
:1019460090056BE07002807B90056B021A3C900557
:1019560050E0B40103021A4D900550021A85900515
:101966005CE0B40102801A90055C021A3C90055BAB
:10197600E07002800C90055B021A3C900567E070EF
:10198600067463F0021A88900567021A3C90056D8A
:10199600E07002803F90056D021A3C900570E0B43D
:1019A6000102801F900570021A3C900573E07005D5
:1019B60004F0021A88E4900573F0021A88900576FE
:1019C600E070067409F0021A889005768068900522
:1019D60078E070067407F0021A88900578805790B0
:1019E600056FE07006740AF0021A8890056F80464B
:1019F600900572E070028018900572803990057526
:101A0600E07002800B900575802C900577E07005DC
:101A1600740BF0806D900577801C900571E0B40121
:101A26000280249005718057900574E07005742635
:101A3600F0804F900574E014F08047124CB280425B
:101A460090057BE0B401057402F0803690057B803A
:101A56002E90053AE0B40104E4F0802690053A8021
:101A66001E900579E0B40104E4F0801690057980B3
:101A76000E90057AE0B40104E4F0800690057A74CD
:101A860001F090053DE075F008A42456F582E5F0D6
:101A96003428F583E49390053DF012545590053DA6
:101AA600E075F008A42459F582E5F03428F583E4BE
:101AB60093FB740193FA740293F990053EEBF0A33D
:081AC600EAF0A3E9F00222B6E8
:0D6A52007F047E347DDCDDFEDEFADFF60021
:016A5F002214
:056B4A0090053DE0FF95
:016B4F002223
:066B500090053DEFF0226C
:056B5600900550E0FF76
:016B5B002217
:056B5C0090055CE0FF64
:016B61002211
:056B620090055BE0FF5F
:016B6700220B
:056B6800900567E0FF4D
:016B6D002205
:056B6E0090056DE0FF41
:016B730022FF
:056B7400900570E0FF38
:016B790022F9
:056B7A00900573E0FF2F
:016B7F0022F3
:056B8000900576E0FF26
:016B850022ED
:056B8600900578E0FF1E
:016B8B0022E7
:056B8C00900579E0FF17
:016B910022E1
:056B920090057AE0FF10
:016B970022DB
:056B980090056FE0FF15
:016B9D0022D5
:056B9E00900572E0FF0C
:016BA30022CF
:056BA400900575E0FF03
:016BA90022C9
:056BAA00900577E0FFFB
:016BAF0022C3
:056BB000900571E0FFFB
:016BB50022BD
:056BB600900574E0FFF2
:016BBB0022B7
:056BBC0090053CE0FF24
:016BC10022B1
:066BC20090053CEFF022FB
:056BC80090057BE0FFD9
:016BCD0022A5
:056BCE0090053AE0FF14
:016BD300229F
:10545500900550E09005EAF090055CE09005EBF0D2
:1054650090055BE09005ECF0900567E09005EDF0A8
:1054750090056DE09005EEF0900570E09005EFF079
:10548500900573E09005F0F0900576E09005F1F059
:10549500900578E09005F2F0900579E09005F3F03D
:1054A50090057AE09005F4F090056FE09005F5F031
:1054B500900571E09005F6F090053AE09005F7F05B
:1054C50090057BE09005F8F07B017A0579EA900577
:1054D50001740FF07D407C157FA01259CF026A52EE
:103547007B017A0379769005367410F07D207C151F
:103557007FA0125712126A527B017A0079469005B2
:10356700367410F07D307C157FA0125712126A5204
:103577007B017A0579EA900536740FF07D407C155A
:103587007FA0125712126A529005EAE0FF90055089
:10359700F09005EBE090055CF09005ECE090055BA2
:1035A700F09005EDE0900567F09005EEE090056D71
:1035B700F09005EFE0900570F09005F0E09005734E
:1035C700F09005F1E0900576F09005F2E09005782F
:1035D700F09005F3E0900579F09005F4E090057A16
:1035E700F09005F5E090056FF09005F6E090057115
:1035F700F09005F7E090053AF09005F8E090057B2C
:10360700F0EFD3940240069005507401F09005EB5B
:10361700E0D39463400690055C7401F09005ECE0FC
:10362700D39463400690055B7401F09005EDE0D3F9
:10363700946340069005677401F09005EEE0D3941B
:10364700074005E490056DF09005EFE0D39409403D
:10365700069005707402F09005F0E0D394014005E0
:10366700E4900573F09005F1E0D3940940069005C6
:10367700767406F09005F2E0D3940740069005783B
:103687007403F09005F3E0D394014005E4900579C5
:10369700F09005F4E0D394014005E490057AF090AA
:1036A70005F5E0D3940A400690056F740AF090057B
:1036B700F6E0D3940240069005717402F09005F786
:1036C700E0D39401400690053A7401F09005F8E0C4
:0C36D700D39402400690057B7401F022A1
:105A69009005507401F090055CF0E490055BF090AE
:105A79000567F090056DF09005707402F0E49005EB
:105A890073F09005767406F09005787403F0A374AA
:105A990001F090056F740AF0E4900572F0900575B5
:105AA900F0900577F09005717402F0E4900574F0B8
:015AB90022CA
:105D84007F109003767401F0A3DFFC900046740149
:105D9400F0E4A3F0A37403F0A37405F0A37402F079
:105DA400A314F0A3F0A37406F0A37401F0A3F0A36A
:0B5DB400F0A3F0A3F0A3F0A3F0A3F015
:015DBF0022C1
:1066970000000000000000000000000000000000F3
:1066A70000000000000000000000000000000000E3
:101B93005500313F065B4F666D7D077F6F777C395C
:101BA3005E797176385C733E48038601020408103F
:101BB30020408042038E400060300001000000009E
:101BC3000000000000000000000000000000000012
:101BD3000000000000000000000000000000000002
:101BE3000000000000000000000000006320005619
:101BF30000000000000000000000000000000000E2
:101C030000000000000000000000000000000000D1
:101C130000000000000000000000000000000000C1
:101C230000000000000000000000000000000000B1
:101F130041000000410390005003760101010101DB
:101F2300010101010101010101010150004601000C
:0E1F3300030502010106010101010101010186
:105F9700C282E4FDFCC280EF30E004D2818002C2FD
:105FA7008100000000D280EFC313FF0DBD00010C7C
:0A5FB700ED64084C70DFC280C28167
:015FC10022BD
:105FC200C283E4FDFCC280EF30E004D2818002C2D1
:105FD2008100000000D280EFC313FF0DBD00010C51
:0A5FE200ED64084C70DFC280C2813C
:015FEC002292
:105FED00C2CCE4FDFCC280EF30E004D2818002C25D
:105FFD008100000000D280EFC313FF0DBD00010C26
:0A600D00ED64084C70DFC280C28110
:016017002266
:0968B800AE077F401268C17FC0E9
:0D68C100D282000000000000C282025F973A
:0C6856001268C1D2827F401268627FC0CD
:0D686200D283000000000000C283025FC26C
:0C686F00126862D2837F4012687B7FC0F9
:0D687B00D2CC000000000000C2CC025FED96
:0553C300E4900003F07E
:1053C800126B861268B8E4FB74012BF582E4340092
:1053D800F583E0FF125F9774092BF582E43400F53A
:1053E80083E0FF125F970BEBB408DDEE2488FF1211
:1053F8006856E4FB74112BF582E43400F583E0FF72
:10540800125FC274192BF582E43400F583E0FF12B1
:105418005FC20BEBB408DDEE2488FF12686FE4FB73
:1054280074212BF582E43400F583E0FF125FED74FC
:10543800292BF582E43400F583E0FF125FED0BEBD6
:0C544800B408DDEE2488FF12687BD2CC93
:015454002235
:105C44001268B8E4FBAF06125F97AF06125F970BBA
:105C5400EBB408F17F8F126856E4FBAF06125FC203
:105C6400AF06125FC20BEBB408F17F8F12686FE4CA
:105C7400FBAF06125FEDAF06125FED0BEBB408F15C
:075C84007F8F12687BD2CC78
:015C8B0022F6
:105ABA00E49004BFF0E4FFE4FE9004BFE02486F51E
:105ACA0082E43403F583E0FDEF75F008A42401F5C0
:105ADA0082E43400F583E5822EF582E43583F5838A
:105AEA00EDF00EEEB408D20FEFB406CB1253C87F16
:105AFA001E12694B9004BFE004F0E0C3940840B55D
:015B0A002278
:10694B00EFD39400400B7EFF7DFFDDFEDEFA1F8050
:01695B00EF4C
:01695C002218
:10601800E4FFE4FEEF75F008A42401F582E43400FF
:10602800F583E5822EF582E43583F583E4F00EEE00
:08603800B408E10FEFB406DA31
:01604000223D
:0A6A7C007F78900056E4F0A3DFFCE1
:016A860022ED
:105E6A00E4FF126BD4EF6401702A126018900000EC
:105E7A00E05403FF2401F582E43400F5837440F012
:105E8A001253C8E4FF126BDA900000E004F0E0B4A9
:045E9A000402E4F02A
:015E9E0022E1
:1049900012601812568C900033E0900010F09000D6
:1049A00031E090000FF09005DBE0FF75F00A842401
:1049B00031F582E43400F583E090000EF0EF75F0FD
:1049C0000A84743125F0F582E43400F583E0900028
:1049D0000DF090000C7440F09005DCE0FF75F00ADB
:1049E000842431F582E43400F583E090000BF0EF8D
:1049F00075F00A84743125F0F582E43400F583E023
:104A000090000AF09000097440F09005DDE0FF7519
:104A1000F00A842431F582E43400F583E090000844
:104A2000F0EF75F00A84743125F0F582E43400F576
:104A300083E0900007F09005E1E02431F582E43452
:104A400000F583E0900006F09005DEE0FF75F00AC7
:104A5000842431F582E43400F583E0900004F0EF23
:104A600075F00A84743125F0F582E43400F583E0B2
:104A7000900003F09005DFE0FF75F00A842431F523
:104A800082E43400F583E0900002F0EF75F00A84D0
:104A9000743125F0F582E43400F583E0900001F0F4
:034AA0000253C8F6
:1066B700AD07126018900040E0900002F074312D91
:0F66C700F582E43400F583E0900001F00253C83F
:1066D600AD0712601890003FE0900002F074312D73
:0F66E600F582E43400F583E0900001F00253C820
:10690F00126018900031E0900002F090000174378F
:04691F00F00253C867
:1068CE00126018900031E0900002F0900040E090CD
:0668DE000001F00253C8A6
:1068A100AD0712601874312DF582E43400F583E0F0
:0768B100900001F00253C842
:105F3800AD07126018ED75F00A842431F582E43457
:105F480000F583E0900002F0ED75F00A84743125C5
:105F5800F0F582E43400F583E0900001F00253C8C4
:10585700AB07AA061260187C007D64AF03AE021284
:10586700218B74312FF58274003EF583E09000039D
:10587700F07C007D0AAF03AE0212218B7C007D0A0B
:1058870012218B74312DF58274003CF583E0900072
:1058970002F0AE02AF037C007D0A12218B74312D1A
:0F58A700F58274003CF583E0900001F00253C8D5
:065912007B017A057941DA
:105918001260181220FF2431F582E43400F583E088
:10592800900004F09000011221182431F582E4342B
:1059380000F583E0900003F0900002122118243152
:10594800F582E43400F583E0900002F09000031241
:1059580021182431F582E43400F583E0900001F049
:035968000253C81F
:10385F001260189000A6E060179004FB7401F0A3AB
:10386F007400F0A374A6F07B017A007930122E2237
:10387F0090009EE060179004FB7401F0A37400F0B9
:10388F00A3749EF07B017A00792C122E2290009661
:10389F00E060179004FB7401F0A37400F0A374961A
:1038AF00F07B017A007928122E2290008EE06017AB
:1038BF009004FB7401F0A37400F0A3748EF07B01ED
:1038CF007A007924122E22900086E060179004FB74
:1038DF007401F0A37400F0A37486F07B017A007971
:1038EF0020122E2290007EE060179004FB7401F0EE
:1038FF00A37400F0A3747EF07B017A00791C122E62
:10390F0022900076E060179004FB7401F0A374001E
:10391F00F0A37476F07B017A007918122E229000B2
:10392F006EE060179004FB7401F0A37400F0A374B1
:10393F006EF07B017A007914122E22900066E060FF
:10394F00179004FB7401F0A37400F0A37466F07B6E
:10395F00017A007910122E2290005EE06017900419
:10396F00FB7401F0A37400F0A3745EF07B017A0086
:10397F00790C122E22900056E060179004FB740110
:10398F00F0A37400F0A37456F07B017A007904124F
:10399F002E22900607E0FF75F00A842431F582E4A9
:1039AF003400F583E0900006F0EF75F00A8474316F
:0F39BF0025F0F582E43400F583E0900005F02256
:102E22009004F8EBF0A3EAF0A3E9F0A3E0FBA3E03F
:102E3200FAA3E0F99000011221182431F582E4345A
:102E420000F583E0FF9004F8E0FBA3E0FAA3E0F9C9
:102E5200EF1221459004FBE0FBA3E0FAA3E0F99016
:102E620000021221182431F582E43400F583E0FFD8
:102E72009004F8E0FBA3E0FAA3E0F990FFFFEF1261
:102E820021579004FBE0FBA3E0FAA3E0F9900003D2
:102E92001221182431F582E43400F583E0FF900416
:102EA200F8E0FBA3E0FAA3E0F990FFFEEF1221574E
:102EB2009004FBE0FBA3E0FAA3E0F99000041221E6
:102EC200182431F582E43400F583E0FF9004F8E041
:102ED200FBA3E0FAA3E0F990FFFDEF122157900463
:102EE200FBE0FBA3E0FAA3E0F990000512211854DD
:102EF2000F24FD6036147003022F8524FD70030237
:102F02002FCA147003022FDD24066003022FF690ED
:102F120004F8E0FBA3E0FAA3E024FDF9EA34FFFAA7
:102F22001220FF4480122145022FCA9004F8E0FBD0
:102F3200A3E0FAA3E024FDF9EA34FFFA1220FF44E9
:102F4200801221459004F8E0FBA3E0FAA3E024FEFE
:102F5200F9EA34FFFA1220FF44801221459004F866
:102F6200E0FBA3E0FAA3E024FFF9EA34FFFA12201F
:102F7200FF44801221459004F8E0FBA3E0FAA3E0AD
:102F8200F980699004F8E0FBA3E0FAA3E024FDF9DC
:102F9200EA34FFFA1220FF44801221459004F8E03F
:102FA200FBA3E0FAA3E024FEF9EA34FFFA1220FFC1
:102FB20044801221459004F8E0FBA3E0FAA3E02448
:102FC200FFF9EA34FFFA80249004F8E0FBA3E0FA68
:102FD200A3E024FEF9EA34FFFA80119004F8E0FB42
:102FE200A3E0FAA3E024FDF9EA34FFFA1220FF4439
:052FF2008012214522C0
:104DAB009004EAEBF0A3EAF0A3E9F0A3E0FBA3E0A5
:104DBB00FAA3E0F91220FFFF9004EAE0FBA3E0FA6C
:104DCB00A3E0F9EF1221459004EDE0FBA3E0FAA379
:104DDB00E0F9900001122118FF9004EAE0FBA3E038
:104DEB00FAA3E0F9900001EF1221579004EDE0FBDC
:104DFB00A3E0FAA3E0F9900002122118FF9004EA55
:104E0B00E0FBA3E0FAA3E0F9900002EF1221579028
:104E1B0004EDE0FBA3E0FAA3E0F9900003122118E4
:104E2B00FF9004EAE0FBA3E0FAA3E0F9900003EFA4
:104E3B001221579004EDE0FBA3E0FAA3E0F99000F8
:104E4B0004122118FF9004EAE0FBA3E0FAA3E0F9B7
:104E5B00900004EF1221579004EDE0FBA3E0FAA3BE
:104E6B00E0F9900007122118FF9004EAE0FBA3E0A1
:0B4E7B00FAA3E0F9900005EF022157B8
:095BAC002456F974003EFA7B0155
:105BB5001220FF9000081221579000011221189021
:105BC500000912215790000212211890000A122193
:105BD5005790000312211890000B122157900004D2
:105BE50012211890000C12215790000512211890CF
:055BF500000D02215724
:0F5A1500EF75F008A42456F9740035F0FA7B0100
:105A240090000812211812214590000912211890A3
:105A3400000112215790000A12211890000212212D
:105A44005790000B12211890000312215790000C5C
:105A540012211890000412215790000D1221189061
:055A64000005022157BE
:1036E30078EE7C047D017BFF7A6679977E007F0804
:1036F3001220D9E49004F6F0A3F0126B7A9004F64A
:10370300EFF0126B6E9004F7EFF0126B689004EC1D
:10371300EFF0126B629004EDEFF0126BF29004ED98
:10372300E0FE9004ECE0FDC39E500AEF9D4006EEE0
:103733006003E0701B9004EDE0600302385E9004C8
:10374300ECE0FE700302385EEFD39E500302385E56
:10375300E49004EAF09004EAE0FFC3940A5022EFF5
:1037630075F008A42456F582740035F0F583E070F3
:10377300089004EAE0A3F080089004EAE004F080F3
:10378300D4E49004EAF09004EBE024FFFFE434FF78
:10379300FEEF7803C333CE33CED8F9FF9004EAE0CB
:1037A300FD7A002FFFEA3EFE74562FF58274003E29
:1037B300F583E0FF74EE2DF582E43404F583EFF036
:1037C3009004EAE004F0E0B406BC9004EBE090045B
:1037D300EAF09004EAE0FFD39401401DEF24FEFFDA
:1037E300E434FFFEEF7803C333CE33CED8F9125B54
:1037F300AC9004EAE014F080D9E49004EAF0900479
:10380300EAE0FF24EEF582E43404F583E0FE745627
:103813002FF582E43400F583EEF09004EAE004F03F
:10382300E0B406DA12385F1253C8E4FF126BF89063
:1038330004F6E0B401257B017A007956900056E046
:10384300FD9004FCE4F0A3EDF090005BE0540F90D6
:0B38530004FEF09004F7E0FF1231C10A
:01385E002247
:10487200E49004F0F0A3F0126B689004EBEFF012F6
:104882006B629004ECEFF0126BF29004EDEFF01219
:104892006B5C9004EEEFF0126B569004EFEFF012A7
:1048A2006B749004F1EFF09004EBE0FFA3E0FEC321
:1048B2009F500EA3E09E4009EF60069004ECE0706A
:1048C2001A9004EBE0600302498FA3E0FF70030239
:1048D200498FA3E0D39F500302498FE49004EAF08A
:1048E2009004EEE014FD9004EAE0FFC39D500B1229
:1048F2005A159004EAE004F080E6ED33333354F8BD
:104902009004EAF09004EEE075F008A4FF9004EA47
:10491200E0FDC39FE5F06480F874809850147456EB
:104922002DF582E43400F583E4F09004EAE004F02B
:1049320080D212385F1253C8E4FF126BF89000560F
:10494200E07004FF026B509004EFE06402703E904E
:1049520004EAF09004F1E0FF9004EAE0C39F502DD6
:104962007B017A007956900056E0FD9004FCE4F059
:10497200A3EDF090005BE0540F9004FEF09004F081
:0D498200E0FF1231C19004EAE004F080C6AD
:01498F002205
:10577900E49004C1F0126B5C9004C1EFF0E4900472
:10578900C0F09004C1E014FD9004C0E0FFC39D5037
:105799000B125A159004C0E004F080E6ED33333360
:1057A90054F89004C0F09004C1E075F008A4FF908B
:1057B90004C0E0FDC39FE5F06480F874809850143C
:1057C90074562DF582E43400F583E4F09004C0E0CA
:1057D90004F080D212385F1253C8900056E070046A
:0457E900FF126B50F0
:0157ED002299
:1051CB0078C17C047D017BFF7A66799F7E007F0628
:1051DB001220D9126B5C9004C0EFF0126B5CAD0720
:1051EB00E4FCECC39D501CEC75F008A42456F5822E
:1051FB00740035F0F583E070079004C0ECF0800389
:10520B000C80DFE4FC74562CF582E43400F583E06B
:10521B00FF74C12CF582E43404F583EFF00CECB48D
:10522B0006E3E4FC9004C0E0FFECC39F5007EC12D4
:10523B005A160C80EFE4FC74C12CF582E43404F5AF
:10524B0083E0FD9004C0E024FFFFE434FFFEEF7821
:10525B0003C333CE33CED8F9FFEC7A002FFFEA3EEF
:10526B00FE74562FF58274003EF583EDF00CECB412
:08527B0006C512385F0253C89A
:104CB20078C27C047D017BFF7A6679A57E007F063F
:104CC2001220D9126B5C9004C1EFF0126B5CAD073D
:104CD200E49004C0F09004C0E0FFC39D5022EF7541
:104CE200F008A42456F582740035F0F583E07008CC
:104CF2009004C0E0A3F080089004C0E004F080D5E6
:104D0200E49004C0F09004C1E024FFFFE434FFFE0D
:104D1200EF7803C333CE33CED8F9FF9004C0E0FD61
:104D22007A002FFFEA3EFE74562FF58274003EF59C
:104D320083E0FF74C22DF582E43404F583EFF09032
:104D420004C0E004F0E0B406BC9004C1E09004C0EA
:104D5200F09004C0E0FFD39401401DEF24FEFFE475
:104D620034FFFEEF7803C333CE33CED8F9125BACF7
:104D72009004C0E014F080D9E49004C0F09004C024
:104D8200E0FF24C2F582E43404F583E0FE74562F7A
:104D9200F582E43400F583EEF09004C0E004F0E024
:094DA200B406DA12385F0253C8AE
:0B338A009004EAEBF0A3EAF0A3E9F0E6
:1033950078F37C047D017BFF7A6679AB7E007F063E
:1033A5001220D9126B5C9004F1EFF0126B5C900463
:1033B500F2EFF0E49004F0F09004F2E0FF9004F0F6
:1033C500E0FEC39F40030234A3EE75F008A4FFAEF0
:1033D500F09004EDE0FBA3E0FAA3E02FF9EA3EFA52
:1033E500900001122118FD9004EAE0FBA3E0FAA386
:1033F500E0F99000011221186D600302349A9004DF
:10340500EDE0FBA3E0FAA3E02FF9EA3EFA90000213
:10341500122118FF9004EAE0FBA3E0FAA3E0F9907B
:1034250000021221186F706D9004F0E075F008A489
:10343500FFAEF09004EDE0FBA3E0FAA3E02FF9EA7C
:103445003EFA900003122118FD9004EAE0FBA3E088
:10345500FAA3E0F9900003122118B505389004EDA0
:10346500E0FBA3E0FAA3E02FF9EA3EFA900004128C
:103475002118FF9004EAE0FBA3E0FAA3E0F990002D
:1034850004122118B5070E900607E014F09004F019
:10349500E0A3F080099004F0E004F00233BD90044D
:1034A500F1E070031269239004F1E09004F0F090CC
:1034B50004F2E0FD9004F0E0FFC39D5021EF75F0AC
:1034C50008A4FF9004EDE0FBA3E0FAA3E02FF9EADE
:1034D50035F0FA125A249004F0E004F080D19004FB
:1034E500F1E06D6048E49004F0F09004F0E0FDC375
:1034F500940650399004F2E024FFFFE434FFFEEF18
:103505007803C333CE33CED8F9FF9004EDE0FBA3A7
:10351500E0FAA3E02FF9EA3EFAED7E0029F9EE3A4A
:10352500FAE41221459004F0E004F080BD9004ED2A
:10353500E0FBA3E0FAA3E0F91220FF7004FF126B91
:013545005035
:013546002262
:0B39CE009004EAEBF0A3EAF0A3E9F09C
:1039D90078F17C047D017BFF7A6679B17E007F06F0
:1039E9001220D9126B5C9004F0EFF0126B5CAD07FA
:1039F900E4FCECC39D4003023AD5EC75F008A4FF42
:103A09009004EDE0FBA3E0FAA3E02FF9EA35F0FA20
:103A1900900001122118FF9004EAE0FBA3E0FAA349
:103A2900E0F99000011221186F6003023AD1EC7598
:103A3900F008A4FF9004EDE0FBA3E0FAA3E02FF95E
:103A4900EA35F0FA900002122118FF9004EAE0FB2F
:103A5900A3E0FAA3E0F99000021221186F7069EC53
:103A690075F008A4FF9004EDE0FBA3E0FAA3E02FB2
:103A7900F9EA35F0FA900003122118FF9004EAE000
:103A8900FBA3E0FAA3E0F99000031221186F703844
:103A9900EC75F008A4FF9004EDE0FBA3E0FAA3E0C5
:103AA9002FF9EA35F0FA900004122118FF9004EA80
:103AB900E0FBA3E0FAA3E0F9900004122118B5078E
:103AC900079004F0ECF080040C0239FB9004F0E05C
:103AD900FCECC39D501CEC75F008A4FF9004EDE0CC
:103AE900FBA3E0FAA3E02FF9EA35F0FA125A240C05
:103AF90080DF9004F0E06D6035E4FCED24FFFFE425
:103B090034FFFEEF7803C333CE33CED8F9FF9004E8
:103B1900EDE0FBA3E0FAA3E02FF9EA3EFAEC7E0020
:0E3B290029F9EE3AFAE41221450CECB406CD6F
:013B3700226B
:1065AD00E4FF126BC8E4900607F0EFB40107D2CDFB
:1065BD00125E6A8003124990126BCEBF0103126AFC
:0165CD007C51
:0165CE0022AA
:05000600E4FF0266B7F3
:10667700D2CD7F011266B7126BBCBF0112126B8CB1
:10668700BF010C7F6F7E00125F0BE4FF126BC2220B
:106713007F021266B7126BBCBF0112126B8CBF01F2
:0E6723000C7F707E00125DFAE4FF126BC22242
:106731007F031266B7126BBCBF0112126B8CBF01D3
:0E6741000C7F717E00125DFAE4FF126BC22223
:10674F007F041266B7126BBCBF0112126B8CBF01B4
:0E675F000C7F727E00125DFAE4FF126BC22204
:10676D007F051266B7126BBCBF0112126B8CBF0195
:0E677D000C7F737E00125DFAE4FF126BC222E5
:10678B007F061266B7126BBCBF0112126B8CBF0176
:0E679B000C7F747E00125DFAE4FF126BC222C6
:1067A9007F071266B7126BBCBF0112126B8CBF0157
:0E67B9000C7F757E00125DFAE4FF126BC222A7
:1067C7007F081266B7126BBCBF0112126B8CBF0138
:0E67D7000C7F767E00125DFAE4FF126BC22288
:1067E5007F091266B7126BBCBF0112126B8CBF0119
:0E67F5000C7F777E00125DFAE4FF126BC22269
:05001E007F0A0266B735
:056C6A007F0B0266B77C
:056C6F007F0C0266B776
:0D000E007F0D1266B7E4FF126A87D2CD2283
:105D0A00126BC8EFB401057F01026B50126BD4BF4E
:105D1A0001081249907F02126BDA126BD4BF031981
:105D2A00E4900010F090000FF090000EF090000D3B
:0C5D3A00F01253C8E4FF126BDA1254E5BB
:015D4600223A
:10604100126BD4BF01081249907F02126BDA126BF6
:10605100D4BF0311E490000BF090000AF01253C872
:08606100E4FF126BDA0254E5C2
:10606900126BD4BF01081249907F02126BDA126BCE
:10607900D4BF0311E4900008F0900007F01253C850
:08608900E4FF126BDA0254E59A
:10644D00126BD4BF01081249907F02126BDA126BE6
:10645D00D4BF030DE4900006F01253C8E4FF126B95
:04646D00DA0254E516
:10647100126BD4BF01081249907F02126BDA126BC2
:10648100D4BF030DE4900004F01253C4E4FF126B77
:04649100DA0254E5F2
:10609100126BD4BF01081249907F02126BDA126BA6
:1060A100D4BF0311E4900002F0900001F01253C834
:0860B100E4FF126BDA0254E572
:10695D007F011266D6E4900541F0A3F0A3F0A304E5
:02696D00F02216
:10696F007F021266D6E490054BF0A3F0A3F0A304C8
:02697F00F02204
:106981007F031266D6E4900556F0A3F0A3F0A304AA
:02699100F022F2
:106993007F041266D6E4900562F0A3F0A3F0A3048B
:0269A300F022E0
:1069A5007F011266D6E4900546F0A3F0A3F0A30498
:0269B500F022CE
:1069B7007F021266D6E4900551F0A3F0A3F0A3047A
:0269C700F022BC
:1069C9007F031266D6E490055DF0A3F0A3F0A3045B
:0269D900F022AA
:1069DB007F041266D6E4900568F0A3F0A3F0A3043D
:0269EB00F02298
:056C74007F010266D65D
:056C79007F020266D657
:086AC300E4FF126B62025F3870
:086ACB00E4FF126B68025F3862
:056C7E007F010266D653
:056C83007F020266D64D
:056C88007F030266D647
:056C8D007F040266D641
:056C92007F050266D63B
:056C97007F010266D63A
:056C9C007F020266D634
:056CA1007F030266D62E
:056CA6007F040266D628
:0E6A60007F011266D6126BB0900390EFF02209
:056CAB007F020266D625
:056CB0007F010266D621
:056CB5007F020266D61B
:10683C00E4FFFEFDFC126ABAAC06AD077E277F10A2
:0A684C0012218BAC06AD070258576D
:086AD300E4FF126BCE0268A182
:086ADB00E4FF126BC80268A180
:105B5C00126C0A9004C0EFF0D394145031E0FAC3E5
:105B6C00940450028019EAD3941250139004C0E0AC
:105B7C00C3132484F582E43403F583E0FF80027FB1
:105B8C00FF125C4430A4077F3C7E00125F0B900434
:0F5B9C00C0E0D3941440061260181253C8C2CD53
:015BAB0022D7
:1065CF00126BD4BF01081259127F02126BDA126BD1
:1065DF00D4BF030DE4900004F01253C8E4FF126B14
:0265EF00DA22AE
:10002600126BD4BF01081259127F02126BDA126BDF
:0D003600D4BF03081253C3E4FF126BDA229B
:1065F100126BD4BF01081259127F02126BDA126BAF
:10660100D4BF030DE4900002F01253C8E4FF126BF3
:02661100DA228B
:10661300126BD4BF01081259127F02126BDA126B8C
:10662300D4BF030DE4900001F01253C8E4FF126BD2
:02663300DA2269
:1060B900126BD4BF010E7B017A05794B1259187FF7
:1060C90002126BDA126BD4BF030DE4900004F012D4
:0860D90053C8E4FF126BDA2248
:1064B800126BD4BF010E7B017A05794B1259187FF4
:1064C80002126BDA126BD4BF03081253C3E4FF1233
:0364D8006BDA225A
:1060E100126BD4BF010E7B017A05794B1259187FCF
:1060F10002126BDA126BD4BF030DE4900002F012AE
:0861010053C8E4FF126BDA221F
:10610900126BD4BF010E7B017A05794B1259187FA6
:1061190002126BDA126BD4BF030DE4900001F01286
:0861290053C8E4FF126BDA22F7
:10613100126BD4BF010E7B017A0579561259187F73
:1061410002126BDA126BD4BF030DE4900004F0125B
:0861510053C8E4FF126BDA22CF
:1064DB00126BD4BF010E7B017A0579561259187FC6
:1064EB0002126BDA126BD4BF03081253C3E4FF1210
:0364FB006BDA2237
:10615900126BD4BF010E7B017A0579561259187F4B
:1061690002126BDA126BD4BF030DE4900002F01235
:0861790053C8E4FF126BDA22A7
:10618100126BD4BF010E7B017A0579561259187F23
:1061910002126BDA126BD4BF030DE4900001F0120E
:0861A10053C8E4FF126BDA227F
:1061A900126BD4BF010E7B017A0579621259187FEF
:1061B90002126BDA126BD4BF030DE4900004F012E3
:0861C90053C8E4FF126BDA2257
:1064FE00126BD4BF010E7B017A0579621259187F97
:10650E0002126BDA126BD4BF03081253C3E4FF12EC
:03651E006BDA2213
:1061D100126BD4BF010E7B017A0579621259187FC7
:1061E10002126BDA126BD4BF030DE4900002F012BD
:0861F10053C8E4FF126BDA222F
:1061F900126BD4BF010E7B017A0579621259187F9F
:1062090002126BDA126BD4BF030DE4900001F01295
:0862190053C8E4FF126BDA2206
:10622100126BD4BF010E7B017A0579461259187F92
:1062310002126BDA126BD4BF030DE4900004F0126A
:0862410053C8E4FF126BDA22DE
:10652100126BD4BF010E7B017A0579461259187F8F
:1065310002126BDA126BD4BF03081253C3E4FF12C9
:036541006BDA22F0
:10624900126BD4BF010E7B017A0579461259187F6A
:1062590002126BDA126BD4BF030DE4900002F01244
:0862690053C8E4FF126BDA22B6
:10627100126BD4BF010E7B017A0579461259187F42
:1062810002126BDA126BD4BF030DE4900001F0121D
:0862910053C8E4FF126BDA228E
:10629900126BD4BF010E7B017A0579511259187F0F
:1062A90002126BDA126BD4BF030DE4900004F012F2
:0862B90053C8E4FF126BDA2266
:10654400126BD4BF010E7B017A0579511259187F61
:1065540002126BDA126BD4BF03081253C3E4FF12A6
:036564006BDA22CD
:1062C100126BD4BF010E7B017A0579511259187FE7
:1062D10002126BDA126BD4BF030DE4900002F012CC
:0862E10053C8E4FF126BDA223E
:1062E900126BD4BF010E7B017A0579511259187FBF
:1062F90002126BDA126BD4BF030DE4900001F012A5
:0863090053C8E4FF126BDA2215
:10631100126BD4BF010E7B017A05795D1259187F8A
:1063210002126BDA126BD4BF030DE4900004F01279
:0863310053C8E4FF126BDA22ED
:10656700126BD4BF010E7B017A05795D1259187F32
:1065770002126BDA126BD4BF03081253C3E4FF1283
:036587006BDA22AA
:10633900126BD4BF010E7B017A05795D1259187F62
:1063490002126BDA126BD4BF030DE4900002F01253
:0863590053C8E4FF126BDA22C5
:10636100126BD4BF010E7B017A05795D1259187F3A
:1063710002126BDA126BD4BF030DE4900001F0122C
:0863810053C8E4FF126BDA229D
:10638900126BD4BF010E7B017A0579681259187F07
:1063990002126BDA126BD4BF030DE4900004F01201
:0863A90053C8E4FF126BDA2275
:10658A00126BD4BF010E7B017A0579681259187F04
:10659A0002126BDA126BD4BF03081253C3E4FF1260
:0365AA006BDA2287
:1063B100126BD4BF010E7B017A0579681259187FDF
:1063C10002126BDA126BD4BF030DE4900002F012DB
:0863D10053C8E4FF126BDA224D
:1063D900126BD4BF010E7B017A0579681259187FB7
:1063E90002126BDA126BD4BF030DE4900001F012B4
:0863F90053C8E4FF126BDA2225
:086AE300E4FF126B560268A1EA
:086AEB00E4FF126B5C025F384E
:086AF300E4FF126B6E0268A1C2
:086AFB00E4FF126B740268A1B4
:086B0300E4FF126B7A0268A1A5
:10680300E49004C0F0126B809004C0EFF075F003C5
:0D681300A4FF1266569004C0E0FF0268A1C9
:086B0B00E4FF126B860268A191
:1069ED00E4FF126B98EFC3940A50030268A112687A
:0169FD00CECB
:0169FE002276
:086B1300E4FF126B9E0268A171
:086B1B00E4FF126BA40268A163
:086B2300E4FF126BAA0268A155
:105DC000E49004C0F0126BB09004C0EFF01268A130
:105DD000900390E0FF9004C0E06F601D1258B690F1
:105DE00004C0E0900390F0126BBCBF010C7F797E81
:095DF00000125F0BE4FF126BC20C
:015DF9002287
:105E3400E49004C0F0126BB69004C0EFF0125F3827
:105E4400126BBCBF010D9004C0E02442FFE433FE9A
:105E5400125DFA126C5EBF010C7F797E00125DFA4E
:055E6400E4FF126C6474
:015E69002216
:10663500E49004C0F0126B6E9004C0EFF090005629
:10664500E0B4340A30A4077F687E00125F0BD2CD18
:016655002222
:056CBA007F060266D612
:086B2B00E4FF126B8C0268A16B
:056CBF007F070266D60C
:086B3300E4FF126B920268A15D
:101F41004105FB0041060400410601004106020073
:101F51004105FC004105F900410606004105FE006E
:101F61004105FA00410600004105FF004105FD0061
:081F71004106050041060300D2
:106A4200438901758C3C758AB0D2AFD2A9D28C220F
:0E6A6E00438910758DFF758B9CD2AFD2AB2281
:03000B000242A20C
:1042A200C0E0C0F0C083C082C0D075D000C000C0E2
:0D42B20001C002C003C004C005C006C00763
:1042BF00900538E4F0A3F0C28D758C3C758AB0126E
:1042CF006B4A900538EFF0126BC8900539EFF090FC
:1042DF0005FBE004F0E0B40A19900604E004F09046
:1042EF000600E004F09005FBE4F09005FFE06002AB
:1042FF0014F0900604E0C394044002E4F09006002A
:10430F00E0C394184002E4F09005FDE0600214F061
:10431F00900601E0B40104A3E004F0126C46BF0163
:10432F00149005FCE004F0E0D394784008126C4C34
:10433F009005FCE4F0900603E0B40115900605E04B
:10434F0004F0E0D394784009900603E4F09006055A
:10435F00F0900538E0FFB45F159005F9E004F0E048
:10436F00B4140B900606E004F09005F9E4F0EF6446
:10437F005F601A900538E0643160129005FEE0042A
:10438F00F0E0D394C84006E4F0FF126B509005386C
:10439F00E07015A3E0B402109005FAE004F0E0C35A
:0843AF00940A4004B2CDE4F0D1
:1043B700D007D006D005D004D003D002D001D0005A
:0B43C700D0D0D082D083D0F0D0E03204
:03001B00025B0B7A
:105B0B00C0E0C0F0C083C082C0D075D000C000C060
:0D5B1B0001C002C003C004C005C006C007E1
:105B2800E4FF126B4AC28F758DFF758B9CEFB42E04
:095B380005122B74800312403A9F
:105B4100D007D006D005D004D003D002D001D000B8
:0B5B5100D0D0D082D083D0F0D0E03262
:056BD400900604E0FF43
:016BD9002299
:066BDA00900604EFF0221A
:066BE000900601EFF02217
:056BE600900602E0FF33
:016BEB002287
:066BEC00E4900602F02215
:056BF200900606E0FF23
:016BF700227B
:066BF800900606EFF022FA
:066BFE00E49005FEF02208
:066C0400900602EFF022F1
:056C0A00900600E0FF10
:016C0F002262
:0B6A8700900600EFF0E49005FBF02209
:056C10009005FFE0FF0C
:016C1500225C
:0B6A92009005FFEFF0E49005FBF02200
:056C16009005FDE0FF08
:016C1B002256
:066C1C009005FDEFF022DF
:066C2200E49005FCF022E5
:066C2800E4900605F022D5
:066C2E00900603EFF022C6
:056C3400900603E0FFE3
:016C39002238
:0B1F79004805DA140F09040C220006D2
:045C8C00E0FD7F8A2E
:105C9000D2A0EF54FEFFE4FEEF30E004D2A1800278
:105CA000C2A1D2A2C2A2EFC313FF0EEEB408E9E470
:105CB000FEED30E004D2A18002C2A1D2A2C2A2EDC8
:0A5CC000C313FD0EEEB408E9C2A004
:015CCA0022B7
:105CCB00D2A0EF4401FFE4FDEF30E004D2A180024B
:105CDB00C2A1D2A2C2A2EFC313FF0DEDB408E9E437
:105CEB00FDEEC313FE30A1054480FE8004EE547F0D
:0E5CFB00FED2A2C2A20DEDB408E7C2A0AF0611
:015D09002277
:1054E500E4FF74DA2FF582E43405F583E0FE75F008
:1054F5000A84FDEE75F00A8474E22FF582E4340522
:10550500F583E5F0F0EDC454F0FE74E22FF582E486
:105515003405F583E02EF00FEFB408C6E4FD7F8E69
:10552500125C907D807F80125C909005E3E0FD7FAA
:105535008C125C90A3E0FD7F88125C90A3E0FD7F58
:1055450086125C909005E9125C8C9005E6E0FD7F83
:1055550084125C90A3E0FD7F82125C90A3E0FD7F46
:0F55650080125C90A3125C8C7D807F8E025C9024
:10568C007F8C125CCB9005E3EFF07F88125CCBA390
:10569C00EFF07F86125CCBA3EFF07F84125CCBA380
:1056AC00EFF07F82125CCBA3EFF07F80125CCBEF2C
:1056BC00547FA3F07F8A125CCBA3EFF0E4FF74E27B
:1056CC002FF582E43405F583E0FEC4540FFDEE544F
:1056DC000FFE74DA2FF582E43405F583EEF0ED75E8
:1056EC00F00AA4FE74DA2FF582E43405F583E02E7B
:0656FC00F00FEFB408C836
:015702002284
:0B6A9D00C2A0C2A2E4FD7F80025C905A
:101F84004105B6004105B5004105BB004105BE0051
:101F94004105C5004105AA004105A9004305C20049
:101FA40000004205BC00464205C000784205A60078
:101FB400004205A400004205B300004205B70046F4
:101FC4004205B900784205C700004105A800410553
:101FD400C6004105BF004105AB004105AF00430504
:0A1FE400AC0000004305B00000004F
:076B4300D2AFD2A8D28822D4
:03000300026B3B52
:086B3B00C2A8208E02D28E32A6
:10682000E49005B6F09005B5F09005BEF09005BB7C
:0C683000F09005C5F09005A9F0A3F0223F
:10403A0030B2059005BE80039005BBE004F0900500
:10404A00AAE004F0E0D394A07480948F4007C28E53
:10405A00D2A80268209005A9E0146035146069149A
:10406A0070030240F9240360030241699005BEE02F
:10407A00D3940040030241699005BBE0D3944650B3
:10408A00030241709005A9E004F0E49005BEF080B7
:10409A00329005BEE0FFFD9005BBE02DFDE433FC48
:1040AA00D3ED948CEC648094804003024169EFD391
:1040BA009401500302417030A802C2A89005A9E0F9
:1040CA0004F0E49005BBF0229005BBE0D3940140D4
:1040DA00139005BEE09005B6F0E49005BEF0900599
:1040EA00A9E004F09005BEE0D3941940798070905D
:1040FA0005BEE0D39401405C9005BBE0FF9005B596
:10410A00F0E49005BBF09005A97402F09005C5E0B3
:10411A00131313541FFE24C2F582E43405F583E019
:10412A00FD25E0F09005B6E0D39F400E74C22EF54F
:10413A0082E43405F583E04401F09005C5E004F01B
:10414A00E0D39417400EC28E1268209005A874011D
:10415A00F0D2A8229005BBE0D3941940098000123E
:07416A006820D2A8C28E22DA
:103B3800E4900514F0126B4A900514EFF09005A874
:103B4800E064016003023C82F0C2A89005BFE01463
:103B58006027046003023C809005C2E09005ACF049
:103B68009005C3E09005ADF09005C4E09005AEF077
:103B78009005BF7401F0023C809005C2E0FF9005FB
:103B8800ACE06F6003023C689005C3E0FE9005ADB1
:103B9800E06E6003023C689005C4E0FD9005AEE06D
:103BA8006D6003023C689005B0E06F7012A3E06E90
:103BB800700DA3E0B505089005ABE0702380009078
:103BC80005C2E09005B0F09005C3E09005B1F09013
:103BD80005C4E09005B2F09005C67401F0126C229D
:103BE8009005AB7401F0126BFE9005B1E0FFE4FCA8
:103BF800FDFE7808122207C004C005C006C0079061
:103C080005B0E0FFE4FCFDFE7810122207D003D0D7
:103C180002D001D000EF4BFBEE4AFAED49F9EC482F
:103C2800F89005B2E0FFEB4FFFEAFEE9FDE8FC7B08
:103C3800017A057915124E86EF600D9005AF740173
:103C4800F0FF126BC2126BFEE49005C2F0A3F0A362
:103C5800F09005ACF0A3F0A3F0E49005BFF0801855
:103C68009005C2E09005ACF09005C3E09005ADF07A
:0A3C78009005C4E09005AEF0D2A85C
:013C8200221F
:102B740030B2059005BE80039005BBE004F09005DB
:102B8400AAE004F0E0D394A07480948F4006C28E2F
:102B9400D2A880279005A9E014605A147003022C6F
:102BA40088147003022CD324036003022E1A9005A8
:102BB400BEE0D394004007D2A8C28E0268209005DC
:102BC400A6E0FEA3E0FF7C007D0F122179EF243CF8
:102BD400FFE43EFE9005BBE0D39FEC9E5003022E23
:102BE400219005A9E004F09005BCEEF0A3EFF0E419
:102BF400A3F0022C839005A4E0FEA3E0FF7C007DFB
:102C04000F122179EF2478FFE43EFE9005BEE0F92F
:102C1400FD9005BBE02DFDE433FCD3ED9FEC9E401D
:102C240022E9701C9005A5E004F070069005A4E06C
:102C340004F09005A7E004F070069005A6E004F007
:102C4400022E1AE9D394015003022E219005A4E028
:102C5400FEA3E0FF7C007D0F122179EF2478FFE4CE
:102C64003E9005C0F0A3EFF0E49005A4F0A3F0A318
:102C7400F0A3F030A802C2A89005A9E004F0E49003
:102C840005BBF0229005BBE0D3940040139005BE31
:102C9400E09005B6F0E49005BEF09005A9E004F0DC
:102CA4009005BCE0FEA3E0FF9005C1E02FFF900576
:102CB400C0E03EFEEF7803CEC313CE13D8F9FF90E5
:102CC40005BEE0D39FE49E5003022E21022E1A90EB
:102CD40005BEE0D394005003022DEF9005BBE0FF46
:102CE4009005B5F0E49005BBF09005A97402F0904E
:102CF40005C5E0131313541FFE24C2F582E4340502
:102D0400F583E025E0F09005B6E0FDD39F400E7416
:102D1400C22EF582E43405F583E04401F09005C544
:102D2400E004F0E0D394175003022DEFC28E900517
:102D3400B5E02DFEE4339005B3F0A3CEF012682085
:102D44009005C8E004F070069005C7E004F0900513
:102D5400C0E0FEA3E0FF9005BAE02FF09005B9E0D3
:102D64003EF0E0C313FEA3E013FF9005C0EEF0A312
:102D7400EFF09005B9EEF0A3EFF0D39005C8E0941E
:102D8400019005C7E09400405F9005B7E0FEA3E022
:102D9400FF9005BCE0FCA3E0FD9FFFEC9EFED3EF9B
:102DA400941EEE940040159005B8E09DFF9005B781
:102DB400E09CFED3EF941EEE9400502C9005BCE0F2
:102DC400FEA3E0FF9005B8E02FF09005B7E03EF0D9
:102DD400E0C313FEA3E013FF9005BCEEF0A3EFF0F5
:102DE4009005B7EEF0A3EFF0D2A8229005BCE0FE68
:102DF400A3E0FF9005C1E02FFF9005C0E03EFEEF89
:102E04007803CEC313CE13D8F9FF9005BBE0D39F4C
:0E2E1400E49E40098000126820D2A8C28E22DF
:056C3A009005C6E0FF1B
:016C3F002232
:066C4000E49005C6F022FD
:056C46009005ABE0FF2A
:016C4B002226
:066C4C00E49005ABF0220C
:056C52009005AFE0FF1A
:016C5700221A
:066C5800E49005AFF022FC
:086ABA009005B3E0FEA3E0FF2C
:016AC20022B1
:101FEE0048060800000000000000004106140044EE
:0A1FFE000610000000004106070075
:10004600E49004D3F0A3F09004D9F09004E2F0A376
:10005600F0A3F0A3F0A3F0A3F0A3F0A3F0126B4A71
:100066009004E2EFF0126BB09004E3EFF0126BB67F
:100076009004E4EFF0126B569004E5EFF0126B5C1F
:100086009004E6EFF0126B5C9004D9EFF0126B98D7
:100096009004E7EFF0126B6E9004E8EFF0126B74C9
:1000A6009004E9EFF0123B38126C3AEF64016003FA
:1000B600020EA09005B1E0FFE4FCFDFE78081222D6
:1000C60007C004C005C006C0079005B0E0FFE4FC09
:1000D600FDFE7810122207D003D002D001D000EF27
:1000E6004BFBEE4AFAED49F9EC48F89005B2E0FF11
:1000F600EB4FFFEAFEE9FDE8FC9004CF1222849064
:1001060004E2E024CE24FC4003020B2B24FC400333
:10011600020BEB24FC4003020CAB24FC4003020D53
:100126006B24E47003020E3C14700302043F245F48
:100136006003020E9DE4FF126BF89005B2E0FF54D7
:10014600F0600302028F9005B0E0C4540FFE9004E5
:10015600E7E06E600302028FEEC3940A40030202D8
:100166008F9004E3E0B4010CEF540F2476F582E49B
:100176003403800D9005B2E0540F2446F582E43432
:1001860000F583E09004DAF09005B0E0FFC4540F68
:100196009004DBF0EF540FA3F09005B1E0FFC454D8
:1001A6000F9004DDF0EF540FA3F09005B0E090043B
:1001B600DFF09005B1E09004E0F09005B2E0900425
:1001C600E1F09004DAE0FF64336042EF603FE490D0
:1001D60004D7F09004E9E0FF9004D7E0C39F505C99
:1001E6007B017A0479DA9004DAE0FD9004FCE4F00D
:1001F600A3EDF09005B2E0540F9004FEF09004E8F1
:10020600E0FF1231C19004D7E004F080C69004EDFF
:100216007401F0A37400F0A37456F07B017A04799C
:10022600DA12338A7B017A0479DA9005B2E0540F48
:100236009004EEF07F92122FF70209E29004E6E0B6
:10024600FF900607E0C39F5003E004F01260187B9E
:10025600017A0479DA9005B2E0540F9004EEF07F4B
:1002660091122FF79004ED7401F0A37404F0A374B7
:10027600DAF07B017A007956124DAB12385F1253D1
:10028600C87F5F126B50020E9D7B017A0479C7907E
:1002960004CFE0FCA3E0FDA3E0FEA3E0FF1257EECF
:1002A600EF3395E0FE9004D3F0A3EFF04E70030217
:1002B6000E9D9004CFE0FCA3E0FDA3E0FEA3E0FFCB
:1002C600900610E0F8A3E0F9A3E0FAA3E0FBC3125E
:1002D60021F67009126C34EF601F020E9D9004CF58
:1002E600E0FCA3E0FDA3E0FEA3E0FF9006101222CF
:1002F60084126C287F01126C2E9004D3E0FEA3E0DA
:10030600FF64014E70089004DA7433F08018EF64CD
:10031600024E70089004DA7434F0800A9005B2E058
:10032600540F9004DAF078DB7C047D017B017A04BB
:1003360079C77E007F041220D99005B2E0FF9004B1
:10034600E1F09004DAE0C3943250279004E3E0B47D
:10035600010CEF540F2476F582E43403800D9005EA
:10036600B2E0540F2446F582E43400F583E09004AD
:10037600DAF09004DAE0FF64336042EF603FE49025
:1003860004D7F09004E9E0FF9004D7E0C39F506CD7
:100396007B017A0479DA9004DAE0FD9004FCE4F05B
:1003A600A3EDF09005B2E0540F9004FEF09004E83F
:1003B600E0FF1231C19004D7E004F080C69004E655
:1003C600E0FF900607E0C39F5003E004F07B017A4C
:1003D6000479DA9005B2E0540F9004EEF07F9212A1
:1003E6002FF79004ED7401F0A37400F0A37456F097
:1003F6007B017A0479DA12338A0209E21260187BE9
:10040600017A0479DA9005B2E0540F9004EEF07F99
:1004160091122FF79004ED7401F0A37404F0A37405
:10042600DAF07B017A007956124DAB12385F12531F
:10043600C87F5F126B50020B25E4FF126BF8900524
:10044600B2E0FF54F060030207839005B0E0C454A5
:100456000FFE9004E7E06E6003020783EEC3940A82
:1004660040030207839004E3E0B4010CEF540F2429
:1004760076F582E43403800D9005B2E0540F2446ED
:10048600F582E43400F583E09004DAF09005B0E0FC
:10049600FFC4540F9004DBF0EF540FA3F09005B1A6
:1004A600E0FFC4540F9004DDF0EF540FA3F0900565
:1004B600B0E09004DFF09005B1E09004E0F0900524
:1004C600B2E09004E1F09004E5E064016003020606
:1004D600029004DAE0FF64336042EF603FE4900488
:1004E600D7F09004E9E0FF9004D7E0C39F505C7B0F
:1004F600017A0479DA9004DAE0FD9004FCE4F0A3D2
:10050600EDF09005B2E0540F9004FEF09004E8E0A0
:10051600FF1231C19004D7E004F080C67B017A0453
:1005260079DA9005B2E0540F9004EEF07F92122F24
:10053600F79004ED7401F0A37400F0A37456F07BF9
:10054600017A0479DA12338A0209E29004E6E0FFBE
:10055600900607E0C39F5003E004F07B017A04791C
:10056600DA9005B2E0540F9004EEF07F91122FF767
:100576009004ED7401F0A37400F0A37456F07B01AF
:100586007A0479DA1239CE9004E6E09004D7F09036
:1005960004D7E0FFD394014026EF24FEFFE434FFA6
:1005A600FEEF7803C333CE33CED8F92456F9740060
:1005B6003EFA7B01125BB59004D7E014F080D0E4DC
:1005C6009004D7F09004D7E0FFC3940650147456F5
:1005D6002FF582E43400F583E4F09004D7E004F0CC
:1005E60080E29004ED7401F0A37404F0A374DAF0D1
:1005F6007B017A007956124DAB0209E29004E5E0E0
:1006060064026003020E9D9004DAE0FF6433600327
:10061600EF702F7B017A0479DA9005B2E0540F90DF
:1006260004EEF07F92122FF79004ED7401F0A3749C
:1006360000F0A37456F07B017A0479DA12338A0249
:1006460009E2E49004D8F09004E6E0FF9004D8E0D4
:10065600FEC39F40030206FCEE75F008A4FFAEF051
:100666002457F58274003EF583E0FD9004DBE0FC40
:10067600ED6C707974582FF58274003EF583E0FFB7
:100686009004DCE0FEEF6E70649004D8E075F0082C
:10069600A4FFAEF02459F58274003EF583E0FD9088
:1006A60004DDE0FCED6C7045745A2FF58274003E53
:1006B600F583E0FF9004DEE0FEEFB506309004D847
:1006C600E0A3F075F008A42456F9740035F0FA7B1F
:1006D60001C0039004EDEBF0A37404F0A374DAF008
:1006E600D003124DAB12385F1253C880099004D85C
:1006F600E004F002064D9004E6E0FF9004D9E06FB6
:100706006003020E9D9004D8F09004E6E0FD90048C
:10071600D8E0FFC39D4003020E9DEF75F008A424A8
:1007260056F582740035F0F583E07049900607E0CF
:10073600C39D5003E004F07B017A0479DA9005B298
:10074600E0540F9004EEF07F91122FF79004D8E05A
:1007560075F008A42456F9740035F0FA7B01C0033D
:100766009004EDEBF0A37404F0A374DAF0D0031256
:100776004DAB0209E29004D8E004F0808C7B017A4C
:100786000479C79004CFE0FCA3E0FDA3E0FEA3E05C
:10079600FF1257EEEF3395E0FE9004D3F0A3EFF08F
:1007A6004E7003020E9D9004CFE0FCA3E0FDA3E093
:1007B600FEA3E0FF900610E0F8A3E0F9A3E0FAA399
:1007C600E0FBC31221F67009126C34EF601F020EB3
:1007D6009D9004CFE0FCA3E0FDA3E0FEA3E0FF9024
:1007E6000610122284126C287F01126C2E9004D3FC
:1007F600E0FEA3E0FF64014E70089004DA7433F063
:100806008018EF64024E70089004DA7434F0800A9F
:100816009005B2E0540F9004DAF078DB7C047D0199
:100826007B017A0479C77E007F041220D99005B235
:10083600E0FF9004E1F09004DAE0C3943250279090
:1008460004E3E0B4010CEF540F2476F582E434039C
:10085600800D9005B2E0540F2446F582E43400F58D
:1008660083E09004DAF09004E5E064016003020995
:100876009F9004DAE0FF64336042EF603FE4900447
:10088600D7F09004E9E0FF9004D7E0C39F505C7B6B
:10089600017A0479DA9004DAE0FD9004FCE4F0A32E
:1008A600EDF09005B2E0540F9004FEF09004E8E0FD
:1008B600FF1231C19004D7E004F080C67B017A04B0
:1008C60079DA9005B2E0540F9004EEF07F92122F81
:1008D600F79004ED7401F0A37400F0A37456F07B56
:1008E600017A0479DA12338A0209E29004E6E0FF1B
:1008F600900607E0C39F5003E004F07B017A047979
:10090600DA9005B2E0540F9004EEF07F91122FF7C3
:100916009004ED7401F0A37400F0A37456F07B010B
:100926007A0479DA1239CE9004E6E09004D7F09092
:1009360004D7E0FFD394014026EF24FEFFE434FF02
:10094600FEEF7803C333CE33CED8F92456F97400BC
:100956003EFA7B01125BB59004D7E014F080D0E438
:100966009004D7F09004D7E0FFC394065014745651
:100976002FF582E43400F583E4F09004D7E004F028
:1009860080E29004ED7401F0A37404F0A374DAF02D
:100996007B017A007956020B129004E5E06402604E
:1009A60003020B259004DAE0FF64336003EF703531
:1009B6007B017A0479DA9005B2E0540F9004EEF0E8
:1009C6007F92122FF79004ED7401F0A37400F0A348
:1009D6007456F07B017A0479DA12338A12385F1280
:1009E60053C8020E9DE49004D8F09004E6E0FF9010
:1009F60004D8E0FEC39F4003020A9FEE75F008A4E8
:100A0600FFAEF02457F58274003EF583E0FD9004B6
:100A1600DBE0FCED6C707974582FF58274003EF5BE
:100A260083E0FF9004DCE0FEEF6E70649004D8E093
:100A360075F008A4FFAEF02459F58274003EF583E4
:100A4600E0FD9004DDE0FCED6C7045745A2FF582F4
:100A560074003EF583E0FF9004DEE0FEEFB506305D
:100A66009004D8E0A3F075F008A42456F974003574
:100A7600F0FA7B01C0039004EDEBF0A37404F0A33D
:100A860074DAF0D003124DAB12385F1253C88009E6
:100A96009004D8E004F00209F09004E6E0FF900428
:100AA600D9E06F707A9004D8F09004E6E0FD9004E7
:100AB600D8E0FFC39D5068EF75F008A42456F58270
:100AC600740035F0F583E0704E900607E0C39D5044
:100AD60003E004F07B017A0479DA9005B2E0540F62
:100AE6009004EEF07F91122FF79004D8E075F0088D
:100AF600A42456F9740035F0FA7B01C0039004ED86
:100B0600EBF0A37404F0A374DAF0D003124DAB1229
:100B1600385F1253C880089004D8E004F0808A1227
:100B26006C40020E9D7F35126B5078BF7C047D01B0
:100B36007B017A0579417E007F041220D99005B1A8
:100B4600E0FFE4FCFDFE7808122207C004C005C0E1
:100B560006C0079005B0E0FFE4FCFDFE7810122207
:100B660007D003D002D001D000EF4BFBEE4AFAEDDE
:100B760049F9EC48F89005B2E0FFEB4FFFEAFEE9D1
:100B8600FDE8FC9004C31222847B017A0479BF122B
:100B960046285003020E9D126A52900544E06409ED
:100BA600703D900543E06409702F900542E0B4095A
:100BB60022900541E004F0E4A3F0A3F0900541E0A3
:100BC600B4150AE4F090054404F0020E9D90054425
:100BD600020E16900542020E1F900543020E2C903F
:100BE6000544020E377F39126B5078BF7C047D01B5
:100BF6007B017A05794B7E007F041220D99005B1DE
:100C0600E0FFE4FCFDFE7808122207C004C005C020
:100C160006C0079005B0E0FFE4FCFDFE7810122246
:100C260007D003D002D001D000EF4BFBEE4AFAED1D
:100C360049F9EC48F89005B2E0FFEB4FFFEAFEE910
:100C4600FDE8FC9004C31222847B017A0479BF126A
:100C560041715003020E9D126A5290054EE06409DE
:100C6600703D90054DE06409702F90054CE0B40985
:100C76002290054BE004F0E4A3F0A3F090054BE0CE
:100C8600B4150AE4F090054E04F0020E9D90054E50
:100C9600020E1690054C020E1F90054D020E2C906A
:100CA600054E020E377F3D126B5078BF7C047D01E6
:100CB6007B017A0579567E007F041220D99005B112
:100CC600E0FFE4FCFDFE7808122207C004C005C060
:100CD60006C0079005B0E0FFE4FCFDFE7810122286
:100CE60007D003D002D001D000EF4BFBEE4AFAED5D
:100CF60049F9EC48F89005B2E0FFEB4FFFEAFEE950
:100D0600FDE8FC9004C31222847B017A0479BF12A9
:100D16003DCA5003020E9D126A52900559E06409BD
:100D2600703D900558E06409702F900557E0B409AE
:100D360022900556E004F0E4A3F0A3F0900556E0F7
:100D4600B4150AE4F090055904F0020E9D90055979
:100D5600020E16900557020E1F900558020E2C9093
:100D66000559020E377F41126B5078BF7C047D0116
:100D76007B017A0579627E007F041220D99005B145
:100D8600E0FFE4FCFDFE7808122207C004C005C09F
:100D960006C0079005B0E0FFE4FCFDFE78101222C5
:100DA60007D003D002D001D000EF4BFBEE4AFAED9C
:100DB60049F9EC48F89005B2E0FFEB4FFFEAFEE98F
:100DC600FDE8FC9004C31222847B017A0479BF12E9
:100DD6003F025003020E9D126A52900565E06409B7
:100DE600704C900564E064097039900563E0B409BD
:100DF60025900562E004F0E4A3F0A3F0900562E01C
:100E0600B4150AE4F090056504F0020E9D900565A0
:100E16007401F0020E9D900563E004F0E4A3F0A3D4
:100E2600F08074900564E004F0E4A3F08069900516
:100E360065E004F08061E4FF126BC2900614740151
:100E4600F09004E3E0B40124A3E0FF9005B2E0547F
:100E56000F2476F582E43403F583EFF07B017A0301
:100E660079769005017410F07D2080249004E4E0EA
:100E7600FF9005B2E0540F2446F582E43400F58372
:100E8600EFF07B017A0079469005017410F07D3011
:100E96007C157FA01259CF126C401248720236E3BD
:056C5E00900614E0FFA8
:016C6300220E
:066C6400900614EFF0227F
:10532300FFFFFFFFFFFFFFFFFFFFFFFFFFFFFFFF8A
:10533300FFFFFFFFFFFFFFFFFFFFFFFFFFFFFFFF7A
:10534300FFFFFFFFFFFFFFFFFFFFFFFFFFFFFFFF6A
:10535300FFFFFFFFFFFFFFFFFFFFFFFFFFFFFFFF5A
:10536300FFFFFFFFFFFFFFFFFFFFFFFFFFFFFFFF4A
:10537300FFFFFFFFFFFFFFFFFFFFFFFFFFFFFFFF3A
:10538300FFFFFFFFFFFFFFFFFFFFFFFFFFFFFFFF2A
:10539300FFFFFFFFFFFFFFFFFFFFFFFFFFFFFFFF1A
:1053A300FFFFFFFFFFFFFFFFFFFFFFFFFFFFFFFF0A
:1053B300FFFFFFFFFFFFFFFFFFFFFFFFFFFFFFFFFA
:036CC400DFFE22CE
:1068FA00AE07AF061EEF600C7FF5126CC47FF5126F
:05690A006CC480EE22C8
:1068E400D2B400D2B50000000000C2B40000000021
:0668F40000C2B500002205
:1069FF00C2B400D2B50000000000D2B40000000005
:016A0F002264
:105D4700E4FEEFA806088002C333D8FC30E704D28C
:105D5700B48002C2B400D2B50000000000C2B50E84
:105D6700EEB408DE0000D2B40000D2B50000003067
:0C5D7700B404C20A8002D20AC2B50000C7
:015D830022FD
:10642800E4FFD2B4FE00C2B50000000000D2B500FF
:1064380000EF25E0FF30B4010F00000EEEB408E5D0
:04644800C2B50000D9
:01644C00222D
:106A1000C2B4000000D2B50000000000C2B5000002
:016A20002253
:106A2100D2B4000000D2B50000000000C2B50000E1
:016A31002242
:0F59C000E0FCA3E0FD7B017408900501F07FA0DF
:1059CF001268E4125D47200A02C322ECFF125D4702
:1059DF00200A02C322AF05125D47200A02C322E448
:1059EF00FD900501E0FFEDC39F50161220FFFF123F
:1059FF005D47200A02C322740129F9E43AFA0D80A7
:055A0F00E01269FFD365
:015A1400226F
:0F570300E0FCA3E0FD7B019005367408F07FA069
:05571200900530EFF0EE
:105717001268E4E0FF125D47200A02C322ECFF1281
:105727005D47200A02C322AF05125D47200A02C364
:10573700221268E4900530E004FF125D47200A0258
:10574700C322E4FD900536E014FFEDC39F50141209
:105757006428EF122145126A10740129F9E43AFA14
:105767000D80E1126428EF122145126A211269FFA8
:01577700D35E
:01577800220E
:0B4628009004EAEBF0A3EAF0A3E9F035
:10463300E49004F9F0A3F09004EDF0A37420F0E407
:10464300A3F0A3F09004ED7A0479F11257039004D8
:10465300F5E0FCA3A3A3E4FFFEFDEC7079126BB0BD
:10466300BF02329004F5A3E0FDA3E0FEA3E054F003
:10467300FFE4FC9004F51222849004EAE0FBA3E03B
:10468300FAA3E02404F9E43AFA12221AEF54F0FFF1
:10469300E4FC12226A9004EAE0FBA3E0FAA3E0F947
:1046A30090000412223A9004F5E0F8A3E0F9A3E0A5
:1046B300FAA3E0FBC31221F6703578417C057D0136
:1046C3007B017A0479F1FE7F041220D9E490054539
:1046D300F07F7AFE806E9004F9E07002A3E0700F21
:1046E3009004EDE0FFA3E09004F9CFF0A3EFF09086
:1046F30004EEE02408F09004EDE03400F09004F0C0
:10470300E004F070069004EFE004F0C39004EFE0DF
:10471300940250030246479004F9E0FCA3E0FD90A5
:1047230004EAE0FBA3E0FAA3E0F91259C79004F905
:10473300E07002A3E060097F797E00125DFA8009D0
:0A4743007F7A7E00125DFAD322C3D4
:01474D002249
:0B4171009004EAEBF0A3EAF0A3E9F0F1
:10417C00E49004F9F0A3F09004ED7414F0A374200F
:10418C00F0E4A3F0A3F09004ED7A0479F112570354
:10419C009004F5E0FCA3A3A3E4FFFEFDEC707C12FD
:1041AC006BB0BF02329004F5A3E0FDA3E0FEA3E0E8
:1041BC0054F0FFE4FC9004F51222849004EAE0FB36
:1041CC00A3E0FAA3E02404F9E43AFA12221AEF5419
:1041DC00F0FFE4FC12226A9004EAE0FBA3E0FAA3ED
:1041EC00E0F990000412223A9004F5E0F8A3E0F90B
:1041FC00A3E0FAA3E0FBC31221F67038784B7C05E0
:10420C007D017B017A0479F1FE7F041220D9E490C0
:10421C00054FF07F7AFE125F0BD3229004F9E07009
:10422C0002A3E0700F9004EDE0FFA3E09004F9CF3F
:10423C00F0A3EFF09004EEE02408F09004EDE034ED
:10424C0000F09004F0E004F070069004EFE004F04D
:10425C00C39004F0E094209004EFE094005003022B
:10426C0041929004F9E0FCA3E0FD9004EAE0FBA38A
:10427C00E0FAA3E0F91259C79004F9E07002A3E048
:10428C0060097F797E00125DFA80097F7A7E0012C8
:05429C005DFAD322C30E
:0142A10022FA
:0B3DCA009004EAEBF0A3EAF0A3E9F09C
:103DD500E49004F9F0A3F09004ED7410F0A37420BE
:103DE500F0E4A3F0A3F09004EDE0FCA3E0FD7B017B
:103DF5007A0479F112570A9004F5E0FCA3A3A3E431
:103E0500FFFEFDEC707C126BB0BF02329004F5A38F
:103E1500E0FDA3E0FEA3E054F0FFE4FC9004F512FE
:103E250022849004EAE0FBA3E0FAA3E02404F9E489
:103E35003AFA12221AEF54F0FFE4FC12226A9004B7
:103E4500EAE0FBA3E0FAA3E0F990000412223A901D
:103E550004F5E0F8A3E0F9A3E0FAA3E0FBC312211F
:103E6500F6703878567C057D017B017A0479F1FE80
:103E75007F041220D9E490055AF07F7AFE125F0B79
:103E8500D3229004F9E07002A3E0700F9004EDE0F6
:103E9500FFA3E09004F9CFF0A3EFF09004EEE02447
:103EA50008F09004EDE03400F09004F0E004F070C8
:103EB500069004EFE004F0C39004F0E09440900411
:103EC500EFE094005003023DEB9004F9E0FCA3E021
:103ED500FD9004EAE0FBA3E0FAA3E0F91259C790CC
:103EE50004F9E07002A3E060097F797E00125DFAB3
:0C3EF50080097F7A7E00125DFAD322C3A0
:013F0100229D
:0B3F02009004EAEBF0A3EAF0A3E9F062
:103F0D00E49004F9F0A3F09004ED7412F0A3742082
:103F1D00F0E4A3F0A3F09004EDE0FCA3E0FD7B0141
:103F2D007A0479F112570A9004F5E0FCA3A3A3E4F7
:103F3D00FFFEFDEC707C126BB0BF02329004F5A356
:103F4D00E0FDA3E0FEA3E054F0FFE4FC9004F512C5
:103F5D0022849004EAE0FBA3E0FAA3E02404F9E450
:103F6D003AFA12221AEF54F0FFE4FC12226A90047E
:103F7D00EAE0FBA3E0FAA3E0F990000412223A90E4
:103F8D0004F5E0F8A3E0F9A3E0FAA3E0FBC31221E6
:103F9D00F6703878627C057D017B017A0479F1FE3B
:103FAD007F041220D9E4900566F07F7AFE125F0B34
:103FBD00D3229004F9E07002A3E0700F9004EDE0BD
:103FCD00FFA3E09004F9CFF0A3EFF09004EEE0240E
:103FDD0008F09004EDE03400F09004F0E004F0708F
:103FED00069004EFE004F0C39004F0E094409004D8
:103FFD00EFE094005003023F239004F9E0FCA3E0AE
:10400D00FD9004EAE0FBA3E0FAA3E0F91259C79092
:10401D0004F9E07002A3E060097F797E00125DFA79
:0C402D0080097F7A7E00125DFAD322C366
:014039002264
:0B4AA3009004C0EBF0A3EAF0A3E9F0E0
:104AAE009004CBE4F0A37420F078CF7C047D017BDE
:104ABE00FF7A5379237E00FF1220D99004C0E0FBC9
:104ACE00A3E0FAA3E0F912221AE4FBFAF9F8C312F2
:104ADE0021F670449004CDF0A3F09004CDE0FEA337
:104AEE00E0FFC39480EE94004003024BABEF7805D9
:104AFE00C333CE33CED8F9FDAC067B017A0479CF21
:104B0E0074201259C9126A529004CEE004F070CA91
:104B1E009004CDE004F080C2E49004CDF0A3F090B8
:104B2E0004CBE0FCA3E0FD7B017A0479C312570AA3
:104B3E009004C7E0FCE4FFFEFDEC703C9004C0E086
:104B4E00FBA3E0FAA3E0F912221A9004C3E0F8A343
:104B5E00E0F9A3E0FAA3E0FBC31221F6701AFE7F80
:104B6E00087DFF7B017A0479C31224579004CB7A17
:104B7E000479C31259C080259004CCE02408F0902B
:104B8E0004CBE03400F09004CEE004F07006900404
:0E4B9E00CDE004F0C39004CDE094024082C349
:014BAC0022E6
:0B474E009004C0EBF0A3EAF0A3E9F038
:104759009004CB7414F0A37420F078CF7C047D010D
:104769007BFF7A5379437E00FF1220D99004C0E081
:10477900FBA3E0FAA3E0F912221AE4FBFAF9F8C361
:104789001221F670549004CDF0A3F09004CDE0FE10
:10479900A3E0FFC39408EE94004003024870EF7849
:1047A90005C333CE33CED8F9FF9004CCE02FFD906A
:1047B90004CBE03EFC7B017A0479CF90050174209B
:1047C900F07FA01259CF126A529004CEE004F07023
:1047D900BA9004CDE004F080B2E49004CDF0A3F0E7
:1047E9009004CBE0FCA3E0FD7B017A0479C3125766
:1047F9000A9004C7E0FCE4FFFEFDEC703C9004C0A5
:10480900E0FBA3E0FAA3E0F912221A9004C3E0F84E
:10481900A3E0F9A3E0FAA3E0FBC31221F6701AFEA4
:104829007F087DFF7B017A0479C31224579004CB5A
:104839007A0479C31259C0802E9004CCE02408F080
:104849009004CBE03400F09004CEE004F0700690C0
:1048590004CDE004F0C39004CEE094209004CDE0B0
:08486900940050030247E9C36B
:014871002224
:0B43D2009004C0EBF0A3EAF0A3E9F0B8
:1043DD009004CB7410F0A37420F078CF7C047D0191
:1043ED007BFF7A5379637E00FF1220D99004C0E0E1
:1043FD00FBA3E0FAA3E0F912221AE4FBFAF9F8C3E1
:10440D001221F670549004CDF0A3F09004CDE0FE8F
:10441D00A3E0FFC39410EE940040030244FBEF7839
:10442D0005C333CE33CED8F9FF9004CCE02FFD90E9
:10443D0004CBE03EFC7B017A0479CF90050174201A
:10444D00F07FA01259CF126A529004CEE004F070A2
:10445D00BA9004CDE004F080B2E49004CDF0A3F066
:10446D009004CBE0FCA3E0FD7B017A0479C31257E5
:10447D000A9004C7E0FCE4FFFEFDEC70439004C01D
:10448D00E0FBA3E0FAA3E0F912221A9004C3E0F8CE
:10449D00A3E0F9A3E0FAA3E0FBC31221F67021FE1D
:1044AD007F087DFF7B017A0479C31224579004CBDA
:1044BD00E0FCA3E0FD7B017A0479C31259C7802E7D
:1044CD009004CCE02408F09004CBE03400F090048C
:1044DD00CEE004F070069004CDE004F0C39004CE5D
:0F44ED00E094409004CDE09400500302446DC36E
:0144FC00229D
:0B44FD009004C0EBF0A3EAF0A3E9F08C
:104508009004CB7412F0A37420F078CF7C047D0162
:104518007BFF7A5379837E00FF1220D99004C0E094
:10452800FBA3E0FAA3E0F912221AE4FBFAF9F8C3B4
:104538001221F670549004CDF0A3F09004CDE0FE63
:10454800A3E0FFC39410EE94004003024626EF78E0
:1045580005C333CE33CED8F9FF9004CCE02FFD90BD
:1045680004CBE03EFC7B017A0479CF9005017420EE
:10457800F07FA01259CF126A529004CEE004F07076
:10458800BA9004CDE004F080B2E49004CDF0A3F03A
:104598009004CBE0FCA3E0FD7B017A0479C31257B9
:1045A8000A9004C7E0FCE4FFFEFDEC70439004C0F1
:1045B800E0FBA3E0FAA3E0F912221A9004C3E0F8A2
:1045C800A3E0F9A3E0FAA3E0FBC31221F67021FEF1
:1045D8007F087DFF7B017A0479C31224579004CBAE
:1045E800E0FCA3E0FD7B017A0479C31259C7802E51
:1045F8009004CCE02408F09004CBE03400F0900460
:10460800CEE004F070069004CDE004F0C39004CE30
:0F461800E094409004CDE094005003024598C315
:014627002270
:1058B60078C17C047D017BFF7A5379A37E007F202B
:1058C6001220D9E49004E1F0A3F09004E1E0FEA3F5
:1058D600E0FFC394A8EE94005031EF7805C333CEB1
:1058E60033CED8F9FDAC067B017A0479C190050167
