:03000000024C406F
:0C4C4000787FE4F6D8FD758120024C87D7
:1054A200125B151250AF125FE012600C1260CB1249
:1054B2006025125E31125FF075B10CE4F5B27F7BAC
:0F54C200FE12544512339C120E6F12004680F8F2
:03002300025D5328
:065D5300C0E0C083C08225
:105D5900900329E4F0309802C298309904C299C29C
:015D69000039
:075D6A00D082D083D0E032AB
:03004300025E4A10
:105E4A00C0E0E59A30E003539AFEE59A30E1055343
:075E5A009AFDC200D0E03206
:096030002000FDEFD200F59922D9
:1053D9009003E6EBF0A3EAF0A3E9F09003E6E0FB23
:1053E900A3E0FAA3E0F912280460179003E6A3E406
:1053F90075F0011228E5A9F0FA122804FF126030AD
:0354090080D92225
:096039002000FDEFD200F59B22CE
:10540C009003E9EBF0A3EAF0A3E9F09003E9E0FBE9
:10541C00A3E0FAA3E0F912280460179003E9A3E4CF
:10542C0075F0011228E5A9F0FA122804FF12603970
:03543C0080D922F2
:105B1500E5A2543FF5A253BAFE759850759A507593
:105B2500D7C875D6FE758E14438E01D2AC75AF01FC
:035B3500D2AF22CA
:101EDE000000000000FF002601020E0F00FF0006AA
:101EEE000203011500FF59620304021900FF59ADE8
:101EFE000405031D00FF59D10506041F00FF59F507
:101F0E000607052000FF5A190708062100FF5A3D53
:101F1E000809072600FF5A61090A082A00FF5A8598
:101F2E000A0B092C00FF5AA90B0C0A0B00FF001E0E
:101F3E000C0D0B0C00FF61DA0D0E0C0D00FF61DFB6
:101F4E000E010D0E00FF000E0F0F0F1001FF52B409
:101F5E001010101101FF557B1111111201FF55A325
:101F6E001212121301FF5ACD1313131401FF5AF15B
:101F7E001414140F01FF55CB1516183502FF5F1DF3
:101F8E001617153902FF5F2F1718163D02FF5F4116
:101F9E001815174102FF5F53191A1C4503FF5F65A1
:101FAE001A1B194903FF5F771B1C1A4D03FF5F892C
:101FBE001C191B5103FF5F9B1D1E1E5204FF61E483
:101FCE001E1D1D5304FF61E91F1F1F1F05FF604BE0
:101FDE002020202006FF60532122625407FF61EE6D
:101FEE002223215507FF61F32324225607FF61F8B0
:101FFE002425235707FF61FD2560245807FF620241
:10200E002627295908FF62072728265A08FF620C3F
:10201E002829275B08FF62112926285C08FF621613
:10202E002A2B2B5D09FF5FFE2B2A2A5E09FF621BFE
:10203E002C2D2D000AFF62202D2C2C000AFF62256C
:10204E002E2E2E000BFF5DE52F2F2F000CFF605B59
:10205E00303030000DFF6063313131000EFF5151D1
:10206E003232323515FF5C2D3333333215FF5D8F2F
:10207E003434343315FF5C4F3535353415FF5C7110
:10208E003636363916FF55F33737373616FF5B3887
:10209E003838383716FF561B3939393816FF56433C
:1020AE003A3A3A3D17FF566B3B3B3B3A17FF5B5BA9
:1020BE003C3C3C3B17FF56933D3D3D3C17FF56BB0A
:1020CE003E3E3E4118FF56E33F3F3F3E18FF5B7ECC
:1020DE004040403F18FF570B4141414018FF5733D6
:1020EE004242424519FF575B4343434219FF5BA1EE
:1020FE004444444319FF57834545454419FF57ABA4
:10210E00464646491AFF57D3474747461AFF5BC410
:10211E00484848471AFF57FB494949481AFF582370
:10212E004A4A4A4D1BFF584B4B4B4B4A1BFF5BE732
:10213E004C4C4C4B1BFF58734D4D4D4C1BFF589B3D
:10214E004E4E4E511CFF58C34F4F4F4E1CFF5C0A54
:10215E005050504F1CFF58EB515151501CFF59130A
:10216E00525252521DFF606B535353531EFF6073F6
:10217E005454545421FF607B5555555522FF6083AE
:10218E005656565623FF608B5757575724FF5DAC54
:10219E005858585825FF60935959595926FF593B9D
:1021AE005A5A5A5A27FF609B5B5B5B5B28FF60A302
:1021BE005C5C5C5C29FF60AB5D5D5D5D2AFF536A14
:1021CE005E5E5E5E2BFF51A15F5F5F5F5FFF5C93A4
:1021DE006062256107FF622A6161616160FF60B321
:1021EE006221606307FF622F6363636362FF60BBFC
:101A840041032E004103580041032F004403330057
:101A940000000144033B0000000144034400000033
:101AA4000144034E000000014403370000000144D8
:101AB40003400000000144034A00000001440353B2
:101AC4000000000141033F01410349014103480073
:101AD400410352004103570041035A0241035D0090
:101AE400410360064103620341036301410364004F
:101AF4004103590B41035C0041035F004103610052
:101B040041035B0241035E0041032C014103650173
:041B140041032D015B
:1049E600E49002CCF0A3F043903CE590543C643C48
:1049F6007003024A8A125FF0E590543C643C7003EF
:104A0600024A8A12618690032FE0645E6029126171
:104A160014EF601190032FE0D3940E40047F0180C1
:104A2600067F0080027F01EF600D125EE3125FF0E9
:104A36007F787E0012544590032E7401F0E5905461
:104A46003CFF9002CCE4F0A3EFF09002CCE07004BF
:104A5600A3E0643870081261747F01126168E59002
:104A6600543CFFBF3CF8125FF0E590543CFFBF3C5E
:104A7600F8E4FF126168E4FF1261809002CCE0FE68
:084A8600A3E0FF227E0F7FFF79
:014A8E002205
:10491800E49002CAF0A3F0FF1249E69002CAEEF052
:10492800A3EFF01261C29002CAE0640F7003A3E023
:10493800F460030249BBEF6401707890032FE070C4
:104948002A9003ABE0540FFFBF0808900358E00417
:10495800F08005E4900358F0900358E0D3940340A6
:104968000A7F1412618CE4900358F01261C8900316
:10497800ABE0540F24FE601724FE601E24FC602563
:104988002407702F9002CAE4F0A3741CF0802490CE
:1049980002CAE4F0A37434F080199002CAE4F0A3C8
:1049A800742CF0800E12619EEF70089002CAF0A37A
:1049B8007438F09002CAE0FEA3E0FFEE701DEF2409
:1049C800D4601224F8600B24FC600D241C700C7F4A
:0D49D80003227F02227F01227F00227FFF49
:0149E50022AF
:100E6F00E4FF9002C9F0124918EF147003021156F3
:100E7F0014700302160C1470030211302403600364
:100E8F00021A56126156EF700690032FE06012128D
:100E9F006156EF6401702890032FE0FF6003B45F89
:100EAF001E12616E9002C9EFF0C394145003021A20
:100EBF005690032F7402F07F061261A402112A903C
:100ECF00032FE0FF6442600FEF6443600AEF644456
:100EDF006005EF6445703012616E9002C9EFF0C388
:100EEF00940A406B7B017A037937123EAF5012128E
:100EFF006144BF010C7F797E00125445E4FF1261FB
:100F0F004A125FF002112A90032FE0FF6446600F30
:100F1F00EF6447600AEF64486005EF64497033126D
:100F2F00616E9002C9EFF0C3940A40237B017A03EC
:100F3F0079401241265012126144BF010C7F797E15
:100F4F0000125445E4FF12614A125FF002112A02A7
:100F5F000FF390032FE0FF644A600FEF644B600ABA
:100F6F00EF644C6005EF644D703212616E9002C9F0
:100F7F00EFF0C3940A40237B017A03794A1239892F
:100F8F005012126144BF010C7F797E00125445E468
:100F9F00FF12614A125FF002112A804890032FE07E
:100FAF00FF644E600FEF644F600AEF64506005EF0F
:100FBF006451704312616E9002C9EFF0C3940A40FE
:100FCF00237B017A037953123AD45012126144BF32
:100FDF00010C7F797E00125445E4FF12614A125FC3
:100FEF00F002112A90032FE075F008A424E1F58296
:100FFF00E5F0341E021A4E90032FE0B40B19126164
:10100F006E9002C9EFF0C394145003021A56900366
:10101F002F742EF002112A90032FE0B40C191261D5
:10102F006E9002C9EFF0C394145003021A56900346
:10103F002F742FF002112A90032FE0B40D191261B3
:10104F006E9002C9EFF0C394145003021A56900326
:10105F002F7430F002112A90032FE0B40E19126191
:10106F006E9002C9EFF0C394145003021A56900306
:10107F002F7431F002112A90032FE0B42D22126148
:10108F006E9002C9EFF0C394145003021A567F7981
:10109F007E00125445124E9C124B2175C720807B47
:1010AF0090032FE0642C705B12616E9002C9EFF019
:1010BF00C394145003021A567F797E0012544512BE
:1010CF004E9C12532E124B217B017A0279AE900364
:1010DF00097410F07DA07C177FA0124E56125FF09E
:1010EF007B017A0079469003097410F07DB07C176C
:1010FF007FA0124E56125FF012505D125FF075C74F
:10110F0020801890032FE075F008A424E1F582E504
:10111F00F0341EF583E49390032FF0126174021ADA
:10112F005690032FE0B45F0C126156EF6006124D1C
:10113F0049021A5690032FE075F008A424E2F582B5
:10114F00E5F0341E021A4E90032FE01228FB120F07
:10115F000F12211012311112411212511312631476
:10116F0014D41F14E62015C82F15B730127532127C
:10117F00873312993412AB3512BD3612CF3712E1C5
:10118F003812F33913053A13173B13293C133B3D20
:10119F00134D3E135F3F1371401383411395421359
:1011AF00A74313B94413CB4513DD4613EF4714017F
:1011BF004814134914254A14374B14494C145B4DEA
:1011CF00146D4E147F4F14915014A35114B4521434
:1011DF00C45314F854150A55151A56152D57153EA4
:1011EF0058154F5915605A15715B15815C15915D36
:1011FF00159F5E15B25F15D86115E863000015F9EC
:10120F009003C3E0B46305E4F00215F99003C30241
:10121F0015AD9003C4E0B40C030214CB9003C402C9
:10122F0015AD9003C5E0B41F030214CB9003C502A4
:10123F0015AD9003C9E0B407030214CB9003C902A4
:10124F0015AD9003C6E0B41705E4F00215F990034D
:10125F00C60215AD9003C7E0B43B05E4F00215F9E3
:10126F009003C70215AD900333E0B41405E4F00208
:10127F0015F99003330215AD900334E0B40905E47A
:10128F00F00215F99003340215AD900335E0B4095F
:10129F0005E4F00215F99003350215AD900336E021
:1012AF00B40905E4F00215F99003360215AD900369
:1012BF003BE0B41405E4F00215F990033B0215ADC1
:1012CF0090033CE0B40905E4F00215F990033C02E9
:1012DF0015AD90033DE0B40905E4F00215F9900354
:1012EF003D0215AD90033EE0B40905E4F00215F997
:1012FF0090033E0215AD900344E0B41405E4F002F0
:10130F0015F99003440215AD900345E0B40905E4C7
:10131F00F00215F99003450215AD900346E0B409AC
:10132F0005E4F00215F99003460215AD900347E06E
:10133F00B40905E4F00215F99003470215AD9003C7
:10134F004EE0B41405E4F00215F990034E0215AD0A
:10135F0090034FE0B40905E4F00215F990034F0232
:10136F0015AD900350E0B40905E4F00215F99003B0
:10137F00500215AD900351E0B40905E4F00215F9E0
:10138F009003510215AD900337E0B41405E4F00259
:10139F0015F99003370215AD900338E0B40905E451
:1013AF00F00215F99003380215AD900339E0B40936
:1013BF0005E4F00215F99003390215AD90033AE0F8
:1013CF00B40905E4F00215F990033A0215AD900344
:1013DF0040E0B41405E4F00215F99003400215AD96
:1013EF00900341E0B40905E4F00215F990034102BE
:1013FF0015AD900342E0B40905E4F00215F990032E
:10140F00420215AD900343E0B40905E4F00215F96B
:10141F009003430215AD90034AE0B41405E4F002C3
:10142F0015F990034A0215AD90034BE0B40905E49A
:10143F00F00215F990034B0215AD90034CE0B4097F
:10144F0005E4F00215F990034C0215AD90034DE041
:10145F00B40905E4F00215F990034D0215AD9003A0
:10146F0053E0B41405E4F00215F99003530215ADDF
:10147F00900354E0B40905E4F00215F99003540207
:10148F0015AD900355E0B40905E4F00215F990038A
:10149F00550215AD900356E0B40904E4F0800690B0
:1014AF000356E004F090033FE0B401030215BE9031
:1014BF00033F0215F6900349E0B463030215F6905B
:1014CF0003490215AD900348E0B46305E4F002153B
:1014DF00F99003480215AD900352E0B46305E4F0B0
:1014EF000215F99003520215AD900357E0B40705AA
:1014FF00E4F00215F99003570215AD90035AE0B4CA
:10150F0009030215F690035A0215AD90035DE070C2
:10151F000504F00215F9E490035DF00215F990034C
:10152F0060E0B40905E4F00215F9900360806F9054
:10153F000362E0B40705E4F00215F9900362805EE0
:10154F00900359E0B40B05E4F00215F990035980AC
:10155F004D90035CE0B40B05E4F00215F990035CC9
:10156F00803C90035FE0B40B04E4F0807D90035F58
:10157F00802C900361E0B40B04E4F0806D90036164
:10158F00801C90035BE0B40102802490035B8057C2
:10159F0090035EE0B42604E4F0804F90035EE00415
:1015AF00F080471247688042900365E0B4010574EC
:1015BF0002F08036900365802E90032CE0B4010476
:1015CF00E4F0802690032C801E900363E0B40104A6
:1015DF00E4F08016900363800E900364E0B401047E
:1015EF00E4F080069003647401F090032FE075F02F
:1015FF0008A424DFF582E5F0341E021A4E90032F63
:10160F00E01228FB16C50F16D41016E71116FA12A2
:10161F00170A13171C14192D1F193B201A0D2F19F8
:10162F00FC30172E32173D33174C34175B35176AC2
:10163F003617793717883817973917A63A17B53BE2
:10164F0017C43C17D33D17E23E17F13F180040185F
:10165F000F41181E42182D43183C44184B45185A79
:10166F004618684718774818864918954A18A34BA3
:10167F0018B24C18C14D18D04E18E24F18F150192E
:10168F000051190E52191E53194D54195B55196AF1
:10169F0056197D57198E58199F5919AC5A19B95B9C
:1016AF0019C65C19D65D19E45E19F75F1A1D611A28
:1016BF002D6300001A3E9003C3E07003021941909E
:1016CF0003C30219F29003C4E0B40106740CF002D4
:1016DF001A3E9003C40219F29003C5E0B4010674D8
:1016EF001FF0021A3E9003C50219F29003C9E0B42D
:1016FF0001030219949003C90219F29003C6E07016
:10170F00067417F0021A3E9003C60219F29003C72F
:10171F00E07006743BF0021A3E9003C70219F29074
:10172F000333E070030218D69003330219F29003CB
:10173F0034E070030219839003340219F2900335D9
:10174F00E070030219839003350219F2900336E01B
:10175F0070030219839003360219F290033BE07075
:10176F00030218D690033B0219F290033CE070037A
:10177F0002198390033C0219F290033DE0700302BB
:10178F00198390033D0219F290033EE07003021992
:10179F008390033E0219F2900344E070030218D6BF
:1017AF009003440219F2900345E0700302198390ED
:1017BF0003450219F2900346E07003021983900368
:1017CF00460219F2900347E0700302198390034712
:1017DF000219F290034EE070030218D690034E02E6
:1017EF0019F290034FE0700302198390034F02190F
:1017FF00F2900350E070030219839003500219F224
:10180F00900351E070030219839003510219F29073
:10181F000337E070030218D69003370219F29003D2
:10182F0038E070030219839003380219F2900339DC
:10183F00E070030219839003390219F290033AE022
:10184F00700302198390033A0219F2900340E0707B
:10185F000280749003400219F2900341E07003027A
:10186F0019839003410219F2900342E070030219A9
:10187F00839003420219F2900343E070030219832D
:10188F009003430219F290034AE0700280399003EB
:10189F004A0219F290034BE0700302198390034B35
:1018AF000219F290034CE0700302198390034C026B
:1018BF0019F290034DE0700302198390034D021942
:1018CF00F2900353E070067414F0021A3E90035323
:1018DF000219F2900354E07003021983900354022B
:1018EF0019F2900355E07003021983900355021902
:1018FF00F2900356E07002807B9003560219F2902B
:10190F00033FE0B40103021A0390033F021A3B9016
:10191F000349E0B40102801A9003490219F29003BF
:10192F0048E07002800C9003480219F2900352E0D5
:10193F0070067463F0021A3E9003520219F290037C
:10194F0057E07002803F9003570219F290035AE05C
:10195F00B40102801F90035A0219F290035DE070E8
:10196F000504F0021A3EE490035DF0021A3E900364
:10197F0060E070067409F0021A3E90036080649074
:10198F000362E070067407F0021A3E900362805300
:10199F00900359E070028025900359804690035CB4
:1019AF00E07002801890035C803990035FE0700252
:1019BF00800B90035F802C900361E07005740BF037
:1019CF00806D900361801C90035BE0B40102802462
:1019DF0090035B805790035EE070057426F0804F94
:1019EF0090035EE014F080471248418042900365F7
:1019FF00E0B401057402F08036900365802E9003E9
:101A0F002CE0B40104E4F0802690032C801E900398
:101A1F0063E0B40104E4F08016900363800E90033A
:101A2F0064E0B40104E4F080069003647401F09064
:101A3F00032FE075F008A424E0F582E5F0341EF5DD
:101A4F0083E49390032FF0124B2190032FE075F056
:101A5F0008A424E3F582E5F0341EF583E493FB74C8
:101A6F000193FA740293F9900330EBF0A3EAF0A319
:051A7F00E9F00229213D
:0D5FF0007F047E347DDCDDFEDEFADFF6008E
:015FFD002281
:0560D20090032FE0FF28
:0160D70022A6
:0660D80090032FEFF022FF
:0560DE0090033FE0FF0C
:0160E300229A
:0560E400900349E0FFFC
:0160E9002294
:0560EA00900348E0FFF7
:0160EF00228E
:0560F000900352E0FFE7
:0160F5002288
:0560F600900357E0FFDC
:0160FB002282
:0560FC0090035AE0FFD3
:01610100227B
:0561020090035DE0FFC9
:016107002275
:05610800900360E0FFC0
:01610D00226F
:05610E00900362E0FFB8
:016113002269
:05611400900363E0FFB1
:016119002263
:05611A00900364E0FFAA
:01611F00225D
:05612000900359E0FFAF
:016125002257
:0561260090035CE0FFA6
:01612B002251
:05612C0090035FE0FF9D
:01613100224B
:05613200900361E0FF95
:016137002245
:0561380090035BE0FF95
:01613D00223F
:05613E0090035EE0FF8C
:016143002239
:0561440090032EE0FFB6
:016149002233
:06614A0090032EEFF0228D
:05615000900365E0FF73
:016155002227
:0561560090032CE0FFA6
:01615B002221
:104B210090033FE090038EF0900349E090038FF0F3
:104B3100900348E0900390F0900352E0900391F0CD
:104B4100900357E0900392F090035AE0900393F0A2
:104B510090035DE0900394F0900360E0900395F082
:104B6100900362E0900396F0900363E0900397F066
:104B7100900364E0900398F0900359E0900399F05A
:104B810090035BE090039AF090032CE090039BF07C
:104B9100900365E090039CF07B017A03798E90038A
:104BA10009740FF07DC07C177FA0124E56025FF092
:10339C007B017A0279AE9003097410F07DA07C1742
:1033AC007FA0124CE2125FF07B017A007946900309
:1033BC00097410F07DB07C177FA0124CE2125FF004
:1033CC007B017A03798E900309740FF07DC07C1712
:1033DC007FA0124CE2125FF090038EE0FF90033F4F
:1033EC00F090038FE0900349F0900390E090034835
:1033FC00F0900391E0900352F0900392E090035709
:10340C00F0900393E090035AF0900394E090035DE6
:10341C00F0900395E0900360F0900396E0900362C7
:10342C00F0900397E0900363F0900398E0900364AE
:10343C00F0900399E0900359F090039AE090035BAD
:10344C00F090039BE090032CF090039CE0900365BC
:10345C00F0EFD39402400690033F7401F090038F79
:10346C00E0D3946340069003497401F0900390E01C
:10347C00D3946340069003487401F0900391E0D319
:10348C00946340069003527401F0900392E0D3943D
:10349C00074005E4900357F0900393E0D394094060
:1034AC000690035A7402F0900394E0D39401400503
:1034BC00E490035DF0900395E0D3940940069003EB
:1034CC00607406F0900396E0D39407400690036274
:1034DC007403F0900397E0D394014005E4900363E8
:1034EC00F0900398E0D394014005E4900364F090CD
:1034FC000399E0D3940B4006900359740BF090039E
:10350C009AE0D39402400690035B7402F090039B04
:10351C00E0D39401400690032C7401F090039CE0DE
:0C352C00D3940240069003657401F02265
:104E9C0090033F7401F0900349F0E4900348F090C4
:104EAC000352F0900357F090035A7402F0E490030D
:104EBC005DF09003607406F09003627403F0A374C9
:104ECC0001F0E4A3F0900359740BF0E490035CF050
:104EDC0090035FF0900361F090035B7402F0E49038
:104EEC00035EF090032C04F0900365F090032DF01A
:014EFC002293
:10532E007F109002AE7401F0A3DFFC900046740172
:10533E00F0E4A3F0A37403F0A37405F0A37402F0D9
:10534E00A314F0A3F0A37406F0A37401F0A3F0A3CA
:0B535E00F0A3F0A3F0A3F0A3F0A3F075
:015369002221
:105D71000000000000000000000000000000000022
:0E5D8100000000000000000000000000000014
:101B18005500313F065B4F666D7D077F6F777C39D7
:101B28005E797176385C733E4802BE010204081083
:101B38002040804202C640006030000100000000E2
:101B4800000000000000000000000000000000008D
:101B5800000000000000000000000000000000007D
:101B6800000000000000000000000000625800565D
:101B7800000000000000000000000000000000005D
:101B8800000000000000000000000000000000004D
:101B9800000000000000000000000000000000003D
:101BA800000000000000000000000000000000002D
:101DC8000000000000000000410000004102C800BF
:101DD8005002AE01010101010101010101010101EE
:101DE800010101500046010003050201010601013D
:061DF800010101010101DF
:1054D100C282E4FDFCC280EF30E004D2818002C2CE
:1054E1008100000000D280EFC313FF0DBD00010C4D
:0A54F100ED64084C70DFC280C28138
:0154FB00228E
:1054FC00C283E4FDFCC280EF30E004D2818002C2A2
:10550C008100000000D280EFC313FF0DBD00010C21
:0A551C00ED64084C70DFC280C2810C
:015526002262
:10552700C2CCE4FDFCC280EF30E004D2818002C22D
:105537008100000000D280EFC313FF0DBD00010CF6
:0A554700ED64084C70DFC280C281E1
:015551002237
:095E7800AE077F40125E817FC07D
:0D5E8100D282000000000000C2820254D155
:0C5DFF00125E81D2827F40125E0B7FC0DA
:0D5E0B00D283000000000000C2830254FC9E
:0C5E1800125E0BD2837F40125E247FC01C
:0D5E2400D2CC000000000000C2CC025527C7
:054A8F00E4900003F0BB
:104A940012610E125E78E4FB74012BF582E434009B
:104AA400F583E0FF1254D174092BF582E43400F548
:104AB40083E0FF1254D10BEBB408DDEE2488FF121F
:104AC4005DFFE4FB74112BF582E43400F583E0FF11
:104AD4001254FC74192BF582E43400F583E0FF12C0
:104AE40054FC0BEBB408DDEE2488FF125E18E4FBE3
:104AF40074212BF582E43400F583E0FF125527740A
:104B0400292BF582E43400F583E0FF1255270BEBE3
:0C4B1400B408DDEE2488FF125E24D2CC31
:014B20002272
:1051EE00125E78E4FBAF061254D1AF061254D10B07
:1051FE00EBB408F17F8F125DFFE4FBAF061254FC97
:10520E00AF061254FC0BEBB408F17F8F125E18E45C
:10521E00FBAF06125527AF061255270BEBB408F15C
:07522E007F8F125E24D2CC39
:015235002256
:1050AF00E49002C9F0E4FFE4FE9002C9E024BEF5EB
:1050BF0082E43402F583E0FDEF75F008A42401F5D6
:1050CF0082E43400F583E5822EF582E43583F5839F
:1050DF00EDF00EEEB408D20FEFB406CB124A947F68
:1050EF001E125F0B9002C9E004F0E0C3940840B5B4
:0150FF00228E
:105F0B00EFD39400400B7EFF7DFFDDFEDEFA1F809A
:015F1B00EF96
:015F1C002262
:10555200E4FFE4FEEF75F008A42401F582E43400D0
:10556200F583E5822EF582E43583F583E4F00EEED1
:08557200B408E10FEFB406DA02
:01557A00220E
:0A601A007F78900056E4F0A3DFFC4D
:016024002259
:1053A400E4FF12615CEF6401702A12555290000010
:1053B400E05403FF2401F582E43400F5837440F0E3
:1053C400124A94E4FF126162900000E004F0E0B439
:0453D4000402E4F0FB
:0153D80022B2
:10437E00125552124DC1900033E0900010F0900093
:10438E0031E090000FF09003C3E0FF75F00A842433
:10439E0031F582E43400F583E090000EF0EF75F015
:1043AE000A84743125F0F582E43400F583E0900040
:1043BE000DF090000C7440F09003C4E0FF75F00A0D
:1043CE00842431F582E43400F583E090000BF0EFA5
:1043DE0075F00A84743125F0F582E43400F583E03B
:1043EE0090000AF09000097440F09003C5E0FF754C
:1043FE00F00A842431F582E43400F583E09000085D
:10440E00F0EF75F00A84743125F0F582E43400F58E
:10441E0083E0900007F09003C9E02431F582E43484
:10442E0000F583E0900006F09003C6E0FF75F00AF9
:10443E00842431F582E43400F583E0900004F0EF3B
:10444E0075F00A84743125F0F582E43400F583E0CA
:10445E00900003F09003C7E0FF75F00A842431F555
:10446E0082E43400F583E0900002F0EF75F00A84E8
:10447E00743125F0F582E43400F583E0900001F00C
:03448E00024A944B
:105D1500AD07125552900040E0900002F074312D0D
:0F5D2500F582E43400F583E0900001F0024A9427
:105D3400AD0712555290003FE0900002F074312DEF
:0F5D4400F582E43400F583E0900001F0024A9408
:105ECF00125552900031E0900002F09000017437AB
:045EDF00F0024A94EF
:105E8E00125552900031E0900002F0900040E090E8
:065E9E000001F0024A942D
:105E6100AD0712555274312DF582E43400F583E00B
:075E7100900001F0024A94C9
:10547200AD07125552ED75F00A842431F582E434F9
:1054820000F583E0900002F0ED75F00A8474312596
:10549200F0F582E43400F583E0900001F0024A94D2
:104EFD00AB07AA061255527C007D64AF03AE0212B9
:104F0D00289074312FF58274003EF583E0900003F4
:104F1D00F07C007D0AAF03AE021228907C007D0A62
:104F2D0012289074312DF58274003CF583E09000C9
:104F3D0002F0AE02AF037C007D0A12289074312D71
:0F4F4D00F58274003CF583E0900001F0024A9475
:064F5C007B017A037933AA
:104F62001255521228042431F582E43400F583E00C
:104F7200900004F090000112281D2431F582E434DF
:104F820000F583E0900003F090000212281D243106
:104F9200F582E43400F583E0900002F09000031201
:104FA200281D2431F582E43400F583E0900001F0FD
:034FB200024A941C
:1036CC00125552900098E0601790030D7401F0A30E
:1036DC007400F0A37498F07B017A007930122927DA
:1036EC00900092E0601790030D7401F0A37400F049
:1036FC00A37492F07B017A00792C12292790008C0C
:10370C00E0601790030D7401F0A37400F0A3748CA7
:10371C00F07B017A007928122927900086E0601747
:10372C0090030D7401F0A37400F0A37486F07B0178
:10373C007A007924122927900080E0601790030DFD
:10374C007401F0A37400F0A37480F07B017A00790B
:10375C002012292790007AE0601790030D7401F075
:10376C00A37400F0A3747AF07B017A00791C1229FF
:10377C0027900074E0601790030D7401F0A374009F
:10378C00F0A37474F07B017A007918122927900049
:10379C006EE0601790030D7401F0A37400F0A37435
:1037AC006EF07B017A007914122927900068E06092
:1037BC001790030D7401F0A37400F0A37468F07BF0
:1037CC00017A007910122927900062E060179003AB
:1037DC000D7401F0A37400F0A37462F07B017A0005
:1037EC00790C12292790005CE0601790030D74018E
:1037FC00F0A37400F0A3745CF07B017A00790812DA
:10380C002927900056E0601790030D7401F0A37403
:10381C0000F0A37456F07B017A0079041229272258
:1029270090030AEBF0A3EAF0A3E9F0A3E0FBA3E02E
:10293700FAA3E0F990000112281D2431F582E4344E
:1029470000F583E0FF90030AE0FBA3E0FAA3E0F9B8
:10295700EF12284A90030DE0FBA3E0FAA3E0F990F9
:10296700000212281D2431F582E43400F583E0FFCC
:1029770090030AE0FBA3E0FAA3E0F990FFFFEF1250
:10298700285C90030DE0FBA3E0FAA3E0F9900003B5
:1029970012281D2431F582E43400F583E0FF90030B
:1029A7000AE0FBA3E0FAA3E0F990FFFEEF12285C30
:1029B70090030DE0FBA3E0FAA3E0F99000041228CE
:1029C7001D2431F582E43400F583E0FF90030AE02B
:1029D700FBA3E0FAA3E0F990FFFDEF12285C900358
:1029E7000DE0FBA3E0FAA3E0F990000512281D54BF
:1029F7000F24FD6036147003022A8A24FD70030237
:102A07002ACF147003022AE224066003022AFB90ED
:102A1700030AE0FBA3E0FAA3E024FDF9EA34FFFA96
:102A2700122804448012284A022ACF90030AE0FBA6
:102A3700A3E0FAA3E024FDF9EA34FFFA12280444DC
:102A47008012284A90030AE0FBA3E0FAA3E024FEE1
:102A5700F9EA34FFFA122804448012284A90030A3C
:102A6700E0FBA3E0FAA3E024FFF9EA34FFFA122817
:102A770004448012284A90030AE0FBA3E0FAA3E08B
:102A8700F9806990030AE0FBA3E0FAA3E024FDF9CB
:102A9700EA34FFFA122804448012284A90030AE015
:102AA700FBA3E0FAA3E024FEF9EA34FFFA122804B4
:102AB700448012284A90030AE0FBA3E0FAA3E0242B
:102AC700FFF9EA34FFFA802490030AE0FBA3E0FA57
:102AD700A3E024FEF9EA34FFFA801190030AE0FB31
:102AE700A3E0FAA3E024FDF9EA34FFFA122804442C
:052AF7008012284A22B4
:10468D009002FEEBF0A3EAF0A3E9F0A3E0FBA3E0B8
:10469D00FAA3E0F9122804FF9002FEE0FBA3E0FA72
:1046AD00A3E0F9EF12284A900301E0FBA3E0FAA37F
:1046BD00E0F990000112281DFF9002FEE0FBA3E03F
:1046CD00FAA3E0F9900001EF12285C900301E0FBE2
:1046DD00A3E0FAA3E0F990000212281DFF9002FE5C
:1046ED00E0FBA3E0FAA3E0F9900002EF12285C9042
:1046FD000301E0FBA3E0FAA3E0F990000312281DEB
:10470D00FF9002FEE0FBA3E0FAA3E0F9900003EFB7
:10471D0012285C900301E0FBA3E0FAA3E0F99000FE
:10472D000412281DFF9002FEE0FBA3E0FAA3E0F9BE
:10473D00900004EF12285C900301E0FBA3E0FAA3C4
:10474D00E0F990000712281DFF9002FEE0FBA3E0A8
:0B475D00FAA3E0F9900005EF02285CD1
:0F4FB500EF75F006A4244AF9740035F0FA7B0179
:104FC40012280490000612285C90000112281D90FB
:104FD400000712285C90000212281D900008122875
:104FE4005C90000312281D90000912285C900004B4
:104FF40012281D90000A12285C90000512281D90AA
:05500400000B02285C16
:0F500900EE75F006A42456F9740035F0FA7B0119
:1050180090000612281D12284A90000712281D9099
:10502800000112285C90000812281D900002122826
:105038005C90000912281D90000312285C90000A59
:1050480012281D90000412285C90000B12281D9055
:05505800000502285CC8
:10382C0078027C037D017BFF7A5D79717E007F06D7
:10383C001227DEE4900308F0A3F012610290030853
:10384C00EFF01260F6900309EFF01260F0900300B5
:10385C00EFF01260EA900301EFF012617A9003012D
:10386C00E0FE900300E0FDC39E500AEF9D4006EE83
:10387C006003E0701B900301E06003023988900341
:10388C0000E0FE7003023988EFD39E5003023988A2
:10389C00E49002FEF09002FEE0FFC3940A50227501
:1038AC00F006EFA42456F582E5F03400F583E070C1
:1038BC00089002FEE0A3F080089002FEE004F08085
:1038CC00D4E49002FEF09002FEE0FFA3E075F00657
:1038DC00A42FF582E435F0F583E5822450F582E5DA
:1038EC00833400F583E0FE74022FF582E43403F593
:1038FC0083EEF09002FEE004F0E0B406C99002FF03
:10390C00E09002FEF09002FEE0FFD39401400B1217
:10391C004FB59002FEE014F080EBE49002FEF090C4
:10392C0002FEE0FF2402F582E43403F583E0FE742A
:10393C00562FF582E43400F583EEF09002FEE0049D
:10394C00F0E0B406DA1236CC124A94E4FF1261802D
:10395C00900308E0B401257B017A0079569000565B
:10396C00E0FD90030EE4F0A3EDF090005BE0540F4B
:0C397C00900310F0900309E0FF1224AC4F
:01398800221C
:10425D00E4900304F0A3F01260F09002FFEFF0126F
:10426D0060EA900300EFF012617A900301EFF01213
:10427D0060E4900302EFF01260DE900303EFF012A2
:10428D0060FC900305EFF09002FFE0FFA3E0FEC39A
:10429D009F500EA3E09E4009EF6006900300E07072
:1042AD001A9002FFE0600302437DA3E0FF7003025A
:1042BD00437DA3E0D39F500302437DE49002FEF0C3
:1042CD00900302E014FF9002FEE0FEC39F500B121C
:1042DD0050099002FEE004F080E6900302E01475B0
:1042ED00F006A49002FEF0900302E075F006A4FF24
:1042FD009002FEE0FDC39FE5F06480F87480985055
:10430D001474562DF582E43400F583E4F09002FE2A
:10431D00E004F080D21236CC124A94E4FF12618090
:10432D00900056E07004FF0260D8900303E0640231
:10433D00703E9002FEF0900305E0FF9002FEE0C398
:10434D009F502D7B017A007956900056E0FD900329
:10435D000EE4F0A3EDF090005BE0540F900310F02D
:10436D00900304E0FF1224AC9002FEE004F080C63E
:01437D00221D
:104D4900E49002CBF01260E49002CBEFF0E4900221
:104D5900CAF09002CBE014FF9002CAE0FEC39F5054
:104D69000B1250099002CAE004F080E69002CBE0F1
:104D79001475F006A49002CAF09002CBE075F00613
:104D8900A4FF9002CAE0FDC39FE5F06480F8748037
:104D990098501474562DF582E43400F583E4F090AC
:104DA90002CAE004F080D21236CC124A949000561E
:074DB900E07004FF1260D856
:014DC00022D0
:1047680078CC7C027D017BFF7A5D79777E007F06BD
:104778001227DE1260E49002CBEFF01260E4E490BE
:1047880002CAF09002CAE0FEC39F502175F006EEFF
:10479800A42456F582E5F03400F583E07007900212
:1047A800CBEEF080089002CAE004F080D6E49002D4
:1047B800CAF09002CAE0FF2456F582E43400F5837B
:1047C800E0FE74CC2FF582E43402F583EEF090021B
:1047D800CAE004F0E0B406DAE49002CAF09002CB32
:1047E800E0FF9002CAE0FEC39F500B1250099002EE
:1047F800CAE004F080E7E49002CAF09002CAE0FF41
:1048080024CCF582E43402F583E0FE9002CBE07517
:10481800F006A42FF582E435F0F583E5822450F5FF
:1048280082E5833400F583EEF09002CAE004F0E0FC
:09483800B406C81236CC024A9401
:1048410078CC7C027D017BFF7A5D797D7E007F06DD
:104851001227DE1260E49002CBEFF01260E4E490E4
:1048610002CAF09002CAE0FEC39F502175F006EE25
:10487100A42456F582E5F03400F583E07007900238
:10488100CBEEF080089002CAE004F080D6E49002FA
:10489100CAF09002CAE0FFA3E075F006A42FF582EA
:1048A100E435F0F583E5822450F582E5833400F5A3
:1048B10083E0FE74CC2FF582E43402F583EEF090B0
:1048C10002CAE004F0E0B406C99002CBE09002CA4B
:1048D100F09002CAE0FFD39401400B124FB5900251
:1048E100CAE014F080EBE49002CAF09002CAE0FF43
:1048F10024CCF582E43402F583E0FE74562FF58270
:10490100E43400F583EEF09002CAE004F0E0B4066E
:07491100DA1236CC024A94D1
:0B3041009002FEEBF0A3EAF0A3E9F020
:10304C0078077C037D017BFF7A5D79837E007F06A8
:10305C001227DE1260E4900305EFF01260E4900397
:10306C0006EFF0E4900304F0900306E0FF900304F5
:10307C00E0FEC39F4003023154EE75F006A4FFAE90
:10308C00F0900301E0FBA3E0FAA3E02FF9EA3EFA8B
:10309C0090000112281DFD9002FEE0FBA3E0FAA3B4
:1030AC00E0F990000112281D6D600302314B900372
:1030BC0001E0FBA3E0FAA3E02FF9EA3EFA9000024C
:1030CC0012281DFF9002FEE0FBA3E0FAA3E0F990AA
:1030DC00000212281D6F7067900304E075F006A4BF
:1030EC00FFAEF0900301E0FBA3E0FAA3E02FF9EAB6
:1030FC003EFA90000312281DFD9002FEE0FBA3E0B7
:10310C00FAA3E0F990000312281DB50532900301D3
:10311C00E0FBA3E0FAA3E02FF9EA3EFA90000412D8
:10312C00281DFF9002FEE0FBA3E0FAA3E0F990005B
:10313C000412281DB50708900304E0A3F080099041
:10314C000304E004F0023074900305E07003125E97
:10315C00E3900305E0900304F0900306E0FF900376
:10316C0004E0FEC39F5021EE75F006A4FF9003010E
:10317C00E0FBA3E0FAA3E02FF9EA35F0FA125018BD
:10318C00900304E004F080D1900306E0FF90030567
:10319C00E06F603DE4900304F0900306E024FFFF31
:1031AC00E434FFFE7C007D0612287E900301E0FBD8
:1031BC00A3E0FAA3E02FF9EA3EFAA3E07E0029F996
:1031CC00EE3AFAE412284A900304E004F0E0B40664
:1031DC00C8900301E0FBA3E0FAA3E0F91228047005
:0531EC0004FF1260D891
:0131F10022BB
:0B3538009002FEEBF0A3EAF0A3E9F024
:1035430078077C037D017BFF7A5D79897E007F06A6
:103553001227DE1260E4900305EFF01260E490039B
:1035630006EFF0E4900304F0900306E0FF900304F9
:10357300E0FEC39F400302364BEE75F006A4FFAE98
:10358300F0900301E0FBA3E0FAA3E02FF9EA3EFA8F
:1035930090000112281DFD9002FEE0FBA3E0FAA3B8
:1035A300E0F990000112281D6D600302364290037A
:1035B30001E0FBA3E0FAA3E02FF9EA3EFA90000250
:1035C30012281DFF9002FEE0FBA3E0FAA3E0F990AE
:1035D300000212281D6F7067900304E075F006A4C3
:1035E300FFAEF0900301E0FBA3E0FAA3E02FF9EABA
:1035F3003EFA90000312281DFD9002FEE0FBA3E0BB
:10360300FAA3E0F990000312281DB50532900301D7
:10361300E0FBA3E0FAA3E02FF9EA3EFA90000412DC
:10362300281DFF9002FEE0FBA3E0FAA3E0F990005F
:103633000412281DB50708900304E0A3F080099045
:103643000304E004F002356B900305E0900304F0FB
:10365300900306E0FF900304E0FEC39F5021EE7544
:10366300F006A4FF900301E0FBA3E0FAA3E02FF927
:10367300EA35F0FA125018900304E004F080D19078
:103683000306E0FF900305E06F603DE4900304F060
:10369300900306E024FFFFE434FFFE7C007D061266
:1036A300287E900301E0FBA3E0FAA3E02FF9EA3EB2
:1036B300FAA3E07E0029F9EE3AFAE412284A9003CD
:0836C30004E004F0E0B406C8C5
:0136CB0022DC
:10002600E4FF126150EFB40107D2CD1253A480034E
:0C00360012437E126156BF010312601AD3
:01004200229B
:05000600E4FF025D159E
:10596200D2CD7F01125D15126144BF01181261147C
:10597200BF0112125EE3125FF07F6F7E0012544588
:06598200E4FF12614A225D
:1059AD007F02125D15126144BF0118126114BF010F
:1059BD0012125EE3125FF07F707E00125445E4FF19
:0459CD0012614A22F7
:1059D1007F03125D15126144BF0118126114BF01EA
:1059E10012125EE3125FF07F717E00125445E4FFF4
:0459F10012614A22D3
:1059F5007F04125D15126144BF0118126114BF01C5
:105A050012125EE3125FF07F727E00125445E4FFCE
:045A150012614A22AE
:105A19007F05125D15126144BF0118126114BF019F
:105A290012125EE3125FF07F737E00125445E4FFA9
:045A390012614A228A
:105A3D007F06125D15126144BF0118126114BF017A
:105A4D0012125EE3125FF07F747E00125445E4FF84
:045A5D0012614A2266
:105A61007F07125D15126144BF0118126114BF0155
:105A710012125EE3125FF07F757E00125445E4FF5F
:045A810012614A2242
:105A85007F08125D15126144BF0118126114BF0130
:105A950012125EE3125FF07F767E00125445E4FF3A
:045AA50012614A221E
:105AA9007F09125D15126144BF0118126114BF010B
:105AB90012125EE3125FF07F777E00125445E4FF15
:045AC90012614A22FA
:05001E007F0A025D15E0
:0561DA007F0B025D15C2
:0561DF007F0C025D15BC
:0D000E007F0D125D15E4FF126198D2CD2226
:1052B400126150EFB401057F010260D812615CBF36
:1052C400010812437E7F0212616212615CBF0319FE
:1052D400E4900010F090000FF090000EF090000D9C
:0C52E400F0124A94E4FF126162124BB118
:0152F000229B
:10557B0012615CBF010812437E7F021261621261ED
:10558B005CBF0311E490000BF090000AF0124A94F8
:08559B00E4FF126162024BB152
:1055A30012615CBF010812437E7F021261621261C5
:1055B3005CBF0311E4900008F0900007F0124A94D6
:0855C300E4FF126162024BB12A
:105ACD0012615CBF010812437E7F02126162126196
:105ADD005CBF030DE4900006F0124A94E4FF1261DE
:045AED0062024BB155
:105AF10012615CBF010812437E7F02126162126172
:105B01005CBF030DE4900004F0124A90E4FF1261BF
:045B110062024BB130
:1055CB0012615CBF010812437E7F0212616212619D
:1055DB005CBF0311E4900002F0900001F0124A94BA
:0855EB00E4FF126162024BB102
:105F1D007F01125D34E4900333F0A3F0A3F0A304EA
:025F2D00F02260
:105F2F007F02125D34E490033BF0A3F0A3F0A304CF
:025F3F00F0224E
:105F41007F03125D34E4900344F0A3F0A3F0A304B3
:025F5100F0223C
:105F53007F04125D34E490034EF0A3F0A3F0A30496
:025F6300F0222A
:105F65007F01125D34E4900337F0A3F0A3F0A3049E
:025F7500F02218
:105F77007F02125D34E4900340F0A3F0A3F0A30482
:025F8700F02206
:105F89007F03125D34E490034AF0A3F0A3F0A30465
:025F9900F022F4
:105F9B007F04125D34E4900353F0A3F0A3F0A30449
:025FAB00F022E2
:0561E4007F01025D34A3
:0561E9007F02025D349D
:08604B00E4FF1260EA02547246
:08605300E4FF1260F002547238
:0561EE007F01025D3499
:0561F3007F02025D3493
:0561F8007F03025D348D
:0561FD007F04025D3487
:056202007F05025D3480
:056207007F01025D347F
:05620C007F02025D3479
:056211007F03025D3473
:056216007F04025D346D
:0E5FFE007F01125D341261389002C8EFF0226C
:05621B007F02025D346A
:056220007F01025D3466
:056225007F02025D3460
:105DE500E4FFFEFDFC126042AC06AD077E277F1086
:0A5DF500122890AC06AD07024EFD27
:08605B00E4FF126156025E61D0
:08606300E4FF126150025E61CE
:105151001261929002CAEFF0D394145031E0FAC375
:10516100940450028019EAD3941250139002CAE0B9
:10517100C31324BCF582E43402F583E0FF80027F8F
:10518100FF1251EE30A4077F3C7E0012544590027D
:0F519100CAE0D394144006125552124A94C2CD6C
:0151A00022EC
:105C2D0012615CBF0108124F5C7F0212616212614A
:105C3D005CBF030DE4900004F0124A94E4FF12617E
:025C4D006222D1
:105D8F0012615CBF0108124F5C7F021261621261E7
:0D5D9F005CBF0308124A8FE4FF126162220C
:105C4F0012615CBF0108124F5C7F02126162126128
:105C5F005CBF030DE4900002F0124A94E4FF12615E
:025C6F006222AF
:105C710012615CBF0108124F5C7F02126162126106
:105C81005CBF030DE4900001F0124A94E4FF12613D
:025C910062228D
:1055F30012615CBF010E7B017A03793B124F627F1C
:105603000212616212615CBF030DE4900004F012A8
:085613004A94E4FF12616222D7
:105B380012615CBF010E7B017A03793B124F627FD1
:105B48000212616212615CBF0308124A8FE4FF12FD
:035B580061622265
:10561B0012615CBF010E7B017A03793B124F627FF3
:10562B000212616212615CBF030DE4900002F01282
:08563B004A94E4FF12616222AF
:1056430012615CBF010E7B017A03793B124F627FCB
:105653000212616212615CBF030DE4900001F0125B
:085663004A94E4FF1261622287
:10566B0012615CBF010E7B017A037944124F627F9A
:10567B000212616212615CBF030DE4900004F01230
:08568B004A94E4FF126162225F
:105B5B0012615CBF010E7B017A037944124F627FA5
:105B6B000212616212615CBF0308124A8FE4FF12DA
:035B7B0061622242
:1056930012615CBF010E7B017A037944124F627F72
:1056A3000212616212615CBF030DE4900002F0120A
:0856B3004A94E4FF1261622237
:1056BB0012615CBF010E7B017A037944124F627F4A
:1056CB000212616212615CBF030DE4900001F012E3
:0856DB004A94E4FF126162220F
:1056E30012615CBF010E7B017A03794E124F627F18
:1056F3000212616212615CBF030DE4900004F012B8
:085703004A94E4FF12616222E6
:105B7E0012615CBF010E7B017A03794E124F627F78
:105B8E000212616212615CBF0308124A8FE4FF12B7
:035B9E006162221F
:10570B0012615CBF010E7B017A03794E124F627FEF
:10571B000212616212615CBF030DE4900002F01291
:08572B004A94E4FF12616222BE
:1057330012615CBF010E7B017A03794E124F627FC7
:105743000212616212615CBF030DE4900001F0126A
:085753004A94E4FF1261622296
:10575B0012615CBF010E7B017A037937124F627FB6
:10576B000212616212615CBF030DE4900004F0123F
:08577B004A94E4FF126162226E
:105BA10012615CBF010E7B017A037937124F627F6C
:105BB1000212616212615CBF0308124A8FE4FF1294
:035BC100616222FC
:1057830012615CBF010E7B017A037937124F627F8E
:105793000212616212615CBF030DE4900002F01219
:0857A3004A94E4FF1261622246
:1057AB0012615CBF010E7B017A037937124F627F66
:1057BB000212616212615CBF030DE4900001F012F2
:0857CB004A94E4FF126162221E
:1057D30012615CBF010E7B017A037940124F627F35
:1057E3000212616212615CBF030DE4900004F012C7
:0857F3004A94E4FF12616222F6
:105BC40012615CBF010E7B017A037940124F627F40
:105BD4000212616212615CBF0308124A8FE4FF1271
:035BE400616222D9
:1057FB0012615CBF010E7B017A037940124F627F0D
:10580B000212616212615CBF030DE4900002F012A0
:08581B004A94E4FF12616222CD
:1058230012615CBF010E7B017A037940124F627FE4
:105833000212616212615CBF030DE4900001F01279
:085843004A94E4FF12616222A5
:10584B0012615CBF010E7B017A03794A124F627FB2
:10585B000212616212615CBF030DE4900004F0124E
:08586B004A94E4FF126162227D
:105BE70012615CBF010E7B017A03794A124F627F13
:105BF7000212616212615CBF0308124A8FE4FF124E
:035C0700616222B5
:1058730012615CBF010E7B017A03794A124F627F8A
:105883000212616212615CBF030DE4900002F01228
:085893004A94E4FF1261622255
:10589B0012615CBF010E7B017A03794A124F627F62
:1058AB000212616212615CBF030DE4900001F01201
:0858BB004A94E4FF126162222D
:1058C30012615CBF010E7B017A037953124F627F31
:1058D3000212616212615CBF030DE4900004F012D6
:0858E3004A94E4FF1261622205
:105C0A0012615CBF010E7B017A037953124F627FE6
:105C1A000212616212615CBF0308124A8FE4FF122A
:035C2A0061622292
:1058EB0012615CBF010E7B017A037953124F627F09
:1058FB000212616212615CBF030DE4900002F012B0
:08590B004A94E4FF12616222DC
:1059130012615CBF010E7B017A037953124F627FE0
:105923000212616212615CBF030DE4900001F01288
:085933004A94E4FF12616222B4
:08606B00E4FF1260DE025E6139
:08607300E4FF1260E402547224
:08607B00E4FF1260F6025E6111
:08608300E4FF1260FC025E6103
:08608B00E4FF126102025E61F4
:105DAC00E49002CAF01261089002CAEFF075F00399
:0D5DBC00A4FF125CB49002CAE0FF025E6119
:08609300E4FF12610E025E61E0
:10593B00E49002CAF01261209002CAEFF0C3940AFD
:10594B005005E0FF025E619002CAE0C3940B500366
:06595B00025ECF125E8E19
:015961002223
:08609B00E4FF126126025E61C0
:0860A300E4FF12612C025E61B2
:0860AB00E4FF126132025E61A4
:10536A00E49002CAF01261389002CAEFF0125E614C
:10537A009002C8E0FF9002CAE06F601D12505D9073
:10538A0002CAE09002C8F0126144BF010C7F797E24
:09539A0000125445E4FF12614ABF
:0153A30022E7
:1051A100E49002CAF012613E9002CAEFF01254720A
:1051B100126144BF011E125FF0125EE3125FF090B4
:1051C10002CAE02442FFE433FE125445125FF0E4C8
:1051D100FF12614A1261CEBF0112125EE3125FF04B
:0C51E1007F797E00125445E4FF1261D477
:0151ED00229F
:105C9300E49002CAF01260F69002CAEFF090005648
:105CA300E0B4340A30A4077F687E00125445D2CD95
:015CB30022CE
:05622A007F06025D3457
:0860B300E4FF126114025E61BA
:05622F007F07025D3451
:0860BB00E4FF12611A025E61AC
:101DFE004103D4004103DB004103D9004103DA0063
:101E0E004103D5004103D2004103DC004103D6005B
:0C1E1E004103D3004103D8004103D7006A
:105FE000438901758C3C758AB0D2AFD2A9D28C227C
:0E600C00438910758DFF758B9CD2AFD2AB22ED
:03000B000244911B
:10449100C0E0C0F0C083C082C0D075D000C000C0F1
:0D44A10001C002C003C004C005C006C00772
:1044AE0090032AE4F0A3F0C28D758C3C758AB0128D
:1044BE0060D290032AEFF012615090032BEFF09030
:1044CE0003D4E004F0E0B40A199003DBE004F090AA
:1044DE0003D8E004F09003D4E4F09003D7E0600238
:1044EE0014F09003DBE0C394044002E4F09003D890
:1044FE00E0C394184002E4F09003D9E0B40104A3A1
:10450E00E004F01261B6BF01149003D5E004F0E0B0
:10451E00D3947840081261BC9003D5E4F090032A3E
:10452E00E0FFB45F159003D2E004F0E0B4140B90FA
:10453E0003DCE004F09003D2E4F0EF645F601A90C5
:10454E00032AE0643160129003D6E004F0E0D394C5
:10455E00C84006E4F0FF1260D890032AE07015A35D
:10456E00E0B402109003D3E004F0E0C3940A4004D8
:04457E00B2CDE4F0E6
:10458200D007D006D005D004D003D002D001D0008D
:0B459200D0D0D082D083D0F0D0E03237
:03001B000251008F
:10510000C0E0C0F0C083C082C0D075D000C000C075
:0D51100001C002C003C004C005C006C007F6
:10511D00E4FF1260D2C28F758DFF758B9CEFB42E9C
:09512D00051221FE8003123FEF80
:10513600D007D006D005D004D003D002D001D000CD
:0B514600D0D0D082D083D0F0D0E03277
:05615C009003DBE0FFF1
:01616100221B
:066162009003DBEFF022C8
:066168009003D9EFF022C4
:05616E009003DAE0FFE0
:016173002209
:06617400E49003DAF022C2
:05617A009003DCE0FFD2
:01617F0022FD
:066180009003DCEFF022A9
:06618600E49003D6F022B4
:06618C009003DAEFF0229F
:056192009003D8E0FFBE
:0161970022E5
:066198009003D8EFF02295
:05619E009003D7E0FFB3
:0161A30022D9
:0661A4009003D7EFF0228A
:0B1E2A004803C2140F09040C2200063C
:04523600E0FD7F8A8E
:10523A00D2A0EF54FEFFE4FEEF30E004D2A18002D8
:10524A00C2A1D2A2C2A2EFC313FF0EEEB408E9E4D0
:10525A00FEED30E004D2A18002C2A1D2A2C2A2ED28
:0A526A00C313FD0EEEB408E9C2A064
:015274002217
:10527500D2A0EF4401FFE4FDEF30E004D2A18002AB
:10528500C2A1D2A2C2A2EFC313FF0DEDB408E9E497
:10529500FDEEC313FE30A1054480FE8004EE547F6D
:0E52A500FED2A2C2A20DEDB408E7C2A0AF0671
:0152B30022D8
:104BB100E4FF74C22FF582E43403F583E0FE75F05F
:104BC1000A84FDEE75F00A8474CA2FF582E4340379
:104BD100F583E5F0F0EDC454F0FE74CA2FF582E4DC
:104BE1003403F583E02EF00FEFB408C6E4FD7F8EA9
:104BF10012523A7D807F8012523A9003CBE0FD7FC2
:104C01008C12523AA3E0FD7F8812523AA3E0FD7F55
:104C11008612523A9003D11252369003CEE0FD7FB4
:104C21008412523AA3E0FD7F8212523AA3E0FD7F43
:0F4C31008012523AA31252367D807F8E02523A81
:104DC1007F8C1252759003CBEFF07F88125275A33E
:104DD100EFF07F86125275A3EFF07F84125275A314
:104DE100EFF07F82125275A3EFF07F80125275EFC0
:104DF100547FA3F07F8A125275A3EFF0E4FF74CAC7
:104E01002FF582E43403F583E0FEC4540FFDEE5424
:104E11000FFE74C22FF582E43403F583EEF0ED75D5
:104E2100F00AA4FE74C22FF582E43403F583E02E68
:064E3100F00FEFB408C809
:014E37002258
:0B602500C2A0C2A2E4FD7F8002523A3C
:101E35004103AF004103AE004103B4004103B700C5
:101E45004103BE004103A3004103A2004303BB00BD
:101E550000004203B500464203B9007842039F00E3
:101E65000042039D00004203AC00004203B000465F
:101E75004203B200784203C000004103A1004103C0
:101E8500BF004103B8004103A4004103A800430378
:0A1E9500A50000004303A9000000AF
:0760CB00D2AFD2A8D2882257
:030003000260C3D5
:0860C300C2A8208E02D28E3229
:105DC900E49003AFF09003AEF09003B7F09003B402
:0C5DD900F09003BEF09003A2F0A3F022B3
:103FEF0030B2059003B780039003B4E004F0900360
:103FFF00A3E004F0E0D394A07480948F4007C28EA6
:10400F00D2A8025DC99003A2E01460351460691450
:10401F0070030240AE2403600302411E9003B7E019
:10402F00D39400400302411E9003B4E0D394465052
:10403F00030241259003A2E004F0E49003B7F0805F
:10404F00329003B7E0FFFD9003B4E02DFDE433FCA5
:10405F00D3ED948CEC64809480400302411EEFD327
:10406F009401500302412530A802C2A89003A2E098
:10407F0004F0E49003B4F0229003B4E0D394014031
:10408F00139003B7E09003AFF0E49003B7F0900301
:10409F00A2E004F09003B7E0D394194079807090B8
:1040AF0003B7E0D39401405C9003B4E0FF9003AEFC
:1040BF00F0E49003B4F09003A27402F09003BEE01A
:1040CF00131313541FFE24BBF582E43403F583E06E
:1040DF00FD25E0F09003AFE0D39F400E74BB2EF5AB
:1040EF0082E43403F583E04401F09003BEE004F072
:1040FF00E0D39417400EC28E125DC99003A17401D4
:10410F00F0D2A8229003B4E0D39419400980001292
:07411F005DC9D2A8C28E2287
:10459D00E4900328F01260D2900328EFF09003A16D
:1045AD00E06401600302468CF0C2A89003B8E014E9
:1045BD00602704600302468A9003BBE09003A5F0D8
:1045CD009003BCE09003A6F09003BDE09003A7F02C
:1045DD009003B87401F002468A9003BBE0FF90038C
:1045ED00A5E06F60030246729003BCE0FE9003A647
:1045FD00E06E70719003BDE0FD9003A7E06D7065F6
:10460D009003A9E06F7012A3E06E700DA3E0B505E5
:10461D00089003A4E0702080009003BBE09003A9F4
:10462D00F09003BCE09003AAF09003BDE09003ABC3
:10463D00F09003BF7401F09003A47401F012618631
:10464D00E49003BBF0A3F0A3F09003A5F0A3F0A3B7
:10465D00F0900328E0645E60057F0112614AE490EA
:10466D0003B8F080189003BBE09003A5F09003BC55
:0F467D00E09003A6F09003BDE09003A7F0D2A851
:01468C00220B
:1021FE0030B2059003B780039003B4E004F090036F
:10220E00A3E004F0E0D394A07480948F4006C28EB5
:10221E00D2A880279003A2E014605A147003022300
:10222E001214700302235D240360030224A490039E
:10223E00B7E0D394004007D2A8C28E025DC99003C6
:10224E009FE0FEA3E0FF7C007D0F12287EEF243C72
:10225E00FFE43EFE9003B4E0D39FEC9E50030224B5
:10226E00AB9003A2E004F09003B5EEF0A3EFF0E420
:10227E00A3F002230D90039DE0FEA3E0FF7C007D02
:10228E000F12287EEF2478FFE43EFE9003B7E0F9AC
:10229E00FD9003B4E02DFDE433FCD3ED9FEC9E40A6
:1022AE0022E9701C90039EE004F0700690039DE0FE
:1022BE0004F09003A0E004F0700690039FE004F099
:1022CE000224A4E9D3940150030224AB90039DE0B1
:1022DE00FEA3E0FF7C007D0F12287EEF2478FFE442
:1022EE003E9003B9F0A3EFF0E490039DF0A3F0A3AA
:1022FE00F0A3F030A802C2A89003A2E004F0E4908C
:10230E0003B4F0229003B4E0D3940040139003B7CB
:10231E00E09003AFF0E49003B7F09003A2E004F076
:10232E009003B5E0FEA3E0FF9003BAE02FFF900309
:10233E00B9E03EFEEF7803CEC313CE13D8F9FF906B
:10234E0003B7E0D39FE49E50030224AB0224A49073
:10235E0003B7E0D3940050030224799003B4E0FF56
:10236E009003AEF0E49003B4F09003A27402F090E8
:10237E0003BEE0131313541FFE24BBF582E4340393
:10238E00F583E025E0F09003AFE0FDD39F400E749F
:10239E00BB2EF582E43403F583E04401F09003BED6
:1023AE00E004F0E0D394175003022479C28E900318
:1023BE00AEE02DFEE4339003ACF0A3CEF0125DC977
:1023CE009003C1E004F070069003C0E004F09003A7
:1023DE00B9E0FEA3E0FF9003B3E02FF09003B2E06C
:1023EE003EF0E0C313FEA3E013FF9003B9EEF0A39B
:1023FE00EFF09003B2EEF0A3EFF0D39003C1E094B0
:10240E00019003C0E09400405F9003B0E0FEA3E0B3
:10241E00FF9003B5E0FCA3E0FD9FFFEC9EFED3EF23
:10242E00941EEE940040159003B1E09DFF9003B012
:10243E00E09CFED3EF941EEE9400502C9003B5E07A
:10244E00FEA3E0FF9003B1E02FF09003B0E03EF06A
:10245E00E0C313FEA3E013FF9003B5EEF0A3EFF07D
:10246E009003B0EEF0A3EFF0D2A8229003B5E0FEF9
:10247E00A3E0FF9003BAE02FFF9003B9E03EFEEF1A
:10248E007803CEC313CE13D8F9FF9003B4E0D39FD5
:0E249E00E49E40098000125DC9D2A8C28E22C1
:0561AA009003BFE0FFBF
:0161AF0022CD
:0661B000E49003BFF022A1
:0561B6009003A4E0FFCE
:0161BB0022C1
:0661BC00E49003A4F022B0
:0561C2009003A8E0FFBE
:0161C70022B5
:0661C800E49003A8F022A0
:086042009003ACE0FEA3E0FFB7
:01604A002233
:105CD50000000000000000000000000000000000BF
:105CE50000000000000000000000000000000000AF
:0F1E9F004803DD00000000000000004103E500E3
:10004600E49002CDF078D67C027D017BFF7A5C7964
:10005600D5FE7F201227DEE49002F6F0A3F0A3F08F
:10006600A3F0A3F0A3F0A3F0A3F01260D29002F6DF
:10007600EFF01261389002F7EFF012613E9002F84D
:10008600EFF01260DE9002F9EFF01260E49002FAEF
:10009600EFF01260E49002CDEFF01261209002FBC7
:1000A600EFF01260F69002FCEFF01260FC9002FD99
:1000B600EFF012459D1261AAEF64016003020E691A
:1000C6009002F6E024CE24FC4003020B6224FC409E
:1000D60003020C1124FC4003020CB224FC40030270
:1000E6000D5324E47003020E051470030204422427
:1000F6005F6003020E66E4FF1261809003ABE0FFCF
:1001060054F0600302024B9003A9E0C4540FFE9022
:1001160002FBE0FDB50605C3940A4011ED640A60D2
:100126000302024BEEC3940A400302024B9002F70D
:10013600E0B4010CEF540F24AEF582E43402800DD6
:100146009003ABE0540F2446F582E43400F583E0D7
:100156009002CEF09003A9E0FFC4540F9002CFF0B6
:10016600EF540FA3F09003AAE0FFC4540F9002D1FE
:10017600F0EF540FA3F09003A9E09002D3F09003A0
:10018600AAE09002D4F09003ABE09002D5F0900282
:10019600CEE0FF64336042EF603FE49002CBF09024
:1001A60002FDE0FF9002CBE0C39F505C7B017A0228
:1001B60079CE9002CEE0FD90030EE4F0A3EDF09030
:1001C60003ABE0540F900310F09002FCE0FF122402
:1001D600AC9002CBE004F080C69003017401F0A35A
:1001E6007400F0A37456F07B017A0279CE12304186
:1001F6007B017A0279CE9003ABE0540F900302F0B4
:100206007F92123C1F0209271255527B017A02790E
:10021600CE9003ABE0540F900302F07F91123C1F87
:100226009003017401F0A37402F0A374CEF07B0175
:100236007A00795612468D1236CC124A947F5F1296
:1002460060D8020E66E49002CAF09002CAE0FFC3CC
:1002560094144003020E66EF75F020A4FDACF07B0B
:10026600017A0279D69003097420F07FA0124CE23D
:10027600125FF0E49002C9F09002C9E0FFC3942037
:10028600400302043974D62FF582E43402F583E084
:1002960060030204309002CAE075F020A4FF9002C9
:1002A600C9E07C002FFFEC35F0FEEF7803C333CEB8
:1002B60033CED8F924A0FDEE3402FC7B017A027914
:1002C600CE9003097408F07FA0124CE2125FF09002
:1002D60002F7E06401602B9003A9E0FF9002D3E0EF
:1002E600B5071F9003AAE0FF9002D4E0B50713906C
:1002F60003ABE0C4540FFF9002D5E0FEC4540F6F69
:1003060060389002F7E0640160030204309003A9AC
:10031600E0FF9002D3E06F60030204309003AAE08E
:10032600FF9002D4E06F60030204309003ABE0FF5D
:100336009002D5E06F60030204309003ABE0FF90BB
:1003460002D5F09002CEE0C3943250279002F7E037
:10035600B4010CEF540F24AEF582E43402800D9004
:1003660003ABE0540F2446F582E43400F583E090B5
:1003760002CEF09002CEE0FF64336042EF603FE4CD
:100386009002CBF09002FDE0FF9002CBE0C39F50BD
:100396005C7B017A0279CE9002CEE0FD90030EE4FA
:1003A600F0A3EDF09003ABE0540F900310F0900231
:1003B600FCE0FF1224AC9002CBE004F080C67B0187
:1003C6007A0279CE9003ABE0540F900302F07F924D
:1003D600123C1F9003017401F0A37400F0A374563D
:1003E600F07B017A0279CE1230410209271255526A
:1003F6007B017A0279CE9003ABE0540F900302F0B2
:100406007F91123C1F9003017401F0A37402F0A3C4
:1004160074CEF07B017A00795612468D1236CC12D4
:100426004A947F5F1260D8020B4A9002C9E004F03A
:1004360002027E9002CAE004F0020250E4FF12615A
:10044600809003ABE0FF54F060030207779003A9A6
:10045600E0C4540FFE9002FBE0FDB50605C3940A06
:100466004011ED640A6003020777EEC3940A400365
:100476000207779002F7E0B4010CEF540F24AEF5B3
:1004860082E43402800D9003ABE0540F2446F582DB
:10049600E43400F583E09002CEF09003A9E0FFC4B7
:1004A600540F9002CFF0EF540FA3F09003AAE0FF91
:1004B600C4540F9002D1F0EF540FA3F09003A9E0BB
:1004C6009002D3F09003AAE09002D4F09003ABE040
:1004D6009002D5F09002F9E0640160030205F49001
:1004E60002CEE0FF64336042EF603FE49002CBF05F
:1004F6009002FDE0FF9002CBE0C39F505C7B017A47
:100506000279CE9002CEE0FD90030EE4F0A3EDF06A
:100516009003ABE0540F900310F09002FCE0FF1242
:1005260024AC9002CBE004F080C67B017A0279CE3F
:100536009003ABE0540F900302F07F92123C1F90A1
:1005460003017401F0A37400F0A37456F07B017AE2
:100556000279CE1230410209277B017A0279CE90C8
:1005660003ABE0540F900302F07F91123C1F9003FF
:10057600017401F0A37400F0A37456F07B017A02B3
:1005860079CE1235389002FAE09002CBF09002CB89
:10059600E0FFD39401401AEF75F006A4244AF974DB
:1005A6000035F0FA7B01124FC49002CBE014F080C4
:1005B600DCE49002CBF09002CBE0FFC3940650142B
:1005C60074562FF582E43400F583E4F09002CBE014
:1005D60004F080E29003017401F0A37402F0A374A6
:1005E600CEF07B017A00795612468D0209279002D9
:1005F600F9E064026003020E669002CEE0FF643307
:100606006003EF702F7B017A0279CE9003ABE05442
:100616000F900302F07F92123C1F9003017401F0C9
:10062600A37400F0A37456F07B017A0279CE1230DF
:1006360041020927E49002CCF09002FAE0FF900212
:10064600CCE0FEC39F40030206FB75F006EEA42431
:1006560057F582E5F03400F583E0FF9002CFE0FE27
:10066600EF6E60030206F29002CCE0FF75F006A47E
:100676002458F582E5F03400F583E0FE9002D0E0E0
:10068600FDEE6D706775F006EFA42459F582E5F06E
:100696003400F583E0FF9002D1E0FEEF6E704D90DE
:1006A60002CCE075F006A4245AF582E5F03400F594
:1006B60083E0FF9002D2E0FEEFB506309002CCE078
:1006C600A3F075F006A42456F9740035F0FA7B0100
:1006D600C003900301EBF0A37402F0A374CEF0D034
:1006E6000312468D1236CC124A9480099002CCE051
:1006F60004F002063F9002FAE0FF9002CDE06F6040
:1007060003020E669002CCF09002FAE0FF9002CC53
:10071600E0FEC39F4003020E6675F006EEA4245663
:10072600F582E5F03400F583E0703E7B017A0279CC
:10073600CE9003ABE0540F900302F07F91123C1F62
:100746009002CCE075F006A42456F9740035F0FA50
:100756007B01C003900301EBF0A37402F0A374CEF7
:10076600F0D00312468D0209279002CCE004F080F7
:1007760097E49002CAF09002CAE0FFC394144003C3
:10078600020E66EF75F020A4FDACF07B017A0279CB
:10079600D69003097420F07FA0124CE2125FF0E4B9
:1007A6009002C9F09002C9E0FFC394204003020BF7
:1007B6005974D62FF582E43402F583E06003020B08
:1007C600509002CAE075F020A4FF9002C9E07C00B8
:1007D6002FFFEC35F0FEEF7803C333CE33CED8F9D6
:1007E60024A0FDEE3402FC7B017A0279CE90030947
:1007F6007408F07FA0124CE2125FF09002F7E064FA
:1008060001602B9003A9E0FF9002D3E0B5071F908B
:1008160003AAE0FF9002D4E0B507139003ABE0C44F
:10082600540FFF9002D5E0FEC4540F6F603890025B
:10083600F7E064016003020B509003A9E0FF900209
:10084600D3E06F6003020B509003AAE0FF9002D43E
:10085600E06F6003020B509003ABE0FF9002D5E01F
:100866006F6003020B509003ABE0FF9002D5F0904F
:1008760002CEE0C3943250279002F7E0B4010CEFA9
:10088600540F24AEF582E43402800D9003ABE0549D
:100896000F2446F582E43400F583E09002CEF09012
:1008A60002F9E0640160030209C29002CEE0FF642F
:1008B600336042EF603FE49002CBF09002FDE0FF30
:1008C6009002CBE0C39F50627B017A0279CE900200
:1008D600CEE0FD90030EE4F0A3EDF09003ABE05400
:1008E6000F900310F09002FCE0FF1224AC9002CBB4
:1008F600E004F080C67B017A0279CE9003ABE05427
:100906000F900302F07F92123C1F9003017401F0D6
:10091600A37400F0A37456F07B017A0279CE1230EC
:10092600411236CC124A94020E667B017A0279CEC7
:100936009003ABE0540F900302F07F91123C1F909E
:1009460003017401F0A37400F0A37456F07B017ADE
:100956000279CE1235389002FAE09002CBF090027E
:10096600CBE0FFD39401401AEF75F006A4244AF9B0
:10097600740035F0FA7B01124FC49002CBE014F0FC
:1009860080DCE49002CBF09002CBE0FFC3940650EB
:100996001474562FF582E43400F583E4F09002CB0C
:1009A600E004F080E29003017401F0A37402F0A366
:1009B60074CEF07B017A007956020B379002F9E08B
:1009C60064026003020B4A9002CEE0FF64336003C8
:1009D600EF70357B017A0279CE9003ABE0540F902D
:1009E6000302F07F92123C1F9003017401F0A3747E
:1009F60000F0A37456F07B017A0279CE12304112D0
:100A060036CC124A94020B59E49002CCF09002FACA
:100A1600E0FF9002CCE0FEC39F4003020ACF75F0D0
:100A260006EEA42457F582E5F03400F583E0FF9046
:100A360002CFE0FEEF6E6003020AC69002CCE0FF32
:100A460075F006A42458F582E5F03400F583E0FE3F
:100A56009002D0E0FDEE6D706775F006EFA42459A4
:100A6600F582E5F03400F583E0FF9002D1E0FEEF79
:100A76006E704D9002CCE075F006A4245AF582E51E
:100A8600F03400F583E0FF9002D2E0FEEFB50630C9
:100A96009002CCE0A3F075F006A42456F974003554
:100AA600F0FA7B01C003900301EBF0A37402F0A3FC
:100AB60074CEF0D00312468D1236CC124A948009B9
:100AC6009002CCE004F0020A139002FAE0FF9002D2
:100AD600CDE06F706F9002CCF09002FAE0FF9002CA
:100AE600CCE0FEC39F505D75F006EEA42456F58259
:100AF600E5F03400F583E070437B017A0279CE900D
:100B060003ABE0540F900302F07F91123C1F90025A
:100B1600CCE075F006A42456F9740035F0FA7B0192
:100B2600C003900301EBF0A37402F0A374CEF0D0DF
:100B36000312468D1236CC124A9480089002CCE0FD
:100B460004F080951261B0020E669002C9E004F0CE
:100B56000207AA9002CAE004F002077C7F35126001
:100B6600D89003ABE0540F9003DDF0900333E09090
:100B760003DEF0900334E09003DFF0900335E0905D
:100B860003E0F0900336E09003E1F09003A9E090D3
:100B960003E2F09003AAE09003E3F09002F7E090FE
:100BA60003ABB40103E08003E054F09003E4F07B70
:100BB600017A0379DD1231F24003020E66125FF00C
:100BC600900336E06409703D900335E06409702FA8
:100BD600900334E0B40922900333E004F0E4A3F078
:100BE600A3F0900333E0B4150AE4F090033604F062
:100BF600020E66900336020DDF900334020DE89074
:100C06000335020DF5900336020E007F391260D8C7
:100C16009003ABE0FE540F9003DDF090033BE090B1
:100C260003DEF090033CE09003DFF090033DE0909C
:100C360003E0F090033EE09003E1F09003A9E0901A
:100C460003E2F09003AAE09003E3F0EE54F0A3F081
:100C56007B017A0379DD122E844003020E66125F51
:100C6600F090033EE06409703D90033DE064097036
:100C76002F90033CE0B4092290033BE004F0E4A388
:100C8600F0A3F090033BE0B4150AE4F090033E04B1
:100C9600F0020E6690033E020DDF90033C020DE863
:100CA60090033D020DF590033E020E007F3D12605B
:100CB600D89003DD7434F0900344E09003DEF090A6
:100CC6000345E09003DFF0900346E09003E0F090E8
:100CD6000347E09003E1F09003A9E09003E2F0906F
:100CE60003AAE09003E3F09003ABE054F09003E432
:100CF600F07B017A0379DD122AFC4003020E6612AC
:100D06005FF0900347E06409703D900346E0640994
:100D1600702F900345E0B40922900344E004F0E408
:100D2600A3F0A3F0900344E0B4150AE4F09003475F
:100D360004F0020E66900347020DDF900345020D94
:100D4600E8900346020DF5900347020E007F41121C
:100D560060D89003DD7433F090034EE09003DEF02C
:100D660090034FE09003DFF0900350E09003E0F033
:100D7600900351E09003E1F09003A9E09003E2F0C4
:100D86009003AAE09003E3F09003ABE054F09003E5
:100D9600E4F07B017A0379DD122CC04003020E6673
:100DA600125FF0900351E06409704C900350E064C8
:100DB60009703990034FE0B4092590034EE004F022
:100DC600E4A3F0A3F090034EE0B4150AE4F0900318
:100DD6005104F0020E669003517401F0020E669003
:100DE600034FE004F0E4A3F0A3F08074900350E016
:100DF60004F0E4A3F08069900351E004F08061E41C
:100E0600FF12614A9003E57401F09002F7E0B40125
:100E160024A3E0FF9003ABE0540F24AEF582E43444
:100E260002F583EFF07B017A0279AE900309741024
:100E3600F07DA080249002F8E0FF9003ABE0540F11
:100E46002446F582E43400F583EFF07B017A0079DD
:100E5600469003097410F07DB07C177FA0124E56A1
:090E66001261B012425D02382C49
:0561CE009003E5E0FF75
:0161D30022A9
:0661D4009003E5EFF0224C
:105CF500FFFFFFFFFFFFFFFFFFFFFFFFFFFFFFFFAF
:105D0500FFFFFFFFFFFFFFFFFFFFFFFFFFFFFFFF9E
:101EAE00602003660000000000000000000000003B
:101EBE000000000000000000000000000000000014
:0F1ECE0000000000480386000000000000000034
:03623400DFFE2268
:105EBA00AE07AF061EEF600C7FF51262347FF51253
:055ECA00623480EE22AD
:105EA400D2B400D2B50000000000C2B4000000006B
:065EB40000C2B50000224F
:105FAD00C2B400D2B50000000000D2B40000000061
:015FBD0022C1
:1052F100E4FEEFA806088002C333D8FC30E704D2ED
:10530100B48002C2B400D2B50000000000C2B50EE4
:10531100EEB408DE0000D2B40000D2B500000030C7
:0C532100B404C2018002D201C2B5000039
:01532D00225D
:10598800E4FFD2B4FE00C2B50000000000D2B500AA
:1059980000EF25E0FF30B4010F00000EEEB408E57B
:0459A800C2B5000084
:0159AC0022D8
:105FBE00C2B4000000D2B50000000000C2B500005F
:015FCE0022B0
:105FCF00D2B4000000D2B50000000000C2B500003E
:015FDF00229F
:104E38009002CDE075F020A42480FDE5F03402FC5A
:0E4E48007A0379667B017420900309F07FA045
:104E5600125EA41252F1200102C322ECFF1252F19B
:104E6600200102C322AF051252F1200102C322E43F
:104E7600FD900309E0FFEDC39F5016122804FF12B0
:104E860052F1200102C322740129F9E43AFA0D8095
:054E9600E0125FADD346
:014E9B0022F4
:104CCC00EF75F020A4FDACF07A03796674207B01BB
:064CDC00900309F07FA027
:054CE200900303EFF058
:104CE700125EA4E0FF1252F1200102C322ECFF1270
:104CF70052F1200102C322AF051252F1200102C373
:104D070022125EA4900303E004FF1252F120010275
:104D1700C322E4FD900309E014FFEDC39F50141272
:104D27005988EF12284A125FBE740129F9E43AFA4A
:104D37000D80E1125988EF12284A125FCF125FAD3A
:014D4700D398
:014D48002248
:0B31F2009002FEEBF0A3EAF0A3E9F06E
:1031FD00E4A3F0A3F0900301F0900301E0FFC3946A
:10320D001540030232E6124CCC125FF0E49003023B
:10321D00F0900302E0FFC3942040030232DD746698
:10322D002FF582E43403F583E060030232D490037A
:10323D0001E075F020A4FFA3E07C002FFFEC35F03A
:10324D00FEEF7803C333CE33CED8F924A0FDEE3490
:10325D0002FC7A0379867408124CDA125FF0900240
:10326D00FEE0FBA3E0FAA3E0F990000512281DFF94
:10327D0090038BE06F705090000612281DFF900395
:10328D008CE06F704290000712281DFF90038DE0B7
:10329D006F7034900387E0900333F0900388E090D3
:1032AD000334F0900389E0900335F090038AE090A9
:1032BD000336F0126144BF010C7F7A7E0012544533
:1032CD00E4FF12614AC322900302E004F002321EB1
:1032DD00900301E004F0023206E4900301F0900344
:1032ED0001E0FFC39410400302339A124CCC125FDD
:1032FD00F0E4900302F0900302E0FFC3942040033A
:10330D0002339174662FF582E43403F583E0606B2C
:10331D00900301E075F020A4FFA3E07C002FFFECEB
:10332D0035F0FEEF7803C333CE33CED8F924A0FDAC
:10333D00EE3402FC9002FEE0FBA3E0FAA3E0F97488
:10334D0008124E50125FF0900302E02466F582E4FD
:10335D003403F583E4F0900301E075F020A4FDAC97
:10336D00F0124E48125FF0126144BF010C7F797E5E
:10337D0000125445E4FF12614AD322900302E00487
:0E338D00F0023303900301E004F00232EBC3C0
:01339B00220F
:0B2E84009002FEEBF0A3EAF0A3E9F0DF
:102E8F00E4A3F0A3F0900301F0900301E0FFC394DB
:102E9F00154003022F80124CCC125FF0E490030216
:102EAF00F0900302E0FFC394204003022F77746673
:102EBF002FF582E43403F583E06003022F6E900355
:102ECF0001E075F020A4FFA3E07C002FFFEC35F0AC
:102EDF00FEEF7803C333CE33CED8F924A0FDEE3402
:102EEF0002FC7B017A0379869003097408F07FA0B6
:102EFF00124CE2125FF09002FEE0FBA3E0FAA3E0B7
:102F0F00F990000512281DFF90038BE06F70509011
:102F1F00000612281DFF90038CE06F70429000078F
:102F2F0012281DFF90038DE06F7034900387E0909F
:102F3F00033BF0900388E090033CF0900389E0900E
:102F4F00033DF090038AE090033EF0126144BF010D
:102F5F000C7F7A7E00125445E4FF12614AC322901F
:102F6F000302E004F0022EB0900301E004F0022E01
:102F7F0098E4900301F0900301E0FFC39401400334
:102F8F0002303FEF75F020A42480FDE5F03402FC01
:102F9F00124CD4125FF0E4900302F0900302E0FFB2
:102FAF00C39420400302303674662FF582E4340355
:102FBF00F583E06069900301E075F020A4FFA3E0C2
:102FCF007C002FFFEC35F0FEEF7803C333CE33CE0A
:102FDF00D8F924A0FDEE3416FC9002FEE0FBA3E02E
:102FEF00FAA3E0F99003097408F07FA0124E56126D
:102FFF005FF0900302E02466F582E43403F583E486
:10300F00F0900301124E3B125FF0126144BF010CAE
:10301F007F797E00125445E4FF12614AD322900358
:10302F0002E004F0022FAA900301E004F0022F85C2
:01303F00C3CD
:01304000226D
:0B2AFC009002FEEBF0A3EAF0A3E9F06B
:102B0700E4A3F0A3F0900301F0900301E0FFC39466
:102B1700154003022BF8124CCC125FF0E49003022D
:102B2700F0900302E0FFC394204003022BEF74668A
:102B37002FF582E43403F583E06003022BE690036C
:102B470001E075F020A4FFA3E07C002FFFEC35F037
:102B5700FEEF7803C333CE33CED8F924A0FDEE348D
:102B670002FC7B017A0379869003097408F07FA041
:102B7700124CE2125FF09002FEE0FBA3E0FAA3E042
:102B8700F990000512281DFF90038BE06F7050909D
:102B9700000612281DFF90038CE06F70429000071B
:102BA70012281DFF90038DE06F7034900387E0902B
:102BB7000344F0900388E0900345F0900389E09088
:102BC7000346F090038AE0900347F0126144BF0187
:102BD7000C7F7A7E00125445E4FF12614AC32290AB
:102BE7000302E004F0022B28900301E004F0022B1B
:102BF70010E4900301F0900301E0FFC39402400347
:102C0700022CBEEF75F020A42400FDE5F03402FC91
:102C1700124CD4125FF0E4900302F0900302E0FF3D
:102C2700C394204003022CB574662FF582E4340365
:102C3700F583E06070900301E075F020A4FFA3E046
:102C47007C002FFFEC35F0FEEF7803C333CE33CE95
:102C5700D8F924A0FDEE3412FC9002FEE0FBA3E0BD
:102C6700FAA3E0F99003097408F07FA0124E5612F8
:102C77005FF0900302E02466F582E43403F583E411
:102C8700F0900301E075F020A42400124E42125F79
:102C9700F0126144BF010C7F797E00125445E4FFB6
:102CA70012614AD322900302E004F0022C2290031F
:082CB70001E004F0022BFDC353
:012CBF0022F2
:0B2CC0009002FEEBF0A3EAF0A3E9F0A5
:102CCB00E4A3F0A3F0900301F0900301E0FFC394A1
:102CDB00154003022DBC124CCC125FF0E4900302A2
:102CEB00F0900302E0FFC394204003022DB37466FF
:102CFB002FF582E43403F583E06003022DAA9003E1
:102D0B0001E075F020A4FFA3E07C002FFFEC35F071
:102D1B00FEEF7803C333CE33CED8F924A0FDEE34C7
:102D2B0002FC7B017A0379869003097408F07FA07B
:102D3B00124CE2125FF09002FEE0FBA3E0FAA3E07C
:102D4B00F990000512281DFF90038BE06F705090D7
:102D5B00000612281DFF90038CE06F704290000755
:102D6B0012281DFF90038DE06F7034900387E09065
:102D7B00034EF0900388E090034FF0900389E090AE
:102D8B000350F090038AE0900351F0126144BF01AD
:102D9B000C7F7A7E00125445E4FF12614AC32290E5
:102DAB000302E004F0022CEC900301E004F0022C8F
:102DBB00D4E4900301F0900301E0FFC394024003BD
:102DCB00022E82EF75F020A42440FDE5F03402FCC6
:102DDB00124CD4125FF0E4900302F0900302E0FF78
:102DEB00C394204003022E7974662FF582E43403DA
:102DFB00F583E06070900301E075F020A4FFA3E081
:102E0B007C002FFFEC35F0FEEF7803C333CE33CECF
:102E1B00D8F924A0FDEE3414FC9002FEE0FBA3E0F5
:102E2B00FAA3E0F99003097408F07FA0124E561232
:102E3B005FF0900302E02466F582E43403F583E44B
:102E4B00F0900301E075F020A42440124E42125F73
:102E5B00F0126144BF010C7F797E00125445E4FFF0
:102E6B0012614AD322900302E004F0022DE6900394
:082E7B0001E004F0022DC1C3C7
:012E8300222C
:0B3EAF009002CAEBF0A3EAF0A3E9F0D8
:103EBA00E4A3F0A3F09002CDF09002CDE0FFC3940A
:103ECA00104003023FED124CCC125FF0E49002CE98
:103EDA00F09002CEE0FFC394204003023FD3900249
:103EEA00CAE0FBA3E0FAA3E0F912280470289000C4
:103EFA000112281D702090000212281D70189000CF
:103F0A000312281D701074662FF582E43403F583BA
:103F1A0074FFF0023FCA9002CEE0FD2466F582E407
:103F2A003403F583E06003023FCA9002CDE075F0E6
:103F3A0020A47C002DFFEC35F0FEEF7803C333CECE
:103F4A0033CED8F924A0FDEE3402FC7B017A037942
:103F5A00869003097408F07FA0124CE2125FF09079
:103F6A0002CAE0FBA3E0FAA3E0F9122804FF9003D7
:103F7A0087E06F704B90000112281DFF900388E0C4
:103F8A006F703D90000212281DFF900389E06F7048
:103F9A002F90000312281DFF90038AE0B507219095
:103FAA0002CEE02466F582E43403F58374FFF090D0
:103FBA0002CDE075F020A4FDACF0124E48125FF07D
:103FCA009002CEE004F0023EDB9002CDE075F020D4
:103FDA00A4FDACF0124E48125FF09002CDE004F05E
:043FEA00023EC3D3FD
:013FEE0022B0
:0B4126009002CAEBF0A3EAF0A3E9F05E
:10413100E4A3F0A3F09002CDF09002CDE0FFC39490
:1041410001400302425BEF75F020A42480FDE5F0FD
:104151003402FC124CD4125FF0E49002CEF09002D3
:10416100CEE0FFC39420400302424C9002CAE0FB20
:10417100A3E0FAA3E0F912280470289000011228A4
:104181001D702090000212281D7018900003122843
:104191001D701074662FF582E43403F58374FFF00B
:1041A1000242439002CEE0FD2466F582E43403F539
:1041B10083E060030242439002CDE075F020A47CCD
:1041C100002DFFEC35F0FEEF7803C333CE33CED8AC
:1041D100F924A0FDEE3416FC7B017A037986900365
:1041E100097408F07FA0124CE2125FF09002CAE05D
:1041F100FBA3E0FAA3E0F9122804FF900387E06F24
:10420100704090000112281DFF900388E06F70320A
:1042110090000212281DFF900389E06F7024900026
:104221000312281DFF90038AE06F70169002CEE002
:104231002466F582E43403F58374FFF0124E3812DC
:104241005FF09002CEE004F002415F124E38125F3F
:0B425100F09002CDE004F002413AD3EF
:01425C00223F
:0B3989009002CAEBF0A3EAF0A3E9F003
:10399400E4A3F0A3F09002CDF09002CDE0FFC39435
:1039A400024003023AD2EF75F020A42400FDE5F0B2
:1039B4003402FC124CD4125FF0E49002CEF0900278
:1039C400CEE0FFC394204003023AB99002CAE0FB60
:1039D400A3E0FAA3E0F91228047028900001122849
:1039E4001D702090000212281D70189000031228E8
:1039F4001D701074662FF582E43403F58374FFF0B0
:103A0400023AB09002CEE0FD2466F582E43403F578
:103A140083E06003023AB09002CDE075F020A47C0C
:103A2400002DFFEC35F0FEEF7803C333CE33CED850
:103A3400F924A0FDEE3412FC7B017A03798690030D
:103A4400097408F07FA0124CE2125FF09002CAE001
:103A5400FBA3E0FAA3E0F9122804FF900387E06FC8
:103A6400704A90000112281DFF900388E06F703C9B
:103A740090000212281DFF900389E06F702E9000C1
:103A84000312281DFF90038AE06F70209002CEE09D
:103A94002466F582E43403F58374FFF09002CDE0EC
:103AA40075F020A42400124E42125FF09002CEE082
:103AB40004F00239C29002CDE075F020A424001273
:0F3AC4004E42125FF09002CDE004F002399DD324
:013AD30022D0
:0B3AD4009002CAEBF0A3EAF0A3E9F0B7
:103ADF00E4A3F0A3F09002CDF09002CDE0FFC394E9
:103AEF00024003023C1DEF75F020A42440FDE5F0D9
:103AFF003402FC124CD4125FF0E49002CEF090022C
:103B0F00CEE0FFC394204003023C049002CAE0FBC6
:103B1F00A3E0FAA3E0F912280470289000011228FC
:103B2F001D702090000212281D701890000312289B
:103B3F001D701074662FF582E43403F58374FFF063
:103B4F00023BFB9002CEE0FD2466F582E43403F5E0
:103B5F0083E06003023BFB9002CDE075F020A47C74
:103B6F00002DFFEC35F0FEEF7803C333CE33CED804
:103B7F00F924A0FDEE3414FC7B017A0379869003BF
:103B8F00097408F07FA0124CE2125FF09002CAE0B5
:103B9F00FBA3E0FAA3E0F9122804FF900387E06F7C
