:0300000002430DAB
:0C430D00787FE4F6D8FD7581210243544E
:1041EA005573617274496E697420436F6D706C65A2
:1041FA00746521200D0A00746D313632395F696E9B
:10420A00697420436F6D706C65746521200D0A0016
:10421A00496E69745F54696D65723020436F6D70C1
:10422A006C65746521200D0A00496E69745F5469D2
:10423A006D65723120436F6D706C65746521200D58
:10424A000A006578696E74305F696E697420436F1D
:10425A006D706C65746521200D0A0044733133302A
:10426A00325F496E697420436F6D706C65746521A5
:04427A00200D0A0009
:1045C5001250F57BFF7A4179EA1246771247207B34
:1045D500FF7A4279011246771252387BFF7A427987
:1045E5001A1246771252567BFF7A42793312467772
:1045F50012531F7BFF7A42794C12467712528B7BFE
:10460500FF7A42796512467712525675B10CE4F578
:09461500B2120BFA12002680F823
:0300230002000ECA
:0D000E00309802C298309904C299C209329C
:095296002009FDEFD209F599226F
:10499200900465EBF0A3EAF0A3E9F0900465E0FB74
:1049A200A3E0FAA3E0F91227BF6017900465A3E41D
:1049B20075F00112284BA9F0FA1227BFFF12529686
:0349C20080D92277
:1050F500E5A2543FF5A275985075D7C875D6FE75CB
:0A5105008E14438E01D2ACD2AF220B
:0B467700900037EBF0A3EAF0A3E9F09D
:104682009000627401F0A37400F0A3743AF09000F9
:1046920037E0F9A3E0FAA3E0900465C9F0A3EAF0D9
:1046A200A3E9F0900062E0F9A3E0FAA3E0900468C5
:1046B200C9F0A3EAF0A3E9F07B017A007965124818
:0A46C200137B017A0079650249922A
:101956006B65795F76616C206973202578202E0D82
:101966000A000000000000FF547501020E0F00FF80
:1019760000060203011500FF001E0304021900FF02
:1019860053DA0405031D00FF53DF0506041F00FF9D
:1019960053E40607052000FF53E90708062100FF68
:1019A60053EE0809072600FF53F3090A082A00FF29
:1019B60053F80A0B092C00FF53FD0B0C0A2E00FFEF
:1019C60054020C0D0B2F00FF54070D0E0C3000FFB8
:1019D600540C0E010D3100FF54110F0F0F1001FFB3
:1019E60049F51010101101FF4ACF1111111201FF14
:1019F6004AF71212121301FF4EDB1313131401FFE1
:101A06004EFF1414140F01FF4B1F1516183502FF55
:101A160051631617153902FF51751718163D02FF47
:101A260051871815174102FF5199191A1C4503FFD2
:101A360051AB1A1B194903FF51BD1B1C1A4D03FF5D
:101A460051CF1C191B5103FF51E11D1E1E5204FFED
:101A560054161E1D1D5304FF541B1F1F1F1F05FF79
:101A6600529F2020202006FF52A72122255407FF3F
:101A760054202223215507FF54252324225607FFED
:101A8600542A2425235707FF542F2521245807FFBE
:101A960054342627295908FF54392728265A08FF7F
:101AA600543E2829275B08FF54432926285C08FF53
:101AB60054482A2B2B5D09FF544D2B2A2A5E09FF19
:101AC60054522C2D2D000AFF54572D2C2C000AFFA2
:101AD600545C2E2E2E000BFF54612F2F2F000CFF6F
:101AE6005466303030000DFF546B313131000EFF3B
:101AF60054703232323515FF50183333333215FFF6
:101B060050BC3434343315FF503A3535353415FF6F
:101B1600505C3636363916FF4B473737373616FFA1
:101B26004F233838383716FF4B6F3939393816FF97
:101B36004B973A3A3A3D17FF4BBF3B3B3B3A17FFB1
:101B46004F463C3C3C3B17FF4BE73D3D3D3C17FFBA
:101B56004C0F3E3E3E4118FF4C373F3F3F3E18FF7D
:101B66004F694040403F18FF4C5F4141414018FFDC
:101B76004C874242424519FF4CAF4343434219FF4B
:101B86004F8C4444444319FF4CD74545454419FFFF
:101B96004CFF464646491AFF4D27474747461AFF18
:101BA6004FAF484848471AFF4D4F494949481AFF21
:101BB6004D774A4A4A4D1BFF4D9F4B4B4B4A1BFFE5
:101BC6004FD24C4C4C4B1BFF4DC74D4D4D4C1BFF44
:101BD6004DEF4E4E4E511CFF4E174F4F4F4E1CFFB2
:101BE6004FF55050504F1CFF4E3F515151501CFF66
:101BF6004E67525252521DFF52AF535353531EFF5C
:101C060052B75454545421FF52BF5555555522FFCF
:101C160052C75656565623FF52CF5757575724FF8B
:101C260052D75858585825FF52DF5959595926FF47
:101C360052E75A5A5A5A27FF52EF5B5B5B5B28FF03
:101C460052F75C5C5C5C29FF52FF5D5D5D5D2AFFBF
:101C560053075E5E5E5E2BFF530F5F5F5F5F5FFF46
:101C6600538C00000000000000000000000000008F
:101C7600000000000000000000000000000000005E
:021C860000005C
:101C88004105F6004405FA00000001440602000080
:101C9800000144060B000000014406150000000185
:101CA8004405FE0000000144060700000001440648
:101CB800110000000144061A000000014106060157
:101CC8004106100C41060F004106190041061E008E
:101CD800410620014106230041062600410628004E
:101CE80041061F0041062200410625004106270043
:101CF80041062102410624004105F400410629005D
:041D08004105F5009C
:10415400E4900003F0A3F043901F53A007E59054AC
:104164001F641F607C125248E590541F641F6071E5
:104174001253BC43901F43A0F853A07FE590541FF3
:10418400641F605DE590541FFF900003E4F0A3EF0B
:10419400F0E0F8E4F0E8900003F0E5A054F8FFA3A1
:1041A400E02FF0900003E03400F0E0B41E0DA3E033
:1041B400B478081253AA7F0112539EE590541FFF4E
:1041C400BF1FF8125248E590541FFFBF1FF8E4FFC9
:1041D40012539EE4FF1253B6900003E0FEA3E0FFE7
:0541E400227E0F7FFFA9
:0141E90022B3
:10450500E4900001F0A3F0124154900001EEF0A3F5
:10451500EFF0F47003EE640F60187BFF7A1979569B
:10452500900001E0FFA3E090003ACFF0A3EFF01276
:104535004677900001E0FEA3E08EF01228874557EC
:104545001778455D1B78455A1D7845601E78000033
:1045550045637F03227F02227F01227F00227FFFA6
:014565002233
:100BFA00E4FF900000F0124505EF147003020D584F
:100C0A001470030211C1147003020D382403600327
:100C1A000215C69005F6E0FF6003B45F181253A4EC
:100C2A00900000EFF0C3941450030215C69005F625
:100C3A007401020D319005F6E0FF6442600FEF6423
:100C4A0043600AEF64446005EF644570191253A4C7
:100C5A00900000EFF0C3940A403C7B017A0579FECC
:100C6A00122DFF020D029005F6E0FF6446600FEFB9
:100C7A006447600AEF64486005EF6449701A1253CA
:100C8A00A4900000EFF0C3940A400B7B017A067926
:100C9A00071228DA806280659005F6E0FF644A60F0
:100CAA000FEF644B600AEF644C6005EF644D701AF5
:100CBA001253A4900000EFF0C3940A400B7B017A10
:100CCA00067911122A91803080339005F6E0FF648C
:100CDA004E600FEF644F600AEF64506005EF645195
:100CEA00702E1253A4900000EFF0C3940A400E7BBA
:100CFA00017A06791A122C48125248802B9005F66E
:100D0A00E075F008A4246BF582E5F034190215BEEB
:100D1A009005F6E075F008A4246BF582E5F0341925
:100D2A00F583E4939005F6F01253AA0215C69005CE
:100D3A00F6E0B45F061244160215C69005F6E07591
:100D4A00F008A4246CF582E5F034190215BE90056A
:100D5A00F6E01228610E050F0E17100E27110E3736
:100D6A00120E47130E591410CA1F10DC200E6B32D4
:100D7A000E7D330E8F340EA1350EB3360EC5370EE7
:100D8A00D7380EE9390EFB3A0F0D3B0F1F3C0F31D6
:100D9A003D0F433E0F553F0F67400F79410F8B427E
:100DAA000F9D430FAF440FC1450FD3460FE5470FC1
:100DBA00F748100949101B4A102D4B103F4C10518F
:100DCA004D10634E10754F10875010995110AA524A
:100DDA0010BA5310EE541100551110561123571121
:100DEA00345811445911545A11645B11745C1184BA
:100DFA005D11985E11AB5F000011AE900699E0B4E8
:100E0A006305E4F00211AE9006990211A690069AC3
:100E1A00E0B40C030210C190069A0211A690069B38
:100E2A00E0B41F030210C190069B0211A690069F10
:100E3A00E0B407030210C190069F0211A690069C17
:100E4A00E0B41705E4F00211AE90069C0211A690D8
:100E5A00069DE0B43B05E4F00211AE90069D021136
:100E6A00A69005FAE0B41405E4F00211AE9005FA72
:100E7A000211A69005FBE0B40905E4F00211AE9058
:100E8A0005FB0211A69005FCE0B40905E4F0021185
:100E9A00AE9005FC0211A69005FDE0B40905E4F048
:100EAA000211AE9005FD0211A6900602E0B41405E7
:100EBA00E4F00211AE9006020211A6900603E0B415
:100ECA000905E4F00211AE9006030211A690060489
:100EDA00E0B40905E4F00211AE9006040211A690EE
:100EEA000605E0B40905E4F00211AE900605021108
:100EFA00A690060BE0B41405E4F00211AE90060BBE
:100F0A000211A690060CE0B40905E4F00211AE90B5
:100F1A00060C0211A690060DE0B40905E4F00211D0
:100F2A00AE90060D0211A690060EE0B40905E4F093
:100F3A000211AE90060E0211A6900615E0B4140531
:100F4A00E4F00211AE9006150211A6900616E0B45E
:100F5A000905E4F00211AE9006160211A6900617D2
:100F6A00E0B40905E4F00211AE9006170211A6904A
:100F7A000618E0B40905E4F00211AE900618021151
:100F8A00A69005FEE0B41405E4F00211AE9005FE49
:100F9A000211A69005FFE0B40905E4F00211AE9033
:100FAA0005FF0211A6900600E0B40905E4F002115B
:100FBA00AE9006000211A6900601E0B40905E4F01D
:100FCA000211AE9006010211A6900607E0B41405BC
:100FDA00E4F00211AE9006070211A6900608E0B4EA
:100FEA000905E4F00211AE9006080211A69006095E
:100FFA00E0B40905E4F00211AE9006090211A690C8
:10100A00060AE0B40905E4F00211AE90060A0211DC
:10101A00A6900611E0B41405E4F00211AE90061190
:10102A000211A6900612E0B40905E4F00211AE908E
:10103A0006120211A6900613E0B40905E4F00211A3
:10104A00AE9006130211A6900614E0B40905E4F066
:10105A000211AE9006140211A690061AE0B4140505
:10106A00E4F00211AE90061A0211A690061BE0B433
:10107A000905E4F00211AE90061B0211A690061CA7
:10108A00E0B40905E4F00211AE90061C0211A69024
:10109A00061DE0B40904E4F0800690061DE004F0A1
:1010AA00900606E0B4010302118B90060602119322
:1010BA00900610E0B414030211939006100211A6D0
:1010CA0090060FE0B46305E4F00211AE90060F0239
:1010DA0011A6900619E0B46305E4F00211AE900679
:1010EA00190211A690061EE0B40505E4F00211AE3D
:1010FA0090061E0211A6900620E0B409030211937D
:10110A009006200211A6900623E0700504F0021151
:10111A00AEE4900623F00211AE900626E0B409056B
:10112A00E4F00211AE9006268072900628E0B40719
:10113A0004E4F0806F900628806290061FE0B40BEA
:10114A0004E4F0805F90061F8052900622E0B40B00
:10115A0004E4F0804F9006228042900625E0B40B0A
:10116A0004E4F0803F9006258032900627E0B40B15
:10117A0004E4F0802F9006278022900621E0B40133
:10118A00057402F0801E9006217401F08016900604
:10119A0024E0B43204E4F0800B900624E004F080EA
:1011AA0003123CCA9005F6E075F008A42469F5829A
:1011BA00E5F034190215BE9005F6E0122861126EA8
:1011CA000F127D1012901112A31212B31312C5142A
:1011DA0014D91F14E72012D73212E63312F534134A
:1011EA000435131336132237133138134039134F8A
:1011FA003A135E3B136D3C137C3D138B3E139A3FAF
:10120A0013A94013B84113C74213D64313E5441335
:10121A00F445140346141247142148143049143F64
:10122A004A144E4B145D4C146C4D147B4E14894F6A
:10123A0014985014A75114B65214C65314F95415DD
:10124A000B55151A56152D57153D58154D59155A42
:10125A005A15675B15745C15845D15985E15AB5F4E
:10126A00000015AE900699E070030214ED900699FD
:10127A000215A690069AE0B40106740CF00215AEA7
:10128A0090069A0215A690069BE0B40106741FF018
:10129A000215AE90069B0215A690069FE0B40103C4
:1012AA0002154390069F0215A690069CE0700674EC
:1012BA0017F00215AE90069C0215A690069DE070E6
:1012CA0006743BF00215AE90069D0215A69005FA2B
:1012DA00E070030214CD9005FA0215A69005FBE012
:1012EA0070030215339005FB0215A69005FCE07009
:1012FA00030215339005FC0215A69005FDE0700364
:10130A000215339005FD0215A6900602E07003024D
:10131A0014CD9006020215A6900603E0700302158A
:10132A00339006030215A6900604E07003021533F3
:10133A009006040215A6900605E070030215339084
:10134A0006050215A690060BE070030214CD90065E
:10135A000B0215A690060CE0700302153390060CDA
:10136A000215A690060DE0700302153390060D02D1
:10137A0015A690060EE0700302153390060E0215AC
:10138A00A6900615E070030214CD9006150215A664
:10139A00900616E070030215339006160215A69001
:1013AA000617E070030215339006170215A6900679
:1013BA0018E070030215339006180215A69005FE70
:1013CA00E070030214CD9005FE0215A69005FFE019
:1013DA0070030215339005FF0215A6900600E0700F
:1013EA00030215339006000215A6900601E0700369
:1013FA000215339006010215A6900607E070030253
:10140A0014CD9006070215A6900608E0700302158F
:10141A00339006080215A6900609E07003021533F8
:10142A009006090215A690060AE070030215339089
:10143A00060A0215A6900611E070030214CD900662
:10144A00110215A6900612E07003021533900612D7
:10145A000215A6900613E0700302153390061302D4
:10146A0015A6900614E070030215339006140215AF
:10147A00A690061AE07002804A90061A0215A690F3
:10148A00061BE0700302153390061B0215A6900690
:10149A001CE0700302153390061C0215A690061D67
:1014AA00E0700302153390061D0215A6900606E0A9
:1014BA00B4010302158B900606021593900610E0FC
:1014CA00B401067414F00215AE9006100215A69027
:1014DA00060FE07002800C90060F0215A6900619FE
:1014EA00E070067463F00215AE9006190215A69014
:1014FA00061EE070067405F00215AE90061E02156F
:10150A00A6900620E0B40102801F9006200215A6CC
:10151A00900623E0700504F00215AEE4900623F06D
:10152A000215AE900626E070057409F080769006E2
:10153A00268069900628E070057407F08066900698
:10154A0028805990061FE07002802590061F804C63
:10155A00900622E070028018900622803F900625AD
:10156A00E07002800B9006258032900627E0700515
:10157A00740BF0802F9006278022900621E0B40198
:10158A00057402F0801E9006217401F08016900600
:10159A0024E070057432F0800B900624E014F08089
:1015AA0003123B0A9005F6E075F008A4246AF58256
:1015BA00E5F03419F583E4939005F6F09005F6E02A
:1015CA0075F008A4246DF582E5F03419F583E493E7
:1015DA00FB740193FA740293F99005F7EBF0A3EA0E
:0715EA00F0A3E9F00228B4B0
:0D5248007F047E347DDCDDFEDEFADFF60043
:015255002236
:055326009005F6E0FF18
:01532B00225F
:06532C009005F6EFF022EF
:05533200900606E0FFFB
:015337002253
:05533800900610E0FFEB
:01533D00224D
:05533E0090060FE0FFE6
:015343002247
:05534400900619E0FFD6
:015349002241
:05534A0090061EE0FFCB
:01534F00223B
:05535000900620E0FFC3
:015355002235
:05535600900623E0FFBA
:01535B00222F
:05535C00900626E0FFB1
:015361002229
:05536200900628E0FFA9
:015367002223
:0553680090061FE0FFAC
:01536D00221D
:05536E00900622E0FFA3
:015373002217
:05537400900625E0FF9A
:015379002211
:05537A00900627E0FF92
:01537F00220B
:05538000900621E0FF92
:015385002205
:05538600900624E0FF89
:01538B0022FF
:1051F30000000000000000000000000000000000AC
:025203000000A9
:101D0C005504C53F065B4F666D7D077F6F777C3949
:101D1C005E797176385C733E4805EA01020408105E
:101D2C002040804205F24000603004950000000025
:101D3C000000000000000000000000000000000097
:101D4C000000000000000000000000000000000087
:101D5C0000000000000000000000000060F004EA39
:101D6C000000000000000000000000000000000067
:101D7C000000000000000000000000000000000057
:101D8C000000000000000000000000000000000047
:101D9C000000000000000000000000000000000037
:101DAC000000000000000000000000000000000027
:101DBC000000000000000000000000000000000017
:101DCC000000000000000000000000000000000007
:101DDC0000000000000000000000000000000000F7
:101DEC0000000000000000000000000000000000E7
:101DFC0000000000000000000000000000000000D7
:101E0C0000000000000000000000000000000000C6
:101E1C0000000000000000000000000000000000B6
:101E2C0000000000000000000000000000000000A6
:101E3C000000000000000000000000000000000096
:101E4C000000000000000000000000000000000086
:101E5C00410494005005DA01010101010101010165
:101E6C00010101010101015004DA0101010101012B
:0A1E7C000101010101010101010152
:104A2500C282E4FDFCC280EF30E004D2818002C284
:104A35008100000000D280EFC313FF0DBD00010C03
:0A4A4500ED64084C70DFC280C281EE
:014A4F002244
:104A5000C283E4FDFCC280EF30E004D2818002C258
:104A60008100000000D280EFC313FF0DBD00010CD8
:0A4A7000ED64084C70DFC280C281C3
:014A7A002219
:104A7B00C2CCE4FDFCC280EF30E004D2818002C2E4
:104A8B008100000000D280EFC313FF0DBD00010CAD
:0A4A9B00ED64084C70DFC280C28198
:014AA50022EE
:0D526400D282000000000000C282024A2534
:0D527100D283000000000000C283024A50FA
:0D527E00D2CC000000000000C2CC024A7B30
:053FFA00E4900497F0C3
:103FFF00125362AE077F401252647FC0125264E4C4
:10400F00FB74952BF582E43404F583E0FF124A2507
:10401F00749D2BF582E43404F583E0FF124A250BDF
:10402F00EBB408DDEE2488FF125264D2827F401277
:10403F0052717FC0125271E4FB74A52BF582E434E8
:10404F0004F583E0FF124A5074AD2BF582E434047B
:10405F00F583E0FF124A500BEBB408DDEE2488FF26
:10406F00125271D2837F4012527E7FC012527EE471
:10407F00FB74B52BF582E43404F583E0FF124A7B21
:10408F0074BD2BF582E43404F583E0FF124A7B0BF9
:0D409F00EBB408DDEE2488FF12527ED2CC77
:0140AC0022F1
:10472000E4900000F0E4FFE4FE900000E024EAF5ED
:1047300082E43405F583E0FDEF75F008A42495F5D7
:1047400082E43404F583E5822EF582E43583F58333
:10475000EDF00EEEB408D20FEFB406CB123FFF7FA0
:104760001E125151900000E004F0E0C3940840B5DF
:014770002226
:10515100EFD39400400B7EFF7DFFDDFEDEFA1F8062
:01516100EF5E
:01516200222A
:104AA600E4FFE4FEEF75F008A42495F582E43404EF
:104AB600F583E5822EF582E43583F583E4F00EEE88
:084AC600B408E10FEFB406DAB9
:014ACE0022C5
:10495D00E4FF125392EF6401702A124AA690049458
:10496D00E05403FF2495F582E43404F5837440F09C
:10497D00123FFFE4FF125398900494E004F0E0B46A
:04498D000402E4F04C
:014991002203
:1038F100124AA612448E9004C7E09004A4F09004EA
:10390100C5E09004A3F0900699E0FF75F00A8424C5
:10391100C5F582E43404F583E09004A2F0EF75F07C
:103921000A8474C525F0F582E43404F583E090043B
:10393100A1F09004A07440F090069AE0FF75F00A9F
:103941008424C5F582E43404F583E090049FF0EF0C
:1039510075F00A8474C525F0F582E43404F583E03A
:1039610090049EF090049D7440F090069BE0FF75DA
:10397100F00A8424C5F582E43404F583E090049CC4
:10398100F0EF75F00A8474C525F0F582E43404F58E
:1039910083E090049BF090069FE024C5F582E43417
:1039A10004F583E090049AF090069CE0FF75F00A1C
:1039B1008424C5F582E43404F583E0900498F0EFA3
:1039C10075F00A8474C525F0F582E43404F583E0CA
:1039D100900497F090069DE0FF75F00A8424C5F5E8
:1039E10082E43404F583E0900496F0EF75F00A84E4
:1039F10074C525F0F582E43404F583E0900495F074
:033A0100023FFF82
:10507E00AD07124AA69004D4E0900496F074C52DA4
:0F508E00F582E43404F583E0900495F0023FFFCF
:10509D00AD07124AA69004D3E0900496F074C52D86
:0F50AD00F582E43404F583E0900495F0023FFFB0
:10510F00AD07124AA674C52DF582E43404F583E089
:07511F00900495F0023FFF30
:1049C500AD07124AA6ED75F00A8424C5F582E434D4
:1049D50004F583E0900496F0ED75F00A8474C5251E
:1049E500F0F582E43404F583E0900495F0023FFF8E
:06461E007B017A0579FA28
:10462400124AA61227BF24C5F582E43404F583E0B8
:10463400900498F09000011227D824C5F582E43440
:1046440004F583E0900497F09000021227D824C563
:10465400F582E43404F583E0900496F090000312AC
:1046640027D824C5F582E43404F583E0900495F05A
:03467400023FFF03
:10379100124AA690052CE0601790003F7401F0A337
:1037A1007405F0A3742CF07B017A0479C4123F3CB8
:1037B100900526E0601790003F7401F0A37405F0B6
:1037C100A37426F07B017A0479C0123F3C90052056
:1037D100E0601790003F7401F0A37405F0A374201A
:1037E100F07B017A0479BC123F3C90051AE0601726
:1037F10090003F7401F0A37405F0A3741AF07B01EB
:103801007A0479B8123F3C900514E0601790003FAC
:103811007401F0A37405F0A37414F07B017A0479A8
:10382100B4123F3C90050EE0601790003F7401F028
:10383100A37405F0A3740EF07B017A0479B0123FF2
:103841003C900508E0601790003F7401F0A37405F7
:10385100F0A37408F07B017A0479AC123F3C900527
:1038610002E0601790003F7401F0A37405F0A374A7
:1038710002F07B017A0479A8123F3C9004FCE060DD
:103881001790003F7401F0A37404F0A374FCF07B63
:10389100017A0479A4123F3C9004F6E0601790008D
:1038A1003F7401F0A37404F0A374F6F07B017A0471
:1038B10079A0123F3C9004F0E0601790003F740142
:1038C100F0A37404F0A374F0F07B017A04799C12E4
:1038D1003F3C9004EAE0601790003F7401F0A3744C
:1038E10004F0A374EAF07B017A047998123F3C2238
:103F3C0090003CEBF0A3EAF0A3E9F0A3E0FBA3E0D4
:103F4C00FAA3E0F99000011227D824C5F582E434D5
:103F5C0004F583E0FF90003CE0FBA3E0FAA3E0F95A
:103F6C00EF12280590003FE0FBA3E0FAA3E0F990E4
:103F7C0000021227D824C5F582E43404F583E0FF4F
:103F8C0090003CE0FBA3E0FAA3E0F990FFFFEF12F6
:103F9C00281790003FE0FBA3E0FAA3E0F9900003A0
:103FAC001227D824C5F582E43404F583E0FF900091
:103FBC003CE0FBA3E0FAA3E0F990FFFEEF12281718
:103FCC0090003FE0FBA3E0FAA3E0F9900004122775
:103FDC00D824C5F582E43404F583E0FF90003CE07E
:0E3FEC00FBA3E0FAA3E0F990FFFDEF02281717
:103BEF00900032EBF0A3EAF0A3E9F0A3E0FBA3E02F
:103BFF00FAA3E0F91227BFFF900032E0FBA3E0FA2F
:103C0F00A3E0F9EF122805900035E0FBA3E0FAA33B
:103C1F00E0F99000011227D8FF900032E0FBA3E0FB
:103C2F00FAA3E0F9900001EF122817900035E0FB9E
:103C3F00A3E0FAA3E0F99000021227D8FF90003218
:103C4F00E0FBA3E0FAA3E0F9900002EF122817902F
:103C5F000035E0FBA3E0FAA3E0F99000031227D8A8
:103C6F00FF900032E0FBA3E0FAA3E0F9900003EF2E
:103C7F00122817900035E0FBA3E0FAA3E0F99000BB
:103C8F00041227D8FF900032E0FBA3E0FAA3E0F97B
:103C9F00900004EF122817900035E0FBA3E0FAA381
:103CAF00E0F99000051227D8FF900032E0FBA3E067
:0B3CBF00FAA3E0F9900005EF022817BF
:10485D001227BF9000061228179000011227D8903A
:10486D0000071228179000021227D890000812286E
:10487D00179000031227D8900009122817900004F2
:10488D001227D890000A1228179000051227D890E9
:05489D00000B022817CA
:0F46CC00EE75F006A424EAF9740435F0FA7B01C8
:1046DB009000061227D81228059000071227D890B1
:1046EB0000011228179000081227D89000021228F8
:1046FB00179000091227D890000312281790000A70
:10470B001227D890000412281790000B1227D8906C
:05471B00000502281753
:103A040078367C007D017BFF7A5179F37E007F0656
:103A1400122799125344900034EFF012533E900051
:103A240035EFF01253B0900035E0FE900034E0FD25
:103A3400C39E4003023B09EF9D5003023B09E07023
:103A440003023B09E4900032F0900032E0FFC3949B
:103A54000A5021EF75F006A424EAF582E43404F553
:103A640083E07008900032E0A3F08008900032E018
:103A740004F080D5E4900032F0900032E0FF24EAB4
:103A8400F582E43404F583E0FE74362FF582E434E1
:103A940000F583EEF0900032E004F0E0B406DAE4DE
:103AA400900032F0900033E0FF900032E0FEC39FBC
:103AB400500B1246CC900032E004F080E7E4900012
:103AC40032F0900032E0FF2436F582E43400F583CE
:103AD400E0FE900033E075F006A42FF582E435F0A3
:103AE400F583E58224E4F582E5833404F583EEF07E
:103AF400900032E004F0E0B406C8123791123FFFA0
:053B0400E4FF1253B6BE
:013B09002299
:1040AD00125344900033EFF012533E900034EFF072
:1040BD001253B0900035EFF0125338900036EFF0F8
:1040CD00900033E0FFA3E0FEC39F507AA3E09E4033
:1040DD0075900034E0606FE4900032F0900036E0AF
:1040ED0014FF900032E0FEC39F500B1246CC90009F
:1040FD0032E004F080E6900036E01475F006A490EE
:10410D000032F0900036E075F006A4FF900032E02A
:10411D00FDC39FE5F06480F8748098501474EA2D07
:10412D00F582E43404F583E4F0900032E004F0808D
:10413D00D2123791123FFFE4FF1253B69004EAE01A
:06414D007004FF12532C68
:014153002249
:10441600E4900002F0125338900002EFF0E49000AE
:1044260001F0900002E014FF900001E0FEC39F50EF
:104436000B1246CC900001E004F080E6900002E00A
:104446001475F006A4900001F0900002E075F006E5
:10445600A4FF900001E0FDC39FE5F06480F874803E
:1044660098501474EA2DF582E43404F583E4F09050
:104476000001E004F080D2123791123FFF9004EA67
:07448600E07004FF12532C4B
:01448D00220C
:103CCA0078037C007D017BFF7A5179F97E007F06BB
:103CDA00122799125338900002EFF0125338E490E9
:103CEA000001F0900001E0FEC39F5020EE75F0063F
:103CFA00A424EAF582E43404F583E0700790000214
:103D0A00EEF08008900001E004F080D7E490000112
:103D1A00F0900001E0FF24EAF582E43404F583E040
:103D2A00FE74032FF582E43400F583EEF09000016F
:103D3A00E004F0E0B406DAE4900001F0900002E05A
:103D4A00FF900001E0FEC39F500B1246CC90000189
:103D5A00E004F080E7E4900001F0900001E0FF2425
:103D6A0003F582E43400F583E0FE900002E075F08A
:103D7A0006A42FF582E435F0F583E58224E4F58282
:103D8A00E5833404F583EEF0900001E004F0E0B43A
:083D9A0006C8123791023FFF39
:103B0A0078037C007D017BFF7A5179FF7E007F0676
:103B1A00122799125338900002EFF0125338E490AA
:103B2A000001F0900001E0FEC39F5020EE75F00600
:103B3A00A424EAF582E43404F583E07007900002D5
:103B4A00EEF08008900001E004F080D7E4900001D4
:103B5A00F0900001E0FFA3E075F006A42FF582E4DF
:103B6A0035F0F583E58224E4F582E5833404F583B0
:103B7A00E0FE74032FF582E43400F583EEF0900042
:103B8A0001E004F0E0B406C9900002E0900001F000
:103B9A00900001E0FFD39401401AEF75F006A424C7
:103BAA00DEF9740435F0FA7B0112485D900001E0F9
:103BBA0014F080DCE4900001F0900001E0FF24039F
:103BCA00F582E43400F583E0FE74EA2FF582E434EA
:103BDA0004F583EEF0900001E004F0E0B406DA1296
:053BEA003791023FFFCE
:035475000238F109
:05000600E4FF02507E42
:05001E007F0102507E8D
:0553DA007F0202507E7D
:0553DF007F0302507E77
:0553E4007F0402507E71
:0553E9007F0502507E6B
:0553EE007F0602507E65
:0553F3007F0702507E5F
:0553F8007F0802507E59
:0553FD007F0902507E53
:055402007F0A02507E4C
:055407007F0B02507E46
:05540C007F0C02507E40
:055411007F0D02507E3A
:1049F500125392BF01081238F17F021253981253D5
:104A050092BF0319E49004A4F09004A3F09004A2CB
:104A1500F09004A1F0123FFFE4FF12539802427E8A
:104ACF00125392BF01081238F17F021253981253FA
:104ADF0092BF0311E490049FF090049EF0123FFFE9
:084AEF00E4FF12539802427E1D
:104AF700125392BF01081238F17F021253981253D2
:104B070092BF0311E490049CF090049BF0123FFFC6
:084B1700E4FF12539802427EF4
:104EDB00125392BF01081238F17F021253981253EA
:104EEB0092BF030DE490049AF0123FFFE4FF1253BC
:044EFB009802427E59
:104EFF00125392BF01081238F17F021253981253C6
:104F0F0092BF030DE4900498F0123FFBE4FF12539D
:044F1F009802427E34
:104B1F00125392BF01081238F17F021253981253A9
:104B2F0092BF0311E4900496F0900495F0123FFFAA
:084B3F00E4FF12539802427ECC
:105163007F0112509DE49005FAF0A3F0A3F0A3048D
:02517300F02228
:105175007F0212509DE4900602F0A3F0A3F0A30471
:02518500F02216
:105187007F0312509DE490060BF0A3F0A3F0A30455
:02519700F02204
:105199007F0412509DE4900615F0A3F0A3F0A30438
:0251A900F022F2
:1051AB007F0112509DE49005FEF0A3F0A3F0A30441
:0251BB00F022E0
:1051BD007F0212509DE4900607F0A3F0A3F0A30424
:0251CD00F022CE
:1051CF007F0312509DE4900611F0A3F0A3F0A30407
:0251DF00F022BC
:1051E1007F0412509DE490061AF0A3F0A3F0A304EB
:0251F100F022AA
:055416007F0102509D22
:05541B007F0202509D1C
:08529F00E4FF12533E0249C571
:0852A700E4FF1253440249C563
:055420007F0102509D18
:055425007F0202509D12
:05542A007F0302509D0C
:05542F007F0402509D06
:055434007F0502509D00
:055439007F0102509DFF
:05543E007F0202509DF9
:055443007F0302509DF3
:055448007F0402509DED
:05544D007F0102509DEB
:055452007F0202509DE5
:055457007F0102509DE1
:05545C007F0202509DDB
:055461007F0F02507EE8
:055466007F0F02507EE3
:05546B007F0F02507EDE
:055470007F0F02507ED9
:10501800125392BF010812461E7F02125398125370
:1050280092BF030DE4900498F0123FFFE4FF12537F
:025038009822BC
:1050BC00125392BF010812461E7F021253981253CC
:0D50CC0092BF0308123FFAE4FF125398222E
:10503A00125392BF010812461E7F0212539812534E
:10504A0092BF030DE4900496F0123FFFE4FF12535F
:02505A0098229A
:10505C00125392BF010812461E7F0212539812532C
:10506C0092BF030DE4900495F0123FFFE4FF12533E
:02507C00982278
:104B4700125392BF010E7B017A0679021246247F27
:104B570002125398125392BF030DE4900498F01277
:084B67003FFFE4FF1253982206
:104F2300125392BF010E7B017A0679021246247F47
:104F330002125398125392BF0308123FFAE4FF126E
:034F43005398225E
:104B6F00125392BF010E7B017A0679021246247FFF
:104B7F0002125398125392BF030DE4900496F01251
:084B8F003FFFE4FF12539822DE
:104B9700125392BF010E7B017A0679021246247FD7
:104BA70002125398125392BF030DE4900495F0122A
:084BB7003FFFE4FF12539822B6
:104BBF00125392BF010E7B017A06790B1246247FA6
:104BCF0002125398125392BF030DE4900498F012FF
:084BDF003FFFE4FF125398228E
:104F4600125392BF010E7B017A06790B1246247F1B
:104F560002125398125392BF0308123FFAE4FF124B
:034F66005398223B
:104BE700125392BF010E7B017A06790B1246247F7E
:104BF70002125398125392BF030DE4900496F012D9
:084C07003FFFE4FF1253982265
:104C0F00125392BF010E7B017A06790B1246247F55
:104C1F0002125398125392BF030DE4900495F012B1
:084C2F003FFFE4FF125398223D
:104C3700125392BF010E7B017A0679151246247F23
:104C470002125398125392BF030DE4900498F01286
:084C57003FFFE4FF1253982215
:104F6900125392BF010E7B017A0679151246247FEE
:104F790002125398125392BF0308123FFAE4FF1228
:034F890053982218
:104C5F00125392BF010E7B017A0679151246247FFB
:104C6F0002125398125392BF030DE4900496F01260
:084C7F003FFFE4FF12539822ED
:104C8700125392BF010E7B017A0679151246247FD3
:104C970002125398125392BF030DE4900495F01239
:084CA7003FFFE4FF12539822C5
:104CAF00125392BF010E7B017A0579FE1246247FC3
:104CBF0002125398125392BF030DE4900498F0120E
:084CCF003FFFE4FF125398229D
:104F8C00125392BF010E7B017A0579FE1246247FE3
:104F9C0002125398125392BF0308123FFAE4FF1205
:034FAC00539822F5
:104CD700125392BF010E7B017A0579FE1246247F9B
:104CE70002125398125392BF030DE4900496F012E8
:084CF7003FFFE4FF1253982275
:104CFF00125392BF010E7B017A0579FE1246247F73
:104D0F0002125398125392BF030DE4900495F012C0
:084D1F003FFFE4FF125398224C
:104D2700125392BF010E7B017A0679071246247F40
:104D370002125398125392BF030DE4900498F01295
:084D47003FFFE4FF1253982224
:104FAF00125392BF010E7B017A0679071246247FB6
:104FBF0002125398125392BF0308123FFAE4FF12E2
:034FCF00539822D2
:104D4F00125392BF010E7B017A0679071246247F18
:104D5F0002125398125392BF030DE4900496F0126F
:084D6F003FFFE4FF12539822FC
:104D7700125392BF010E7B017A0679071246247FF0
:104D870002125398125392BF030DE4900495F01248
:084D97003FFFE4FF12539822D4
:104D9F00125392BF010E7B017A0679111246247FBE
:104DAF0002125398125392BF030DE4900498F0121D
:084DBF003FFFE4FF12539822AC
:104FD200125392BF010E7B017A0679111246247F89
:104FE20002125398125392BF0308123FFAE4FF12BF
:034FF200539822AF
:104DC700125392BF010E7B017A0679111246247F96
:104DD70002125398125392BF030DE4900496F012F7
:084DE7003FFFE4FF1253982284
:104DEF00125392BF010E7B017A0679111246247F6E
:104DFF0002125398125392BF030DE4900495F012D0
:084E0F003FFFE4FF125398225B
:104E1700125392BF010E7B017A06791A1246247F3C
:104E270002125398125392BF030DE4900498F012A4
:084E37003FFFE4FF1253982233
:104FF500125392BF010E7B017A06791A1246247F5D
:1050050002125398125392BF0308123FFAE4FF129B
:035015005398228B
:104E3F00125392BF010E7B017A06791A1246247F14
:104E4F0002125398125392BF030DE4900496F0127E
:084E5F003FFFE4FF125398220B
:104E6700125392BF010E7B017A06791A1246247FEC
:104E770002125398125392BF030DE4900495F01257
:084E87003FFFE4FF12539822E3
:0852AF00E4FF12533202510F1B
:0852B700E4FF1253380249C55F
:0852BF00E4FF12534A02510FF3
:0852C700E4FF12535002510FE5
:0852CF00E4FF12535602510FD7
:0852D700E4FF12535C02510FC9
:0852DF00E4FF12536202510FBB
:0852E700E4FF12536802510FAD
:0852EF00E4FF12536E02510F9F
:0852F700E4FF12537402510F91
:0852FF00E4FF12537A02510F83
:08530700E4FF12538002510F74
:08530F00E4FF1253860249C5B8
:06538C00123791023FFF01
:101E86004106A9004106AE004106AC004106AD0080
:101E96004106AA004106A8004106AF004106AB0074
:10523800438901758C3C758AB0D2AFD2A9D28C2231
:0E525600438910758DFF758B9CD2AFD2AB22B1
:03000B00023E763C
:103E7600C0E0C0F0C083C082C0D075D000C000C012
:0D3E860001C002C003C004C005C006C00793
:103E9300900493E4F0C28D758C3C758AB01253265E
:103EA300900493EFF09006A9E004F0E0B40A0B90BD
:103EB30006AEE004F09006A9E4F09006AEE0C394E9
:103EC300044002E4F09006ACE0B40104A3E004F083
:103ED3001253CEBF01149006AAE004F0E0D3947805
:103EE30040081253D49006AAE4F0900493E0FFB480
:103EF3005F159006A8E004F0E0B4140B9006AFE061
:103F030004F09006A8E4F0EF645F60129006ABE063
:0E3F130004F0E0D394C84006E4F0FF12532CF3
:103F2100D007D006D005D004D003D002D001D000F4
:0B3F3100D0D0D082D083D0F0D0E0329E
:03001B0002477128
:10477100C0E0C0F0C083C082C0D075D000C000C00E
:0D47810001C002C003C004C005C006C0078F
:10478E00E4FF125326C28F758DFF758B9CEFB42EEE
:09479E0005121F52800312360AB5
:1047A700D007D006D005D004D003D002D001D00066
:0B47B700D0D0D082D083D0F0D0E03210
:055392009006AEE0FFF3
:0153970022F3
:065398009006AEEFF022CA
:06539E009006ACEFF022C6
:0553A4009006ADE0FFE2
:0153A90022E1
:0653AA00E49006ADF022C4
:0553B0009006AFE0FFD4
:0153B50022D5
:0653B6009006AFEFF022AB
:0653BC00E49006ABF022B4
:0B1EA600480698140F09040C220006E7
:0448A200E0FD7F8A2C
:1048A600D2A0EF54FEFFE4FEEF30E004D2A1800276
:1048B600C2A1D2A2C2A2EFC313FF0EEEB408E9E46E
:1048C600FEED30E004D2A18002C2A1D2A2C2A2EDC6
:0A48D600C313FD0EEEB408E9C2A002
:0148E00022B5
:1048E100D2A0EF4401FFE4FDEF30E004D2A1800249
:1048F100C2A1D2A2C2A2EFC313FF0DEDB408E9E435
:10490100FDEEC313FE30A1054480FE8004EE547F0A
:0E491100FED2A2C2A20DEDB408E7C2A0AF060E
:01491F002275
:10427E00E4FF74982FF582E43406F583E0FE75F0C2
:10428E000A84FDEE75F00A8474A02FF582E43406DC
:10429E00F583E5F0F0EDC454F0FE74A02FF582E442
:1042AE003406F583E02EF00FEFB408C6E4FD7F8EE2
:1042BE001248A67D807F801248A69006A1E0FD7F61
:1042CE008C1248A6A3E0FD7F881248A6A3E0FD7FCE
:1042DE00861248A69006A71248A29006A4E0FD7F7B
:1042EE00841248A6A3E0FD7F821248A6A3E0FD7FBC
:0F42FE00801248A6A31248A27D807F8E0248A698
:10448E007F8C1248E19006A1EFF07F881248E1A3DD
:10449E00EFF07F861248E1A3EFF07F841248E1A38C
:1044AE00EFF07F821248E1A3EFF07F801248E1EF38
:1044BE00547FA3F07F8A1248E1A3EFF0E4FF74A0CB
:1044CE002FF582E43406F583E0FEC4540FFDEE545E
:1044DE000FFE74982FF582E43406F583EEF0ED7539
:1044EE00F00AA4FE74982FF582E43406F583E02ECC
:0644FE00F00FEFB408C846
:014504002294
:0B528B00C2A0C2A2E4FD7F800248A682
:101EB10041066300410662004106680041066B006D
:101EC10041067200410658004106570043066F0063
:101ED1000000420669004642066D00784206540041
:101EE10000420652000042066000004206640046BD
:101EF100420666007842067400004106560041061B
:101F0100730041066C004106590043065A00000067
:061F110043065D00000024
:07531F00D2AFD2A8D2882210
:030003000253178E
:08531700C2A8208E02D28E32E2
:1050D900E4900663F0900662F090066BF090066823
:0C50E900F0900672F0900657F0A3F02241
:10360A0030B20590066B8003900668E004F09006DD
:10361A0058E004F0E0D394A07480948F4007C28EDF
:10362A00D2A80250D9900657E014603F146075146E
:10363A0070030236F92403600302378990066BE0AF
:10364A00D394004003023789900668E0FFC39006CE
:10365A006AE09F900669E094004003023790900662
:10366A0057E004F0E490066BF0803490066BE0FFBC
:10367A00FD900668E02DFDE433FCC390066EE09DE4
:10368A0090066DE09C5003023789EFD394015003F2
:10369A0002379030A802C2A8900657E004F0E490DE
:1036AA000668F022900668E0D39400401390066BF7
:1036BA00E0900663F0E490066BF0900657E004F0A1
:1036CA00900669E0FEA3E0FF90066EE02FFF9006E9
:1036DA006DE03EFEEF7803CEC313CE13D8F9FF9008
:1036EA00066BE0D39FE49E5003023790023789901D
:1036FA00066BE0D39400405C900668E0FF90066297
:10370A00F0E4900668F09006577402F0900672E0B2
:10371A00131313541FFE246FF582E43406F583E075
:10372A00FD25E0F0900663E0D39F400E746F2EF5FE
:10373A0082E43406F583E04401F0900672E004F076
:10374A00E0D39417400EC28E1250D99006567401D7
:10375A00F0D2A822900669E0FEA3E0FF90066EE090
:10376A002FFF90066DE03EFEEF7803CEC313CE1313
:10377A00D8F9FF900668E0D39FE49E4009800012C2
:07378A0050D9D2A8C28E2223
:103DA200900656E064016003023E75C2A890066C5C
:103DB200E0146027046003023E6E90066FE09006F6
:103DC2005AF0900670E090065BF0900671E0900663
:103DD2005CF090066C7401F0023E6E90066FE0FF9C
:103DE20090065AE06F706D900670E0FE90065BE000
:103DF2006E7061900671E0FD90065CE06D7055A3F7
:103E0200E06F7012A3E06E700DA3E0B50508900696
:103E120059E07020800090066FE090065DF09006F9
:103E220070E090065EF0900671E090065FF09006FA
:103E3200737401F09006597401F01253BCE49006B9
:103E42006FF0A3F0A3F090065AF0A3F0A3F090064F
:103E52006CF0801890066FE090065AF0900670E0C1
:103E620090065BF0900671E090065CF0D2A8E490B8
:043E72000656F022DE
:101F520030B20590066B8003900668E004F09006AC
:101F620058E004F0E0D394A07480948F4006C28EAF
:101F7200D2A88027900657E014605A1470030220FA
:101F8200661470030220B1240360030221FE90064E
:101F92006BE0D394004007D2A8C28E0250D99006BB
:101FA20054E0FEA3E0FF7C007D0F122839EF243CB1
:101FB200FFE43EFE900668E0D39FEC9E50030222AF
:101FC20005900657E004F0900669EEF0A3EFF0E406
:101FD200A3F0022061900652E0FEA3E0FF7C007DA8
:101FE2000F122839EF2478FFE43EFE90066BE0F9E9
:101FF200FD900668E02DFDE433FCD3ED9FEC9E409E
:1020020022E9701C900653E004F07006900652E03C
:1020120004F0900655E004F07006900654E004F0D7
:102022000221FEE9D394015003022205900652E0F8
:10203200FEA3E0FF7C007D0F122839EF2478FFE435
:102042003E90066DF0A3EFF0E4900652F0A3F0A3E9
:10205200F0A3F030A802C2A8900657E004F0E49082
:102062000668F022900668E0D39400401390066B55
:10207200E0900663F0E490066BF0900657E004F0FF
:10208200900669E0FEA3E0FF90066EE02FFF900647
:102092006DE03EFEEF7803CEC313CE13D8F9FF9066
:1020A200066BE0D39FE49E50030222050221FE90BC
:1020B200066BE0D3940050030221D3900668E0FF40
:1020C200900662F0E4900668F09006577402F09071
:1020D2000672E0131313541FFE246FF582E43406D4
:1020E200F583E025E0F0900663E0FDD39F400E7497
:1020F2006F2EF582E43406F583E04401F090066227
:10210200E02DFEE433900660F0A3CEF0900672E07C
:1021120004F0E0D3941750030221D3C28E1250D997
:102122009006567401F0900675E004F07006900671
:1021320074E004F090066DE0FEA3E0FF900667E015
:102142002FF0900666E03EF0E0C313FEA3E013FF1B
:1021520090066DEEF0A3EFF0900666EEF0A3EFF0BE
:10216200D3900675E09401900674E09400405F906D
:102172000664E0FEA3E0FF900669E0FCA3E0FD9F99
:10218200FFEC9EFED3EF941EEE9400401590066580
:10219200E09DFF900664E09CFED3EF941EEE940057
:1021A200502C900669E0FEA3E0FF900665E02FF058
:1021B200900664E03EF0E0C313FEA3E013FF900636
:1021C20069EEF0A3EFF0900664EEF0A3EFF0D2A870
:1021D20022900669E0FEA3E0FF90066EE02FFF90DA
:1021E200066DE03EFEEF7803CEC313CE13D8F9FF9F
:1021F200900668E0D39FE49E400980001250D9D235
:04220200A8C28E22BE
:0553C200900673E0FFFE
:0153C70022C3
:0653C800E4900673F022E0
:0553CE00900659E0FF0C
:0153D30022B7
:0653D400E4900659F022EE
:1024B2006465636F6465725F76616C206973202561
:1024C20030327820253032782025303278202E0D97
:1024D2000A0066696E642061207461626C65210085
:1024E2006465636F646572207375636365737321DA
:1024F20000646973706C61795F72616D2069732029
:102502002530327820253032782025303278202547
:102512003032782E0D0A0063616C6C2069732025BD
:1025220030327820253032782025303278202E0D36
:102532000A0063616C6C2069732025303278202593
:10254200303278202530327820253032782E0D0A2C
:102552000063616C6C6572206973207269676973CC
:102562007465722073756363657373200D0A006866
:102572006F737420697320253032782025303278C9
:102582002025303278202E0D0A00686F737420697E
:102592007320253032782025303278202530327869
:1025A20020253032782E0D0A00686F73742069730B
:1025B20020726967697374657220737563636573EA
:1025C20073200D0A00616C61726D206973202530E1
:1025D200327820253032782025303278202E0D0AAC
:1025E20000616C61726D206973202530327820257C
:1025F200303278202530327820253032782E0D0A7C
:1026020000616C61726D206973207269676973740D
:1026120065722073756363657373200D0A006361CD
:102622006E63656C20697320253032782025303244
:10263200782025303278202E0D0A0063616E6365A2
:102642006C2069732025303278202530327820259D
:1026520030327820253032782E0D0A0063616E63A5
:10266200656C20697320726967697374657220737F
:10267200756363657373200D0A0073696E676C6519
:102682005F6B6579A3BA20200025303264200020D8
:102692000D0A006D756C7469706C655F6B6579A36A
:1026A200BA00253264200000000000000000000093
:1026B2000000000000000000000000000000000018
:0726C2000000000000000011
:0B1F17004806B00000000000000000C1
:10002600780C7C007D017BFF7A2679A97E007F20F3
:10003600122799E490002CF0A3F0A3F0A3F0A3F00C
:10004600A3F012532690002CEFF012538090002D4F
:10005600EFF012538690002EEFF012533290002FDD
:10006600EFF0125338900030EFF0125368900031E1
:10007600EFF0123DA21253C2EF64016003020BF4CB
:100086007BFF7A2479B290065DE0FF90003AE4F0B7
:10009600A3EFF090065EE0FF90003CE4F0A3EFF0E3
:1000A60090065FE0FF90003EE4F0A3EFF012467783
:1000B60090002CE024CE24FC40030206B824FC4029
:1000C600030207DD24FC40030208F424FC4003027B
:1000D6000A0B24E47003020B3614700302032C246B
:1000E6005F6003020BF1E4FF1253B690065FE0FF78
:1000F60054F0600302018590065DE0FEC4540FFDD6
:10010600900031E0FC6D6005EC640B707290002D80
:10011600E0B4010CEF540F24DAF582E43405800DC7
:1001260090065FE0540F24DAF582E43404F583E0A8
:10013600900004F090065DE0FF900005EDF0EF54AE
:100146000FA3F090065EE0FFC4540F900007F0EF97
:10015600540FA3F0A3EEF0124AA69000357401F0F6
:10016600A37400F0A37404F07B017A0479EA123BCD
:10017600EF123791123FFF7F5F12532C020BF1E40F
:10018600900001F0900001E0FFC394304003020BA1
:10019600F1EF75F020A4FDACF07B017A00790C90AC
:1001A600003D7420F07FA01243AF125248E4900045
:1001B60000F0900000E0FFC3942040030203237484
:1001C6000C2FF582E43400F583E0600302031A7B0A
:1001D600FF7A2479D4124677900001E075F020A4C6
:1001E600FF900000E07C002FFFEC35F0FEEF780377
:1001F600C333CE33CED8F92400FDEE3407FC7B01A1
:100206007A00790490003D7408F07FA01243AF1283
:10021600524890002DE06401602B90065DE0FF904F
:100226000009E0B5071F90065EE0FF90000AE0B502
:10023600071390065FE0C4540FFF90000BE0FEC466
:10024600540F6F603890002DE06401600302031ABA
:1002560090065DE0FF900009E06F600302031A90CC
:10026600065EE0FF90000AE06F600302031A900644
:100276005FE0FF90000BE06F600302031A90002D11
:10028600E090065FB4010CE0540F24DAF582E43402
:1002960005800AE0540F24DAF582E43404F583E09D
:1002A600900004F0124AA69000357401F0A3740081
:1002B600F0A37404F07B017A0479EA123BEF12375B
:1002C60091123FFF7BFF7A2479E21246777BFF7A11
:1002D6002479F39004EAE0FF90003AE4F0A3EFF00B
:1002E6009004EBE0FF90003CE4F0A3EFF09004EC08
:1002F600E0FF90003EE4F0A3EFF09004EDE0FF9005
:100306000040E4F0A3EFF01246777F5F12532C1201
:1003160053C88009900000E004F00201B890000183
:10032600E004F002018AE4FF1253B690065FE0FF94
:1003360054F0600302047390065DE0FEC4540FFDA2
:10034600900031E0FC6D6008EC640B6003020473FE
:1003560090002DE0B4010CEF540F24DAF582E4345A
:1003660005800D90065FE0540F24DAF582E434042C
:10037600F583E0900004F090065DE0FF900005ED47
:10038600F0EF540FA3F090065EE0FFC4540F900008
:1003960007F0EF540FA3F0A3EEF090002FE06401F6
:1003A6007063A3E0900002F0900002E0FFD3940196
:1003B600401AEF75F006A424DEF9740435F0FA7BD2
:1003C6000112485D900002E014F080DCE490000227
:1003D600F0900002E0FFC39406501474EA2FF582F1
:1003E600E43404F583E4F0900002E004F080E29047
:1003F60000357401F0A37400F0A37404F07B017A55
:100406000479EA805490002FE064026003020BF145
:10041600900003F0900030E0FF900003E0FEC39FE1
:100426004003020BF1EE75F006A424EAF582E434EB
:1004360004F583E0702F900003E075F006A424EA2B
:10044600F9740435F0FA7B01C003900035EBF0A394
:100456007400F0A37404F0D003123BEF123791122C
:100466003FFF020BF1900003E004F080A7E4900048
:1004760001F0900001E0FFC394304003020BF1EF5E
:1004860075F020A4FDACF07B017A00790C90003D5C
:100496007420F07FA01243AF125248E4900000F09F
:1004A600900000E0FFC3942040030206AF740C2FB7
:1004B600F582E43400F583E060030206A6900001AD
:1004C600E075F020A4FF900000E07C002FFFEC35E3
:1004D600F0FEEF7803C333CE33CED8F92400FDEE19
:1004E6003407FC7B017A00790490003D7408F07FA4
:1004F600A01243AF12524890002DE06401602B9089
:10050600065DE0FF900009E0B5071F90065EE0FF7C
:1005160090000AE0B5071390065FE0C4540FFF9001
:10052600000BE0FEC4540F6F603890002DE06401AC
:1005360060030206A690065DE0FF900009E06F608A
:10054600030206A690065EE0FF90000AE06F6003D5
:100556000206A690065FE0FF90000BE06F600302C4
:1005660006A690002DE090065FB4010CE0540F241F
:10057600DAF582E43405800AE0540F24DAF582E4E1
:100586003404F583E0900004F090002FE0640170DD
:1005960063A3E0900002F0900002E0FFD3940140D4
:1005A6001AEF75F006A424DEF9740435F0FA7B011F
:1005B60012485D900002E014F080DCE4900002F046
:1005C600900002E0FFC39406501474EA2FF582E40B
:1005D6003404F583E4F0900002E004F080E2900039
:1005E600357401F0A37400F0A37404F07B017A045F
:1005F60079EA804E90002FE064027059900003F073
:10060600900030E0FF900003E0FEC39F5047EE7578
:10061600F006A424EAF582E43404F583E0702E9013
:100626000003E075F006A424EAF9740435F0FA7BB9
:1006360001C003900035EBF0A37400F0A37404F03E
:10064600D003123BEF123791123FFF800890000350
:10065600E004F080AB7BFF7A2479E21246777BFFD9
:100666007A2479F39004EAE0FF90003AE4F0A3EFED
:10067600F09004EBE0FF90003CE4F0A3EFF0900470
:10068600ECE0FF90003EE4F0A3EFF09004EDE0FF15
:10069600900040E4F0A3EFF01246771253C88009A9
:1006A600900000E004F00204A6900001E004F002CD
:1006B60004787F3512532C90065FE0540F9006B0F5
:1006C600F09005FAE09006B1F09005FBE09006B2D6
:1006D600F09005FCE09006B3F09005FDE09006B4BE
:1006E600F090065DE09006B5F090065EE09006B6E6
:1006F600F090002DE090065FB40103E08003E05423
:10070600F09006B7F07B017A0679B012347D40038B
:10071600020BF17BFF7A2579199006B5E0FF900070
:100726003AE4F0A3EFF09006B6E0FF90003CE4F068
:10073600A3EFF09006B7E0FF90003EE4F0A3EFF0E1
:100746001246777BFF7A2579349005FAE0FF900010
:100756003AE4F0A3EFF09005FBE0FF90003CE4F0F4
:10076600A3EFF09005FCE0FF90003EE4F0A3EFF06D
:100776009005FDE0FF900040E4F0A3EFF01246770D
:100786007BFF7A2579531246771252489005FDE091
:100796006409703D9005FCE06409702F9005FBE04C
:1007A600B409229005FAE004F0E4A3F0A3F0900562
:1007B600FAE0B4150AE4F09005FD04F0020BF1909E
:1007C60005FD020B0D9005FB020B169005FC020BB6
:1007D600249005FD020B307F3912532C90065FE002
:1007E600FE540F9006B0F0900602E09006B1F0902D
:1007F6000603E09006B2F0900604E09006B3F0908F
:100806000605E09006B4F090065DE09006B5F0901F
:10081600065EE09006B6F0EE54F0A3F07B017A0691
:1008260079B0122FAC4003020BF17BFF7A25797168
:100836009006B5E0FF90003AE4F0A3EFF09006B61C
:10084600E0FF90003CE4F0A3EFF09006B7E0FF90E5
:10085600003EE4F0A3EFF01246777BFF7A25798C11
:10086600900602E0FF90003AE4F0A3EFF090060352
:10087600E0FF90003CE4F0A3EFF0900604E0FF9068
:10088600003EE4F0A3EFF0900605E0FF900040E4A0
:10089600F0A3EFF01246777BFF7A2579AB12467705
:1008A600125248900605E06409703D900604E06423
:1008B60009702F900603E0B40922900602E004F0C6
:1008C600E4A3F0A3F0900602E0B4150AE4F0900663
:1008D6000504F0020BF1900605020B0D90060302CB
:1008E6000B16900604020B24900605020B307F3D82
:1008F60012532C90065FE0FE540F9006B0F090065F
:100906000BE09006B1F090060CE09006B2F090066F
:100916000DE09006B3F090060EE09006B4F0900657
:100926005DE09006B5F090065EE09006B6F0EE54F7
:10093600F0A3F07B017A0679B01231474003020B2F
:10094600F17BFF7A2579C79006B5E0FF90003AE47F
:10095600F0A3EFF09006B6E0FF90003CE4F0A3EFC2
:10096600F09006B7E0FF90003EE4F0A3EFF01246E9
:10097600777BFF7A2579E390060BE0FF90003AE457
:10098600F0A3EFF090060CE0FF90003CE4F0A3EF3C
:10099600F090060DE0FF90003EE4F0A3EFF0900625
:1009A6000EE0FF900040E4F0A3EFF01246777BFFE5
:1009B6007A26790312467712524890060EE06409A9
:1009C600703D90060DE06409702F90060CE0B409A6
:1009D6002290060BE004F0E4A3F0A3F090060BE0EF
:1009E600B4150AE4F090060E04F0020BF190060E20
:1009F600020B0D90060C020B1690060D020B2490AE
:100A06000605020B307F4112532C90065FE0FE5420
:100A16000F9006B0F0900615E09006B1F09006161D
:100A2600E09006B2F0900617E09006B3F090061834
:100A3600E09006B4F090065DE09006B5F090065E94
:100A4600E09006B6F0EE54F0A3F07B017A0679B09A
:100A56001232E24003020BF17BFF7A2679209006E0
:100A6600B5E0FF90003AE4F0A3EFF09006B6E0FFA1
:100A760090003CE4F0A3EFF09006B7E0FF90003E54
:100A8600E4F0A3EFF01246777BFF7A26793D9006D5
:100A960015E0FF90003AE4F0A3EFF0900616E0FFB1
:100AA60090003CE4F0A3EFF0900617E0FF90003EC4
:100AB600E4F0A3EFF0900618E0FF900040E4F0A306
:100AC600EFF01246777BFF7A26795E12467712524E
:100AD60048900618E06409704E900617E0640970A5
:100AE6003A900616E0B40925900615E004F0E4A352
:100AF600F0A3F0900615E0B4150AE4F09006180489
:100B0600F0020BF19006187401F0020BF190061634
:100B1600E004F0E4A3F0A3F0020BF1900617E00462
:100B2600F0E4A3F0020BF1900618E004F0020BF1DA
:100B360090002DE0B40112A3E0FF90065FE0540F91
:100B460024DAF582E43405801290002EE0FF900648
:100B56005FE0540F24DAF582E43404F583EFF07B8A
:100B6600FF7A26797C124677E4900000F090000028
:100B7600E0FFC3941050257BFF7A26798B74DA2F19
:100B8600F582E43405F583E0FF90003AE4F0A3EF44
:100B9600F0124677900000E004F080D17BFF7A26C1
:100BA60079911246777BFF7A267995124677E490FB
:100BB6000000F0900000E0FFC3941050257BFF7A00
:100BC6002679A474DA2FF582E43404F583E0FF90E5
:100BD600003AE4F0A3EFF0124677900000E004F04C
:100BE60080D17BFF7A2679911246771253C812403C
:040BF600AD023A040E
:1022060063616C6C657220726567697374657220B0
:102216006973206F6C6421200A0D0063616C6C6524
:1022260072207265676973746572206973206E65C2
:102236007721200A0D00686F7374207265676973D1
:10224600746572206973206F6C6421200A0D006822
:102256006F73742072656769737465722069732081
:102266006E657721200A0D00616C61726D657220C2
:102276007265676973746572206973206F6C642177
:10228600200A0D00616C61726D6572207265676966
:1022960073746572206973206E657721200A0D00BC
:1022A60063616E63656C65722072656769737465D8
:1022B60072206973206F6C6421200A0D0063616EC1
:1022C60063656C65722072656769737465722069EF
:1022D60073206E657721200A0D0063616C6C657250
:1022E6002069732064656C65746520737563636526
:1022F6007373200D0A0063616C6C206973202530AE
:10230600327820253032782025303278202E0D0A7A
:102316000063616C6C20697320253032782025308B
:102326003278202530327820253032782E0D0A007A
:10233600686F737465722069732064656C65746573
:102346002073756363657373200D0A00686F737479
:1023560020697320253032782025303278202530C8
:102366003278202E0D0A00686F7374206973202559
:1023760030327820253032782025303278202530CA
:1023860032782E0D0A00686F7374206973206465B5
:102396006C6574652073756363657373200D0A003D
:1023A600616C61726D65722069732064656C657419
:1023B600652073756363657373200D0A00616C6134
:1023C600726D2069732025303278202530327820CE
:1023D60025303278202E0D0A00616C61726D2069FD
:1023E6007320253032782025303278202530327817
:1023F60020253032782E0D0A00616C61726D2069DD
:10240600732064656C6574652073756363657373A7
:10241600200D0A0063616E63656C65722069732026
:1024260064656C6574652073756363657373200DED
:102436000A0063616E63656C20697320253032780B
:1024460020253032782025303278202E0D0A006380
:10245600616E63656C2069732025303278202530E3
:102466003278202530327820253032782E0D0A0039
:1024760063616E63656C2069732064656C65746561
:102486002073756363657373200D0A00FFFFFFFFFA
:10249600FFFFFFFFFFFFFFFFFFFFFFFFFFFFFFFF46
:0C24A600FFFFFFFFFFFFFFFFFFFFFFFF36
:101F22006020062A000000000000000000000000FF
:101F3200000000000000000000000000000000009F
:0F1F42000000000048064A0000000000000000F8
:03547800DFFE2232
:10513C00AE07AF061EEF600C7FF51254787FF512A8
:05514C00547880EE2202
:10512600D2B400D2B50000000000C2B400000000F6
:0651360000C2B5000022DA
:10520500C2B400D2B50000000000D2B40000000016
:015215002276
:10492000E4FEEFA806088002C333D8FC30E704D2C7
:10493000B48002C2B400D2B50000000000C2B50EBF
:10494000EEB408DE0000D2B40000D2B500000030A2
:0C495000B404C20A8002D20AC2B5000002
:01495C002238
:104EB600E4FFD2B4FE00C2B50000000000D2B50087
:104EC60000EF25E0FF30B4010F00000EEEB408E558
:044ED600C2B5000061
:014EDA0022B5
:10521600C2B4000000D2B50000000000C2B5000014
:015226002265
:10522700D2B4000000D2B50000000000C2B50000F3
:015237002254
:10456600900004E075F020A4ACF07A06792AFD7B71
:0945760001742090003DF07FA0CB
:10457F00125126124920200A02C322ECFF124920B1
:10458F00200A02C322AF05124920200A02C322E4E7
:10459F00FD90003DE0FFEDC39F50161227BFFF12A5
:1045AF004920200A02C322740129F9E43AFA0D8046
:0545BF00E0125205D3DB
:0145C40022D4
:10439900EF75F020A4FDACF07A06792A74207B0130
:0643A90090003DF07FA032
:0543AF00900037EFF063
:1043B400125126E0FF124920200A02C322ECFF1208
:1043C4004920200A02C322AF05124920200A02C351
:1043D40022125126900037E004FF124920200A02DD
:1043E400C322E4FD90003DE014FFEDC39F5014127E
:1043F4004EB6EF122805125216740129F9E43AFA5E
:104404000D80E1124EB6EF12280512522712520502
:01441400D3D4
:014415002284
:0B347D00900032EBF0A3EAF0A3E9F0AE
:10348800E4A3F0A3F0900035F0900035E0FFC3947A
:10349800384003023568124399125248E4900036C6
:1034A800F0900036E0FFC39420400302355F742A91
:1034B8002FF582E43406F583E06003023556900068
:1034C80035E075F020A4FFA3E07C002FFFEC35F079
:1034D800FEEF7803C333CE33CED8F92400FDEE34A3
:1034E80007FC7A06794A74081243A71252489000DA
:1034F80032E0FBA3E0FAA3E0F99000051227D8FF19
:1035080090064FE06F70479000061227D8FF90068C
:1035180050E06F70399000071227D8FF900651E0ED
:103528006F702B90064BE09005FAF090064CE090F7
:1035380005FBF090064DE09005FCF090064EE090FB
:1035480005FDF07BFF7A227906124677C3229000A8
:1035580036E004F00234A9900035E004F00234911A
:10356800E4900035F0900035E0FFC394204003025A
:103578003608124399125248E4900036F09000360B
:10358800E0FFC394205070742A2FF582E43406F5C6
:1035980083E0605A900035E075F020A4FFA3E07C3A
:1035A800002FFFEC35F0FEEF7803C333CE33CED8CF
:1035B800F92400FDEE3407FC900032E0FBA3E0FAAA
:1035C800A3E0F97408124579125248900036E024B5
:1035D8002AF582E43406F583E4F090003512456953
:1035E8001252487BFF7A227921124677D322900023
:1035F80036E004F0023585900035E004F002356DC0
:01360800C3FE
:01360900229E
:0B2FAC00900032EBF0A3EAF0A3E9F084
:102FB700E4A3F0A3F0900035F0900035E0FFC39450
:102FC70038400302309F124399125248E49000366A
:102FD700F0900036E0FFC394204003023096742A35
:102FE7002FF582E43406F583E0600302308D90000C
:102FF70035E075F020A4FFA3E07C002FFFEC35F04F
:10300700FEEF7803C333CE33CED8F92400FDEE3478
:1030170007FC7B017A06794A90003D7408F07FA08F
:103027001243AF125248900032E0FBA3E0FAA3E04C
:10303700F99000051227D8FF90064FE06F70479070
:1030470000061227D8FF900650E06F7039900007EE
:103057001227D8FF900651E06F702B90064BE09037
:103067000602F090064CE0900603F090064DE090C3
:103077000604F090064EE0900605F07BFF7A227971
:103087003C124677C322900036E004F0022FD89016
:103097000035E004F0022FC0E4900035F0900035D1
:1030A700E0FFC39408400302314512439912524886
:1030B700E4900036F0900036E0FFC3942050767419
:1030C7002A2FF582E43406F583E06060900035E04E
:1030D70075F020A4FFA3E07C002FFFEC35F0FEEF96
:1030E7007803C333CE33CED8F92400FDEE3437FC52
:1030F700900032E0FBA3E0FAA3E0F990003D7408EA
:10310700F07FA012457F125248900036E0242AF53E
:1031170082E43406F583E4F09000351245691252D3
:10312700487BFF7A227955124677D322900036E002
:0F31370004F00230BC900035E004F00230A4C375
:013146002266
:0B314700900032EBF0A3EAF0A3E9F0E7
:10315200E4A3F0A3F0900035F0900035E0FFC394B3
:1031620038400302323A124399125248E490003630
:10317200F0900036E0FFC394204003023231742AFB
:103182002FF582E43406F583E060030232289000D2
:1031920035E075F020A4FFA3E07C002FFFEC35F0B2
:1031A200FEEF7803C333CE33CED8F92400FDEE34DC
:1031B20007FC7B017A06794A90003D7408F07FA0F3
:1031C2001243AF125248900032E0FBA3E0FAA3E0B0
:1031D200F99000051227D8FF90064FE06F704790D4
:1031E20000061227D8FF900650E06F703990000752
:1031F2001227D8FF900651E06F702B90064BE0909B
:10320200060BF090064CE090060CF090064DE09014
:10321200060DF090064EE090060EF07BFF7A2279C2
:103222006E124677C322900036E004F002317390AA
:103232000035E004F002315BE4900035F090003597
:10324200E0FFC3940840030232E01243991252484D
:10325200E4900036F0900036E0FFC394205076747C
:103262002A2FF582E43406F583E06060900035E0B1
:1032720075F020A4FFA3E07C002FFFEC35F0FEEFF9
:103282007803C333CE33CED8F92400FDEE3427FCC5
:10329200900032E0FBA3E0FAA3E0F990003D74084D
:1032A200F07FA012457F125248900036E0242AF5A2
:1032B20082E43406F583E4F0900035124569125237
:1032C200487BFF7A22798A124677D322900036E031
:0F32D20004F0023257900035E004F002323FC39F
:0132E10022CA
:0B32E200900032EBF0A3EAF0A3E9F04B
:1032ED00E4A3F0A3F0900035F0900035E0FFC39417
:1032FD003840030233D5124399125248E4900036F8
:10330D00F0900036E0FFC3942040030233CC742AC2
:10331D002FF582E43406F583E060030233C3900099
:10332D0035E075F020A4FFA3E07C002FFFEC35F015
:10333D00FEEF7803C333CE33CED8F92400FDEE343F
:10334D0007FC7B017A06794A90003D7408F07FA056
:10335D001243AF125248900032E0FBA3E0FAA3E013
:10336D00F99000051227D8FF90064FE06F70479037
:10337D0000061227D8FF900650E06F7039900007B5
:10338D001227D8FF900651E06F702B90064BE090FE
:10339D000615F090064CE0900616F090064DE09064
:1033AD000617F090064EE0900618F07BFF7A227912
:1033BD00A6124677C322900036E004F002330E9039
:1033CD000035E004F00232F6E4900035F09000355F
:1033DD00E0FFC39408400302347B12439912524814
:1033ED00E4900036F0900036E0FFC39420507674E0
:1033FD002A2FF582E43406F583E06060900035E015
:10340D0075F020A4FFA3E07C002FFFEC35F0FEEF5C
:10341D007803C333CE33CED8F92400FDEE342FFC20
:10342D00900032E0FBA3E0FAA3E0F990003D7408B0
:10343D00F07FA012457F125248900036E0242AF505
:10344D0082E43406F583E4F090003512456912529A
:10345D00487BFF7A2279C3124677D322900036E05B
:0F346D0004F00233F2900035E004F00233DAC3CA
:01347C00222D
:0B2DFF00900001EBF0A3EAF0A3E9F064
:102E0A00E4A3F0A3F0900004F0900004E0FFC39460
:102E1A00204003022FAA124399125248E490000557
:102E2A00F0900005E0FFC394204003022F9B90001E
:102E3A0001E0FBA3E0FAA3E0F91227BF7029900092
:102E4A00011227D870219000021227D87019900019
:102E5A00031227D87011742A2FF582E43406F583F9
:102E6A0074FFF0FB022F8B900005E0FD242AF58207
:102E7A00E43406F583E06003022F92900004E075C3
:102E8A00F020A47C002DFFEC35F0FEEF7803C3336D
:102E9A00CE33CED8F92400FDEE3407FC7B017A0646
:102EAA00794A90003D7408F07FA01243AF1252484D
:102EBA00900001E0FBA3E0FAA3E0F91227BFFF901C
:102ECA00064BE06F6003022F929000011227D8FF91
:102EDA0090064CE06F6003022F929000021227D8EE
:102EEA00FF90064DE06F6003022F929000031227B5
:102EFA00D8FF90064EE06F6003022F92900005E023
:102F0A00242AF582E43406F58374FFF0124566122A
:102F1A0052487BFF7A2279FC90064FE0FF90003AF4
:102F2A00E4F0A3EFF0900650E0FF90003CE4F0A339
:102F3A00EFF0900651E0FF90003EE4F0A3EFF012AC
:102F4A0046777BFF7A23791790064BE0FF90003A89
:102F5A00E4F0A3EFF090064CE0FF90003CE4F0A30D
:102F6A00EFF090064DE0FF90003EE4F0A3EFF09002
:102F7A00064EE0FF900040E4F0A3EFF01246777BA4
:102F8A00FF7A2279E0124677900005E004F0022EDB
:102F9A002B124566125248900004E004F0022E13E8
:012FAA00D353
:012FAB002203
:0B28DA00900001EBF0A3EAF0A3E9F08E
:1028E500E4A3F0A3F0900004F0900004E0FFC3948B
:1028F500084003022A8F124399125248E4900005BA
:10290500F0900005E0FFC394204003022A7D90006B
:1029150001E0FBA3E0FAA3E0F91227BF702D9000B8
:10292500011227D870259000021227D8701D90003B
:10293500031227D87015742A2FF582E43406F5831F
:1029450074FFF0FB7A237936022A71900005E0FDC9
:10295500242AF582E43406F583E06003022A7490A4
:102965000004E075F020A47C002DFFEC35F0FEEFAF
:102975007803C333CE33CED8F92400FDEE3437FCCB
:102985007B017A06794A90003D7408F07FA01243D6
:10299500AF125248900001E0FBA3E0FAA3E0F91260
:1029A50027BFFF90064BE06F6003022A7490000179
:1029B5001227D8FF90064CE06F6003022A7490003E
:1029C500021227D8FF90064DE06F6003022A74902B
:1029D50000031227D8FF90064EE06F6003022A74A9
:1029E500900005E0242AF582E43406F58374FFF0AF
:1029F5009000041245691252487BFF7A2379529060
:102A0500064FE0FF90003AE4F0A3EFF0900650E0A7
:102A1500FF90003CE4F0A3EFF0900651E0FF90003A
:102A25003EE4F0A3EFF01246777BFF7A23796D90B1
:102A3500064BE0FF90003AE4F0A3EFF090064CE07F
:102A4500FF90003CE4F0A3EFF090064DE0FF90000E
:102A55003EE4F0A3EFF090064EE0FF900040E4F076
:102A6500A3EFF01246777BFF7A23798C1246779095
:102A75000005E004F002290690000412456912528F
:0B2A850048900004E004F00228EED3AB
:012A90002223
:0B2A9100900001EBF0A3EAF0A3E9F0D5
:102A9C00E4A3F0A3F0900004F0900004E0FFC394D2
:102AAC00084003022C46124399125248E490000548
:102ABC00F0900005E0FFC394204003022C349000FA
:102ACC0001E0FBA3E0FAA3E0F91227BF702D900000
:102ADC00011227D870259000021227D8701D900083
:102AEC00031227D87015742A2FF582E43406F58367
:102AFC0074FFF0FB7A2379A6022C28900005E0FDE8
:102B0C00242AF582E43406F583E06003022C2B9032
:102B1C000004E075F020A47C002DFFEC35F0FEEFF6
:102B2C007803C333CE33CED8F92400FDEE3427FC22
:102B3C007B017A06794A90003D7408F07FA012431D
:102B4C00AF125248900001E0FBA3E0FAA3E0F912A7
:102B5C0027BFFF90064BE06F6003022C2B90000107
:102B6C001227D8FF90064CE06F6003022C2B9000CC
:102B7C00021227D8FF90064DE06F6003022C2B90B9
:102B8C0000031227D8FF90064EE06F6003022C2B37
:102B9C00900005E0242AF582E43406F58374FFF0F6
:102BAC009000041245691252487BFF7A2379C39036
:102BBC00064FE0FF90003AE4F0A3EFF0900650E0EF
:102BCC00FF90003CE4F0A3EFF0900651E0FF900082
:102BDC003EE4F0A3EFF01246777BFF7A2379DF9087
:102BEC00064BE0FF90003AE4F0A3EFF090064CE0C7
:102BFC00FF90003CE4F0A3EFF090064DE0FF900056
:102C0C003EE4F0A3EFF090064EE0FF900040E4F0BD
:102C1C00A3EFF01246777BFF7A2379FF1246779069
:102C2C000005E004F0022ABD90000412456912521E
:0B2C3C0048900004E004F0022AA5D339
:012C4700226A
:0B2C4800900001EBF0A3EAF0A3E9F01C
:102C5300E4A3F0A3F0900004F0900004E0FFC39419
:102C6300084003022DFD124399125248E4900005D7
:102C7300F0900005E0FFC394204003022DEB900089
:102C830001E0FBA3E0FAA3E0F91227BF702D900047
:102C9300011227D870259000021227D8701D9000CA
:102CA300031227D87015742A2FF582E43406F583AE
:102CB30074FFF0FB7A24791A022DDF900005E0FD02
:102CC300242AF582E43406F583E06003022DE290C2
:102CD3000004E075F020A47C002DFFEC35F0FEEF3E
:102CE3007803C333CE33CED8F92400FDEE342FFC62
:102CF3007B017A06794A90003D7408F07FA0124365
:102D0300AF125248900001E0FBA3E0FAA3E0F912EE
:102D130027BFFF90064BE06F6003022DE290000196
:102D23001227D8FF90064CE06F6003022DE290005B
:102D3300021227D8FF90064DE06F6003022DE29048
:102D430000031227D8FF90064EE06F6003022DE2C6
:102D5300900005E0242AF582E43406F58374FFF03D
:102D63009000041245691252487BFF7A2479389007
:102D7300064FE0FF90003AE4F0A3EFF0900650E036
:102D8300FF90003CE4F0A3EFF0900651E0FF9000C9
:102D93003EE4F0A3EFF01246777BFF7A2479559057
:102DA300064BE0FF90003AE4F0A3EFF090064CE00E
:102DB300FF90003CE4F0A3EFF090064DE0FF90009D
:102DC3003EE4F0A3EFF090064EE0FF900040E4F005
:102DD300A3EFF01246777BFF7A2479761246779039
:102DE3000005E004F0022C749000041245691252AD
:0B2DF30048900004E004F0022C5CD3C8
:012DFE0022B2
:1047C20078767C067D017BFF7A2479927E007F20B9
:1047D200122799E4900696F0A3F0900696E0FEA3C5
:1047E200E0FFC39438EE94005026EF7805C333CE31
:1047F20033CED8F9AC067A0679761245741252484D
:10480200900697E004F070D2900696E004F080CA19
:014812002283
:104319000245C5E493A3F8E493A34003F68001F2B0
:1043290008DFF48029E493A3F85407240CC8C333A5
:10433900C4540F4420C8834004F456800146F6DF74
:10434900E4800B0102040810204080901C88E47E60
:10435900019360BCA3FF543F30E509541FFEE49369
:10436900A360010ECF54C025E060A840B8E493A330
:10437900FAE493A3F8E493A3C8C582C8CAC583CA5B
:10438900F0A3C8C582C8CAC583CADFE9DEE780BE13
:011F5100008F
:1026C900E709F608DFFA8046E709F208DFFA803EF3
:1026D90088828C83E709F0A3DFFA8032E309F608E0
:1026E900DFFA8078E309F208DFFA807088828C8348
:1026F900E309F0A3DFFA806489828A83E0A3F608FC
:10270900DFFA805889828A83E0A3F208DFFA804CD5
:1027190080D280FA80C680D4806980F280338010AC
:1027290080A680EA809A80A880DA80E280CA803315
:1027390089828A83ECFAE493A3C8C582C8CCC5838D
:10274900CCF0A3C8C582C8CCC583CCDFE9DEE7805D
:102759000D89828A83E493A3F608DFF9ECFAA9F0DC
:10276900EDFB2289828A83ECFAE0A3C8C582C8CC32
:10277900C583CCF0A3C8C582C8CCC583CCDFEADE4B
:10278900E880DB89828A83E493A3F208DFF980CCAD
:1027990088F0EF60010E4E60C388F0ED2402B404A6
:1027A9000050B9F582EB2402B4040050AF2323454D
:0627B90082239027197332
:1027BF00BB010689828A83E0225002E722BBFE0218
:0927CF00E32289828A83E493224B
:1027D800BB010CE58229F582E5833AF583E02250B6
:1027E80006E92582F8E622BBFE06E92582F8E22200
:0D27F800E58229F582E5833AF583E493221A
:10280500BB010689828A83F0225002F722BBFE01B2
:02281500F322AC
:10281700F8BB010DE58229F582E5833AF583E8F0F7
:10282700225006E92582C8F622BBFE05E92582C8A3
:02283700F2228B
:10283900EF8DF0A4A8F0CF8CF0A428CE8DF0A42EB3
:02284900FE226D
:10284B00A3F8E0C5F025F0F0E58215827002158340
:06285B00E0C838F0E8229D
:10286100D083D082F8E4937012740193700DA3A306
:1028710093F8740193F5828883E47374029368601A
:06288100EFA3A3A380DF1A
:10288700D083D082F8E4937012740193700DA3A3E0
:1028970093F8740193F5828883E473740293B5F017
:0D28A700067403936860E9A3A3A3A380D87F
:0628B4008A838982E473AF
:10481300900465E0FFA3E0FEA3E0CF90046EF0A355
:10482300EEF0A3EFF0900468E0CBF0A3E0CAF0A3AE
:10483300E0C9F07F22900471AD82AC831227BF8D53
:10484300828C83F0A309E970010ADFEC900468E02D
:0A485300FBA3E0FAA3E0F9021656F9
:1015F100E508246EF582E43404F583E005082290C1
:10160100046B30070390046EE475F0011228BA02EE
:1016110027BF2000E97F2ED2008018EF540F2490BD
:10162100D43440D4FF30040BEF24BFB41A0050036C
:101631002461FFE50960021509050CE50C7002053E
:101641000B30070E90046BE475F0011228BAEF021B
:101651002805024E8F7403D2078003E4C207F50800
:1016610090046B1228D1E4F509F50BF50CE509603E
:10167100077F2012163480F5750AFFC201C200C22D
:1016810002C203C205C206C208121600FF700D3065
:1016910007057F00121645AF0CAE0B22B4255FC2C1
:1016A100D5C204121600FF24D0B40A00501A75F0F6
:1016B1000A780930D50508B6FF0106C6A426F6202A
:1016C100D5047002D20380D924CFB41A00EF50049C
:1016D100C2E5D204021846D20180C6D20080C0D22F
:1016E1000280BCD2D580BAD20580B47F20121634D4
:1016F1002002077401B5090040F11215F1FF12161D
:101701003402166ED208D20680951215F1FB12151D
:10171100F1FA1215F1F94A4B700679177A197BFF24
:1017210020022EE509602A7E008E82758300122731
:10173100D860060EEE650A70F0C2D5EBC0E0EAC0D3
:10174100E0E9C0E0EE12188DD0E0F9D0E0FAD0E087
:10175100FB1227BFFF60AAEBC0E0EAC0E0E9C0E0EE
:10176100121634D0E02401F9D0E03400FAD0E0FBC5
:10177100E50A0460DCD50AD980877BFF7A1879896C
:10178100D202809C791080027908C206C2088008C2
:10179100D2D5790A8004790AC2D5E50A047002F526
:1017A1000AE4FAFDFEFF1215F1FC7B082001131279
:1017B10015F1FD7B1030000A1215F1FE1215F1FF33
:1017C1007B20EC3382D592D55013C3E43000069FC1
:1017D100FFE49EFEE42001039DFDE49CFCE4CBF8C4
:1017E100C201EC700CCFCECDCCE824F8F870F380B8
:1017F10017C3EF33FFEE33FEED33FDEC33FCEB3378
:10180100FB994002FB0FD8E9EB300105F8D0E0C4A9
:1018110048B201C0E00AEC4D4E4F78207B0070C207
:10182100EAB50A0040BCC0E012188FD0F0D0E02029
:101831000104C4C0E0C4B201C0F012161DD0F0D53D
:10184100F0EB02166E122861170B5317855816DC40
:101851004C16D84217894F17914417914916F143F5
:08186100179755177B46177B12
:1018690045177B4719375016E02D16E42E17072B1D
:1018790016E82317052019202A16A048000016FF8C
:101889003F3F3F00790AA2D5200314300509B9105A
:10189900020404B9080104A2D5200602500104205B
:1018A90002689202B509005034C0E07F2030031964
:1018B9007F30A20272067205500F1218E6C202C2E8
:1018C90006C205C2087F30800F300503E9C0E01267
:1018D9001634300503D0E0F9D0E0B509CC3005174E
:1018E9007F30B9100C1216347F583004077F788086
:1018F90003B908031216343002057F2D0216347F0E
:10190900202008F87F2B2006F322920280CF286E30
:10191900756C6C2900D2011215F13001F8C20178F9
:101929000930D50108F60216A02D50434958121561
:10193900F12403B405004001E490193293121625ED
:0D194900743A121625D203750904021785A1
:1028BA00F8E0FBA3A3E0F925F0F0E58215827002A7
:0728CA001583E0FA38F0224B
:0928D100EBF0A3EAF0A3E9F02208
:104E8F00EFB40A07740D124E9A740A309811A8994C
:104E9F00B8130CC2983098FDA899C298B811F63083
:074EAF0099FDC299F599225B
:00000001FF
