:030000000216FCE9
:0C16FC00787FE4F6D8FD758121021743C9
:1014B9005573617274496E697420436F6D706C6500
:1014C900746521200D0A00746D313632395F696EF9
:1014D900697420436F6D706C65746521200D0A0075
:1014E900496E69745F54696D65723020436F6D7020
:1014F9006C65746521200D0A00496E69745F546931
:101509006D65723120436F6D706C65746521200DB6
:101519000A006578696E74305F696E697420436F7B
:101529006D706C65746521200D0A00447331333088
:10153900325F496E697420436F6D706C6574652103
:04154900200D0A0067
:101860001222F67BFF7A1479B91219121219677BCA
:10187000FF7A1479D01219121223977BFF7A147908
:10188000E91219121223B57BFF7A15790212191287
:1018900012240E7BFF7A15791B1219121223EA7B90
:1018A000FF7A1579341219121223B575B10CE4F5CB
:0918B000B2120026121B0080F8A0
:0300230002000ECA
:0D000E00309802C298309904C299C209329C
:0923F5002009FDEFD209F599223F
:101B7100900431EBF0A3EAF0A3E9F0900431E0FB2B
:101B8100A3E0FAA3E0F91212596017900431A3E41B
:101B910075F00112129FA9F0FA121259FF1223F5E2
:031BA10080D922C6
:1022F600E5A2543FF5A275985075D7C875D6FE75F8
:0A2306008E14438E01D2ACD2AF2238
:0B191200900003EBF0A3EAF0A3E9F063
:10191D0090002E7401F0A37400F0A37406F09000F3
:10192D0003E0F9A3E0FAA3E0900431C9F0A3EAF0D3
:10193D00A3E9F090002EE0F9A3E0FAA3E0900434BF
:10194D00C9F0A3EAF0A3E9F07B017A00793112190D
:0A195D00B87B017A007931021B719A
:100A4D006B65795F76616C206973202578202E0D9A
:100A5D000A000000000000FF252401020E0F00FF18
:100A6D0000060203011500FF001E0304021900FF1A
:100A7D0024570405031D00FF245C0506041F00FF19
:100A8D0024610607052000FF24660708062100FFE4
:100A9D00246B0809072600FF2470090A082A00FFA5
:100AAD0024750A0B092C00FF247A0B0C0A2E00FF6B
:100ABD00247F0C0D0B2F00FF24840D0E0C3000FF36
:100ACD0024890E010D3100FF248E0F0F0F1001FF31
:100ADD001BD41010101101FF1CAE1111111201FFCA
:100AED001CD61212121301FF20BA1313131401FF97
:100AFD0020DE1414140F01FF1CFE1516183202FF10
:100B0D0024931617153602FF24981718163A02FF6C
:100B1D00249D1815173E02FF24A2191A1C4203FF2B
:100B2D0024A71A1B194603FF24AC1B1C1A4A03FFEA
:100B3D0024B11C191B4E03FF24B61D1E1E5204FFAB
:100B4D0024BB1E1D1D0004FF24C01F1F1F0005FF19
:100B5D0024C52020200006FF24CA2122250007FFDE
:100B6D0024CF2223210007FF24D42324220007FFB2
:100B7D0024D92425230007FF24DE2521240007FF87
:100B8D0024E32627290008FF24E82728260008FF4C
:100B9D0024ED2829270008FF24F22926280008FF24
:100BAD0024F72A2B2B0009FF24FC2B2A2A0009FFEE
:100BBD0025012C2D2D000AFF25062D2C2C000AFFBA
:100BCD00250B2E2E2E000BFF25102F2F2F000CFF87
:100BDD002515303030000DFF251A313131000EFF53
:100BED00251F3232323315FF21F73333333415FFDE
:100BFD0022BD3434343515FF22193535353215FF04
:100C0D00223B3636363716FF1D263737373816FF57
:100C1D0021023838383916FF1D4E3939393616FF4D
:100C2D001D763A3A3A3B17FF1D9E3B3B3B3C17FF67
:100C3D0021253C3C3C3D17FF1DC63D3D3D3A17FF70
:100C4D001DEE3E3E3E3F18FF1E163F3F3F4018FF34
:100C5D0021484040404118FF1E3E4141413E18FF92
:100C6D001E664242424319FF1E8E4343434419FF01
:100C7D00216B4444444519FF1EB64545454219FFB5
:100C8D001EDE464646471AFF1F06474747481AFFCE
:100C9D00218E484848491AFF1F2E494949461AFFD7
:100CAD001F564A4A4A4B1BFF1F7E4B4B4B4C1BFF9B
:100CBD0021B14C4C4C4D1BFF1FA64D4D4D4A1BFFFA
:100CCD001FCE4E4E4E4F1CFF1FF64F4F4F501CFF69
:100CDD0021D4505050511CFF201E5151514E1CFF1C
:100CED002046525252521DFF23FE0000000000000C
:100CFD0000000000000000000000000000000000E7
:100D0D0000000000000000000000000000000000D6
:100D1D0000000000000000000000000000000000C6
:100D2D0000000000000000000000000000000000B6
:100D3D0000000000000000000000000000000000A6
:100D4D000000000000000000000000000000000096
:100D5D000000000000000000000000000000000086
:100D6D000000000000000000000000000000000076
:020D7D00000074
:100D7F004105A2004405A6000000004405AE000096
:100D8F0000004405B7000000004405C1000000004A
:100D9F004405AA000000004405B30000000044050C
:100DAF00BD000000004405C6000000004105B2016F
:100DBF004105BC014105BB004105C5004105CA0005
:100DCF004105CC014105CF004105D2004105D400BA
:100DDF004105CB004105CE004105D1004105D300AF
:100DEF004105CD014105D0004105A0004105D500C9
:040DFF004105A10009
:10166E00E4900003F0A3F043901F53A007E59054BD
:10167E001F641F60741223A7E590541F641F6069D6
:10168E0043901F43A0F853A07FE590541F641F6042
:10169E0058E590541FFF900003E4F0A3EFF0E0F83C
:1016AE00E4F0E8900003F0E5A054F8FFA3E02FF07B
:1016BE00900003E03400F0E0B41E0DA3E0B478080F
:1016CE001224397F0112242DE590541FFFBF1FF8FD
:1016DE001223A7E590541FFFBF1FF8E4FF12242D1D
:0D16EE00900003E0FEA3E0FF227E0F7FFFCF
:0116FB0022CC
:1017FF00E4900001F0A3F012166E900001EEF0A33A
:10180F00EFF0F47003EE640F60187BFF7A0A794DE6
:10181F00900001E0FFA3E0900006CFF0A3EFF012DD
:10182F001912900001E0FEA3E08EF01212DB1851A6
:10183F00177818571B7818541D78185A1E780000FF
:10184F00185D7F03227F02227F01227F00227FFF0C
:01185F002266
:10002600E4FF900000F01217FFEF14605E147003F7
:100036000203D0146042240360030206BD9005A2A9
:10004600E07017122433900000EFF0C394145003AD
:100056000206BD9005A2740180179005A2E075F016
:1000660008A42462F582E5F0340AF583E49390054A
:10007600A2F01224390206BD9005A2E075F008A48C
:100086002463F582E5F0340A0206B59005A2E01273
:1000960012B501110F01231001331101431201534F
:1000A60013016514017732018933019B3401AD35A3
:1000B60001BF3601D13701E33801F53902073A02AB
:1000C600193B022B3C023D3D024F3E02613F02734B
:1000D6004002854102974202A94302BB4402CD4534
:1000E60002DF4602F14703034803154903264A0384
:1000F600374B03474C03574D03674E03774F038730
:1001060050039A5103AB52000003BD9005EFE0B4D3
:100116006305E4F00203BD9005EF0203959005F038
:10012600E0B40C030203BA9005F00203959005F1C2
:10013600E0B41F030203BA9005F10203959005F59A
:10014600E0B407030203BA9005F50203959005F2A1
:10015600E0B41705E4F00203BD9005F202039590A2
:1001660005F3E0B43B05E4F00203BD9005F302039A
:10017600959005A6E0B41405E4F00203BD9005A62B
:100186000203959005A7E0B40905E4F00203BD90CB
:1001960005A70203959005A8E0B40905E4F002035B
:1001A600BD9005A80203959005A9E0B40905E4F001
:1001B6000203BD9005A90203959005AEE0B41405AF
:1001C600E4F00203BD9005AE0203959005AFE0B4DE
:1001D6000905E4F00203BD9005AF0203959005B052
:1001E600E0B40905E4F00203BD9005B00203959062
:1001F60005B1E0B40905E4F00203BD9005B10203C0
:10020600959005B7E0B41405E4F00203BD9005B778
:100216000203959005B8E0B40905E4F00203BD9029
:1002260005B80203959005B9E0B40905E4F00203A8
:10023600BD9005B90203959005BAE0B40905E4F04E
:100246000203BD9005BA0203959005C1E0B41405FA
:10025600E4F00203BD9005C10203959005C2E0B427
:100266000905E4F00203BD9005C20203959005C39B
:10027600E0B40905E4F00203BD9005C302039590BE
:1002860005C4E0B40905E4F00203BD9005C4020309
:10029600959005AAE0B41405E4F00203BD9005AA02
:1002A6000203959005ABE0B40905E4F00203BD90A6
:1002B60005AB0203959005ACE0B40905E4F0020332
:1002C600BD9005AC0203959005ADE0B40905E4F0D8
:1002D6000203BD9005AD0203959005B3E0B4140585
:1002E600E4F00203BD9005B30203959005B4E0B4B3
:1002F6000905E4F00203BD9005B40203959005B527
:10030600E0B40905E4F00203BD9005B5020395903B
:1003160005B6E0B40905E4F00203BD9005B6806FAA
:100326009005BDE0B41405E4F00203BD9005BD8060
:100336005E9005BEE0B40904E4F0807B9005BE80C3
:100346004E9005BFE0B40904E4F0806B9005BF80D1
:100356003E9005C0E0B40904E4F0805B9005C080DF
:100366002E9005C6E0B41404E4F0804B9005C680D8
:100376001E9005C7E0B40904E4F0803B9005C780F1
:100386000E9005C8E0B40904E4F0802B9005C8E09F
:1003960004F080239005C9E0B40904E4F0800690D7
:1003A60005C9E004F09005B2E0B401057402F080DE
:1003B600069005B27401F09005A2E075F008A42439
:1003C60060F582E5F0340A0206B59005A2E0121245
:1003D600B504500F046210047511048812049B13AF
:1003E60004AD1404BF3204CE3304DD3404EC35040A
:1003F600FB36050A3705193805283905373A054603
:100406003B05553C05643D05733E05823F0591401D
:1004160005A04105AF4205BE4305CD4405DC4505B3
:10042600EB4605F94706084806154906224A062FEF
:100436004B063C4C06494D06564E06664F06735013
:10044600068051069352000006A59005EFE070065F
:100456007463F00206A59005EF02068E9005F0E0A3
:10046600B40106740CF00206A59005F002068E9003
:1004760005F1E0B40106741FF00206A59005F1022D
:10048600068E9005F5E0B401067407F00206A59005
:1004960005F502068E9005F2E070067417F0020666
:1004A600A59005F202068E9005F3E07006743BF007
:1004B6000206A59005F302068E9005A6E0700302DB
:1004C600065C9005A602068E9005A7E0700302065C
:1004D600869005A702068E9005A8E07003020686A0
:1004E6009005A802068E9005A9E070030206869084
:1004F60005A902068E9005AEE0700302065C900523
:10050600AE02068E9005AFE070030206869005AF38
:1005160002068E9005B0E070030206869005B002D2
:10052600068E9005B1E070030206869005B10206BC
:100536008E9005B7E0700302065C9005B702068E42
:100546009005B8E070030206869005B802068E9004
:1005560005B9E070030206869005B902068E90057D
:10056600BAE070030206869005BA02068E9005C1AF
:10057600E0700302065C9005C102068E9005C2E09B
:1005860070030206869005C202068E9005C3E070CF
:10059600030206869005C302068E9005C4E070032A
:1005A6000206869005C402068E9005AAE070030234
:1005B600065C9005AA02068E9005ABE07003020663
:1005C600869005AB02068E9005ACE07003020686A7
:1005D6009005AC02068E9005ADE07003020686908B
:1005E60005AD02068E9005B3E0700280699005B3F2
:1005F60002068E9005B4E070030206869005B402EA
:10060600068E9005B5E0700280769005B5807990EB
:1006160005B6E0700280699005B6806C9005BDE075
:10062600700280329005BD805F9005BEE07002804A
:100636004F9005BE80529005BFE070028042900543
:10064600BF80459005C0E0700280359005C08038B7
:100656009005C6E070057414F080449005C68028A5
:100666009005C7E0700280189005C7801B9005C8EA
:10067600E07002800B9005C8800E9005C9E07005F9
:100686007409F0801A9005C9E014F080129005B242
:10069600E0B401057402F080069005B27401F09092
:1006A60005A2E075F008A42461F582E5F0340AF5A8
:1006B60083E4939005A2F09005A2E075F008A424C7
:1006C60064F582E5F0340AF583E493FB740193FA4A
:1006D600740293F99005A3EBF0A3EAF0A3E9F00204
:0206E6001308F7
:0D23A7007F047E347DDCDDFEDEFADFF60013
:0123B4002206
:052415009005A2E0FFAC
:01241A00229F
:05241B009005B2E0FF96
:012420002299
:100E03005504913F065B4F666D7D077F6F777C3995
:100E13005E797176385C733E4805960102040810CA
:100E230020408042059E40006030046100000000C5
:100E330000000000000000000000000000000000AF
:100E4300000000000000000000000000000000009F
:100E530000000000000000000000000060F004A695
:100E6300000000000000000000000000000000007F
:100E7300000000000000000000000000000000006F
:100E8300000000000000000000000000000000005F
:100E9300000000000000000000000000000000004F
:100EA300000000000000000000000000000000003F
:100EB300000000000000000000000000000000002F
:100EC300000000000000000000000000000000001F
:100ED300000000000000000000000000000000000F
:100EE30000000000000000000000000000000000FF
:100EF30000000000000000000000000000000000EF
:100F030000000000000000000000000000000000DE
:100F130000000000000000000000000000000000CE
:100F230000000000000000000000000000000000BE
:100F330000000000000000000000000000000000AE
:100F4300000000000000000000000000000000009E
:040F530041046000F5
:101C0400C282E4FDFCC280EF30E004D2818002C2D3
:101C14008100000000D280EFC313FF0DBD00010C52
:0A1C2400ED64084C70DFC280C2813D
:011C2E002293
:101C2F00C283E4FDFCC280EF30E004D2818002C2A7
:101C3F008100000000D280EFC313FF0DBD00010C27
:0A1C4F00ED64084C70DFC280C28112
:011C59002268
:101C5A00C2CCE4FDFCC280EF30E004D2818002C233
:101C6A008100000000D280EFC313FF0DBD00010CFC
:0A1C7A00ED64084C70DFC280C281E7
:011C8400223D
:0D23C300D282000000000000C282021C0453
:0D23D000D283000000000000C283021C2F19
:0D23DD00D2CC000000000000C2CC021C5A4F
:05141100E4900463F00B
:101416007F401223C37FC01223C3E4FE74612EF5FE
:1014260082E43404F583E0FF121C0474692EF5820D
:10143600E43404F583E0FF121C040EEEB408DD7FED
:101446008C1223C3D2827F401223D07FC01223D0B6
:10145600E4FE74712EF582E43404F583E0FF121C79
:101466002F74792EF582E43404F583E0FF121C2FE5
:101476000EEEB408DD7F8C1223D0D2837F40122378
:10148600DD7FC01223DDE4FE74812EF582E4340490
:10149600F583E0FF121C5A74892EF582E43404F5B4
:1014A60083E0FF121C5A0EEEB408DD7F8C1223DD9A
:0214B600D2CC96
:0114B8002211
:10196700E4900000F0E4FFE4FE900000E02496F528
:1019770082E43405F583E0FDEF75F008A42461F5F2
:1019870082E43404F583E5822EF582E43583F5831A
:10199700EDF00EEEB408D20FEFB406CB1214167F9B
:1019A7001E122352900000E004F0E0C3940840B5F3
:0119B700220D
:10235200EFD39400400B7EFF7DFFDDFEDEFA1F808F
:01236200EF8B
:012363002257
:101C8500E4FFE4FEEF75F008A42461F582E4340472
:101C9500F583E5822EF582E43583F583E4F00EEED7
:081CA500B408E10FEFB406DA08
:011CAD002214
:101B3C00E4FF122421EF6401702A121C85900460CA
:101B4C00E05403FF2461F582E43404F5837440F01F
:101B5C00121416E4FF122427900460E004F0E0B4A1
:041B6C000402E4F09B
:011B70002252
:10114600121C85121788900493E0900470F09004A6
:1011560091E090046FF09005EFE0FF75F00A8424AB
:1011660091F582E43404F583E090046EF0EF75F0B7
:101176000A84749125F0F582E43404F583E0900442
:101186006DF090046C7440F09005F0E0FF75F00A85
:10119600842491F582E43404F583E090046BF0EF47
:1011A60075F00A84749125F0F582E43404F583E041
:1011B60090046AF09004697440F09005F1E0FF75C0
:1011C600F00A842491F582E43404F583E0900468FF
:1011D600F0EF75F00A84749125F0F582E43404F595
:1011E60083E0900467F09005F5E02491F582E434FD
:1011F60004F583E0900466F09005F2E0FF75F00ACE
:10120600842491F582E43404F583E0900464F0EFDD
:1012160075F00A84749125F0F582E43404F583E0D0
:10122600900463F09005F3E0FF75F00A842491F5CD
:1012360082E43404F583E0900462F0EF75F00A84EA
:10124600749125F0F582E43404F583E0900461F0AE
:0312560002141669
:10227F00AD07121C859004A0E0900462F074912DBC
:0F228F00F582E43404F583E0900461F002141644
:10229E00AD07121C8590049FE0900462F074912D9E
:0F22AE00F582E43404F583E0900461F002141625
:10231000AD07121C8574912DF582E43404F583E039
:07232000900461F0021416A5
:101BA400AD07121C85ED75F00A842491F582E434A6
:101BB40004F583E0900462F0ED75F00A84749125D5
:101BC400F0F582E43404F583E0900461F002141625
:0618B9007B017A0579A60F
:1018BF00121C851212592491F582E43404F583E049
:1018CF00900464F09000011212722491F582E434B6
:1018DF0004F583E0900463F09000021212722491D9
:1018EF00F582E43404F583E0900462F09000031273
:1018FF0012722491F582E43404F583E0900461F0D0
:03190F00021416A9
:032524000211465B
:05000600E4FF02227F6F
:05001E007F0102227FBA
:052457007F0202227F5C
:05245C007F0302227F56
:052461007F0402227F50
:052466007F0502227F4A
:05246B007F0602227F44
:052470007F0702227F3E
:052475007F0802227F38
:05247A007F0902227F32
:05247F007F0A02227F2C
:052484007F0B02227F26
:052489007F0C02227F20
:05248E007F0D02227F1A
:101BD400122421BF01081211467F02122427122465
:101BE40021BF0319E4900470F090046FF090046E28
:101BF400F090046DF0121416E4FF1224270215DF8E
:101CAE00122421BF01081211467F0212242712248A
:101CBE0021BF0311E490046BF090046AF012141625
:081CCE00E4FF1224270215DFD8
:101CD600122421BF01081211467F02122427122462
:101CE60021BF0311E4900468F0900467F012141603
:081CF600E4FF1224270215DFB0
:1020BA00122421BF01081211467F0212242712247A
:1020CA0021BF030DE4900466F0121416E4FF1224F3
:0420DA00270215DFE5
:1020DE00122421BF01081211467F02122427122456
:1020EE0021BF030DE4900464F0121412E4FF1224D5
:0420FE00270215DFC1
:101CFE00122421BF01081211467F0212242712243A
:101D0E0021BF0311E4900462F0900461F0121416E6
:081D1E00E4FF1224270215DF87
:052493007F0102229E02
:052498007F0202229EFC
:05249D007F0302229EF6
:0524A2007F0402229EF0
:0524A7007F0102229EEE
:0524AC007F0202229EE8
:0524B1007F0302229EE2
:0524B6007F0402229EDC
:0524BB007F0102229EDA
:0524C0007F0202229ED4
:0524C5007F0F02227FE1
:0524CA007F0F02227FDC
:0524CF007F0102229EC6
:0524D4007F0202229EC0
:0524D9007F0302229EBA
:0524DE007F0402229EB4
:0524E3007F0502229EAE
:0524E8007F0102229EAD
:0524ED007F0202229EA7
:0524F2007F0302229EA1
:0524F7007F0402229E9B
:0524FC007F0102229E99
:052501007F0202229E92
:052506007F0102229E8E
:05250B007F0202229E88
:052510007F0F02227F95
:052515007F0F02227F90
:05251A007F0F02227F8B
:05251F007F0F02227F86
:1021F700122421BF01081218B97F021224271224C2
:1022070021BF030DE4900464F0121416E4FF1224B6
:0222170027227C
:1022BD00122421BF01081218B97F021224271224FB
:0D22CD0021BF0308121411E4FF1224272280
:10221900122421BF01081218B97F0212242712249F
:1022290021BF030DE4900462F0121416E4FF122496
:0222390027225A
:10223B00122421BF01081218B97F0212242712247D
:10224B0021BF030DE4900461F0121416E4FF122475
:02225B00272238
:101D2600122421BF010E7B017A0579AE1218BF7FFE
:101D360002122427122421BF030DE4900464F0123A
:081D46001416E4FF1224272209
:10210200122421BF010E7B017A0579AE1218BF7F1E
:1021120002122427122421BF0308121411E4FF1211
:032122002427224D
:101D4E00122421BF010E7B017A0579AE1218BF7FD6
:101D5E0002122427122421BF030DE4900462F01214
:081D6E001416E4FF12242722E1
:101D7600122421BF010E7B017A0579AE1218BF7FAE
:101D860002122427122421BF030DE4900461F012ED
:081D96001416E4FF12242722B9
:101D9E00122421BF010E7B017A0579B71218BF7F7D
:101DAE0002122427122421BF030DE4900464F012C2
:081DBE001416E4FF1224272291
:10212500122421BF010E7B017A0579B71218BF7FF2
:1021350002122427122421BF0308121411E4FF12EE
:032145002427222A
:101DC600122421BF010E7B017A0579B71218BF7F55
:101DD60002122427122421BF030DE4900462F0129C
:081DE6001416E4FF1224272269
:101DEE00122421BF010E7B017A0579B71218BF7F2D
:101DFE0002122427122421BF030DE4900461F01275
:081E0E001416E4FF1224272240
:101E1600122421BF010E7B017A0579C11218BF7FFA
:101E260002122427122421BF030DE4900464F01249
:081E36001416E4FF1224272218
:10214800122421BF010E7B017A0579C11218BF7FC5
:1021580002122427122421BF0308121411E4FF12CB
:0321680024272207
:101E3E00122421BF010E7B017A0579C11218BF7FD2
:101E4E0002122427122421BF030DE4900462F01223
:081E5E001416E4FF12242722F0
:101E6600122421BF010E7B017A0579C11218BF7FAA
:101E760002122427122421BF030DE4900461F012FC
:081E86001416E4FF12242722C8
:101E8E00122421BF010E7B017A0579AA1218BF7F99
:101E9E0002122427122421BF030DE4900464F012D1
:081EAE001416E4FF12242722A0
:10216B00122421BF010E7B017A0579AA1218BF7FB9
:10217B0002122427122421BF0308121411E4FF12A8
:03218B00242722E4
:101EB600122421BF010E7B017A0579AA1218BF7F71
:101EC60002122427122421BF030DE4900462F012AB
:081ED6001416E4FF1224272278
:101EDE00122421BF010E7B017A0579AA1218BF7F49
:101EEE0002122427122421BF030DE4900461F01284
:081EFE001416E4FF1224272250
:101F0600122421BF010E7B017A0579B31218BF7F17
:101F160002122427122421BF030DE4900464F01258
:081F26001416E4FF1224272227
:10218E00122421BF010E7B017A0579B31218BF7F8D
:10219E0002122427122421BF0308121411E4FF1285
:0321AE00242722C1
:101F2E00122421BF010E7B017A0579B31218BF7FEF
:101F3E0002122427122421BF030DE4900462F01232
:081F4E001416E4FF12242722FF
:101F5600122421BF010E7B017A0579B31218BF7FC7
:101F660002122427122421BF030DE4900461F0120B
:081F76001416E4FF12242722D7
:101F7E00122421BF010E7B017A0579BD1218BF7F95
:101F8E0002122427122421BF030DE4900464F012E0
:081F9E001416E4FF12242722AF
:1021B100122421BF010E7B017A0579BD1218BF7F60
:1021C10002122427122421BF0308121411E4FF1262
:0321D1002427229E
:101FA600122421BF010E7B017A0579BD1218BF7F6D
:101FB60002122427122421BF030DE4900462F012BA
:081FC6001416E4FF1224272287
:101FCE00122421BF010E7B017A0579BD1218BF7F45
:101FDE0002122427122421BF030DE4900461F01293
:081FEE001416E4FF122427225F
:101FF600122421BF010E7B017A0579C61218BF7F14
:1020060002122427122421BF030DE4900464F01267
:082016001416E4FF1224272236
:1021D400122421BF010E7B017A0579C61218BF7F34
:1021E40002122427122421BF0308121411E4FF123F
:0321F4002427227B
:10201E00122421BF010E7B017A0579C61218BF7FEB
:10202E0002122427122421BF030DE4900462F01241
:08203E001416E4FF122427220E
:10204600122421BF010E7B017A0579C61218BF7FC3
:1020560002122427122421BF030DE4900461F0121A
:082066001416E4FF12242722E6
:0823FE00E4FF12241B0223106E
:100F57004105FE004106020041060000410601006E
:040F67004105FF0041
:10239700438901758C3C758AB0D2AFD2A9D28C2201
:0E23B500438910758DFF758B9CD2AFD2AB2281
:03000B0002154D8E
:10154D00C0E0C0F0C083C082C0D075D000C000C064
:0D155D0001C002C003C004C005C006C007E5
:10156A0090045FE4F0C28D758C3C758AB012241524
:10157A0090045FEFF09005FEE004F0E0B40A0B90EF
:10158A000602E004F09005FEE4F0900602E0C3943F
:10159A00044002E4F0900600E0B40104A3E004F081
:1015AA0012244BBF01149005FFE004F0E0D39478B5
:0A15BA0040081224519005FFE4F0F0
:1015C400D007D006D005D004D003D002D001D0007B
:0B15D400D0D0D082D083D0F0D0E03225
:03001B00021A02C4
:101A0200C0E0C0F0C083C082C0D075D000C000C0AA
:101A120001C002C003C004C005C006C007C28F7562
:101A22008DFF758B9C120FBFD007D006D005D00456
:101A3200D003D002D001D000D0D0D082D083D0F059
:031A4200D0E032BF
:05242100900602E0FF3F
:012426002293
:06242700900602EFF02216
:06242D00900600EFF02212
:05243300900601E0FF2E
:012438002281
:06243900E4900601F02210
:0B0F6B004805EE140F09040C220006DC
:041A4500E0FD7F8AB7
:101A4900D2A0EF54FEFFE4FEEF30E004D2A1800201
:101A5900C2A1D2A2C2A2EFC313FF0EEEB408E9E4F9
:101A6900FEED30E004D2A18002C2A1D2A2C2A2ED51
:0A1A7900C313FD0EEEB408E9C2A08D
:011A83002240
:101A8400D2A0EF4401FFE4FDEF30E004D2A18002D4
:101A9400C2A1D2A2C2A2EFC313FF0DEDB408E9E4C0
:101AA400FDEEC313FE30A1054480FE8004EE547F96
:0E1AB400FED2A2C2A20DEDB408E7C2A0AF069A
:011AC2002201
:1015DF00E4FF74EE2FF582E43405F583E0FE75F039
:1015EF000A84FDEE75F00A8474F62FF582E4340553
:1015FF00F583E5F0F0EDC454F0FE74F62FF582E4B8
:10160F003405F583E02EF00FEFB408C6E4FD7F8EAE
:10161F00121A497D807F80121A499005F7E0FD7FED
:10162F008C121A49A3E0FD7F88121A49A3E0FD7FAF
:10163F0086121A499005FD121A459005FAE0FD7FB2
:10164F0084121A49A3E0FD7F82121A49A3E0FD7F9D
:0F165F0080121A49A3121A457D807F8E021A4904
:101788007F8C121A849005F7EFF07F88121A84A3D1
:10179800EFF07F86121A84A3EFF07F84121A84A3D5
:1017A800EFF07F82121A84A3EFF07F80121A84EF81
:1017B800547FA3F07F8A121A84A3EFF0E4FF74F633
:1017C8002FF582E43405F583E0FEC4540FFDEE5492
:1017D8000FFE74EE2FF582E43405F583EEF0ED7517
:1017E800F00AA4FE74EE2FF582E43405F583E02EAA
:0617F800F00FEFB408C879
:0117FE0022C8
:0B23EA00C2A0C2A2E4FD7F80021A49DD
:100F76004105E1004105E0004105E2004105E500CB
:100F86004105EC004105D8004105D7004305E900BD
:100F960000004205E300464205E700784105D60019
:100FA6004105ED004105E6004105D9004305DA009B
:080FB60000004305DD0000000E
:07240E00D2AFD2A8D2882250
:03000300022406CE
:08240600C2A8208E02D28E3222
:1022DA00E49005E1F09005E0F09005E5F09005E264
:0C22EA00F09005ECF09005D7F0A3F02276
:100FBF0030B2059005E580039005E2E004F090055E
:100FCF00D8E004F0E0D394A07480948F4007C28ED1
:100FDF00D2A80222DA9005D7E014603F146075148E
:100FEF0070030210AE2403600302113E9005E5E08A
:100FFF00D39400400302113E9005E2E0FFC3900539
:10100F00E4E09F9005E3E094004003021145900552
:10101F00D7E004F0E49005E5F080349005E5E0FFBB
:10102F00FD9005E2E02DFDE433FCC39005E8E09D63
:10103F009005E7E09C500302113EEFD3940150035B
:10104F0002114530A802C2A89005D7E004F0E49041
:10105F0005E2F0229005E2E0D3940040139005E5FD
:10106F00E09005E1F0E49005E5F09005D7E004F09D
:10107F009005E3E0FEA3E0FF9005E8E02FFF900569
:10108F00E7E03EFEEF7803CEC313CE13D8F9FF90FF
:10109F0005E5E0D39FE49E500302114502113E90F7
:1010AF0005E5E0D39400405C9005E2E0FF9005E099
:1010BF00F0E49005E2F09005D77402F09005ECE0B3
:1010CF00131313541FFE24E9F582E43405F583E06E
:1010DF00FD25E0F09005E1E0D39F400E74E92EF579
:1010EF0082E43405F583E04401F09005ECE004F070
:1010FF00E0D39417400EC28E1222DA9005D67401F7
:10110F00F0D2A8229005E3E0FEA3E0FF9005E8E00F
:10111F002FFF9005E7E03EFEEF7803CEC313CE130B
:10112F00D8F9FF9005E2E0D39FE49E4009800012BA
:07113F0022DAD2A8C28E22C1
:101340009005D6E064016003021410C2A89005E67F
:10135000E01460270460030214099005E9E0900599
:10136000DAF09005EAE09005DBF09005EBE09005FF
:10137000DCF09005E67401F00214099005E9E0FF45
:101380009005DAE06F706A9005EAE0FE9005DBE018
:101390006E705E9005EBE0FD9005DCE06D7052A391
:1013A000E06F7012A3E06E700DA3E0B50508900524
:1013B000D9E0702080009005E9E09005DDF090050F
:1013C000EAE09005DEF09005EBE09005DFF0900597
:1013D000ED7401F09005D97401F0E49005E9F0A3F3
:1013E000F0A3F09005DAF0A3F0A3F09005E6F0800A
:1013F000189005E9E09005DAF09005EAE09005DB49
:10140000F09005EBE09005DCF0D2A8E49005D6F072
:0114100022B9
:05243F009005EDE0FF37
:012444002275
:06244500E49005EDF02219
:05244B009005D9E0FF3F
:012450002269
:06245100E49005D9F02221
:10225D006465636F6465725F76616C2069732025B8
:10226D0030327820253032782025303278202E0DEE
:02227D000A0055
:101B000012134012243FBF01307BFF7A22795D908F
:101B100005DDE0FF900006E4F0A3EFF09005DEE0C5
:101B2000FF900008E4F0A3EFF09005DFE0FF9000E5
:0C1B30000AE4F0A3EFF0121912022445A1
:03252700DFFE22B2
:10233D00AE07AF061EEF600C7FF51225277FF51255
:05234D00252780EE22AF
:10232700D2B400D2B50000000000C2B40000000023
:0623370000C2B500002207
:10236400C2B400D2B50000000000D2B400000000E6
:012374002246
:101AC300E4FEEFA806088002C333D8FC30E704D253
:101AD300B48002C2B400D2B50000000000C2B50E4B
:101AE300EEB408DE0000D2B40000D2B5000000302E
:0C1AF300B404C20A8002D20AC2B500008E
:011AFF0022C4
:10209500E4FFD2B4FE00C2B50000000000D2B500D6
:1020A50000EF25E0FF30B4010F00000EEEB408E5A7
:0420B500C2B50000B0
:0120B9002204
:10237500C2B4000000D2B50000000000C2B50000E4
:012385002235
:10238600D2B4000000D2B50000000000C2B50000C3
:012396002224
:10170800021860E493A3F8E493A34003F68001F27F
:1017180008DFF48029E493A3F85407240CC8C333E2
:10172800C4540F4420C8834004F456800146F6DFB1
:10173800E4800B0102040810204080900D7FE47EB5
:10174800019360BCA3FF543F30E509541FFEE493A6
:10175800A360010ECF54C025E060A840B8E493A36D
:10176800FAE493A3F8E493A3C8C582C8CAC583CA98
:10177800F0A3C8C582C8CAC583CADFE9DEE780BE50
:010FBE000032
:10125900BB010689828A83E0225002E722BBFE0293
:09126900E32289828A83E49322C6
:10127200BB010CE58229F582E5833AF583E0225031
:1012820006E92582F8E622BBFE06E92582F8E2227B
:0D129200E58229F582E5833AF583E4932295
:10129F00A3F8E0C5F025F0F0E58215827002158302
:0612AF00E0C838F0E8225F
:1012B500D083D082F8E4937012740193700DA3A3C8
:1012C50093F8740193F5828883E4737402936860DC
:0612D500EFA3A3A380DFDC
:1012DB00D083D082F8E4937012740193700DA3A3A2
:1012EB0093F8740193F5828883E473740293B5F0D9
:0D12FB00067403936860E9A3A3A3A380D841
:061308008A838982E47370
:1019B800900431E0FFA3E0FEA3E0CF90043AF0A347
:1019C800EEF0A3EFF0900434E0CBF0A3E0CAF0A36C
:1019D800E0C9F07F2290043DAD82AC831212598D8C
:1019E800828C83F0A309E970010ADFEC900434E0EB
:0A19F800FBA3E0FAA3E0F902074D9B
:1006E800E508243AF582E43404F583E0050822900D
:1006F800043730070390043AE475F001121320021E
:1007080012592000E97F2ED2008018EF540F249050
:10071800D43440D4FF30040BEF24BFB41A00500384
:100728002461FFE50960021509050CE50C70020556
:100738000B30070E900437E475F001121320EF0216
:10074800130E02206E7403D2078003E4C207F50873
:10075800900437121337E4F509F50BF50CE5096039
:10076800077F2012072B80F5750AFFC201C200C25D
:1007780002C203C205C206C2081206F7FF700D3096
:1007880007057F0012073CAF0CAE0B22B4255FC2F1
:10079800D5C2041206F7FF24D0B40A00501A75F027
:1007A8000A780930D50508B6FF0106C6A426F62042
:1007B800D5047002D20380D924CFB41A00EF5004B4
:1007C800C2E5D20402093DD20180C6D20080C0D25F
:1007D8000280BCD2D580BAD20580B47F2012072B04
:1007E8002002077401B5090040F11206E8FF12075C
:1007F8002B020765D208D20680951206E8FB12067E
:10080800E8FA1206E8F94A4B7006790E7A0A7BFF75
:1008180020022EE509602A7E008E8275830012125E
:100828007260060EEE650A70F0C2D5EBC0E0EAC051
:10083800E0E9C0E0EE120984D0E0F9D0E0FAD0E0B7
:10084800FB121259FF60AAEBC0E0EAC0E0E9C0E081
:1008580012072BD0E02401F9D0E03400FAD0E0FBF5
:10086800E50A0460DCD50AD980877BFF7A0979809C
:10087800D202809C791080027908C206C2088008DA
:10088800D2D5790A8004790AC2D5E50A047002F53E
:100898000AE4FAFDFEFF1206E8FC7B0820011312A9
:1008A80006E8FD7B1030000A1206E8FE1206E8FF93
:1008B8007B20EC3382D592D55013C3E43000069FD9
:1008C800FFE49EFEE42001039DFDE49CFCE4CBF8DC
:1008D800C201EC700CCFCECDCCE824F8F870F380D0
:1008E80017C3EF33FFEE33FEED33FDEC33FCEB3390
:1008F800FB994002FB0FD8E9EB300105F8D0E0C4C2
:1009080048B201C0E00AEC4D4E4F78207B0070C21F
:10091800EAB50A0040BCC0E0120986D0F0D0E02059
:100928000104C4C0E0C4B201C0F0120714D0F0D56D
:10093800F0EB0207651212B5080253087C5807D37A
:100948004C07CF4208804F08884408884907E84385
:08095800088E55087246087272
:10096000450872470A2E5007D72D07DB2E07FE2BAE
:1009700007DF2307FC200A172A079748000007F61D
:100980003F3F3F00790AA2D5200314300509B91072
:10099000020404B9080104A2D52006025001042073
:1009A00002689202B509005034C0E07F203003197C
:1009B0007F30A20272067205500F1209DDC202C218
:1009C00006C205C2087F30800F300503E9C0E0127F
:1009D000072B300503D0E0F9D0E0B509CC3005177E
:1009E0007F30B9100C12072B7F583004077F7880B6
:1009F00003B9080312072B3002057F2D02072B7F56
:100A0000202008F87F2B2006F322920280CF286E48
:100A1000756C6C2900D2011206E83001F8C2017829
:100A20000930D50108F60207972D504349581206A0
:100A3000E82403B405004001E4900A299312071C3E
:0D0A4000743A12071CD20375090402087CE9
:10130E00BB010689828A83F0225002F722BBFE01BE
:02131E00F322B8
:10132000F8E0FBA3A3E0F925F0F0E5821582700256
:071330001583E0FA38F022FA
:09133700EBF0A3EAF0A3E9F022B7
:10206E00EFB40A07740D122079740A309811A899EA
:10207E00B8130CC2983098FDA899C298B811F630D2
:07208E0099FDC299F59922AA
:00000001FF
