:03000000024F208C
:0C4F2000787FE4F6D8FD758121024F6710
:10580C00125EA612538112633312635F12641E126E
:10581C00637812618412634375B10CE4F5B27F7B3B
:0F582C00FE1257AF1230DA120D5F12004680F8ED
:030023000260C4B4
:0660C400C0E0C083C082B1
:1060CA00900513E4F0309802C298309904C299C23C
:0160DA0009BC
:0760DB00D082D083D0E03237
:0300430002619DBA
:10619D00C0E0E59A30E003539AFEE59A30E10553ED
:0761AD009AFDC209D0E032A7
:096383002009FDEFD209F5992271
:105743009005DEEBF0A3EAF0A3E9F09005DEE0FBC1
:10575300A3E0FAA3E0F91222C960179005DEA3E4DF
:1057630075F0011223AAA9F0FA1222C9FF1263836A
:0357730080D922B8
:09638C002009FDEFD209F59B2266
:105776009005E1EBF0A3EAF0A3E9F09005E1E0FB88
:10578600A3E0FAA3E0F91222C960179005E1A3E4A9
:1057960075F0011223AAA9F0FA1222C9FF12638C2E
:0357A60080D92285
:105EA600E5A2543FF5A253BAFE759850759A5075FF
:105EB600D7C875D6FE758E14438E01D2AC75AF0168
:035EC600D2AF2236
:0B528300900391EBF0A3EAF0A3E9F028
:10528E009003BC7401F0A37403F0A37494F0900324
:10529E0091E0F9A3E0FAA3E09005D8C9F0A3EAF0F3
:1052AE00A3E9F09003BCE0F9A3E0FAA3E09005DBDC
:1052BE00C9F0A3EAF0A3E9F07B017A0379BF125596
:0A52CE000E7B017A0379BF025743FB
:10251E000000000000FF002601020E0F00FF000663
:10252E000203011500FF5CF30304021900FF5D3E78
:10253E000405031D00FF5D620506041F00FF5D8696
:10254E000607052000FF5DAA0708062100FF5DCEE5
:10255E000809072600FF5DF2090A082A00FF5E1629
:10256E000A0B092C00FF5E3A0B0C0A0B00FF001E33
:10257E000C0D0B0C00FF652D0D0E0C0D00FF6532C2
:10258E000E010D0E00FF000E0F0F0F1001FF561E55
:10259E001010101101FF58E51111111201FF590D04
:1025AE001212121301FF5E5E1313131401FF5E82EB
:1025BE001414140F01FF59351516183502FF6270E9
:1025CE001617153902FF62821718163D02FF629424
:1025DE001815174102FF62A6191A1C4503FF62B8AF
:1025EE001A1B194903FF62CA1B1C1A4D03FF62DC3A
:1025FE001C191B5103FF62EE1D1E1E5204FF653790
:10260E001E1D1D5304FF653C1F1F1F1F05FF639EEC
:10261E002020202006FF63A62122625407FF654179
:10262E002223215507FF65462324225607FF654BBB
:10263E002425235707FF65502560245807FF65554D
:10264E002627295908FF655A2728265A08FF655F4D
:10265E002829275B08FF65642926285C08FF656921
:10266E002A2B2B5D09FF63512B2A2A5E09FF656E0B
:10267E002C2D2D000AFF65732D2C2C000AFF65787A
:10268E002E2E2E000BFF61382F2F2F000CFF63AE66
:10269E00303030000DFF63B6313131000EFF542360
:1026AE003232323515FF5FBE3333333215FF60E2FF
:1026BE003434343315FF5FE03535353415FF6002A1
:1026CE003636363916FF595D3737373616FF5EC93F
:1026DE003838383716FF59853939393816FF59AD1C
:1026EE003A3A3A3D17FF59D53B3B3B3A17FF5EEC62
:1026FE003C3C3C3B17FF59FD3D3D3D3C17FF5A25E9
:10270E003E3E3E4118FF5A4D3F3F3F3E18FF5F0F82
:10271E004040403F18FF5A754141414018FF5A9DB5
:10272E004242424519FF5AC54343434219FF5F32A5
:10273E004444444319FF5AED4545454419FF5B1582
:10274E00464646491AFF5B3D474747461AFF5F55C7
:10275E00484848471AFF5B65494949481AFF5B8D4F
:10276E004A4A4A4D1BFF5BB54B4B4B4A1BFF5F78EA
:10277E004C4C4C4B1BFF5BDD4D4D4D4C1BFF5C051C
:10278E004E4E4E511CFF5C2D4F4F4F4E1CFF5F9B0C
:10279E005050504F1CFF5C55515151501CFF5C7DE9
:1027AE00525252521DFF63BE535353531EFF63C604
:1027BE005454545421FF63CE5555555522FF63D6BC
:1027CE005656565623FF63DE5757575724FF60FF62
:1027DE005858585825FF63E65959595926FF5CA594
:1027EE005A5A5A5A27FF63EE5B5B5B5B28FF63F610
:1027FE005C5C5C5C29FF63FE5D5D5D5D2AFF56D40B
:10280E005E5E5E5E2BFF54C15F5F5F5F5FFF6024A5
:10281E006062256107FF657D6161616160FF64062D
:10282E006221606307FF65826363636362FF640E08
:101973004105180041054A004105190045051D00B0
:101983000000010045052700000001004505320065
:101993000000010045053E0000000100450522004E
:1019A3000000010045052D00000001004505390038
:1019B30000000100450544000000010041052C0121
:1019C3004105380141053700410543004105490000
:1019D30041054C0241054F004105520641055403A0
:1019E300410555014105560041054B0B41054E008C
:1019F300410551004105530041054D024105500089
:0C1A03004105160141055701410517017E
:104C2600E49004C2F0A3F043903CE590543C643C0D
:104C36007003024CCA126343E590543C643C700313
:104C4600024CCA1264D9900519E0645E60291264A8
:104C560067EF6011900519E0D3940E40047F018040
:104C6600067F0080027F01EF600D126236126343F9
:104C76007F787E001257AF9005187401F0E59054C6
:104C86003CFF9004C2E4F0A3EFF09004C2E070048D
:104C9600A3E0643870081264C77F011264BBE59014
:104CA600543CFFBF3CF8126343E590543CFFBF3CC5
:104CB600F8E4FF1264BBE4FF1264D39004C2E0FE82
:084CC600A3E0FF227E0F7FFF37
:014CCE0022C3
:1049D700E49004C0F0A3F0FF124C269004C0EEF060
:1049E700A3EFF01265159004C0E0640F7003A3E015
:1049F700F46003024A7AEF64017078900519E07059
:104A07002A90058EE0540FFFBF080890054AE0047E
:104A1700F08005E490054AF090054AE0D3940340FE
:104A27000A7F141264DFE490054AF012651B9005B3
:104A37008EE0540F24FE601724FE601E24FC6025C0
:104A47002407702F9004C0E4F0A3741CF080249016
:104A570004C0E4F0A37434F080199004C0E4F0A318
:104A6700742CF0800E1264F1EF70089004C0F0A36C
:104A77007438F09004C0E0FEA3E0FFEE701DEF2451
:104A8700D4601224F8600B24FC600D241C700C7F8A
:0D4A970003227F02227F01227F00227FFF89
:014AA40022EF
:100D5F00E4FF9004BFF01249D7EF1470030210455F
:100D6F001470030214FB14700302101F240360039A
:100D7F000219451264A9EF7006900519E06012126E
:100D8F0064A9EF64017028900519E0FF6003B45F58
:100D9F001E1264C19004BFEFF0C3941450030219E4
:100DAF00459005197402F07F061264F7021019902E
:100DBF000519E0FF6442600FEF6443600AEF64447B
:100DCF006005EF644570301264C19004BFEFF0C34B
:100DDF00940A406B7B017A05792212460B4012125E
:100DEF006497BF010C7F797E001257AFE4FF126446
:100DFF009D126343021019900519E0FF6446600FBE
:100E0F00EF6447600AEF64486005EF64497033127E
:100E1F0064C19004BFEFF0C3940A40237B017A05AD
:100E2F00792D1241AB4012126497BF010C7F797E6E
:100E3F00001257AFE4FF12649D12634302101902B0
:100E4F000EE3900519E0FF644A600FEF644B600AF0
:100E5F00EF644C6005EF644D70321264C19004BFB3
:100E6F00EFF0C3940A40237B017A057939123F577B
:100E7F004012126497BF010C7F797E001257AFE4C6
:100E8F00FF12649D1263430210198048900519E008
:100E9F00FF644E600FEF644F600AEF64506005EF20
:100EAF00645170431264C19004BFEFF0C3940A40C1
:100EBF00237B017A0579441240814012126497BF57
:100ECF00010C7F797E001257AFE4FF12649D12630D
:100EDF0043021019900519E075F008A42421F5823A
:100EEF00E5F0342502193D900519E0B40B19126491
:100EFF00C19004BFEFF0C39414500302194590053D
:100F0F0019742EF0021019900519E0B40C1912641F
:100F1F00C19004BFEFF0C39414500302194590051C
:100F2F0019742FF0021019900519E0B40D191264FD
:100F3F00C19004BFEFF0C3941450030219459005FC
:100F4F00197430F0021019900519E0B40E191264DB
:100F5F00C19004BFEFF0C3941450030219459005DC
:100F6F00197431F0021019900519E0B42D22126492
:100F7F00C19004BFEFF0C3941450030219457F7959
:100F8F007E001257AF12510E124E0175C720807A94
:100F9F00900519E0642C705A1264C19004BFEFF0F1
:100FAF00C3941450030219457F797E001257AF1274
:100FBF00510E125698124E017B017A0379769004E6
:100FCF00FF7410F07D007C157FA01252E71263436F
:100FDF007B017A0079469004FF7410F0FD7C157F39
:100FEF00A01252E71263431251CE12634375C7200A
:100FFF008018900519E075F008A42421F582E5F01A
:10100F003425F583E493900519F01264C70219454E
:10101F00900519E0B45F0C1264A9EF6006125099A5
:10102F00021945900519E075F008A42422F582E510
:10103F00F0342502193D900519E012245A10FE0FC5
:10104F0011101011201111301211401311521413DD
:10105F00C31F13D52014B72F14A630116432117685
:10106F0033118834119A3511AC3611BE3711D0387F
:10107F0011E23911F43A12063B12183C122A3D12B2
:10108F003C3E124E3F126040127241128442129641
:10109F004312A84412BA4512CC4612DE4712F0484A
:1010AF0013024913144A13264B13384C134A4D138A
:1010BF005C4E136E4F13805013925113A35213B300
:1010CF005313E75413F955140956141C57142D587C
:1010DF00143E59144F5A14605B14705C14805D14E5
:1010EF008E5E14A15F14C76114D763000014E890DB
:1010FF0005A6E0B46305E4F00214E89005A6021417
:10110F009C9005A7E0B40C030213BA9005A7021434
:10111F009C9005A8E0B41F030213BA9005A802140F
:10112F009C9005ACE0B407030213BA9005AC02140F
:10113F009C9005A9E0B41705E4F00214E89005A906
:10114F0002149C9005AAE0B43B05E4F00214E89069
:10115F0005AA02149C90051DE0B41405E4F00214D6
:10116F00E890051D02149C90051EE0B40905E4F0FB
:10117F000214E890051E02149C90051FE0B40905A7
:10118F00E4F00214E890051F02149C900520E0B4CF
:10119F000905E4F00214E890052002149C9005273D
:1011AF00E0B41405E4F00214E890052702149C90B3
:1011BF000528E0B40905E4F00214E89005280214AC
:1011CF009C900529E0B40905E4F00214E890052984
:1011DF0002149C90052AE0B40905E4F00214E8908B
:1011EF00052A02149C900532E0B41405E4F00214B1
:1011FF00E890053202149C900533E0B40905E4F041
:10120F000214E890053302149C900534E0B40905EC
:10121F00E4F00214E890053402149C900535E0B414
:10122F000905E4F00214E890053502149C90053E80
:10123F00E0B41405E4F00214E890053E02149C900B
:10124F00053FE0B40905E4F00214E890053F0214ED
:10125F009C900540E0B40905E4F00214E8900540C5
:10126F0002149C900541E0B40905E4F00214E890E3
:10127F00054102149C900522E0B41405E4F0021419
:10128F00E890052202149C900523E0B40905E4F0D0
:10129F000214E890052302149C900524E0B409057C
:1012AF00E4F00214E890052402149C900525E0B4A4
:1012BF000905E4F00214E890052502149C90052D11
:1012CF00E0B41405E4F00214E890052D02149C908C
:1012DF00052EE0B40905E4F00214E890052E02147F
:1012EF009C90052FE0B40905E4F00214E890052F57
:1012FF0002149C900530E0B40905E4F00214E89064
:10130F00053002149C900539E0B41405E4F0021482
:10131F00E890053902149C90053AE0B40905E4F011
:10132F000214E890053A02149C90053BE0B40905BD
:10133F00E4F00214E890053B02149C90053CE0B4E5
:10134F000905E4F00214E890053C02149C90054452
:10135F00E0B41405E4F00214E890054402149C90E4
:10136F000545E0B40905E4F00214E89005450214C0
:10137F009C900546E0B40905E4F00214E890054698
:10138F0002149C900547E0B40904E4F08006900530
:10139F0047E004F090052CE0B401030214AD900572
:1013AF002C0214E5900538E0B463030214E59005B0
:1013BF003802149C900537E0B46305E4F00214E89A
:1013CF0090053702149C900543E0B46305E4F002E6
:1013DF0014E890054302149C900549E0B40705E416
:1013EF00F00214E890054902149C90054CE0B409F2
:1013FF00030214E590054C02149C90054FE0700514
:10140F0004F00214E8E490054FF00214E89005523E
:10141F00E0B40905E4F00214E8900552806F9005DE
:10142F0054E0B40705E4F00214E8900554805E9090
:10143F00054BE0B40B05E4F00214E890054B804D2A
:10144F0090054EE0B40B05E4F00214E890054E80D1
:10145F003C900551E0B40B04E4F0807D9005518081
:10146F002C900553E0B40B04E4F0806D900553808D
:10147F001C90054DE0B40102802490054D805790DB
:10148F000550E0B42604E4F0804F900550E004F0DE
:10149F008047124B6E8042900557E0B401057402ED
:1014AF00F08036900557802E900516E0B40104E4C5
:1014BF00F08026900516801E900555E0B40104E4D7
:1014CF00F08016900555800E900556E0B40104E4A7
:1014DF00F080069005567401F0900519E075F0083C
:1014EF00A4241FF582E5F0342502193D900519E07B
:1014FF0012245A15B40F15C31015D61115E912156C
:10150F00F913160B14181C1F182A2018FC2F18EB90
:10151F0030161D32162C33163B34164A35165936F3
:10152F0016683716773816863916953A16A43B166D
:10153F00B33C16C23D16D13E16E03F16EF4016FEE5
:10154F0041170D42171C43172B44173A45174946AD
:10155F0017574717664817754917844A17924B173D
:10156F00A14C17B04D17BF4E17D14F17E05017EFC3
:10157F005117FD52180D53183C54184A5518595607
:10158F00186C57187D58188E59189B5A18A85B1845
:10159F00B55C18C55D18D35E18E65F190C61191C90
:1015AF00630000192D9005A6E07003021830900516
:1015BF00A60218E19005A7E0B40106740CF0021919
:1015CF002D9005A70218E19005A8E0B40106741F3D
:1015DF00F002192D9005A80218E19005ACE0B401B6
:1015EF00030218839005AC0218E19005A9E070067C
:1015FF007417F002192D9005A90218E19005AAE0C1
:10160F007006743BF002192D9005AA0218E190059F
:10161F001DE070030217C590051D0218E190051E0D
:10162F00E0700302187290051E0218E190051FE08A
:10163F00700302187290051F0218E1900520E070E8
:10164F00030218729005200218E1900527E070033D
:10165F000217C59005270218E1900528E0700302D4
:10166F0018729005280218E1900529E070030218FE
:10167F00729005290218E190052AE0700302187292
:10168F0090052A0218E1900532E070030217C59009
:10169F0005320218E1900533E070030218729005CD
:1016AF00330218E1900534E070030218729005348C
:1016BF000218E1900535E0700302187290053502AB
:1016CF0018E190053EE070030217C590053E021821
:1016DF00E190053FE0700302187290053F0218E198
:1016EF00900540E070030218729005400218E190D7
:1016FF000541E070030218729005410218E1900550
:10170F0022E070030217C59005220218E19005230D
:10171F00E070030218729005230218E1900524E08F
:10172F0070030218729005240218E1900525E070ED
:10173F00030218729005250218E190052DE0700242
:10174F00807490052D0218E190052EE070030218A9
:10175F007290052E0218E190052FE07003021872A7
:10176F0090052F0218E1900530E070030218729077
:10177F0005300218E1900539E07002803990053983
:10178F000218E190053AE0700302187290053A02D0
:10179F0018E190053BE0700302187290053B0218A8
:1017AF00E190053CE0700302187290053C0218E1CD
:1017BF00900544E070067414F002192D9005440250
:1017CF0018E1900545E07003021872900545021864
:1017DF00E1900546E070030218729005460218E189
:1017EF00900547E07002807B9005470218E1900555
:1017FF002CE0B401030218F290052C02192A90056F
:10180F0038E0B40102801A9005380218E1900537CC
:10181F00E07002800C9005370218E1900543E070EC
:10182F00067463F002192D9005430218E1900549E3
:10183F00E07002803F9005490218E190054CE0B43A
:10184F000102801F90054C0218E190054FE07005D2
:10185F0004F002192DE490054FF002192D90055256
:10186F00E070067409F002192D90055280649005FE
:10187F0054E070067407F002192D900554805390B0
:10188F00054BE07002802590054B804690054EE099
:10189F007002801890054E8039900551E0700280DB
:1018AF000B900551802C900553E07005740BF08060
:1018BF006D900553801C90054DE0B401028024907B
:1018CF00054D8057900550E070057426F0804F90BD
:1018DF000550E014F080471247138042900557E0FF
:1018EF00B401057402F08036900557802E900516CE
:1018FF00E0B40104E4F08026900516801E90055593
:10190F00E0B40104E4F08016900555800E90055662
:10191F00E0B40104E4F080069005567401F09005E0
:10192F0019E075F008A42420F582E5F03425F5833D
:10193F00E493900519F0124E01900519E075F00827
:10194F00A42423F582E5F03425F583E493FB740199
:10195F0093FA740293F990051AEBF0A3EAF0A3E956
:04196F00F0022480DE
:0D6343007F047E347DDCDDFEDEFADFF60037
:01635000222A
:05642500900519E0FFE5
:01642A00224F
:06642B00900519EFF022BC
:0564310090052CE0FFC6
:016436002243
:05643700900538E0FFB4
:01643C00223D
:05643D00900537E0FFAF
:016442002237
:05644300900543E0FF9D
:016448002231
:05644900900549E0FF91
:01644E00222B
:05644F0090054CE0FF88
:016454002225
:0564550090054FE0FF7F
:01645A00221F
:05645B00900552E0FF76
:016460002219
:05646100900554E0FF6E
:016466002213
:05646700900555E0FF67
:01646C00220D
:05646D00900556E0FF60
:016472002207
:0564730090054BE0FF65
:016478002201
:0564790090054EE0FF5C
:01647E0022FB
:05647F00900551E0FF53
:0164840022F5
:05648500900553E0FF4B
:01648A0022EF
:05648B0090054DE0FF4B
:0164900022E9
:05649100900550E0FF42
:0164960022E3
:05649700900518E0FF74
:01649C0022DD
:06649D00900518EFF0224B
:0564A300900557E0FF29
:0164A80022D1
:0564A900900516E0FF64
:0164AE0022CB
:104E010090052CE09005B5F0900538E09005B6F0DE
:104E1100900537E09005B7F0900543E09005B8F0B4
:104E2100900549E09005B9F090054CE09005BAF085
:104E310090054FE09005BBF0900552E09005BCF065
:104E4100900554E09005BDF0900555E09005BEF049
:104E5100900556E09005BFF090054BE09005C0F03D
:104E610090054DE09005C1F0900516E09005C2F067
:104E7100900557E09005C3F07B017A0579B5900460
:104E8100FF740FF07D207C157FA01252E70263436F
:1030DA007B017A0379769005017410F07D007C15E6
:1030EA007FA01250321263437B017A007946900521
:1030FA00017410F0FD7C157FA01250321263437BDD
:10310A00017A0579B5900501740FF07D207C157F51
:10311A00A01250321263439005B5E0FF90052CF0DF
:10312A009005B6E0900538F09005B7E0900537F0C5
:10313A009005B8E0900543F09005B9E0900549F094
:10314A009005BAE090054CF09005BBE090054FF071
:10315A009005BCE0900552F09005BDE0900554F052
:10316A009005BEE0900555F09005BFE0900556F039
:10317A009005C0E090054BF09005C1E090054DF038
:10318A009005C2E0900516F09005C3E0900557F04F
:10319A00EFD39402400690052C7401F09005B6E036
:1031AA00D3946340069005387401F09005B7E0D3D4
:1031BA00946340069005377401F09005B8E0D39403
:1031CA006340069005437401F09005B9E0D3940773
:1031DA004005E4900549F09005BAE0D39409400609
:1031EA0090054C7402F09005BBE0D394014005E4CD
:1031FA0090054FF09005BCE0D39409400690055223
:10320A007406F09005BDE0D3940740069005547407
:10321A0003F09005BEE0D394014005E4900555F013
:10322A009005BFE0D394014005E4900556F090055F
:10323A00C0E0D3940B400690054B740BF09005C187
:10324A00E0D39402400690054D7402F09005C2E066
:10325A00D3940140069005167401F09005C3E0D39B
:0B326A00940240069005577401F0220A
:10510E0090052C7401F0900538F0E4900537F0907E
:10511E000543F0900549F090054C7402F0E49005BB
:10512E004FF09005527406F09005547403F0A3747A
:10513E0001F0E4A3F090054B740BF0E490054EF0F3
:10514E00900551F0900553F090054D7402F0E490E7
:10515E000550F090051604F0900557F0900517F0E5
:01516E00221E
:105698007F109003767401F0A3DFFC90004674013C
:1056A800F0E4A3F0A37403F0A37405F0A37402F06C
:1056B800A314F0A3F0A37406F0A37401F0A3F0A35D
:0B56C800F0A3F0A3F0A3F0A3F0A3F008
:0156D30022B4
:10606600000000000000000000000000000000002A
:10607600000000000000000000000000000000001A
:101A0F005500313F065B4F666D7D077F6F777C39E1
:101A1F005E797176385C733E4803860102040810C4
:101A2F0020408042038E4000603000010000000023
:101A3F000000000000000000000000000000000097
:101A4F000000000000000000000000000000000087
:101A5F00000000000000000000000000632000569E
:101A6F000000000000000000000000000000000067
:101A7F000000000000000000000000000000000057
:101A8F000000000000000000000000000000000047
:101A9F000000000000000000000000000000000037
:101D8F004100000041039000500376010101010161
:101D9F000101010101010101010101500046010092
:0E1DAF0003050201010601010101010101010C
:10583B00C282E4FDFCC280EF30E004D2818002C260
:10584B008100000000D280EFC313FF0DBD00010CDF
:0A585B00ED64084C70DFC280C281CA
:015865002220
:10586600C283E4FDFCC280EF30E004D2818002C234
:105876008100000000D280EFC313FF0DBD00010CB4
:0A588600ED64084C70DFC280C2819F
:0158900022F5
:10589100C2CCE4FDFCC280EF30E004D2818002C2C0
:1058A1008100000000D280EFC313FF0DBD00010C89
:0A58B100ED64084C70DFC280C28174
:0158BB0022CA
:0961CB00AE077F401261D47FC0D1
:0D61D400D282000000000000C28202583B91
:0C6152001261D4D2827F4012615E7FC0D7
:0D615E00D283000000000000C283025866DA
:0C616B0012615ED2837F401261777FC01A
:0D617700D2CC000000000000C2CC02589104
:054D6F00E4900003F0D8
:104D74001264611261CBE4FB74012BF582E434000C
:104D8400F583E0FF12583B74092BF582E43400F5F7
:104D940083E0FF12583B0BEBB408DDEE2488FF12CE
:104DA4006152E4FB74112BF582E43400F583E0FFD7
:104DB40012586674192BF582E43400F583E0FF126F
:104DC40058660BEBB408DDEE2488FF12616BE4FB3C
:104DD40074212BF582E43400F583E0FF12589174BA
:104DE400292BF582E43400F583E0FF1258910BEB94
:0C4DF400B408DDEE2488FF126177D2CCF9
:014E0000228F
:105558001261CBE4FBAF0612583BAF0612583B0B67
:10556800EBB408F17F8F126152E4FBAF0612586664
:10557800AF061258660BEBB408F17F8F12616BE42B
:10558800FBAF06125891AF061258910BEBB408F115
:075598007F8F126177D2CC76
:01559F0022E9
:10538100E49004BFF0E4FFE4FE9004BFE02486F55E
:1053910082E43403F583E0FDEF75F008A42401F500
:1053A10082E43400F583E5822EF582E43583F583CA
:1053B100EDF00EEEB408D20FEFB406CB124D747FB0
:1053C1001E12625E9004BFE004F0E0C3940840B591
:0153D10022B9
:10625E00EFD39400400B7EFF7DFFDDFEDEFA1F8044
:01626E00EF40
:01626F00220C
:1058BC00E4FFE4FEEF75F008A42401F582E4340063
:1058CC00F583E5822EF582E43583F583E4F00EEE64
:0858DC00B408E10FEFB406DA95
:0158E40022A1
:0A636D007F78900056E4F0A3DFFCF7
:016377002203
:10570E00E4FF1264AFEF6401702A1258BC900000DF
:10571E00E05403FF2401F582E43400F5837440F075
:10572E00124D74E4FF1264B5900000E004F0E0B492
:04573E000402E4F08D
:015742002244
:1043EC001258BC124FAC900033E0900010F09000CB
:1043FC0031E090000FF09005A6E0FF75F00A8424E0
:10440C0031F582E43400F583E090000EF0EF75F0A6
:10441C000A84743125F0F582E43400F583E09000D1
:10442C000DF090000C7440F09005A7E0FF75F00AB9
:10443C00842431F582E43400F583E090000BF0EF36
:10444C0075F00A84743125F0F582E43400F583E0CC
:10445C0090000AF09000097440F09005A8E0FF75F8
:10446C00F00A842431F582E43400F583E0900008EE
:10447C00F0EF75F00A84743125F0F582E43400F520
:10448C0083E0900007F09005ACE02431F582E43431
:10449C0000F583E0900006F09005A9E0FF75F00AA6
:1044AC00842431F582E43400F583E0900004F0EFCD
:1044BC0075F00A84743125F0F582E43400F583E05C
:1044CC00900003F09005AAE0FF75F00A842431F502
:1044DC0082E43400F583E0900002F0EF75F00A847A
:1044EC00743125F0F582E43400F583E0900001F09E
:0344FC00024D74FA
:10608600AD071258BC900040E0900002F074312D2C
:0F609600F582E43400F583E0900001F0024D74D0
:1060A500AD071258BC90003FE0900002F074312D0E
:0F60B500F582E43400F583E0900001F0024D74B1
:106222001258BC900031E0900002F09000017437E7
:04623200F0024D74B5
:1061E1001258BC900031E0900002F0900040E09025
:0661F1000001F0024D74F4
:1061B400AD071258BC74312DF582E43400F583E048
:0761C400900001F0024D7490
:1057DC00AD071258BCED75F00A842431F582E4341F
:1057EC0000F583E0900002F0ED75F00A8474312529
:1057FC00F0F582E43400F583E0900001F0024D7482
:10516F00AB07AA061258BC7C007D64AF03AE0212D7
:10517F00235574312FF58274003EF583E0900003C0
:10518F00F07C007D0AAF03AE021223557C007D0A2E
:10519F0012235574312DF58274003CF583E0900095
:1051AF0002F0AE02AF037C007D0A12235574312D3D
:0F51BF00F58274003CF583E0900001F0024D741E
:06522A007B017A05791DED
:105230001258BC1222C92431F582E43400F583E00F
:10524000900004F09000011222E22431F582E4344F
:1052500000F583E0900003F09000021222E2243176
:10526000F582E43400F583E0900002F09000031230
:1052700022E22431F582E43400F583E0900001F06D
:03528000024D7468
:10355B001258BC9000AEE060179004F97401F0A310
:10356B007400F0A374AEF07B017A007930122D4E0B
:10357B009000A6E060179004F97401F0A37400F0BA
:10358B00A374A6F07B017A00792C122D4E90009E2D
:10359B00E060179004F97401F0A37400F0A3749E1B
:1035AB00F07B017A007928122D4E900096E060177F
:1035BB009004F97401F0A37400F0A37496F07B01EE
:1035CB007A007924122D4E90008EE060179004F94A
:1035DB007401F0A37400F0A3748EF07B017A007970
:1035EB0020122D4E900086E060179004F97401F0C4
:1035FB00A37400F0A37486F07B017A00791C122D62
:10360B004E90007EE060179004F97401F0A37400F3
:10361B00F0A3747EF07B017A007918122D4E900086
:10362B0076E060179004F97401F0A37400F0A374B2
:10363B0076F07B017A007914122D4E90006EE060CB
:10364B00179004F97401F0A37400F0A3746EF07B6F
:10365B00017A007910122D4E900066E060179004ED
:10366B00F97401F0A37400F0A37466F07B017A0087
:10367B00790C122D4E90005EE060179004F97401E6
:10368B00F0A37400F0A3745EF07B017A007908124A
:10369B002D4E900056E060179004F97401F0A3745E
:1036AB0000F0A37456F07B017A007904122D4E22A0
:102D4E009004F6EBF0A3EAF0A3E9F0A3E0FBA3E016
:102D5E00FAA3E0F99000011222E22431F582E43464
:102D6E0000F583E0FF9004F6E0FBA3E0FAA3E0F9A0
:102D7E00EF12230F9004F9E0FBA3E0FAA3E0F99021
:102D8E0000021222E22431F582E43400F583E0FFE2
:102D9E009004F6E0FBA3E0FAA3E0F990FFFFEF1238
:102DAE0023219004F9E0FBA3E0FAA3E0F9900003DD
:102DBE001222E22431F582E43400F583E0FF900420
:102DCE00F6E0FBA3E0FAA3E0F990FFFEEF12232159
:102DDE009004F9E0FBA3E0FAA3E0F99000041222BC
:102DEE00E22431F582E43400F583E0FF9004F6E04E
:102DFE00FBA3E0FAA3E0F990FFFDEF12232190046C
:102E0E00F9E0FBA3E0FAA3E0F99000051222E254E8
:102E1E000F24FD6036147003022EB124FD700302E0
:102E2E002EF6147003022F0924066003022F22903F
:102E3E0004F6E0FBA3E0FAA3E024FDF9EA34FFFA7E
:102E4E001222C9448012230F022EF69004F6E0FBE4
:102E5E00A3E0FAA3E024FDF9EA34FFFA1222C944F2
:102E6E008012230F9004F6E0FBA3E0FAA3E024FE09
:102E7E00F9EA34FFFA1222C9448012230F9004F6A5
:102E8E00E0FBA3E0FAA3E024FFF9EA34FFFA1222F2
:102E9E00C9448012230F9004F6E0FBA3E0FAA3E0EE
:102EAE00F980699004F6E0FBA3E0FAA3E024FDF9B3
:102EBE00EA34FFFA1222C9448012230F9004F6E07E
:102ECE00FBA3E0FAA3E024FEF9EA34FFFA1222C9CA
:102EDE00448012230F9004F6E0FBA3E0FAA3E02453
:102EEE00FFF9EA34FFFA80249004F6E0FBA3E0FA3F
:102EFE00A3E024FEF9EA34FFFA80119004F6E0FB19
:102F0E00A3E0FAA3E024FDF9EA34FFFA1222C94441
:052F1E008012230F22C8
:1048FC009004E8EBF0A3EAF0A3E9F0A3E0FBA3E05B
:10490C00FAA3E0F91222C9FF9004E8E0FBA3E0FA55
:10491C00A3E0F9EF12230F9004EBE0FBA3E0FAA362
:10492C00E0F99000011222E2FF9004E8E0FBA3E022
:10493C00FAA3E0F9900001EF1223219004EBE0FBC5
:10494C00A3E0FAA3E0F99000021222E2FF9004E83F
:10495C00E0FBA3E0FAA3E0F9900002EF1223219010
:10496C0004EBE0FBA3E0FAA3E0F99000031222E2CF
:10497C00FF9004E8E0FBA3E0FAA3E0F9900003EF5A
:10498C001223219004EBE0FBA3E0FAA3E0F99000E2
:10499C00041222E2FF9004E8E0FBA3E0FAA3E0F9A2
:1049AC00900004EF1223219004EBE0FBA3E0FAA3A8
:1049BC00E0F99000071222E2FF9004E8E0FBA3E08C
:0B49CC00FAA3E0F9900005EF022321A0
:095473002456F974003EFA7B0195
:10547C001222C99000081223219000011222E290FE
:10548C0000091223219000021222E290000A12233A
:10549C00219000031222E290000B122321900004B1
:1054AC001222E290000C1223219000051222E290AD
:0554BC00000D02232198
:0F532D00EF75F008A42456F9740035F0FA7B01EF
:10533C009000081222E212230F9000091222E29030
:10534C00000112232190000A1222E2900002122383
:10535C002190000B1222E290000312232190000CEA
:10536C001222E290000412232190000D1222E290EE
:05537C000005022321E1
:1032750078EC7C047D017BFF7A6079667E007F08AF
:103285001222A3E49004F4F0A3F01264559004F420
:10329500EFF01264499004F5EFF01264439004EAEC
:1032A500EFF012643D9004EBEFF01264CD9004EB67
:1032B500E0FE9004EAE0FDC39E500AEF9D4006EE55
:1032C5006003E0701B9004EBE060030233F09004B0
:1032D500EAE0FE70030233F0EFD39E50030233F0B1
:1032E500E49004E8F09004E8E0FFC3940A5022EF6C
:1032F50075F008A42456F582740035F0F583E07066
:10330500089004E8E0A3F080089004E8E004F08069
:10331500D4E49004E8F09004E9E024FFFFE434FFEE
:10332500FEEF7803C333CE33CED8F9FF9004E8E03F
:10333500FD7A002FFFEA3EFE74562FF58274003E9B
:10334500F583E0FF74EC2DF582E43404F583EFF0AA
:103355009004E8E004F0E0B406BC9004E9E09004D1
:10336500E8F09004E8E0FFD39401401DEF24FEFF50
:10337500E434FFFEEF7803C333CE33CED8F91254CD
:10338500739004E8E014F080D9E49004E8F0900428
:10339500E8E0FF24ECF582E43404F583E0FE74569E
:1033A5002FF582E43400F583EEF09004E8E004F0B4
:1033B500E0B406DA12355B124D74E4FF1264D39063
:1033C50004F4E0B401257B017A007956900056E0BB
:1033D500FD9004FAE4F0A3EDF090005BE0540F904B
:0B33E50004FCF09004F5E0FF122AEC5D
:0133F00022BA
:1042CE00E49004EEF0A3F01264439004E9EFF012D0
:1042DE00643D9004EAEFF01264CD9004EBEFF0121F
:1042EE0064379004ECEFF01264319004EDEFF012AD
:1042FE00644F9004EFEFF09004E9E0FFA3E0FEC3FB
:10430E009F500EA3E09E4009EF60069004EAE07015
:10431E001A9004E9E060030243EBA3E0FF7003028E
:10432E0043EBA3E0D39F50030243EBE49004E8F089
:10433E009004ECE014FD9004E8E0FFC39D500B12D6
:10434E00532D9004E8E004F080E6ED33333354F857
:10435E009004E8F09004ECE075F008A4FF9004E8F7
:10436E00E0FDC39FE5F06480F87480985014745695
:10437E002DF582E43400F583E4F09004E8E004F0D7
:10438E0080D212355B124D74E4FF1264D390005646
:10439E00E07004FF02642B9004EDE06402703E9026
:1043AE0004E8F09004EFE0FF9004E8E0C39F502D86
:1043BE007B017A007956900056E0FD9004FAE4F005
:1043CE00A3EDF090005BE0540F9004FCF09004EE2F
:0D43DE00E0FF122AEC9004E8E004F080C635
:0143EB0022AF
:10509900E49004C1F01264379004C1EFF0E4900485
:1050A900C0F09004C1E014FD9004C0E0FFC39D501E
:1050B9000B12532D9004C0E004F080E6ED33333336
:1050C90054F89004C0F09004C1E075F008A4FF9072
:1050D90004C0E0FDC39FE5F06480F8748098501423
:1050E90074562DF582E43400F583E4F09004C0E0B1
:1050F90004F080D212355B124D74900056E07004B2
:04510900FF12642B02
:01510D00227F
:104B6E0078C17C047D017BFF7A60796E7E007F06C2
:104B7E001222A31264379004C0EFF0126437AD070F
:104B8E00E4FCECC39D501CEC75F008A42456F58291
:104B9E00740035F0F583E070079004C0ECF08003EC
:104BAE000C80DFE4FC74562CF582E43400F583E0CF
:104BBE00FF74C12CF582E43404F583EFF00CECB4F1
:104BCE0006E3E4FC9004C0E0FFECC39F5007EC1238
:104BDE00532E0C80EFE4FC74C12CF582E43404F502
:104BEE0083E0FD9004C0E024FFFFE434FFFEEF7885
:104BFE0003C333CE33CED8F9FFEC7A002FFFEA3E53
:104C0E00FE74562FF58274003EF583EDF00CECB475
:084C1E0006C512355B024D745E
:1047130078C27C047D017BFF7A6079747E007F061A
:104723001222A31264379004C1EFF0126437AD076D
:10473300E49004C0F09004C0E0FFC39D5022EF75E5
:10474300F008A42456F582740035F0F583E0700870
:104753009004C0E0A3F080089004C0E004F080D58A
:10476300E49004C0F09004C1E024FFFFE434FFFEB2
:10477300EF7803C333CE33CED8F9FF9004C0E0FD06
:104783007A002FFFEA3EFE74562FF58274003EF541
:1047930083E0FF74C22DF582E43404F583EFF090D7
:1047A30004C0E004F0E0B406BC9004C1E09004C08F
:1047B300F09004C0E0FFD39401401DEF24FEFFE41A
:1047C30034FFFEEF7803C333CE33CED8F9125473DC
:1047D3009004C0E014F080D9E49004C0F09004C0C9
:1047E300E0FF24C2F582E43404F583E0FE74562F1F
:1047F300F582E43400F583EEF09004C0E004F0E0C9
:09480300B406DA12355B024D74B3
:0B2F23009004E8EBF0A3EAF0A3E9F053
:102F2E0078F17C047D017BFF7A60797A7E007F06E2
:102F3E001222A31264379004EFEFF012643790045C
:102F4E00F0EFF0E49004EEF09004F0E0FF9004EE69
:102F5E00E0FEC39F4003023036EE75F008A4FFAECC
:102F6E00F09004EBE0FBA3E0FAA3E02FF9EA3EFABF
:102F7E009000011222E2FD9004E8E0FBA3E0FAA328
:102F8E00E0F99000011222E26D600302302D9004F0
:102F9E00EBE0FBA3E0FAA3E02FF9EA3EFA90000281
:102FAE001222E2FF9004E8E0FBA3E0FAA3E0F9901E
:102FBE0000021222E26F70679004EEE075F008A432
:102FCE00FFAEF09004EBE0FBA3E0FAA3E02FF9EAEA
:102FDE003EFA9000031222E2FD9004E8E0FBA3E02B
:102FEE00FAA3E0F99000031222E2B505329004EB49
:102FFE00E0FBA3E0FAA3E02FF9EA3EFA90000412F8
:10300E0022E2FF9004E8E0FBA3E0FAA3E0F99000CF
:10301E00041222E2B507089004EEE0A3F0800990B6
:10302E0004EEE004F0022F569004EFE070031262FB
:10303E00369004EFE09004EEF09004F0E0FD900482
:10304E00EEE0FFC39D5021EF75F008A4FF9004EB56
:10305E00E0FBA3E0FAA3E02FF9EA35F0FA12533CB5
:10306E009004EEE004F080D19004EFE06D6048E44F
:10307E009004EEF09004EEE0FDC3940650399004F7
:10308E00F0E024FFFFE434FFFEEF7803C333CE33CA
:10309E00CED8F9FF9004EBE0FBA3E0FAA3E02FF902
:1030AE00EA3EFAED7E0029F9EE3AFAE412230F9089
:1030BE0004EEE004F080BD9004EBE0FBA3E0FAA385
:0B30CE00E0F91222C97004FF12642B0D
:0130D90022D4
:0B33F1009004E8EBF0A3EAF0A3E9F081
:1033FC0078EF7C047D017BFF7A6079807E007F060C
:10340C001222A31264379004EEEFF0126437AD076A
:10341C00E4FCECC39D40030234F8EC75F008A4FF07
:10342C009004EBE0FBA3E0FAA3E02FF9EA35F0FA05
:10343C009000011222E2FF9004E8E0FBA3E0FAA363
:10344C00E0F99000011222E26F60030234F4EC7593
:10345C00F008A4FF9004EBE0FBA3E0FAA3E02FF943
:10346C00EA35F0FA9000021222E2FF9004E8E0FB49
:10347C00A3E0FAA3E0F99000021222E26F7069EC6B
:10348C0075F008A4FF9004EBE0FBA3E0FAA3E02F97
:10349C00F9EA35F0FA9000031222E2FF9004E8E01A
:1034AC00FBA3E0FAA3E0F99000031222E26F70385C
:1034BC00EC75F008A4FF9004EBE0FBA3E0FAA3E0AA
:1034CC002FF9EA35F0FA9000041222E2FF9004E89A
:1034DC00E0FBA3E0FAA3E0F99000041222E2B507A6
:1034EC00079004EEECF080040C02341E9004EEE025
:1034FC00FCECC39D501CEC75F008A4FF9004EBE0B1
:10350C00FBA3E0FAA3E02FF9EA35F0FA12533C0CD6
:10351C0080DF9004EEE06D6035E4FCED24FFFFE409
:10352C0034FFFEEF7803C333CE33CED8F9FF9004CB
:10353C00EBE0FBA3E0FAA3E02FF9EA3EFAEC7E0005
:0E354C0029F9EE3AFAE412230F0CECB406CD86
:01355A00224E
:10002600E4FF1264A3EFB40107D2CD12570E80038A
:0C0036001243EC1264A9BF010312636DB9
:01004200229B
:05000600E4FF0260862A
:105CF300D2CD7F01126086126497BF0118126467C8
:105D0300BF01121262361263437F6F7E001257AFD8
:065D1300E4FF12649D2272
:105D3E007F02126086126497BF0118126467BF015A
:105D4E00121262361263437F707E001257AFE4FF69
:045D5E0012649D220C
:105D62007F03126086126497BF0118126467BF0135
:105D7200121262361263437F717E001257AFE4FF44
:045D820012649D22E8
:105D86007F04126086126497BF0118126467BF0110
:105D9600121262361263437F727E001257AFE4FF1F
:045DA60012649D22C4
:105DAA007F05126086126497BF0118126467BF01EB
:105DBA00121262361263437F737E001257AFE4FFFA
:045DCA0012649D22A0
:105DCE007F06126086126497BF0118126467BF01C6
:105DDE00121262361263437F747E001257AFE4FFD5
:045DEE0012649D227C
:105DF2007F07126086126497BF0118126467BF01A1
:105E0200121262361263437F757E001257AFE4FFAF
:045E120012649D2257
:105E16007F08126086126497BF0118126467BF017B
:105E2600121262361263437F767E001257AFE4FF8A
:045E360012649D2233
:105E3A007F09126086126497BF0118126467BF0156
:105E4A00121262361263437F777E001257AFE4FF65
:045E5A0012649D220F
:05001E007F0A0260866C
:05652D007F0B026086F7
:056532007F0C026086F1
:0D000E007F0D126086E4FF1264EBD2CD225C
:10561E001264A3EFB401057F0102642B1264AFBFC5
:10562E0001081243EC7F021264B51264AFBF031976
:10563E00E4900010F090000FF090000EF090000D2E
:0C564E00F0124D74E4FF1264B5124E918E
:01565A00222D
:1058E5001264AFBF01081243EC7F021264B5126463
:1058F500AFBF0311E490000BF090000AF0124D7455
:08590500E4FF1264B5024E91AB
:10590D001264AFBF01081243EC7F021264B512643A
:10591D00AFBF0311E4900008F0900007F0124D7432
:08592D00E4FF1264B5024E9183
:105E5E001264AFBF01081243EC7F021264B51264E4
:105E6E00AFBF030DE4900006F0124D74E4FF126410
:045E7E00B5024E918A
:105E82001264AFBF01081243EC7F021264B51264C0
:105E9200AFBF030DE4900004F0124D70E4FF1264F2
:045EA200B5024E9166
:105935001264AFBF01081243EC7F021264B5126412
:10594500AFBF0311E4900002F0900001F0124D7416
:08595500E4FF1264B5024E915B
:106270007F011260A5E490051DF0A3F0A3F0A30434
:02628000F0220A
:106282007F021260A5E4900527F0A3F0A3F0A30417
:02629200F022F8
:106294007F031260A5E4900532F0A3F0A3F0A304F9
:0262A400F022E6
:1062A6007F041260A5E490053EF0A3F0A3F0A304DA
:0262B600F022D4
:1062B8007F011260A5E4900522F0A3F0A3F0A304E7
:0262C800F022C2
:1062CA007F021260A5E490052DF0A3F0A3F0A304C9
:0262DA00F022B0
:1062DC007F031260A5E4900539F0A3F0A3F0A304AA
:0262EC00F0229E
:1062EE007F041260A5E4900544F0A3F0A3F0A3048C
:0262FE00F0228C
:056537007F010260A5D8
:05653C007F020260A5D2
:08639E00E4FF12643D0257DC2C
:0863A600E4FF1264430257DC1E
:056541007F010260A5CE
:056546007F020260A5C8
:05654B007F030260A5C2
:056550007F040260A5BC
:056555007F050260A5B6
:05655A007F010260A5B5
:05655F007F020260A5AF
:056564007F030260A5A9
:056569007F040260A5A3
:0E6351007F011260A512648B900390EFF02282
:05656E007F020260A5A0
:056573007F010260A59C
:056578007F020260A596
:10613800E4FFFEFDFC126395AC06AD077E277F10D9
:0A614800122355AC06AD0702516F9B
:0863AE00E4FF1264A90261B4CE
:0863B600E4FF1264A30261B4CC
:105423001264E59004C0EFF0D394145031E0FAC352
:10543300940450028019EAD3941250139004C0E0EC
:10544300C3132484F582E43403F583E0FF80027FF1
:10545300FF12555830A4077F3C7E001257AF9004CB
:0F546300C0E0D3941440061258BC124D74C2CD51
:015472002217
:105FBE001264AFBF010812522A7F021264B5126436
:105FCE00AFBF030DE4900004F0124D74E4FF1264B1
:025FDE00B522EA
:1060E2001264AFBF010812522A7F021264B5126411
:0D60F200AFBF0308124D6FE4FF1264B5222A
:105FE0001264AFBF010812522A7F021264B5126414
:105FF000AFBF030DE4900002F0124D74E4FF126491
:02600000B522C7
:106002001264AFBF010812522A7F021264B51264F1
:10601200AFBF030DE4900001F0124D74E4FF12646F
:02602200B522A5
:10595D001264AFBF010E7B017A0579271252307F99
:10596D00021264B51264AFBF030DE4900004F0128F
:08597D004D74E4FF1264B52231
:105EC9001264AFBF010E7B017A0579271252307F28
:105ED900021264B51264AFBF0308124D6FE4FF12DA
:035EE90064B5227B
:105985001264AFBF010E7B017A0579271252307F71
:10599500021264B51264AFBF030DE4900002F01269
:0859A5004D74E4FF1264B52209
:1059AD001264AFBF010E7B017A0579271252307F49
:1059BD00021264B51264AFBF030DE4900001F01242
:0859CD004D74E4FF1264B522E1
:1059D5001264AFBF010E7B017A0579321252307F16
:1059E500021264B51264AFBF030DE4900004F01217
:0859F5004D74E4FF1264B522B9
:105EEC001264AFBF010E7B017A0579321252307FFA
:105EFC00021264B51264AFBF0308124D6FE4FF12B7
:035F0C0064B52257
:1059FD001264AFBF010E7B017A0579321252307FEE
:105A0D00021264B51264AFBF030DE4900002F012F0
:085A1D004D74E4FF1264B52290
:105A25001264AFBF010E7B017A0579321252307FC5
:105A3500021264B51264AFBF030DE4900001F012C9
:085A45004D74E4FF1264B52268
:105A4D001264AFBF010E7B017A05793E1252307F91
:105A5D00021264B51264AFBF030DE4900004F0129E
:085A6D004D74E4FF1264B52240
:105F0F001264AFBF010E7B017A05793E1252307FCA
:105F1F00021264B51264AFBF0308124D6FE4FF1293
:035F2F0064B52234
:105A75001264AFBF010E7B017A05793E1252307F69
:105A8500021264B51264AFBF030DE4900002F01278
:085A95004D74E4FF1264B52218
:105A9D001264AFBF010E7B017A05793E1252307F41
:105AAD00021264B51264AFBF030DE4900001F01251
:085ABD004D74E4FF1264B522F0
:105AC5001264AFBF010E7B017A0579221252307F35
:105AD500021264B51264AFBF030DE4900004F01226
:085AE5004D74E4FF1264B522C8
:105F32001264AFBF010E7B017A0579221252307FC3
:105F4200021264B51264AFBF0308124D6FE4FF1270
:035F520064B52211
:105AED001264AFBF010E7B017A0579221252307F0D
:105AFD00021264B51264AFBF030DE4900002F01200
:085B0D004D74E4FF1264B5229F
:105B15001264AFBF010E7B017A0579221252307FE4
:105B2500021264B51264AFBF030DE4900001F012D8
:085B35004D74E4FF1264B52277
:105B3D001264AFBF010E7B017A05792D1252307FB1
:105B4D00021264B51264AFBF030DE4900004F012AD
:085B5D004D74E4FF1264B5224F
:105F55001264AFBF010E7B017A05792D1252307F95
:105F6500021264B51264AFBF0308124D6FE4FF124D
:035F750064B522EE
:105B65001264AFBF010E7B017A05792D1252307F89
:105B7500021264B51264AFBF030DE4900002F01287
:085B85004D74E4FF1264B52227
:105B8D001264AFBF010E7B017A05792D1252307F61
:105B9D00021264B51264AFBF030DE4900001F01260
:085BAD004D74E4FF1264B522FF
:105BB5001264AFBF010E7B017A0579391252307F2D
:105BC500021264B51264AFBF030DE4900004F01235
:085BD5004D74E4FF1264B522D7
:105F78001264AFBF010E7B017A0579391252307F66
:105F8800021264B51264AFBF0308124D6FE4FF122A
:035F980064B522CB
:105BDD001264AFBF010E7B017A0579391252307F05
:105BED00021264B51264AFBF030DE4900002F0120F
:085BFD004D74E4FF1264B522AF
:105C05001264AFBF010E7B017A0579391252307FDC
:105C1500021264B51264AFBF030DE4900001F012E7
:085C25004D74E4FF1264B52286
:105C2D001264AFBF010E7B017A0579441252307FA9
:105C3D00021264B51264AFBF030DE4900004F012BC
:085C4D004D74E4FF1264B5225E
:105F9B001264AFBF010E7B017A0579441252307F38
:105FAB00021264B51264AFBF0308124D6FE4FF1207
:035FBB0064B522A8
:105C55001264AFBF010E7B017A0579441252307F81
:105C6500021264B51264AFBF030DE4900002F01296
:085C75004D74E4FF1264B52236
:105C7D001264AFBF010E7B017A0579441252307F59
:105C8D00021264B51264AFBF030DE4900001F0126F
:085C9D004D74E4FF1264B5220E
:0863BE00E4FF1264310261B436
:0863C600E4FF1264370257DC0A
:0863CE00E4FF1264490261B40E
:0863D600E4FF12644F0261B400
:0863DE00E4FF1264550261B4F2
:1060FF00E49004C0F012645B9004C0EFF075F003FD
:0D610F00A4FF1260459004C0E0FF0261B4DF
:0863E600E4FF1264610261B4DE
:105CA500E49004C0F01264739004C0EFF0C3940A4A
:105CB5005005E0FF0261B49004C0E0C3940B5003AB
:065CC5000262221261E1FF
:015CCB0022B6
:0863EE00E4FF1264790261B4BE
:0863F600E4FF12647F0261B4B0
:0863FE00E4FF1264850261B4A2
:1056D400E49004C0F012648B9004C0EFF01261B443
:1056E400900390E0FF9004C0E06F601D1251CE90D3
:1056F40004C0E0900390F0126497BF010C7F797EA0
:09570400001257AFE4FF12649D8E
:01570D002279
:1054C100E49004C0F01264919004C0EFF01257DC34
:1054D100126497BF011E1263431262361263439036
:1054E10004C0E02442FFE433FE1257AF126343E4E9
:1054F100FF12649D126521BF0112126236126343CD
:0C5501007F797E001257AFE4FF1265278F
:01550D00227B
:10602400E49004C0F01264499004C0EFF09000566C
:10603400E0B4340A30A4077F687E001257AFD2CD93
:016044002239
:05657D007F060260A58D
:08640600E4FF1264670261B4B7
:056582007F070260A587
:08640E00E4FF12646D0261B4A9
:101DBD004105C6004105CD004105CB004105CC00D4
:101DCD004105C7004105C4004105CE004105C800CD
:0C1DDD004105C5004105CA004105C900D0
:10633300438901758C3C758AB0D2AFD2A9D28C2225
:0E635F00438910758DFF758B9CD2AFD2AB2297
:03000B000244FFAD
:1044FF00C0E0C0F0C083C082C0D075D000C000C083
:0D450F0001C002C003C004C005C006C00703
:10451C00900514E4F0A3F0C28D758C3C758AB01232
:10452C006425900514EFF01264A3900515EFF0903C
:10453C0005C6E004F0E0B40A199005CDE004F09053
:10454C0005CAE004F09005C6E4F09005C9E06002ED
:10455C0014F09005CDE0C394044002E4F09005CA39
:10456C00E0C394184002E4F09005CBE0B40104A33E
:10457C00E004F0126509BF01149005C7E004F0E0F7
:10458C00D39478400812650F9005C7E4F090051499
:10459C00E0FFB45F159005C4E004F0E0B4140B9098
:1045AC0005CEE004F09005C4E4F0EF645F601A906F
:1045BC000514E0643160129005C8E004F0E0D39477
:1045CC00C84006E4F0FF12642B900514E07015A3AC
:1045DC00E0B402109005C5E004F0E0C3940A400476
:0445EC00B2CDE4F078
:1045F000D007D006D005D004D003D002D001D0001F
:0B460000D0D0D082D083D0F0D0E032C8
:03001B000253D2BB
:1053D200C0E0C0F0C083C082C0D075D000C000C0A1
:0D53E20001C002C003C004C005C006C00722
:1053EF00E4FF126425C28F758DFF758B9CEFB42E71
:0953FF000512283E8003123BC197
:10540800D007D006D005D004D003D002D001D000F8
:0B541800D0D0D082D083D0F0D0E032A2
:0564AF009005CDE0FFA7
:0164B40022C5
:0664B5009005CDEFF0227E
:0664BB009005CBEFF0227A
:0564C1009005CCE0FF96
:0164C60022B3
:0664C700E49005CCF02278
:0564CD009005CEE0FF88
:0164D20022A7
:0664D3009005CEEFF0225F
:0664D900E49005C8F0226A
:0664DF009005CCEFF02255
:0564E5009005CAE0FF74
:0164EA00228F
:0664EB009005CAEFF0224B
:0564F1009005C9E0FF69
:0164F6002283
:0664F7009005C9EFF02240
:0B1DE9004805A5140F09040C22000699
:0455A000E0FD7F8A21
:1055A400D2A0EF54FEFFE4FEEF30E004D2A180026B
:1055B400C2A1D2A2C2A2EFC313FF0EEEB408E9E463
:1055C400FEED30E004D2A18002C2A1D2A2C2A2EDBB
:0A55D400C313FD0EEEB408E9C2A0F7
:0155DE0022AA
:1055DF00D2A0EF4401FFE4FDEF30E004D2A180023E
:1055EF00C2A1D2A2C2A2EFC313FF0DEDB408E9E42A
:1055FF00FDEEC313FE30A1054480FE8004EE547F00
:0E560F00FED2A2C2A20DEDB408E7C2A0AF0603
:01561D00226A
:104E9100E4FF74A52FF582E43405F583E0FE75F097
:104EA1000A84FDEE75F00A8474AD2FF582E43405B1
:104EB100F583E5F0F0EDC454F0FE74AD2FF582E416
:104EC1003405F583E02EF00FEFB408C6E4FD7F8EC4
:104ED1001255A47D807F801255A49005AEE0FD7F20
:104EE1008C1255A4A3E0FD7F881255A4A3E0FD7F99
:104EF100861255A49005B41255A09005B1E0FD7F2E
:104F0100841255A4A3E0FD7F821255A4A3E0FD7F86
:0F4F1100801255A4A31255A07D807F8E0255A457
:104FAC007F8C1255DF9005AEEFF07F881255DFA392
:104FBC00EFF07F861255DFA3EFF07F841255DFA34D
:104FCC00EFF07F821255DFA3EFF07F801255DFEFF9
:104FDC00547FA3F07F8A1255DFA3EFF0E4FF74AD8A
:104FEC002FF582E43405F583E0FEC4540FFDEE5436
:104FFC000FFE74A52FF582E43405F583EEF0ED7504
:10500C00F00AA4FE74A52FF582E43405F583E02E96
:06501C00F00FEFB408C81C
:01502200226B
:0B637800C2A0C2A2E4FD7F800255A479
:101DF40041059200410591004105970041059A0073
:101E04004105A100410586004105850043059E006A
:101E14000000420598004642059C00784205820075
:101E240000420580000042058F00004205930046F1
:101E340042059500784205A3000041058400410550
:101E4400A20041059B004105870041058B00430525
:0A1E54008800000043058C00000028
:07641E00D2AFD2A8D2882200
:030003000264167E
:08641600C2A8208E02D28E32D2
:10611C00E4900592F0900591F090059AF090059717
:0C612C00F09005A1F0900585F0A3F02292
:103BC10030B20590059A8003900597E004F09005C6
:103BD10086E004F0E0D394A07480948F4007C28EF5
:103BE100D2A802611C900585E01460351460691447
:103BF1007003023C8024036003023CF090059AE0CC
:103C0100D394004003023CF0900597E0D3944650D2
:103C110003023CF7900585E004F0E490059AF080FA
:103C21003290059AE0FFFD900597E02DFDE433FC0D
:103C3100D3ED948CEC648094804003023CF0EFD38C
:103C410094015003023CF730A802C2A8900585E018
:103C510004F0E4900597F022900597E0D394014099
:103C61001390059AE0900592F0E490059AF0900582
:103C710085E004F090059AE0D39419407980709022
:103C8100059AE0D39401405C900597E0FF9005917F
:103C9100F0E4900597F09005857402F09005A1E09D
:103CA100131313541FFE249EF582E43405F583E0BB
:103CB100FD25E0F0900592E0D39F400E749E2EF515
:103CC10082E43405F583E04401F09005A1E004F0BD
:103CD100E0D39417400EC28E12611C9005847401CA
:103CE100F0D2A822900597E0D394194009800012E0
:073CF100611CD2A8C28E2263
:10480C00E4900512F0126425900512EFF0900584E7
:10481C00E0640160030248FBF0C2A890059BE01421
:10482C0060270460030248F990059EE0900588F02B
:10483C0090059FE0900589F09005A0E090058AF026
:10484C0090059B7401F00248F990059EE0FF9005DD
:10485C0088E06F60030248E190059FE0FE900589B7
:10486C00E06E70719005A0E0FD90058AE06D7065BA
:10487C0090058CE06F7012A3E06E700DA3E0B5058F
:10488C0008900587E07020800090059EE090058CD4
:10489C00F090059FE090058DF09005A0E090058EBE
:1048AC00F09005A27401F09005877401F01264D9A0
:1048BC00E490059EF0A3F0A3F0900588F0A3F0A37C
:1048CC00F0900512E0645E60057F0112649DE49037
:1048DC00059BF0801890059EE0900588F090059F50
:0F48EC00E0900589F09005A0E090058AF0D2A831
:0148FB00229A
:10283E0030B20590059A8003900597E004F090055C
:10284E0086E004F0E0D394A07480948F4006C28E8C
:10285E00D2A88027900585E014605A1470030229CF
:10286E005214700302299D24036003022AE490058A
:10287E009AE0D394004007D2A8C28E02611C900544
:10288E0082E0FEA3E0FF7C007D0F122343EF243C89
:10289E00FFE43EFE900597E0D39FEC9E5003022A84
:1028AE00EB900585E004F0900598EEF0A3EFF0E4D0
:1028BE00A3F002294D900580E0FEA3E0FF7C007D91
:1028CE000F122343EF2478FFE43EFE90059AE0F9C1
:1028DE00FD900597E02DFDE433FCD3ED9FEC9E407B
:1028EE0022E9701C900581E004F07006900580E0EE
:1028FE0004F0900583E004F07006900582E004F089
:10290E00022AE4E9D394015003022AEB900580E0F9
:10291E00FEA3E0FF7C007D0F122343EF2478FFE43B
:10292E003E90059CF0A3EFF0E4900580F0A3F0A399
:10293E00F0A3F030A802C2A8900585E004F0E49060
:10294E000597F022900597E0D39400401390059AD6
:10295E00E0900592F0E490059AF0900585E004F081
:10296E00900598E0FEA3E0FF90059DE02FFF9005F7
:10297E009CE03EFEEF7803CEC313CE13D8F9FF9042
:10298E00059AE0D39FE49E5003022AEB022AE490BC
:10299E00059AE0D394005003022AB9900597E0FF00
:1029AE00900591F0E4900597F09005857402F090F3
:1029BE0005A1E0131313541FFE249EF582E4340583
:1029CE00F583E025E0F0900592E0FDD39F400E7474
:1029DE009E2EF582E43405F583E04401F09005A1C6
:1029EE00E004F0E0D394175003022AB9C28E90058A
:1029FE0091E02DFEE43390058FF0A3CEF012611C12
:102A0E009005A4E004F070069005A3E004F0900594
:102A1E009CE0FEA3E0FF900596E02FF0900595E078
:102A2E003EF0E0C313FEA3E013FF90059CEEF0A36F
:102A3E00EFF0900595EEF0A3EFF0D39005A4E0949F
:102A4E00019005A3E09400405F900593E0FEA3E0A3
:102A5E00FF900598E0FCA3E0FD9FFFEC9EFED3EFF8
:102A6E00941EEE94004015900594E09DFF90059302
:102A7E00E09CFED3EF941EEE9400502C900598E04F
:102A8E00FEA3E0FF900594E02FF0900593E03EF05A
:102A9E00E0C313FEA3E013FF900598EEF0A3EFF052
:102AAE00900593EEF0A3EFF0D2A822900598E0FEE9
:102ABE00A3E0FF90059DE02FFF90059CE03EFEEF0A
:102ACE007803CEC313CE13D8F9FF900597E0D39FAA
:0E2ADE00E49E4009800012611CD2A8C28E2224
:0564FD009005A2E0FF84
:016502002276
:06650300E49005A2F02265
:05650900900587E0FF92
:01650E00226A
:06650F00E4900587F02274
:0565150090058BE0FF82
:01651A00225E
:06651B00E490058BF02264
:0863950090058FE0FEA3E0FF7C
:01639D0022DD
:0F1E5E004805CF00000000000000004105D7003C
:10004600E49004D7F09004E0F0A3F0A3F0A3F0A3AB
:10005600F0A3F0A3F0A3F01264259004E0EFF012F1
:10006600648B9004E1EFF01264919004E2EFF012D9
:1000760064319004E3EFF01264379004E4EFF01279
:1000860064379004D7EFF01264739004E5EFF01232
:1000960064499004E6EFF012644F9004E7EFF01223
:1000A600480C1264FDEF64016003020D5990058D42
:1000B600E0FFE4FCFDFE78081223D1C004C005C0B1
:1000C60006C00790058CE0FFE4FCFDFE78101223C5
:1000D600D1D003D002D001D000EF4BFBEE4AFAEDAF
:1000E60049F9EC48F890058EE0FFEB4FFFEAFEE990
:1000F600FDE8FC9004CF12244E9004E0E024CE24C8
:10010600FC40030209E524FC4003020AA524FC4046
:1001160003020B6524FC4003020C2524E470030251
:100126000CF61470030203A4245F6003020D56E468
:10013600FF1264D390058EE0FF54F0600302028440
:1001460090058CE0C4540FFE9004E5E0FDB506056D
:10015600C3940A4011ED640A6003020284EEC3945C
:100166000A40030202849004E1E0B4010CEF540F4C
:100176002476F582E43403800D90058EE0540F2436
:1001860046F582E43400F583E09004D8F090058CBF
:10019600E0FFC4540F9004D9F0EF540FA3F090057C
:1001A6008DE0FFC4540F9004DBF0EF540FA3F090E2
:1001B600058CE09004DDF090058DE09004DEF09073
:1001C600058EE09004DFF09004D8E0FF64336042CF
:1001D600EF603FE49004D5F09004E7E0FF9004D58B
:1001E600E0C39F505C7B017A0479D89004D8E0FD87
:1001F6009004FAE4F0A3EDF090058EE0540F90041D
:10020600FCF09004E6E0FF122AEC9004D5E004F03E
:1002160080C69004EB7401F0A37400F0A37456F04A
:100226007B017A0479D8122F237B017A0479D8903E
:10023600058EE0540F9004ECF07F921236BB020854
:10024600A71258BC7B017A0479D890058EE0540F2A
:100256009004ECF07F911236BB9004EB7401F0A38E
:100266007404F0A374D8F07B017A0079561248FC26
:1002760012355B124D747F5F12642B020D567B01A3
:100286007A0479C79004CFE0FCA3E0FDA3E0FEA3C7
:10029600E0FF124AA5EF7003020D5678D97C047D63
:1002A600017B017A0479C77E007F041222A39005A0
:1002B6008EE0FF9004DFF09004D8E0C3943250271C
:1002C6009004E1E0B4010CEF540F2476F582E43497
:1002D60003800D90058EE0540F2446F582E4340029
:1002E600F583E09004D8F09004D8E0FF64336042D0
:1002F600EF603FE49004D5F09004E7E0FF9004D56A
:10030600E0C39F505C7B017A0479D89004D8E0FD65
:100316009004FAE4F0A3EDF090058EE0540F9004FB
:10032600FCF09004E6E0FF122AEC9004D5E004F01D
:1003360080C67B017A0479D890058EE0540F90042C
:10034600ECF07F921236BB9004EB7401F0A37400BC
:10035600F0A37456F07B017A0479D8122F23020891
:10036600A71258BC7B017A0479D890058EE0540F09
:100376009004ECF07F911236BB9004EB7401F0A36D
:100386007404F0A374D8F07B017A0079561248FC05
:1003960012355B124D747F5F12642B0209DFE4FF96
:1003A6001264D390058EE0FF54F060030206D890E5
:1003B600058CE0C4540FFE9004E5E0FDB50605C3C8
:1003C600940A4011ED640A60030206D8EEC3940A4B
:1003D60040030206D89004E1E0B4010CEF540F2468
:1003E60076F582E43403800D90058EE0540F2446A2
:1003F600F582E43400F583E09004D8F090058CE0B3
:10040600FFC4540F9004D9F0EF540FA3F090058D5C
:10041600E0FFC4540F9004DBF0EF540FA3F09005F7
:100426008CE09004DDF090058DE09004DEF0900500
:100436008EE09004DFF09004E3E0640160030205BF
:10044600629004D8E0FF64336042EF603FE49004BA
:10045600D5F09004E7E0FF9004D5E0C39F505C7BA5
:10046600017A0479D89004D8E0FD9004FAE4F0A368
:10047600EDF090058EE0540F9004FCF09004E6E059
:10048600FF122AEC9004D5E004F080C67B017A04C2
:1004960079D890058EE0540F9004ECF07F921236D6
:1004A600BB9004EB7401F0A37400F0A37456F07BC8
:1004B600017A0479D8122F230208A77B017A0479DE
:1004C600D890058EE0540F9004ECF07F911236BB65
:1004D6009004EB7401F0A37400F0A37456F07B0152
:1004E6007A0479D81233F19004E4E09004D5F090C0
:1004F60004D5E0FFD394014026EF24FEFFE434FF49
:10050600FEEF7803C333CE33CED8F92456F9740000
:100516003EFA7B0112547C9004D5E014F080D0E4BE
:100526009004D5F09004D5E0FFC394065014745699
:100536002FF582E43400F583E4F09004D5E004F06E
:1005460080E29004EB7401F0A37404F0A374D8F075
:100556007B017A0079561248FC0208A79004E3E072
:1005660064026003020D569004D8E0FF6433600312
:10057600EF702F7B017A0479D890058EE0540F90A6
:1005860004ECF07F921236BB9004EB7401F0A37476
:1005960000F0A37456F07B017A0479D8122F230257
:1005A60008A7E49004D6F09004E4E0FF9004D6E0B7
:1005B600FEC39F400302065CEE75F008A4FFAEF092
:1005C6002457F58274003EF583E0FD9004D9E0FCE3
:1005D600ED6C707974582FF58274003EF583E0FF58
:1005E6009004DAE0FEEF6E70649004D6E075F008D1
:1005F600A4FFAEF02459F58274003EF583E0FD9029
:1006060004DBE0FCED6C7045745A2FF58274003EF5
:10061600F583E0FF9004DCE0FEEFB506309004D6EB
:10062600E0A3F075F008A42456F9740035F0FA7BBF
:1006360001C0039004EBEBF0A37404F0A374D8F0AC
:10064600D0031248FC12355B124D7480099004D613
:10065600E004F00205AD9004E4E0FF9004D7E06FFB
:100666006003020D569004D6F09004E4E0FF900477
:10067600D6E0FEC39F4003020D56EE75F008A42493
:1006860056F582740035F0F583E0703E7B017A04FE
:1006960079D890058EE0540F9004ECF07F911236D5
:1006A600BB9004D6E075F008A42456F9740035F022
:1006B600FA7B01C0039004EBEBF0A37404F0A3747F
:1006C600D8F0D0031248FC0208A79004D6E004F044
:1006D60080977B017A0479C79004CFE0FCA3E0FD04
:1006E600A3E0FEA3E0FF124AA5EF7003020D5678C1
:1006F600D97C047D017B017A0479C77E007F0412D0
:1007060022A390058EE0FF9004DFF09004D8E0C3AA
:10071600943250279004E1E0B4010CEF540F247694
:10072600F582E43403800D90058EE0540F2446F5DF
:1007360082E43400F583E09004D8F09004E3E064AA
:100746000160030208649004D8E0FF64336042EF5E
:10075600603FE49004D5F09004E7E0FF9004D5E014
:10076600C39F505C7B017A0479D89004D8E0FD9051
:1007760004FAE4F0A3EDF090058EE0540F9004FC2B
:10078600F09004E6E0FF122AEC9004D5E004F08035
:10079600C67B017A0479D890058EE0540F9004EC5C
:1007A600F07F921236BB9004EB7401F0A37400F054
:1007B600A37456F07B017A0479D8122F230208A776
:1007C6007B017A0479D890058EE0540F9004ECF002
:1007D6007F911236BB9004EB7401F0A37400F0A372
:1007E6007456F07B017A0479D81233F19004E4E070
:1007F6009004D5F09004D5E0FFD394014026EF2471
:10080600FEFFE434FFFEEF7803C333CE33CED8F9D0
:100816002456F974003EFA7B0112547C9004D5E00C
:1008260014F080D0E49004D5F09004D5E0FFC39492
:1008360006501474562FF582E43400F583E4F090E4
:1008460004D5E004F080E29004EB7401F0A3740494
:10085600F0A374D8F07B017A0079560209CC900493
:10086600E3E0640260030209DF9004D8E0FF64332A
:100876006003EF70357B017A0479D890058EE054D9
:100886000F9004ECF07F921236BB9004EB7401F0EB
:10089600A37400F0A37456F07B017A0479D8122F62
:1008A6002312355B124D74020D56E49004D6F09077
:1008B60004E4E0FF9004D6E0FEC39F40030209640F
:1008C600EE75F008A4FFAEF02457F58274003EF5ED
:1008D60083E0FD9004D9E0FCED6C707974582FF537
:1008E6008274003EF583E0FF9004DAE0FEEF6E705E
:1008F600649004D6E075F008A4FFAEF02459F582A2
:1009060074003EF583E0FD9004DBE0FCED6C704581
:10091600745A2FF58274003EF583E0FF9004DCE004
:10092600FEEFB506309004D6E0A3F075F008A424D7
:1009360056F9740035F0FA7B01C0039004EBEBF036
:10094600A37404F0A374D8F0D0031248FC12355BEC
:10095600124D7480099004D6E004F00208B59004A4
:10096600E4E0FF9004D7E06F706F9004D6F0900437
:10097600E4E0FF9004D6E0FEC39F505DEE75F008FC
:10098600A42456F582740035F0F583E070437B01AC
:100996007A0479D890058EE0540F9004ECF07F919C
:1009A6001236BB9004D6E075F008A42456F97400FC
:1009B60035F0FA7B01C0039004EBEBF0A37404F06E
:1009C600A374D8F0D0031248FC12355B124D748024
:1009D600089004D6E004F08095126503020D567F58
:1009E6003512642B78BF7C047D017B017A05791D65
:1009F6007E007F041222A390058DE0FFE4FCFDFE3D
:100A060078081223D1C004C005C006C00790058C23
:100A1600E0FFE4FCFDFE78101223D1D003D002D013
:100A260001D000EF4BFBEE4AFAED49F9EC48F8909D
:100A3600058EE0FFEB4FFFEAFEE9FDE8FC9004C3FC
:100A460012244E7B017A0479BF123E2C5003020D0C
:100A560056126343900520E06409703D90051FE03F
:100A66006409702F90051EE0B4092290051DE0046C
:100A7600F0E4A3F0A3F090051DE0B4150AE4F090AD
:100A8600052004F0020D56900520020CD090051E9C
:100A9600020CD990051F020CE6900520020CF17F8E
:100AA6003912642B78BF7C047D017B017A05792796
:100AB6007E007F041222A390058DE0FFE4FCFDFE7C
:100AC60078081223D1C004C005C006C00790058C63
:100AD600E0FFE4FCFDFE78101223D1D003D002D053
:100AE60001D000EF4BFBEE4AFAED49F9EC48F890DD
:100AF600058EE0FFEB4FFFEAFEE9FDE8FC9004C33C
:100B060012244E7B017A0479BF123CF85003020D81
:100B16005612634390052AE06409703D900529E06A
:100B26006409702F900528E0B40922900527E00497
:100B3600F0E4A3F0A3F0900527E0B4150AE4F090E2
:100B4600052A04F0020D5690052A020CD0900528BD
:100B5600020CD9900529020CE690052A020CF17FB9
:100B66003D12642B78BF7C047D017B017A057932C6
:100B76007E007F041222A390058DE0FFE4FCFDFEBB
:100B860078081223D1C004C005C006C00790058CA2
:100B9600E0FFE4FCFDFE78101223D1D003D002D092
:100BA60001D000EF4BFBEE4AFAED49F9EC48F8901C
:100BB600058EE0FFEB4FFFEAFEE9FDE8FC9004C37B
:100BC60012244E7B017A0479BF12394B5003020D71
:100BD60056126343900535E06409703D900534E094
:100BE6006409702F900533E0B40922900532E004C1
:100BF600F0E4A3F0A3F0900532E0B4150AE4F09017
:100C0600053504F0020D56900535020CD0900533DB
:100C1600020CD9900534020CE6900535020CF17FE2
:100C26004112642B78BF7C047D017B017A05793EF5
:100C36007E007F041222A390058DE0FFE4FCFDFEFA
:100C460078081223D1C004C005C006C00790058CE1
:100C5600E0FFE4FCFDFE78101223D1D003D002D0D1
:100C660001D000EF4BFBEE4AFAED49F9EC48F8905B
:100C7600058EE0FFEB4FFFEAFEE9FDE8FC9004C3BA
:100C860012244E7B017A0479BF123A865003020D74
:100C960056126343900541E06409704C900540E0AC
:100CA6006409703990053FE0B4092590053EE004DB
:100CB600F0E4A3F0A3F090053EE0B4150AE4F0904A
:100CC600054104F0020D569005417401F0020D56DF
:100CD60090053FE004F0E4A3F0A3F0807390054094
:100CE600E004F0E4A3F08068900541E004F0806041
:100CF600E4FF12649D9005D77401F09004E1E0B41E
:100D06000124A3E0FF90058EE0540F2476F582E4DB
:100D16003403F583EFF07B017A0379769004FF7450
:100D260010F07D0080239004E2E0FF90058EE054F1
:100D36000F2446F582E43400F583EFF07B017A0058
:100D460079469004FF7410F0FD7C157FA01252E7DF
:090D56001265031242CE0232754F
:056521009005D7E0FF2A
:016526002252
:066527009005D7EFF02201
:104CCF00FFFFFFFFFFFFFFFFFFFFFFFFFFFFFFFFE5
:104CDF00FFFFFFFFFFFFFFFFFFFFFFFFFFFFFFFFD5
:104CEF00FFFFFFFFFFFFFFFFFFFFFFFFFFFFFFFFC5
:104CFF00FFFFFFFFFFFFFFFFFFFFFFFFFFFFFFFFB5
:104D0F00FFFFFFFFFFFFFFFFFFFFFFFFFFFFFFFFA4
:104D1F00FFFFFFFFFFFFFFFFFFFFFFFFFFFFFFFF94
:104D2F00FFFFFFFFFFFFFFFFFFFFFFFFFFFFFFFF84
:104D3F00FFFFFFFFFFFFFFFFFFFFFFFFFFFFFFFF74
:104D4F00FFFFFFFFFFFFFFFFFFFFFFFFFFFFFFFF64
:104D5F00FFFFFFFFFFFFFFFFFFFFFFFFFFFFFFFF54
:03658700DFFE2212
:10620D00AE07AF061EEF600C7FF51265877FF512A6
:05621D00658780EE2200
:1061F700D2B400D2B50000000000C2B40000000015
:0662070000C2B5000022F8
:10630000C2B400D2B50000000000D2B4000000000A
:01631000226A
:10565B00E4FEEFA806088002C333D8FC30E704D27F
:10566B00B48002C2B400D2B50000000000C2B50E77
:10567B00EEB408DE0000D2B40000D2B5000000305A
:0C568B00B404C20A8002D20AC2B50000BA
:0156970022F0
:105D1900E4FFD2B4FE00C2B50000000000D2B50015
:105D290000EF25E0FF30B4010F00000EEEB408E5E6
:045D3900C2B50000EF
:015D3D002243
:10631100C2B4000000D2B50000000000C2B5000008
:016321002259
:10632200D2B4000000D2B50000000000C2B50000E7
:016332002248
:0F52D800E0FCA3E0FD7B0174089004FFF07FA0D1
:1052E7001261F712565B200A02C322ECFF12565BCB
:1052F700200A02C322AF0512565B200A02C322E42A
:10530700FD9004FFE0FFEDC39F50161222C9FF1264
:10531700565B200A02C322740129F9E43AFA0D8088
:05532700E0126300D359
:01532C00225E
:0F502300E0FCA3E0FD7B019005017408F07FA085
:055032009004FBEFF00B
:105037001261F7E0FF12565B200A02C322ECFF124F
:10504700565B200A02C322AF0512565B200A02C331
:10505700221261F79004FBE004FF12565B200A025C
:10506700C322E4FD900501E014FFEDC39F50141225
:105077005D19EF12230F126311740129F9E43AFA4B
:105087000D80E1125D19EF12230F126322126300E4
:01509700D345
:0150980022F5
:0B3E2C009004E8EBF0A3EAF0A3E9F03B
:103E3700E49004F7F0A3F09004EBF0A3F0A3F0A351
:103E4700F09004EB7A0479EF1250239004F3E0FC2E
:103E5700A3A3A3E4FFFEFDEC6003023EEC12648B18
:103E6700BF02329004F3A3E0FDA3E0FEA3E054F009
:103E7700FFE4FC9004F312244E9004E8E0FBA3E077
:103E8700FAA3E02404F9E43AFA1223E4EF54F0FF2A
:103E9700E4FC1224349004E8E0FBA3E0FAA3E0F981
:103EA7009000041224049004F3E0F8A3E0F9A3E0DF
:103EB700FAA3E0FBC31223C07044781D7C057D0183
:103EC7007B017A0479EFFE7F041222A3E490052197
:103ED700F0126497BF010C7F7A7E001257AFE4FFA0
:103EE70012649DD3229004F7E07002A3E0700F9054
:103EF70004EBE0FFA3E09004F7CFF0A3EFF090040A
:103F0700ECE02408F09004EBE03400F09004EEE0DD
:103F170004F070069004EDE004F0C39004EDE09423
:103F2700025003023E489004F7E0FCA3E0FD900432
:103F3700E8E0FBA3E0FAA3E0F91252DF126497BFAF
:0F3F4700010C7F797E001257AFE4FF12649DC317
:013F56002248
:0B3CF8009004E8EBF0A3EAF0A3E9F071
:103D0300E49004F7F0A3F09004EB7414F0A3E4F050
:103D1300A3F0A3F09004EB7A0479EF1250239004FC
:103D2300F3E0FCA3A3A3E4FFFEFDEC6003023DBBB1
:103D330012648BBF02329004F3A3E0FDA3E0FEA361
:103D4300E054F0FFE4FC9004F312244E9004E8E006
:103D5300FBA3E0FAA3E02404F9E43AFA1223E4EF24
:103D630054F0FFE4FC1224349004E8E0FBA3E0FAEF
:103D7300A3E0F99000041224049004F3E0F8A3E014
:103D8300F9A3E0FAA3E0FBC31223C0704478277CB5
:103D9300057D017B017A0479EFFE7F041222A3E4FF
:103DA30090052BF0126497BF010C7F7A7E001257A7
:103DB300AFE4FF12649DD3229004F7E07002A3E006
:103DC300700F9004EBE0FFA3E09004F7CFF0A3EFB4
:103DD300F09004ECE02408F09004EBE03400F09061
:103DE30004EEE004F070069004EDE004F0C39004E8
:103DF300EEE094209004EDE094005003023D179010
:103E030004F7E0FCA3E0FD9004E8E0FBA3E0FAA3E1
:103E1300E0F91252DF126497BF010C7F797E001222
:083E230057AFE4FF12649DC3D8
:013E2B002274
:0B394B009004E8EBF0A3EAF0A3E9F021
:10395600E49004F7F0A3F09004EB7410F0A3E4F005
:10396600A3F0A3F09004EBE0FCA3E0FD7B017A0456
:1039760079EF12502A9004F3E0FCA3A3A3E4FFFE20
:10398600FDEC6003023A1512648BBF02329004F319
:10399600A3E0FDA3E0FEA3E054F0FFE4FC9004F3F3
:1039A60012244E9004E8E0FBA3E0FAA3E02404F915
:1039B600E43AFA1223E4EF54F0FFE4FC12243490C4
:1039C60004E8E0FBA3E0FAA3E0F990000412240463
:1039D6009004F3E0F8A3E0F9A3E0FAA3E0FBC31236
:1039E60023C0704478327C057D017B017A0479EF2F
:1039F600FE7F041222A3E4900536F0126497BF01FD
:103A06000C7F7A7E001257AFE4FF12649DD322909A
:103A160004F7E07002A3E0700F9004EBE0FFA3E070
:103A26009004F7CFF0A3EFF09004ECE02408F090B8
:103A360004EBE03400F09004EEE004F0700690042D
:103A4600EDE004F0C39004EEE094409004EDE094C1
:103A560000500302396A9004F7E0FCA3E0FD9004ED
:103A6600E8E0FBA3E0FAA3E0F91252DF126497BF85
:0F3A7600010C7F797E001257AFE4FF12649DC3ED
:013A8500221E
:0B3A86009004E8EBF0A3EAF0A3E9F0E5
:103A9100E49004F7F0A3F09004EB7412F0A3E4F0C7
:103AA100A3F0A3F09004EBE0FCA3E0FD7B017A041A
:103AB10079EF12502A9004F3E0FCA3A3A3E4FFFEE4
:103AC100FDEC6003023B5012648BBF02329004F3A1
:103AD100A3E0FDA3E0FEA3E054F0FFE4FC9004F3B7
:103AE10012244E9004E8E0FBA3E0FAA3E02404F9D9
:103AF100E43AFA1223E4EF54F0FFE4FC1224349088
:103B010004E8E0FBA3E0FAA3E0F990000412240426
:103B11009004F3E0F8A3E0F9A3E0FAA3E0FBC312F9
:103B210023C07044783E7C057D017B017A0479EFE6
:103B3100FE7F041222A3E4900542F0126497BF01B4
:103B41000C7F7A7E001257AFE4FF12649DD322905E
:103B510004F7E07002A3E0700F9004EBE0FFA3E034
:103B61009004F7CFF0A3EFF09004ECE02408F0907C
:103B710004EBE03400F09004EEE004F070069004F1
:103B8100EDE004F0C39004EEE094409004EDE09485
:103B9100005003023AA59004F7E0FCA3E0FD900475
:103BA100E8E0FBA3E0FAA3E0F91252DF126497BF49
:0F3BB100010C7F797E001257AFE4FF12649DC3B1
:013BC00022E2
:0B460B009004C0EBF0A3EAF0A3E9F07C
:10461600E49004CBF0A3F078CF7C047D017BFF7A95
:104626004C79CFFE7F201222A39004C0E0FBA3E0CA
:10463600FAA3E0F91223E4E4FBFAF9F8C31223C063
:1046460070449004CDF0A3F09004CDE0FEA3E0FF0B
:10465600C39480EE94004003024711EF7805C333FC
:10466600CE33CED8F9FDAC067B017A0479CF74201F
:104676001252E11263439004CEE004F070CA900433
:10468600CDE004F080C2E49004CDF0A3F09004CB1A
:10469600E0FCA3E0FD7B017A0479C312502A900462
:1046A600C7E0FCE4FFFEFDEC703C9004C0E0FBA319
:1046B600E0FAA3E0F91223E49004C3E0F8A3E0F9DA
:1046C600A3E0FAA3E0FBC31223C0701AFE7F087DA5
:1046D600FF7B017A0479C31224869004CB7A04798D
:1046E600C31252D880259004CCE02408F09004CB65
:1046F600E03400F09004CEE004F070069004CDE0C3
:0C47060004F0C39004CDE094024082C394
:014712002284
:0B41AB009004C0EBF0A3EAF0A3E9F0E1
:1041B6009004CB7414F0A3E4F078CF7C047D017BEB
:1041C600FF7A4C79EFFE7F201222A39004C0E0FB19
:1041D600A3E0FAA3E0F91223E4E4FBFAF9F8C31228
:1041E60023C070549004CDF0A3F09004CDE0FEA35C
:1041F600E0FFC39408EE940040030242CCEF78053A
:10420600C333CE33CED8F9FF9004CCE02FFD900413
:10421600CBE03EFC7B017A0479CF9004FF7420F05A
:104226007FA01252E71263439004CEE004F070BA06
:104236009004CDE004F080B2E49004CDF0A3F090B9
:1042460004CBE0FCA3E0FD7B017A0479C312502A7B
:104256009004C7E0FCE4FFFEFDEC703C9004C0E077
:10426600FBA3E0FAA3E0F91223E49004C3E0F8A369
:10427600E0F9A3E0FAA3E0FBC31223C0701AFE7FA5
:10428600087DFF7B017A0479C31224869004CB7AD9
:104296000479C31252D8802E9004CCE02408F09002
:1042A60004CBE03400F09004CEE004F070069004F5
:1042B600CDE004F0C39004CEE094209004CDE094C9
:0742C600005003024245C352
:0142CD0022CE
:0B3F57009004C0EBF0A3EAF0A3E9F037
:103F62009004CB7410F0A3E4F078CF7C047D017B45
:103F7200FF7A4D790FFE7F201222A39004C0E0FB4E
:103F8200A3E0FAA3E0F91223E4E4FBFAF9F8C3127E
:103F920023C070549004CDF0A3F09004CDE0FEA3B2
:103FA200E0FFC39410EE9400400302407FEF7805D7
:103FB200C333CE33CED8F9FF9004CCE02FFD90046A
:103FC200CBE03EFC7B017A0479CF9004FF7420F0B1
:103FD2007FA01252E71263439004CEE004F070BA5D
:103FE2009004CDE004F080B2E49004CDF0A3F09010
:103FF20004CBE0FCA3E0FD7B017A0479C312502AD2
:104002009004C7E0FCE4FFFEFDEC70439004C0E0C6
:10401200FBA3E0FAA3E0F91223E49004C3E0F8A3BF
:10402200E0F9A3E0FAA3E0FBC31223C07021FE7FF4
:10403200087DFF7B017A0479C31224869004CBE0C9
:10404200FCA3E0FD7B017A0479C31252DF802E903B
:1040520004CCE02408F09004CBE03400F09004CECD
:10406200E004F070069004CDE004F0C39004CEE0CA
:0E40720094409004CDE094005003023FF1C34F
:01408000221D
:0B4081009004C0EBF0A3EAF0A3E9F00C
:10408C009004CB7412F0A3E4F078CF7C047D017B18
:10409C00FF7A4D792FFE7F201222A39004C0E0FB03
:1040AC00A3E0FAA3E0F91223E4E4FBFAF9F8C31253
:1040BC0023C070549004CDF0A3F09004CDE0FEA387
:1040CC00E0FFC39410EE940040030241A9EF780581
:1040DC00C333CE33CED8F9FF9004CCE02FFD90043F
:1040EC00CBE03EFC7B017A0479CF9004FF7420F086
:1040FC007FA01252E71263439004CEE004F070BA32
:10410C009004CDE004F080B2E49004CDF0A3F090E4
:10411C0004CBE0FCA3E0FD7B017A0479C312502AA6
:10412C009004C7E0FCE4FFFEFDEC70439004C0E09B
:10413C00FBA3E0FAA3E0F91223E49004C3E0F8A394
:10414C00E0F9A3E0FAA3E0FBC31223C07021FE7FC9
:10415C00087DFF7B017A0479C31224869004CBE09E
:10416C00FCA3E0FD7B017A0479C31252DF802E9010
:10417C0004CCE02408F09004CBE03400F09004CEA2
:10418C00E004F070069004CDE004F0C39004CEE09F
:0E419C0094409004CDE09400500302411BC3F8
:0141AA0022F2
:1051CE0078C17C047D017BFF7A4D794F7E007F2074
:1051DE001222A3E49004E1F0A3F09004E1E0FEA318
:1051EE00E0FFC394A8EE94005031EF7805C333CEA0
:1051FE0033CED8F9FDAC067B017A0479C19004FF59
:10520E007420F07FA01252E71263439004E2E00490
:0B521E00F070C79004E1E004F080BFD6
:015229002262
:0F4AA5009004E8EBF0A3EAF0A3E9F0A312244E8B
:104AB400E49004F7F0A3F0A3F0A3F09004F7E0FC73
:104AC400A3E0FD7B017A0479EF12502A12648BBFB4
:104AD400022C9004F3A3E0FDA3E0FEA3E054F0FF56
:104AE400E4FC9004F312244E9004EBA3E0FDA3E055
:104AF400FEA3E054F0FFE4FC9004EB12244E900477
:104B0400EBE0FCA3E0FDA3E0FEA3E0FF9004F3E0F0
:104B1400F8A3E0F9A3E0FAA3E0FBC31223C0701FDB
:104B24009004E8E0FBA3E0FAA3E0F8AC02AD037B59
:104B3400017A0479EF7E007F081222A37F0122907C
:104B440004F8E02408F09004F7E03400F09004FA4C
:104B5400E004F070069004F9E004F0C39004F9E076
:094B640094025003024ABF7F00D5
:014B6D002225
:106184007F7E12638C7F0312638C7F3312638C7F58
:096194000412638C7FEF02638C9E
:0657A9002401FFE433FEC1
:1057AF0090050BEEF0A3EFF07F7E12638C7F041257
:1057BF00638C7F4112638C90050BE0FF12638C901A
:0D57CF00050BA3E0FF12638C7FEF02638CDB
:106045009004C1EFF07F7E12638C7F0312638C7F17
:106055003112638C9004C1E0FF12638C7FEF026301
:016065008CAE
:106236007F7E12638C7F0212638C7F0E12638C7FCB
:04624600EF02638C74
:10624A007F7E12638C7F0212638C7F0112638C7FC4
:04625A00EF02638C60
:0F3804009004FDA3E0FFA3E0FBA3E0FAA3E0F92B
:05381300900507EFF035
:10381800A3EBF0A3EAF0A3E9F0EFD394034003028B
:10382800391F900507E094015017A3E0FBA3E0FAC5
:10383800A3E0F99000021222E22401FFE433FE80A3
:1038480021900508E0FBA3E0FAA3E0F9900002123A
:1038580022E260111257A97F1D7E001257AF7F1E0A
:103868007E001257AF900507E0D394015013A3E0F0
:10387800FBA3E0FAA3E0F99000031222E2240180FE
:103888004E900508E0FBA3E0FAA3E0F990000312CC
:1038980022E26042640170249000041222E2700463
:1038A8007F0B802E900508E0FBA3E0FAA3E0F990D7
:1038B80000041222E2240BFFE4338016900508E08E
:1038C800FBA3E0FAA3E0F99000031222E22413FF1D
:1038D800E433FE1257AF900507E0D394015011A3CB
:1038E800E0FBA3E0FAA3E0F99000041222E2801FB3
:1038F800900508E0FBA3E0FAA3E0F9900004122287
:10390800E2FF603E9000031222E264016034EF247B
