:03000000024C5B54
:0C4C5B00787FE4F6D8FD758120024CA2A1
:1054BD00125B301250CA125FFB1260271260E612A7
:1054CD006040125E4C12600B75B10CE4F5B27F7B3F
:0F54DD00FE1254601233A4120E6E12004680F8B5
:03002300025D6E0D
:065D6E00C0E0C083C0820A
:105D7400900329E4F0309802C298309904C299C281
:015D8400001E
:075D8500D082D083D0E03290
:03004300025E65F5
:105E6500C0E0E59A30E003539AFEE59A30E1055328
:075E75009AFDC200D0E032EB
:09604B002000FDEFD200F59922BE
:1053F4009003E6EBF0A3EAF0A3E9F09003E6E0FB08
:10540400A3E0FAA3E0F912280260179003E6A3E4EC
:1054140075F0011228E3A9F0FA122802FF12604B7A
:0354240080D9220A
:096054002000FDEFD200F59B22B3
:105427009003E9EBF0A3EAF0A3E9F09003E9E0FBCE
:10543700A3E0FAA3E0F912280260179003E9A3E4B6
:1054470075F0011228E3A9F0FA122802FF1260543E
:0354570080D922D7
:105B3000E5A2543FF5A253BAFE759850759A507578
:105B4000D7C875D6FE758E14438E01D2AC75AF01E1
:035B5000D2AF22AF
:101EDC000000000000FF002601020E0F00FF0006AC
:101EEC000203011500FF597D0304021900FF59C8B4
:101EFC000405031D00FF59EC0506041F00FF5A10D2
:101F0C000607052000FF5A340708062100FF5A581F
:101F1C000809072600FF5A7C090A082A00FF5AA064
:101F2C000A0B092C00FF5AC40B0C0A0B00FF001EF5
:101F3C000C0D0B0C00FF61F50D0E0C0D00FF61FA82
:101F4C000E010D0E00FF000E0F0F0F1001FF52CFF0
:101F5C001010101101FF55961111111201FF55BEF1
:101F6C001212121301FF5AE81313131401FF5B0C26
:101F7C001414140F01FF55E61516183502FF5F38BF
:101F8C001617153902FF5F4A1718163D02FF5F5CE2
:101F9C001815174102FF5F6E191A1C4503FF5F806D
:101FAC001A1B194903FF5F921B1C1A4D03FF5FA4F8
:101FBC001C191B5103FF5FB61D1E1E5204FF61FF4F
:101FCC001E1D1D5304FF62041F1F1F1F05FF6066AB
:101FDC002020202006FF606E2122625407FF620938
:101FEC002223215507FF620E2324225607FF62137A
:101FFC002425235707FF62182560245807FF621D0C
:10200C002627295908FF62222728265A08FF62270B
:10201C002829275B08FF622C2926285C08FF6231DF
:10202C002A2B2B5D09FF60192B2A2A5E09FF6236C9
:10203C002C2D2D000AFF623B2D2C2C000AFF624038
:10204C002E2E2E000BFF5E002F2F2F000CFF607624
:10205C00303030000DFF607E313131000EFF516C9D
:10206C003232323515FF5C483333333215FF5DAAFB
:10207C003434343315FF5C6A3535353415FF5C8CDC
:10208C003636363916FF560E3737373616FF5B5352
:10209C003838383716FF56363939393816FF565E08
:1020AC003A3A3A3D17FF56863B3B3B3A17FF5B7675
:1020BC003C3C3C3B17FF56AE3D3D3D3C17FF56D6D6
:1020CC003E3E3E4118FF56FE3F3F3F3E18FF5B9998
:1020DC004040403F18FF57264141414018FF574EA2
:1020EC004242424519FF57764343434219FF5BBCBA
:1020FC004444444319FF579E4545454419FF57C670
:10210C00464646491AFF57EE474747461AFF5BDFDC
:10211C00484848471AFF5816494949481AFF583E3B
:10212C004A4A4A4D1BFF58664B4B4B4A1BFF5C02FD
:10213C004C4C4C4B1BFF588E4D4D4D4C1BFF58B609
:10214C004E4E4E511CFF58DE4F4F4F4E1CFF5C2520
:10215C005050504F1CFF5906515151501CFF592ED5
:10216C00525252521DFF6086535353531EFF608EC2
:10217C005454545421FF60965555555522FF609E7A
:10218C005656565623FF60A65757575724FF5DC720
:10219C005858585825FF60AE5959595926FF595669
:1021AC005A5A5A5A27FF60B65B5B5B5B28FF60BECE
:1021BC005C5C5C5C29FF60C65D5D5D5D2AFF5385E0
:1021CC005E5E5E5E2BFF51BC5F5F5F5F5FFF5CAE70
:1021DC006062256107FF62456161616160FF60CEED
:1021EC006221606307FF624A6363636362FF60D6C8
:101A820041032E004103580041032F004403330059
:101A920000000144033B0000000144034400000035
:101AA2000144034E000000014403370000000144DA
:101AB20003400000000144034A00000001440353B4
:101AC2000000000141033F01410349014103480075
:101AD200410352004103570041035A0241035D0092
:101AE2004103600641036203410363014103640051
:101AF2004103590B41035C0041035F004103610054
:101B020041035B0241035E0041032C014103650175
:041B120041032D015D
:104A0100E49002CCF0A3F043903CE590543C643C2C
:104A11007003024AA512600BE590543C643C70039C
:104A2100024AA51261A190032FE0645E6029126120
:104A31002FEF601190032FE0D3940E40047F01808B
:104A4100067F0080027F01EF600D125EFE12600B97
:104A51007F787E0012546090032E7401F0E590542B
:104A61003CFF9002CCE4F0A3EFF09002CCE07004A4
:104A7100A3E06438700812618F7F01126183E590B1
:104A8100543CFFBF3CF812600BE590543CFFBF3C27
:104A9100F8E4FF126183E4FF12619B9002CCE0FE17
:084AA100A3E0FF227E0F7FFF5E
:014AA90022EA
:10493300E49002CAF0A3F0FF124A019002CAEEF01B
:10494300A3EFF01261DD9002CAE0640F7003A3E0ED
:10495300F460030249D6EF6401707890032FE0708E
:104963002A9003ABE0540FFFBF0808900358E004FC
:10497300F08005E4900358F0900358E0D39403408B
:104983000A7F141261A7E4900358F01261E39003C5
:10499300ABE0540F24FE601724FE601E24FC602548
:1049A3002407702F9002CAE4F0A3741CF0802490B3
:1049B30002CAE4F0A37434F080199002CAE4F0A3AD
:1049C300742CF0800E1261B9EF70089002CAF0A344
:1049D3007438F09002CAE0FEA3E0FFEE701DEF24EE
:1049E300D4601224F8600B24FC600D241C700C7F2F
:0D49F30003227F02227F01227F00227FFF2E
:014A00002293
:100E6E00E4FF9002C9F0124933EF147003021154DB
:100E7E0014700302160A14700302112E2403600369
:100E8E00021A54126171EF700690032FE060121275
:100E9E006171EF6401702890032FE0FF6003B45F6F
:100EAE001E1261899002C9EFF0C394145003021A06
:100EBE005490032F7402F07F061261BF0211289026
:100ECE00032FE0FF6442600FEF6443600AEF644457
:100EDE006005EF644570301261899002C9EFF0C36E
:100EEE00940A406B7B017A037937123ECA50121274
:100EFE00615FBF010C7F797E00125460E4FF1261C6
:100F0E006512600B02112890032FE0FF6446600FFC
:100F1E00EF6447600AEF64486005EF64497033126E
:100F2E0061899002C9EFF0C3940A40237B017A03D2
:100F3E007940124141501212615FBF010C7F797EE0
:100F4E0000125460E4FF12616512600B0211280258
:100F5E000FF290032FE0FF644A600FEF644B600ABC
:100F6E00EF644C6005EF644D70321261899002C9D6
:100F7E00EFF0C3940A40237B017A03794A12399029
:100F8E00501212615FBF010C7F797E00125460E433
:100F9E00FF12616512600B021128804890032FE04A
:100FAE00FF644E600FEF644F600AEF64506005EF10
:100FBE00645170431261899002C9EFF0C3940A40E4
:100FCE00237B017A037953123AE5501212615FBF07
:100FDE00010C7F797E00125460E4FF12616512608D
:100FEE000B02112890032FE075F008A424DFF58280
:100FFE00E5F0341E021A4C90032FE0B40B19126167
:10100E00899002C9EFF0C394145003021A5490034E
:10101E002F742EF002112890032FE0B40C191261D8
:10102E00899002C9EFF0C394145003021A5490032E
:10103E002F742FF002112890032FE0B40D191261B6
:10104E00899002C9EFF0C394145003021A5490030E
:10105E002F7430F002112890032FE0B40E19126194
:10106E00899002C9EFF0C394145003021A549003EE
:10107E002F7431F002112890032FE0B42D2212614B
:10108E00899002C9EFF0C394145003021A547F7969
:10109E007E00125460124EB7124B3C75C720807AF8
:1010AE0090032FE0642C705A1261899002C9EFF000
:1010BE00C394145003021A547F797E0012546012A6
:1010CE004EB7125349124B3C7B017A0279AE900314
:1010DE00097410F07D007C3F7FA0124E7112600BE0
:1010EE007B017A0079469003097410F0FD7C3F7FF6
:1010FE00A0124E7112600B12507812600B75C72041
:10110E00801890032FE075F008A424DFF582E5F037
:10111E00341EF583E49390032FF012618F021A545C
:10112E0090032FE0B45F0C126171EF6006124D64F4
:10113E00021A5490032FE075F008A424E0F582E51E
:10114E00F0341E021A4C90032FE01228F9120D0FE4
:10115E00121F10122F11123F12124F13126114147C
:10116E00D21F14E42015C62F15B530127332128516
:10117E003312973412A93512BB3612CD3712DF381F
:10118E0012F13913033A13153B13273C13393D1350
:10119E004B3E135D3F136F4013814113934213A5D2
:1011AE004313B74413C94513DB4613ED4713FF48EA
:1011BE0014114914234A14354B14474C14594D1429
:1011CE006B4E147D4F148F5014A15114B25214C291
:1011DE005314F654150855151856152B57153C581B
:1011EE00154D59155E5A156F5B157F5C158F5D1584
:1011FE009D5E15B05F15D66115E663000015F7907C
:10120E0003C3E0B46305E4F00215F79003C30215BF
:10121E00AB9003C4E0B40C030214C99003C40215CE
:10122E00AB9003C5E0B41F030214C99003C50215A9
:10123E00AB9003C9E0B407030214C99003C90215A9
:10124E00AB9003C6E0B41705E4F00215F79003C6A1
:10125E000215AB9003C7E0B43B05E4F00215F7901E
:10126E0003C70215AB900333E0B41405E4F0021586
:10127E00F79003330215AB900334E0B40905E4F0A4
:10128E000215F79003340215AB900335E0B409054F
:10129E00E4F00215F79003350215AB900336E0B477
:1012AE000905E4F00215F79003360215AB90033BE7
:1012BE00E0B41405E4F00215F790033B0215AB9071
:1012CE00033CE0B40905E4F00215F790033C021567
:1012DE00AB90033DE0B40905E4F00215F790033D31
:1012EE000215AB90033EE0B40905E4F00215F79049
:1012FE00033E0215AB900344E0B41405E4F002156E
:10130E00F79003440215AB900345E0B40905E4F0F1
:10131E000215F79003450215AB900346E0B409059C
:10132E00E4F00215F79003460215AB900347E0B4C4
:10133E000905E4F00215F79003470215AB90034E32
:10134E00E0B41405E4F00215F790034E0215AB90CD
:10135E00034FE0B40905E4F00215F790034F0215B0
:10136E00AB900350E0B40905E4F00215F79003507A
:10137E000215AB900351E0B40905E4F00215F790A5
:10138E0003510215AB900337E0B41405E4F00215D7
:10139E00F79003370215AB900338E0B40905E4F07B
:1013AE000215F79003380215AB900339E0B4090526
:1013BE00E4F00215F79003390215AB90033AE0B44E
:1013CE000905E4F00215F790033A0215AB900340BD
:1013DE00E0B41405E4F00215F79003400215AB904B
:1013EE000341E0B40905E4F00215F790034102153C
:1013FE00AB900342E0B40905E4F00215F790034206
:10140E000215AB900343E0B40905E4F00215F79022
:10141E0003430215AB90034AE0B41405E4F0021541
:10142E00F790034A0215AB90034BE0B40905E4F0C4
:10143E000215F790034B0215AB90034CE0B409056F
:10144E00E4F00215F790034C0215AB90034DE0B497
:10145E000905E4F00215F790034D0215AB90035306
:10146E00E0B41405E4F00215F79003530215AB90A7
:10147E000354E0B40905E4F00215F7900354021585
:10148E00AB900355E0B40905E4F00215F79003554F
:10149E000215AB900356E0B40904E4F08006900305
:1014AE0056E004F090033FE0B401030215BC900334
:1014BE003F0215F4900349E0B463030215F4900360
:1014CE00490215AB900348E0B46305E4F00215F74A
:1014DE009003480215AB900352E0B46305E4F002AA
:1014EE0015F79003520215AB900357E0B40705E4CD
:1014FE00F00215F79003570215AB90035AE0B409AA
:10150E00030215F490035A0215AB90035DE07005CB
:10151E0004F00215F7E490035DF00215F7900360F6
:10152E00E0B40905E4F00215F7900360806F9003B4
:10153E0062E0B40705E4F00215F7900362805E9056
:10154E000359E0B40B05E4F00215F7900359804DF2
:10155E0090035CE0B40B05E4F00215F790035C8099
:10156E003C90035FE0B40B04E4F0807D90035F8059
:10157E002C900361E0B40B04E4F0806D9003618065
:10158E001C90035BE0B40102802490035B805790B3
:10159E00035EE0B42604E4F0804F90035EE004F0B6
:1015AE0080471247838042900365E0B401057402C0
:1015BE00F08036900365802E90032CE0B40104E495
:1015CE00F0802690032C801E900363E0B40104E4A7
:1015DE00F08016900363800E900364E0B40104E47F
:1015EE00F080069003647401F090032FE075F0080C
:1015FE00A424DDF582E5F0341E021A4C90032FE090
:10160E001228F916C30F16D21016E51116F8121776
:10161E000813171A14192B1F1939201A0B2F19FA20
:10162E0030172C32173B33174A3417593517683693
:10163E0017773717863817953917A43A17B33B170C
:10164E00C23C17D13D17E03E17EF3F17FE40180D75
:10165E0041181C42182B43183A441849451858464D
:10166E0018664718754818844918934A18A14B18DC
:10167E00B04C18BF4D18CE4E18E04F18EF5018FE54
:10168E0051190C52191C53194B54195955196856A6
:10169E00197B57198C58199D5919AA5A19B75B19E4
:1016AE00C45C19D45D19E25E19F55F1A1B611A2B21
:1016BE006300001A3C9003C3E0700302193F9003CD
:1016CE00C30219F09003C4E0B40106740CF0021AC0
:1016DE003C9003C40219F09003C5E0B40106741FD8
:1016EE00F0021A3C9003C50219F09003C9E0B40150
:1016FE00030219929003C90219F09003C6E0700616
:10170E007417F0021A3C9003C60219F09003C7E05A
:10171E007006743BF0021A3C9003C70219F0900356
:10172E0033E070030218D49003330219F09003349F
:10173E00E070030219819003340219F0900335E032
:10174E0070030219819003350219F0900336E07090
:10175E00030219819003360219F090033BE07003E7
:10176E000218D490033B0219F090033CE070030280
:10177E00198190033C0219F090033DE070030219A9
:10178E008190033D0219F090033EE070030219812F
:10179E0090033E0219F0900344E070030218D490B7
:1017AE0003440219F0900345E0700302198190037F
:1017BE00450219F0900346E070030219819003462A
:1017CE000219F0900347E07003021981900347025B
:1017DE0019F090034EE070030218D490034E0219D4
:1017EE00F090034FE0700302198190034F0219F03D
:1017FE00900350E070030219819003500219F0908B
:10180E000351E070030219819003510219F0900305
:10181E0037E070030218D49003370219F0900338A2
:10182E00E070030219819003380219F0900339E039
:10183E0070030219819003390219F090033AE07097
:10184E000302198190033A0219F0900340E07002EE
:10185E0080749003400219F0900341E07003021966
:10186E00819003410219F0900342E0700302198146
:10187E009003420219F0900343E070030219819025
:10188E0003430219F090034AE07002803990034A34
:10189E000219F090034BE0700302198190034B0282
:1018AE0019F090034CE0700302198190034C021959
:1018BE00F090034DE0700302198190034D0219F070
:1018CE00900353E070067414F0021A3C9003530216
:1018DE0019F0900354E07003021981900354021919
:1018EE00F0900355E070030219819003550219F030
:1018FE00900356E07002807B9003560219F090031D
:10190E003FE0B40103021A0190033F021A3990031B
:10191E0049E0B40102801A9003490219F09003487D
:10192E00E07002800C9003480219F0900352E070B0
:10193E00067463F0021A3C9003520219F09003579A
:10194E00E07002803F9003570219F090035AE0B402
:10195E000102801F90035A0219F090035DE070059A
:10196E0004F0021A3CE490035DF0021A3C9003600E
:10197E00E070067409F0021A3C90036080649003D4
:10198E0062E070067407F0021A3C90036280539076
:10199E000359E070028025900359804690035CE065
:1019AE007002801890035C803990035FE0700280B3
:1019BE000B90035F802C900361E07005740BF08038
:1019CE006D900361801C90035BE0B4010280249053
:1019DE00035B805790035EE070057426F0804F9095
:1019EE00035EE014F0804712485C8042900365E08D
:1019FE00B401057402F08036900365802E90032C9E
:101A0E00E0B40104E4F0802690032C801E90036362
:101A1E00E0B40104E4F08016900363800E9003643A
:101A2E00E0B40104E4F080069003647401F09003C6
:101A3E002FE075F008A424DEF582E5F0341EF58360
:101A4E00E49390032FF0124B3C90032FE075F008B7
:101A5E00A424E1F582E5F0341EF583E493FB7401D2
:101A6E0093FA740293F9900330EBF0A3EAF0A3E932
:041A7E00F002291F2A
:0D600B007F047E347DDCDDFEDEFADFF60072
:016018002265
:0560ED0090032FE0FF0D
:0160F200228B
:0660F30090032FEFF022E4
:0560F90090033FE0FFF1
:0160FE00227F
:0560FF00900349E0FFE1
:016104002278
:05610500900348E0FFDB
:01610A002272
:05610B00900352E0FFCB
:01611000226C
:05611100900357E0FFC0
:016116002266
:0561170090035AE0FFB7
:01611C002260
:05611D0090035DE0FFAE
:01612200225A
:05612300900360E0FFA5
:016128002254
:05612900900362E0FF9D
:01612E00224E
:05612F00900363E0FF96
:016134002248
:05613500900364E0FF8F
:01613A002242
:05613B00900359E0FF94
:01614000223C
:0561410090035CE0FF8B
:016146002236
:0561470090035FE0FF82
:01614C002230
:05614D00900361E0FF7A
:01615200222A
:0561530090035BE0FF7A
:016158002224
:0561590090035EE0FF71
:01615E00221E
:05615F0090032EE0FF9B
:016164002218
:0661650090032EEFF02272
:05616B00900365E0FF58
:01617000220C
:0561710090032CE0FF8B
:016176002206
:104B3C0090033FE090038EF0900349E090038FF0D8
:104B4C00900348E0900390F0900352E0900391F0B2
:104B5C00900357E0900392F090035AE0900393F087
:104B6C0090035DE0900394F0900360E0900395F067
:104B7C00900362E0900396F0900363E0900397F04B
:104B8C00900364E0900398F0900359E0900399F03F
:104B9C0090035BE090039AF090032CE090039BF061
:104BAC00900365E090039CF07B017A03798E90036F
:104BBC0009740FF07D207C3F7FA0124E7102600BB8
:1033A4007B017A0279AE9003097410F07D007C3FB2
:1033B4007FA0124CFD12600B7B017A0079469003CA
:1033C400097410F0FD7C3F7FA0124CFD12600B7B52
:1033D400017A03798E900309740FF07D207C3F7F7E
:1033E400A0124CFD12600B90038EE0FF90033FF09F
:1033F40090038FE0900349F0900390E0900348F02D
:10340400900391E0900352F0900392E0900357F000
:10341400900393E090035AF0900394E090035DF0DE
:10342400900395E0900360F0900396E0900362F0BF
:10343400900397E0900363F0900398E0900364F0A6
:10344400900399E0900359F090039AE090035BF0A5
:1034540090039BE090032CF090039CE0900365F0B4
:10346400EFD39402400690033F7401F090038FE081
:10347400D3946340069003497401F0900390E0D321
:10348400946340069003487401F0900391E0D39450
:103494006340069003527401F0900392E0D39407C2
:1034A4004005E4900357F0900393E0D39409400659
:1034B40090035A7402F0900394E0D394014005E41D
:1034C40090035DF0900395E0D39409400690036067
:1034D4007406F0900396E0D3940740069003627458
:1034E40003F0900397E0D394014005E4900363F064
:1034F400900398E0D394014005E4900364F09003B2
:1035040099E0D3940B4006900359740BF090039AFE
:10351400E0D39402400690035B7402F090039BE0B6
:10352400D39401400690032C7401F090039CE0D3E3
:0B353400940240069003657401F02231
:104EB70090033F7401F0900349F0E4900348F090A9
:104EC7000352F0900357F090035A7402F0E49003F2
:104ED7005DF09003607406F09003627403F0A374AE
:104EE70001F0E4A3F0900359740BF0E490035CF035
:104EF70090035FF0900361F090035B7402F0E4901D
:104F0700035EF090032C04F0900365F090032DF0FE
:014F17002277
:105349007F109002AE7401F0A3DFFC900046740157
:10535900F0E4A3F0A37403F0A37405F0A37402F0BE
:10536900A314F0A3F0A37406F0A37401F0A3F0A3AF
:0B537900F0A3F0A3F0A3F0A3F0A3F05A
:015384002206
:105D8C000000000000000000000000000000000007
:0E5D9C000000000000000000000000000000F9
:101B16005500313F065B4F666D7D077F6F777C39D9
:101B26005E797176385C733E4802BE010204081085
:101B36002040804202C640006030000100000000E4
:101B4600000000000000000000000000000000008F
:101B5600000000000000000000000000000000007F
:101B6600000000000000000000000000625800565F
:101B7600000000000000000000000000000000005F
:101B8600000000000000000000000000000000004F
:101B9600000000000000000000000000000000003F
:101BA600000000000000000000000000000000002F
:101DC6000000000000000000410000004102C800C1
:101DD6005002AE01010101010101010101010101F0
:101DE600010101500046010003050201010601013F
:061DF600010101010101E1
:1054EC00C282E4FDFCC280EF30E004D2818002C2B3
:1054FC008100000000D280EFC313FF0DBD00010C32
:0A550C00ED64084C70DFC280C2811C
:015516002272
:10551700C283E4FDFCC280EF30E004D2818002C286
:105527008100000000D280EFC313FF0DBD00010C06
:0A553700ED64084C70DFC280C281F1
:015541002247
:10554200C2CCE4FDFCC280EF30E004D2818002C212
:105552008100000000D280EFC313FF0DBD00010CDB
:0A556200ED64084C70DFC280C281C6
:01556C00221C
:095E9300AE077F40125E9C7FC047
:0D5E9C00D282000000000000C2820254EC1F
:0C5E1A00125E9CD2827F40125E267FC088
:0D5E2600D283000000000000C28302551767
:0C5E3300125E26D2837F40125E3F7FC0CB
:0D5E3F00D2CC000000000000C2CC02554291
:054AAA00E4900003F0A0
:104AAF00126129125E93E4FB74012BF582E434004A
:104ABF00F583E0FF1254EC74092BF582E43400F512
:104ACF0083E0FF1254EC0BEBB408DDEE2488FF12E9
:104ADF005E1AE4FB74112BF582E43400F583E0FFDA
:104AEF0012551774192BF582E43400F583E0FF1289
:104AFF0055170BEBB408DDEE2488FF125E33E4FB91
:104B0F0074212BF582E43400F583E0FF12554274D3
:104B1F00292BF582E43400F583E0FF1255420BEBAD
:0C4B2F00B408DDEE2488FF125E3FD2CCFB
:014B3B002257
:10520900125E93E4FBAF061254ECAF061254EC0B9A
:10521900EBB408F17F8F125E1AE4FBAF0612551743
:10522900AF061255170BEBB408F17F8F125E33E40A
:10523900FBAF06125542AF061255420BEBB408F10B
:075249007F8F125E3FD2CC03
:01525000223B
:1050CA00E49002C9F0E4FFE4FE9002C9E024BEF5D0
:1050DA0082E43402F583E0FDEF75F008A42401F5BB
:1050EA0082E43400F583E5822EF582E43583F58384
:1050FA00EDF00EEEB408D20FEFB406CB124AAF7F32
:10510A001E125F269002C9E004F0E0C3940840B57D
:01511A002272
:105F2600EFD39400400B7EFF7DFFDDFEDEFA1F807F
:015F3600EF7B
:015F37002247
:10556D00E4FFE4FEEF75F008A42401F582E43400B5
:10557D00F583E5822EF582E43583F583E4F00EEEB6
:08558D00B408E10FEFB406DAE7
:0155950022F3
:0A6035007F78900056E4F0A3DFFC32
:01603F00223E
:1053BF00E4FF126177EF6401702A12556D900000BF
:1053CF00E05403FF2401F582E43400F5837440F0C8
:1053DF00124AAFE4FF12617D900000E004F0E0B4E8
:0453EF000402E4F0E0
:0153F3002297
:1043990012556D124DDC900033E0900010F0900042
:1043A90031E090000FF09003C3E0FF75F00A842418
:1043B90031F582E43400F583E090000EF0EF75F0FA
:1043C9000A84743125F0F582E43400F583E0900025
:1043D9000DF090000C7440F09003C4E0FF75F00AF2
:1043E900842431F582E43400F583E090000BF0EF8A
:1043F90075F00A84743125F0F582E43400F583E020
:1044090090000AF09000097440F09003C5E0FF7530
:10441900F00A842431F582E43400F583E090000841
:10442900F0EF75F00A84743125F0F582E43400F573
:1044390083E0900007F09003C9E02431F582E43469
:1044490000F583E0900006F09003C6E0FF75F00ADE
:10445900842431F582E43400F583E0900004F0EF20
:1044690075F00A84743125F0F582E43400F583E0AF
:10447900900003F09003C7E0FF75F00A842431F53A
:1044890082E43400F583E0900002F0EF75F00A84CD
:10449900743125F0F582E43400F583E0900001F0F1
:0344A900024AAF15
:105D3000AD0712556D900040E0900002F074312DD7
:0F5D4000F582E43400F583E0900001F0024AAFF1
:105D4F00AD0712556D90003FE0900002F074312DB9
:0F5D5F00F582E43400F583E0900001F0024AAFD2
:105EEA0012556D900031E0900002F0900001743775
:045EFA00F0024AAFB9
:105EA90012556D900031E0900002F0900040E090B2
:065EB9000001F0024AAFF7
:105E7C00AD0712556D74312DF582E43400F583E0D5
:075E8C00900001F0024AAF93
:10548D00AD0712556DED75F00A842431F582E434C3
:10549D0000F583E0900002F0ED75F00A847431257B
:1054AD00F0F582E43400F583E0900001F0024AAF9C
:104F1800AB07AA0612556D7C007D64AF03AE021282
:104F2800288E74312FF58274003EF583E0900003DB
:104F3800F07C007D0AAF03AE0212288E7C007D0A49
:104F480012288E74312DF58274003CF583E09000B0
:104F580002F0AE02AF037C007D0A12288E74312D58
:0F4F6800F58274003CF583E0900001F0024AAF3F
:064F77007B017A0379338F
:104F7D0012556D1228022431F582E43400F583E0D8
:104F8D00900004F090000112281B2431F582E434C6
:104F9D0000F583E0900003F090000212281B2431ED
:104FAD00F582E43400F583E0900002F090000312E6
:104FBD00281B2431F582E43400F583E0900001F0E4
:034FCD00024AAFE6
:1036D30012556D900098E0601790030D7401F0A3EC
:1036E3007400F0A37498F07B017A007930122925D5
:1036F300900092E0601790030D7401F0A37400F042
:10370300A37492F07B017A00792C12292590008C06
:10371300E0601790030D7401F0A37400F0A3748CA0
:10372300F07B017A007928122925900086E0601742
:1037330090030D7401F0A37400F0A37486F07B0171
:103743007A007924122925900080E0601790030DF8
:103753007401F0A37400F0A37480F07B017A007904
:103763002012292590007AE0601790030D7401F070
:10377300A37400F0A3747AF07B017A00791C1229F8
:1037830025900074E0601790030D7401F0A374009A
:10379300F0A37474F07B017A007918122925900044
:1037A3006EE0601790030D7401F0A37400F0A3742E
:1037B3006EF07B017A007914122925900068E0608D
:1037C3001790030D7401F0A37400F0A37468F07BE9
:1037D300017A007910122925900062E060179003A6
:1037E3000D7401F0A37400F0A37462F07B017A00FE
:1037F300790C12292590005CE0601790030D740189
:10380300F0A37400F0A3745CF07B017A00790812D2
:103813002925900056E0601790030D7401F0A374FE
:1038230000F0A37456F07B017A0079041229252253
:1029250090030AEBF0A3EAF0A3E9F0A3E0FBA3E030
:10293500FAA3E0F990000112281B2431F582E43452
:1029450000F583E0FF90030AE0FBA3E0FAA3E0F9BA
:10295500EF12284890030DE0FBA3E0FAA3E0F990FD
:10296500000212281B2431F582E43400F583E0FFD0
:1029750090030AE0FBA3E0FAA3E0F990FFFFEF1252
:10298500285A90030DE0FBA3E0FAA3E0F9900003B9
:1029950012281B2431F582E43400F583E0FF90030F
:1029A5000AE0FBA3E0FAA3E0F990FFFEEF12285A34
:1029B50090030DE0FBA3E0FAA3E0F99000041228D0
:1029C5001B2431F582E43400F583E0FF90030AE02F
:1029D500FBA3E0FAA3E0F990FFFDEF12285A90035C
:1029E5000DE0FBA3E0FAA3E0F990000512281B54C3
:1029F5000F24FD6036147003022A8824FD7003023B
:102A05002ACD147003022AE024066003022AF990F5
:102A1500030AE0FBA3E0FAA3E024FDF9EA34FFFA98
:102A25001228024480122848022ACD90030AE0FBAE
:102A3500A3E0FAA3E024FDF9EA34FFFA12280244E0
:102A45008012284890030AE0FBA3E0FAA3E024FEE5
:102A5500F9EA34FFFA122802448012284890030A42
:102A6500E0FBA3E0FAA3E024FFF9EA34FFFA122819
:102A750002448012284890030AE0FBA3E0FAA3E091
:102A8500F9806990030AE0FBA3E0FAA3E024FDF9CD
:102A9500EA34FFFA122802448012284890030AE01B
:102AA500FBA3E0FAA3E024FEF9EA34FFFA122802B8
:102AB500448012284890030AE0FBA3E0FAA3E0242F
:102AC500FFF9EA34FFFA802490030AE0FBA3E0FA59
:102AD500A3E024FEF9EA34FFFA801190030AE0FB33
:102AE500A3E0FAA3E024FDF9EA34FFFA1228024430
:052AF5008012284822B8
:1046A8009002FEEBF0A3EAF0A3E9F0A3E0FBA3E09D
:1046B800FAA3E0F9122802FF9002FEE0FBA3E0FA59
:1046C800A3E0F9EF122848900301E0FBA3E0FAA366
:1046D800E0F990000112281BFF9002FEE0FBA3E026
:1046E800FAA3E0F9900001EF12285A900301E0FBC9
:1046F800A3E0FAA3E0F990000212281BFF9002FE43
:10470800E0FBA3E0FAA3E0F9900002EF12285A9028
:104718000301E0FBA3E0FAA3E0F990000312281BD1
:10472800FF9002FEE0FBA3E0FAA3E0F9900003EF9C
:1047380012285A900301E0FBA3E0FAA3E0F99000E5
:104748000412281BFF9002FEE0FBA3E0FAA3E0F9A5
:10475800900004EF12285A900301E0FBA3E0FAA3AB
:10476800E0F990000712281BFF9002FEE0FBA3E08F
:0B477800FAA3E0F9900005EF02285AB8
:0F4FD000EF75F006A4244AF9740035F0FA7B015E
:104FDF0012280290000612285A90000112281B90E6
:104FEF00000712285A90000212281B90000812285E
:104FFF005A90000312281B90000912285A9000049F
:10500F0012281B90000A12285A90000512281B9094
:05501F00000B02285AFD
:0F502400EE75F006A42456F9740035F0FA7B01FE
:1050330090000612281B12284890000712281B9084
:10504300000112285A90000812281B90000212280F
:105053005A90000912281B90000312285A90000A44
:1050630012281B90000412285A90000B12281B9040
:05507300000502285AAF
:1038330078027C037D017BFF7A5D798C7E007F06B5
:103843001227DCE4900308F0A3F012611D90030833
:10385300EFF0126111900309EFF012610B90030076
:10386300EFF0126105900301EFF0126195900301EF
:10387300E0FE900300E0FDC39E500AEF9D4006EE7C
:103883006003E0701B900301E0600302398F900333
:1038930000E0FE700302398FEFD39E500302398F8D
:1038A300E49002FEF09002FEE0FFC3940A502275FA
:1038B300F006EFA42456F582E5F03400F583E070BA
:1038C300089002FEE0A3F080089002FEE004F0807E
:1038D300D4E49002FEF09002FEE0FFA3E075F00650
:1038E300A42FF582E435F0F583E5822450F582E5D3
:1038F300833400F583E0FE74022FF582E43403F58C
:1039030083EEF09002FEE004F0E0B406C99002FFFB
:10391300E09002FEF09002FEE0FFD39401400B1210
:103923004FD09002FEE014F080EBE49002FEF090A2
:1039330002FEE0FF2402F582E43403F583E0FE7423
:10394300562FF582E43400F583EEF09002FEE00496
:10395300F0E0B406DA1236D3124AAFE4FF12619BE9
:10396300900308E0B401257B017A00795690005654
:10397300E0FD90030EE4F0A3EDF090005BE0540F44
:0C398300900310F0900309E0FF1224AA4A
:01398F002215
:10427800E4900304F0A3F012610B9002FFEFF01238
:104288006105900300EFF0126195900301EFF012C1
:1042980060FF900302EFF01260F9900303EFF01251
:1042A8006117900305EFF09002FFE0FFA3E0FEC363
:1042B8009F500EA3E09E4009EF6006900300E07057
:1042C8001A9002FFE06003024398A3E0FF70030224
:1042D8004398A3E0D39F5003024398E49002FEF072
:1042E800900302E014FF9002FEE0FEC39F500B1201
:1042F80050249002FEE004F080E6900302E014757A
:10430800F006A49002FEF0900302E075F006A4FF08
:104318009002FEE0FDC39FE5F06480F87480985039
:104328001474562DF582E43400F583E4F09002FE0F
:10433800E004F080D21236D3124AAFE4FF12619B38
:10434800900056E07004FF0260F3900303E06402FB
:10435800703E9002FEF0900305E0FF9002FEE0C37D
:104368009F502D7B017A007956900056E0FD90030E
:104378000EE4F0A3EDF090005BE0540F900310F012
:10438800900304E0FF1224AA9002FEE004F080C625
:014398002202
:104D6400E49002CBF01260FF9002CBEFF0E49002EB
:104D7400CAF09002CBE014FF9002CAE0FEC39F5039
:104D84000B1250249002CAE004F080E69002CBE0BB
:104D94001475F006A49002CAF09002CBE075F006F8
:104DA400A4FF9002CAE0FDC39FE5F06480F874801C
:104DB40098501474562DF582E43400F583E4F09091
:104DC40002CAE004F080D21236D3124AAF900056E1
:074DD400E07004FF1260F320
:014DDB0022B5
:1047830078CC7C027D017BFF7A5D79927E007F0687
:104793001227DC1260FF9002CBEFF01260FFE4906F
:1047A30002CAF09002CAE0FEC39F502175F006EEE4
:1047B300A42456F582E5F03400F583E070079002F7
:1047C300CBEEF080089002CAE004F080D6E49002B9
:1047D300CAF09002CAE0FF2456F582E43400F58360
:1047E300E0FE74CC2FF582E43402F583EEF0900200
:1047F300CAE004F0E0B406DAE49002CAF09002CB17
:10480300E0FF9002CAE0FEC39F500B1250249002B7
:10481300CAE004F080E7E49002CAF09002CAE0FF25
:1048230024CCF582E43402F583E0FE9002CBE075FC
:10483300F006A42FF582E435F0F583E5822450F5E4
:1048430082E5833400F583EEF09002CAE004F0E0E1
:09485300B406C81236D3024AAFC4
:10485C0078CC7C027D017BFF7A5D79987E007F06A7
:10486C001227DC1260FF9002CBEFF01260FFE49095
:10487C0002CAF09002CAE0FEC39F502175F006EE0A
:10488C00A42456F582E5F03400F583E0700790021D
:10489C00CBEEF080089002CAE004F080D6E49002DF
:1048AC00CAF09002CAE0FFA3E075F006A42FF582CF
:1048BC00E435F0F583E5822450F582E5833400F588
:1048CC0083E0FE74CC2FF582E43402F583EEF09095
:1048DC0002CAE004F0E0B406C99002CBE09002CA30
:1048EC00F09002CAE0FFD39401400B124FD090021B
:1048FC00CAE014F080EBE49002CAF09002CAE0FF28
:10490C0024CCF582E43402F583E0FE74562FF58254
:10491C00E43400F583EEF09002CAE004F0E0B40653
:07492C00DA1236D3024AAF94
:0B3049009002FEEBF0A3EAF0A3E9F018
:1030540078077C037D017BFF7A5D799E7E007F0685
:103064001227DC1260FF900305EFF01260FF90035B
:1030740006EFF0E4900304F0900306E0FF900304ED
:10308400E0FEC39F400302315CEE75F006A4FFAE80
:10309400F0900301E0FBA3E0FAA3E02FF9EA3EFA83
:1030A40090000112281BFD9002FEE0FBA3E0FAA3AE
:1030B400E0F990000112281B6D6003023153900364
:1030C40001E0FBA3E0FAA3E02FF9EA3EFA90000244
:1030D40012281BFF9002FEE0FBA3E0FAA3E0F990A4
:1030E400000212281B6F7067900304E075F006A4B9
:1030F400FFAEF0900301E0FBA3E0FAA3E02FF9EAAE
:103104003EFA90000312281BFD9002FEE0FBA3E0B0
:10311400FAA3E0F990000312281BB50532900301CD
:10312400E0FBA3E0FAA3E02FF9EA3EFA90000412D0
:10313400281BFF9002FEE0FBA3E0FAA3E0F9900055
:103144000412281BB50708900304E0A3F08009903B
:103154000304E004F002307C900305E07003125E87
:10316400FE900305E0900304F0900306E0FF900353
:1031740004E0FEC39F5021EE75F006A4FF90030106
:10318400E0FBA3E0FAA3E02FF9EA35F0FA1250339A
:10319400900304E004F080D1900306E0FF9003055F
:1031A400E06F603DE4900304F0900306E024FFFF29
:1031B400E434FFFE7C007D0612287C900301E0FBD2
:1031C400A3E0FAA3E02FF9EA3EFAA3E07E0029F98E
:1031D400EE3AFAE4122848900304E004F0E0B4065E
:1031E400C8900301E0FBA3E0FAA3E0F912280270FF
:0531F40004FF1260F36E
:0131F90022B3
:0B353F009002FEEBF0A3EAF0A3E9F01D
:10354A0078077C037D017BFF7A5D79A47E007F0684
:10355A001227DC1260FF900305EFF01260FF900360
:10356A0006EFF0E4900304F0900306E0FF900304F2
:10357A00E0FEC39F4003023652EE75F006A4FFAE8A
:10358A00F0900301E0FBA3E0FAA3E02FF9EA3EFA88
:10359A0090000112281BFD9002FEE0FBA3E0FAA3B3
:1035AA00E0F990000112281B6D600302364990036E
:1035BA0001E0FBA3E0FAA3E02FF9EA3EFA90000249
:1035CA0012281BFF9002FEE0FBA3E0FAA3E0F990A9
:1035DA00000212281B6F7067900304E075F006A4BE
:1035EA00FFAEF0900301E0FBA3E0FAA3E02FF9EAB3
:1035FA003EFA90000312281BFD9002FEE0FBA3E0B6
:10360A00FAA3E0F990000312281BB50532900301D2
:10361A00E0FBA3E0FAA3E02FF9EA3EFA90000412D5
:10362A00281BFF9002FEE0FBA3E0FAA3E0F990005A
:10363A000412281BB50708900304E0A3F080099040
:10364A000304E004F0023572900305E0900304F0ED
:10365A00900306E0FF900304E0FEC39F5021EE753D
:10366A00F006A4FF900301E0FBA3E0FAA3E02FF920
:10367A00EA35F0FA125033900304E004F080D19056
:10368A000306E0FF900305E06F603DE4900304F059
:10369A00900306E024FFFFE434FFFE7C007D06125F
:1036AA00287C900301E0FBA3E0FAA3E02FF9EA3EAD
:1036BA00FAA3E07E0029F9EE3AFAE41228489003C8
:0836CA0004E004F0E0B406C8BE
:0136D20022D5
:10002600E4FF12616BEFB40107D2CD1253BF800318
:0C003600124399126171BF010312603582
:01004200229B
:05000600E4FF025D3083
:10597D00D2CD7F01125D3012615FBF011812612F10
:10598D00BF0112125EFE12600B7F6F7E001254601B
:06599D00E4FF1261652227
:1059C8007F02125D3012615FBF011812612FBF01A3
:1059D80012125EFE12600B7F707E00125460E4FFAC
:0459E80012616522C1
:1059EC007F03125D3012615FBF011812612FBF017E
:1059FC0012125EFE12600B7F717E00125460E4FF87
:045A0C00126165229C
:105A10007F04125D3012615FBF011812612FBF0158
:105A200012125EFE12600B7F727E00125460E4FF61
:045A30001261652278
:105A34007F05125D3012615FBF011812612FBF0133
:105A440012125EFE12600B7F737E00125460E4FF3C
:045A54001261652254
:105A58007F06125D3012615FBF011812612FBF010E
:105A680012125EFE12600B7F747E00125460E4FF17
:045A78001261652230
:105A7C007F07125D3012615FBF011812612FBF01E9
:105A8C0012125EFE12600B7F757E00125460E4FFF2
:045A9C00126165220C
:105AA0007F08125D3012615FBF011812612FBF01C4
:105AB00012125EFE12600B7F767E00125460E4FFCD
:045AC00012616522E8
:105AC4007F09125D3012615FBF011812612FBF019F
:105AD40012125EFE12600B7F777E00125460E4FFA8
:045AE40012616522C4
:05001E007F0A025D30C5
:0561F5007F0B025D308C
:0561FA007F0C025D3086
:0D000E007F0D125D30E4FF1261B3D2CD22F0
:1052CF0012616BEFB401057F010260F3126177BFCA
:1052DF0001081243997F0212617D126177BF031992
:1052EF00E4900010F090000FF090000EF090000D81
:0C52FF00F0124AAFE4FF12617D124BCCAC
:01530B00227F
:10559600126177BF01081243997F0212617D126181
:1055A60077BF0311E490000BF090000AF0124AAFA7
:0855B600E4FF12617D024BCC01
:1055BE00126177BF01081243997F0212617D126159
:1055CE0077BF0311E4900008F0900007F0124AAF85
:0855DE00E4FF12617D024BCCD9
:105AE800126177BF01081243997F0212617D12612A
:105AF80077BF030DE4900006F0124AAFE4FF12618D
:045B08007D024BCC03
:105B0C00126177BF01081243997F0212617D126105
:105B1C0077BF030DE4900004F0124AABE4FF12616E
:045B2C007D024BCCDF
:1055E600126177BF01081243997F0212617D126131
:1055F60077BF0311E4900002F0900001F0124AAF69
:08560600E4FF12617D024BCCB0
:105F38007F01125D4FE4900333F0A3F0A3F0A304B4
:025F4800F02245
:105F4A007F02125D4FE490033BF0A3F0A3F0A30499
:025F5A00F02233
:105F5C007F03125D4FE4900344F0A3F0A3F0A3047D
:025F6C00F02221
:105F6E007F04125D4FE490034EF0A3F0A3F0A30460
:025F7E00F0220F
:105F80007F01125D4FE4900337F0A3F0A3F0A30468
:025F9000F022FD
:105F92007F02125D4FE4900340F0A3F0A3F0A3044C
:025FA200F022EB
:105FA4007F03125D4FE490034AF0A3F0A3F0A3042F
:025FB400F022D9
:105FB6007F04125D4FE4900353F0A3F0A3F0A30413
:025FC600F022C7
:0561FF007F01025D4F6D
:056204007F02025D4F66
:08606600E4FF12610502548DF4
:08606E00E4FF12610B02548DE6
:056209007F01025D4F62
:05620E007F02025D4F5C
:056213007F03025D4F56
:056218007F04025D4F50
:05621D007F05025D4F4A
:056222007F01025D4F49
:056227007F02025D4F43
:05622C007F03025D4F3D
:056231007F04025D4F37
:0E6019007F01125D4F1261539002C8EFF0221A
:056236007F02025D4F34
:05623B007F01025D4F30
:056240007F02025D4F2A
:105E0000E4FFFEFDFC12605DAC06AD077E277F104F
:0A5E100012288EAC06AD07024F18F1
:08607600E4FF126171025E7C7F
:08607E00E4FF12616B025E7C7D
:10516C001261AD9002CAEFF0D394145031E0FAC33F
:10517C00940450028019EAD3941250139002CAE09E
:10518C00C31324BCF582E43402F583E0FF80027F74
:10519C00FF12520930A4077F3C7E0012546090022B
:0F51AC00CAE0D39414400612556D124AAFC2CD1B
:0151BB0022D1
:105C4800126177BF0108124F777F0212617D1261DE
:105C580077BF030DE4900004F0124AAFE4FF12612D
:025C68007D229B
:105DAA00126177BF0108124F777F0212617D12617B
:0D5DBA0077BF0308124AAAE4FF12617D22A0
:105C6A00126177BF0108124F777F0212617D1261BC
:105C7A0077BF030DE4900002F0124AAFE4FF12610D
:025C8A007D2279
:105C8C00126177BF0108124F777F0212617D12619A
:105C9C0077BF030DE4900001F0124AAFE4FF1261EC
:025CAC007D2257
:10560E00126177BF010E7B017A03793B124F7D7FCA
:10561E000212617D126177BF030DE4900004F01257
:08562E004AAFE4FF12617D2286
:105B5300126177BF010E7B017A03793B124F7D7F80
:105B63000212617D126177BF0308124AAAE4FF1291
:035B7300617D222F
:10563600126177BF010E7B017A03793B124F7D7FA2
:105646000212617D126177BF030DE4900002F01231
:085656004AAFE4FF12617D225E
:10565E00126177BF010E7B017A03793B124F7D7F7A
:10566E000212617D126177BF030DE4900001F0120A
:08567E004AAFE4FF12617D2236
:10568600126177BF010E7B017A037944124F7D7F49
:105696000212617D126177BF030DE4900004F012DF
:0856A6004AAFE4FF12617D220E
:105B7600126177BF010E7B017A037944124F7D7F54
:105B86000212617D126177BF0308124AAAE4FF126E
:035B9600617D220C
:1056AE00126177BF010E7B017A037944124F7D7F21
:1056BE000212617D126177BF030DE4900002F012B9
:0856CE004AAFE4FF12617D22E6
:1056D600126177BF010E7B017A037944124F7D7FF9
:1056E6000212617D126177BF030DE4900001F01292
:0856F6004AAFE4FF12617D22BE
:1056FE00126177BF010E7B017A03794E124F7D7FC7
:10570E000212617D126177BF030DE4900004F01266
:08571E004AAFE4FF12617D2295
:105B9900126177BF010E7B017A03794E124F7D7F27
:105BA9000212617D126177BF0308124AAAE4FF124B
:035BB900617D22E9
:10572600126177BF010E7B017A03794E124F7D7F9E
:105736000212617D126177BF030DE4900002F01240
:085746004AAFE4FF12617D226D
:10574E00126177BF010E7B017A03794E124F7D7F76
:10575E000212617D126177BF030DE4900001F01219
:08576E004AAFE4FF12617D2245
:10577600126177BF010E7B017A037937124F7D7F65
:105786000212617D126177BF030DE4900004F012EE
:085796004AAFE4FF12617D221D
:105BBC00126177BF010E7B017A037937124F7D7F1B
:105BCC000212617D126177BF0308124AAAE4FF1228
:035BDC00617D22C6
:10579E00126177BF010E7B017A037937124F7D7F3D
:1057AE000212617D126177BF030DE4900002F012C8
:0857BE004AAFE4FF12617D22F5
:1057C600126177BF010E7B017A037937124F7D7F15
:1057D6000212617D126177BF030DE4900001F012A1
:0857E6004AAFE4FF12617D22CD
:1057EE00126177BF010E7B017A037940124F7D7FE4
:1057FE000212617D126177BF030DE4900004F01276
:08580E004AAFE4FF12617D22A4
:105BDF00126177BF010E7B017A037940124F7D7FEF
:105BEF000212617D126177BF0308124AAAE4FF1205
:035BFF00617D22A3
:10581600126177BF010E7B017A037940124F7D7FBB
:105826000212617D126177BF030DE4900002F0124F
:085836004AAFE4FF12617D227C
:10583E00126177BF010E7B017A037940124F7D7F93
:10584E000212617D126177BF030DE4900001F01228
:08585E004AAFE4FF12617D2254
:10586600126177BF010E7B017A03794A124F7D7F61
:105876000212617D126177BF030DE4900004F012FD
:085886004AAFE4FF12617D222C
:105C0200126177BF010E7B017A03794A124F7D7FC1
:105C12000212617D126177BF0308124AAAE4FF12E1
:035C2200617D227F
:10588E00126177BF010E7B017A03794A124F7D7F39
:10589E000212617D126177BF030DE4900002F012D7
:0858AE004AAFE4FF12617D2204
:1058B600126177BF010E7B017A03794A124F7D7F11
:1058C6000212617D126177BF030DE4900001F012B0
:0858D6004AAFE4FF12617D22DC
:1058DE00126177BF010E7B017A037953124F7D7FE0
:1058EE000212617D126177BF030DE4900004F01285
:0858FE004AAFE4FF12617D22B4
:105C2500126177BF010E7B017A037953124F7D7F95
:105C35000212617D126177BF0308124AAAE4FF12BE
:035C4500617D225C
:10590600126177BF010E7B017A037953124F7D7FB7
:105916000212617D126177BF030DE4900002F0125E
:085926004AAFE4FF12617D228B
:10592E00126177BF010E7B017A037953124F7D7F8F
:10593E000212617D126177BF030DE4900001F01237
:08594E004AAFE4FF12617D2263
:08608600E4FF1260F9025E7CE8
:08608E00E4FF1260FF02548DD3
:08609600E4FF126111025E7CBF
:08609E00E4FF126117025E7CB1
:0860A600E4FF12611D025E7CA3
:105DC700E49002CAF01261239002CAEFF075F00363
:0D5DD700A4FF125CCF9002CAE0FF025E7CC8
:0860AE00E4FF126129025E7C8F
:10595600E49002CAF012613B9002CAEFF0C3940AC7
:105966005005E0FF025E7C9002CAE0C3940B500330
:06597600025EEA125EA9C8
:01597C002208
:0860B600E4FF126141025E7C6F
:0860BE00E4FF126147025E7C61
:0860C600E4FF12614D025E7C53
:10538500E49002CAF01261539002CAEFF0125E7CFB
:105395009002C8E0FF9002CAE06F601D125078903D
:1053A50002CAE09002C8F012615FBF010C7F797EEE
:0953B50000125460E4FF1261656E
:0153BE0022CC
:1051BC00E49002CAF01261599002CAEFF012548DB9
:1051CC0012615FBF011E12600B125EFE12600B902B
:1051DC0002CAE02442FFE433FE12546012600BE476
:1051EC00FF1261651261E9BF0112125EFE12600BC3
:0C51FC007F797E00125460E4FF1261EF26
:015208002283
:105CAE00E49002CAF01261119002CAEFF090005611
:105CBE00E0B4340A30A4077F687E00125460D2CD5F
:015CCE0022B3
:056245007F06025D4F21
:0860CE00E4FF12612F025E7C69
:05624A007F07025D4F1B
:0860D600E4FF126135025E7C5B
:101DFC004103D4004103DB004103D9004103DA0065
:101E0C004103D5004103D2004103DC004103D6005D
:0C1E1C004103D3004103D8004103D7006C
:105FFB00438901758C3C758AB0D2AFD2A9D28C2261
:0E602700438910758DFF758B9CD2AFD2AB22D2
:03000B000244AC00
:1044AC00C0E0C0F0C083C082C0D075D000C000C0D6
:0D44BC0001C002C003C004C005C006C00757
:1044C90090032AE4F0A3F0C28D758C3C758AB01272
:1044D90060ED90032AEFF012616B90032BEFF090DF
:1044E90003D4E004F0E0B40A199003DBE004F0908F
:1044F90003D8E004F09003D4E4F09003D7E060021D
:1045090014F09003DBE0C394044002E4F09003D874
:10451900E0C394184002E4F09003D9E0B40104A385
:10452900E004F01261D1BF01149003D5E004F0E07A
:10453900D3947840081261D79003D5E4F090032A08
:10454900E0FFB45F159003D2E004F0E0B4140B90DF
:1045590003DCE004F09003D2E4F0EF645F601A90AA
:10456900032AE0643160129003D6E004F0E0D394AA
:10457900C84006E4F0FF1260F390032AE07015A327
:10458900E0B402109003D3E004F0E0C3940A4004BD
:04459900B2CDE4F0CB
:10459D00D007D006D005D004D003D002D001D00072
:0B45AD00D0D0D082D083D0F0D0E0321C
:03001B0002511B74
:10511B00C0E0C0F0C083C082C0D075D000C000C05A
:0D512B0001C002C003C004C005C006C007DB
:10513800E4FF1260EDC28F758DFF758B9CEFB42E66
:09514800051221FC800312400A4B
:10515100D007D006D005D004D003D002D001D000B2
:0B516100D0D0D082D083D0F0D0E0325C
:056177009003DBE0FFD6
:01617C002200
:06617D009003DBEFF022AD
:066183009003D9EFF022A9
:056189009003DAE0FFC5
:01618E0022EE
:06618F00E49003DAF022A7
:056195009003DCE0FFB7
:01619A0022E2
:06619B009003DCEFF0228E
:0661A100E49003D6F02299
:0661A7009003DAEFF02284
:0561AD009003D8E0FFA3
:0161B20022CA
:0661B3009003D8EFF0227A
:0561B9009003D7E0FF98
:0161BE0022BE
:0661BF009003D7EFF0226F
:0B1E28004803C2140F09040C2200063E
:04525100E0FD7F8A73
:10525500D2A0EF54FEFFE4FEEF30E004D2A18002BD
:10526500C2A1D2A2C2A2EFC313FF0EEEB408E9E4B5
:10527500FEED30E004D2A18002C2A1D2A2C2A2ED0D
:0A528500C313FD0EEEB408E9C2A049
:01528F0022FC
:10529000D2A0EF4401FFE4FDEF30E004D2A1800290
:1052A000C2A1D2A2C2A2EFC313FF0DEDB408E9E47C
:1052B000FDEEC313FE30A1054480FE8004EE547F52
:0E52C000FED2A2C2A20DEDB408E7C2A0AF0656
:0152CE0022BD
:104BCC00E4FF74C22FF582E43403F583E0FE75F044
:104BDC000A84FDEE75F00A8474CA2FF582E434035E
:104BEC00F583E5F0F0EDC454F0FE74CA2FF582E4C1
:104BFC003403F583E02EF00FEFB408C6E4FD7F8E8E
:104C0C001252557D807F801252559003CBE0FD7F70
:104C1C008C125255A3E0FD7F88125255A3E0FD7F04
:104C2C00861252559003D11252519003CEE0FD7F63
:104C3C0084125255A3E0FD7F82125255A3E0FD7FF2
:0F4C4C0080125255A31252517D807F8E02525515
:104DDC007F8C1252909003CBEFF07F88125290A3ED
:104DEC00EFF07F86125290A3EFF07F84125290A3C3
:104DFC00EFF07F82125290A3EFF07F80125290EF6F
:104E0C00547FA3F07F8A125290A3EFF0E4FF74CA90
:104E1C002FF582E43403F583E0FEC4540FFDEE5409
:104E2C000FFE74C22FF582E43403F583EEF0ED75BA
:104E3C00F00AA4FE74C22FF582E43403F583E02E4D
:064E4C00F00FEFB408C8EE
:014E5200223D
:0B604000C2A0C2A2E4FD7F8002525506
:101E33004103AF004103AE004103B4004103B700C7
:101E43004103BE004103A3004103A2004303BB00BF
:101E530000004203B500464203B9007842039F00E5
:101E63000042039D00004203AC00004203B0004661
:101E73004203B200784203C000004103A1004103C2
:101E8300BF004103B8004103A4004103A80043037A
:0A1E9300A50000004303A9000000B1
:0760E600D2AFD2A8D288223C
:030003000260DEBA
:0860DE00C2A8208E02D28E320E
:105DE400E49003AFF09003AEF09003B7F09003B4E7
:0C5DF400F09003BEF09003A2F0A3F02298
:10400A0030B2059003B780039003B4E004F0900344
:10401A00A3E004F0E0D394A07480948F4007C28E8A
:10402A00D2A8025DE49003A2E0146035146069141A
:10403A0070030240C9240360030241399003B7E0C8
:10404A00D3940040030241399003B4E0D39446501C
:10405A00030241409003A2E004F0E49003B7F08029
:10406A00329003B7E0FFFD9003B4E02DFDE433FC8A
:10407A00D3ED948CEC648094804003024139EFD3F1
:10408A009401500302414030A802C2A89003A2E062
:10409A0004F0E49003B4F0229003B4E0D394014016
:1040AA00139003B7E09003AFF0E49003B7F09003E6
:1040BA00A2E004F09003B7E0D3941940798070909D
:1040CA0003B7E0D39401405C9003B4E0FF9003AEE1
:1040DA00F0E49003B4F09003A27402F09003BEE0FF
:1040EA00131313541FFE24BBF582E43403F583E053
:1040FA00FD25E0F09003AFE0D39F400E74BB2EF590
:10410A0082E43403F583E04401F09003BEE004F056
:10411A00E0D39417400EC28E125DE49003A174019D
:10412A00F0D2A8229003B4E0D39419400980001277
:07413A005DE4D2A8C28E2251
:1045B800E4900328F01260ED900328EFF09003A137
:1045C800E0640160030246A7F0C2A89003B8E014B3
:1045D80060270460030246A59003BBE09003A5F0A2
:1045E8009003BCE09003A6F09003BDE09003A7F011
:1045F8009003B87401F00246A59003BBE0FF900356
:10460800A5E06F600302468D9003BCE0FE9003A610
:10461800E06E70719003BDE0FD9003A7E06D7065DA
:104628009003A9E06F7012A3E06E700DA3E0B505CA
:10463800089003A4E0702080009003BBE09003A9D9
:10464800F09003BCE09003AAF09003BDE09003ABA8
:10465800F09003BF7401F09003A47401F01261A1FB
:10466800E49003BBF0A3F0A3F09003A5F0A3F0A39C
:10467800F0900328E0645E60057F01126165E490B4
:1046880003B8F080189003BBE09003A5F09003BC3A
:0F469800E09003A6F09003BDE09003A7F0D2A836
:0146A70022F0
:1021FC0030B2059003B780039003B4E004F0900371
:10220C00A3E004F0E0D394A07480948F4006C28EB7
:10221C00D2A880279003A2E014605A147003022302
:10222C001014700302235B240360030224A29003A6
:10223C00B7E0D394004007D2A8C28E025DE49003AD
:10224C009FE0FEA3E0FF7C007D0F12287CEF243C76
:10225C00FFE43EFE9003B4E0D39FEC9E50030224B7
:10226C00A99003A2E004F09003B5EEF0A3EFF0E424
:10227C00A3F002230B90039DE0FEA3E0FF7C007D06
:10228C000F12287CEF2478FFE43EFE9003B7E0F9B0
:10229C00FD9003B4E02DFDE433FCD3ED9FEC9E40A8
:1022AC0022E9701C90039EE004F0700690039DE000
:1022BC0004F09003A0E004F0700690039FE004F09B
:1022CC000224A2E9D3940150030224A990039DE0B7
:1022DC00FEA3E0FF7C007D0F12287CEF2478FFE446
:1022EC003E9003B9F0A3EFF0E490039DF0A3F0A3AC
:1022FC00F0A3F030A802C2A89003A2E004F0E4908E
:10230C0003B4F0229003B4E0D3940040139003B7CD
:10231C00E09003AFF0E49003B7F09003A2E004F078
:10232C009003B5E0FEA3E0FF9003BAE02FFF90030B
:10233C00B9E03EFEEF7803CEC313CE13D8F9FF906D
:10234C0003B7E0D39FE49E50030224A90224A29079
:10235C0003B7E0D3940050030224779003B4E0FF5A
:10236C009003AEF0E49003B4F09003A27402F090EA
:10237C0003BEE0131313541FFE24BBF582E4340395
:10238C00F583E025E0F09003AFE0FDD39F400E74A1
:10239C00BB2EF582E43403F583E04401F09003BED8
:1023AC00E004F0E0D394175003022477C28E90031C
:1023BC00AEE02DFEE4339003ACF0A3CEF0125DE45E
:1023CC009003C1E004F070069003C0E004F09003A9
:1023DC00B9E0FEA3E0FF9003B3E02FF09003B2E06E
:1023EC003EF0E0C313FEA3E013FF9003B9EEF0A39D
:1023FC00EFF09003B2EEF0A3EFF0D39003C1E094B2
:10240C00019003C0E09400405F9003B0E0FEA3E0B5
:10241C00FF9003B5E0FCA3E0FD9FFFEC9EFED3EF25
:10242C00941EEE940040159003B1E09DFF9003B014
:10243C00E09CFED3EF941EEE9400502C9003B5E07C
:10244C00FEA3E0FF9003B1E02FF09003B0E03EF06C
:10245C00E0C313FEA3E013FF9003B5EEF0A3EFF07F
:10246C009003B0EEF0A3EFF0D2A8229003B5E0FEFB
:10247C00A3E0FF9003BAE02FFF9003B9E03EFEEF1C
:10248C007803CEC313CE13D8F9FF9003B4E0D39FD7
:0E249C00E49E40098000125DE4D2A8C28E22A8
:0561C5009003BFE0FFA4
:0161CA0022B2
:0661CB00E49003BFF02286
:0561D1009003A4E0FFB3
:0161D60022A6
:0661D700E49003A4F02295
:0561DD009003A8E0FFA3
:0161E200229A
:0661E300E49003A8F02285
:08605D009003ACE0FEA3E0FF9C
:016065002218
:105CF00000000000000000000000000000000000A4
:105D00000000000000000000000000000000000093
:0F1E9D004803DD00000000000000004103E500E5
:10004600E49002CDF078D67C027D017BFF7A5C7964
:10005600F0FE7F201227DCE49002F6F0A3F0A3F076
:10006600A3F0A3F0A3F0A3F0A3F01260ED9002F6C4
:10007600EFF01261539002F7EFF01261599002F817
:10008600EFF01260F99002F9EFF01260FF9002FAB9
:10009600EFF01260FF9002CDEFF012613B9002FB91
:1000A600EFF01261119002FCEFF01261179002FD61
:1000B600EFF01245B81261C5EF64016003020E68E5
:1000C6009002F6E024CE24FC4003020B6224FC409E
:1000D60003020C1124FC4003020CB224FC40030270
:1000E6000D5324E47003020E051470030204422427
:1000F6005F6003020E65E4FF12619B9003ABE0FFB5
:1001060054F0600302024B9003A9E0C4540FFE9022
:1001160002FBE0FDB50605C3940A4011ED640A60D2
:100126000302024BEEC3940A400302024B9002F70D
:10013600E0B4010CEF540F24AEF582E43402800DD6
:100146009003ABE0540F2446F582E43400F583E0D7
:100156009002CEF09003A9E0FFC4540F9002CFF0B6
:10016600EF540FA3F09003AAE0FFC4540F9002D1FE
:10017600F0EF540FA3F09003A9E09002D3F09003A0
:10018600AAE09002D4F09003ABE09002D5F0900282
:10019600CEE0FF64336042EF603FE49002CBF09024
:1001A60002FDE0FF9002CBE0C39F505C7B017A0228
:1001B60079CE9002CEE0FD90030EE4F0A3EDF09030
:1001C60003ABE0540F900310F09002FCE0FF122402
:1001D600AA9002CBE004F080C69003017401F0A35C
:1001E6007400F0A37456F07B017A0279CE1230497E
:1001F6007B017A0279CE9003ABE0540F900302F0B4
:100206007F92123C3A02092712556D7B017A0279D8
:10021600CE9003ABE0540F900302F07F91123C3A6C
:100226009003017401F0A37402F0A374CEF07B0175
:100236007A0079561246A81236D3124AAF7F5F1259
:1002460060F3020E65E49002CAF09002CAE0FFC3B2
:1002560094304003020E65EF75F020A4FDACF07BF0
:10026600017A0279D69003097420F07FA0124CFD22
:1002760012600BE49002C9F09002C9E0FFC394201B
:10028600400302043974D62FF582E43402F583E084
:1002960060030204309002CAE075F020A4FF9002C9
:1002A600C9E07C002FFFEC35F0FEEF7803C333CEB8
:1002B60033CED8F92400FDEE3407FC7B017A0279AF
:1002C600CE9003097408F07FA0124CFD12600B90CB
:1002D60002F7E06401602B9003A9E0FF9002D3E0EF
:1002E600B5071F9003AAE0FF9002D4E0B50713906C
:1002F60003ABE0C4540FFF9002D5E0FEC4540F6F69
:1003060060389002F7E0640160030204309003A9AC
:10031600E0FF9002D3E06F60030204309003AAE08E
:10032600FF9002D4E06F60030204309003ABE0FF5D
:100336009002D5E06F60030204309003ABE0FF90BB
:1003460002D5F09002CEE0C3943250279002F7E037
:10035600B4010CEF540F24AEF582E43402800D9004
:1003660003ABE0540F2446F582E43400F583E090B5
:1003760002CEF09002CEE0FF64336042EF603FE4CD
:100386009002CBF09002FDE0FF9002CBE0C39F50BD
:100396005C7B017A0279CE9002CEE0FD90030EE4FA
:1003A600F0A3EDF09003ABE0540F900310F0900231
:1003B600FCE0FF1224AA9002CBE004F080C67B0189
:1003C6007A0279CE9003ABE0540F900302F07F924D
:1003D600123C3A9003017401F0A37400F0A3745622
:1003E600F07B017A0279CE12304902092712556D47
:1003F6007B017A0279CE9003ABE0540F900302F0B2
:100406007F91123C3A9003017401F0A37402F0A3A9
:1004160074CEF07B017A0079561246A81236D312B2
:100426004AAF7F5F1260F3020B4A9002C9E004F004
:1004360002027E9002CAE004F0020250E4FF12615A
:100446009B9003ABE0FF54F060030207779003A98B
:10045600E0C4540FFE9002FBE0FDB50605C3940A06
:100466004011ED640A6003020777EEC3940A400365
:100476000207779002F7E0B4010CEF540F24AEF5B3
:1004860082E43402800D9003ABE0540F2446F582DB
:10049600E43400F583E09002CEF09003A9E0FFC4B7
:1004A600540F9002CFF0EF540FA3F09003AAE0FF91
:1004B600C4540F9002D1F0EF540FA3F09003A9E0BB
:1004C6009002D3F09003AAE09002D4F09003ABE040
:1004D6009002D5F09002F9E0640160030205F49001
:1004E60002CEE0FF64336042EF603FE49002CBF05F
:1004F6009002FDE0FF9002CBE0C39F505C7B017A47
:100506000279CE9002CEE0FD90030EE4F0A3EDF06A
:100516009003ABE0540F900310F09002FCE0FF1242
:1005260024AA9002CBE004F080C67B017A0279CE41
:100536009003ABE0540F900302F07F92123C3A9086
:1005460003017401F0A37400F0A37456F07B017AE2
:100556000279CE1230490209277B017A0279CE90C0
:1005660003ABE0540F900302F07F91123C3A9003E4
:10057600017401F0A37400F0A37456F07B017A02B3
:1005860079CE12353F9002FAE09002CBF09002CB82
:10059600E0FFD39401401AEF75F006A4244AF974DB
:1005A6000035F0FA7B01124FDF9002CBE014F080A9
:1005B600DCE49002CBF09002CBE0FFC3940650142B
:1005C60074562FF582E43400F583E4F09002CBE014
:1005D60004F080E29003017401F0A37402F0A374A6
:1005E600CEF07B017A0079561246A80209279002BE
:1005F600F9E064026003020E659002CEE0FF643308
:100606006003EF702F7B017A0279CE9003ABE05442
:100616000F900302F07F92123C3A9003017401F0AE
:10062600A37400F0A37456F07B017A0279CE1230DF
:1006360049020927E49002CCF09002FAE0FF90020A
:10064600CCE0FEC39F40030206FB75F006EEA42431
:1006560057F582E5F03400F583E0FF9002CFE0FE27
:10066600EF6E60030206F29002CCE0FF75F006A47E
:100676002458F582E5F03400F583E0FE9002D0E0E0
:10068600FDEE6D706775F006EFA42459F582E5F06E
:100696003400F583E0FF9002D1E0FEEF6E704D90DE
:1006A60002CCE075F006A4245AF582E5F03400F594
:1006B60083E0FF9002D2E0FEEFB506309002CCE078
:1006C600A3F075F006A42456F9740035F0FA7B0100
:1006D600C003900301EBF0A37402F0A374CEF0D034
:1006E600031246A81236D3124AAF80099002CCE014
:1006F60004F002063F9002FAE0FF9002CDE06F6040
:1007060003020E659002CCF09002FAE0FF9002CC54
:10071600E0FEC39F4003020E6575F006EEA4245664
:10072600F582E5F03400F583E0703E7B017A0279CC
:10073600CE9003ABE0540F900302F07F91123C3A47
:100746009002CCE075F006A42456F9740035F0FA50
:100756007B01C003900301EBF0A37402F0A374CEF7
:10076600F0D0031246A80209279002CCE004F080DC
:1007760097E49002CAF09002CAE0FFC394304003A7
:10078600020E65EF75F020A4FDACF07B017A0279CC
:10079600D69003097420F07FA0124CFD12600BE482
:1007A6009002C9F09002C9E0FFC394204003020BF7
:1007B6005974D62FF582E43402F583E06003020B08
:1007C600509002CAE075F020A4FF9002C9E07C00B8
:1007D6002FFFEC35F0FEEF7803C333CE33CED8F9D6
:1007E6002400FDEE3407FC7B017A0279CE900309E2
:1007F6007408F07FA0124CFD12600B9002F7E064C3
:1008060001602B9003A9E0FF9002D3E0B5071F908B
:1008160003AAE0FF9002D4E0B507139003ABE0C44F
:10082600540FFF9002D5E0FEC4540F6F603890025B
:10083600F7E064016003020B509003A9E0FF900209
:10084600D3E06F6003020B509003AAE0FF9002D43E
:10085600E06F6003020B509003ABE0FF9002D5E01F
:100866006F6003020B509003ABE0FF9002D5F0904F
:1008760002CEE0C3943250279002F7E0B4010CEFA9
:10088600540F24AEF582E43402800D9003ABE0549D
:100896000F2446F582E43400F583E09002CEF09012
:1008A60002F9E0640160030209C29002CEE0FF642F
:1008B600336042EF603FE49002CBF09002FDE0FF30
:1008C6009002CBE0C39F50627B017A0279CE900200
:1008D600CEE0FD90030EE4F0A3EDF09003ABE05400
:1008E6000F900310F09002FCE0FF1224AA9002CBB6
:1008F600E004F080C67B017A0279CE9003ABE05427
:100906000F900302F07F92123C3A9003017401F0BB
:10091600A37400F0A37456F07B017A0279CE1230EC
:10092600491236D3124AAF020E657B017A0279CE9E
:100936009003ABE0540F900302F07F91123C3A9083
:1009460003017401F0A37400F0A37456F07B017ADE
:100956000279CE12353F9002FAE09002CBF0900277
:10096600CBE0FFD39401401AEF75F006A4244AF9B0
:10097600740035F0FA7B01124FDF9002CBE014F0E1
:1009860080DCE49002CBF09002CBE0FFC3940650EB
:100996001474562FF582E43400F583E4F09002CB0C
:1009A600E004F080E29003017401F0A37402F0A366
:1009B60074CEF07B017A007956020B379002F9E08B
:1009C60064026003020B4A9002CEE0FF64336003C8
:1009D600EF70357B017A0279CE9003ABE0540F902D
:1009E6000302F07F92123C3A9003017401F0A37463
:1009F60000F0A37456F07B017A0279CE12304912C8
:100A060036D3124AAF020B59E49002CCF09002FAA8
:100A1600E0FF9002CCE0FEC39F4003020ACF75F0D0
:100A260006EEA42457F582E5F03400F583E0FF9046
:100A360002CFE0FEEF6E6003020AC69002CCE0FF32
:100A460075F006A42458F582E5F03400F583E0FE3F
:100A56009002D0E0FDEE6D706775F006EFA42459A4
:100A6600F582E5F03400F583E0FF9002D1E0FEEF79
:100A76006E704D9002CCE075F006A4245AF582E51E
:100A8600F03400F583E0FF9002D2E0FEEFB50630C9
:100A96009002CCE0A3F075F006A42456F974003554
:100AA600F0FA7B01C003900301EBF0A37402F0A3FC
:100AB60074CEF0D0031246A81236D3124AAF80097C
:100AC6009002CCE004F0020A139002FAE0FF9002D2
:100AD600CDE06F706F9002CCF09002FAE0FF9002CA
:100AE600CCE0FEC39F505D75F006EEA42456F58259
:100AF600E5F03400F583E070437B017A0279CE900D
:100B060003ABE0540F900302F07F91123C3A90023F
:100B1600CCE075F006A42456F9740035F0FA7B0192
:100B2600C003900301EBF0A37402F0A374CEF0D0DF
:100B3600031246A81236D3124AAF80089002CCE0C0
:100B460004F080951261CB020E659002C9E004F0B4
:100B56000207AA9002CAE004F002077C7F35126001
:100B6600F39003ABE0540F9003DDF0900333E09075
:100B760003DEF0900334E09003DFF0900335E0905D
:100B860003E0F0900336E09003E1F09003A9E090D3
:100B960003E2F09003AAE09003E3F09002F7E090FE
:100BA60003ABB40103E08003E054F09003E4F07B70
:100BB600017A0379DD1231FA4003020E6512600BE9
:100BC600900336E06409703D900335E06409702FA8
:100BD600900334E0B40922900333E004F0E4A3F078
:100BE600A3F0900333E0B4150AE4F090033604F062
:100BF600020E65900336020DDF900334020DE89075
:100C06000335020DF5900336020E007F391260F3AC
:100C16009003ABE0FE540F9003DDF090033BE090B1
:100C260003DEF090033CE09003DFF090033DE0909C
:100C360003E0F090033EE09003E1F09003A9E0901A
:100C460003E2F09003AAE09003E3F0EE54F0A3F081
:100C56007B017A0379DD122E8C4003020E65126049
:100C66000B90033EE06409703D90033DE06409701B
:100C76002F90033CE0B4092290033BE004F0E4A388
:100C8600F0A3F090033BE0B4150AE4F090033E04B1
:100C9600F0020E6590033E020DDF90033C020DE864
:100CA60090033D020DF590033E020E007F3D12605B
:100CB600F39003DD7434F0900344E09003DEF0908B
:100CC6000345E09003DFF0900346E09003E0F090E8
:100CD6000347E09003E1F09003A9E09003E2F0906F
:100CE60003AAE09003E3F09003ABE054F09003E432
:100CF600F07B017A0379DD122AFA4003020E6512AF
:100D0600600B900347E06409703D900346E0640978
:100D1600702F900345E0B40922900344E004F0E408
:100D2600A3F0A3F0900344E0B4150AE4F09003475F
:100D360004F0020E65900347020DDF900345020D95
:100D4600E8900346020DF5900347020E007F41121C
:100D560060F39003DD7433F090034EE09003DEF011
:100D660090034FE09003DFF0900350E09003E0F033
:100D7600900351E09003E1F09003A9E09003E2F0C4
:100D86009003AAE09003E3F09003ABE054F09003E5
:100D9600E4F07B017A0379DD122CC34003020E6571
:100DA60012600B900351E06409704C900350E064AC
:100DB60009703990034FE0B4092590034EE004F022
:100DC600E4A3F0A3F090034EE0B4150AE4F0900318
:100DD6005104F0020E659003517401F0020E659005
:100DE600034FE004F0E4A3F0A3F08073900350E017
:100DF60004F0E4A3F08068900351E004F08060E41E
:100E0600FF1261659003E57401F09002F7E0B4010A
:100E160024A3E0FF9003ABE0540F24AEF582E43444
:100E260002F583EFF07B017A0279AE900309741024
:100E3600F07D0080239002F8E0FF9003ABE0540FB2
:100E46002446F582E43400F583EFF07B017A0079DD
:100E5600469003097410F0FD7C3F7FA0124E71127C
:080E660061CB1242780238331F
:0561E9009003E5E0FF5A
:0161EE00228E
:0661EF009003E5EFF02231
:105D1000FFFFFFFFFFFFFFFFFFFFFFFFFFFFFFFF93
:105D2000FFFFFFFFFFFFFFFFFFFFFFFFFFFFFFFF83
:101EAC00602003660000000000000000000000003D
:101EBC000000000000000000000000000000000016
:0F1ECC0000000000480386000000000000000036
:03624F00DFFE224D
:105ED500AE07AF061EEF600C7FF512624F7FF5121D
:055EE500624F80EE2277
:105EBF00D2B400D2B50000000000C2B40000000050
:065ECF0000C2B500002234
:105FC800C2B400D2B50000000000D2B40000000046
:015FD80022A6
:10530C00E4FEEFA806088002C333D8FC30E704D2D1
:10531C00B48002C2B400D2B50000000000C2B50EC9
:10532C00EEB408DE0000D2B40000D2B500000030AC
:0C533C00B404C2018002D201C2B500001E
:015348002242
:1059A300E4FFD2B4FE00C2B50000000000D2B5008F
:1059B30000EF25E0FF30B4010F00000EEEB408E560
:0459C300C2B5000069
:0159C70022BD
:105FD900C2B4000000D2B50000000000C2B5000044
:015FE9002295
:105FEA00D2B4000000D2B50000000000C2B5000023
:015FFA002284
:104E53009002CDE075F020A42400FDE5F03406FCBB
:0E4E63007A0379667B017420900309F07FA02A
:104E7100125EBF12530C200102C322ECFF12530C2D
:104E8100200102C322AF0512530C200102C322E408
:104E9100FD900309E0FFEDC39F5016122802FF1297
:104EA100530C200102C322740129F9E43AFA0D805E
:054EB100E0125FC8D310
:014EB60022D9
:104CE700EF75F020A4FDACF07A03796674207B01A0
:064CF700900309F07FA00C
:054CFD00900303EFF03D
:104D0200125EBFE0FF12530C200102C322ECFF121D
:104D1200530C200102C322AF0512530C200102C31F
:104D220022125EBF900303E004FF12530C20010223
:104D3200C322E4FD900309E014FFEDC39F50141257
:104D420059A3EF122848125FD9740129F9E43AFAFB
:104D52000D80E11259A3EF122848125FEA125FC8D0
:014D6200D37D
:014D6300222D
:0B31FA009002FEEBF0A3EAF0A3E9F066
:10320500E4A3F0A3F0900301F0900301E0FFC39461
:103215003840030232EE124CE712600BE4900302D1
:10322500F0900302E0FFC3942040030232E5746688
:103235002FF582E43403F583E060030232DC90036A
:1032450001E075F020A4FFA3E07C002FFFEC35F032
:10325500FEEF7803C333CE33CED8F92400FDEE3428
:1032650007FC7A0379867408124CF512600B9002FC
:10327500FEE0FBA3E0FAA3E0F990000512281BFF8E
:1032850090038BE06F705090000612281BFF90038F
:103295008CE06F704290000712281BFF90038DE0B1
:1032A5006F7034900387E0900333F0900388E090CB
:1032B5000334F0900389E0900335F090038AE090A1
:1032C5000336F012615FBF010C7F7A7E00125460F5
:1032D500E4FF126165C322900302E004F002322686
:1032E500900301E004F002320EE4900301F0900334
:1032F50001E0FFC3942040030233A2124CE71260A1
:103305000BE4900302F0900302E0FFC39420400316
:1033150002339974662FF582E43403F583E0606B1C
:10332500900301E075F020A4FFA3E07C002FFFECE3
:1033350035F0FEEF7803C333CE33CED8F92400FD44
:10334500EE3407FC9002FEE0FBA3E0FAA3E0F9747B
:1033550008124E6B12600B900302E02466F582E4BE
:103365003403F583E4F0900301E075F020A4FDAC8F
:10337500F0124E6312600B12615FBF010C7F797E04
:1033850000125460E4FF126165D322900302E00449
:0E339500F002330B900301E004F00232F3C3A8
:0133A3002207
:0B2E8C009002FEEBF0A3EAF0A3E9F0D7
:102E9700E4A3F0A3F0900301F0900301E0FFC394D3
:102EA700384003022F88124CE712600BE4900302AC
:102EB700F0900302E0FFC394204003022F7F746663
:102EC7002FF582E43403F583E06003022F76900345
:102ED70001E075F020A4FFA3E07C002FFFEC35F0A4
:102EE700FEEF7803C333CE33CED8F92400FDEE349A
:102EF70007FC7B017A0379869003097408F07FA0A9
:102F0700124CFD12600B9002FEE0FBA3E0FAA3E077
:102F1700F990000512281BFF90038BE06F7050900B
:102F2700000612281BFF90038CE06F704290000789
:102F370012281BFF90038DE06F7034900387E09099
:102F4700033BF0900388E090033CF0900389E09006
:102F5700033DF090038AE090033EF012615FBF01EA
:102F67000C7F7A7E00125460E4FF126165C32290E1
:102F77000302E004F0022EB8900301E004F0022EF1
:102F8700A0E4900301F0900301E0FFC3940840031D
:102F9700023047EF75F020A42400FDE5F03406FC6D
:102FA700124CEF12600BE4900302F0900302E0FF73
:102FB700C39420400302303E74662FF582E4340345
:102FC700F583E06069900301E075F020A4FFA3E0BA
:102FD7007C002FFFEC35F0FEEF7803C333CE33CE02
:102FE700D8F92400FDEE3437FC9002FEE0FBA3E0A5
:102FF700FAA3E0F99003097408F07FA0124E71124A
:10300700600B900302E02466F582E43403F583E461
:10301700F0900301124E5612600B12615FBF010C54
:103027007F797E00125460E4FF126165D32290031A
:1030370002E004F0022FB2900301E004F0022F8DAA
:01304700C3C5
:013048002265
:0B2AFA009002FEEBF0A3EAF0A3E9F06D
:102B0500E4A3F0A3F0900301F0900301E0FFC39468
:102B1500384003022BF6124CE712600BE4900302D7
:102B2500F0900302E0FFC394204003022BED74668E
:102B35002FF582E43403F583E06003022BE4900370
:102B450001E075F020A4FFA3E07C002FFFEC35F039
:102B5500FEEF7803C333CE33CED8F92400FDEE342F
:102B650007FC7B017A0379869003097408F07FA03E
:102B7500124CFD12600B9002FEE0FBA3E0FAA3E00D
:102B8500F990000512281BFF90038BE06F705090A1
:102B9500000612281BFF90038CE06F70429000071F
:102BA50012281BFF90038DE06F7034900387E0902F
:102BB5000344F0900388E0900345F0900389E0908A
:102BC5000346F090038AE0900347F012615FBF016E
:102BD5000C7F7A7E00125460E4FF126165C3229077
:102BE5000302E004F0022B26900301E004F0022B1F
:102BF5000EE4900301F0900301E0FFC39408400345
:102C0500022CC1EF75F020A42400FDE5F03404FC8E
:102C1500124CEF12600BE4900302F0900302E0FF08
:102C2500C394204003022CB874662FF582E4340364
:102C3500F583E06075900301E075F020A4FFA3E043
:102C45007C002FFFEC35F0FEEF7803C333CE33CE97
:102C5500D8F92400FDEE3427FC9002FEE0FBA3E04A
:102C6500FAA3E0F99003097408F07FA0124E7112DF
:102C7500600B900302E02466F582E43403F583E4F7
:102C8500F0900301E075F020A42400FDE5F0340484
:102C9500124E6212600B12615FBF010C7F797E00DC
:102CA500125460E4FF126165D322900302E004F040
:0D2CB500022C20900301E004F0022BFBC371
:012CC20022EF
:0B2CC3009002FEEBF0A3EAF0A3E9F0A2
:102CCE00E4A3F0A3F0900301F0900301E0FFC3949E
:102CDE00384003022DBF124CE712600BE490030242
:102CEE00F0900302E0FFC394204003022DB67466F9
:102CFE002FF582E43403F583E06003022DAD9003DB
:102D0E0001E075F020A4FFA3E07C002FFFEC35F06E
:102D1E00FEEF7803C333CE33CED8F92400FDEE3464
:102D2E0007FC7B017A0379869003097408F07FA073
:102D3E00124CFD12600B9002FEE0FBA3E0FAA3E042
:102D4E00F990000512281BFF90038BE06F705090D6
:102D5E00000612281BFF90038CE06F704290000754
:102D6E0012281BFF90038DE06F7034900387E09064
:102D7E00034EF0900388E090034FF0900389E090AB
:102D8E000350F090038AE0900351F012615FBF018F
:102D9E000C7F7A7E00125460E4FF126165C32290AC
:102DAE000302E004F0022CEF900301E004F0022C89
:102DBE00D7E4900301F0900301E0FFC394084003B1
:102DCE00022E8AEF75F020A42400FDE5F03405FCF8
:102DDE00124CEF12600BE4900302F0900302E0FF3E
:102DEE00C394204003022E8174662FF582E43403CF
:102DFE00F583E06075900301E075F020A4FFA3E079
:102E0E007C002FFFEC35F0FEEF7803C333CE33CECC
:102E1E00D8F92400FDEE342FFC9002FEE0FBA3E077
:102E2E00FAA3E0F99003097408F07FA0124E711214
:102E3E00600B900302E02466F582E43403F583E42C
:102E4E00F0900301E075F020A42400FDE5F03405B8
:102E5E00124E6212600B12615FBF010C7F797E0011
:102E6E00125460E4FF126165D322900302E004F075
:0D2E7E00022DE9900301E004F0022DC4C311
:012E8B002224
:0B3ECA009002CAEBF0A3EAF0A3E9F0BD
:103ED500E4A3F0A3F09002CDF09002CDE0FFC394EF
:103EE500204003024008124CE712600BE49002CE1A
:103EF500F09002CEE0FFC394204003023FEE900213
:103F0500CAE0FBA3E0FAA3E0F912280270289000AA
:103F15000112281B702090000212281B70189000B7
:103F25000312281B701074662FF582E43403F583A1
:103F350074FFF0023FE59002CEE0FD2466F582E4D1
:103F45003403F583E06003023FE59002CDE075F0B0
:103F550020A47C002DFFEC35F0FEEF7803C333CEB3
:103F650033CED8F92400FDEE3407FC7B017A0379C2
:103F7500869003097408F07FA0124CFD12600B9027
:103F850002CAE0FBA3E0FAA3E0F9122802FF9003BE
:103F950087E06F704B90000112281BFF900388E0AB
:103FA5006F703D90000212281BFF900389E06F702F
:103FB5002F90000312281BFF90038AE0B50721907C
:103FC50002CEE02466F582E43403F58374FFF090B5
:103FD50002CDE075F020A4FDACF0124E6312600B2B
:103FE5009002CEE004F0023EF69002CDE075F0209E
:103FF500A4FDACF0124E6312600B9002CDE004F00C
:04400500023EDED3C6
:014009002294
:0B4141009002CAEBF0A3EAF0A3E9F043
:10414C00E4A3F0A3F09002CDF09002CDE0FFC39475
:10415C00084003024276EF75F020A42400FDE5F040
:10416C003406FC124CEF12600BE49002CEF090027D
:10417C00CEE0FFC3942040030242679002CAE0FBEA
:10418C00A3E0FAA3E0F9122802702890000112288B
:10419C001B702090000212281B701890000312282C
:1041AC001B701074662FF582E43403F58374FFF0F2
:1041BC0002425E9002CEE0FD2466F582E43403F503
:1041CC0083E0600302425E9002CDE075F020A47C97
:1041DC00002DFFEC35F0FEEF7803C333CE33CED891
:1041EC00F92400FDEE3437FC7B017A0379869003C9
:1041FC00097408F07FA0124CFD12600B9002CAE00B
:10420C00FBA3E0FAA3E0F9122802FF900387E06F0A
:10421C00704090000112281BFF900388E06F7032F1
:10422C0090000212281BFF900389E06F702490000D
:10423C000312281BFF90038AE06F70169002CEE0E9
:10424C002466F582E43403F58374FFF0124E5312A6
:10425C00600B9002CEE004F002417A124E531260D1
:0B426C000B9002CDE004F0024155D39E
:014277002224
:0B3990009002CAEBF0A3EAF0A3E9F0FC
:10399B00E4A3F0A3F09002CDF09002CDE0FFC3942E
:1039AB00084003023AE3EF75F020A42400FDE5F094
:1039BB003404FC124CEF12600BE49002CEF0900238
:1039CB00CEE0FFC394204003023AC59002CAE0FB4D
:1039DB00A3E0FAA3E0F91228027028900001122844
:1039EB001B702090000212281B70189000031228E5
:1039FB001B701074662FF582E43403F58374FFF0AB
:103A0B00023ABC9002CEE0FD2466F582E43403F565
:103A1B0083E06003023ABC9002CDE075F020A47CF9
:103A2B00002DFFEC35F0FEEF7803C333CE33CED849
:103A3B00F92400FDEE3427FC7B017A037986900391
:103A4B00097408F07FA0124CFD12600B9002CAE0C3
:103A5B00FBA3E0FAA3E0F9122802FF900387E06FC3
:103A6B00704F90000112281BFF900388E06F70418C
:103A7B0090000212281BFF900389E06F70339000B7
:103A8B000312281BFF90038AE06F70259002CEE093
:103A9B002466F582E43403F58374FFF09002CDE0E5
:103AAB0075F020A42400FDE5F03404124E62126080
:103ABB000B9002CEE004F00239C99002CDE075F014
:103ACB0020A42400FDE5F03404124E6212600B902A
:093ADB0002CDE004F00239A4D38D
:013AE40022BF
:0B3AE5009002CAEBF0A3EAF0A3E9F0A6
:103AF000E4A3F0A3F09002CDF09002CDE0FFC394D8
:103B0000084003023C38EF75F020A42400FDE5F0E6
:103B10003405FC124CEF12600BE49002CEF09002E0
:103B2000CEE0FFC394204003023C1A9002CAE0FB9F
:103B3000A3E0FAA3E0F912280270289000011228ED
:103B40001B702090000212281B701890000312288E
:103B50001B701074662FF582E43403F58374FFF054
:103B6000023C119002CEE0FD2466F582E43403F5B8
:103B700083E06003023C119002CDE075F020A47C4C
:103B8000002DFFEC35F0FEEF7803C333CE33CED8F3
:103B9000F92400FDEE342FFC7B017A037986900333
:103BA000097408F07FA0124CFD12600B9002CAE06D
