:0300000002432D8B
:0C432D00787FE4F6D8FD7581210243740E
:10420A005573617274496E697420436F6D706C6581
:10421A00746521200D0A00746D313632395F696E7A
:10422A00697420436F6D706C65746521200D0A00F6
:10423A00496E69745F54696D65723020436F6D70A1
:10424A006C65746521200D0A00496E69745F5469B2
:10425A006D65723120436F6D706C65746521200D38
:10426A000A006578696E74305F696E697420436FFD
:10427A006D706C65746521200D0A0044733133300A
:10428A00325F496E697420436F6D706C6574652185
:04429A00200D0A00E9
:1045E5001249EB7BFF7A42790A1246971247407BC4
:1045F500FF7A4279211246971252D87BFF7A427987
:104605003A1246971252F67BFF7A42795312469731
:104615001253C87BFF7A42796C12469712532B7B53
:10462500FF7A4279851246971252F675B10CE4F578
:09463500B2120C1A12004680F8C2
:10497D00535443313546324B363053320D0A55615F
:10498D007274205465737420210D0A005354433101
:10499D003546324B363053320D0A55617274322022
:0949AD005465737420210D0A0009
:0300230002000ECA
:0D000E00309802C298309904C299C209329C
:03004300025198CF
:10519800C0E0E59A30E003539AFEE59A30E1055302
:0751A8009AFDC209D0E032BC
:095336002009FDEFD209F59922CE
:104A1F00900465EBF0A3EAF0A3E9F0900465E0FBE6
:104A2F00A3E0FAA3E0F91227DF6017900465A3E46F
:104A3F0075F00112286BA9F0FA1227DFFF12533617
:034A4F0080D922E9
:09533F002009FDEFD209F59B22C3
:104A5200900000EBF0A3EAF0A3E9F0900000E0FB85
:104A6200A3E0FAA3E0F91227DF6017900000A3E4A5
:104A720075F00112286BA9F0FA1227DFFF12533FDB
:034A820080D922B6
:1049EB00E5A2543FF5A253BAFE759850759A5075CF
:1049FB00D7C875D6FE758E14438E01D2AC75AF0138
:104A0B00D2AF7BFF7A49797D124A1F7BFF7A4979B6
:044A1B0099024A5260
:0B469700900037EBF0A3EAF0A3E9F07D
:1046A2009000627401F0A37400F0A3743AF09000D9
:1046B20037E0F9A3E0FAA3E0900465C9F0A3EAF0B9
:1046C200A3E9F0900062E0F9A3E0FAA3E0900468A5
:1046D200C9F0A3EAF0A3E9F07B017A0079651248F8
:0A46E200337B017A007965024A1F5C
:101976006B65795F76616C206973202578202E0D62
:101986000A000000000000FF551E01020E0F00FFB6
:1019960000060203011500FF001E0304021900FFE2
:1019A60054830405031D00FF54880506041F00FF29
:1019B600548D0607052000FF54920708062100FFF4
:1019C60054970809072600FF549C090A082A00FFB5
:1019D60054A10A0B092C00FF54A60B0C0A2E00FF7B
:1019E60054AB0C0D0B2F00FF54B00D0E0C3000FF46
:1019F60054B50E010D3100FF54BA0F0F0F1001FF41
:101A06004AB51010101101FF4B8F1111111201FF71
:101A16004BB71212121301FF4F9B1313131401FF3E
:101A26004FBF1414140F01FF4BDF1516183502FFB4
:101A360052031617153902FF52151718163D02FFE5
:101A460052271815174102FF5239191A1C4503FF70
:101A5600524B1A1B194903FF525D1B1C1A4D03FFFB
:101A6600526F1C191B5103FF52811D1E1E5204FF8B
:101A760054BF1E1D1D5304FF54C41F1F1F1F05FF07
:101A860053482020202006FF53502122255407FFCB
:101A960054C92223215507FF54CE2324225607FF7B
:101AA60054D32425235707FF54D82521245807FF4C
:101AB60054DD2627295908FF54E22728265A08FF0D
:101AC60054E72829275B08FF54EC2926285C08FFE1
:101AD60054F12A2B2B5D09FF54F62B2A2A5E09FFA7
:101AE60054FB2C2D2D000AFF55002D2C2C000AFF2F
:101AF60055052E2E2E000BFF550A2F2F2F000CFFFB
:101B0600550F303030000DFF5514313131000EFFC6
:101B160055193232323515FF50D83333333215FF6B
:101B260000263434343315FF50FA3535353415FF75
:101B3600511C3636363916FF4C073737373616FFFF
:101B46004FE33838383716FF4C2F3939393816FFF6
:101B56004C573A3A3A3D17FF4C7F3B3B3B3A17FF0F
:101B660050063C3C3C3B17FF4CA73D3D3D3C17FF18
:101B76004CCF3E3E3E4118FF4CF73F3F3F3E18FFDD
:101B860050294040403F18FF4D1F4141414018FF3A
:101B96004D474242424519FF4D6F4343434219FFA9
:101BA600504C4444444319FF4D974545454419FF5D
:101BB6004DBF464646491AFF4DE7474747461AFF77
:101BC600506F484848471AFF4E0F494949481AFF7F
:101BD6004E374A4A4A4D1BFF4E5F4B4B4B4A1BFF43
:101BE60050924C4C4C4B1BFF4E874D4D4D4C1BFFA2
:101BF6004EAF4E4E4E511CFF4ED74F4F4F4E1CFF11
:101C060050B55050504F1CFF4EFF515151501CFFC4
:101C16004F27525252521DFF5358535353531EFFD0
:101C260053605454545421FF53685555555522FF5B
:101C360053705656565623FF53785757575724FF17
:101C460053805858585825FF53885959595926FFD3
:101C560053905A5A5A5A27FF53985B5B5B5B28FF8F
:101C660053A05C5C5C5C29FF53A85D5D5D5D2AFF4B
:101C760053B05E5E5E5E2BFF53B85F5F5F5F5FFFD4
:101C860054350000000000000000000000000000C5
:101C9600000000000000000000000000000000003E
:021CA60000003C
:101CA8004105F6004405FA00000001440602000060
:101CB800000144060B000000014406150000000165
:101CC8004405FE0000000144060700000001440628
:101CD800110000000144061A000000014106060137
:101CE8004106100C41060F004106190041061E006E
:101CF800410620014106230041062600410628002E
:101D080041061F0041062200410625004106270022
:101D180041062102410624004105F400410629003C
:041D28004105F5007C
:10417400E4900003F0A3F043901F53A007E590548C
:104184001F641F607C1252E8E590541F641F607125
:1041940012546543901F43A0F853A07FE590541F29
:1041A400641F605DE590541FFF900003E4F0A3EFEB
:1041B400F0E0F8E4F0E8900003F0E5A054F8FFA381
:1041C400E02FF0900003E03400F0E0B41E0DA3E013
:1041D400B478081254537F01125447E590541FFFDA
:1041E400BF1FF81252E8E590541FFFBF1FF8E4FF09
:1041F400125447E4FF12545F900003E0FEA3E0FF73
:05420400227E0F7FFF88
:014209002292
:10452500E4900001F0A3F0124174900001EEF0A3B5
:10453500EFF0F47003EE640F60187BFF7A1979765B
:10454500900001E0FFA3E090003ACFF0A3EFF01256
:104555004697900001E0FEA3E08EF01228A745776C
:104565001778457D1B78457A1D7845801E780000B3
:1045750045837F03227F02227F01227F00227FFF66
:014585002213
:100C1A00E4FF900000F0124525EF147003020D78EE
:100C2A001470030211E1147003020D5824036003C7
:100C3A000215E69005F6E0FF6003B45F1812544D02
:100C4A00900000EFF0C3941450030215E69005F6E5
:100C5A007401020D519005F6E0FF6442600FEF64E3
:100C6A0043600AEF64446005EF6445701912544DFD
:100C7A00900000EFF0C3940A403C7B017A0579FEAC
:100C8A00122E1F020D229005F6E0FF6446600FEF58
:100C9A006447600AEF64486005EF6449701A1254A9
:100CAA004D900000EFF0C3940A400B7B017A06795D
:100CBA00071228FA806280659005F6E0FF644A60B0
:100CCA000FEF644B600AEF644C6005EF644D701AD5
:100CDA0012544D900000EFF0C3940A400B7B017A46
:100CEA00067911122AB1803080339005F6E0FF644C
:100CFA004E600FEF644F600AEF64506005EF645175
:100D0A00702E12544D900000EFF0C3940A400E7BEF
:100D1A00017A06791A122C681252E8802B9005F68D
:100D2A00E075F008A4248BF582E5F034190215DE8B
:100D3A009005F6E075F008A4248BF582E5F03419E5
:100D4A00F583E4939005F6F01254530215E69005E4
:100D5A00F6E0B45F061244360215E69005F6E07531
:100D6A00F008A4248CF582E5F034190215DE90050A
:100D7A00F6E01228810E250F0E37100E47110E5776
:100D8A00120E67130E791410EA1F10FC200E8B3214
:100D9A000E9D330EAF340EC1350ED3360EE5370E27
:100DAA00F7380F09390F1B3A0F2D3B0F3F3C0F51F4
:100DBA003D0F633E0F753F0F87400F99410FAB42BE
:100DCA000FBD430FCF440FE1450FF34610054710FF
:100DDA001748102949103B4A104D4B105F4C1071AF
:100DEA004D10834E10954F10A75010B95110CA528A
:100DFA0010DA53110E541120551130561143571160
:100E0A00545811645911745A11845B11945C11A4D9
:100E1A005D11B85E11CB5F000011CE900699E0B467
:100E2A006305E4F00211CE9006990211C690069A63
:100E3A00E0B40C030210E190069A0211C690069BD8
:100E4A00E0B41F030210E190069B0211C690069FB0
:100E5A00E0B407030210E190069F0211C690069CB7
:100E6A00E0B41705E4F00211CE90069C0211C69078
:100E7A00069DE0B43B05E4F00211CE90069D0211F6
:100E8A00C69005FAE0B41405E4F00211CE9005FA12
:100E9A000211C69005FBE0B40905E4F00211CE90F8
:100EAA0005FB0211C69005FCE0B40905E4F0021145
:100EBA00CE9005FC0211C69005FDE0B40905E4F0E8
:100ECA000211CE9005FD0211C6900602E0B4140587
:100EDA00E4F00211CE9006020211C6900603E0B4B5
:100EEA000905E4F00211CE9006030211C690060429
:100EFA00E0B40905E4F00211CE9006040211C6908E
:100F0A000605E0B40905E4F00211CE9006050211C7
:100F1A00C690060BE0B41405E4F00211CE90060B5D
:100F2A000211C690060CE0B40905E4F00211CE9055
:100F3A00060C0211C690060DE0B40905E4F0021190
:100F4A00CE90060D0211C690060EE0B40905E4F033
:100F5A000211CE90060E0211C6900615E0B41405D1
:100F6A00E4F00211CE9006150211C6900616E0B4FE
:100F7A000905E4F00211CE9006160211C690061772
:100F8A00E0B40905E4F00211CE9006170211C690EA
:100F9A000618E0B40905E4F00211CE900618021111
:100FAA00C69005FEE0B41405E4F00211CE9005FEE9
:100FBA000211C69005FFE0B40905E4F00211CE90D3
:100FCA0005FF0211C6900600E0B40905E4F002111B
:100FDA00CE9006000211C6900601E0B40905E4F0BD
:100FEA000211CE9006010211C6900607E0B414055C
:100FFA00E4F00211CE9006070211C6900608E0B48A
:10100A000905E4F00211CE9006080211C6900609FD
:10101A00E0B40905E4F00211CE9006090211C69067
:10102A00060AE0B40905E4F00211CE90060A02119C
:10103A00C6900611E0B41405E4F00211CE90061130
:10104A000211C6900612E0B40905E4F00211CE902E
:10105A0006120211C6900613E0B40905E4F0021163
:10106A00CE9006130211C6900614E0B40905E4F006
:10107A000211CE9006140211C690061AE0B41405A5
:10108A00E4F00211CE90061A0211C690061BE0B4D3
:10109A000905E4F00211CE90061B0211C690061C47
:1010AA00E0B40905E4F00211CE90061C0211C690C4
:1010BA00061DE0B40904E4F0800690061DE004F081
:1010CA00900606E0B401030211AB9006060211B3C2
:1010DA00900610E0B414030211B39006100211C670
:1010EA0090060FE0B46305E4F00211CE90060F02F9
:1010FA0011C6900619E0B46305E4F00211CE900619
:10110A00190211C690061EE0B40505E4F00211CEDC
:10111A0090061E0211C6900620E0B409030211B31C
:10112A009006200211C6900623E0700504F0021111
:10113A00CEE4900623F00211CE900626E0B409050B
:10114A00E4F00211CE9006268072900628E0B407D9
:10115A0004E4F0806F900628806290061FE0B40BCA
:10116A0004E4F0805F90061F8052900622E0B40BE0
:10117A0004E4F0804F9006228042900625E0B40BEA
:10118A0004E4F0803F9006258032900627E0B40BF5
:10119A0004E4F0802F9006278022900621E0B40113
:1011AA00057402F0801E9006217401F080169006E4
:1011BA0024E0B43204E4F0800B900624E004F080CA
:1011CA0003123CEA9005F6E075F008A42489F5823A
:1011DA00E5F034190215DE9005F6E0122881128E28
:1011EA000F129D1012B01112C31212D31312E5146A
:1011FA0014F91F15072012F7321306331315341387
:10120A002435133336134237135138136039136FA9
:10121A003A137E3B138D3C139C3D13AB3E13BA3FEE
:10122A0013C94013D84113E74213F6431405441473
:10123A001445142346143247144148145049145F84
:10124A004A146E4B147D4C148C4D149B4E14A94FAA
:10125A0014B85014C75114D65214E653151954151C
:10126A002B55153A56154D57155D58156D59157A62
:10127A005A15875B15945C15A45D15B85E15CB5F8E
:10128A00000015CE900699E0700302150D9006999C
:10129A000215C690069AE0B40106740CF00215CE47
:1012AA0090069A0215C690069BE0B40106741FF0D8
:1012BA000215CE90069B0215C690069FE0B4010364
:1012CA0002156390069F0215C690069CE07006748C
:1012DA0017F00215CE90069C0215C690069DE07086
:1012EA0006743BF00215CE90069D0215C69005FACB
:1012FA00E070030214ED9005FA0215C69005FBE0B2
:10130A0070030215539005FB0215C69005FCE070A8
:10131A00030215539005FC0215C69005FDE0700303
:10132A000215539005FD0215C6900602E0700302ED
:10133A0014ED9006020215C6900603E0700302152A
:10134A00539006030215C6900604E0700302155373
:10135A009006040215C6900605E070030215539024
:10136A0006050215C690060BE070030214ED9006FE
:10137A000B0215C690060CE0700302155390060C7A
:10138A000215C690060DE0700302155390060D0271
:10139A0015C690060EE0700302155390060E02154C
:1013AA00C6900615E070030214ED9006150215C6E4
:1013BA00900616E070030215539006160215C690A1
:1013CA000617E070030215539006170215C6900619
:1013DA0018E070030215539006180215C69005FE10
:1013EA00E070030214ED9005FE0215C69005FFE0B9
:1013FA0070030215539005FF0215C6900600E070AF
:10140A00030215539006000215C6900601E0700308
:10141A000215539006010215C6900607E0700302F2
:10142A0014ED9006070215C6900608E0700302152F
:10143A00539006080215C6900609E0700302155378
:10144A009006090215C690060AE070030215539029
:10145A00060A0215C6900611E070030214ED900602
:10146A00110215C6900612E0700302155390061277
:10147A000215C6900613E070030215539006130274
:10148A0015C6900614E0700302155390061402154F
:10149A00C690061AE07002804A90061A0215C69093
:1014AA00061BE0700302155390061B0215C6900630
:1014BA001CE0700302155390061C0215C690061D07
:1014CA00E0700302155390061D0215C6900606E049
:1014DA00B401030215AB9006060215B3900610E09C
:1014EA00B401067414F00215CE9006100215C690C7
:1014FA00060FE07002800C90060F0215C6900619BE
:10150A00E070067463F00215CE9006190215C690B3
:10151A00061EE070067405F00215CE90061E02152E
:10152A00C6900620E0B40102801F9006200215C66C
:10153A00900623E0700504F00215CEE4900623F02D
:10154A000215CE900626E070057409F080769006A2
:10155A00268069900628E070057407F08066900678
:10156A0028805990061FE07002802590061F804C43
:10157A00900622E070028018900622803F9006258D
:10158A00E07002800B9006258032900627E07005F5
:10159A00740BF0802F9006278022900621E0B40178
:1015AA00057402F0801E9006217401F080169006E0
:1015BA0024E070057432F0800B900624E014F08069
:1015CA0003123B2A9005F6E075F008A4248AF582F6
:1015DA00E5F03419F583E4939005F6F09005F6E00A
:1015EA0075F008A4248DF582E5F03419F583E493A7
:1015FA00FB740193FA740293F99005F7EBF0A3EAEE
:07160A00F0A3E9F00228D46F
:0D52E8007F047E347DDCDDFEDEFADFF600A3
:0152F5002296
:0553CF009005F6E0FF6F
:0153D40022B6
:0653D5009005F6EFF02246
:0553DB00900606E0FF52
:0153E00022AA
:0553E100900610E0FF42
:0153E60022A4
:0553E70090060FE0FF3D
:0153EC00229E
:0553ED00900619E0FF2D
:0153F2002298
:0553F30090061EE0FF22
:0153F8002292
:0553F900900620E0FF1A
:0153FE00228C
:0553FF00900623E0FF11
:015404002285
:05540500900626E0FF07
:01540A00227F
:05540B00900628E0FFFF
:015410002279
:0554110090061FE0FF02
:015416002273
:05541700900622E0FFF9
:01541C00226D
:05541D00900625E0FFF0
:015422002267
:05542300900627E0FFE8
:015428002261
:05542900900621E0FFE8
:01542E00225B
:05542F00900624E0FFDF
:015434002255
:10529300000000000000000000000000000000000B
:0252A300000009
:101D2C005504C53F065B4F666D7D077F6F777C3929
:101D3C005E797176385C733E4805EA01020408103E
:101D4C002040804205F24000603004950000000005
:101D5C000000000000000000000000000000000077
:101D6C000000000000000000000000000000000067
:101D7C0000000000000000000000000060F004EA19
:101D8C000000000000000000000000000000000047
:101D9C000000000000000000000000000000000037
:101DAC000000000000000000000000000000000027
:101DBC000000000000000000000000000000000017
:101DCC000000000000000000000000000000000007
:101DDC0000000000000000000000000000000000F7
:101DEC0000000000000000000000000000000000E7
:101DFC0000000000000000000000000000000000D7
:101E0C0000000000000000000000000000000000C6
:101E1C0000000000000000000000000000000000B6
:101E2C0000000000000000000000000000000000A6
:101E3C000000000000000000000000000000000096
:101E4C000000000000000000000000000000000086
:101E5C000000000000000000000000000000000076
:101E6C000000000000000000000000000000000066
:101E7C00410494005005DA01010101010101010145
:101E8C00010101010101015004DA0101010101010B
:0A1E9C000101010101010101010132
:104AE500C282E4FDFCC280EF30E004D2818002C2C4
:104AF5008100000000D280EFC313FF0DBD00010C43
:0A4B0500ED64084C70DFC280C2812D
:014B0F002283
:104B1000C283E4FDFCC280EF30E004D2818002C297
:104B20008100000000D280EFC313FF0DBD00010C17
:0A4B3000ED64084C70DFC280C28102
:014B3A002258
:104B3B00C2CCE4FDFCC280EF30E004D2818002C223
:104B4B008100000000D280EFC313FF0DBD00010CEC
:0A4B5B00ED64084C70DFC280C281D7
:014B6500222D
:0D530400D282000000000000C282024AE5D3
:0D531100D283000000000000C283024B1098
:0D531E00D2CC000000000000C2CC024B3BCE
:05401A00E4900497F0A2
:10401F0012540BAE077F401253047FC0125304E4B7
:10402F00FB74952BF582E43404F583E0FF124AE527
:10403F00749D2BF582E43404F583E0FF124AE50BFF
:10404F00EBB408DDEE2488FF125304D2827F4012B6
:10405F0053117FC0125311E4FB74A52BF582E43486
:10406F0004F583E0FF124B1074AD2BF582E434049A
:10407F00F583E0FF124B100BEBB408DDEE2488FF45
:10408F00125311D2837F4012531E7FC012531EE46E
:10409F00FB74B52BF582E43404F583E0FF124B3B40
:1040AF0074BD2BF582E43404F583E0FF124B3B0B18
:0D40BF00EBB408DDEE2488FF12531ED2CCB6
:0140CC0022D1
:10474000E4900000F0E4FFE4FE900000E024EAF5CD
:1047500082E43405F583E0FDEF75F008A42495F5B7
:1047600082E43404F583E5822EF582E43583F58313
:10477000EDF00EEEB408D20FEFB406CB12401F7F5F
:104780001E1251F1900000E004F0E0C3940840B51F
:014790002206
:1051F100EFD39400400B7EFF7DFFDDFEDEFA1F80C2
:01520100EFBD
:015202002289
:104B6600E4FFE4FEEF75F008A42495F582E434042E
:104B7600F583E5822EF582E43583F583E4F00EEEC7
:084B8600B408E10FEFB406DAF8
:014B8E002204
:1049B600E4FF12543BEF6401702A124B6690049494
:1049C600E05403FF2495F582E43404F5837440F043
:1049D60012401FE4FF125441900494E004F0E0B446
:0449E6000402E4F0F3
:0149EA0022AA
:10391100124B661244AE9004C7E09004A4F09004E8
:10392100C5E09004A3F0900699E0FF75F00A8424A5
:10393100C5F582E43404F583E09004A2F0EF75F05C
:103941000A8474C525F0F582E43404F583E090041B
:10395100A1F09004A07440F090069AE0FF75F00A7F
:103961008424C5F582E43404F583E090049FF0EFEC
:1039710075F00A8474C525F0F582E43404F583E01A
:1039810090049EF090049D7440F090069BE0FF75BA
:10399100F00A8424C5F582E43404F583E090049CA4
:1039A100F0EF75F00A8474C525F0F582E43404F56E
:1039B10083E090049BF090069FE024C5F582E434F7
:1039C10004F583E090049AF090069CE0FF75F00AFC
:1039D1008424C5F582E43404F583E0900498F0EF83
:1039E10075F00A8474C525F0F582E43404F583E0AA
:1039F100900497F090069DE0FF75F00A8424C5F5C8
:103A010082E43404F583E0900496F0EF75F00A84C3
:103A110074C525F0F582E43404F583E0900495F053
:033A210002401F41
:10513E00AD07124B669004D4E0900496F074C52D22
:0F514E00F582E43404F583E0900495F002401FED
:10515D00AD07124B669004D3E0900496F074C52D04
:0F516D00F582E43404F583E0900495F002401FCE
:1051AF00AD07124B6674C52DF582E43404F583E028
:0751BF00900495F002401F6F
:104A8500AD07124B66ED75F00A8424C5F582E43452
:104A950004F583E0900496F0ED75F00A8474C5255D
:104AA500F0F582E43404F583E0900495F002401FAC
:06463E007B017A0579FA08
:10464400124B661227DF24C5F582E43404F583E0B7
:10465400900498F09000011227F824C5F582E43400
:1046640004F583E0900497F09000021227F824C523
:10467400F582E43404F583E0900496F0900003128C
:1046840027F824C5F582E43404F583E0900495F01A
:0346940002401FC2
:1037B100124B6690052CE0601790003F7401F0A356
:1037C1007405F0A3742CF07B017A0479C4123F5C78
:1037D100900526E0601790003F7401F0A37405F096
:1037E100A37426F07B017A0479C0123F5C90052016
:1037F100E0601790003F7401F0A37405F0A37420FA
:10380100F07B017A0479BC123F5C90051AE06017E5
:1038110090003F7401F0A37405F0A3741AF07B01CA
:103821007A0479B8123F5C900514E0601790003F6C
:103831007401F0A37405F0A37414F07B017A047988
:10384100B4123F5C90050EE0601790003F7401F0E8
:10385100A37405F0A3740EF07B017A0479B0123FD2
:103861005C900508E0601790003F7401F0A37405B7
:10387100F0A37408F07B017A0479AC123F5C9005E7
:1038810002E0601790003F7401F0A37405F0A37487
:1038910002F07B017A0479A8123F5C9004FCE0609D
:1038A1001790003F7401F0A37404F0A374FCF07B43
:1038B100017A0479A4123F5C9004F6E0601790004D
:1038C1003F7401F0A37404F0A374F6F07B017A0451
:1038D10079A0123F5C9004F0E0601790003F740102
:1038E100F0A37404F0A374F0F07B017A04799C12C4
:1038F1003F5C9004EAE0601790003F7401F0A3740C
:1039010004F0A374EAF07B017A047998123F5C22F7
:103F5C0090003CEBF0A3EAF0A3E9F0A3E0FBA3E0B4
:103F6C00FAA3E0F99000011227F824C5F582E43495
:103F7C0004F583E0FF90003CE0FBA3E0FAA3E0F93A
:103F8C00EF12282590003FE0FBA3E0FAA3E0F990A4
:103F9C0000021227F824C5F582E43404F583E0FF0F
:103FAC0090003CE0FBA3E0FAA3E0F990FFFFEF12D6
:103FBC00283790003FE0FBA3E0FAA3E0F990000360
:103FCC001227F824C5F582E43404F583E0FF900051
:103FDC003CE0FBA3E0FAA3E0F990FFFEEF122837D8
:103FEC0090003FE0FBA3E0FAA3E0F9900004122755
:103FFC00F824C5F582E43404F583E0FF90003CE03E
:0E400C00FBA3E0FAA3E0F990FFFDEF022837D6
:103C0F00900032EBF0A3EAF0A3E9F0A3E0FBA3E00E
:103C1F00FAA3E0F91227DFFF900032E0FBA3E0FAEE
:103C2F00A3E0F9EF122825900035E0FBA3E0FAA3FB
:103C3F00E0F99000011227F8FF900032E0FBA3E0BB
:103C4F00FAA3E0F9900001EF122837900035E0FB5E
:103C5F00A3E0FAA3E0F99000021227F8FF900032D8
:103C6F00E0FBA3E0FAA3E0F9900002EF12283790EF
:103C7F000035E0FBA3E0FAA3E0F99000031227F868
:103C8F00FF900032E0FBA3E0FAA3E0F9900003EF0E
:103C9F00122837900035E0FBA3E0FAA3E0F990007B
:103CAF00041227F8FF900032E0FBA3E0FAA3E0F93B
:103CBF00900004EF122837900035E0FBA3E0FAA341
:103CCF00E0F99000051227F8FF900032E0FBA3E027
:0B3CDF00FAA3E0F9900005EF0228377F
:10487D001227DF9000061228379000011227F890BA
:10488D0000071228379000021227F890000812280E
:10489D00379000031227F890000912283790000472
:1048AD001227F890000A1228379000051227F89069
:0548BD00000B0228378A
:0F46EC00EE75F006A424EAF9740435F0FA7B01A8
:1046FB009000061227F81228259000071227F89031
:10470B0000011228379000081227F8900002122897
:10471B00379000091227F890000312283790000AEF
:10472B001227F890000412283790000B1227F890EC
:05473B00000502283713
:103A240078367C007D017BFF7A5279937E007F0695
:103A34001227B91253ED900034EFF01253E79000BF
:103A440035EFF0125459900035E0FE900034E0FD5B
:103A5400C39E4003023B29EF9D5003023B29E070C3
:103A640003023B29E4900032F0900032E0FFC3945B
:103A74000A5021EF75F006A424EAF582E43404F533
:103A840083E07008900032E0A3F08008900032E0F8
:103A940004F080D5E4900032F0900032E0FF24EA94
:103AA400F582E43404F583E0FE74362FF582E434C1
:103AB40000F583EEF0900032E004F0E0B406DAE4BE
:103AC400900032F0900033E0FF900032E0FEC39F9C
:103AD400500B1246EC900032E004F080E7E49000D2
:103AE40032F0900032E0FF2436F582E43400F583AE
:103AF400E0FE900033E075F006A42FF582E435F083
:103B0400F583E58224E4F582E5833404F583EEF05D
:103B1400900032E004F0E0B406C81237B112401F3E
:053B2400E4FF12545FF4
:013B29002279
:1040CD001253ED900033EFF01253E7900034EFF000
:1040DD00125459900035EFF01253E1900036EFF085
:1040ED00900033E0FFA3E0FEC39F507AA3E09E4013
:1040FD0075900034E0606FE4900032F0900036E08F
:10410D0014FF900032E0FEC39F500B1246EC90005E
:10411D0032E004F080E6900036E01475F006A490CD
:10412D000032F0900036E075F006A4FF900032E00A
:10413D00FDC39FE5F06480F8748098501474EA2DE7
:10414D00F582E43404F583E4F0900032E004F0806D
:10415D00D21237B112401FE4FF12545F9004EAE00F
:06416D007004FF1253D59F
:014173002229
:10443600E4900002F01253E1900002EFF0E49000E5
:1044460001F0900002E014FF900001E0FEC39F50CF
:104456000B1246EC900001E004F080E6900002E0CA
:104466001475F006A4900001F0900002E075F006C5
:10447600A4FF900001E0FDC39FE5F06480F874801E
:1044860098501474EA2DF582E43404F583E4F09030
:104496000001E004F080D21237B112401F9004EA06
:0744A600E07004FF1253D582
:0144AD0022EC
:103CEA0078037C007D017BFF7A5279997E007F06FA
:103CFA001227B91253E1900002EFF01253E1E49057
:103D0A000001F0900001E0FEC39F5020EE75F0061E
:103D1A00A424EAF582E43404F583E07007900002F3
:103D2A00EEF08008900001E004F080D7E4900001F2
:103D3A00F0900001E0FF24EAF582E43404F583E020
:103D4A00FE74032FF582E43400F583EEF09000014F
:103D5A00E004F0E0B406DAE4900001F0900002E03A
:103D6A00FF900001E0FEC39F500B1246EC90000149
:103D7A00E004F080E7E4900001F0900001E0FF2405
:103D8A0003F582E43400F583E0FE900002E075F06A
:103D9A0006A42FF582E435F0F583E58224E4F58262
:103DAA00E5833404F583EEF0900001E004F0E0B41A
:083DBA0006C81237B102401FD8
:103B2A0078037C007D017BFF7A52799F7E007F06B5
:103B3A001227B91253E1900002EFF01253E1E49018
:103B4A000001F0900001E0FEC39F5020EE75F006E0
:103B5A00A424EAF582E43404F583E07007900002B5
:103B6A00EEF08008900001E004F080D7E4900001B4
:103B7A00F0900001E0FFA3E075F006A42FF582E4BF
:103B8A0035F0F583E58224E4F582E5833404F58390
:103B9A00E0FE74032FF582E43400F583EEF0900022
:103BAA0001E004F0E0B406C9900002E0900001F0E0
:103BBA00900001E0FFD39401401AEF75F006A424A7
:103BCA00DEF9740435F0FA7B0112487D900001E0B9
:103BDA0014F080DCE4900001F0900001E0FF24037F
:103BEA00F582E43400F583E0FE74EA2FF582E434CA
:103BFA0004F583EEF0900001E004F0E0B406DA1276
:053C0A0037B102401F6C
:03551E000239113E
:05000600E4FF02513E81
:05001E007F0102513ECC
:055483007F0202513E12
:055488007F0302513E0C
:05548D007F0402513E06
:055492007F0502513E00
:055497007F0602513EFA
:05549C007F0702513EF4
:0554A1007F0802513EEE
:0554A6007F0902513EE8
:0554AB007F0A02513EE2
:0554B0007F0B02513EDC
:0554B5007F0C02513ED6
:0554BA007F0D02513ED0
:104AB50012543BBF01081239117F0212544112549E
:104AC5003BBF0319E49004A4F09004A3F09004A262
:104AD500F09004A1F012401FE4FF12544102429EDF
:104B8F0012543BBF01081239117F021254411254C3
:104B9F003BBF0311E490049FF090049EF012401F5E
:084BAF00E4FF12544102429E92
:104BB70012543BBF01081239117F0212544112549B
:104BC7003BBF0311E490049CF090049BF012401F3C
:084BD700E4FF12544102429E6A
:104F9B0012543BBF01081239117F021254411254B3
:104FAB003BBF030DE490049AF012401FE4FF125430
:044FBB004102429ECF
:104FBF0012543BBF01081239117F0212544112548F
:104FCF003BBF030DE4900498F012401BE4FF125412
:044FDF004102429EAB
:104BDF0012543BBF01081239117F02125441125473
:104BEF003BBF0311E4900496F0900495F012401F20
:084BFF00E4FF12544102429E42
:105203007F0112515DE49005FAF0A3F0A3F0A3042B
:02521300F02287
:105215007F0212515DE4900602F0A3F0A3F0A3040F
:02522500F02275
:105227007F0312515DE490060BF0A3F0A3F0A304F3
:02523700F02263
:105239007F0412515DE4900615F0A3F0A3F0A304D6
:02524900F02251
:10524B007F0112515DE49005FEF0A3F0A3F0A304DF
:02525B00F0223F
:10525D007F0212515DE4900607F0A3F0A3F0A304C2
:02526D00F0222D
:10526F007F0312515DE4900611F0A3F0A3F0A304A5
:02527F00F0221B
:105281007F0412515DE490061AF0A3F0A3F0A30489
:02529100F02209
:0554BF007F0102515DB8
:0554C4007F0202515DB2
:08534800E4FF1253E7024A855D
:08535000E4FF1253ED024A854F
:0554C9007F0102515DAE
:0554CE007F0202515DA8
:0554D3007F0302515DA2
:0554D8007F0402515D9C
:0554DD007F0502515D96
:0554E2007F0102515D95
:0554E7007F0202515D8F
:0554EC007F0302515D89
:0554F1007F0402515D83
:0554F6007F0102515D81
:0554FB007F0202515D7B
:055500007F0102515D76
:055505007F0202515D70
:05550A007F0F02513E7D
:05550F007F0F02513E78
:055514007F0F02513E73
:055519007F0F02513E6E
:1050D80012543BBF010812463E7F0212544112543B
:1050E8003BBF030DE4900498F012401FE4FF1254F4
:0250F800412253
:1000260012543BBF010812463E7F0212544112543D
:0D0036003BBF030812401AE4FF12544122A0
:1050FA0012543BBF010812463E7F02125441125419
:10510A003BBF030DE4900496F012401FE4FF1254D3
:02511A00412230
:10511C0012543BBF010812463E7F021254411254F6
:10512C003BBF030DE4900495F012401FE4FF1254B2
:02513C0041220E
:104C070012543BBF010E7B017A0679021246447F9C
:104C17000212544112543BBF030DE4900498F01262
:084C2700401FE4FF125441227A
:104FE30012543BBF010E7B017A0679021246447FBD
:104FF3000212544112543BBF030812401AE4FF1239
:03500300544122F3
:104C2F0012543BBF010E7B017A0679021246447F74
:104C3F000212544112543BBF030DE4900496F0123C
:084C4F00401FE4FF1254412252
:104C570012543BBF010E7B017A0679021246447F4C
:104C67000212544112543BBF030DE4900495F01215
:084C7700401FE4FF125441222A
:104C7F0012543BBF010E7B017A06790B1246447F1B
:104C8F000212544112543BBF030DE4900498F012EA
:084C9F00401FE4FF1254412202
:1050060012543BBF010E7B017A06790B1246447F90
:105016000212544112543BBF030812401AE4FF1215
:03502600544122D0
:104CA70012543BBF010E7B017A06790B1246447FF3
:104CB7000212544112543BBF030DE4900496F012C4
:084CC700401FE4FF12544122DA
:104CCF0012543BBF010E7B017A06790B1246447FCB
:104CDF000212544112543BBF030DE4900495F0129D
:084CEF00401FE4FF12544122B2
:104CF70012543BBF010E7B017A0679151246447F99
:104D07000212544112543BBF030DE4900498F01271
:084D1700401FE4FF1254412289
:1050290012543BBF010E7B017A0679151246447F63
:105039000212544112543BBF030812401AE4FF12F2
:03504900544122AD
:104D1F0012543BBF010E7B017A0679151246447F70
:104D2F000212544112543BBF030DE4900496F0124B
:084D3F00401FE4FF1254412261
:104D470012543BBF010E7B017A0679151246447F48
:104D57000212544112543BBF030DE4900495F01224
:084D6700401FE4FF1254412239
:104D6F0012543BBF010E7B017A0579FE1246447F38
:104D7F000212544112543BBF030DE4900498F012F9
:084D8F00401FE4FF1254412211
:10504C0012543BBF010E7B017A0579FE1246447F58
:10505C000212544112543BBF030812401AE4FF12CF
:03506C005441228A
:104D970012543BBF010E7B017A0579FE1246447F10
:104DA7000212544112543BBF030DE4900496F012D3
:084DB700401FE4FF12544122E9
:104DBF0012543BBF010E7B017A0579FE1246447FE8
:104DCF000212544112543BBF030DE4900495F012AC
:084DDF00401FE4FF12544122C1
:104DE70012543BBF010E7B017A0679071246447FB6
:104DF7000212544112543BBF030DE4900498F01281
:084E0700401FE4FF1254412298
:10506F0012543BBF010E7B017A0679071246447F2B
:10507F000212544112543BBF030812401AE4FF12AC
:03508F0054412267
:104E0F0012543BBF010E7B017A0679071246447F8D
:104E1F000212544112543BBF030DE4900496F0125A
:084E2F00401FE4FF1254412270
:104E370012543BBF010E7B017A0679071246447F65
:104E47000212544112543BBF030DE4900495F01233
:084E5700401FE4FF1254412248
:104E5F0012543BBF010E7B017A0679111246447F33
:104E6F000212544112543BBF030DE4900498F01208
:084E7F00401FE4FF1254412220
:1050920012543BBF010E7B017A0679111246447FFE
:1050A2000212544112543BBF030812401AE4FF1289
:0350B20054412244
:104E870012543BBF010E7B017A0679111246447F0B
:104E97000212544112543BBF030DE4900496F012E2
:084EA700401FE4FF12544122F8
:104EAF0012543BBF010E7B017A0679111246447FE3
:104EBF000212544112543BBF030DE4900495F012BB
:084ECF00401FE4FF12544122D0
:104ED70012543BBF010E7B017A06791A1246447FB2
:104EE7000212544112543BBF030DE4900498F01290
:084EF700401FE4FF12544122A8
:1050B50012543BBF010E7B017A06791A1246447FD2
:1050C5000212544112543BBF030812401AE4FF1266
:0350D50054412221
:104EFF0012543BBF010E7B017A06791A1246447F8A
:104F0F000212544112543BBF030DE4900496F01269
:084F1F00401FE4FF125441227F
:104F270012543BBF010E7B017A06791A1246447F61
:104F37000212544112543BBF030DE4900495F01242
:084F4700401FE4FF1254412257
:08535800E4FF1253DB0251AF28
:08536000E4FF1253E1024A854B
:08536800E4FF1253F30251AF00
:08537000E4FF1253F90251AFF2
:08537800E4FF1253FF0251AFE4
:08538000E4FF1254050251AFD5
:08538800E4FF12540B0251AFC7
:08539000E4FF1254110251AFB9
:08539800E4FF1254170251AFAB
:0853A000E4FF12541D0251AF9D
:0853A800E4FF1254230251AF8F
:0853B000E4FF1254290251AF81
:0853B800E4FF12542F024A85A4
:065435001237B102401F16
:101EA6004106A9004106AE004106AC004106AD0060
:101EB6004106AA004106A8004106AF004106AB0054
:1052D800438901758C3C758AB0D2AFD2A9D28C2291
:0E52F600438910758DFF758B9CD2AFD2AB2211
:03000B00023E961C
:103E9600C0E0C0F0C083C082C0D075D000C000C0F2
:0D3EA60001C002C003C004C005C006C00773
:103EB300900493E4F0C28D758C3C758AB01253CF95
:103EC300900493EFF09006A9E004F0E0B40A0B909D
:103ED30006AEE004F09006A9E4F09006AEE0C394C9
:103EE300044002E4F09006ACE0B40104A3E004F063
:103EF300125477BF01149006AAE004F0E0D394783B
:103F0300400812547D9006AAE4F0900493E0FFB4B5
:103F13005F159006A8E004F0E0B4140B9006AFE040
:103F230004F09006A8E4F0EF645F60129006ABE043
:0E3F330004F0E0D394C84006E4F0FF1253D52A
:103F4100D007D006D005D004D003D002D001D000D4
:0B3F5100D0D0D082D083D0F0D0E0327E
:03001B0002479108
:10479100C0E0C0F0C083C082C0D075D000C000C0EE
:0D47A10001C002C003C004C005C006C0076F
:1047AE00E4FF1253CFC28F758DFF758B9CEFB42E25
:0947BE0005121F72800312362A55
:1047C700D007D006D005D004D003D002D001D00046
:0B47D700D0D0D082D083D0F0D0E032F0
:05543B009006AEE0FF49
:015440002249
:065441009006AEEFF02220
:065447009006ACEFF0221C
:05544D009006ADE0FF38
:015452002237
:06545300E49006ADF0221A
:055459009006AFE0FF2A
:01545E00222B
:06545F009006AFEFF02201
:06546500E49006ABF0220A
:0B1EC600480698140F09040C220006C7
:0448C200E0FD7F8A0C
:1048C600D2A0EF54FEFFE4FEEF30E004D2A1800256
:1048D600C2A1D2A2C2A2EFC313FF0EEEB408E9E44E
:1048E600FEED30E004D2A18002C2A1D2A2C2A2EDA6
:0A48F600C313FD0EEEB408E9C2A0E2
:014900002294
:10490100D2A0EF4401FFE4FDEF30E004D2A1800228
:10491100C2A1D2A2C2A2EFC313FF0DEDB408E9E414
:10492100FDEEC313FE30A1054480FE8004EE547FEA
:0E493100FED2A2C2A20DEDB408E7C2A0AF06EE
:01493F002255
:10429E00E4FF74982FF582E43406F583E0FE75F0A2
:1042AE000A84FDEE75F00A8474A02FF582E43406BC
:1042BE00F583E5F0F0EDC454F0FE74A02FF582E422
:1042CE003406F583E02EF00FEFB408C6E4FD7F8EC2
:1042DE001248C67D807F801248C69006A1E0FD7F01
:1042EE008C1248C6A3E0FD7F881248C6A3E0FD7F6E
:1042FE00861248C69006A71248C29006A4E0FD7F1B
:10430E00841248C6A3E0FD7F821248C6A3E0FD7F5B
:0F431E00801248C6A31248C27D807F8E0248C617
:1044AE007F8C1249019006A1EFF07F88124901A37B
:1044BE00EFF07F86124901A3EFF07F84124901A32A
:1044CE00EFF07F82124901A3EFF07F80124901EFD6
:1044DE00547FA3F07F8A124901A3EFF0E4FF74A08A
:1044EE002FF582E43406F583E0FEC4540FFDEE543E
:1044FE000FFE74982FF582E43406F583EEF0ED7519
:10450E00F00AA4FE74982FF582E43406F583E02EAB
:06451E00F00FEFB408C825
:014524002274
:0B532B00C2A0C2A2E4FD7F800248C6C1
:101ED10041066300410662004106680041066B004D
:101EE10041067200410658004106570043066F0043
:101EF1000000420669004642066D00784206540021
:101F0100004206520000420660000042066400469C
:101F110042066600784206740000410656004106FA
:101F2100730041066C004106590043065A00000047
:061F310043065D00000004
:0753C800D2AFD2A8D2882267
:030003000253C0E5
:0853C000C2A8208E02D28E3239
:10517C00E4900663F0900662F090066BF09006687F
:0C518C00F0900672F0900657F0A3F0229D
:10362A0030B20590066B8003900668E004F09006BD
:10363A0058E004F0E0D394A07480948F4007C28EBF
:10364A00D2A802517C900657E014603F14607514AA
:10365A007003023719240360030237A990066BE04E
:10366A00D3940040030237A9900668E0FFC390068E
:10367A006AE09F900669E0940040030237B0900622
:10368A0057E004F0E490066BF0803490066BE0FF9C
:10369A00FD900668E02DFDE433FCC390066EE09DC4
:1036AA0090066DE09C50030237A9EFD394015003B2
:1036BA000237B030A802C2A8900657E004F0E4909E
:1036CA000668F022900668E0D39400401390066BD7
:1036DA00E0900663F0E490066BF0900657E004F081
:1036EA00900669E0FEA3E0FF90066EE02FFF9006C9
:1036FA006DE03EFEEF7803CEC313CE13D8F9FF90E8
:10370A00066BE0D39FE49E50030237B00237A990BC
:10371A00066BE0D39400405C900668E0FF90066276
:10372A00F0E4900668F09006577402F0900672E092
:10373A00131313541FFE246FF582E43406F583E055
:10374A00FD25E0F0900663E0D39F400E746F2EF5DE
:10375A0082E43406F583E04401F0900672E004F056
:10376A00E0D39417400EC28E12517C900656740113
:10377A00F0D2A822900669E0FEA3E0FF90066EE070
:10378A002FFF90066DE03EFEEF7803CEC313CE13F3
:10379A00D8F9FF900668E0D39FE49E4009800012A2
:0737AA00517CD2A8C28E225F
:103DC200900656E064016003023E95C2A890066C1C
:103DD200E0146027046003023E8E90066FE09006B6
:103DE2005AF0900670E090065BF0900671E0900643
:103DF2005CF090066C7401F0023E8E90066FE0FF5C
:103E020090065AE06F706D900670E0FE90065BE0DF
:103E12006E7061900671E0FD90065CE06D7055A3D6
:103E2200E06F7012A3E06E700DA3E0B50508900676
:103E320059E07020800090066FE090065DF09006D9
:103E420070E090065EF0900671E090065FF09006DA
:103E5200737401F09006597401F0125465E49006EF
:103E62006FF0A3F0A3F090065AF0A3F0A3F090062F
:103E72006CF0801890066FE090065AF0900670E0A1
:103E820090065BF0900671E090065CF0D2A8E49098
:043E92000656F022BE
:101F720030B20590066B8003900668E004F090068C
:101F820058E004F0E0D394A07480948F4006C28E8F
:101F9200D2A88027900657E014605A1470030220DA
:101FA200861470030220D12403600302221E9006CD
:101FB2006BE0D394004007D2A8C28E02517C9006F7
:101FC20054E0FEA3E0FF7C007D0F122859EF243C71
:101FD200FFE43EFE900668E0D39FEC9E500302228F
:101FE20025900657E004F0900669EEF0A3EFF0E4C6
:101FF200A3F0022081900652E0FEA3E0FF7C007D68
:102002000F122859EF2478FFE43EFE90066BE0F9A8
:10201200FD900668E02DFDE433FCD3ED9FEC9E407D
:1020220022E9701C900653E004F07006900652E01C
:1020320004F0900655E004F07006900654E004F0B7
:1020420002221EE9D394015003022225900652E097
:10205200FEA3E0FF7C007D0F122859EF2478FFE4F5
:102062003E90066DF0A3EFF0E4900652F0A3F0A3C9
:10207200F0A3F030A802C2A8900657E004F0E49062
:102082000668F022900668E0D39400401390066B35
:10209200E0900663F0E490066BF0900657E004F0DF
:1020A200900669E0FEA3E0FF90066EE02FFF900627
:1020B2006DE03EFEEF7803CEC313CE13D8F9FF9046
:1020C200066BE0D39FE49E500302222502221E905B
:1020D200066BE0D3940050030221F3900668E0FF00
:1020E200900662F0E4900668F09006577402F09051
:1020F2000672E0131313541FFE246FF582E43406B4
:10210200F583E025E0F0900663E0FDD39F400E7476
:102112006F2EF582E43406F583E04401F090066206
:10212200E02DFEE433900660F0A3CEF0900672E05C
:1021320004F0E0D3941750030221F3C28E12517CB3
:102142009006567401F0900675E004F07006900651
:1021520074E004F090066DE0FEA3E0FF900667E0F5
:102162002FF0900666E03EF0E0C313FEA3E013FFFB
:1021720090066DEEF0A3EFF0900666EEF0A3EFF09E
:10218200D3900675E09401900674E09400405F904D
:102192000664E0FEA3E0FF900669E0FCA3E0FD9F79
:1021A200FFEC9EFED3EF941EEE9400401590066560
:1021B200E09DFF900664E09CFED3EF941EEE940037
:1021C200502C900669E0FEA3E0FF900665E02FF038
:1021D200900664E03EF0E0C313FEA3E013FF900616
:1021E20069EEF0A3EFF0900664EEF0A3EFF0D2A850
:1021F20022900669E0FEA3E0FF90066EE02FFF90BA
:10220200066DE03EFEEF7803CEC313CE13D8F9FF7E
:10221200900668E0D39FE49E4009800012517CD270
:04222200A8C28E229E
:05546B00900673E0FF54
:015470002219
:06547100E4900673F02236
:05547700900659E0FF62
:01547C00220D
:06547D00E4900659F02244
:1024D2006465636F6465725F76616C206973202541
:1024E20030327820253032782025303278202E0D77
:1024F2000A0066696E642061207461626C65210065
:102502006465636F646572207375636365737321B9
:1025120000646973706C61795F72616D2069732008
:102522002530327820253032782025303278202527
:102532003032782E0D0A0063616C6C20697320259D
:1025420030327820253032782025303278202E0D16
:102552000A0063616C6C2069732025303278202573
:10256200303278202530327820253032782E0D0A0C
:102572000063616C6C6572206973207269676973AC
:102582007465722073756363657373200D0A006846
:102592006F737420697320253032782025303278A9
:1025A2002025303278202E0D0A00686F737420695E
:1025B2007320253032782025303278202530327849
:1025C20020253032782E0D0A00686F7374206973EB
:1025D20020726967697374657220737563636573CA
:1025E20073200D0A00616C61726D206973202530C1
:1025F200327820253032782025303278202E0D0A8C
:1026020000616C61726D206973202530327820255B
:10261200303278202530327820253032782E0D0A5B
:1026220000616C61726D20697320726967697374ED
:1026320065722073756363657373200D0A006361AD
:102642006E63656C20697320253032782025303224
:10265200782025303278202E0D0A0063616E636582
:102662006C2069732025303278202530327820257D
:1026720030327820253032782E0D0A0063616E6385
:10268200656C20697320726967697374657220735F
:10269200756363657373200D0A0073696E676C65F9
:1026A2005F6B6579A3BA20200025303264200020B8
:1026B2000D0A006D756C7469706C655F6B6579A34A
:1026C200BA00253264200000000000000000000073
:1026D20000000000000000000000000000000000F8
:0726E20000000000000000F1
:0B1F37004806B00000000000000000A1
:10004600780C7C007D017BFF7A2679C97E007F20B3
:100056001227B9E490002CF0A3F0A3F0A3F0A3F0CC
:10006600A3F01253CF90002CEFF012542990002DDC
:10007600EFF012542F90002EEFF01253DB90002F6A
:10008600EFF01253E1900030EFF01254119000316E
:10009600EFF0123DC212546BEF64016003020C14C0
:1000A6007BFF7A2479D290065DE0FF90003AE4F077
:1000B600A3EFF090065EE0FF90003CE4F0A3EFF0C3
:1000C60090065FE0FF90003EE4F0A3EFF012469743
:1000D60090002CE024CE24FC40030206D824FC40E9
:1000E600030207FD24FC400302091424FC4003021A
:1000F6000A2B24E47003020B5614700302034C24EB
:100106005F6003020C11E4FF12545F90065FE0FF8C
:1001160054F060030201A590065DE0FEC4540FFD95
:10012600900031E0FC6D6005EC640B707290002D60
:10013600E0B4010CEF540F24DAF582E43405800DA7
:1001460090065FE0540F24DAF582E43404F583E088
:10015600900004F090065DE0FF900005EDF0EF548E
:100166000FA3F090065EE0FFC4540F900007F0EF77
:10017600540FA3F0A3EEF0124B669000357401F015
:10018600A37400F0A37404F07B017A0479EA123CAC
:100196000F1237B112401F7F5F1253D5020C11E4C4
:1001A600900001F0900001E0FFC394304003020C80
:1001B60011EF75F020A4FDACF07B017A00790C906C
:1001C600003D7420F07FA01243CF1252E8E4900065
:1001D60000F0900000E0FFC3942040030203437444
:1001E6000C2FF582E43400F583E0600302033A7BCA
:1001F600FF7A2479F4124697900001E075F020A466
:10020600FF900000E07C002FFFEC35F0FEEF780356
:10021600C333CE33CED8F92400FDEE3407FC7B0180
:100226007A00790490003D7408F07FA01243CF1243
:1002360052E890002DE06401602B90065DE0FF908F
:100246000009E0B5071F90065EE0FF90000AE0B5E2
:10025600071390065FE0C4540FFF90000BE0FEC446
:10026600540F6F603890002DE06401600302033A7A
:1002760090065DE0FF900009E06F600302033A908C
:10028600065EE0FF90000AE06F600302033A900604
:100296005FE0FF90000BE06F600302033A90002DD1
:1002A600E090065FB4010CE0540F24DAF582E434E2
:1002B60005800AE0540F24DAF582E43404F583E07D
:1002C600900004F0124B669000357401F0A37400A0
:1002D600F0A37404F07B017A0479EA123C0F12371A
:1002E600B112401F7BFF7A2579021246977BFF7A6F
:1002F6002579139004EAE0FF90003AE4F0A3EFF0CA
:100306009004EBE0FF90003CE4F0A3EFF09004ECE7
:10031600E0FF90003EE4F0A3EFF09004EDE0FF90E4
:100326000040E4F0A3EFF01246977F5F1253D51218
:1003360054718009900000E004F00201D890000199
:10034600E004F00201AAE4FF12545F90065FE0FFAA
:1003560054F0600302049390065DE0FEC4540FFD62
:10036600900031E0FC6D6008EC640B6003020493BE
:1003760090002DE0B4010CEF540F24DAF582E4343A
:1003860005800D90065FE0540F24DAF582E434040C
:10039600F583E0900004F090065DE0FF900005ED27
:1003A600F0EF540FA3F090065EE0FFC4540F9000E8
:1003B60007F0EF540FA3F0A3EEF090002FE06401D6
:1003C6007063A3E0900002F0900002E0FFD3940176
:1003D600401AEF75F006A424DEF9740435F0FA7BB2
:1003E6000112487D900002E014F080DCE4900002E7
:1003F600F0900002E0FFC39406501474EA2FF582D1
:10040600E43404F583E4F0900002E004F080E29026
:1004160000357401F0A37400F0A37404F07B017A34
:100426000479EA805490002FE064026003020C1104
:10043600900003F0900030E0FF900003E0FEC39FC1
:100446004003020C11EE75F006A424EAF582E434AA
:1004560004F583E0702F900003E075F006A424EA0B
:10046600F9740435F0FA7B01C003900035EBF0A374
:100476007400F0A37404F0D003123C0F1237B112CB
:10048600401F020C11900003E004F080A7E49000E6
:1004960001F0900001E0FFC394304003020C11EF1D
:1004A60075F020A4FDACF07B017A00790C90003D3C
:1004B6007420F07FA01243CF1252E8E4900000F0BF
:1004C600900000E0FFC3942040030206CF740C2F77
:1004D600F582E43400F583E060030206C69000016D
:1004E600E075F020A4FF900000E07C002FFFEC35C3
:1004F600F0FEEF7803C333CE33CED8F92400FDEEF9
:100506003407FC7B017A00790490003D7408F07F83
:10051600A01243CF1252E890002DE06401602B90A8
:10052600065DE0FF900009E0B5071F90065EE0FF5C
:1005360090000AE0B5071390065FE0C4540FFF90E1
:10054600000BE0FEC4540F6F603890002DE064018C
:1005560060030206C690065DE0FF900009E06F604A
:10056600030206C690065EE0FF90000AE06F600395
:100576000206C690065FE0FF90000BE06F60030284
:1005860006C690002DE090065FB4010CE0540F24DF
:10059600DAF582E43405800AE0540F24DAF582E4C1
:1005A6003404F583E0900004F090002FE0640170BD
:1005B60063A3E0900002F0900002E0FFD3940140B4
:1005C6001AEF75F006A424DEF9740435F0FA7B01FF
:1005D60012487D900002E014F080DCE4900002F006
:1005E600900002E0FFC39406501474EA2FF582E4EB
:1005F6003404F583E4F0900002E004F080E2900019
:10060600357401F0A37400F0A37404F07B017A043E
:1006160079EA804E90002FE064027059900003F052
:10062600900030E0FF900003E0FEC39F5047EE7558
:10063600F006A424EAF582E43404F583E0702E90F3
:100646000003E075F006A424EAF9740435F0FA7B99
:1006560001C003900035EBF0A37400F0A37404F01E
:10066600D003123C0F1237B112401F8008900003CE
:10067600E004F080AB7BFF7A2579021246977BFF78
:100686007A2579139004EAE0FF90003AE4F0A3EFAC
:10069600F09004EBE0FF90003CE4F0A3EFF0900450
:1006A600ECE0FF90003EE4F0A3EFF09004EDE0FFF5
:1006B600900040E4F0A3EFF01246971254718009BF
:1006C600900000E004F00204C6900001E004F0028D
:1006D60004987F351253D590065FE0540F9006B00C
:1006E600F09005FAE09006B1F09005FBE09006B2B6
:1006F600F09005FCE09006B3F09005FDE09006B49E
:10070600F090065DE09006B5F090065EE09006B6C5
:10071600F090002DE090065FB40103E08003E05402
:10072600F09006B7F07B017A0679B012349D40034B
:10073600020C117BFF7A2579399006B5E0FF90000F
:100746003AE4F0A3EFF09006B6E0FF90003CE4F048
:10075600A3EFF09006B7E0FF90003EE4F0A3EFF0C1
:100766001246977BFF7A2579549005FAE0FF9000B0
:100776003AE4F0A3EFF09005FBE0FF90003CE4F0D4
:10078600A3EFF09005FCE0FF90003EE4F0A3EFF04D
:100796009005FDE0FF900040E4F0A3EFF0124697CD
:1007A6007BFF7A2579731246971252E89005FDE091
:1007B6006409703D9005FCE06409702F9005FBE02C
:1007C600B409229005FAE004F0E4A3F0A3F0900542
:1007D600FAE0B4150AE4F09005FD04F0020C11905D
:1007E60005FD020B2D9005FB020B369005FC020B56
:1007F600449005FD020B507F391253D590065FE0F9
:10080600FE540F9006B0F0900602E09006B1F0900C
:100816000603E09006B2F0900604E09006B3F0906E
:100826000605E09006B4F090065DE09006B5F090FF
:10083600065EE09006B6F0EE54F0A3F07B017A0671
:1008460079B0122FCC4003020C117BFF7A257991E7
:100856009006B5E0FF90003AE4F0A3EFF09006B6FC
:10086600E0FF90003CE4F0A3EFF09006B7E0FF90C5
:10087600003EE4F0A3EFF01246977BFF7A2579ACB1
:10088600900602E0FF90003AE4F0A3EFF090060332
:10089600E0FF90003CE4F0A3EFF0900604E0FF9048
:1008A600003EE4F0A3EFF0900605E0FF900040E480
:1008B600F0A3EFF01246977BFF7A2579CB12469785
:1008C6001252E8900605E06409703D900604E06463
:1008D60009702F900603E0B40922900602E004F0A6
:1008E600E4A3F0A3F0900602E0B4150AE4F0900643
:1008F6000504F0020C11900605020B2D900603026A
:100906000B36900604020B44900605020B507F3D01
:100916001253D590065FE0FE540F9006B0F0900695
:100926000BE09006B1F090060CE09006B2F090064F
:100936000DE09006B3F090060EE09006B4F0900637
:100946005DE09006B5F090065EE09006B6F0EE54D7
:10095600F0A3F07B017A0679B01231674003020CEE
:10096600117BFF7A2579E79006B5E0FF90003AE41F
:10097600F0A3EFF09006B6E0FF90003CE4F0A3EFA2
:10098600F09006B7E0FF90003EE4F0A3EFF01246C9
:10099600977BFF7A26790390060BE0FF90003AE4F6
:1009A600F0A3EFF090060CE0FF90003CE4F0A3EF1C
:1009B600F090060DE0FF90003EE4F0A3EFF0900605
:1009C6000EE0FF900040E4F0A3EFF01246977BFFA5
:1009D6007A2679231246971252E890060EE06409A9
:1009E600703D90060DE06409702F90060CE0B40986
:1009F6002290060BE004F0E4A3F0A3F090060BE0CF
:100A0600B4150AE4F090060E04F0020C1190060EDE
:100A1600020B2D90060C020B3690060D020B44902D
:100A26000605020B507F411253D590065FE0FE5437
:100A36000F9006B0F0900615E09006B1F0900616FD
:100A4600E09006B2F0900617E09006B3F090061814
:100A5600E09006B4F090065DE09006B5F090065E74
:100A6600E09006B6F0EE54F0A3F07B017A0679B07A
:100A76001233024003020C117BFF7A26794090065E
:100A8600B5E0FF90003AE4F0A3EFF09006B6E0FF81
:100A960090003CE4F0A3EFF09006B7E0FF90003E34
:100AA600E4F0A3EFF01246977BFF7A26795D900675
:100AB60015E0FF90003AE4F0A3EFF0900616E0FF91
:100AC60090003CE4F0A3EFF0900617E0FF90003EA4
:100AD600E4F0A3EFF0900618E0FF900040E4F0A3E6
:100AE600EFF01246977BFF7A26797E1246971252CE
:100AF600E8900618E06409704E900617E0640970E5
:100B06003A900616E0B40925900615E004F0E4A331
:100B1600F0A3F0900615E0B4150AE4F09006180468
:100B2600F0020C119006187401F0020C11900616D2
:100B3600E004F0E4A3F0A3F0020C11900617E00421
:100B4600F0E4A3F0020C11900618E004F0020C1178
:100B560090002DE0B40112A3E0FF90065FE0540F71
:100B660024DAF582E43405801290002EE0FF900628
:100B76005FE0540F24DAF582E43404F583EFF07B6A
:100B8600FF7A26799C124697E4900000F0900000C8
:100B9600E0FFC3941050257BFF7A2679AB74DA2FD9
:100BA600F582E43405F583E0FF90003AE4F0A3EF24
:100BB600F0124697900000E004F080D17BFF7A2681
:100BC60079B11246977BFF7A2679B5124697E4905B
:100BD6000000F0900000E0FFC3941050257BFF7AE0
:100BE6002679C474DA2FF582E43404F583E0FF90A5
:100BF600003AE4F0A3EFF0124697900000E004F00C
:100C060080D17BFF7A2679B1124697125471124031
:040C1600CD023A24AD
:1022260063616C6C65722072656769737465722090
:102236006973206F6C6421200A0D0063616C6C6504
:1022460072207265676973746572206973206E65A2
:102256007721200A0D00686F7374207265676973B1
:10226600746572206973206F6C6421200A0D006802
:102276006F73742072656769737465722069732061
:102286006E657721200A0D00616C61726D657220A2
:102296007265676973746572206973206F6C642157
:1022A600200A0D00616C61726D6572207265676946
:1022B60073746572206973206E657721200A0D009C
:1022C60063616E63656C65722072656769737465B8
:1022D60072206973206F6C6421200A0D0063616EA1
:1022E60063656C65722072656769737465722069CF
:1022F60073206E657721200A0D0063616C6C657230
:102306002069732064656C65746520737563636505
:102316007373200D0A0063616C6C2069732025308D
:10232600327820253032782025303278202E0D0A5A
:102336000063616C6C20697320253032782025306B
:102346003278202530327820253032782E0D0A005A
:10235600686F737465722069732064656C65746553
:102366002073756363657373200D0A00686F737459
:1023760020697320253032782025303278202530A8
:102386003278202E0D0A00686F7374206973202539
:1023960030327820253032782025303278202530AA
:1023A60032782E0D0A00686F737420697320646595
:1023B6006C6574652073756363657373200D0A001D
:1023C600616C61726D65722069732064656C6574F9
:1023D600652073756363657373200D0A00616C6114
:1023E600726D2069732025303278202530327820AE
:1023F60025303278202E0D0A00616C61726D2069DD
:1024060073202530327820253032782025303278F6
:1024160020253032782E0D0A00616C61726D2069BC
:10242600732064656C657465207375636365737387
:10243600200D0A0063616E63656C65722069732006
:1024460064656C6574652073756363657373200DCD
:102456000A0063616E63656C2069732025303278EB
:1024660020253032782025303278202E0D0A006360
:10247600616E63656C2069732025303278202530C3
:102486003278202530327820253032782E0D0A0019
:1024960063616E63656C2069732064656C65746541
:1024A6002073756363657373200D0A00FFFFFFFFDA
:1024B600FFFFFFFFFFFFFFFFFFFFFFFFFFFFFFFF26
:0C24C600FFFFFFFFFFFFFFFFFFFFFFFF16
:101F42006020062A000000000000000000000000DF
:101F5200000000000000000000000000000000007F
:0F1F62000000000048064A0000000000000000D8
:03552100DFFE2288
:1051DC00AE07AF061EEF600C7FF51255217FF5125E
:0551EC00552180EE22B8
:1051C600D2B400D2B50000000000C2B40000000056
:0651D60000C2B50000223A
:1052A500C2B400D2B50000000000D2B40000000076
:0152B50022D6
:10494000E4FEEFA806088002C333D8FC30E704D2A7
:10495000B48002C2B400D2B50000000000C2B50E9F
:10496000EEB408DE0000D2B40000D2B50000003082
:0C497000B404C20A8002D20AC2B50000E2
:01497C002218
:104F7600E4FFD2B4FE00C2B50000000000D2B500C6
:104F860000EF25E0FF30B4010F00000EEEB408E597
:044F9600C2B50000A0
:014F9A0022F4
:1052B600C2B4000000D2B50000000000C2B5000074
:0152C60022C5
:1052C700D2B4000000D2B50000000000C2B5000053
:0152D70022B4
:10458600900004E075F020A4ACF07A06792AFD7B51
:0945960001742090003DF07FA0AB
:10459F001251C6124940200A02C322ECFF124940B1
:1045AF00200A02C322AF05124940200A02C322E4A7
:1045BF00FD90003DE0FFEDC39F50161227DFFF1265
:1045CF004940200A02C322740129F9E43AFA0D8006
:0545DF00E01252A5D31B
:0145E40022B4
:1043B900EF75F020A4FDACF07A06792A74207B0110
:0643C90090003DF07FA012
:0543CF00900037EFF043
:1043D4001251C6E0FF124940200A02C322ECFF1228
:1043E4004940200A02C322AF05124940200A02C3F1
:1043F400221251C6900037E004FF124940200A02FD
:10440400C322E4FD90003DE014FFEDC39F5014125D
:104414004F76EF1228251252B6740129F9E43AFABC
:104424000D80E1124F76EF1228251252C71252A5C1
:01443400D3B4
:014435002264
:0B349D00900032EBF0A3EAF0A3E9F08E
:1034A800E4A3F0A3F0900035F0900035E0FFC3945A
:1034B8003840030235881243B91252E8E4900036C6
:1034C800F0900036E0FFC39420400302357F742A51
:1034D8002FF582E43406F583E06003023576900028
:1034E80035E075F020A4FFA3E07C002FFFEC35F059
:1034F800FEEF7803C333CE33CED8F92400FDEE3483
:1035080007FC7A06794A74081243C71252E89000F9
:1035180032E0FBA3E0FAA3E0F99000051227F8FFD8
:1035280090064FE06F70479000061227F8FF90064C
:1035380050E06F70399000071227F8FF900651E0AD
:103548006F702B90064BE09005FAF090064CE090D7
:1035580005FBF090064DE09005FCF090064EE090DB
:1035680005FDF07BFF7A227926124697C322900048
:1035780036E004F00234C9900035E004F00234B1BA
:10358800E4900035F0900035E0FFC394204003023A
:1035980036281243B91252E8E4900036F09000360B
:1035A800E0FFC394205070742A2FF582E43406F5A6
:1035B80083E0605A900035E075F020A4FFA3E07C1A
:1035C800002FFFEC35F0FEEF7803C333CE33CED8AF
:1035D800F92400FDEE3407FC900032E0FBA3E0FA8A
:1035E800A3E0F974081245991252E8900036E024D5
:1035F8002AF582E43406F583E4F090003512458913
:103608001252E87BFF7A227941124697D322900022
:1036180036E004F00235A5900035E004F002358D5F
:01362800C3DE
:01362900227E
:0B2FCC00900032EBF0A3EAF0A3E9F064
:102FD700E4A3F0A3F0900035F0900035E0FFC39430
:102FE7003840030230BF1243B91252E8E49000366A
:102FF700F0900036E0FFC3942040030230B6742AF5
:103007002FF582E43406F583E060030230AD9000CB
:1030170035E075F020A4FFA3E07C002FFFEC35F02E
:10302700FEEF7803C333CE33CED8F92400FDEE3458
:1030370007FC7B017A06794A90003D7408F07FA06F
:103047001243CF1252E8900032E0FBA3E0FAA3E06C
:10305700F99000051227F8FF90064FE06F70479030
:1030670000061227F8FF900650E06F7039900007AE
:103077001227F8FF900651E06F702B90064BE090F7
:103087000602F090064CE0900603F090064DE090A3
:103097000604F090064EE0900605F07BFF7A227951
:1030A7005C124697C322900036E004F0022FF89096
:1030B7000035E004F0022FE0E4900035F090003591
:1030C700E0FFC3940840030231651243B91252E886
:1030D700E4900036F0900036E0FFC39420507674F9
:1030E7002A2FF582E43406F583E06060900035E02E
:1030F70075F020A4FFA3E07C002FFFEC35F0FEEF76
:103107007803C333CE33CED8F92400FDEE3437FC31
:10311700900032E0FBA3E0FAA3E0F990003D7408C9
:10312700F07FA012459F1252E8900036E0242AF55E
:1031370082E43406F583E4F0900035124589125293
:10314700E87BFF7A227975124697D322900036E002
:0F31570004F00230DC900035E004F00230C4C315
:013166002246
:0B316700900032EBF0A3EAF0A3E9F0C7
:10317200E4A3F0A3F0900035F0900035E0FFC39493
:1031820038400302325A1243B91252E8E490003630
:10319200F0900036E0FFC394204003023251742ABB
:1031A2002FF582E43406F583E06003023248900092
:1031B20035E075F020A4FFA3E07C002FFFEC35F092
:1031C200FEEF7803C333CE33CED8F92400FDEE34BC
:1031D20007FC7B017A06794A90003D7408F07FA0D3
:1031E2001243CF1252E8900032E0FBA3E0FAA3E0D0
:1031F200F99000051227F8FF90064FE06F70479094
:1032020000061227F8FF900650E06F703990000711
:103212001227F8FF900651E06F702B90064BE0905A
:10322200060BF090064CE090060CF090064DE090F4
:10323200060DF090064EE090060EF07BFF7A2279A2
:103242008E124697C322900036E004F0023193902A
:103252000035E004F002317BE4900035F090003557
:10326200E0FFC3940840030233001243B91252E84C
:10327200E4900036F0900036E0FFC394205076745C
:103282002A2FF582E43406F583E06060900035E091
:1032920075F020A4FFA3E07C002FFFEC35F0FEEFD9
:1032A2007803C333CE33CED8F92400FDEE3427FCA5
:1032B200900032E0FBA3E0FAA3E0F990003D74082D
:1032C200F07FA012459F1252E8900036E0242AF5C2
:1032D20082E43406F583E4F09000351245891252F7
:1032E200E87BFF7A2279AA124697D322900036E031
:0F32F20004F0023277900035E004F002325FC33F
:0133010022A9
:0B330200900032EBF0A3EAF0A3E9F02A
:10330D00E4A3F0A3F0900035F0900035E0FFC394F6
:10331D003840030233F51243B91252E8E4900036F7
:10332D00F0900036E0FFC3942040030233EC742A82
:10333D002FF582E43406F583E060030233E3900059
:10334D0035E075F020A4FFA3E07C002FFFEC35F0F5
:10335D00FEEF7803C333CE33CED8F92400FDEE341F
:10336D0007FC7B017A06794A90003D7408F07FA036
:10337D001243CF1252E8900032E0FBA3E0FAA3E033
:10338D00F99000051227F8FF90064FE06F704790F7
:10339D0000061227F8FF900650E06F703990000775
:1033AD001227F8FF900651E06F702B90064BE090BE
:1033BD000615F090064CE0900616F090064DE09044
:1033CD000617F090064EE0900618F07BFF7A2279F2
:1033DD00C6124697C322900036E004F002332E90B9
:1033ED000035E004F0023316E4900035F09000351E
:1033FD00E0FFC39408400302349B1243B91252E814
:10340D00E4900036F0900036E0FFC39420507674BF
:10341D002A2FF582E43406F583E06060900035E0F4
:10342D0075F020A4FFA3E07C002FFFEC35F0FEEF3C
:10343D007803C333CE33CED8F92400FDEE342FFC00
:10344D00900032E0FBA3E0FAA3E0F990003D740890
:10345D00F07FA012459F1252E8900036E0242AF525
:10346D0082E43406F583E4F090003512458912525A
:10347D00E87BFF7A2279E3124697D322900036E05B
:0F348D0004F0023412900035E004F00233FAC369
:01349C00220D
:0B2E1F00900001EBF0A3EAF0A3E9F043
:102E2A00E4A3F0A3F0900004F0900004E0FFC39440
:102E3A00204003022FCA1243B91252E8E490000557
:102E4A00F0900005E0FFC394204003022FBB9000DE
:102E5A0001E0FBA3E0FAA3E0F91227DF7029900052
:102E6A00011227F870219000021227F870199000B9
:102E7A00031227F87011742A2FF582E43406F583B9
:102E8A0074FFF0FB022FAB900005E0FD242AF582C7
:102E9A00E43406F583E06003022FB2900004E07583
:102EAA00F020A47C002DFFEC35F0FEEF7803C3334D
:102EBA00CE33CED8F92400FDEE3407FC7B017A0626
:102ECA00794A90003D7408F07FA01243CF1252E86D
:102EDA00900001E0FBA3E0FAA3E0F91227DFFF90DC
:102EEA00064BE06F6003022FB29000011227F8FF31
:102EFA0090064CE06F6003022FB29000021227F88E
:102F0A00FF90064DE06F6003022FB2900003122774
:102F1A00F8FF90064EE06F6003022FB2900005E0C2
:102F2A00242AF582E43406F58374FFF012458612EA
:102F3A0052E87BFF7A23791C90064FE0FF90003A13
:102F4A00E4F0A3EFF0900650E0FF90003CE4F0A319
:102F5A00EFF0900651E0FF90003EE4F0A3EFF0128C
:102F6A0046977BFF7A23793790064BE0FF90003A29
:102F7A00E4F0A3EFF090064CE0FF90003CE4F0A3ED
:102F8A00EFF090064DE0FF90003EE4F0A3EFF090E2
:102F9A00064EE0FF900040E4F0A3EFF01246977B64
:102FAA00FF7A237900124697900005E004F0022E7A
:102FBA004B1245861252E8900004E004F0022E33C8
:012FCA00D333
:012FCB0022E3
:0B28FA00900001EBF0A3EAF0A3E9F06E
:10290500E4A3F0A3F0900004F0900004E0FFC3946A
:10291500084003022AAF1243B91252E8E4900005B9
:10292500F0900005E0FFC394204003022A9D90002B
:1029350001E0FBA3E0FAA3E0F91227DF702D900078
:10294500011227F870259000021227F8701D9000DB
:10295500031227F87015742A2FF582E43406F583DF
:1029650074FFF0FB7A237956022A91900005E0FD69
:10297500242AF582E43406F583E06003022A949064
:102985000004E075F020A47C002DFFEC35F0FEEF8F
:102995007803C333CE33CED8F92400FDEE3437FCAB
:1029A5007B017A06794A90003D7408F07FA01243B6
:1029B500CF1252E8900001E0FBA3E0FAA3E0F91280
:1029C50027DFFF90064BE06F6003022A9490000119
:1029D5001227F8FF90064CE06F6003022A949000DE
:1029E500021227F8FF90064DE06F6003022A9490CB
:1029F50000031227F8FF90064EE06F6003022A9449
:102A0500900005E0242AF582E43406F58374FFF08E
:102A15009000041245891252E87BFF7A237972905F
:102A2500064FE0FF90003AE4F0A3EFF0900650E087
:102A3500FF90003CE4F0A3EFF0900651E0FF90001A
:102A45003EE4F0A3EFF01246977BFF7A23798D9051
:102A5500064BE0FF90003AE4F0A3EFF090064CE05F
:102A6500FF90003CE4F0A3EFF090064DE0FF9000EE
:102A75003EE4F0A3EFF090064EE0FF900040E4F056
:102A8500A3EFF01246977BFF7A2379AC1246979015
:102A95000005E004F002292690000412458912522F
:0B2AA500E8900004E004F002290ED3CA
:012AB0002203
:0B2AB100900001EBF0A3EAF0A3E9F0B5
:102ABC00E4A3F0A3F0900004F0900004E0FFC394B2
:102ACC00084003022C661243B91252E8E490000548
:102ADC00F0900005E0FFC394204003022C549000BA
:102AEC0001E0FBA3E0FAA3E0F91227DF702D9000C0
:102AFC00011227F870259000021227F8701D900023
:102B0C00031227F87015742A2FF582E43406F58326
:102B1C0074FFF0FB7A2379C6022C48900005E0FD87
:102B2C00242AF582E43406F583E06003022C4B90F2
:102B3C000004E075F020A47C002DFFEC35F0FEEFD6
:102B4C007803C333CE33CED8F92400FDEE3427FC02
:102B5C007B017A06794A90003D7408F07FA01243FD
:102B6C00CF1252E8900001E0FBA3E0FAA3E0F912C7
:102B7C0027DFFF90064BE06F6003022C4B900001A7
:102B8C001227F8FF90064CE06F6003022C4B90006C
:102B9C00021227F8FF90064DE06F6003022C4B9059
:102BAC0000031227F8FF90064EE06F6003022C4BD7
:102BBC00900005E0242AF582E43406F58374FFF0D6
:102BCC009000041245891252E87BFF7A2379E39036
:102BDC00064FE0FF90003AE4F0A3EFF0900650E0CF
:102BEC00FF90003CE4F0A3EFF0900651E0FF900062
:102BFC003EE4F0A3EFF01246977BFF7A2379FF9027
:102C0C00064BE0FF90003AE4F0A3EFF090064CE0A6
:102C1C00FF90003CE4F0A3EFF090064DE0FF900035
:102C2C003EE4F0A3EFF090064EE0FF900040E4F09D
:102C3C00A3EFF01246977BFF7A24791F12469790E8
:102C4C000005E004F0022ADD9000041245891252BE
:0B2C5C00E8900004E004F0022AC5D359
:012C6700224A
:0B2C6800900001EBF0A3EAF0A3E9F0FC
:102C7300E4A3F0A3F0900004F0900004E0FFC394F9
:102C8300084003022E1D1243B91252E8E4900005D6
:102C9300F0900005E0FFC394204003022E0B900048
:102CA30001E0FBA3E0FAA3E0F91227DF702D900007
:102CB300011227F870259000021227F8701D90006A
:102CC300031227F87015742A2FF582E43406F5836E
:102CD30074FFF0FB7A24793A022DFF900005E0FDA2
:102CE300242AF582E43406F583E06003022E029081
:102CF3000004E075F020A47C002DFFEC35F0FEEF1E
:102D03007803C333CE33CED8F92400FDEE342FFC41
:102D13007B017A06794A90003D7408F07FA0124344
:102D2300CF1252E8900001E0FBA3E0FAA3E0F9120E
:102D330027DFFF90064BE06F6003022E0290000135
:102D43001227F8FF90064CE06F6003022E029000FA
:102D5300021227F8FF90064DE06F6003022E0290E7
:102D630000031227F8FF90064EE06F6003022E0265
:102D7300900005E0242AF582E43406F58374FFF01D
:102D83009000041245891252E87BFF7A2479589007
:102D9300064FE0FF90003AE4F0A3EFF0900650E016
:102DA300FF90003CE4F0A3EFF0900651E0FF9000A9
:102DB3003EE4F0A3EFF01246977BFF7A24797590F7
:102DC300064BE0FF90003AE4F0A3EFF090064CE0EE
:102DD300FF90003CE4F0A3EFF090064DE0FF90007D
:102DE3003EE4F0A3EFF090064EE0FF900040E4F0E5
:102DF300A3EFF01246977BFF7A24799612469790B9
:102E03000005E004F0022C9490000412458912524C
:0B2E1300E8900004E004F0022C7CD3E7
:012E1E002291
:1047E20078767C067D017BFF7A2479B27E007F2079
:1047F2001227B9E4900696F0A3F0900696E0FEA385
:10480200E0FFC39438EE94005026EF7805C333CE10
:1048120033CED8F9AC067A0679761245941252E86C
:10482200900697E004F070D2900696E004F080CAF9
:014832002263
:104339000245E5E493A3F8E493A34003F68001F270
:1043490008DFF48029E493A3F85407240CC8C33385
:10435900C4540F4420C8834004F456800146F6DF54
:10436900E4800B0102040810204080901CA8E47E20
:10437900019360BCA3FF543F30E509541FFEE49349
:10438900A360010ECF54C025E060A840B8E493A310
:10439900FAE493A3F8E493A3C8C582C8CAC583CA3B
:1043A900F0A3C8C582C8CAC583CADFE9DEE780BEF3
:011F7100006F
:1026E900E709F608DFFA8046E709F208DFFA803ED3
:1026F90088828C83E709F0A3DFFA8032E309F608C0
:10270900DFFA8078E309F208DFFA807088828C8327
:10271900E309F0A3DFFA806489828A83E0A3F608DB
:10272900DFFA805889828A83E0A3F208DFFA804CB5
:1027390080D280FA80C680D4806980F2803380108C
:1027490080A680EA809A80A880DA80E280CA8033F5
:1027590089828A83ECFAE493A3C8C582C8CCC5836D
:10276900CCF0A3C8C582C8CCC583CCDFE9DEE7803D
:102779000D89828A83E493A3F608DFF9ECFAA9F0BC
:10278900EDFB2289828A83ECFAE0A3C8C582C8CC12
:10279900C583CCF0A3C8C582C8CCC583CCDFEADE2B
:1027A900E880DB89828A83E493A3F208DFF980CC8D
:1027B90088F0EF60010E4E60C388F0ED2402B40486
:1027C9000050B9F582EB2402B4040050AF2323452D
:0627D900822390273973F2
:1027DF00BB010689828A83E0225002E722BBFE02F8
:0927EF00E32289828A83E493222B
:1027F800BB010CE58229F582E5833AF583E0225096
:1028080006E92582F8E622BBFE06E92582F8E222DF
:0D281800E58229F582E5833AF583E49322F9
:10282500BB010689828A83F0225002F722BBFE0192
:02283500F3228C
:10283700F8BB010DE58229F582E5833AF583E8F0D7
:10284700225006E92582C8F622BBFE05E92582C883
:02285700F2226B
:10285900EF8DF0A4A8F0CF8CF0A428CE8DF0A42E93
:02286900FE224D
:10286B00A3F8E0C5F025F0F0E58215827002158320
:06287B00E0C838F0E8227D
:10288100D083D082F8E4937012740193700DA3A3E6
:1028910093F8740193F5828883E4737402936860FA
:0628A100EFA3A3A380DFFA
:1028A700D083D082F8E4937012740193700DA3A3C0
:1028B70093F8740193F5828883E473740293B5F0F7
:0D28C700067403936860E9A3A3A3A380D85F
:0628D4008A838982E4738F
:10483300900465E0FFA3E0FEA3E0CF90046EF0A335
:10484300EEF0A3EFF0900468E0CBF0A3E0CAF0A38E
:10485300E0C9F07F22900471AD82AC831227DF8D13
:10486300828C83F0A309E970010ADFEC900468E00D
:0A487300FBA3E0FAA3E0F9021676B9
:10161100E508246EF582E43404F583E005082290A0
:10162100046B30070390046EE475F0011228DA02AE
:1016310027DF2000E97F2ED2008018EF540F24907D
:10164100D43440D4FF30040BEF24BFB41A0050034C
:101651002461FFE50960021509050CE50C7002051E
:101661000B30070E90046BE475F0011228DAEF02DB
:101671002825024F4F7403D2078003E4C207F508FF
:1016810090046B1228F1E4F509F50BF50CE50960FE
:10169100077F2012165480F5750AFFC201C200C2ED
:1016A10002C203C205C206C208121620FF700D3025
:1016B10007057F00121665AF0CAE0B22B4255FC281
:1016C100D5C204121620FF24D0B40A00501A75F0B6
:1016D1000A780930D50508B6FF0106C6A426F6200A
:1016E100D5047002D20380D924CFB41A00EF50047C
:1016F100C2E5D204021866D20180C6D20080C0D2EF
:101701000280BCD2D580BAD20580B47F2012165493
:101711002002077401B5090040F1121611FF1216DB
:101721005402168ED208D2068095121611FB12169B
:1017310011FA121611F94A4B700679377A197BFFA3
:1017410020022EE509602A7E008E82758300122711
:10175100F860060EEE650A70F0C2D5EBC0E0EAC093
:10176100E0E9C0E0EE1218ADD0E0F9D0E0FAD0E047
:10177100FB1227DFFF60AAEBC0E0EAC0E0E9C0E0AE
:10178100121654D0E02401F9D0E03400FAD0E0FB85
:10179100E50A0460DCD50AD980877BFF7A1879A92C
:1017A100D202809C791080027908C206C2088008A2
:1017B100D2D5790A8004790AC2D5E50A047002F506
:1017C1000AE4FAFDFEFF121611FC7B082001131238
:1017D1001611FD7B1030000A121611FE121611FFB0
:1017E1007B20EC3382D592D55013C3E43000069FA1
:1017F100FFE49EFEE42001039DFDE49CFCE4CBF8A4
:10180100C201EC700CCFCECDCCE824F8F870F38097
:1018110017C3EF33FFEE33FEED33FDEC33FCEB3357
:10182100FB994002FB0FD8E9EB300105F8D0E0C489
:1018310048B201C0E00AEC4D4E4F78207B0070C2E7
:10184100EAB50A0040BCC0E01218AFD0F0D0E020E9
:101851000104C4C0E0C4B201C0F012163DD0F0D5FD
:10186100F0EB02168E122881172B5317A55816FC80
:101871004C16F84217A94F17B14417B14917114334
:0818810017B755179B46179B92
:1018890045179B4719575017002D17042E17272B5B
:1018990017082317252019402A16C0480000171FCA
:1018A9003F3F3F00790AA2D5200314300509B9103A
:1018B900020404B9080104A2D5200602500104203B
:1018C90002689202B509005034C0E07F2030031944
:1018D9007F30A20272067205500F121906C202C2A7
:1018E90006C205C2087F30800F300503E9C0E01247
:1018F9001654300503D0E0F9D0E0B509CC3005170E
:101909007F30B9100C1216547F583004077F788045
:1019190003B908031216543002057F2D0216547FAD
:10192900202008F87F2B2006F322920280CF286E10
:10193900756C6C2900D2011216113001F8C20178B8
:101949000930D50108F60216C02D50434958121620
:10195900112403B405004001E4901952931216456D
:0D196900743A121645D2037509040217A541
:1028DA00F8E0FBA3A3E0F925F0F0E5821582700287
:0728EA001583E0FA38F0222B
:0928F100EBF0A3EAF0A3E9F022E8
:104F4F00EFB40A07740D124F5A740A309811A899CA
:104F5F00B8130CC2983098FDA899C298B811F630C2
:074F6F0099FDC299F599229A
:00000001FF
