:0300000002535E4A
:0C535E00787FE4F6D8FD7581210253A58C
:105CA3001263161258181267B51267E11268B6121A
:105CB30068101265F41267C575B10CE4F5B27F7B09
:0F5CC300FE125C461233A4120E4F12004680F8F8
:030023000265343F
:06653400C0E0C083C0823C
:10653A00900537E4F0309802C298309904C299C2A3
:01654A000947
:07654B00D082D083D0E032C2
:0300430002660D45
:10660D00C0E0E59A30E003539AFEE59A30E1055378
:07661D009AFDC209D0E03232
:09681B002009FDEFD209F59922D4
:105BDA00900609EBF0A3EAF0A3E9F0900609E0FBCE
:105BEA00A3E0FAA3E0F91223DF6017900609A3E401
:105BFA0075F0011224C0A9F0FA1223DFFF12681B04
:035C0A0080D9221C
:096824002009FDEFD209F59B22C9
:105C0D0090060CEBF0A3EAF0A3E9F090060CE0FB94
:105C1D00A3E0FAA3E0F91223DF601790060CA3E4CA
:105C2D0075F0011224C0A9F0FA1223DFFF126824C7
:035C3D0080D922E9
:10631600E5A2543FF5A253BAFE759850759A50758A
:10632600D7C875D6FE758E14438E01D2AC75AF01F3
:03633600D2AF22C1
:0B56C900900391EBF0A3EAF0A3E9F0DE
:1056D4009003BC7401F0A37403F0A37494F09003DA
:1056E40091E0F9A3E0FAA3E0900603C9F0A3EAF07D
:1056F400A3E9F09003BCE0F9A3E0FAA3E090060666
:10570400C9F0A3EAF0A3E9F07B017A0379BF125947
:0A571400A57B017A0379BF025BDA7E
:102634000000000000FF002601020E0F00FF00064C
:102644000203011500FF61630304021900FF61AE78
:102654000405031D00FF61D20506041F00FF61F697
:102664000607052000FF621A0708062100FF623EE4
:102674000809072600FF6262090A082A00FF628629
:102684000A0B092C00FF62AA0B0C0A0B00FF001EA8
:102694000C0D0B0C00FF69DD0D0E0C0D00FF69E243
:1026A4000E010D0E00FF000E0F0F0F1001FF5AB5A3
:1026B4001010101101FF5D7C1111111201FF5DA4B6
:1026C4001212121301FF62CE1313131401FF62F2EC
:1026D4001414140F01FF5DCC1516183502FF66E0C3
:1026E4001617153902FF66F21718163D02FF670424
:1026F4001815174102FF6716191A1C4503FF6728AE
:102704001A1B194903FF673A1B1C1A4D03FF674C38
:102714001C191B5103FF675E1D1E1E5204FF69E74F
:102724001E1D1D5304FF69EC1F1F1F1F05FF683684
:102734002020202006FF683E2122625407FF69F111
:102744002223215507FF69F62324225607FF69FB3C
:102754002425235707FF6A002560245807FF6A05CC
:102764002627295908FF6A0A2728265A08FF6A0FCC
:102774002829275B08FF6A142926285C08FF6A19A0
:102784002A2B2B5D09FF67D32B2A2A5E09FF6A1EB9
:102794002C2D2D000AFF6A232D2C2C000AFF6A28F9
:1027A4002E2E2E000BFF65A82F2F2F000CFF68463E
:1027B400303030000DFF684E313131000EFF58BA11
:1027C4003232323515FF642E3333333215FF6552FE
:1027D4003434343315FF64503535353415FF6472A1
:1027E4003636363916FF5DF43737373616FF633918
:1027F4003838383716FF5E1C3939393816FF5E44CD
:102804003A3A3A3D17FF5E6C3B3B3B3A17FF635C39
:102814003C3C3C3B17FF5E943D3D3D3C17FF5EBC9A
:102824003E3E3E4118FF5EE43F3F3F3E18FF637F5C
:102834004040403F18FF5F0C4141414018FF5F3466
:102844004242424519FF5F5C4343434219FF63A27E
:102854004444444319FF5F844545454419FF5FAC34
:10286400464646491AFF5FD4474747461AFF63C5A1
:10287400484848471AFF5FFC494949481AFF602401
:102884004A4A4A4D1BFF604C4B4B4B4A1BFF63E8C3
:102894004C4C4C4B1BFF60744D4D4D4C1BFF609CCE
:1028A4004E4E4E511CFF60C44F4F4F4E1CFF640BE5
:1028B4005050504F1CFF60EC515151501CFF61149B
:1028C400525252521DFF6856535353531EFF685EB3
:1028D4005454545421FF68665555555522FF686E6B
:1028E4005656565623FF68765757575724FF656F39
:1028F4005858585825FF687E5959595926FF67700A
:102904005A5A5A5A27FF68865B5B5B5B28FF688EBE
:102914005C5C5C5C29FF68965D5D5D5D2AFF5B6BBA
:102924005E5E5E5E2BFF59585F5F5F5F5FFF64947E
:102934006062256107FF6A2D6161616160FF689EC5
:102944006221606307FF6A326363636362FF68A6A0
:101A760041053C0041056E0041053D00450541001C
:101A86000000010045054B00000001004505560019
:101A96000000010045056200000001004505460002
:101AA60000000100450551000000010045055D00EC
:101AB60000000100450568000000010041055001D5
:101AC60041055C0141055B004105670041056D006C
:101AD600410570024105730041057606410578030C
:101AE6004105790141057A0041056F0B41057200F8
:101AF60041057500410577004105710241057400F5
:0C1B060041053A0141057B0141053B010E
:10506400E49004C2F0A3F043903CE590543C643CCB
:1050740070030251081267C5E590543C643C700308
:1050840002510812697190053DE0645E602912685E
:10509400FFEF601190053DE0D3940E40047F018042
:1050A400067F0080027F01EF600D1266A61267C5BD
:1050B4007F787E00125C4690053C7401F0E59054C4
:1050C4003CFF9004C2E4F0A3EFF09004C2E070044B
:1050D400A3E06438700812695F7F01126953E59098
:1050E400543CFFBF3CF81267C5E590543CFFBF3CFD
:1050F400F8E4FF126953E4FF12696B9004C2E0FE06
:08510400A3E0FF227E0F7FFFF4
:01510C002280
:10499700E49004C0F0A3F0FF1250649004C0EEF05E
:1049A700A3EFF01269C59004C0E0640F7003A3E0A1
:1049B700F46003024A71EF64016003024A719005D3
:1049C7003DE0FF601C640B6018EF640C6013EF643C
:1049D7000D600EEF640E6009EF642D6004EFB42CD8
:1049E7002A9005B2E0540FFFBF080890056EE00457
:1049F700F08005E490056EF090056EE0D3940340D7
:104A07000A7F14126977E490056EF01269CB90055E
:104A1700B2E0540F24FE601B24FE602624FC6031A4
:104A270024077046126989EF70409004C0F0A374A0
:104A37001C8031126989EF70319004C0F0A374347F
:104A47008022126989EF70229004C0F0A3742C8031
:104A570013126983EF7013126989EF700D9004C008
:104A6700F0A37438F07F0512698F9004C0E0FEA3AD
:104A7700E0FFEE701DEF24D4601224F8600B24FCD5
:104A8700600D241C700C7F03227F02227F01227F8E
:044A970000227FFF7B
:014A9B0022F8
:100E4F00E4FF9004BFF0124997EF147003021144AE
:100E5F001470030215FA14700302111E24036003A9
:100E6F00021A48126941EF700690053DE0601212B8
:100E7F006941EF6401702290053DE0FF6003B45FAC
:100E8F00181269599004BFEFF0C394145003021A5B
:100E9F004890053D7402020FF290053DE0FF644259
:100EAF00600FEF6443600AEF64446005EF644570C0
:100EBF002D1269599004BFEFF0C3940A40657B016E
:100ECF007A05794612488F405712692FBF010C7F60
:100EDF00797E00125C46E4FF126935020FBD900562
:100EEF003DE0FF6446600FEF6447600AEF644860BF
:100EFF0005EF644970301269599004BFEFF0C39445
:100F0F000A40207B017A0579511240CE40121269B6
:100F1F002FBF010C7F797E00125C46E4FF1269350A
:100F2F00020FBD020FC390053DE0FF644A600FEF53
:100F3F00644B600AEF644C6005EF644D702E1269CC
:100F4F00599004BFEFF0C3940A401F7B017A0579D3
:100F5F005D123E7A401212692FBF010C7F797E001D
:100F6F00125C46E4FF1269358044804890053DE0ED
:100F7F00FF644E600FEF644F600AEF64506005EF3F
:100F8F00645170431269599004BFEFF0C3940A4043
:100F9F00237B017A057968123FA4401212692FBF93
:100FAF00010C7F797E00125C46E4FF1269351267EF
:100FBF00C502111890053DE075F008A42437F5829D
:100FCF00E5F03426021A4090053DE0B40B1E12697D
:100FDF00599004BFEFF0C394145003021A489005C0
:100FEF003D742EF07F0612680502111890053DE042
:100FFF00B40C1E1269599004BFEFF0C39414500340
:10100F00021A4890053D742FF07F061268050211F1
:10101F001890053DE0B40D1E1269599004BFEFF012
:10102F00C394145003021A4890053D7430F07F06A4
:10103F0012680502111890053DE0B40E1E12695991
:10104F009004BFEFF0C394145003021A4890053D6B
:10105F007431F07F0612680502111890053DE0B457
:10106F002D281269599004BFEFF0C3941450030256
:10107F001A487F797E00125C461257C712523F758D
:10108F00C7207F0612680502111890053DE0642CF9
:10109F00705F1269599004BFEFF0C39414500302AC
:1010AF001A487F797E00125C461257C7125B2F12C7
:1010BF00523F7B017A0379769005017410F07D0021
:1010CF007C157FA012572D1267C57B017A007946D8
:1010DF009005017410F0FD7C157FA012572D12673B
:1010EF00C51256141267C575C7207F061268058092
:1010FF001890053DE075F008A42437F582E5F0342B
:10110F0026F583E49390053DF012695F021A48902B
:10111F00053DE0B45F0C126941EF60061254D7022F
:10112F001A4890053DE075F008A42438F582E5F0E3
:10113F003426021A4090053DE012257011FD0F1262
:10114F000F10121F11122F12123F1312511414C22B
:10115F001F14D42015B62F15A53012633212753314
:10116F0012873412993512AB3612BD3712CF38129F
:10117F00E13912F33A13053B13173C13293D133B87
:10118F003E134D3F135F4013714113834213954339
:10119F0013A74413B94513CB4613DD4713EF481478
:1011AF00014914134A14254B14374C14494D145B41
:1011BF004E146D4F147F5014915114A25214B25308
:1011CF0014E65414F855150856151B57152C5815B9
:1011DF003D59154E5A155F5B156F5C157F5D158D6B
:1011EF005E15A05F15C66115D663000015E7900563
:1011FF00CAE0B46305E4F00215E79005CA02159B37
:10120F009005CBE0B40C030214B99005CB02159BEB
:10121F009005CCE0B41F030214B99005CC02159BC6
:10122F009005D0E0B407030214B99005D002159BC6
:10123F009005CDE0B41705E4F00215E79005CD0257
:10124F00159B9005CEE0B43B05E4F00215E7900541
:10125F00CE02159B900541E0B41405E4F00215E7AA
:10126F0090054102159B900542E0B40905E4F00298
:10127F0015E790054202159B900543E0B40905E47C
:10128F00F00215E790054302159B900544E0B40961
:10129F0005E4F00215E790054402159B90054BE01D
:1012AF00B41405E4F00215E790054B02159B900569
:1012BF004CE0B40905E4F00215E790054C02159BCC
:1012CF0090054DE0B40905E4F00215E790054D02D5
:1012DF00159B90054EE0B40905E4F00215E7900563
:1012EF004E02159B900556E0B41405E4F00215E785
:1012FF0090055602159B900557E0B40905E4F002DE
:10130F0015E790055702159B900558E0B40905E4C1
:10131F00F00215E790055802159B900559E0B409A6
:10132F0005E4F00215E790055902159B900562E060
:10133F00B41405E4F00215E790056202159B9005C1
:10134F0063E0B40905E4F00215E790056302159B0D
:10135F00900564E0B40905E4F00215E79005640216
:10136F00159B900565E0B40905E4F00215E79005BB
:10137F006502159B900546E0B41405E4F00215E7ED
:10138F0090054602159B900547E0B40905E4F0026D
:10139F0015E790054702159B900548E0B40905E451
:1013AF00F00215E790054802159B900549E0B40936
:1013BF0005E4F00215E790054902159B900551E0F1
:1013CF00B41405E4F00215E790055102159B900542
:1013DF0052E0B40905E4F00215E790055202159B9F
:1013EF00900553E0B40905E4F00215E790055302A8
:1013FF00159B900554E0B40905E4F00215E790053C
:10140F005402159B90055DE0B41405E4F00215E756
:10141F0090055D02159B90055EE0B40905E4F002AE
:10142F0015E790055E02159B90055FE0B40905E492
:10143F00F00215E790055F02159B900560E0B40977
:10144F0005E4F00215E790056002159B900568E032
:10145F00B41405E4F00215E790056802159B90059A
:10146F0069E0B40905E4F00215E790056902159BE0
:10147F0090056AE0B40905E4F00215E790056A02E9
:10148F00159B90056BE0B40904E4F0800690056BA2
:10149F00E004F0900550E0B401030215AC90055044
:1014AF000215E490055CE0B463030215E490055C5B
:1014BF0002159B90055BE0B46305E4F00215E7901D
:1014CF00055B02159B900567E0B46305E4F0021518
:1014DF00E790056702159B90056DE0B40705E4F0F2
:1014EF000215E790056D02159B900570E0B4090396
:1014FF000215E490057002159B900573E0700504CA
:10150F00F00215E7E4900573F00215E7900576E019
:10151F00B40905E4F00215E7900576806F90057821
:10152F00E0B40705E4F00215E7900578805E9005BA
:10153F006FE0B40A05E4F00215E790056F804D9057
:10154F000572E0B40B05E4F00215E7900572803CDC
:10155F00900575E0B40B04E4F0807D900575802C48
:10156F00900577E0B40B04E4F0806D900577801C54
:10157F00900571E0B40102802490057180579005A9
:10158F0074E0B42604E4F0804F900574E004F0801A
:10159F0047124FAC804290057BE0B401057402F016
:1015AF00803690057B802E90053AE0B40104E4F07C
:1015BF00802690053A801E900579E0B40104E4F08E
:1015CF008016900579800E90057AE0B40104E4F05E
:1015DF00800690057A7401F090053DE075F008A43F
:1015EF002435F582E5F03426021A4090053DE012CD
:1015FF00257016B30F16C21016D51116E81216F86D
:10160F0013170A14191B1F19292019FF2F19EE3050
:10161F00171C32172B33173A34174935175836170B
:10162F00673717763817853917943A17A33B17B2D0
:10163F003C17C13D17D03E17DF3F17EE4017FD4156
:10164F00180C42181B43182A4418394518484618D5
:10165F00564718654818744918834A18914B18A0B3
:10166F004C18AF4D18BE4E18D04F18DF5018EE5112
:10167F0018FC52190C53193B54194955195856193E
:10168F006B57197C58198D59199E5A19AB5B19B89C
:10169F005C19C85D19D65E19E95F1A0F611A1F63CD
:1016AF0000001A309005CAE0700302192F9005CA86
:1016BF000219E49005CBE0B40106740CF0021A3065
:1016CF009005CB0219E49005CCE0B40106741FF02D
:1016DF00021A309005CC0219E49005D0E0B4010352
:1016EF000219829005D00219E49005CDE0700674BE
:1016FF0017F0021A309005CD0219E49005CEE07074
:10170F0006743BF0021A309005CE0219E4900541A1
:10171F00E070030218C49005410219E4900542E0FD
:10172F0070030219719005420219E4900543E070AD
:10173F00030219719005430219E4900544E0700308
:10174F000219719005440219E490054BE0700302F1
:10175F0018C490054B0219E490054CE07003021970
:10176F007190054C0219E490054DE0700302197158
:10177F0090054D0219E490054EE070030219719027
:10178F00054E0219E4900556E070030218C4900547
:10179F00560219E4900557E070030219719005572E
:1017AF000219E4900558E070030219719005580270
:1017BF0019E4900559E07003021971900559021947
:1017CF00E4900562E070030218C49005620219E408
:1017DF00900563E070030219719005630219E4909C
:1017EF000564E070030219719005640219E4900515
:1017FF0065E070030219719005650219E4900546C2
:10180F00E070030218C49005460219E4900547E002
:10181F0070030219719005470219E4900548E070B2
:10182F00030219719005480219E4900549E070030D
:10183F000219719005490219E4900551E070028078
:10184F00749005510219E4900552E070030219716A
:10185F009005520219E4900553E07003021971903C
:10186F0005530219E4900554E070030219719005B5
:10187F00540219E490055DE07002803990055D0215
:10188F0019E490055EE0700302197190055E02196C
:10189F00E490055FE0700302197190055F0219E48F
:1018AF00900560E070030219719005600219E490D1
:1018BF000568E070067414F0021A3090056802197A
:1018CF00E4900569E070030219719005690219E44B
:1018DF0090056AE0700302197190056A0219E4908D
:1018EF00056BE07002807B90056B0219E490055048
:1018FF00E0B401030219F5900550021A2D90055C12
:10190F00E0B40102801A90055C0219E490055BE0D7
:10191F007002800C90055B0219E4900567E0700679
:10192F007463F0021A309005670219E490056DE0B8
:10193F007002803F90056D0219E4900570E0B401CC
:10194F0002801F9005700219E4900573E070050482
:10195F00F0021A30E4900573F0021A30900576E029
:10196F0070067409F0021A30900576806890057839
:10197F00E070067407F0021A3090057880579005D2
:10198F006FE07006740AF0021A3090056F8046906F
:10199F000572E0700280189005728039900575E02D
:1019AF007002800B900575802C900577E0700574A0
:1019BF000BF0806D900577801C900571E0B40102EB
:1019CF0080249005718057900574E070057426F09F
:1019DF00804F900574E014F08047124A9C8042902B
:1019EF00057BE0B401057402F0803690057B802EF4
:1019FF0090053AE0B40104E4F0802690053A801E89
:101A0F00900579E0B40104E4F08016900579800E1A
:101A1F0090057AE0B40104E4F0800690057A740131
:101A2F00F090053DE075F008A42436F582E5F0341A
:101A3F0026F583E49390053DF012523F90053DE06B
:101A4F0075F008A42439F582E5F03426F583E49384
:101A5F00FB740193FA740293F990053EEBF0A3EA3D
:071A6F00F0A3E9F002259647
:0D67C5007F047E347DDCDDFEDEFADFF600B1
:0167D20022A4
:0568BD0090053DE0FF25
:0168C20022B3
:0668C30090053DEFF022FC
:0568C900900550E0FF06
:0168CE0022A7
:0568CF0090055CE0FFF4
:0168D40022A1
:0568D50090055BE0FFEF
:0168DA00229B
:0568DB00900567E0FFDD
:0168E0002295
:0568E10090056DE0FFD1
:0168E600228F
:0568E700900570E0FFC8
:0168EC002289
:0568ED00900573E0FFBF
:0168F2002283
:0568F300900576E0FFB6
:0168F800227D
:0568F900900578E0FFAE
:0168FE002277
:0568FF00900579E0FFA7
:016904002270
:0569050090057AE0FF9F
:01690A00226A
:05690B0090056FE0FFA4
:016910002264
:05691100900572E0FF9B
:01691600225E
:05691700900575E0FF92
:01691C002258
:05691D00900577E0FF8A
:016922002252
:05692300900571E0FF8A
:01692800224C
:05692900900574E0FF81
:01692E002246
:05692F0090053CE0FFB3
:016934002240
:0669350090053CEFF0228A
:05693B0090057BE0FF68
:016940002234
:0569410090053AE0FFA3
:01694600222E
:10523F00900550E09005D9F090055CE09005DAF00C
:10524F0090055BE09005DBF0900567E09005DCF0E2
:10525F0090056DE09005DDF0900570E09005DEF0B3
:10526F00900573E09005DFF0900576E09005E0F093
:10527F00900578E09005E1F0900579E09005E2F077
:10528F0090057AE09005E3F090056FE09005E4F06B
:10529F00900571E09005E5F090053AE09005E6F095
:1052AF0090057BE09005E7F07B017A0579D99005B1
:1052BF0001740FF07D207C157FA012572D0267C55A
:1033A4007B017A0379769005367410F07D007C15E4
:1033B4007FA01254701267C57B017A00794690058C
:1033C400367410F0FD7C157FA01254701267C57B13
:1033D400017A0579D9900536740FF07D207C157F2C
:1033E400A01254701267C59005D9E0FF900550F003
:1033F4009005DAE090055CF09005DBE090055BF069
:103404009005DCE0900567F09005DDE090056DF037
:103414009005DEE0900570F09005DFE0900573F014
:103424009005E0E0900576F09005E1E0900578F0F5
:103434009005E2E0900579F09005E3E090057AF0DC
:103444009005E4E090056FF09005E5E0900571F0DB
:103454009005E6E090053AF09005E7E090057BF0F2
:10346400EFD3940240069005507401F09005DAE021
:10347400D39463400690055C7401F09005DBE0D3BF
:103484009463400690055B7401F09005DCE0D394EE
:103494006340069005677401F09005DDE0D394075E
:1034A4004005E490056DF09005DEE0D394094006F4
:1034B4009005707402F09005DFE0D394014005E4B8
:1034C400900573F09005E0E0D394094006900576EA
:1034D4007406F09005E1E0D39407400690057874F3
:1034E40003F09005E2E0D394014005E4900579F0FF
:1034F4009005E3E0D394014005E490057AF090054B
:10350400E4E0D3940A400690056F740AF09005E550
:10351400E0D3940240069005717402F09005E6E051
:10352400D39401400690053A7401F09005E7E0D386
:0B3534009402400690057B7401F02219
:1057C7009005507401F090055CF0E490055BF09053
:1057D7000567F090056DF09005707402F0E4900590
:1057E70073F09005767406F09005787403F0A3744F
:1057F70001F090056F740AF0E4900572F09005755A
:10580700F0900577F09005717402F0E4900574F05C
:01581700226E
:105B2F007F109003767401F0A3DFFC9000467401A0
:105B3F00F0E4A3F0A37403F0A37405F0A37402F0D0
:105B4F00A314F0A3F0A37406F0A37401F0A3F0A3C1
:0B5B5F00F0A3F0A3F0A3F0A3F0A3F06C
:015B6A002218
:1064D60000000000000000000000000000000000B6
:1064E60000000000000000000000000000000000A6
:101B12005500313F065B4F666D7D077F6F777C39DD
:101B22005E797176385C733E4803860102040810C0
:101B320020408042038E400060300001000000001F
:101B42000000000000000000000000000000000093
:101B52000000000000000000000000000000000083
:101B6200000000000000000000000000632000569A
:101B72000000000000000000000000000000000063
:101B82000000000000000000000000000000000053
:101B92000000000000000000000000000000000043
:101BA2000000000000000000000000000000000033
:101E9200410000004103900050037601010101015D
:101EA200010101010101010101010150004601008E
:0E1EB200030502010106010101010101010108
:105CD200C282E4FDFCC280EF30E004D2818002C2C5
:105CE2008100000000D280EFC313FF0DBD00010C44
:0A5CF200ED64084C70DFC280C2812F
:015CFC002285
:105CFD00C283E4FDFCC280EF30E004D2818002C299
:105D0D008100000000D280EFC313FF0DBD00010C18
:0A5D1D00ED64084C70DFC280C28103
:015D27002259
:105D2800C2CCE4FDFCC280EF30E004D2818002C224
:105D38008100000000D280EFC313FF0DBD00010CED
:0A5D4800ED64084C70DFC280C281D8
:015D5200222E
:09663B00AE077F401266447FC0E7
:0D664400D282000000000000C282025CD281
:0C65C200126644D2827F401265CE7FC07A
:0D65CE00D283000000000000C283025CFDCB
:0C65DB001265CED2837F401265E77FC0BE
:0D65E700D2CC000000000000C2CC025D28F4
:0551AD00E4900003F096
:1051B2001268F912663BE4FB74012BF582E43400B9
:1051C200F583E0FF125CD274092BF582E43400F51A
:1051D20083E0FF125CD20BEBB408DDEE2488FF12F1
:1051E20065C2E4FB74112BF582E43400F583E0FF21
:1051F200125CFD74192BF582E43400F583E0FF1292
:105202005CFD0BEBB408DDEE2488FF1265DBE4FBEA
:1052120074212BF582E43400F583E0FF125D2874DB
:10522200292BF582E43400F583E0FF125D280BEBB5
:0C523200B408DDEE2488FF1265E7D2CC42
:01523E00224D
:1059EF0012663BE4FBAF06125CD2AF06125CD20B21
:1059FF00EBB408F17F8F1265C2E4FBAF06125CFDBA
:105A0F00AF06125CFD0BEBB408F17F8F1265DBE480
:105A1F00FBAF06125D28AF06125D280BEBB408F141
:075A2F007F8F1265E7D2CC66
:015A3600224D
:10581800E49004BFF0E4FFE4FE9004BFE02486F5C2
:1058280082E43403F583E0FDEF75F008A42401F564
:1058380082E43400F583E5822EF582E43583F5832E
:10584800EDF00EEEB408D20FEFB406CB1251B27FD2
:105858001E1266CE9004BFE004F0E0C3940840B581
:01586800221D
:1066CE00EFD39400400B7EFF7DFFDDFEDEFA1F80D0
:0166DE00EFCC
:0166DF002298
:105D5300E4FFE4FEEF75F008A42401F582E43400C7
:105D6300F583E5822EF582E43583F583E4F00EEEC8
:085D7300B408E10FEFB406DAF9
:015D7B002205
:0A67EF007F78900056E4F0A3DFFC71
:0167F900227D
:105BA500E4FF126947EF6401702A125D539000000B
:105BB500E05403FF2401F582E43400F5837440F0DA
:105BC5001251B2E4FF12694D900000E004F0E0B418
:045BD5000402E4F0F2
:015BD90022A9
:10466B00125D531253EA900033E0900010F090006B
:10467B0031E090000FF09005CAE0FF75F00A84243A
:10468B0031F582E43400F583E090000EF0EF75F025
:10469B000A84743125F0F582E43400F583E0900050
:1046AB000DF090000C7440F09005CBE0FF75F00A14
:1046BB00842431F582E43400F583E090000BF0EFB5
:1046CB0075F00A84743125F0F582E43400F583E04B
:1046DB0090000AF09000097440F09005CCE0FF7553
:1046EB00F00A842431F582E43400F583E09000086D
:1046FB00F0EF75F00A84743125F0F582E43400F59F
:10470B0083E0900007F09005D0E02431F582E4348B
:10471B0000F583E0900006F09005CDE0FF75F00A00
:10472B00842431F582E43400F583E0900004F0EF4B
:10473B0075F00A84743125F0F582E43400F583E0DA
:10474B00900003F09005CEE0FF75F00A842431F55C
:10475B0082E43400F583E0900002F0EF75F00A84F8
:10476B00743125F0F582E43400F583E0900001F01C
:03477B000251B236
:1064F600AD07125D53900040E0900002F074312D1C
:0F650600F582E43400F583E0900001F00251B219
:10651500AD07125D5390003FE0900002F074312DFD
:0F652500F582E43400F583E0900001F00251B2FA
:10669200125D53900031E0900002F09000017437D7
:0466A200F00251B2FF
:10665100125D53900031E0900002F0900040E09014
:066661000001F00251B23D
:10662400AD07125D5374312DF582E43400F583E037
:07663400900001F00251B2D9
:105C7300AD07125D53ED75F00A842431F582E434E7
:105C830000F583E0900002F0ED75F00A847431258D
:105C9300F0F582E43400F583E0900001F00251B2A4
:1055B500AB07AA06125D537C007D64AF03AE0212F1
:1055C500246B74312FF58274003EF583E09000035F
:1055D500F07C007D0AAF03AE0212246B7C007D0ACD
:1055E50012246B74312DF58274003CF583E0900034
:1055F50002F0AE02AF037C007D0A12246B74312DDC
:0F560500F58274003CF583E0900001F00251B291
:065670007B017A0579417F
:10567600125D531223DF2431F582E43400F583E012
:10568600900004F09000011223F82431F582E434EE
:1056960000F583E0900003F09000021223F8243115
:1056A600F582E43400F583E0900002F090000312E6
:1056B60023F82431F582E43400F583E0900001F00C
:0356C6000251B2DC
:10382500125D539000AEE060179004FB7401F0A3A5
:103835007400F0A374AEF07B017A007930122E4E3D
:103845009000A6E060179004FB7401F0A37400F0EB
:10385500A374A6F07B017A00792C122E4E90009E5F
:10386500E060179004FB7401F0A37400F0A3749E4C
:10387500F07B017A007928122E4E900096E06017B1
:103885009004FB7401F0A37400F0A37496F07B011F
:103895007A007924122E4E90008EE060179004FB7A
:1038A5007401F0A37400F0A3748EF07B017A0079A3
:1038B50020122E4E900086E060179004FB7401F0F4
:1038C500A37400F0A37486F07B017A00791C122E94
:1038D5004E90007EE060179004FB7401F0A3740025
:1038E500F0A3747EF07B017A007918122E4E9000B9
:1038F50076E060179004FB7401F0A37400F0A374E4
:1039050076F07B017A007914122E4E90006EE060FD
:10391500179004FB7401F0A37400F0A3746EF07BA0
:10392500017A007910122E4E900066E0601790041F
:10393500FB7401F0A37400F0A37466F07B017A00B8
:10394500790C122E4E90005EE060179004FB740116
:10395500F0A37400F0A3745EF07B017A007908127D
:103965002E4E900056E060179004FB7401F0A3748E
:1039750000F0A37456F07B017A007904122E4E22D2
:102E4E009004F8EBF0A3EAF0A3E9F0A3E0FBA3E013
:102E5E00FAA3E0F99000011223F82431F582E4344C
:102E6E0000F583E0FF9004F8E0FBA3E0FAA3E0F99D
:102E7E00EF1224259004FBE0FBA3E0FAA3E0F99007
:102E8E0000021223F82431F582E43400F583E0FFCA
:102E9E009004F8E0FBA3E0FAA3E0F990FFFFEF1235
:102EAE0024379004FBE0FBA3E0FAA3E0F9900003C3
:102EBE001223F82431F582E43400F583E0FF900408
:102ECE00F8E0FBA3E0FAA3E0F990FFFEEF1224373F
:102EDE009004FBE0FBA3E0FAA3E0F99000041223B8
:102EEE00F82431F582E43400F583E0FF9004F8E035
:102EFE00FBA3E0FAA3E0F990FFFDEF122437900454
:102F0E00FBE0FBA3E0FAA3E0F99000051223F854CE
:102F1E000F24FD6036147003022FB124FD700302DE
:102F2E002FF614700302300924066003023022903B
:102F3E0004F8E0FBA3E0FAA3E024FDF9EA34FFFA7B
:102F4E001223DF4480122425022FF69004F8E0FBB2
:102F5E00A3E0FAA3E024FDF9EA34FFFA1223DF44DA
:102F6E00801224259004F8E0FBA3E0FAA3E024FEEF
:102F7E00F9EA34FFFA1223DF44801224259004F874
:102F8E00E0FBA3E0FAA3E024FFF9EA34FFFA1223F0
:102F9E00DF44801224259004F8E0FBA3E0FAA3E0BE
:102FAE00F980699004F8E0FBA3E0FAA3E024FDF9B0
:102FBE00EA34FFFA1223DF44801224259004F8E04D
:102FCE00FBA3E0FAA3E024FEF9EA34FFFA1223DFB2
:102FDE0044801224259004F8E0FBA3E0FAA3E02439
:102FEE00FFF9EA34FFFA80249004F8E0FBA3E0FA3C
:102FFE00A3E024FEF9EA34FFFA80119004F8E0FB16
:10300E00A3E0FAA3E024FDF9EA34FFFA1223DF4429
:05301E008012242522B0
:104B95009004EAEBF0A3EAF0A3E9F0A3E0FBA3E0BD
:104BA500FAA3E0F91223DFFF9004EAE0FBA3E0FAA1
:104BB500A3E0F9EF1224259004EDE0FBA3E0FAA3AE
:104BC500E0F99000011223F8FF9004EAE0FBA3E06E
:104BD500FAA3E0F9900001EF1224379004EDE0FB11
:104BE500A3E0FAA3E0F99000021223F8FF9004EA8B
:104BF500E0FBA3E0FAA3E0F9900002EF122437905E
:104C050004EDE0FBA3E0FAA3E0F99000031223F81A
:104C1500FF9004EAE0FBA3E0FAA3E0F9900003EFBC
:104C25001224379004EDE0FBA3E0FAA3E0F990002D
:104C3500041223F8FF9004EAE0FBA3E0FAA3E0F9ED
:104C4500900004EF1224379004EDE0FBA3E0FAA3F3
:104C5500E0F99000071223F8FF9004EAE0FBA3E0D7
:0B4C6500FAA3E0F9900005EF022437ED
:09590A002456F974003EFA7B01F9
:105913001223DF9000081224379000011223F8901D
:1059230000091224379000021223F890000A12246F
:10593300379000031223F890000B122437900004D1
:105943001223F890000C1224379000051223F890CC
:05595300000D022437E5
:0F577300EF75F008A42456F9740035F0FA7B01A5
:105782009000081223F81224259000091223F890A1
:10579200000112243790000A1223F890000212240A
:1057A2003790000B1223F890000312243790000C5C
:1057B2001223F890000412243790000D1223F8905F
:0557C200000502243780
:10353F0078EE7C047D017BFF7A6479D67E007F086C
:10354F001223B9E49004F6F0A3F01268ED9004F69C
:10355F00EFF01268E19004F7EFF01268DB9004ECE3
:10356F00EFF01268D59004EDEFF01269659004ED5D
:10357F00E0FE9004ECE0FDC39E500AEF9D4006EE86
:10358F006003E0701B9004EDE060030236BA900414
:10359F00ECE0FE70030236BAEFD39E50030236BA48
:1035AF00E49004EAF09004EAE0FFC3940A5022EF9B
:1035BF0075F008A42456F582740035F0F583E07099
:1035CF00089004EAE0A3F080089004EAE004F08099
:1035DF00D4E49004EAF09004EBE024FFFFE434FF1E
:1035EF00FEEF7803C333CE33CED8F9FF9004EAE071
:1035FF00FD7A002FFFEA3EFE74562FF58274003ECF
:10360F00F583E0FF74EE2DF582E43404F583EFF0DB
:10361F009004EAE004F0E0B406BC9004EBE0900400
:10362F00EAF09004EAE0FFD39401401DEF24FEFF7F
:10363F00E434FFFEEF7803C333CE33CED8F91259FB
:10364F000A9004EAE014F080D9E49004EAF09004C0
:10365F00EAE0FF24EEF582E43404F583E0FE7456CD
:10366F002FF582E43400F583EEF09004EAE004F0E5
:10367F00E0B406DA1238251251B2E4FF12696B90EA
:10368F0004F6E0B401257B017A007956900056E0EC
:10369F00FD9004FCE4F0A3EDF090005BE0540F907C
:0B36AF0004FEF09004F7E0FF122C0274
:0136BA0022ED
:10443300E49004F0F0A3F01268DB9004EBEFF012C9
:1044430068D59004ECEFF01269659004EDEFF0127B
:1044530068CF9004EEEFF01268C99004EFEFF0120A
:1044630068E79004F1EFF09004EBE0FFA3E0FEC3F4
:104473009F500EA3E09E4009EF60069004ECE070AD
:104483001A9004EBE06003024550A3E0FF700302BF
:104493004550A3E0D39F5003024550E49004EAF053
:1044A3009004EEE014FD9004EAE0FFC39D500B126C
:1044B30057739004EAE004F080E6ED33333354F8A5
:1044C3009004EAF09004EEE075F008A4FF9004EA8B
:1044D300E0FDC39FE5F06480F8748098501474562F
:1044E3002DF582E43400F583E4F09004EAE004F06F
:1044F30080D21238251251B2E4FF12696B90005634
:10450300E07004FF0268C39004EFE06402703E9021
:1045130004EAF09004F1E0FF9004EAE0C39F502D19
:104523007B017A007956900056E0FD9004FCE4F09C
:10453300A3EDF090005BE0540F9004FEF09004F0C4
:0D454300E0FF122C029004EAE004F080C6B4
:014550002248
:1054D700E49004C1F01268CF9004C1EFF0E49004A7
:1054E700C0F09004C1E014FD9004C0E0FFC39D50DC
:1054F7000B1257739004C0E004F080E6ED333333AA
:1055070054F89004C0F09004C1E075F008A4FF902F
:1055170004C0E0FDC39FE5F06480F87480985014E0
:1055270074562DF582E43400F583E4F09004C0E06E
:1055370004F080D21238251251B2900056E0700460
:04554700FF1268C324
:01554B00223D
:104FAC0078C17C047D017BFF7A6479DE7E007F060C
:104FBC001223B91268CF9004C0EFF01268CFAD077E
:104FCC00E4FCECC39D501CEC75F008A42456F5824F
:104FDC00740035F0F583E070079004C0ECF08003AA
:104FEC000C80DFE4FC74562CF582E43400F583E08D
:104FFC00FF74C12CF582E43404F583EFF00CECB4AF
:10500C0006E3E4FC9004C0E0FFECC39F5007EC12F5
:10501C0057740C80EFE4FC74C12CF582E43404F575
:10502C0083E0FD9004C0E024FFFFE434FFFEEF7842
:10503C0003C333CE33CED8F9FFEC7A002FFFEA3E10
:10504C00FE74562FF58274003EF583EDF00CECB433
:08505C0006C51238250251B20D
:104A9C0078C27C047D017BFF7A6479E47E007F061A
:104AAC001223B91268CF9004C1EFF01268CFAD0792
:104ABC00E49004C0F09004C0E0FFC39D5022EF7559
:104ACC00F008A42456F582740035F0F583E07008E4
:104ADC009004C0E0A3F080089004C0E004F080D5FE
:104AEC00E49004C0F09004C1E024FFFFE434FFFE26
:104AFC00EF7803C333CE33CED8F9FF9004C0E0FD7A
:104B0C007A002FFFEA3EFE74562FF58274003EF5B4
:104B1C0083E0FF74C22DF582E43404F583EFF0904A
:104B2C0004C0E004F0E0B406BC9004C1E09004C002
:104B3C00F09004C0E0FFD39401401DEF24FEFFE48D
:104B4C0034FFFEEF7803C333CE33CED8F912590AB3
:104B5C009004C0E014F080D9E49004C0F09004C03C
:104B6C00E0FF24C2F582E43404F583E0FE74562F92
:104B7C00F582E43400F583EEF09004C0E004F0E03C
:094B8C00B406DA1238250251B218
:0B31ED009004EAEBF0A3EAF0A3E9F085
:1031F80078F37C047D017BFF7A6479EA7E007F06A0
:103208001223B91268CF9004F1EFF01268CF90043E
:10321800F2EFF0E49004F0F09004F2E0FF9004F094
:10322800E0FEC39F4003023300EE75F008A4FFAE32
:10323800F09004EDE0FBA3E0FAA3E02FF9EA3EFAF0
:103248009000011223F8FD9004EAE0FBA3E0FAA342
:10325800E0F99000011223F86D60030232F7900440
:10326800EDE0FBA3E0FAA3E02FF9EA3EFA900002B2
:103278001223F8FF9004EAE0FBA3E0FAA3E0F99038
:1032880000021223F86F70679004F0E075F008A44C
:10329800FFAEF09004EDE0FBA3E0FAA3E02FF9EA1B
:1032A8003EFA9000031223F8FD9004EAE0FBA3E045
:1032B800FAA3E0F99000031223F8B505329004ED63
:1032C800E0FBA3E0FAA3E02FF9EA3EFA900004122B
:1032D80023F8FF9004EAE0FBA3E0FAA3E0F99000EA
:1032E800041223F8B507089004F0E0A3F0800990D1
:1032F80004F0E004F00232209004F1E0700312665A
:10330800A69004F1E09004F0F09004F2E0FD90043F
:10331800F0E0FFC39D5021EF75F008A4FF9004ED85
:10332800E0FBA3E0FAA3E02FF9EA35F0FA1257829E
:103338009004F0E004F080D19004F1E06D6048E47E
:103348009004F0F09004F0E0FDC394065039900426
:10335800F2E024FFFFE434FFFEEF7803C333CE33FB
:10336800CED8F9FF9004EDE0FBA3E0FAA3E02FF933
:10337800EA3EFAED7E0029F9EE3AFAE412242590A5
:1033880004F0E004F080BD9004EDE0FBA3E0FAA3B4
:0B339800E0F91223DF7004FF1268C38D
:0133A3002207
:0B36BB009004EAEBF0A3EAF0A3E9F0B2
:1036C60078F17C047D017BFF7A6479F07E007F06C9
:1036D6001223B91268CF9004F0EFF01268CFAD074D
:1036E600E4FCECC39D40030237C2EC75F008A4FF6E
:1036F6009004EDE0FBA3E0FAA3E02FF9EA35F0FA37
:103706009000011223F8FF9004EAE0FBA3E0FAA37D
:10371600E0F99000011223F86F60030237BEEC75E2
:10372600F008A4FF9004EDE0FBA3E0FAA3E02FF974
:10373600EA35F0FA9000021223F8FF9004EAE0FB63
:10374600A3E0FAA3E0F99000021223F86F7069EC87
:1037560075F008A4FF9004EDE0FBA3E0FAA3E02FC8
:10376600F9EA35F0FA9000031223F8FF9004EAE034
:10377600FBA3E0FAA3E0F99000031223F86F703878
:10378600EC75F008A4FF9004EDE0FBA3E0FAA3E0DB
:103796002FF9EA35F0FA9000041223F8FF9004EAB4
:1037A600E0FBA3E0FAA3E0F99000041223F8B507C2
:1037B600079004F0ECF080040C0236E89004F0E088
:1037C600FCECC39D501CEC75F008A4FF9004EDE0E2
:1037D600FBA3E0FAA3E02FF9EA35F0FA1257820CC0
:1037E60080DF9004F0E06D6035E4FCED24FFFFE43B
:1037F60034FFFEEF7803C333CE33CED8F9FF9004FF
:10380600EDE0FBA3E0FAA3E02FF9EA3EFAEC7E0036
:0E38160029F9EE3AFAE41224250CECB406CDA2
:013824002281
:10002600E4FF12693BEFB40107D2CD125BA5800352
:0C00360012466B126941BF01031267EF14
:01004200229B
:05000600E4FF0264F6B6
:10616300D2CD7F011264F612692FBF01181268FFA6
:10617300BF01121266A61267C57F6F7E00125C46CE
:06618300E4FF1269352261
:1061AE007F021264F612692FBF01181268FFBF0139
:1061BE00121266A61267C57F707E00125C46E4FF5F
:0461CE0012693522FB
:1061D2007F031264F612692FBF01181268FFBF0114
:1061E200121266A61267C57F717E00125C46E4FF3A
:0461F20012693522D7
:1061F6007F041264F612692FBF01181268FFBF01EF
:10620600121266A61267C57F727E00125C46E4FF14
:0462160012693522B2
:10621A007F051264F612692FBF01181268FFBF01C9
:10622A00121266A61267C57F737E00125C46E4FFEF
:04623A00126935228E
:10623E007F061264F612692FBF01181268FFBF01A4
:10624E00121266A61267C57F747E00125C46E4FFCA
:04625E00126935226A
:106262007F071264F612692FBF01181268FFBF017F
:10627200121266A61267C57F757E00125C46E4FFA5
:046282001269352246
:106286007F081264F612692FBF01181268FFBF015A
:10629600121266A61267C57F767E00125C46E4FF80
:0462A6001269352222
:1062AA007F091264F612692FBF01181268FFBF0135
:1062BA00121266A61267C57F777E00125C46E4FF5B
:0462CA0012693522FE
:05001E007F0A0264F6F8
:0569DD007F0B0264F6CF
:0569E2007F0C0264F6C9
:0D000E007F0D1264F6E4FF1267FAD2CD22D6
:105AB50012693BEFB401057F010268C3126947BF54
:105AC500010812466B7F0212694D126947BF03191F
:105AD500E4900010F090000FF090000EF090000D93
:0C5AE500F01251B2E4FF12694D1252CFD2
:015AF1002292
:105D7C00126947BF010812466B7F0212694D126906
:105D8C0047BF0311E490000BF090000AF01251B2DF
:085D9C00E4FF12694D0252CF31
:105DA400126947BF010812466B7F0212694D1269DE
:105DB40047BF0311E4900008F0900007F01251B2BD
:085DC400E4FF12694D0252CF09
:1062CE00126947BF010812466B7F0212694D1269AF
:1062DE0047BF030DE4900006F01251B2E4FF1269BD
:0462EE004D0252CF3C
:1062F200126947BF010812466B7F0212694D12698B
:1063020047BF030DE4900004F01251AEE4FF12699E
:046312004D0252CF17
:105DCC00126947BF010812466B7F0212694D1269B6
:105DDC0047BF0311E4900002F0900001F01251B2A1
:085DEC00E4FF12694D0252CFE1
:1066E0007F01126515E4900541F0A3F0A3F0A30427
:0266F000F02296
:1066F2007F02126515E490054BF0A3F0A3F0A3040A
:02670200F02283
:106704007F03126515E4900556F0A3F0A3F0A304EB
:02671400F02271
:106716007F04126515E4900562F0A3F0A3F0A304CC
:02672600F0225F
:106728007F01126515E4900546F0A3F0A3F0A304D9
:02673800F0224D
:10673A007F02126515E4900551F0A3F0A3F0A304BB
:02674A00F0223B
:10674C007F03126515E490055DF0A3F0A3F0A3049C
:02675C00F02229
:10675E007F04126515E4900568F0A3F0A3F0A3047E
:02676E00F02217
:0569E7007F01026515AF
:0569EC007F02026515A9
:08683600E4FF1268D5025C7357
:08683E00E4FF1268DB025C7349
:0569F1007F01026515A5
:0569F6007F020265159F
:0569FB007F0302651599
:056A00007F0402651592
:056A05007F050265158C
:056A0A007F010265158B
:056A0F007F0202651585
:056A14007F030265157F
:056A19007F0402651579
:0E67D3007F01126515126923900390EFF022EA
:056A1E007F0202651576
:056A23007F0102651572
:056A28007F020265156C
:1065A800E4FFFEFDFC12682DAC06AD077E277F10C8
:0A65B80012246BAC06AD070255B5C6
:08684600E4FF1269410266241F
:08684E00E4FF12693B0266241D
:1058BA0012697D9004C0EFF0D394145031E0FAC31A
:1058CA00940450028019EAD3941250139004C0E051
:1058DA00C3132484F582E43403F583E0FF80027F56
:1058EA00FF1259EF30A4077F3C7E00125C469004F9
:0F58FA00C0E0D394144006125D531251B2C2CDD8
:01590900227B
:10642E00126947BF01081256707F0212694D126938
:10643E0047BF030DE4900004F01251B2E4FF12695D
:02644E004D22DD
:10655200126947BF01081256707F0212694D126913
:0D65620047BF03081251ADE4FF12694D223E
:10645000126947BF01081256707F0212694D126916
:1064600047BF030DE4900002F01251B2E4FF12693D
:026470004D22BB
:10647200126947BF01081256707F0212694D1269F4
:1064820047BF030DE4900001F01251B2E4FF12691C
:026492004D2299
:105DF400126947BF010E7B017A05794B1256767FF3
:105E04000212694D126947BF030DE4900004F012B9
:085E140051B2E4FF12694D22B6
:10633900126947BF010E7B017A05794B1256767FA8
:106349000212694D126947BF03081251ADE4FF12E9
:03635900694D2269
:105E1C00126947BF010E7B017A05794B1256767FCA
:105E2C000212694D126947BF030DE4900002F01293
:085E3C0051B2E4FF12694D228E
:105E4400126947BF010E7B017A05794B1256767FA2
:105E54000212694D126947BF030DE4900001F0126C
:085E640051B2E4FF12694D2266
:105E6C00126947BF010E7B017A0579561256767F6F
:105E7C000212694D126947BF030DE4900004F01241
:085E8C0051B2E4FF12694D223E
:10635C00126947BF010E7B017A0579561256767F7A
:10636C000212694D126947BF03081251ADE4FF12C6
:03637C00694D2246
:105E9400126947BF010E7B017A0579561256767F47
:105EA4000212694D126947BF030DE4900002F0121B
:085EB40051B2E4FF12694D2216
:105EBC00126947BF010E7B017A0579561256767F1F
:105ECC000212694D126947BF030DE4900001F012F4
:085EDC0051B2E4FF12694D22EE
:105EE400126947BF010E7B017A0579621256767FEB
:105EF4000212694D126947BF030DE4900004F012C9
:085F040051B2E4FF12694D22C5
:10637F00126947BF010E7B017A0579621256767F4B
:10638F000212694D126947BF03081251ADE4FF12A3
:03639F00694D2223
:105F0C00126947BF010E7B017A0579621256767FC2
:105F1C000212694D126947BF030DE4900002F012A2
:085F2C0051B2E4FF12694D229D
:105F3400126947BF010E7B017A0579621256767F9A
:105F44000212694D126947BF030DE4900001F0127B
:085F540051B2E4FF12694D2275
:105F5C00126947BF010E7B017A0579461256767F8E
:105F6C000212694D126947BF030DE4900004F01250
:085F7C0051B2E4FF12694D224D
:1063A200126947BF010E7B017A0579461256767F44
:1063B2000212694D126947BF03081251ADE4FF1280
:0363C200694D2200
:105F8400126947BF010E7B017A0579461256767F66
:105F94000212694D126947BF030DE4900002F0122A
:085FA40051B2E4FF12694D2225
:105FAC00126947BF010E7B017A0579461256767F3E
:105FBC000212694D126947BF030DE4900001F01203
:085FCC0051B2E4FF12694D22FD
:105FD400126947BF010E7B017A0579511256767F0B
:105FE4000212694D126947BF030DE4900004F012D8
:085FF40051B2E4FF12694D22D5
:1063C500126947BF010E7B017A0579511256767F16
:1063D5000212694D126947BF03081251ADE4FF125D
:0363E500694D22DD
:105FFC00126947BF010E7B017A0579511256767FE3
:10600C000212694D126947BF030DE4900002F012B1
:08601C0051B2E4FF12694D22AC
:10602400126947BF010E7B017A0579511256767FBA
:106034000212694D126947BF030DE4900001F0128A
:0860440051B2E4FF12694D2284
:10604C00126947BF010E7B017A05795D1256767F86
:10605C000212694D126947BF030DE4900004F0125F
:08606C0051B2E4FF12694D225C
:1063E800126947BF010E7B017A05795D1256767FE7
:1063F8000212694D126947BF03081251ADE4FF123A
:03640800694D22B9
:10607400126947BF010E7B017A05795D1256767F5E
:106084000212694D126947BF030DE4900002F01239
:0860940051B2E4FF12694D2234
:10609C00126947BF010E7B017A05795D1256767F36
:1060AC000212694D126947BF030DE4900001F01212
:0860BC0051B2E4FF12694D220C
:1060C400126947BF010E7B017A0579681256767F03
:1060D4000212694D126947BF030DE4900004F012E7
:0860E40051B2E4FF12694D22E4
:10640B00126947BF010E7B017A0579681256767FB8
:10641B000212694D126947BF03081251ADE4FF1216
:03642B00694D2296
:1060EC00126947BF010E7B017A0579681256767FDB
:1060FC000212694D126947BF030DE4900002F012C1
:08610C0051B2E4FF12694D22BB
:10611400126947BF010E7B017A0579681256767FB2
:106124000212694D126947BF030DE4900001F01299
:0861340051B2E4FF12694D2293
:08685600E4FF1268C902662488
:08685E00E4FF1268CF025C7335
:08686600E4FF1268E102662460
:08686E00E4FF1268E702662452
:08687600E4FF1268ED02662444
:10656F00E49004C0F01268F39004C0EFF075F003EC
:0D657F00A4FF1264B59004C0E0FF02662482
:08687E00E4FF1268F902662430
:10677000E4FF12690BEFC3940A5003026624126609
:0167800051C7
:0167810022F5
:08688600E4FF1269110266240F
:08688E00E4FF12691702662401
:08689600E4FF12691D026624F3
:105B6B00E49004C0F01269239004C0EFF012662495
:105B7B00900390E0FF9004C0E06F601D12561490EC
:105B8B0004C0E0900390F012692FBF010C7F797E67
:095B9B0000125C46E4FF126935BA
:015BA40022DE
:10595800E49004C0F01269299004C0EFF0125C735F
:1059680012692FBF011E1267C51266A61267C5907D
:1059780004C0E02442FFE433FE125C461267C5E42B
:10598800FF1269351269D1BF01121266A61267C5E6
:0C5998007F797E00125C46E4FF1269D7A4
:0159A40022E0
:10649400E49004C0F01268E19004C0EFF09000565C
:1064A400E0B4340A30A4077F687E00125C46D2CD83
:0164B40022C5
:056A2D007F0602651563
:08689E00E4FF1268FF0266240A
:056A32007F070265155D
:0868A600E4FF126905026624FB
:101EC0004105EA004105F3004105F0004105F1003C
:101ED0004105EB004105E8004105F5004105ED0035
:101EE0004105E9004105EF004105EE004105EC0028
:081EF0004105F4004105F20078
:1067B500438901758C3C758AB0D2AFD2A9D28C229F
:0E67E100438910758DFF758B9CD2AFD2AB2211
:03000B00023D4A69
:103D4A00C0E0C0F0C083C082C0D075D000C000C03F
:0D3D5A0001C002C003C004C005C006C007C0
:103D6700900538E4F0A3F0C28D758C3C758AB012CB
:103D770068BD900538EFF012693B900539EFF09078
:103D870005EAE004F0E0B40A199005F3E004F090C6
:103D970005EFE004F09005EAE4F09005EEE060023C
:103DA70014F09005F3E0C394044002E4F09005EFAB
:103DB700E0C394184002E4F09005ECE0600214F0D0
:103DC7009005F0E0B40104A3E004F01269B9BF0163
:103DD700149005EBE004F0E0D3947840081269BF33
:103DE7009005EBE4F09005F2E0B401159005F4E0DE
:103DF70004F0E0D3947840099005F2E4F09005F4DC
:103E0700F0900538E0FFB45F159005E8E004F0E0B6
:103E1700B4140B9005F5E004F09005E8E4F0EF64C6
:103E27005F601A900538E0643160129005EDE00498
:103E3700F0E0D394C84006E4F0FF1268C390053859
:103E4700E07015A3E0B402109005E9E004F0E0C3C8
:083E5700940A4004B2CDE4F02E
:103E5F00D007D006D005D004D003D002D001D000B7
:0B3E6F00D0D0D082D083D0F0D0E03261
:03001B000258691F
:10586900C0E0C0F0C083C082C0D075D000C000C005
:0D58790001C002C003C004C005C006C00786
:10588600E4FF1268BDC28F758DFF758B9CEFB42E39
:09589600051229548003123C1391
:10589F00D007D006D005D004D003D002D001D0005D
:0B58AF00D0D0D082D083D0F0D0E03207
:056947009005F3E0FFE4
:01694C002228
:06694D009005F3EFF022BB
:066953009005F0EFF022B8
:056959009005F1E0FFD4
:01695E002216
:06695F00E49005F1F022B6
:056965009005F5E0FFC4
:01696A00220A
:06696B009005F5EFF0229B
:06697100E49005EDF022A8
:066977009005F1EFF02293
:05697D009005EFE0FFB2
:0169820022F2
:0B67FA009005EFEFF0E49005EAF022BC
:056983009005EEE0FFAD
:0169880022EC
:0B6805009005EEEFF0E49005EAF022B1
:056989009005ECE0FFA9
:01698E0022E6
:06698F009005ECEFF02280
:06699500E49005EBF02286
:06699B00E49005F4F02277
:0669A1009005F2EFF02268
:0569A7009005F2E0FF85
:0169AC0022C8
:0B1EF8004805C9140F09040C22000665
:045A3700E0FD7F8A85
:105A3B00D2A0EF54FEFFE4FEEF30E004D2A18002CF
:105A4B00C2A1D2A2C2A2EFC313FF0EEEB408E9E4C7
:105A5B00FEED30E004D2A18002C2A1D2A2C2A2ED1F
:0A5A6B00C313FD0EEEB408E9C2A05B
:015A7500220E
:105A7600D2A0EF4401FFE4FDEF30E004D2A18002A2
:105A8600C2A1D2A2C2A2EFC313FF0DEDB408E9E48E
:105A9600FDEEC313FE30A1054480FE8004EE547F64
:0E5AA600FED2A2C2A20DEDB408E7C2A0AF0668
:015AB40022CF
:1052CF00E4FF74C92FF582E43405F583E0FE75F031
:1052DF000A84FDEE75F00A8474D12FF582E434054B
:1052EF00F583E5F0F0EDC454F0FE74D12FF582E4B0
:1052FF003405F583E02EF00FEFB408C6E4FD7F8E82
:10530F00125A3B7D807F80125A3B9005D2E0FD7F81
:10531F008C125A3BA3E0FD7F88125A3BA3E0FD7F1E
:10532F0086125A3B9005D8125A379005D5E0FD7F6B
:10533F0084125A3BA3E0FD7F82125A3BA3E0FD7F0C
:0F534F0080125A3BA3125A377D807F8E025A3B41
:1053EA007F8C125A769005D2EFF07F88125A76A3F4
:1053FA00EFF07F86125A76A3EFF07F84125A76A3D3
:10540A00EFF07F82125A76A3EFF07F80125A76EF7E
:10541A00547FA3F07F8A125A76A3EFF0E4FF74D187
:10542A002FF582E43405F583E0FEC4540FFDEE54F3
:10543A000FFE74C92FF582E43405F583EEF0ED759D
:10544A00F00AA4FE74C92FF582E43405F583E02E30
:06545A00F00FEFB408C8DA
:015460002229
:0B681000C2A0C2A2E4FD7F80025A3B40
:101F03004105B6004105B5004105BB004105BE00D2
:101F13004105C5004105AA004105A9004305C200CA
:101F230000004205BC00464205C000784205A600F9
:101F3300004205A400004205B300004205B7004675
:101F43004205B900784205C700004105A8004105D4
:101F5300C6004105BF004105AB004105AF00430585
:0A1F6300AC0000004305B0000000D0
:0768B600D2AFD2A8D2882264
:030003000268AEE2
:0868AE00C2A8208E02D28E3236
:10658C00E49005B6F09005B5F09005BEF09005BB13
:0C659C00F09005C5F09005A9F0A3F022D6
:103C130030B2059005BE80039005BBE004F090052B
:103C2300AAE004F0E0D394A07480948F4007C28E7E
:103C3300D2A802658C9005A9E0146035146069145C
:103C43007003023CD224036003023D429005BEE0B0
:103C5300D394004003023D429005BBE0D394465009
:103C630003023D499005A9E004F0E49005BEF0800D
:103C7300329005BEE0FFFD9005BBE02DFDE433FC73
:103C8300D3ED948CEC648094804003023D42EFD3E7
:103C930094015003023D4930A802C2A89005A9E04F
:103CA30004F0E49005BBF0229005BBE0D3940140FF
:103CB300139005BEE09005B6F0E49005BEF09005C4
:103CC300A9E004F09005BEE0D39419407980709088
:103CD30005BEE0D39401405C9005BBE0FF9005B5C1
:103CE300F0E49005BBF09005A97402F09005C5E0DF
:103CF300131313541FFE24C2F582E43405F583E045
:103D0300FD25E0F09005B6E0D39F400E74C22EF57A
:103D130082E43405F583E04401F09005C5E004F046
:103D2300E0D39417400EC28E12658C9005A87401DF
:103D3300F0D2A8229005BBE0D39419400980001269
:073D4300658CD2A8C28E229C
:10398500E4900514F01268BD900514EFF09005A8B9
:10399500E064016003023ACBF0C2A89005BFE014D1
:1039A5006027046003023AC99005C2E09005ACF0B7
:1039B5009005C3E09005ADF09005C4E09005AEF02C
:1039C5009005BF7401F0023AC99005C2E0FF900569
:1039D500ACE06F6003023AB19005C3E0FE9005AD1F
:1039E500E06E6003023AB19005C4E0FD9005AEE0DB
:1039F5006D6003023AB19005B0E06F7012A3E06EFE
:103A0500700DA3E0B505089005ABE070238000902C
:103A150005C2E09005B0F09005C3E09005B1F090C7
:103A250005C4E09005B2F09005C67401F0126995E1
:103A35009005AB7401F01269719005B1E0FFE4FCEB
:103A4500FDFE78081224E7C004C005C006C0079033
:103A550005B0E0FFE4FCFDFE78101224E7D003D0AA
:103A650002D001D000EF4BFBEE4AFAED49F9EC48E4
:103A7500F89005B2E0FFEB4FFFEAFEE9FDE8FC7BBD
:103A8500017A057915124C70EF60099005AF740144
:103A9500F0126971E49005C2F0A3F0A3F09005ACB3
:103AA500F0A3F0A3F0E49005BFF080189005C2E004
:103AB5009005ACF09005C3E09005ADF09005C4E02D
:063AC5009005AEF0D2A84E
:013ACB0022D8
:1029540030B2059005BE80039005BBE004F09005FD
:10296400AAE004F0E0D394A07480948F4006C28E51
:10297400D2A880279005A9E014605A147003022A93
:1029840068147003022AB324036003022BFA90052F
:10299400BEE0D394004007D2A8C28E02658C900595
:1029A400A6E0FEA3E0FF7C007D0F122459EF243C37
:1029B400FFE43EFE9005BBE0D39FEC9E5003022C47
:1029C400019005A9E004F09005BCEEF0A3EFF0E45B
:1029D400A3F0022A639005A4E0FEA3E0FF7C007D3F
:1029E4000F122459EF2478FFE43EFE9005BEE0F96F
:1029F400FD9005BBE02DFDE433FCD3ED9FEC9E4040
:102A040022E9701C9005A5E004F070069005A4E08E
:102A140004F09005A7E004F070069005A6E004F029
:102A2400022BFAE9D394015003022C019005A4E08F
:102A3400FEA3E0FF7C007D0F122459EF2478FFE40D
:102A44003E9005C0F0A3EFF0E49005A4F0A3F0A33A
:102A5400F0A3F030A802C2A89005A9E004F0E49025
:102A640005BBF0229005BBE0D3940040139005BE53
:102A7400E09005B6F0E49005BEF09005A9E004F0FE
:102A84009005BCE0FEA3E0FF9005C1E02FFF900598
:102A9400C0E03EFEEF7803CEC313CE13D8F9FF9007
:102AA40005BEE0D39FE49E5003022C01022BFA9052
:102AB40005BEE0D394005003022BCF9005BBE0FF8A
:102AC4009005B5F0E49005BBF09005A97402F09070
:102AD40005C5E0131313541FFE24C2F582E4340524
:102AE400F583E025E0F09005B6E0FDD39F400E7439
:102AF400C22EF582E43405F583E04401F09005C567
:102B0400E004F0E0D394175003022BCFC28E90055B
:102B1400B5E02DFEE4339005B3F0A3CEF012658C3E
:102B24009005C8E004F070069005C7E004F0900535
:102B3400C0E0FEA3E0FF9005BAE02FF09005B9E0F5
:102B44003EF0E0C313FEA3E013FF9005C0EEF0A334
:102B5400EFF09005B9EEF0A3EFF0D39005C8E09440
:102B6400019005C7E09400405F9005B7E0FEA3E044
:102B7400FF9005BCE0FCA3E0FD9FFFEC9EFED3EFBD
:102B8400941EEE940040159005B8E09DFF9005B7A3
:102B9400E09CFED3EF941EEE9400502C9005BCE014
:102BA400FEA3E0FF9005B8E02FF09005B7E03EF0FB
:102BB400E0C313FEA3E013FF9005BCEEF0A3EFF017
:102BC4009005B7EEF0A3EFF0D2A8229005BCE0FE8A
:102BD400A3E0FF9005C1E02FFF9005C0E03EFEEFAB
:102BE4007803CEC313CE13D8F9FF9005BBE0D39F6F
:0E2BF400E49E4009800012658CD2A8C28E2299
:0569AD009005C6E0FFAB
:0169B20022C2
:0669B300E49005C6F0228D
:0569B9009005ABE0FFBA
:0169BE0022B6
:0669BF00E49005ABF0229C
:0569C5009005AFE0FFAA
:0169CA0022AA
:0669CB00E49005AFF0228C
:08682D009005B3E0FEA3E0FFBB
:016835002240
:101F6D004805F60000000000000000410602004494
:061F7D0005FE000000005B
:10004600E49004D3F0A3F09004D9F09004E2F0A376
:10005600F0A3F0A3F0A3F0A3F0A3F0A3F01268BD01
:100066009004E2EFF01269239004E3EFF01269299D
:100076009004E4EFF01268C99004E5EFF01268CF3F
:100086009004E6EFF01268CF9004D9EFF012690BF6
:100096009004E7EFF01268E19004E8EFF01268E7E9
:1000A6009004E9EFF01239851269ADEF640160033F
:1000B600020E499005B1E0FFE4FCFDFE780812242B
:1000C600E7C004C005C006C0079005B0E0FFE4FC29
:1000D600FDFE78101224E7D003D002D001D000EF45
:1000E6004BFBEE4AFAED49F9EC48F89005B2E0FF11
:1000F600EB4FFFEAFEE9FDE8FC9004CF1225649081
:1001060004E2E024CE24FC4003020AD524FC40038A
:10011600020B9524FC4003020C5524FC4003020DFF
:100126001524E47003020DE614700302041F245F15
:100136006003020E46E4FF12696B9005B2E0FF54BD
:10014600F0600302027F9005B0E0C4540FFE9004F5
:10015600E7E06E600302027FEEC3940A40030202E8
:100166007F9004E3E0B4010CEF540F2476F582E4AB
:100176003403800D9005B2E0540F2446F582E43432
:1001860000F583E09004DAF09005B0E0FFC4540F68
:100196009004DBF0EF540FA3F09005B1E0FFC454D8
:1001A6000F9004DDF0EF540FA3F09005B0E090043B
:1001B600DFF09005B1E09004E0F09005B2E0900425
:1001C600E1F09004DAE0FF64336042EF603FE490D0
:1001D60004D7F09004E9E0FF9004D7E0C39F505C99
:1001E6007B017A0479DA9004DAE0FD9004FCE4F00D
:1001F600A3EDF09005B2E0540F9004FEF09004E8F1
:10020600E0FF122C029004D7E004F080C69004EDC3
:100216007401F0A37400F0A37456F07B017A04799C
:10022600DA1231ED7B017A0479DA9005B2E0540FE7
:100236009004EEF07F92123023020997125D537BF1
:10024600017A0479DA9005B2E0540F9004EEF07F5B
:10025600911230239004ED7401F0A37404F0A3749A
:10026600DAF07B017A007956124B95123825125135
:10027600B27F5F1268C3020E467B017A0479C7908B
:1002860004CFE0FCA3E0FDA3E0FEA3E0FF12554C83
:10029600EF3395E0FE9004D3F0A3EFF04E70030227
:1002A6000E469004CFE0FCA3E0FDA3E0FEA3E0FF32
:1002B6009005FEE0F8A3E0F9A3E0FAA3E0FBC31281
:1002C60024D670091269A7EF601F020E469004CF6C
:1002D600E0FCA3E0FDA3E0FEA3E0FF9005FE1225EF
:1002E6006412699B7F011269A19004D3E0FEA3E02A
:1002F600FF64014E70089004DA7433F08018EF64DE
:10030600024E70089004DA7434F0800A9005B2E068
:10031600540F9004DAF078DB7C047D017B017A04CB
:1003260079C77E007F041223B99005B2E0FF9004DE
:10033600E1F09004DAE0C3943250279004E3E0B48D
:10034600010CEF540F2476F582E43403800D9005FA
:10035600B2E0540F2446F582E43400F583E09004BD
:10036600DAF09004DAE0FF64336042EF603FE49035
:1003760004D7F09004E9E0FF9004D7E0C39F505CF7
:100386007B017A0479DA9004DAE0FD9004FCE4F06B
:10039600A3EDF09005B2E0540F9004FEF09004E84F
:1003A600E0FF122C029004D7E004F080C67B017AAD
:1003B6000479DA9005B2E0540F9004EEF07F9212C1
:1003C60030239004ED7401F0A37400F0A37456F08A
:1003D6007B017A0479DA1231ED020997125D537BBB
:1003E600017A0479DA9005B2E0540F9004EEF07FBA
:1003F600911230239004ED7401F0A37404F0A374F9
:10040600DAF07B017A007956124B95123825125193
:10041600B27F5F1268C3020ACFE4FF12696B9005D0
:10042600B2E0FF54F060030207489005B0E0C45400
:100436000FFE9004E7E06E6003020748EEC3940ADD
:1004460040030207489004E3E0B4010CEF540F2484
:1004560076F582E43403800D9005B2E0540F24460D
:10046600F582E43400F583E09004DAF09005B0E01C
:10047600FFC4540F9004DBF0EF540FA3F09005B1C6
:10048600E0FFC4540F9004DDF0EF540FA3F0900585
:10049600B0E09004DFF09005B1E09004E0F0900544
:1004A600B2E09004E1F09004E5E064016003020527
:1004B600D29004DAE0FF64336042EF603FE49004D8
:1004C600D7F09004E9E0FF9004D7E0C39F505C7B2F
:1004D600017A0479DA9004DAE0FD9004FCE4F0A3F2
:1004E600EDF09005B2E0540F9004FEF09004E8E0C1
:1004F600FF122C029004D7E004F080C67B017A0438
:1005060079DA9005B2E0540F9004EEF07F92123043
:10051600239004ED7401F0A37400F0A37456F07BED
:10052600017A0479DA1231ED0209977B017A0479AE
:10053600DA9005B2E0540F9004EEF07F911230236A
:100546009004ED7401F0A37400F0A37456F07B01DF
:100556007A0479DA1236BB9004E6E09004D7F0907C
:1005660004D7E0FFD394014026EF24FEFFE434FFD6
:10057600FEEF7803C333CE33CED8F92456F9740090
:100586003EFA7B011259139004D7E014F080D0E4B0
:100596009004D7F09004D7E0FFC394065014745625
:1005A6002FF582E43400F583E4F09004D7E004F0FC
:1005B60080E29004ED7401F0A37404F0A374DAF001
:1005C6007B017A007956124B950209979004E5E073
:1005D60064026003020E469004DAE0FF64336003AF
:1005E600EF702F7B017A0479DA9005B2E0540F9010
:1005F60004EEF07F921230239004ED7401F0A374A0
:1006060000F0A37456F07B017A0479DA1231ED0218
:100616000997E49004D8F09004E6E0FF9004D8E04F
:10062600FEC39F40030206CCEE75F008A4FFAEF0B1
:100636002457F58274003EF583E0FD9004DBE0FC70
:10064600ED6C707974582FF58274003EF583E0FFE7
:100656009004DCE0FEEF6E70649004D8E075F0085C
:10066600A4FFAEF02459F58274003EF583E0FD90B8
:1006760004DDE0FCED6C7045745A2FF58274003E83
:10068600F583E0FF9004DEE0FEEFB506309004D877
:10069600E0A3F075F008A42456F9740035F0FA7B4F
:1006A60001C0039004EDEBF0A37404F0A374DAF038
:1006B600D003124B951238251251B280099004D8F6
:1006C600E004F002061D9004E6E0FF9004D9E06F16
:1006D6006003020E469004D8F09004E6E0FF900412
:1006E600D8E0FEC39F4003020E46EE75F008A42430
:1006F60056F582740035F0F583E0703E7B017A048E
:1007060079DA9005B2E0540F9004EEF07F91123042
:10071600239004D8E075F008A42456F9740035F047
:10072600FA7B01C0039004EDEBF0A37404F0A3740C
:10073600DAF0D003124B950209979004D8E004F042
:1007460080977B017A0479C79004CFE0FCA3E0FD93
:10075600A3E0FEA3E0FF12554CEF3395E0FE9004B4
:10076600D3F0A3EFF04E7003020E469004CFE0FCE8
:10077600A3E0FDA3E0FEA3E0FF9005FEE0F8A3E002
:10078600F9A3E0FAA3E0FBC31224D670091269A705
:10079600EF601F020E469004CFE0FCA3E0FDA3E04D
:1007A600FEA3E0FF9005FE12256412699B7F0112ED
:1007B60069A19004D3E0FEA3E0FF64014E700890A7
:1007C60004DA7433F08018EF64024E70089004DA8D
:1007D6007434F0800A9005B2E0540F9004DAF07891
:1007E600DB7C047D017B017A0479C77E007F0412DD
:1007F60023B99005B2E0FF9004E1F09004DAE0C37B
:10080600943250279004E3E0B4010CEF540F2476A1
:10081600F582E43403800D9005B2E0540F2446F5CA
:1008260082E43400F583E09004DAF09004E5E064B5
:100836000160030209549004DAE0FF64336042EF7A
:10084600603FE49004D7F09004E9E0FF9004D7E01D
:10085600C39F505C7B017A0479DA9004DAE0FD905C
:1008660004FCE4F0A3EDF09005B2E0540F9004FE12
:10087600F09004E8E0FF122C029004D7E004F08028
:10088600C67B017A0479DA9005B2E0540F9004EE43
:10089600F07F921230239004ED7401F0A37400F0FF
:1008A600A37456F07B017A0479DA1231ED020997C6
:1008B6007B017A0479DA9005B2E0540F9004EEF0E9
:1008C6007F911230239004ED7401F0A37400F0A31D
:1008D6007456F07B017A0479DA1236BB9004E6E0AE
:1008E6009004D7F09004D7E0FFD394014026EF247C
:1008F600FEFFE434FFFEEF7803C333CE33CED8F9E0
:100906002456F974003EFA7B011259139004D7E07D
:1009160014F080D0E49004D7F09004D7E0FFC3949D
:1009260006501474562FF582E43400F583E4F090F3
:1009360004D7E004F080E29004ED7401F0A374049F
:10094600F0A374DAF07B017A007956020ABC9004AF
:10095600E5E064026003020ACF9004DAE0FF643344
:100966006003EF70357B017A0479DA9005B2E054C2
:100976000F9004EEF07F921230239004ED7401F094
:10098600A37400F0A37456F07B017A0479DA12316D
:10099600ED1238251251B2020E46E49004D8F090BA
:1009A60004E6E0FF9004D8E0FEC39F4003020A5429
:1009B600EE75F008A4FFAEF02457F58274003EF5FC
:1009C60083E0FD9004DBE0FCED6C707974582FF544
:1009D6008274003EF583E0FF9004DCE0FEEF6E706B
:1009E600649004D8E075F008A4FFAEF02459F582AF
:1009F60074003EF583E0FD9004DDE0FCED6C70458F
:100A0600745A2FF58274003EF583E0FF9004DEE011
:100A1600FEEFB506309004D8E0A3F075F008A424E4
:100A260056F9740035F0FA7B01C0039004EDEBF043
:100A3600A37404F0A374DAF0D003124B9512382590
:100A46001251B280099004D8E004F00209A590047E
:100A5600E6E0FF9004D9E06F706F9004D8F0900440
:100A6600E6E0FF9004D8E0FEC39F505DEE75F00807
:100A7600A42456F582740035F0F583E070437B01BB
:100A86007A0479DA9005B2E0540F9004EEF07F9183
:100A96001230239004D8E075F008A42456F97400A7
:100AA60035F0FA7B01C0039004EDEBF0A37404F07B
:100AB600A374DAF0D003124B951238251251B28086
:100AC600089004D8E004F080951269B3020E467FC0
:100AD600351268C378BF7C047D017B017A057941B4
:100AE6007E007F041223B99005B1E0FFE4FCFDFE11
:100AF60078081224E7C004C005C006C0079005B0F8
:100B0600E0FFE4FCFDFE78101224E7D003D002D00B
:100B160001D000EF4BFBEE4AFAED49F9EC48F890AC
:100B260005B2E0FFEB4FFFEAFEE9FDE8FC9004C3E7
:100B36001225647B017A0479BF12477E5003020EA8
:100B4600461267C5900544E06409703D900543E090
:100B56006409702F900542E0B40922900541E00433
:100B6600F0E4A3F0A3F0900541E0B4150AE4F09098
:100B7600054404F0020E46900544020DC09005425D
:100B8600020DC9900543020DD6900544020DE17F82
:100B9600391268C378BF7C047D017B017A05794BE5
:100BA6007E007F041223B99005B1E0FFE4FCFDFE50
:100BB60078081224E7C004C005C006C0079005B037
:100BC600E0FFE4FCFDFE78101224E7D003D002D04B
:100BD60001D000EF4BFBEE4AFAED49F9EC48F890EC
:100BE60005B2E0FFEB4FFFEAFEE9FDE8FC9004C327
:100BF6001225647B017A0479BF1245515003020E17
:100C0600461267C590054EE06409703D90054DE0BB
:100C16006409702F90054CE0B4092290054BE0045E
:100C2600F0E4A3F0A3F090054BE0B4150AE4F090CD
:100C3600054E04F0020E4690054E020DC090054C7E
:100C4600020DC990054D020DD690054E020DE17FAD
:100C56003D1268C378BF7C047D017B017A05795615
:100C66007E007F041223B99005B1E0FFE4FCFDFE8F
:100C760078081224E7C004C005C006C0079005B076
:100C8600E0FFE4FCFDFE78101224E7D003D002D08A
:100C960001D000EF4BFBEE4AFAED49F9EC48F8902B
:100CA60005B2E0FFEB4FFFEAFEE9FDE8FC9004C366
:100CB6001225647B017A0479BF1241F15003020EBA
:100CC600461267C5900559E06409703D900558E0E5
:100CD6006409702F900557E0B40922900556E00488
:100CE600F0E4A3F0A3F0900556E0B4150AE4F09002
:100CF600055904F0020E46900559020DC09005579D
:100D0600020DC9900558020DD6900559020DE17FD6
:100D1600411268C378BF7C047D017B017A05796244
:100D26007E007F041223B99005B1E0FFE4FCFDFECE
:100D360078081224E7C004C005C006C0079005B0B5
:100D4600E0FFE4FCFDFE78101224E7D003D002D0C9
:100D560001D000EF4BFBEE4AFAED49F9EC48F8906A
:100D660005B2E0FFEB4FFFEAFEE9FDE8FC9004C3A5
:100D76001225647B017A0479BF1243125003020ED6
:100D8600461267C5900565E06409704C900564E0FD
:100D960064097039900563E0B40925900562E004A2
:100DA600F0E4A3F0A3F0900562E0B4150AE4F09035
:100DB600056504F0020E469005657401F0020E46C4
:100DC600900563E004F0E4A3F0A3F080739005645B
:100DD600E004F0E4A3F08068900565E004F080602C
:100DE600E4FF1269359006027401F09004E3E0B462
:100DF6000124A3E0FF9005B2E0540F2476F582E4C7
:100E06003403F583EFF07B017A037976900501745C
:100E160010F07D0080239004E4E0FF9005B2E054DA
:100E26000F2446F582E43400F583EFF07B017A0067
:100E360079469005017410F0FD7C157FA012572DA0
:090E46001269B312443302353F76
:0569D100900602E0FF4A
:0169D600229E
:0669D700900602EFF02221
:10510D00FFFFFFFFFFFFFFFFFFFFFFFFFFFFFFFFA2
:10511D00FFFFFFFFFFFFFFFFFFFFFFFFFFFFFFFF92
:10512D00FFFFFFFFFFFFFFFFFFFFFFFFFFFFFFFF82
:10513D00FFFFFFFFFFFFFFFFFFFFFFFFFFFFFFFF72
:10514D00FFFFFFFFFFFFFFFFFFFFFFFFFFFFFFFF62
:10515D00FFFFFFFFFFFFFFFFFFFFFFFFFFFFFFFF52
:10516D00FFFFFFFFFFFFFFFFFFFFFFFFFFFFFFFF42
:10517D00FFFFFFFFFFFFFFFFFFFFFFFFFFFFFFFF32
:10518D00FFFFFFFFFFFFFFFFFFFFFFFFFFFFFFFF22
:10519D00FFFFFFFFFFFFFFFFFFFFFFFFFFFFFFFF12
:036A3700DFFE225D
:10667D00AE07AF061EEF600C7FF5126A377FF5127D
:05668D006A3780EE22D7
:10666700D2B400D2B50000000000C2B400000000A0
:0666770000C2B500002284
:10678200C2B400D2B50000000000D2B40000000084
:0167920022E4
:105AF200E4FEEFA806088002C333D8FC30E704D2E4
:105B0200B48002C2B400D2B50000000000C2B50EDB
:105B1200EEB408DE0000D2B40000D2B500000030BE
:0C5B2200B404C20A8002D20AC2B500001E
:015B2E002254
:10618900E4FFD2B4FE00C2B50000000000D2B500A1
:1061990000EF25E0FF30B4010F00000EEEB408E572
:0461A900C2B500007B
:0161AD0022CF
:10679300C2B4000000D2B50000000000C2B5000082
:0167A30022D3
:1067A400D2B4000000D2B50000000000C2B5000061
:0167B40022C2
:0F571E00E0FCA3E0FD7B017408900501F07FA083
:10572D00126667125AF2200A02C322ECFF125AF2D5
:10573D00200A02C322AF05125AF2200A02C322E444
:10574D00FD900501E0FFEDC39F50161223DFFF1200
:10575D005AF2200A02C322740129F9E43AFA0D80A3
:05576D00E0126782D389
:015772002214
:0F546100E0FCA3E0FD7B019005367408F07FA00E
:05547000900530EFF093
:10547500126667E0FF125AF2200A02C322ECFF12FD
:105485005AF2200A02C322AF05125AF2200A02C3B9
:1054950022126667900530E004FF125AF2200A02D4
:1054A500C322E4FD900536E014FFEDC39F501412AE
:1054B5006189EF122425126793740129F9E43AFAF8
:1054C5000D80E1126189EF1224251267A41267820B
:0154D500D303
:0154D60022B3
:0B477E009004EAEBF0A3EAF0A3E9F0DE
:10478900E49004F9F0A3F09004EDF0A3F0A3F0A3F2
:10479900F09004ED7A0479F11254619004F5E0FC8B
:1047A900A3A3A3E4FFFEFDEC707C126923BF0232D0
:1047B9009004F5A3E0FDA3E0FEA3E054F0FFE4FCC0
:1047C9009004F51225649004EAE0FBA3E0FAA3E063
:1047D9002404F9E43AFA1224FAEF54F0FFE4FC1243
:1047E900254A9004EAE0FBA3E0FAA3E0F99000046B
:1047F90012251A9004F5E0F8A3E0F9A3E0FAA3E082
:10480900FBC31224D6703878417C057D017B017A7F
:104819000479F1FE7F041223B9E4900545F07F7A0B
:10482900FE125C46D3229004F9E07002A3E0700FF7
:104839009004EDE0FFA3E09004F9CFF0A3EFF0902E
:1048490004EEE02408F09004EDE03400F09004F068
:10485900E004F070069004EFE004F0C39004EFE088
:104869009402500302479A9004F9E0FCA3E0FD90FA
:1048790004EAE0FBA3E0FAA3E0F91257257F797E69
:0548890000125C46C3B3
:01488E002207
:0B4551009004EAEBF0A3EAF0A3E9F00D
:10455C00E49004F9F0A3F09004ED7414F0A3E4F0EB
:10456C00A3F0A3F09004ED7A0479F1125461900455
:10457C00F5E0FCA3A3A3E4FFFEFDEC707C12692321
:10458C00BF02329004F5A3E0FDA3E0FEA3E054F0DB
:10459C00FFE4FC9004F51225649004EAE0FBA3E030
:1045AC00FAA3E02404F9E43AFA1224FAEF54F0FFE7
:1045BC00E4FC12254A9004EAE0FBA3E0FAA3E0F93C
:1045CC0090000412251A9004F5E0F8A3E0F9A3E09A
:1045DC00FAA3E0FBC31224D67038784B7C057D011E
:1045EC007B017A0479F1FE7F041223B9E490054F24
:1045FC00F07F7AFE125C46D3229004F9E07002A39D
:10460C00E0700F9004EDE0FFA3E09004F9CFF0A36D
:10461C00EFF09004EEE02408F09004EDE03400F0AC
:10462C009004F0E004F070069004EFE004F0C39006
:10463C0004F0E094209004EFE094005003024570E5
:10464C009004F9E0FCA3E0FD9004EAE0FBA3E0FA9F
:0E465C00A3E0F91257257F797E00125C46C359
:01466A00222D
:0B41F1009004EAEBF0A3EAF0A3E9F071
:1041FC00E49004F9F0A3F09004ED7410F0A3E4F053
:10420C00A3F0A3F09004EDE0FCA3E0FD7B017A04A5
:10421C0079F11254689004F5E0FCA3A3A3E4FFFE2B
:10422C00FDEC707C126923BF02329004F5A3E0FD13
:10423C00A3E0FEA3E054F0FFE4FC9004F512256427
:10424C009004EAE0FBA3E0FAA3E02404F9E43AFAD0
:10425C001224FAEF54F0FFE4FC12254A9004EAE031
:10426C00FBA3E0FAA3E0F990000412251A9004F5E0
:10427C00E0F8A3E0F9A3E0FAA3E0FBC31224D670A4
:10428C003878567C057D017B017A0479F1FE7F0438
:10429C001223B9E490055AF07F7AFE125C46D322C1
:1042AC009004F9E07002A3E0700F9004EDE0FFA31E
:1042BC00E09004F9CFF0A3EFF09004EEE02408F0C6
:1042CC009004EDE03400F09004F0E004F0700690FF
:1042DC0004EFE004F0C39004F0E094409004EFE0AD
:1042EC00940050030242109004F9E0FCA3E0FD900E
:1042FC0004EAE0FBA3E0FAA3E0F91257257F797EEC
:05430C0000125C46C335
:014311002289
:0B4312009004EAEBF0A3EAF0A3E9F04E
:10431D00E49004F9F0A3F09004ED7412F0A3E4F02E
:10432D00A3F0A3F09004EDE0FCA3E0FD7B017A0483
:10433D0079F11254689004F5E0FCA3A3A3E4FFFE09
:10434D00FDEC707C126923BF02329004F5A3E0FDF1
:10435D00A3E0FEA3E054F0FFE4FC9004F512256405
:10436D009004EAE0FBA3E0FAA3E02404F9E43AFAAE
:10437D001224FAEF54F0FFE4FC12254A9004EAE00F
:10438D00FBA3E0FAA3E0F990000412251A9004F5BE
:10439D00E0F8A3E0F9A3E0FAA3E0FBC31224D67082
:1043AD003878627C057D017B017A0479F1FE7F040A
:1043BD001223B9E4900566F07F7AFE125C46D32293
:1043CD009004F9E07002A3E0700F9004EDE0FFA3FC
:1043DD00E09004F9CFF0A3EFF09004EEE02408F0A4
:1043ED009004EDE03400F09004F0E004F0700690DD
:1043FD0004EFE004F0C39004F0E094409004EFE08B
:10440D00940050030243319004F9E0FCA3E0FD90C9
:10441D0004EAE0FBA3E0FAA3E0F91257257F797EC9
:05442D0000125C46C313
:014432002267
:0B488F009004C0EBF0A3EAF0A3E9F0F6
:10489A00E49004CBF0A3F078CF7C047D017BFF7A0F
:1048AA0051790DFE7F201223B99004C0E0FBA3E0EA
:1048BA00FAA3E0F91224FAE4FBFAF9F8C31224D6AF
:1048CA0070449004CDF0A3F09004CDE0FEA3E0FF85
:1048DA00C39480EE94004003024995EF7805C333F0
:1048EA00CE33CED8F9FDAC067B017A0479CF742099
:1048FA001257271267C59004CEE004F070CA9004DC
:10490A00CDE004F080C2E49004CDF0A3F09004CB93
:10491A00E0FCA3E0FD7B017A0479C3125468900499
:10492A00C7E0FCE4FFFEFDEC703C9004C0E0FBA392
:10493A00E0FAA3E0F91224FA9004C3E0F8A3E0F93C
:10494A00A3E0FAA3E0FBC31224D6701AFE7F087D07
:10495A00FF7B017A0479C312259C9004CB7A0479EF
:10496A00C312571E80259004CCE02408F09004CB93
:10497A00E03400F09004CEE004F070069004CDE03C
:0C498A0004F0C39004CDE094024082C30E
:0149960022FE
:0B40CE009004C0EBF0A3EAF0A3E9F0BF
:1040D9009004CB7414F0A3E4F078CF7C047D017BC9
:1040E900FF7A51792DFE7F201223B99004C0E0FB9D
:1040F900A3E0FAA3E0F91224FAE4FBFAF9F8C312EF
:1041090024D670549004CDF0A3F09004CDE0FEA322
:10411900E0FFC39408EE940040030241EFEF7805F5
:10412900C333CE33CED8F9FF9004CCE02FFD9004F1
:10413900CBE03EFC7B017A0479CF9005017420F035
:104149007FA012572D1267C59004CEE004F070BA13
:104159009004CDE004F080B2E49004CDF0A3F09097
:1041690004CBE0FCA3E0FD7B017A0479C312546817
:104179009004C7E0FCE4FFFEFDEC703C9004C0E055
:10418900FBA3E0FAA3E0F91224FA9004C3E0F8A330
:10419900E0F9A3E0FAA3E0FBC31224D6701AFE7F6C
:1041A900087DFF7B017A0479C312259C9004CB7AA0
:1041B9000479C312571E802E9004CCE02408F09095
:1041C90004CBE03400F09004CEE004F070069004D3
:1041D900CDE004F0C39004CEE094209004CDE094A7
:0741E900005003024168C30E
:0141F00022AC
:0B3E7A009004C0EBF0A3EAF0A3E9F015
:103E85009004CB7410F0A3E4F078CF7C047D017B23
:103E9500FF7A51794DFE7F201223B99004C0E0FBD3
:103EA500A3E0FAA3E0F91224FAE4FBFAF9F8C31245
:103EB50024D670549004CDF0A3F09004CDE0FEA379
:103EC500E0FFC39410EE94004003023FA2EF780593
:103ED500C333CE33CED8F9FF9004CCE02FFD900448
:103EE500CBE03EFC7B017A0479CF9005017420F08C
:103EF5007FA012572D1267C59004CEE004F070BA6A
:103F05009004CDE004F080B2E49004CDF0A3F090ED
:103F150004CBE0FCA3E0FD7B017A0479C31254686D
:103F25009004C7E0FCE4FFFEFDEC70439004C0E0A4
:103F3500FBA3E0FAA3E0F91224FA9004C3E0F8A386
:103F4500E0F9A3E0FAA3E0FBC31224D67021FE7FBB
:103F5500087DFF7B017A0479C312259C9004CBE090
:103F6500FCA3E0FD7B017A0479C3125725802E90CE
:103F750004CCE02408F09004CBE03400F09004CEAB
:103F8500E004F070069004CDE004F0C39004CEE0A8
:0E3F950094409004CDE094005003023F14C30A
:013FA30022FB
:0B3FA4009004C0EBF0A3EAF0A3E9F0EA
:103FAF009004CB7412F0A3E4F078CF7C047D017BF6
:103FBF00FF7A51796DFE7F201223B99004C0E0FB88
:103FCF00A3E0FAA3E0F91224FAE4FBFAF9F8C3121A
:103FDF0024D670549004CDF0A3F09004CDE0FEA34E
:103FEF00E0FFC39410EE940040030240CCEF78053D
:103FFF00C333CE33CED8F9FF9004CCE02FFD90041D
:10400F00CBE03EFC7B017A0479CF9005017420F060
:10401F007FA012572D1267C59004CEE004F070BA3E
:10402F009004CDE004F080B2E49004CDF0A3F090C2
:10403F0004CBE0FCA3E0FD7B017A0479C312546842
:10404F009004C7E0FCE4FFFEFDEC70439004C0E079
:10405F00FBA3E0FAA3E0F91224FA9004C3E0F8A35B
:10406F00E0F9A3E0FAA3E0FBC31224D67021FE7F90
:10407F00087DFF7B017A0479C312259C9004CBE065
:10408F00FCA3E0FD7B017A0479C3125725802E90A3
:10409F0004CCE02408F09004CBE03400F09004CE80
:1040AF00E004F070069004CDE004F0C39004CEE07D
:0E40BF0094409004CDE09400500302403EC3B4
:0140CD0022D0
:1056140078C17C047D017BFF7A51798D7E007F20E7
:105624001223B9E49004E1F0A3F09004E1E0FEA3B6
:10563400E0FFC394A8EE94005031EF7805C333CE55
:1056440033CED8F9FDAC067B017A0479C19005010B
:105654007420F07FA012572D1267C59004E2E00475
:0B566400F070C79004E1E004F080BF8C
:01566F002218
:0F4EE3009004F1EBF0A3EAF0A3E9F0A312256429
:104EF200E4900500F0A3F0A3F0A3F0900500E0FC1D
:104F0200A3E0FD7B017A0479F8125468126923BF89
:104F1200022C9004FCA3E0FDA3E0FEA3E054F0FF0A
:104F2200E4FC9004FC1225649004F4A3E0FDA3E0E9
:104F3200FEA3E054F0FFE4FC9004F4122564900414
:104F4200F4E0FCA3E0FDA3E0FEA3E0FF9004FCE09C
:104F5200F8A3E0F9A3E0FAA3E0FBC31224D6701F82
:104F62009004F1E0FBA3E0FAA3E0F8AC02AD037B0E
:104F7200017A0479F87E007F081223B97F0122901A
:104F82000501E02408F0900500E03400F0900503EC
:104F9200E004F07006900502E004F0C3900502E020
:094FA20094025003024EFD7F0051
:014FAB0022E3
:0F4C700090051DEBF0A3EAF0A3E9F0A312256471
:104C7F0090052C7414F0A3E4F0A3F0A3F090052C8E
:104C8F00E0FCA3E0FD7B017A0579241254681269D8
