:030000000256F7AE
:0C56F700787FE4F6D8FD75812102573E53
:10628F001266E5126C51126C7D126D5A126CAC12C3
:10629F006A97126C6175B10CE4F5B21259ED1237B1
:0962AF00B6120EA612004680F89A
:106C41004F4B535049005350494F4B00535049004B
:101B1B004105D1004405D3000000004105D0004130
:101B2B0005D7004105D2004305CDFF6C414305CAE3
:091B3B00FF6C474305D8FF6C4D17
:030023000269046B
:06690400C0E0C083C08268
:10690A00900537E4F0309802C298309904C299C2CF
:01691A000973
:07691B00D082D083D0E032EE
:03004300025783DE
:0D578300C0E0C0F0C083C082C0D075D00867
:10579000E4FFE59A30E063539AFEAF9B9005D1E0B9
:1057A0006401702EA3E0FEB401139005D0E0FD0467
:1057B000F074D32DF582E43405F583EFF0EFB453A4
:1057C00011EE700E9005D204F09005D0F09005D344
:1057D000EFF09005D0E0B40321A3E4F0A3F078D378
:1057E0007C057D019005D8E0FBA3E0FAA3E0F91267
:1057F000248BEF70059005D704F0E59A30E105534E
:045800009AFDC20942
:0B580400D0D0D082D083D0F0D0E032B2
:096CB7002009FDEFD209F5992234
:1061140090061BEBF0A3EAF0A3E9F090061BE0FB6A
:10612400A3E0FAA3E0F9122150601790061BA3E440
:1061340075F001122231A9F0FA122150FF126CB746
:0361440080D922DD
:096CC0002009FDEFD209F59B2229
:1061470090061EEBF0A3EAF0A3E9F090061EE0FB31
:10615700A3E0FAA3E0F9122150601790061EA3E40A
:1061670075F001122231A9F0FA122150FF126CC00A
:0361770080D922AA
:1066E500E5A2543FF5A253BAFE759850759A5075B8
:1066F500D7C875D6FE758E14438E01D2AC75AF0121
:03670500D2AF22EE
:0B5B6300900391EBF0A3EAF0A3E9F03F
:105B6E009003BC7401F0A37403F0A37494F090033B
:105B7E0091E0F9A3E0FAA3E0900615C9F0A3EAF0CC
:105B8E00A3E9F09003BCE0F9A3E0FAA3E0900618B5
:105B9E00C9F0A3EAF0A3E9F07B017A0379BF125EA4
:0A5BAE003C7B017A0379BF02611409
:1028A5000000000000FF669D01020E1400FF0006F7
:1028B5000203011500FF67FD0304021900FF6922E9
:1028C5000405031D00FF69400506041F00FF695E3E
:1028D5000607052000FF697C0708062100FF699AA5
:1028E5000809072600FF69B8090A082A00FF69D602
:1028F5000A0B092C00FF69F40B0C0A0B00FF001EE4
:102905000C0D0B0C00FF6E870D0E0C0D00FF6E8C71
:102915000E010D0E00FF000E0F0F0F1201FF5DF2ED
:102925001010100F01FF60391111111001FF6071B6
:102935001212121401FF66C11313131101FF62E194
:102945001414141301FF61AD1516183502FF6B6CD5
:102955001617153902FF6B7E1718163D02FF6B908F
:102965001815174102FF6BA2191A1C4503FF6BB41A
:102975001A1B194903FF6BC61B1C1A4D03FF6BD8A5
:102985001C191B5103FF6BEA1D1E1E5204FF6E919D
:102995001E1D1D5304FF6E961F1F1F1F05FF6CD2C2
:1029A5002020202006FF6CDA2122645407FF6E9B4D
:1029B5002223215507FF6EA02324225607FF6EA56B
:1029C5002425235707FF6EAA2560245807FF6EAFFD
:1029D5002627295908FF6EB42728265A08FF6EB9FD
:1029E5002829275B08FF6EBE2926285C08FF6EC3D1
:1029F5002A2B2B2A09FF6C6F2B2A2A5E09FF6EC82A
:102A05002C2D2D000AFF6ECD2D2C2C000AFF6ED229
:102A15002E2E2E000BFF6A4B2F2F2F000CFF6CE282
:102A2500303030000DFF6CEA313131000EFF5D06AC
:102A35003232323515FF681F3333333215FF6841A3
:102A45003434343315FF68633535353415FF0026C6
:102A55003636363916FF63093737373616FF633191
:102A65003838383716FF63593939393816FF67084A
:102A75003A3A3A3D17FF63813B3B3B3A17FF63A95F
:102A85003C3C3C3B17FF63D13D3D3D3C17FF672B6D
:102A95003E3E3E4118FF63F93F3F3F3E18FF64212C
:102AA5004040403F18FF64494141414018FF674E8F
:102AB5004242424519FF64714343434219FF6499F9
:102AC5004444444319FF64C14545454419FF6771B2
:102AD500464646491AFF64E9474747461AFF6511C6
:102AE500484848471AFF6539494949481AFF6794D4
:102AF5004A4A4A4D1BFF65614B4B4B4A1BFF658993
:102B05004C4C4C4B1BFF65B14D4D4D4C1BFF67B7F6
:102B15004E4E4E511CFF65D94F4F4F4E1CFF66015F
:102B25005050504F1CFF6629515151501CFF67DA18
:102B3500525252521DFF6CF2535353531EFF6CFAFF
:102B45005454545421FF6D025555555522FF6D0AB5
:102B55005656565623FF6D125757575724FF6A127C
:102B65005858585825FF6D1A5959595926FF6BFC65
:102B75005A5A5A5A27FF6D225B5B5B5B28FF6D2A09
:102B85005C5C5C5C29FF6D325D5D5D5D2AFF5FC548
:102B95005E5E5E5E2BFF60A95F5F5F5F5FFF5DA4AA
:102BA5006062256107FF6ED76161616160FF6D3A03
:102BB5006264606307FF6EDC6363636362FF6D429B
:102BC5006421626507FF6EE16565656564FF6D4AB1
:101B440041053C0041056E0041053D00450541004D
:101B54000000010045054B0000000100450556004A
:101B64000000010045056200000001004505460033
:101B740000000100450551000000010045055D001D
:101B84000000010045056800000001004105500106
:101B940041055C0141055B004105670041056D009D
:101BA400410570014105730041057606410578033E
:101BB4004105790141057A0041057B0041056F0B20
:101BC4004105720041057500410577004105710228
:101BD4004105740041053A0141057C0141053B0181
:104FCC00E49004C2F0A3F030B30C30B60930B7064D
:104FDC0030A50302509A126C6130B30C30B6093014
:104FEC00B70630A50302509A126E1B20B309900429
:104FFC00C2E4F0A37438F020B6099004C2E4F0A324
:10500C007434F020B7099004C2E4F0A3742CF0209F
:10501C00A5099004C2E4F0A3741CF09004C2E070E3
:10502C0004A3E064387008126E097F01126DFD3024
:10503C00B3FD30B6FA30B7F730A5F4126C6130B36B
:10504C00FD30B6FA30B7F730A5F4E4FF126DFDE48D
:10505C00FF126E1590053DE0645E6023126DA3EFA8
:10506C00601190053DE0D3940E40047F0180067FD3
:10507C000080027F01EF60077F787E00125FFF9057
:10508C00053C7401F09004C2E0FEA3E0FF227E0F09
:02509C007FFF94
:01509E0022EF
:104CF300E49004C0F0A3F0FF124FCC9004C0EEF098
:104D0300A3EFF0126E6F9004C0E0640F7003A3E092
:104D1300F46003024DCDEF64016003024DCD9005B5
:104D23003DE0FF601C640B6018EF640C6013EF64DC
:104D33000D600EEF640E6009EF642D6004EFB42C78
:104D43002A9005B3E0540FFFBF080890056EE004F6
:104D5300F08005E490056EF090056EE0D394034077
:104D63000A7F14126E21E490056EF0126E759005A1
:104D7300B3E0540F24FE601B24FE602624FC603144
:104D830024077046126E33EF70409004C0F0A37492
:104D93001C8031126E33EF70319004C0F0A3743471
:104DA3008022126E33EF70229004C0F0A3742C8023
:104DB30013126E2DEF7013126E33EF700D9004C04B
:104DC300F0A37438F07F05126E399004C0E0FEA39F
:104DD300E0FFEE701DEF24D4601224F8600B24FC76
:104DE300600D241C700C7F03227F02227F01227F2F
:044DF30000227FFF1C
:014DF7002299
:100EA600E4FF9004BFF0124CF3EF1470030211C17B
:100EB60014700302168B14700302119B2403600343
:100EC600021AED126DEBEF700690053DE06012120E
:100ED6006DEBEF6401702290053DE0FF6003B45FA7
:100EE60018126E039004BFEFF0C394145003021A55
:100EF600ED90053D740202104990053DE0FF644205
:100F0600600FEF6443600AEF64446005EF64457068
:100F16002D126E039004BFEFF0C3940A40657B0167
:100F26007A057946124BDF4057126DD9BF010C7F07
:100F3600797E00126180E4FF126DDF0210149005C5
:100F46003DE0FF6446600FEF6447600AEF64486067
:100F560005EF64497030126E039004BFEFF0C3943E
:100F66000A40207B017A05795112499C4012126D84
:100F7600D9BF010C7F797E00126180E4FF126DDF1C
:100F860002101402101A90053DE0FF644A600FEF4C
:100F9600644B600AEF644C6005EF644D702E126E70
:100FA600039004BFEFF0C3940A401F7B017A0579D2
:100FB6005D1246204012126DD9BF010C7F797E006A
:100FC600126180E4FF126DDF8044804890053DE0A9
:100FD600FF644E600FEF644F600AEF64506005EFE8
:100FE60064517043126E039004BFEFF0C3940A403D
:100FF600237B017A05796812474B4012126DD9BFDF
:10100600010C7F797E00126180E4FF126DDF126CA5
:101016006102119590053DE075F008A424A8F582BB
:10102600E5F03428021AE590053DE0B40B1E126E79
:10103600039004BFEFF0C394145003021AED900519
:101046003D742EF07F06126CA102119590053DE0CD
:10105600B40C1E126E039004BFEFF0C39414500339
:10106600021AED90053D742FF07F06126CA1021155
:101076009590053DE0B40D1E126E039004BFEFF08F
:10108600C394145003021AED90053D7430F07F06A8
:10109600126CA102119590053DE0B40E1E126E036E
:1010A6009004BFEFF0C394145003021AED90053D6F
:1010B6007431F07F06126CA102119590053DE0B4E3
:1010C6002A1E126E039004BFEFF0C394145003025D
:1010D6001AED90053D745DF07F06126CA102119524
:1010E60090053DE0B42D28126E039004BFEFF0C3C7
:1010F60094145003021AED7F797E00126180125B10
:10110600B812580F75C7207F06126CA10211959070
:10111600053DE0642C7060126E039004BFEFF0C3CF
:1011260094145003021AED7F797E00126180125BDF
:10113600B8125F8912580F7B017A03797690050100
:101146007410F07D207C157FA0125C1C126C617BF4
:10115600017A0079469005017410F07D307C157F88
:10116600A0125C1C126C61125AAB126C6175C7201E
:101176007F06126CA1801890053DE075F008A42446
:10118600A8F582E5F03428F583E49390053DF01246
:101196006E09021AED90053DE0B45F0C126DEBEF9F
:1011A6006006125542021AED90053DE075F008A45E
:1011B60024A9F582E5F03428021AE590053DE012EF
:1011C60022E1127D0F128F10129F1112AF1212BF61
:1011D6001312D11415421F15542016372F16263018
:1011E60012E33212F533130734131935132B361362
:1011F6003D37134F3813613913733A13853B1397F1
:101206003C13A93D13BB3E13CD3F13DF4013F14101
:10121600140342141543142744143945144B461439
:101226005D47146F4814814914934A14A54B14B7AB
:101236004C14C94D14DB4E14ED4F14FF50151151CB
:1012460015225215325315665415785515885615BC
:101256009B5715AC5815BD5915CE5A15DF5B15F0C1
:101266005C16005D160E5E16215F16476116576303
:10127600166765000016789005DCE0B46305E4F0B7
:101286000216789005DC02161C9005DDE0B40C030E
:101296000215399005DD02161C9005DEE0B41F0329
:1012A6000215399005DE02161C9005E2E0B407032C
:1012B6000215399005E202161C9005DFE0B4170509
:1012C600E4F00216789005DF02161C9005E0E0B403
:1012D6003B05E4F00216789005E002161C900541E5
:1012E600E0B41405E4F002167890054102161C904D
:1012F6000542E0B40905E4F00216789005420216AC
:101306001C900543E0B40905E4F002167890054305
:1013160002161C900544E0B40905E4F00216789024
:10132600054402161C90054BE0B41405E4F00216C1
:101336007890054B02161C90054CE0B40905E4F0C4
:1013460002167890054C02161C90054DE0B409056E
:10135600E4F002167890054D02161C90054EE0B496
:101366000905E4F002167890054E02161C90055603
:10137600E0B41405E4F002167890055602161C90A7
:101386000557E0B40905E4F00216789005570216F1
:101396001C900558E0B40905E4F00216789005584B
:1013A60002161C900559E0B40905E4F0021678907F
:1013B600055902161C900562E0B41405E4F0021605
:1013C6007890056202161C900563E0B40905E4F006
:1013D60002167890056302161C900564E0B40905B0
:1013E600E4F002167890056402161C900565E0B4D8
:1013F6000905E4F002167890056502161C9005466C
:10140600E0B41405E4F002167890054602161C9026
:101416000547E0B40905E4F0021678900547021680
:101426001C900548E0B40905E4F0021678900548DA
:1014360002161C900549E0B40905E4F002167890FE
:10144600054902161C900551E0B41405E4F0021695
:101456007890055102161C900552E0B40905E4F097
:1014660002167890055202161C900553E0B4090541
:10147600E4F002167890055302161C900554E0B469
:101486000905E4F002167890055402161C90055DD5
:10149600E0B41405E4F002167890055D02161C907F
:1014A600055EE0B40905E4F002167890055E0216C2
:1014B6001C90055FE0B40905E4F002167890055F1C
:1014C60002161C900560E0B40905E4F00216789057
:1014D600056002161C900568E0B41405E4F00216D7
:1014E6007890056802161C900569E0B40905E4F0D9
:1014F60002167890056902161C90056AE0B4090583
:10150600E4F002167890056A02161C90056BE0B4AA
:101516000904E4F0800690056BE004F0900550E0C5
:10152600B4010302162D90055002167590055CE075
:10153600B4630302167590055C02161C90055BE009
:10154600B46305E4F002167890055B02161C90055C
:1015560067E0B46305E4F002167890056702161C8E
:1015660090056DE0B40705E4F002167890056D026B
:10157600161C900570E0B402030216759005700201
:10158600161C900573E0700504F0021678E49005C9
:1015960073F0021678900576E0B40905E4F00216B9
:1015A600789005768070900578E0B40705E4F0023F
:1015B6001678900578805F90056FE0B40A05E4F030
:1015C60002167890056F804E900572E0B40B05E424
:1015D600F0021678900572803D900575E0B40B0513
:1015E600E4F0021678900575802C900577E0B40B30
:1015F60004E4F0807D900577801C900571E0B401CD
:101606000280249005718067900574E0B42604E496
:10161600F0805F900574E004F080571253EA805220
:1016260090057CE0B401057402F0804690057C804C
:101636003E90053AE0B40104E4F0803690053A8025
:101646002E900579E0B40104E4F0802690057980B7
:101656001E90057AE0B40104E4F0801690057A80C5
:101666000E90057BE0B40104E4F0800690057B74DF
:1016760001F090053DE075F008A424A6F582E5F09A
:101686003428021AE590053DE01222E117470F17AC
:101696005610176911177C12178C13179E1419AF61
:1016A6001F19BD201A942F1A833017B03217BF3373
:1016B60017CE3417DD3517EC3617FB37180A3818EE
:1016C600193918283A18373B18463C18553D1864FE
:1016D6003E18733F18824018914118A04218AF4334
:1016E60018BE4418CD4518DC4618EA4718F94819BB
:1016F600084919174A19254B19344C19434D1952E3
:101706004E19644F19735019825119905219A053EA
:1017160019CF5419DD5519ED561A00571A11581AD2
:1017260022591A335A1A405B1A4D5C1A5D5D1A6BC0
:101736005E1A7E5F1AA4611AB4631AC46500001AA1
:10174600D59005DCE070030219C39005DC021A7916
:101756009005DDE0B40106740CF0021AD59005DDA3
:10176600021A799005DEE0B40106741FF0021AD55C
:101776009005DE021A799005E2E0B40103021A1719
:101786009005E2021A799005DFE070067417F00200
:101796001AD59005DF021A799005E0E07006743BD1
:1017A600F0021AD59005E0021A79900541E070031F
:1017B600021958900541021A79900542E070030219
:1017C6001A06900542021A79900543E07003021A40
:1017D60006900543021A79900544E07003021A0642
:1017E600900544021A7990054BE07003021958904F
:1017F600054B021A7990054CE07003021A06900513
:101806004C021A7990054DE07003021A0690054DB8
:10181600021A7990054EE07003021A0690054E02F0
:101826001A79900556E07003021958900556021A67
:1018360079900557E07003021A06900557021A7947
:10184600900558E07003021A06900558021A79901E
:101856000559E07003021A06900559021A79900597
:1018660062E07003021958900562021A79900563C6
:10187600E07003021A06900563021A79900564E087
:101886007003021A06900564021A79900565E070E5
:1018960003021A06900565021A79900546E0700360
:1018A600021958900546021A79900547E07003021E
:1018B6001A06900547021A79900548E07003021A45
:1018C60006900548021A79900549E07003021A0647
:1018D600900549021A79900551E0700280749005CE
:1018E60051021A79900552E07003021A06900552C9
:1018F600021A79900553E07003021A069005530206
:101906001A79900554E07003021A06900554021ADB
:101916007990055DE07002803990055D021A799034
:10192600055EE07003021A0690055E021A799005BC
:101936005FE07003021A0690055F021A799005604F
:10194600E07003021A06900560021A79900568E0B5
:1019560070067414F0021AD5900568021A7990057B
:1019660069E07003021A06900569021A7990056A01
:10197600E07003021A0690056A021A7990056BE078
:101986007002807C90056B021A79900550E0B401D4
:1019960003021A8A900550021AD290055CE0B4013F
:1019A60002801A90055C021A7990055BE07002804D
:1019B6000C90055B021A79900567E070067463F077
:1019C600021AD5900567021A7990056DE0700280BB
:1019D6004090056D021A79900570E0B40103021A71
:1019E6008A900570021A79900573E0700504F0027A
:1019F6001AD5E4900573F0021AD5900576E07006C4
:101A06007409F0021AD59005768068900578E07022
:101A1600067407F0021AD5900578805790056FE096
:101A26007006740AF0021AD590056F80469005720A
:101A3600E0700280189005728039900575E070029A
:101A4600800B900575802C900577E07005740BF07F
:101A5600807D900577801C900571E0B4010280249A
:101A66009005718067900574E070057426F0805FBC
:101A7600900574E014F08057124DF8805290057C62
:101A8600E0B401057402F0804690057C803E900526
:101A96003AE0B40104E4F0803690053A802E9005D1
:101AA60079E0B40104E4F08026900579801E900563
:101AB6007AE0B40104E4F0801690057A800E900571
:101AC6007BE0B40104E4F0800690057B7401F0909D
:101AD600053DE075F008A424A7F582E5F03428F565
:101AE60083E49390053DF012580F90053DE075F0A4
:101AF60008A424AAF582E5F03428F583E493FB7460
:101B06000193FA740293F990053EEBF0A3EAF0A371
:051B1600E9F0022307C5
:0D6C61007F047E347DDCDDFEDEFADFF60010
:016C6E002203
:056D610090053DE0FF7C
:016D6600220A
:066D670090053DEFF02253
:056D6D00900550E0FF5D
:016D720022FE
:056D730090055CE0FF4B
:016D780022F8
:056D790090055BE0FF46
:016D7E0022F2
:056D7F00900567E0FF34
:016D840022EC
:056D850090056DE0FF28
:016D8A0022E6
:056D8B00900570E0FF1F
:016D900022E0
:056D9100900573E0FF16
:016D960022DA
:056D9700900576E0FF0D
:016D9C0022D4
:056D9D00900578E0FF05
:016DA20022CE
:056DA300900579E0FFFE
:016DA80022C8
:056DA90090057AE0FFF7
:016DAE0022C2
:056DAF0090057BE0FFF0
:016DB40022BC
:056DB50090056FE0FFF6
:016DBA0022B6
:056DBB00900572E0FFED
:016DC00022B0
:056DC100900575E0FFE4
:016DC60022AA
:056DC700900577E0FFDC
:016DCC0022A4
:056DCD00900571E0FFDC
:016DD200229E
:056DD300900574E0FFD3
:016DD8002298
:056DD90090053CE0FF05
:016DDE002292
:066DDF0090053CEFF022DC
:056DE50090057CE0FFB9
:016DEA002286
:056DEB0090053AE0FFF5
:016DF0002280
:10580F00900550E0900607F090055CE0900608F0D8
:10581F0090055BE0900609F0900567E090060AF0AE
:10582F0090056DE090060BF0900570E090060CF07F
:10583F00900573E090060DF0900576E090060EF05F
:10584F00900578E090060FF0900579E0900610F043
:10585F0090057AE0900611F090057BE0900612F02B
:10586F0090056FE0900613F0900571E0900614F02C
:10587F007B017A067907900501740EF07D407C1547
:08588F007FA0125C1C026C6199
:1037B6007B017A0379769005367410F07D207C15AE
:1037C6007FA012591D126C617B017A007946900523
:1037D600367410F07D307C157FA012591D126C6175
:1037E6007B017A067907900536740EF07D407C15CC
:1037F6007FA012591D126C61900607E0FF900550DC
:10380600F0900608E090055CF0900609E090055BF4
:10381600F090060AE0900567F090060BE090056DC3
:10382600F090060CE0900570F090060DE0900573A0
:10383600F090060EE0900576F090060FE090057881
:10384600F0900610E0900579F0900611E090057A68
:10385600F0900612E090057BF0900613E090056F5D
:10386600F0900614E0900571F0EFD39402400690B4
:1038760005507401F0900608E0D394634006900565
:103886005C7401F0900609E0D39463400690055BF2
:103896007401F090060AE0D39463400690056774BD
:1038A60001F090060BE0D394074005E490056DF017
:1038B60090060CE0D3940240069005707401F090D7
:1038C600060DE0D394014005E4900573F090060ED2
:1038D600E0D3940940069005767406F090060FE052
:1038E600D3940740069005787403F0900610E0D351
:1038F60094014005E4900579F0900611E0D3940117
:103906004005E490057AF0900612E0D39401400554
:10391600E490057BF0900613E0D3940A40069005E8
:103926006F740AF0900614E0D39402400690057175
:043936007402F02205
:105BB8009005507401F090055CF0E490055BF0905E
:105BC8000567F090056DF090057004F0E49005739A
:105BD800F09005767406F09005787403F0A37401CC
:105BE800F0E4A3F0A3F090056F740AF0E490057256
:105BF800F0900575F0900577F09005717402F0E467
:055C0800900574F0227C
:105F89007F109003767401F0A3DFFC900046740142
:105F9900F0E4A3F0A37403F0A37405F0A37402F072
:105FA900A314F0A3F0A37406F0A37401F0A3F0A363
:0B5FB900F0A3F0A3F0A3F0A3F0A3F00E
:015FC40022BA
:1068A60000000000000000000000000000000000E2
:1068B60000000000000000000000000000000000D2
:101BE4005500313F065B4F666D7D077F6F777C390B
:101BF4005E797176385C733E4803860102040810EE
:101C040020408042038E400060300001000000004C
:101C140000000000000000000000000000000000C0
:101C240000000000000000000000000000000000B0
:101C340000000000000000000000000063200056C7
:101C44000000000000000000000000000000000090
:101C54000000000000000000000000000000000080
:101C64000000000000000000000000000000000070
:101C74000000000000000000000000000000000060
:101F6400410000004103900050037601010101018A
:101F740001010101010101010101015000460100BB
:0E1F8400030502010106010101010101010135
:10620E00C282E4FDFCC280EF30E004D2818002C283
:10621E008100000000D280EFC313FF0DBD00010C02
:0A622E00ED64084C70DFC280C281ED
:016238002243
:10623900C283E4FDFCC280EF30E004D2818002C257
:106249008100000000D280EFC313FF0DBD00010CD7
:0A625900ED64084C70DFC280C281C2
:016263002218
:10626400C2CCE4FDFCC280EF30E004D2818002C2E3
:106274008100000000D280EFC313FF0DBD00010CAC
:0A628400ED64084C70DFC280C28197
:01628E0022ED
:096AC700AE077F40126AD07FC0C7
:0D6AD000D282000000000000C28202620EAF
:0C6A6500126AD0D2827F40126A717FC09A
:0D6A7100D283000000000000C283026239E1
:0C6A7E00126A71D2837F40126A8A7FC0C6
:0D6A8A00D2CC000000000000C2CC0262640B
:0555D600E4900001F06B
:1055DB00126D9D126AC7E4FB74012BF582E4340053
:1055EB00F583E0FF12620E74092BF582E43400F5AB
:1055FB0083E0FF12620E0BEBB408DDEE2488FF1282
:10560B006A65E4FB74112BF582E43400F583E0FF4B
:10561B0012623974192BF582E43400F583E0FF1222
:10562B0062390BEBB408DDEE2488FF126A7EE4FBD3
:10563B0074212BF582E43400F583E0FF126264746D
:10564B00292BF582E43400F583E0FF1262640BEB47
:0C565B00B408DDEE2488FF126A8AD2CC6D
:015667002220
:105E8600126AC7E4FBAF0612620EAF0612620E0B71
:105E9600EBB408F17F8F126A65E4FBAF0612623934
:105EA600AF061262390BEBB408F17F8F126A7EE4FB
:105EB600FBAF06126264AF061262640BEBB408F124
:075EC6007F8F126A8AD2CC23
:015ECD0022B2
:1059ED00E49004BFF0E4FFE4FE9004BFE02486F5EC
:1059FD0082E43403F583E0FDEF75F008A42401F58E
:105A0D0082E43400F583E5822EF582E43583F58357
:105A1D00EDF00EEEB408D20FEFB406CB1255DB90BD
:105A2D0004BFE0B401077F7B7E001261807F1E12F0
:0E5A3D006B5A9004BFE004F0E0C3940840A749
:015A4B002238
:106B5A00EFD39400400B7EFF7DFFDDFEDEFA1F803F
:016B6A00EF3B
:016B6B002207
:1062B800E4FFE4FEEF75F008A42401F582E434005D
:1062C800F583E5822EF582E43583F583E4F00EEE5E
:0862D800B408E10FEFB406DA8F
:0162E000229B
:0A6C8B007F78900056E4F0A3DFFCD0
:016C950022DC
:1060DF00E4FF126DF1EF6401702A1262B8900000B4
:1060EF00E05403FF2401F582E43400F5837440F09B
:1060FF001255DBE4FF126DF7900000E004F0E0B4FE
:04610F000402E4F0B2
:016113002269
:10360D00126DA9EF60030236B21262B8125897908C
:10361D000033E0900008F0900031E0900007F0904A
:10362D0005DCE0FF75F00A842431F582E43400F501
:10363D0083E0900006F0EF75F00A84743125F0F503
:10364D0082E43400F583E0900005F09005DDE0FFA5
:10365D0075F00A842431F582E43400F583E090009E
:10366D000AF0EF75F00A84743125F0F582E4340028
:10367D00F583E0900009F09005DEE0FF75F00A8417
:10368D002431F582E43400F583E090000CF0EF7501
:10369D00F00A84743125F0F582E43400F583E0906E
:1036AD00000B02374B1262B8125897900033E0901E
:1036BD00000CF0900031E090000BF09005DCE0FF85
:1036CD0075F00A842431F582E43400F583E090002E
:1036DD000AF0EF75F00A84743125F0F582E43400B8
:1036ED00F583E0900009F09005DDE0FF75F00A84A8
:1036FD002431F582E43400F583E0900008F0EF7595
:10370D00F00A84743125F0F582E43400F583E090FD
:10371D000007F09005DEE0FF75F00A842431F58294
:10372D00E43400F583E0900006F0EF75F00A847440
:10373D003125F0F582E43400F583E0900005F0903A
:10374D0005E2E02431F582E43400F583E090000DCC
:10375D00F09005DFE0FF75F00A842431F582E43442
:10376D0000F583E0900004F0EF75F00A84743125C4
:10377D00F0F582E43400F583E0900003F09005E06D
:10378D00E0FF75F00A842431F582E43400F583E01E
:10379D00900002F0EF75F00A84743125F0F582E4A3
:0937AD003400F583E01255D72227
:1068C600AD071262B8900040E0900002F074312DDE
:0F68D600F582E43400F583E0900001F00255DB19
:1068E500AD071262B890003FE0900002F074312DC0
:0F68F500F582E43400F583E0900001F00255DBFA
:106B1E001262B8900031E0900002F09000017437DC
:046B2E00F00255DB41
:106ADD001262B8900031E0900002F0900040E0901A
:066AED000001F00255DB80
:106AB000AD071262B874312DF582E43400F583E03D
:076AC000900001F00255DB1C
:1061DE00AD071262B8ED75F00A842431F582E4340D
:1061EE0000F583E0900002F0ED75F00A847431251D
:1061FE00F0F582E43400F583E0900001F00255DB07
:105A4C00AB07AA061262B87C007D64AF03AE0212EB
:105A5C0021DC74312FF58274003EF583E090000355
:105A6C00F07C007D0AAF03AE021221DC7C007D0AC3
:105A7C001221DC74312DF58274003CF583E090002A
:105A8C0002F0AE02AF037C007D0A1221DC74312DD2
:0F5A9C00F58274003CF583E0900001F00255DBC9
:065B0A007B017A057941E0
:105B10001262B81221502431F582E43400F583E09A
:105B2000900004F09000011221692431F582E434E0
:105B300000F583E0900003F0900002122169243107
:105B4000F582E43400F583E0900002F09000031247
:105B500021692431F582E43400F583E0900001F0FE
:035B60000255DB10
:103C26001262B89000AEE060179004FB7401F0A336
:103C36007400F0A374AEF07B017A0079301230ACD8
:103C46009000A6E060179004FB7401F0A37400F0E6
:103C5600A374A6F07B017A00792C1230AC90009EFA
:103C6600E060179004FB7401F0A37400F0A3749E47
:103C7600F07B017A0079281230AC900096E060174C
:103C86009004FB7401F0A37400F0A37496F07B011A
:103C96007A0079241230AC90008EE060179004FB15
:103CA6007401F0A37400F0A3748EF07B017A00799E
:103CB600201230AC900086E060179004FB7401F08F
:103CC600A37400F0A37486F07B017A00791C12308D
:103CD600AC90007EE060179004FB7401F0A37400C2
:103CE600F0A3747EF07B017A0079181230AC900054
:103CF60076E060179004FB7401F0A37400F0A374DF
:103D060076F07B017A0079141230AC90006EE06098
:103D1600179004FB7401F0A37400F0A3746EF07B9B
:103D2600017A0079101230AC900066E060179004BA
:103D3600FB7401F0A37400F0A37466F07B017A00B3
:103D4600790C1230AC90005EE060179004FB7401B1
:103D5600F0A37400F0A3745EF07B017A0079081278
:103D660030AC900056E060179004FB7401F0A37429
:103D760000F0A37456F07B017A0079041230AC226D
:1030AC009004F8EBF0A3EAF0A3E9F0A3E0FBA3E0B3
:1030BC00FAA3E0F99000011221692431F582E4347D
:1030CC0000F583E0FF9004F8E0FBA3E0FAA3E0F93D
:1030DC00EF1221969004FBE0FBA3E0FAA3E0F99039
:1030EC0000021221692431F582E43400F583E0FFFB
:1030FC009004F8E0FBA3E0FAA3E0F990FFFFEF12D5
:10310C0021A89004FBE0FBA3E0FAA3E0F9900003F4
:10311C001221692431F582E43400F583E0FF900438
:10312C00F8E0FBA3E0FAA3E0F990FFFEEF1221A870
:10313C009004FBE0FBA3E0FAA3E0F9900004122159
:10314C00692431F582E43400F583E0FF9004F8E063
:10315C00FBA3E0FAA3E0F990FFFDEF1221A8900485
:10316C00FBE0FBA3E0FAA3E0F990000512216954FF
:10317C000F24FD603614700302320F24FD7003021D
:10318C0032541470030232672406600302328090BA
:10319C0004F8E0FBA3E0FAA3E024FDF9EA34FFFA1B
:1031AC0012215044801221960232549004F8E0FB14
:1031BC00A3E0FAA3E024FDF9EA34FFFA122150440B
:1031CC00801221969004F8E0FBA3E0FAA3E024FE21
:1031DC00F9EA34FFFA12215044801221969004F837
:1031EC00E0FBA3E0FAA3E024FFF9EA34FFFA122192
:1031FC005044801221969004F8E0FBA3E0FAA3E07F
:10320C00F980699004F8E0FBA3E0FAA3E024FDF94F
:10321C00EA34FFFA12215044801221969004F8E00F
:10322C00FBA3E0FAA3E024FEF9EA34FFFA122150E2
:10323C0044801221969004F8E0FBA3E0FAA3E0246A
:10324C00FFF9EA34FFFA80249004F8E0FBA3E0FADB
:10325C00A3E024FEF9EA34FFFA80119004F8E0FBB5
:10326C00A3E0FAA3E024FDF9EA34FFFA122150445A
:05327C008012219622E2
:104EF1009004EAEBF0A3EAF0A3E9F0A3E0FBA3E05E
:104F0100FAA3E0F9122150FF9004EAE0FBA3E0FAD2
:104F1100A3E0F9EF1221969004EDE0FBA3E0FAA3E0
:104F2100E0F9900001122169FF9004EAE0FBA3E09F
:104F3100FAA3E0F9900001EF1221A89004EDE0FB43
:104F4100A3E0FAA3E0F9900002122169FF9004EABC
:104F5100E0FBA3E0FAA3E0F9900002EF1221A89090
:104F610004EDE0FBA3E0FAA3E0F99000031221694C
:104F7100FF9004EAE0FBA3E0FAA3E0F9900003EF5D
:104F81001221A89004EDE0FBA3E0FAA3E0F9900060
:104F910004122169FF9004EAE0FBA3E0FAA3E0F91F
:104FA100900004EF1221A89004EDE0FBA3E0FAA326
:104FB100E0F9900007122169FF9004EAE0FBA3E009
:0B4FC100FAA3E0F9900005EF0221A820
:095D56002456F974003EFA7B01A9
:105D5F001221509000081221A89000011221699081
:105D6F0000091221A890000212216990000A122145
:105D7F00A890000312216990000B1221A890000433
:105D8F0012216990000C1221A89000051221699030
:055D9F00000D0221A827
:0E5C620075F008A42456F9740035F0FA7B01A1
:105C70009000081221691221969000091221699062
:105C800000011221A890000A12216990000212213D
:105C9000A890000B1221699000031221A890000C1B
:105CA0001221699000041221A890000D1221699020
:055CB00000050221A81F
:10393A0078EE7C047D017BFF7A6879A67E007F0899
:10394A0012212AE49004F6F0A3F0126D919004F685
:10395A00EFF0126D859004F7EFF0126D7F9004EC92
:10396A00EFF0126D799004EDEFF0126E0F9004ED06
:10397A00E0FE9004ECE0FDC39E500AEF9D4006EE87
:10398A006003E0701B9004EDE06003023AB5900416
:10399A00ECE0FE7003023AB5EFD39E5003023AB54B
:1039AA00E49004EAF09004EAE0FFC3940A5022EF9C
:1039BA0075F008A42456F582740035F0F583E0709A
:1039CA00089004EAE0A3F080089004EAE004F0809A
:1039DA00D4E49004EAF09004EBE024FFFFE434FF1F
:1039EA00FEEF7803C333CE33CED8F9FF9004EAE072
:1039FA00FD7A002FFFEA3EFE74562FF58274003ED0
:103A0A00F583E0FF74EE2DF582E43404F583EFF0DC
:103A1A009004EAE004F0E0B406BC9004EBE0900401
:103A2A00EAF09004EAE0FFD39401401DEF24FEFF80
:103A3A00E434FFFEEF7803C333CE33CED8F9125DF8
:103A4A00569004EAE014F080D9E49004EAF0900475
:103A5A00EAE0FF24EEF582E43404F583E0FE7456CE
:103A6A002FF582E43400F583EEF09004EAE004F0E6
:103A7A00E0B406DA123C261255DBE4FF126E15900A
:103A8A0004F6E0B401257B017A007956900056E0ED
:103A9A00FD9004FCE4F0A3EDF090005BE0540F907D
:0B3AAA0004FEF09004F7E0FF12344B24
:013AB50022EE
:104AC000E49004F0F0A3F0126D7F9004EBEFF0128D
:104AD0006D799004ECEFF0126E0F9004EDEFF01290
:104AE0006D739004EEEFF0126D6D9004EFEFF01225
:104AF0006D8B9004F1EFF09004EBE0FFA3E0FEC3B8
:104B00009F500EA3E09E4009EF60069004ECE07019
:104B10001A9004EBE06003024BDEA3E0FF70030297
:104B20004BDEA3E0D39F5003024BDEE49004EAF097
:104B30009004EEE014FD9004EAE0FFC39D500CEFFA
:104B4000125C629004EAE004F080E5ED3333335404
:104B5000F89004EAF09004EEE075F008A4FF9004E9
:104B6000EAE0FDC39FE5F06480F874809850147407
:104B7000562DF582E43400F583E4F09004EAE00475
:104B8000F080D2123C261255DBE4FF126E15900025
:104B900056E07004FF026D679004EFE06402703E1F
:104BA0009004EAF09004F1E0FF9004EAE0C39F5023
:104BB0002D7B017A007956900056E0FD9004FCE4CC
:104BC000F0A3EDF090005BE0540F9004FEF0900431
:0E4BD000F0E0FF12344B9004EAE004F080C6DF
:014BDE0022B4
:10554200E49004C0F0126D739004C0EFF0E4FDFC2F
:105552009004C0E024FFFFE434FFFEC3ED9FEC9E05
:10556200501FEDAE047803C333CE33CED8F92456A0
:10557200F974003EFA7B01125C700DBD00010C80D3
:10558200CF9004C0E024FFFFE434FFFEEF7803C3B2
:1055920033CE33CED8F9FDAC069004C0E075F008E6
:1055A200A4FFC3ED9FEC95F0501374562DF5827451
:1055B200003CF583E4F00DBD00010C80DC9005F9A0
:1055C200E014F0123C261255DB900056E07004FF06
:0355D200126D67F0
:0155D50022B3
:1053EA0078C17C047D017BFF7A6879AE7E007F06F6
:1053FA0012212A126D739004C0EFF0126D73AD077B
:10540A00E4FCECC39D501CEC75F008A42456F5820C
:10541A00740035F0F583E070079004C0ECF0800367
:10542A000C80DFE4FC74562CF582E43400F583E04A
:10543A00FF74C12CF582E43404F583EFF00CECB46C
:10544A0006E3E4FC9004C0E0FFECC39F5007EC12B3
:10545A005C620C80EFE4FC74C12CF582E43404F540
:10546A0083E0FD9004C0E024FFFFE434FFFEEF7800
:10547A0003C333CE33CED8F9FFEC7A002FFFEA3ECE
:10548A00FE74562FF58274003EF583EDF00CECB4F1
:08549A0006C5123C260255DB99
:104DF80078C27C047D017BFF7A6879B47E007F06E7
:104E080012212A126D739004C1EFF0126D73AD0771
:104E1800E49004C0F09004C0E0FFC39D5022EF75F9
:104E2800F008A42456F582740035F0F583E0700884
:104E38009004C0E0A3F080089004C0E004F080D59E
:104E4800E49004C0F09004C1E024FFFFE434FFFEC6
:104E5800EF7803C333CE33CED8F9FF9004C0E0FD1A
:104E68007A002FFFEA3EFE74562FF58274003EF555
:104E780083E0FF74C22DF582E43404F583EFF090EB
:104E880004C0E004F0E0B406BC9004C1E09004C0A3
:104E9800F09004C0E0FFD39401401DEF24FEFFE42E
:104EA80034FFFEEF7803C333CE33CED8F9125D5604
:104EB8009004C0E014F080D9E49004C0F09004C0DD
:104EC800E0FF24C2F582E43404F583E0FE74562F33
:104ED800F582E43400F583EEF09004C0E004F0E0DD
:094EE800B406DA123C260255DB87
:0B2E83009004EAEBF0A3EAF0A3E9F0F2
:102E8E0078F67C047D017BFF7A6879BA7E007F0636
:102E9E0012212A126D739004F2E4F0A3EFF0126D7A
:102EAE00739004F4E4F0A3EFF0E49004F0F0A3F0D8
:102EBE009004F4E0FEA3E0FF9004F0E0FCA3E0FD3C
:102ECE00C39FEC9E4003022FC9EDAE047803C333BB
:102EDE00CE33CED8F9FF9004EDE0FBA3E0FAA3E0E9
:102EEE002FF9EA3EFA900001122169FD9004EAE002
:102EFE00FBA3E0FAA3E0F99000011221696D6003D3
:102F0E00022FB59004EDE0FBA3E0FAA3E02FF9EA5F
:102F1E003EFA900002122169FF9004EAE0FBA3E062
:102F2E00FAA3E0F99000021221696F707A9004F012
:102F3E00E0FEA3E07803C333CE33CED8F9FF90047E
:102F4E00EDE0FBA3E0FAA3E02FF9EA3EFA900003CE
:102F5E00122169FD9004EAE0FBA3E0FAA3E0F990E8
:102F6E000003122169B5053F9004EDE0FBA3E0FAE2
:102F7E00A3E02FF9EA3EFA900004122169FF9004B3
:102F8E00EAE0FBA3E0FAA3E0F9900004122169B590
:102F9E0007159005F9E014F09004F0E0FFA3E0A30C
:102FAE00CFF0A3EFF080149004F1E004F060030280
:102FBE002EBE9004F0E004F0022EBE9004F2E070FB
:102FCE0002A3E07003126B329004F2E0FFA3E090D4
:102FDE0004F0CFF0A3EFF09004F4E0FEA3E0FF9036
:102FEE0004F0E0FCA3E0FDC39FEC9E502FEDAE0479
:102FFE007803C333CE33CED8F9FF9004EDE0FBA3B4
:10300E00E0FAA3E02FF9EA3EFA125C709004F1E0C8
:10301E0004F070C39004F0E004F080BB9004F4E080
:10302E00FEA3E0FF9004F2E06E7003A3E06F605920
:10303E00E49004F0F0A3F09004F0E0FCA3E0FDC3F4
:10304E009406EC940050429004F5E024FFFF9004A7
:10305E00F4E034FFFEEF7803C333CE33CED8F9FF5E
:10306E009004EDE0FBA3E0FAA3E02FF9EA3EFAE9C3
:10307E002DF9EA3CFAE41221969004F1E004F07086
:10308E00B69004F0E004F080AE9004EDE0FBA3E017
:0D309E00FAA3E0F91221507004FF126D67D3
:0130AB002202
:0B3AB6009004EAEBF0A3EAF0A3E9F0B3
:103AC10078F17C047D017BFF7A6879C07E007F06F6
:103AD10012212A126D739004F0EFF0126D73AD078D
:103AE100E4FCECC39D4003023BC3EC75F008A4FF6A
:103AF1009004EDE0FBA3E0FAA3E02FF9EA35F0FA38
:103B0100900001122169FF9004EAE0FBA3E0FAA30F
:103B1100E0F99000011221696F6003023BBFEC756F
:103B2100F008A4FF9004EDE0FBA3E0FAA3E02FF975
:103B3100EA35F0FA900002122169FF9004EAE0FBF5
:103B4100A3E0FAA3E0F99000021221696F706FEC13
:103B510075F008A4FF9004EDE0FBA3E0FAA3E02FC9
:103B6100F9EA35F0FA900003122169FF9004EAE0C6
:103B7100FBA3E0FAA3E0F99000031221696F703E04
:103B8100EC75F008A4FF9004EDE0FBA3E0FAA3E0DC
:103B91002FF9EA35F0FA900004122169FF9004EA46
:103BA100E0FBA3E0FAA3E0F9900004122169B50754
:103BB1000D9005F9E014F09004F0ECF080040C0293
:103BC1003AE39004F0E0FCECC39D501CEC75F00866
:103BD100A4FF9004EDE0FBA3E0FAA3E02FF9EA359E
:103BE100F0FA125C700C80DF9004F0E06D6035E457
:103BF100FCED24FFFFE434FFFEEF7803C333CE3343
:103C0100CED8F9FF9004EDE0FBA3E0FAA3E02FF991
:103C1100EA3EFAEC7E0029F9EE3AFAE41221960C1A
:043C2100ECB406CD2C
:013C2500227C
:10669D00E4FF126DE5E49005F9F0EFB40107D2CDFA
:1066AD001260DF800312360D126DEBBF0103126C09
:0366BD008BC297F6
:0166C00022B7
:05000600E4FF0268C6E2
:1067FD00D2CDC2977F011268C6126DD9BF01121298
:10680D006DA3BF010C7F6F7E00126180E4FF126DDE
:02681D00DF2278
:106922007F021268C6126DD9BF0112126DA3BF0198
:0E6932000C7F707E00125FFFE4FF126DDF220B
:106940007F031268C6126DD9BF0112126DA3BF0179
:0E6950000C7F717E00125FFFE4FF126DDF22EC
:10695E007F041268C6126DD9BF0112126DA3BF015A
:0E696E000C7F727E00125FFFE4FF126DDF22CD
:10697C007F051268C6126DD9BF0112126DA3BF013B
:0E698C000C7F737E00125FFFE4FF126DDF22AE
:10699A007F061268C6126DD9BF0112126DA3BF011C
:0E69AA000C7F747E00125FFFE4FF126DDF228F
:1069B8007F071268C6126DD9BF0112126DA3BF01FD
:0E69C8000C7F757E00125FFFE4FF126DDF2270
:1069D6007F081268C6126DD9BF0112126DA3BF01DE
:0E69E6000C7F767E00125FFFE4FF126DDF2251
:1069F4007F091268C6126DD9BF0112126DA3BF01BF
:0E6A04000C7F777E00125FFFE4FF126DDF2231
:05001E007F0A0268C624
:056E87007F0B0268C64C
:056E8C007F0C0268C646
:0D000E007F0D1268C6E4FF126C96D2CD2261
:105DF200126DF1BF010812360D7F02126DF7126D9E
:105E0200F1EF64037031126DA9EF7012900008F087
:105E1200900007F0900006F0900005F08011E490E9
:105E2200000CF090000BF090000AF0900009F012C4
:0A5E320055DBE4FF126DF70256681D
:10603900126DF1BF010812360D7F02126DF7126D54
:10604900F1BF0321126DA9EF700A90000AF09000C8
:1060590009F08009E4900008F0900007F01255DB80
:08606900E4FF126DF702566816
:10607100126DF1BF010812360D7F02126DF7126D1C
:10608100F1BF0321126DA9EF700A90000CF090008E
:106091000BF08009E4900006F0900005F01255DB4A
:0860A100E4FF126DF7025668DE
:1066C100126DF1BF010812360D7F02126DF7126DC6
:1066D100F1BF030DE490000DF01255DBE4FF126DE4
:0466E100F7025668FE
:1062E100126DF1BF010812360D7F02126DF7126DAA
:1062F100F1BF0311E4900004F0900003F01255DBAC
:08630100E4FF126DF70256687B
:1061AD00126DE5EFB401057F01026D67126DF1BF50
:1061BD00010812360D7F02126DF7126DF1BF030D3E
:1061CD00E4900002F01255D7E4FF126DF7125668F5
:0161DD00229F
:106B6C007F011268E5E4900541F0A3F0A3F0A304C3
:026B7C00F02205
:106B7E007F021268E5E490054BF0A3F0A3F0A304A6
:026B8E00F022F3
:106B90007F031268E5E4900556F0A3F0A3F0A30488
:026BA000F022E1
:106BA2007F041268E5E4900562F0A3F0A3F0A30469
:026BB200F022CF
:106BB4007F011268E5E4900546F0A3F0A3F0A30476
:026BC400F022BD
:106BC6007F021268E5E4900551F0A3F0A3F0A30458
:026BD600F022AB
:106BD8007F031268E5E490055DF0A3F0A3F0A30439
:026BE800F02299
:106BEA007F041268E5E4900568F0A3F0A3F0A3041B
:026BFA00F02287
:056E91007F010268E52D
:056E96007F020268E527
:086CD200E4FF126D790261DE9E
:086CDA00E4FF126D7F0261DE90
:056E9B007F010268E523
:056EA0007F020268E51D
:056EA5007F030268E517
:056EAA007F040268E511
:056EAF007F050268E50B
:056EB4007F010268E50A
:056EB9007F020268E504
:056EBE007F030268E5FE
:056EC3007F040268E5F8
:0E6C6F007F011268E5126DCD900390EFF022C8
:056EC8007F020268E5F5
:056ECD007F010268E5F1
:056ED2007F020268E5EB
:106A4B00E4FFFEFDFC126CC9AC06AD077E277F1080
:0A6A5B001221DCAC06AD07025A4C14
:086CE200E4FF126DEB026AB041
:086CEA00E4FF126DE5026AB03F
:105D0600126E279004C0EFF0D394145031E0FAC31A
:105D1600940450028019EAD3941250139004C0E000
:105D2600C3132484F582E43403F583E0FF80027F05
:105D3600FF125E8630A4077F3C7E001261809004CD
:0F5D4600C0E0D3941440061262B81255DBC2CDF0
:015D5500222B
:10681F00126DF1BF0108125B0A7F02126DF7126D44
:10682F00F1BF030DE4900004F01255DBE4FF126D8D
:02683F00F7223E
:10684100126DF1BF0108125B0A7F02126DF7126D22
:10685100F1BF030DE4900003F01255DBE4FF126D6C
:02686100F7221C
:10686300126DF1BF0108125B0A7F02126DF7126D00
:10687300F1BF030DE4900002F01255DBE4FF126D4B
:02688300F722FA
:10002600126DF1BF0108125B0A7F02126DF7126DA5
:0D003600F1BF03081255D6E4FF126DF7224A
:10630900126DF1BF010E7B017A05794B125B107F8B
:1063190002126DF7126DF1BF030DE4900004F01243
:0863290055DBE4FF126DF722C1
:10633100126DF1BF010E7B017A05794B125B107F63
:1063410002126DF7126DF1BF030DE4900003F0121C
:0863510055DBE4FF126DF72299
:10635900126DF1BF010E7B017A05794B125B107F3B
:1063690002126DF7126DF1BF030DE4900002F012F5
:0863790055DBE4FF126DF72271
:10670800126DF1BF010E7B017A05794B125B107F88
:1067180002126DF7126DF1BF03081255D6E4FF128D
:036728006DF722E8
:10638100126DF1BF010E7B017A057956125B107F08
:1063910002126DF7126DF1BF030DE4900004F012CB
:0863A10055DBE4FF126DF72249
:1063A900126DF1BF010E7B017A057956125B107FE0
:1063B90002126DF7126DF1BF030DE4900003F012A4
:0863C90055DBE4FF126DF72221
:1063D100126DF1BF010E7B017A057956125B107FB8
:1063E10002126DF7126DF1BF030DE4900002F0127D
:0863F10055DBE4FF126DF722F9
:10672B00126DF1BF010E7B017A057956125B107F5A
:10673B0002126DF7126DF1BF03081255D6E4FF126A
:03674B006DF722C5
:1063F900126DF1BF010E7B017A057962125B107F84
:1064090002126DF7126DF1BF030DE4900004F01252
:0864190055DBE4FF126DF722D0
:10642100126DF1BF010E7B017A057962125B107F5B
:1064310002126DF7126DF1BF030DE4900003F0122B
:0864410055DBE4FF126DF722A8
:10644900126DF1BF010E7B017A057962125B107F33
:1064590002126DF7126DF1BF030DE4900002F01204
:0864690055DBE4FF126DF72280
:10674E00126DF1BF010E7B017A057962125B107F2B
:10675E0002126DF7126DF1BF03081255D6E4FF1247
:03676E006DF722A2
:10647100126DF1BF010E7B017A057946125B107F27
:1064810002126DF7126DF1BF030DE4900004F012DA
:0864910055DBE4FF126DF72258
:10649900126DF1BF010E7B017A057946125B107FFF
:1064A90002126DF7126DF1BF030DE4900003F012B3
:0864B90055DBE4FF126DF72230
:1064C100126DF1BF010E7B017A057946125B107FD7
:1064D10002126DF7126DF1BF030DE4900002F0128C
:0864E10055DBE4FF126DF72208
:10677100126DF1BF010E7B017A057946125B107F24
:1067810002126DF7126DF1BF03081255D6E4FF1224
:036791006DF7227F
:1064E900126DF1BF010E7B017A057951125B107FA4
:1064F90002126DF7126DF1BF030DE4900004F01262
:0865090055DBE4FF126DF722DF
:10651100126DF1BF010E7B017A057951125B107F7B
:1065210002126DF7126DF1BF030DE4900003F0123A
:0865310055DBE4FF126DF722B7
:10653900126DF1BF010E7B017A057951125B107F53
:1065490002126DF7126DF1BF030DE4900002F01213
:0865590055DBE4FF126DF7228F
:10679400126DF1BF010E7B017A057951125B107FF6
:1067A40002126DF7126DF1BF03081255D6E4FF1201
:0367B4006DF7225C
:10656100126DF1BF010E7B017A05795D125B107F1F
:1065710002126DF7126DF1BF030DE4900004F012E9
:0865810055DBE4FF126DF72267
:10658900126DF1BF010E7B017A05795D125B107FF7
:1065990002126DF7126DF1BF030DE4900003F012C2
:0865A90055DBE4FF126DF7223F
:1065B100126DF1BF010E7B017A05795D125B107FCF
:1065C10002126DF7126DF1BF030DE4900002F0129B
:0865D10055DBE4FF126DF72217
:1067B700126DF1BF010E7B017A05795D125B107FC7
:1067C70002126DF7126DF1BF03081255D6E4FF12DE
:0367D7006DF72239
:1065D900126DF1BF010E7B017A057968125B107F9C
:1065E90002126DF7126DF1BF030DE4900004F01271
:0865F90055DBE4FF126DF722EF
:10660100126DF1BF010E7B017A057968125B107F73
:1066110002126DF7126DF1BF030DE4900003F01249
:0866210055DBE4FF126DF722C6
:10662900126DF1BF010E7B017A057968125B107F4B
:1066390002126DF7126DF1BF030DE4900002F01222
:0866490055DBE4FF126DF7229E
:1067DA00126DF1BF010E7B017A057968125B107F99
:1067EA0002126DF7126DF1BF03081255D6E4FF12BB
:0367FA006DF72216
:086CF200E4FF126D6D026AB0AF
:086CFA00E4FF126D730261DE7C
:086D0200E4FF126D85026AB086
:086D0A00E4FF126D8B026AB078
:086D1200E4FF126D91026AB06A
:106A1200E49004C0F0126D979004C0EFF075F0039B
:0D6A2200A4FF1268859004C0E0FF026AB076
:086D1A00E4FF126D9D026AB056
:106BFC00E4FF126DB5EFC3940A5003026AB0126A37
:016C0C00DDAA
:016C0D002264
:086D2200E4FF126DBB026AB030
:086D2A00E4FF126DC1026AB022
:086D3200E4FF126DC7026AB014
:105FC500E49004C0F0126DCD9004C0EFF0126AB0F9
:105FD500900390E0FF9004C0E06F601D125AAB90F3
:105FE50004C0E0900390F0126DD9BF010C7F797E5B
:095FF50000126180E4FF126DDF6F
:015FFE002280
:1060A900E49004C0F0126DD39004C0EFF01261DEE9
:1060B900126DD9BF010D9004C0E02442FFE433FE04
:1060C900125FFF126E7BBF010C7F797E00125FFFAA
:0560D900E4FF126E81DE
:0160DE00229F
:105DA400E49004C0F0A3F0126D859004C0EFF012EB
:105DB4006DAF9004C1EFF0900056E0B4340A30A403
:105DC400077F687E00126180D2CD9004C1E0700329
:105DD400D29722126DF1BF0107D2977F02126DF79D
:0D5DE400126DF1BF0307C297E4FF126DF7C7
:015DF100228F
:056ED7007F060268E5E2
:086D3A00E4FF126DA3026AB030
:056EDC007F070268E5DC
:086D4200E4FF126DA9026AB022
:056EE1007F080268E5D6
:086D4A00E4FF126DAF026AB014
:101F92004105ED004105F6004105F3004105F4005D
:101FA2004105EE004105EB004105F8004105F00056
:101FB2004105EC004105F2004105F1004105EF0049
:081FC2004105F7004105F5009F
:106C5100438901758C3C758AB0D2AFD2A9D28C22FE
:0E6C7D00438910758DFF758B9CD2AFD2AB2270
:03000B000244F0BC
:1044F000C0E0C0F0C083C082C0D075D000C000C092
:0D45000001C002C003C004C005C006C00712
:10450D00900538E4F0A3F0C28D758C3C758AB0121D
:10451D006D61900538EFF0126DE5900539EFF09073
:10452D0005EDE004F0E0B40A199005F6E004F09012
:10453D0005F2E004F09005EDE4F09005F1E0600285
:10454D0014F09005F6E0C394044002E4F09005F2F7
:10455D00E0C394184002E4F09005EFE0600214F01F
:10456D009005F3E0B40104A3E004F0126E63BF0103
:10457D00149005EEE004F0E0D394784008126E69D3
:10458D009005EEE4F09005F5E0B401159005F7E027
:10459D0004F0E0D3947840099005F5E4F09005F728
:1045AD00F0900538E0FFB45F159005EBE004F0E006
:1045BD00B4140B9005F8E004F09005EBE4F0EF6413
:1045CD005F601A900538E0643160129005F0E004E8
:1045DD00F0E0D394C84006E4F0FF126D6790053803
:1045ED00E07015A3E0B402109005ECE004F0E0C318
:0845FD00940A4004B2CDE4F081
:10460500D007D006D005D004D003D002D001D00009
:0B461500D0D0D082D083D0F0D0E032B3
:03001B00025CB5CF
:105CB500C0E0C0F0C083C082C0D075D000C000C0B5
:0D5CC50001C002C003C004C005C006C00736
:105CD200E4FF126D61C28F758DFF758B9CEFB42E40
:095CE20005122BD5800312428843
:105CEB00D007D006D005D004D003D002D001D0000D
:0B5CFB00D0D0D082D083D0F0D0E032B7
:056DF1009005F6E0FF33
:016DF600227A
:066DF7009005F6EFF0220A
:066DFD009005F3EFF02207
:056E03009005F4E0FF22
:016E08002267
:066E0900E49005F4F02204
:056E0F009005F8E0FF12
:016E1400225B
:066E15009005F8EFF022E9
:066E1B00E49005F0F022F6
:066E21009005F4EFF022E1
:056E27009005F2E0FF00
:016E2C002243
:0B6C96009005F2EFF0E49005EDF02215
:056E2D009005F1E0FFFB
:016E3200223D
:0B6CA1009005F1EFF0E49005EDF0220B
:056E33009005EFE0FFF7
:016E38002237
:066E39009005EFEFF022CE
:066E3F00E49005EEF022D4
:066E4500E49005F7F022C5
:066E4B009005F5EFF022B6
:056E51009005F5E0FFD3
:016E56002219
:0B1FCA004805DB140F09040C22000680
:045ECE00E0FD7F8AEA
:105ED200D2A0EF54FEFFE4FEEF30E004D2A1800234
:105EE200C2A1D2A2C2A2EFC313FF0EEEB408E9E42C
:105EF200FEED30E004D2A18002C2A1D2A2C2A2ED84
:0A5F0200C313FD0EEEB408E9C2A0BF
:015F0C002272
:105F0D00D2A0EF4401FFE4FDEF30E004D2A1800206
:105F1D00C2A1D2A2C2A2EFC313FF0DEDB408E9E4F2
:105F2D00FDEEC313FE30A1054480FE8004EE547FC8
:0E5F3D00FED2A2C2A20DEDB408E7C2A0AF06CC
:015F4B002233
:10566800E4FF74DB2FF582E43405F583E0FE75F082
:105678000A84FDEE75F00A8474E32FF582E434059C
:10568800F583E5F0F0EDC454F0FE74E32FF582E401
:105698003405F583E02EF00FEFB408C6E4FD7F8EE5
:1056A800125ED27D807F80125ED29005E4E0FD7F9D
:1056B8008C125ED2A3E0FD7F88125ED2A3E0FD7F4C
:1056C80086125ED29005EA125ECE9005E7E0FD7F75
:1056D80084125ED2A3E0FD7F82125ED2A3E0FD7F3A
:0F56E80080125ED2A3125ECE7D807F8E025ED2D4
:105897007F8C125F0D9005E4EFF07F88125F0DA3F8
:1058A700EFF07F86125F0DA3EFF07F84125F0DA3E9
:1058B700EFF07F82125F0DA3EFF07F80125F0DEF95
:1058C700547FA3F07F8A125F0DA3EFF0E4FF74E328
:1058D7002FF582E43405F583E0FEC4540FFDEE5442
:1058E7000FFE74DB2FF582E43405F583EEF0ED75DA
:1058F700F00AA4FE74DB2FF582E43405F583E02E6D
:06590700F00FEFB408C828
:01590D002277
:0B6CAC00C2A0C2A2E4FD7F80025ED205
:101FD5004105B7004105B6004105BC004105BF00FC
:101FE5004105C6004105AB004105AA004305C300F4
:101FF50000004205BD00464205C100784205A70024
:10200500004205A500004205B400004205B800469F
:102015004205BA00784205C800004105A9004105FE
:10202500C7004105C0004105AC004105B0004305AE
:0A203500AD0000004305B1000000FB
:076D5A00D2AFD2A8D28822BB
:03000300026D5239
:086D5200C2A8208E02D28E328D
:106A2F00E49005B7F09005B6F09005BFF09005BC67
:0C6A3F00F09005C6F09005AAF0A3F0222C
:1042880030B2059005BF80039005BCE004F09005AE
:10429800ABE004F0E0D394A07480948F4007C28E02
:1042A800D2A8026A2F9005AAE01460351460691438
:1042B8007003024347240360030243B79005BFE03D
:1042C800D3940040030243B79005BCE0D394465012
:1042D800030243BE9005AAE004F0E49005BFF08015
:1042E800329005BFE0FFFD9005BCE02DFDE433FCF6
:1042F800D3ED948CEC6480948040030243B7EFD3F1
:10430800940150030243BE30A802C2A89005AAE057
:1043180004F0E49005BCF0229005BCE0D394014081
:10432800139005BFE09005B7F0E49005BFF0900545
:10433800AAE004F09005BFE0D3941940798070900A
:1043480005BFE0D39401405C9005BCE0FF9005B642
:10435800F0E49005BCF09005AA7402F09005C6E060
:10436800131313541FFE24C3F582E43405F583E0C8
:10437800FD25E0F09005B7E0D39F400E74C32EF5FD
:1043880082E43405F583E04401F09005C6E004F0CA
:10439800E0D39417400EC28E126A2F9005A97401BB
:1043A800F0D2A8229005BCE0D394194009800012ED
:0743B8006A2FD2A8C28E2279
:103D8600E4900514F0126D61900514EFF09005A90A
:103D9600E064016003023ED0F0C2A89005C0E014C2
:103DA6006027046003023ECE9005C3E09005ADF0A7
:103DB6009005C4E09005AEF09005C5E09005AFF023
:103DC6009005C07401F0023ECE9005C3E0FF900559
:103DD600ADE06F6003023EB69005C4E0FE9005AE0E
:103DE600E06E6003023EB69005C5E0FD9005AFE0CB
:103DF6006D6003023EB69005B1E06F7012A3E06EEF
:103E0600700DA3E0B505089005ACE0702380009026
:103E160005C3E09005B1F09005C4E09005B2F090BE
:103E260005C5E09005B3F09005C77401F0126E3F2A
:103E36009005AC7401F0126E1B9005B2E0FFE4FC35
:103E4600FDFE7808122258C004C005C006C00790BF
:103E560005B1E0FFE4FCFDFE7810122258D003D035
:103E660002D001D000EF4BFBEE4AFAED49F9EC48DF
:103E7600F89005B3E0FFEB4FFFEAFEE9FDE8FC7BB7
:103E8600017A05791512509FEF600D9005B0740107
:103E9600F0FF126DDF126E1BE49005C3F0A3F0A3D2
:103EA600F09005ADF0A3F0A3F0E49005C0F0801803
:103EB6009005C3E09005ADF09005C4E09005AEF026
:0A3EC6009005C5E09005AFF0D2A80A
:013ED00022CF
:102BD50030B2059005BF80039005BCE004F0900578
:102BE500ABE004F0E0D394A07480948F4006C28ECD
:102BF500D2A880279005AAE014605A147003022C0D
:102C0500E9147003022D3424036003022E7B900522
:102C1500BFE0D394004007D2A8C28E026A2F900568
:102C2500A7E0FEA3E0FF7C007D0F1221CAEF243C44
:102C3500FFE43EFE9005BCE0D39FEC9E5003022EC0
:102C4500829005AAE004F09005BDEEF0A3EFF0E454
:102C5500A3F0022CE49005A5E0FEA3E0FF7C007D37
:102C65000F1221CAEF2478FFE43EFE9005BFE0F97C
:102C7500FD9005BCE02DFDE433FCD3ED9FEC9E40BB
:102C850022E9701C9005A6E004F070069005A5E009
:102C950004F09005A8E004F070069005A7E004F0A4
:102CA500022E7BE9D394015003022E829005A5E004
:102CB500FEA3E0FF7C007D0F1221CAEF2478FFE41C
:102CC5003E9005C1F0A3EFF0E49005A5F0A3F0A3B5
:102CD500F0A3F030A802C2A89005AAE004F0E490A1
:102CE50005BCF0229005BCE0D3940040139005BFCD
:102CF500E09005B7F0E49005BFF09005AAE004F078
:102D05009005BDE0FEA3E0FF9005C2E02FFF900512
:102D1500C1E03EFEEF7803CEC313CE13D8F9FF9082
:102D250005BFE0D39FE49E5003022E82022E7B90C6
:102D350005BFE0D394005003022E509005BCE0FF80
:102D45009005B6F0E49005BCF09005AA7402F090E9
:102D550005C6E0131313541FFE24C3F582E434059E
:102D6500F583E025E0F09005B7E0FDD39F400E74B4
:102D7500C32EF582E43405F583E04401F09005C6E1
:102D8500E004F0E0D394175003022E50C28E900554
:102D9500B6E02DFEE4339005B4F0A3CEF0126A2F11
:102DA5009005C9E004F070069005C8E004F09005B0
:102DB500C1E0FEA3E0FF9005BBE02FF09005BAE06F
:102DC5003EF0E0C313FEA3E013FF9005C1EEF0A3B0
:102DD500EFF09005BAEEF0A3EFF0D39005C9E094BB
:102DE500019005C8E09400405F9005B8E0FEA3E0BF
:102DF500FF9005BDE0FCA3E0FD9FFFEC9EFED3EF39
:102E0500941EEE940040159005B9E09DFF9005B81D
:102E1500E09CFED3EF941EEE9400502C9005BDE08F
:102E2500FEA3E0FF9005B9E02FF09005B8E03EF075
:102E3500E0C313FEA3E013FF9005BDEEF0A3EFF092
:102E45009005B8EEF0A3EFF0D2A8229005BDE0FE04
:102E5500A3E0FF9005C2E02FFF9005C1E03EFEEF25
:102E65007803CEC313CE13D8F9FF9005BCE0D39FEA
:0E2E7500E49E40098000126A2FD2A8C28E226D
:056E57009005C7E0FFFB
:016E5C002213
:066E5D00E49005C7F022DD
:056E63009005ACE0FF0A
:016E68002207
:066E6900E49005ACF022EC
:056E6F009005B0E0FFFA
:016E740022FB
:066E7500E49005B0F022DC
:086CC9009005B4E0FEA3E0FF1A
:016CD10022A0
:10203F004805FA00000000000000004106060044B9
:0A204F000602000000004105F90040
:10004600E49004D3F0A3F09004D9F09004E2F0A376
:10005600F0A3F0A3F0A3F0A3F0A3F0A3F0126D6158
:100066009004E2EFF0126DCD9004E3EFF0126DD341
:100076009004E4EFF0126D6D9004E5EFF0126D73ED
:100086009004E6EFF0126D739004D9EFF0126DB59F
:100096009004E7EFF0126D859004E8EFF0126D8B97
:1000A6009004E9EFF0123D86126E57EF640160038B
:1000B600020EA09005B2E0FFE4FCFDFE78081222D5
:1000C60058C004C005C006C0079005B1E0FFE4FCB7
:1000D600FDFE7810122258D003D002D001D000EFD6
:1000E6004BFBEE4AFAED49F9EC48F89005B3E0FF10
:1000F600EB4FFFEAFEE9FDE8FC9004CF1222D59013
:1001060004E2E024CE24FC4003020B2B24FC400333
:10011600020BEB24FC4003020CAB24FC4003020D53
:100126006B24E47003020E3C14700302043F245F48
:100136006003020E9DE4FF126E159005B3E0FF54B6
:10014600F0600302028F9005B1E0C4540FFE9004E4
:10015600E7E06E600302028FEEC3940A40030202D8
:100166008F9004E3E0B4010CEF540F2476F582E49B
:100176003403800D9005B3E0540F2446F582E43431
:1001860000F583E09004DAF09005B1E0FFC4540F67
:100196009004DBF0EF540FA3F09005B2E0FFC454D7
:1001A6000F9004DDF0EF540FA3F09005B1E090043A
:1001B600DFF09005B2E09004E0F09005B3E0900423
:1001C600E1F09004DAE0FF64336042EF603FE490D0
:1001D60004D7F09004E9E0FF9004D7E0C39F505C99
:1001E6007B017A0479DA9004DAE0FD9004FCE4F00D
:1001F600A3EDF09005B3E0540F9004FEF09004E8F0
:10020600E0FF12344B9004D7E004F080C69004ED72
:100216007401F0A37400F0A37456F07B017A04799C
:10022600DA122E837B017A0479DA9005B3E0540F53
:100236009004EEF07F921232810209E29004E6E029
:10024600FF9005F9E0C39F5003E004F01262B87B0B
:10025600017A0479DA9005B3E0540F9004EEF07F4A
:10026600911232819004ED7401F0A37404F0A3742A
:10027600DAF07B017A007956124EF1123C261255BD
:10028600DB7F5F126D67020E9D7B017A0479C79052
:1002960004CFE0FCA3E0FDA3E0FEA3E0FF12598437
:1002A600EF3395E0FE9004D3F0A3EFF04E70030217
:1002B6000E9D9004CFE0FCA3E0FDA3E0FEA3E0FFCB
:1002C600900602E0F8A3E0F9A3E0FAA3E0FBC3126C
:1002D60022477009126E51EF601F020E9D9004CFE7
:1002E600E0FCA3E0FDA3E0FEA3E0FF9006021222DD
:1002F600D5126E457F01126E4B9004D3E0FEA3E04B
:10030600FF64014E70089004DA7433F08018EF64CD
:10031600024E70089004DA7434F0800A9005B3E057
:10032600540F9004DAF078DB7C047D017B017A04BB
:1003360079C77E007F0412212A9005B3E0FF90045E
:10034600E1F09004DAE0C3943250279004E3E0B47D
:10035600010CEF540F2476F582E43403800D9005EA
:10036600B3E0540F2446F582E43400F583E09004AC
:10037600DAF09004DAE0FF64336042EF603FE49025
:1003860004D7F09004E9E0FF9004D7E0C39F506CD7
:100396007B017A0479DA9004DAE0FD9004FCE4F05B
:1003A600A3EDF09005B3E0540F9004FEF09004E83E
:1003B600E0FF12344B9004D7E004F080C69004E6C8
:1003C600E0FF9005F9E0C39F5003E004F07B017A5B
:1003D6000479DA9005B3E0540F9004EEF07F9212A0
:1003E60032819004ED7401F0A37400F0A37456F00A
:1003F6007B017A0479DA122E830209E21262B87B53
:10040600017A0479DA9005B3E0540F9004EEF07F98
:10041600911232819004ED7401F0A37404F0A37478
:10042600DAF07B017A007956124EF1123C2612550B
:10043600DB7F5F126D67020B25E4FF126E159005D8
:10044600B3E0FF54F060030207839005B1E0C454A3
:100456000FFE9004E7E06E6003020783EEC3940A82
:1004660040030207839004E3E0B4010CEF540F2429
:1004760076F582E43403800D9005B3E0540F2446EC
:10048600F582E43400F583E09004DAF09005B1E0FB
:10049600FFC4540F9004DBF0EF540FA3F09005B2A5
:1004A600E0FFC4540F9004DDF0EF540FA3F0900565
:1004B600B1E09004DFF09005B2E09004E0F0900522
:1004C600B3E09004E1F09004E5E064016003020605
:1004D600029004DAE0FF64336042EF603FE4900488
:1004E600D7F09004E9E0FF9004D7E0C39F505C7B0F
:1004F600017A0479DA9004DAE0FD9004FCE4F0A3D2
:10050600EDF09005B3E0540F9004FEF09004E8E09F
:10051600FF12344B9004D7E004F080C67B017A04C6
:1005260079DA9005B3E0540F9004EEF07F92123220
:10053600819004ED7401F0A37400F0A37456F07B6F
:10054600017A0479DA122E830209E29004E6E0FFCA
:100556009005F9E0C39F5003E004F07B017A04792B
:10056600DA9005B3E0540F9004EEF07F91123281D9
:100576009004ED7401F0A37400F0A37456F07B01AF
:100586007A0479DA123AB69004E6E09004D7F0904D
:1005960004D7E0FFD394014026EF24FEFFE434FFA6
:1005A600FEEF7803C333CE33CED8F92456F9740060
:1005B6003EFA7B01125D5F9004D7E014F080D0E430
:1005C6009004D7F09004D7E0FFC3940650147456F5
:1005D6002FF582E43400F583E4F09004D7E004F0CC
:1005E60080E29004ED7401F0A37404F0A374DAF0D1
:1005F6007B017A007956124EF10209E29004E5E099
:1006060064026003020E9D9004DAE0FF6433600327
:10061600EF702F7B017A0479DA9005B3E0540F90DE
:1006260004EEF07F921232819004ED7401F0A3740F
:1006360000F0A37456F07B017A0479DA122E830255
:1006460009E2E49004D8F09004E6E0FF9004D8E0D4
:10065600FEC39F40030206FCEE75F008A4FFAEF051
:100666002457F58274003EF583E0FD9004DBE0FC40
:10067600ED6C707974582FF58274003EF583E0FFB7
:100686009004DCE0FEEF6E70649004D8E075F0082C
:10069600A4FFAEF02459F58274003EF583E0FD9088
:1006A60004DDE0FCED6C7045745A2FF58274003E53
:1006B600F583E0FF9004DEE0FEEFB506309004D847
:1006C600E0A3F075F008A42456F9740035F0FA7B1F
:1006D60001C0039004EDEBF0A37404F0A374DAF008
:1006E600D003124EF1123C261255DB80099004D835
:1006F600E004F002064D9004E6E0FF9004D9E06FB6
:100706006003020E9D9004D8F09004E6E0FD90048C
:10071600D8E0FFC39D4003020E9DEF75F008A424A8
:1007260056F582740035F0F583E070499005F9E0DE
:10073600C39D5003E004F07B017A0479DA9005B397
:10074600E0540F9004EEF07F911232819004D8E0CD
:1007560075F008A42456F9740035F0FA7B01C0033D
:100766009004EDEBF0A37404F0A374DAF0D0031256
:100776004EF10209E29004D8E004F0808C7B017A05
:100786000479C79004CFE0FCA3E0FDA3E0FEA3E05C
:10079600FF125984EF3395E0FE9004D3F0A3EFF0F7
:1007A6004E7003020E9D9004CFE0FCA3E0FDA3E093
:1007B600FEA3E0FF900602E0F8A3E0F9A3E0FAA3A7
:1007C600E0FBC31222477009126E51EF601F020E42
:1007D6009D9004CFE0FCA3E0FDA3E0FEA3E0FF9024
:1007E60006021222D5126E457F01126E4B9004D37B
:1007F600E0FEA3E0FF64014E70089004DA7433F063
:100806008018EF64024E70089004DA7434F0800A9F
:100816009005B3E0540F9004DAF078DB7C047D0198
:100826007B017A0479C77E007F0412212A9005B3E2
:10083600E0FF9004E1F09004DAE0C3943250279090
:1008460004E3E0B4010CEF540F2476F582E434039C
:10085600800D9005B3E0540F2446F582E43400F58C
:1008660083E09004DAF09004E5E064016003020995
:100876009F9004DAE0FF64336042EF603FE4900447
:10088600D7F09004E9E0FF9004D7E0C39F505C7B6B
:10089600017A0479DA9004DAE0FD9004FCE4F0A32E
:1008A600EDF09005B3E0540F9004FEF09004E8E0FC
:1008B600FF12344B9004D7E004F080C67B017A0423
:1008C60079DA9005B3E0540F9004EEF07F9212327D
:1008D600819004ED7401F0A37400F0A37456F07BCC
:1008E600017A0479DA122E830209E29004E6E0FF27
:1008F6009005F9E0C39F5003E004F07B017A047988
:10090600DA9005B3E0540F9004EEF07F9112328135
:100916009004ED7401F0A37400F0A37456F07B010B
:100926007A0479DA123AB69004E6E09004D7F090A9
:1009360004D7E0FFD394014026EF24FEFFE434FF02
:10094600FEEF7803C333CE33CED8F92456F97400BC
:100956003EFA7B01125D5F9004D7E014F080D0E48C
:100966009004D7F09004D7E0FFC394065014745651
:100976002FF582E43400F583E4F09004D7E004F028
:1009860080E29004ED7401F0A37404F0A374DAF02D
:100996007B017A007956020B129004E5E06402604E
:1009A60003020B259004DAE0FF64336003EF703531
:1009B6007B017A0479DA9005B3E0540F9004EEF0E7
:1009C6007F921232819004ED7401F0A37400F0A3BB
:1009D6007456F07B017A0479DA122E83123C2612C1
:1009E60055DB020E9DE49004D8F09004E6E0FF90FB
:1009F60004D8E0FEC39F4003020A9FEE75F008A4E8
:100A0600FFAEF02457F58274003EF583E0FD9004B6
:100A1600DBE0FCED6C707974582FF58274003EF5BE
:100A260083E0FF9004DCE0FEEF6E70649004D8E093
:100A360075F008A4FFAEF02459F58274003EF583E4
:100A4600E0FD9004DDE0FCED6C7045745A2FF582F4
:100A560074003EF583E0FF9004DEE0FEEFB506305D
:100A66009004D8E0A3F075F008A42456F974003574
:100A7600F0FA7B01C0039004EDEBF0A37404F0A33D
:100A860074DAF0D003124EF1123C261255DB8009BF
:100A96009004D8E004F00209F09004E6E0FF900428
:100AA600D9E06F707A9004D8F09004E6E0FD9004E7
:100AB600D8E0FFC39D5068EF75F008A42456F58270
:100AC600740035F0F583E0704E9005F9E0C39D5053
:100AD60003E004F07B017A0479DA9005B3E0540F61
:100AE6009004EEF07F911232819004D8E075F00800
:100AF600A42456F9740035F0FA7B01C0039004ED86
:100B0600EBF0A37404F0A374DAF0D003124EF112E2
:100B16003C261255DB80089004D8E004F0808A1247
:100B26006E5D020E9D7F35126D6778BF7C047D0178
:100B36007B017A0579417E007F0412212A9005B255
:100B4600E0FFE4FCFDFE7808122258C004C005C090
:100B560006C0079005B1E0FFE4FCFDFE7810122206
:100B660058D003D002D001D000EF4BFBEE4AFAED8D
:100B760049F9EC48F89005B3E0FFEB4FFFEAFEE9D0
:100B8600FDE8FC9004C31222D57B017A0479BF12DA
:100B960048765003020E9D126C61900544E064098C
:100BA600703D900543E06409702F900542E0B4095A
:100BB60022900541E004F0E4A3F0A3F0900541E0A3
:100BC600B4150AE4F090054404F0020E9D90054425
:100BD600020E16900542020E1F900543020E2C903F
:100BE6000544020E377F39126D6778BF7C047D019C
:100BF6007B017A05794B7E007F0412212A9005B28B
:100C0600E0FFE4FCFDFE7808122258C004C005C0CF
:100C160006C0079005B1E0FFE4FCFDFE7810122245
:100C260058D003D002D001D000EF4BFBEE4AFAEDCC
:100C360049F9EC48F89005B3E0FFEB4FFFEAFEE90F
:100C4600FDE8FC9004C31222D57B017A0479BF1219
:100C560043BF5003020E9D126C6190054EE064097D
:100C6600703D90054DE06409702F90054CE0B40985
:100C76002290054BE004F0E4A3F0A3F090054BE0CE
:100C8600B4150AE4F090054E04F0020E9D90054E50
:100C9600020E1690054C020E1F90054D020E2C906A
:100CA600054E020E377F3D126D6778BF7C047D01CD
:100CB6007B017A0579567E007F0412212A9005B2BF
:100CC600E0FFE4FCFDFE7808122258C004C005C00F
:100CD60006C0079005B1E0FFE4FCFDFE7810122285
:100CE60058D003D002D001D000EF4BFBEE4AFAED0C
:100CF60049F9EC48F89005B3E0FFEB4FFFEAFEE94F
:100D0600FDE8FC9004C31222D57B017A0479BF1258
:100D160040185003020E9D126C61900559E064095B
:100D2600703D900558E06409702F900557E0B409AE
:100D360022900556E004F0E4A3F0A3F0900556E0F7
:100D4600B4150AE4F090055904F0020E9D90055979
:100D5600020E16900557020E1F900558020E2C9093
:100D66000559020E377F41126D6778BF7C047D01FD
:100D76007B017A0579627E007F0412212A9005B2F2
:100D8600E0FFE4FCFDFE7808122258C004C005C04E
:100D960006C0079005B1E0FFE4FCFDFE78101222C4
:100DA60058D003D002D001D000EF4BFBEE4AFAED4B
:100DB60049F9EC48F89005B3E0FFEB4FFFEAFEE98E
:100DC600FDE8FC9004C31222D57B017A0479BF1298
:100DD60041505003020E9D126C61900565E0640956
:100DE600704C900564E064097039900563E0B409BD
:100DF60025900562E004F0E4A3F0A3F0900562E01C
:100E0600B4150AE4F090056504F0020E9D900565A0
:100E16007401F0020E9D900563E004F0E4A3F0A3D4
:100E2600F08074900564E004F0E4A3F08069900516
:100E360065E004F08061E4FF126DDF900606740140
:100E4600F09004E3E0B40124A3E0FF9005B3E0547E
:100E56000F2476F582E43403F583EFF07B017A0301
:100E660079769005017410F07D2080249004E4E0EA
:100E7600FF9005B3E0540F2446F582E43400F58371
:100E8600EFF07B017A0079469005017410F07D3011
:100E96007C157FA0125C1C126E5D124AC002393AA4
:056E7B00900606E0FF97
:016E800022EF
:066E8100900606EFF0226E
:1054A200FFFFFFFFFFFFFFFFFFFFFFFFFFFFFFFF0A
:1054B200FFFFFFFFFFFFFFFFFFFFFFFFFFFFFFFFFA
:1054C200FFFFFFFFFFFFFFFFFFFFFFFFFFFFFFFFEA
:1054D200FFFFFFFFFFFFFFFFFFFFFFFFFFFFFFFFDA
:1054E200FFFFFFFFFFFFFFFFFFFFFFFFFFFFFFFFCA
:1054F200FFFFFFFFFFFFFFFFFFFFFFFFFFFFFFFFBA
:10550200FFFFFFFFFFFFFFFFFFFFFFFFFFFFFFFFA9
:10551200FFFFFFFFFFFFFFFFFFFFFFFFFFFFFFFF99
:10552200FFFFFFFFFFFFFFFFFFFFFFFFFFFFFFFF89
:10553200FFFFFFFFFFFFFFFFFFFFFFFFFFFFFFFF79
:036EE600DFFE22AA
:106B0900AE07AF061EEF600C7FF5126EE67FF51239
:056B19006EE680EE2293
:106AF300D2B400D2B50000000000C2B40000000010
:066B030000C2B5000022F3
:106C0E00C2B400D2B50000000000D2B400000000F3
:016C1E002253
:105F4C00E4FEEFA806088002C333D8FC30E704D285
:105F5C00B48002C2B400D2B50000000000C2B50E7D
:105F6C00EEB408DE0000D2B40000D2B50000003060
:0C5F7C00B404C20A8002D20AC2B50000C0
:015F880022F6
:10667800E4FFD2B4FE00C2B50000000000D2B500AD
:1066880000EF25E0FF30B4010F00000EEEB408E57E
:04669800C2B5000087
:01669C0022DB
:106C1F00C2B4000000D2B50000000000C2B50000F1
:016C2F002242
:106C3000D2B4000000D2B50000000000C2B50000D0
:016C40002231
:0F5C0D00E0FCA3E0FD7B017408900501F07FA08F
:105C1C00126AF3125F4C200A02C322ECFF125F4C93
:105C2C00200A02C322AF05125F4C200A02C322E4F1
:105C3C00FD900501E0FFEDC39F5016122150FF129D
:105C4C005F4C200A02C322740129F9E43AFA0D8050
:055C5C00E0126C0ED304
:015C61002220
:0F590E00E0FCA3E0FD7B019005367408F07FA05C
:05591D00900530EFF0E1
:10592200126AF3E0FF125F4C200A02C322ECFF125C
:105932005F4C200A02C322AF05125F4C200A02C349
:1059420022126AF3900530E004FF125F4C200A0233
:10595200C322E4FD900536E014FFEDC39F501412FC
:105962006678EF122196126C1F740129F9E43AFA53
:105972000D80E1126678EF122196126C30126C0ED5
:01598200D351
:015983002201
:0B4876009004EAEBF0A3EAF0A3E9F0E5
:10488100E49004F9F0A3F09004EDF0A37420F0E4B7
:10489100A3F0A3F09004ED7A0479F112590E90047B
:1048A100F5E0FCA3A3A3E4FFFEFDEC7079126DCD4E
:1048B100BF02329004F5A3E0FDA3E0FEA3E054F0B3
:1048C100FFE4FC9004F51222D59004EAE0FBA3E09A
:1048D100FAA3E02404F9E43AFA12226BEF54F0FF50
:1048E100E4FC1222BB9004EAE0FBA3E0FAA3E0F9A6
:1048F10090000412228B9004F5E0F8A3E0F9A3E004
:10490100FAA3E0FBC3122247703578417C057D0193
:104911007B017A0479F1FE7F0412212AE490054596
:10492100F07F7AFE806E9004F9E07002A3E0700FD0
:104931009004EDE0FFA3E09004F9CFF0A3EFF09035
:1049410004EEE02408F09004EDE03400F09004F06F
:10495100E004F070069004EFE004F0C39004EFE08F
:10496100940250030248959004F9E0FCA3E0FD9005
:1049710004EAE0FBA3E0FAA3E0F9125C149004F965
:10498100E07002A3E060097F797E00125FFF800979
:0A4991007F7A7E00125FFFD322C37D
:01499B0022F9
:0B43BF009004EAEBF0A3EAF0A3E9F0A1
:1043CA00E49004F9F0A3F09004ED7414F0A37420BF
:1043DA00F0E4A3F0A3F09004ED7A0479F112590EF7
:1043EA009004F5E0FCA3A3A3E4FFFEFDEC707C12AD
:1043FA006DCDBF02329004F5A3E0FDA3E0FEA3E079
:10440A0054F0FFE4FC9004F51222D59004EAE0FB94
:10441A00A3E0FAA3E02404F9E43AFA12226BEF5477
:10442A00F0FFE4FC1222BB9004EAE0FBA3E0FAA34B
:10443A00E0F990000412228B9004F5E0F8A3E0F969
:10444A00A3E0FAA3E0FBC31222477038784B7C053D
:10445A007D017B017A0479F1FE7F0412212AE4901E
:10446A00054FF07F7AFE126180D3229004F9E07042
:10447A0002A3E0700F9004EDE0FFA3E09004F9CFEF
:10448A00F0A3EFF09004EEE02408F09004EDE0349D
:10449A0000F09004F0E004F070069004EFE004F0FD
:1044AA00C39004F0E094209004EFE09400500302DB
:1044BA0043E09004F9E0FCA3E0FD9004EAE0FBA3EA
:1044CA00E0FAA3E0F9125C149004F9E07002A3E0A8
:1044DA0060097F797E00125FFF80097F7A7E001271
:0544EA005FFFD322C3B7
:0144EF0022AA
:0B4018009004EAEBF0A3EAF0A3E9F04B
:10402300E49004F9F0A3F09004ED7410F0A374206D
:10403300F0E4A3F0A3F09004EDE0FCA3E0FD7B012A
:104043007A0479F11259159004F5E0FCA3A3A3E4D3
:10405300FFFEFDEC707C126DCDBF02329004F5A320
:10406300E0FDA3E0FEA3E054F0FFE4FC9004F512AE
:1040730022D59004EAE0FBA3E0FAA3E02404F9E4E8
:104083003AFA12226BEF54F0FFE4FC1222BB9004C5
:10409300EAE0FBA3E0FAA3E0F990000412228B907C
:1040A30004F5E0F8A3E0F9A3E0FAA3E0FBC31222CE
:1040B30047703878567C057D017B017A0479F1FEDF
:1040C3007F0412212AE490055AF07F7AFE12618060
:1040D300D3229004F9E07002A3E0700F9004EDE0A6
:1040E300FFA3E09004F9CFF0A3EFF09004EEE024F7
:1040F30008F09004EDE03400F09004F0E004F07078
:10410300069004EFE004F0C39004F0E094409004C0
:10411300EFE0940050030240399004F9E0FCA3E07F
:10412300FD9004EAE0FBA3E0FAA3E0F9125C14902B
:1041330004F9E07002A3E060097F797E00125FFF5B
:0C41430080097F7A7E00125FFFD322C348
:01414F00224D
:0B4150009004EAEBF0A3EAF0A3E9F012
:10415B00E49004F9F0A3F09004ED7412F0A3742032
:10416B00F0E4A3F0A3F09004EDE0FCA3E0FD7B01F1
:10417B007A0479F11259159004F5E0FCA3A3A3E49A
:10418B00FFFEFDEC707C126DCDBF02329004F5A3E7
:10419B00E0FDA3E0FEA3E054F0FFE4FC9004F51275
:1041AB0022D59004EAE0FBA3E0FAA3E02404F9E4AF
:1041BB003AFA12226BEF54F0FFE4FC1222BB90048C
:1041CB00EAE0FBA3E0FAA3E0F990000412228B9043
:1041DB0004F5E0F8A3E0F9A3E0FAA3E0FBC3122295
:1041EB0047703878627C057D017B017A0479F1FE9A
:1041FB007F0412212AE4900566F07F7AFE1261801B
:10420B00D3229004F9E07002A3E0700F9004EDE06C
:10421B00FFA3E09004F9CFF0A3EFF09004EEE024BD
:10422B0008F09004EDE03400F09004F0E004F0703E
:10423B00069004EFE004F0C39004F0E09440900487
:10424B00EFE0940050030241719004F9E0FCA3E00D
:10425B00FD9004EAE0FBA3E0FAA3E0F9125C1490F2
:10426B0004F9E07002A3E060097F797E00125FFF22
:0C427B0080097F7A7E00125FFFD322C30F
:014287002214
:0B4BDF009004C0EBF0A3EAF0A3E9F0A3
:104BEA009004CBE4F0A37420F078CF7C047D017BA1
:104BFA00FF7A5479A27E00FF12212A9004C0E0FBBA
:104C0A00A3E0FAA3E0F912226BE4FBFAF9F8C31263
:104C1A002247704E9004CDF0A3F09004CDE0FEA39D
:104C2A00E0FFC39480EE94004003024CF1EF780554
:104C3A00C333CE33CED8F9FF9004CCE02FFD9004D5
:104C4A00CBE03EFC7B017A0479CF7420125C161209
:104C5A006C619004CEE004F070C09004CDE004F0E2
:104C6A0080B8E49004CDF0A3F09004CBE0FCA3E07C
:104C7A00FD7B017A0479C31259159004C7E0FCE45C
:104C8A00FFFEFDEC703C9004C0E0FBA3E0FAA3E059
:104C9A00F912226B9004C3E0F8A3E0F9A3E0FAA3A7
:104CAA00E0FBC3122247701AFE7F087DFF7B017A60
:104CBA000479C31224A89004CB7A0479C3125C0D38
:104CCA0080259004CCE02408F09004CBE03400F076
:104CDA009004CEE004F070069004CDE004F0C39096
:084CEA0004CDE094024082C3F6
:014CF200229F
:0B499C009004C0EBF0A3EAF0A3E9F0E8
:1049A7009004CB7414F0A37420F078CF7C047D01BD
:1049B7007BFF7A5479C27E00FF12212A9004C0E05F
:1049C700FBA3E0FAA3E0F912226BE4FBFAF9F8C3C0
:1049D70012224770549004CDF0A3F09004CDE0FE6E
:1049E700A3E0FFC39408EE94004003024ABEEF78A9
:1049F70005C333CE33CED8F9FF9004CCE02FFD901A
:104A070004CBE03EFC7B017A0479CF90050174204A
:104A1700F07FA0125C1C126C619004CEE004F07071
:104A2700BA9004CDE004F080B2E49004CDF0A3F096
:104A37009004CBE0FCA3E0FD7B017A0479C3125913
:104A4700159004C7E0FCE4FFFEFDEC703C9004C049
:104A5700E0FBA3E0FAA3E0F912226B9004C3E0F8AD
:104A6700A3E0F9A3E0FAA3E0FBC3122247701AFE02
:104A77007F087DFF7B017A0479C31224A89004CBB9
:104A87007A0479C3125C0D802E9004CCE02408F0E0
:104A97009004CBE03400F09004CEE004F070069070
:104AA70004CDE004F0C39004CEE094209004CDE060
:084AB70094005003024A37C3CA
:014ABF0022D4
:0B4620009004C0EBF0A3EAF0A3E9F067
:10462B009004CB7410F0A37420F078CF7C047D0140
:10463B007BFF7A5479E27E00FF12212A9004C0E0BE
:10464B00FBA3E0FAA3E0F912226BE4FBFAF9F8C33F
:10465B0012224770549004CDF0A3F09004CDE0FEED
:10466B00A3E0FFC39410EE94004003024749EF7898
:10467B0005C333CE33CED8F9FF9004CCE02FFD9099
