:030000000245575F
:0C455700787FE4F6D8FD75812102459EB6
:104DCA0012531B124A2C12576E12579A1258631218
:104DDA0057CD1255A912577E75B10CE4F5B27F82F0
:0C4DEA00FE124D6D120C4312004680F8C2
:030023000255384B
:06553800C0E0C083C08248
:10553E009005F4E4F0309802C298309904C299C2F2
:01554E000953
:07554F00D082D083D0E032CE
:030043000255DA89
:1055DA00C0E0E59A30E003539AFEE59A30E10553BC
:0755EA009AFDC209D0E03276
:0957D8002009FDEFD209F5992228
:104D01009006CBEBF0A3EAF0A3E9F09006CBE0FB31
:104D1100A3E0FAA3E0F91223ED60179006CBA3E418
:104D210075F0011224CEA9F0FA1223EDFF1257D823
:034D310080D92204
:0957E1002009FDEFD209F59B221D
:104D34009006CEEBF0A3EAF0A3E9F09006CEE0FBF8
:104D4400A3E0FAA3E0F91223ED60179006CEA3E4E2
:104D540075F0011224CEA9F0FA1223EDFF1257E1E7
:034D640080D922D1
:10531B00E5A2543FF5A253BAFE759850759A507595
:10532B00D7C875D6FE758E14438E01D2AC75AF01FE
:03533B00D2AF22CC
:0B48DD00900000EBF0A3EAF0A3E9F06C
:1048E80090002B7401F0A37400F0A37403F09000FF
:1048F80000E0F9A3E0FAA3E09006C5C9F0A3EAF046
:10490800A3E9F090002BE0F9A3E0FAA3E09006C831
:10491800C9F0A3EAF0A3E9F07B017A00792E124BE3
:0A4928001B7B017A00792E024D017D
:101A4B000000000000FF565D01020E0F00FF0006B4
:101A5B000203011500FF001E0304021900FF594287
:101A6B000405031D00FF59470506041F00FF594CD1
:101A7B000607052000FF59510708062100FF59569C
:101A8B000809072600FF595B090A082A00FF59605D
:101A9B000A0B092C00FF59650B0C0A2E00FF596A23
:101AAB000C0D0B2F00FF596F0D0E0C3000FF5974EE
:101ABB000E010D3100FF59790F0F0F1001FF4BE392
:101ACB001010101101FF4EA01111111201FF4EC881
:101ADB001212121301FF52D31313131401FF52F7F7
:101AEB001414140F01FF4EF01516183502FF56ABE8
:101AFB001617153902FF56BD1718163D02FF56CFA4
:101B0B001815174102FF56E1191A1C4503FF56F32E
:101B1B001A1B194903FF57051B1C1A4D03FF5717B7
:101B2B001C191B5103FF57291D1E1E5204FF597E02
:101B3B001E1D1D5304FF59831F1F1F1F05FF57F346
:101B4B002020202006FF57FB2122255407FF598810
:101B5B002223215507FF598D2324225607FF599223
:101B6B002425235707FF59972521245807FF599CF4
:101B7B002627295908FF59A12728265A08FF59A6B5
:101B8B002829275B08FF59AB2926285C08FF59B089
:101B9B002A2B2B5D09FF578C2B2A2A5E09FF59B57F
:101BAB002C2D2D000AFF59BA2D2C2C000AFF59BFE2
:101BBB002E2E2E000BFF558F2F2F2F000CFF5803AF
:101BCB00303030000DFF580B313131000EFF59C44E
:101BDB003232323515FF54333333333215FF00268F
:101BEB003434343315FF54553535353415FF5477AC
:101BFB003636363916FF4F183737373616FF533E02
:101C0B003838383716FF4F403939393816FF4F6897
:101C1B003A3A3A3D17FF4F903B3B3B3A17FF536124
:101C2B003C3C3C3B17FF4FB83D3D3D3C17FF4FE065
:101C3B003E3E3E4118FF50083F3F3F3E18FF538446
:101C4B004040403F18FF50304141414018FF505831
:101C5B004242424519FF50804343434219FF53A769
:101C6B004444444319FF50A84545454419FF50D0FF
:101C7B00464646491AFF50F8474747461AFF53CA8C
:101C8B00484848471AFF5120494949481AFF5148CB
:101C9B004A4A4A4D1BFF51704B4B4B4A1BFF53EDAE
:101CAB004C4C4C4B1BFF51984D4D4D4C1BFF51C099
:101CBB004E4E4E511CFF51E84F4F4F4E1CFF5410D0
:101CCB005050504F1CFF5210515151501CFF523865
:101CDB00525252521DFF5813535353531EFF581B4E
:101CEB005454545421FF58235555555522FF582B06
:101CFB005656565623FF58335757575724FF5556AA
:101D0B005858585825FF583B5959595926FF526076
:101D1B005A5A5A5A27FF58435B5B5B5B28FF584B59
:101D2B005C5C5C5C29FF58535D5D5D5D2AFF4C5D1F
:101D3B005E5E5E5E2BFF4CCC5F5F5F5F5FFF4ACEEC
:101D4B000000000000000000000000000000000088
:101D5B000000000000000000000000000000000078
:101D6B004105F900410623004105FA004405FE0038
:101D7B000000014406060000000144060F000000AD
:101D8B000144061900000001440602000000014452
:101D9B00060B000000014406150000000144061E5E
:101DAB000000000141060A014106140C4106130014
:101DBB0041061D004106220041062501410628006F
:101DCB0041062B0041062D004106240B410627003E
:101DDB0041062A0041062C00410626024106290035
:0C1DEB004105F70141062E014105F801F9
:10474F00E4900592F0A3F043903CE590543C643C18
:10475F00605B12577EE590543C643C6050125912D6
:10476F009005F97401F0E590543CFF900592E4F048
:10477F00A3EFF0900592E07004A3E0643870081284
:10478F0059007F011258F4E590543CFFBF3CF812DA
:10479F00577EE590543CFFBF3CF8E4FF1258F4E419
:1047AF00FF12590C900592E0FEA3E0FF227E0F7FCF
:0147BF00FFFA
:0147C00022D6
:10429900E4900590F0A3F0FF12474F900590EEF0DF
:1042A900A3EFF0125936900590E0640F7003A3E074
:1042B900F47070EF6401706B9005FAE0702A900653
:1042C9008DE0540FFFBF0808900623E004F0800535
:1042D900E4900623F0900623E0D3940A400A7F1461
:1042E900125918E4900623F012593C90068DE054B7
:1042F9000F24FE601324FE601624FC601E24077040
:1043090022900590745C800C9005907474800590DF
:104319000590746CF0A37478F08008747890059017
:10432900F0A3F0900590E0FEA3E0FFEE701DEF24EE
:10433900D4600F24F8600E24FC600D241C700C7FDF
:0D43490003227F02227F01227F00227FFFDE
:014356002244
:100C4300E4FF90058FF0124299EF147003020DF93F
:100C530014700302128C147003020DD32403600377
:100C63000216BB9005FAE0FF6003B45F181258FA4E
:100C730090058FEFF0C3941450030216BB9005FA4E
:100C83007402020DCC9005FAE0FF6442600FEF643A
:100C930043600AEF64446005EF6445702D1258FA0F
:100CA30090058FEFF0C3940A40657B017A067902C1
:100CB30012393E50571258D0BF010C7F807E00126C
:100CC3004D6DE4FF1258D6020D9D9005FAE0FF64C6
:100CD30046600FEF6447600AEF64486005EF6449BC
:100CE30070301258FA90058FEFF0C3940A40207BBE
:100CF300017A06790B123BBA50121258D0BF010C7D
:100D03007F807E00124D6DE4FF1258D6020D9D02C6
:100D13000DA29005FAE0FF644A600FEF644B600A8E
:100D2300EF644C6005EF644D702E1258FA90058FF6
:100D3300EFF0C3940A401F7B017A067915123694AB
:100D430050121258D0BF010C7F807E00124D6DE40B
:100D5300FF1258D6804480479005FAE0FF644E6046
:100D63000FEF644F600AEF64506005EF6451704207
:100D73001258FA90058FEFF0C3940A40227B017A50
:100D830006791E1237E950121258D0BF010C7F802A
:100D93007E00124D6DE4FF1258D612577E802B90C1
:100DA30005FAE075F008A4244EF582E5F0341A0242
:100DB30016B39005FAE075F008A4244EF582E5F029
:100DC300341AF583E4939005FAF01259000216BB26
:100DD3009005FAE0B45F0C1258E2EF600612466029
:100DE3000216BB9005FAE075F008A4244FF582E5DE
:100DF300F0341A0216B39005FAE01224E40EAC0F95
:100E03000EBE100ECE110EDE120EEE130F001411D5
:100E1300711F11832012682F1256300F12320F24C4
:100E2300330F36340F48350F5A360F6C370F7E3871
:100E33000F90390FA23A0FB43B0FC63C0FD83D0FAA
:100E4300EA3E0FFC3F100E40102041103242104486
:100E530043105644106845107A46108C47109E483C
:100E630010B04910C24A10D44B10E64C10F84D1183
:100E73000A4E111C4F112E50114051115152116144
:100E83005311955411A75511B75611CA5711DB5871
:100E930011EC5911FD5A120D5B121D5C122D5D12DE
:100EA3003E5E12515F000012799006A5E0B463051F
:100EB300E4F00212799006A502124C9006A6E0B463
:100EC3000C030211689006A602124C9006A7E0B428
:100ED3001F030211689006A702124C9006ABE0B400
:100EE30007030211689006AB02124C9006A8E0B407
:100EF3001705E4F00212799006A802124C9006A995
:100F0300E0B43B05E4F00212799006A902124C907A
:100F130005FEE0B41405E4F00212799005FE021216
:100F23004C9005FFE0B40905E4F00212799005FF47
:100F330002124C900600E0B40905E4F00212799025
:100F4300060002124C900601E0B40905E4F0021217
:100F53007990060102124C900606E0B41405E4F001
:100F630002127990060602124C900607E0B40905B6
:100F7300E4F002127990060702124C900608E0B4DE
:100F83000905E4F002127990060802124C90060952
:100F9300E0B40905E4F002127990060902124C90BC
:100FA300060FE0B41405E4F002127990060F021262
:100FB3004C900610E0B40905E4F002127990061093
:100FC30002124C900611E0B40905E4F00212799084
:100FD300061102124C900612E0B40905E4F0021265
:100FE3007990061202124C900619E0B41405E4F04D
:100FF30002127990061902124C90061AE0B4090500
:10100300E4F002127990061A02124C90061BE0B427
:101013000905E4F002127990061B02124C90061C9B
:10102300E0B40905E4F002127990061C02124C9018
:101033000602E0B41405E4F00212799006020212EB
:101043004C900603E0B40905E4F00212799006031C
:1010530002124C900604E0B40905E4F00212799000
:10106300060402124C900605E0B40905E4F00212EE
:101073007990060502124C90060BE0B41405E4F0D7
:1010830002127990060B02124C90060CE0B409058B
:10109300E4F002127990060C02124C90060DE0B4B3
:1010A3000905E4F002127990060D02124C90060E27
:1010B300E0B40905E4F002127990060E02124C9096
:1010C3000615E0B41405E4F0021279900615021235
:1010D3004C900616E0B40905E4F002127990061666
:1010E30002124C900617E0B40905E4F0021279905D
:1010F300061702124C900618E0B40905E4F0021238
:101103007990061802124C90061EE0B41405E4F020
:1011130002127990061E02124C90061FE0B40905D4
:10112300E4F002127990061F02124C900620E0B4FC
:101133000905E4F002127990062002124C90062170
:10114300E0B40904E4F08006900621E004F0900680
:101153000AE0B4010302123490060A0212769006E2
:1011630014E0B4140302127690061402124C900693
:1011730013E0B46305E4F002127990061302124CF3
:1011830090061DE0B46305E4F002127990061D0297
:10119300124C900622E0B40505E4F00212799006A1
:1011A3002202124C900625E0B4090302127690063F
:1011B3002502124C900628E0700504F0021279E42F
:1011C300900628F002127990062BE0B40905E4F0AA
:1011D30002127990062B807190062DE0B40705E486
:1011E300F002127990062D8060900624E0B40B057E
:1011F300E4F0021279900624804F900627E0B40BA6
:1012030004E4F08071900627803F90062AE0B40B37
:1012130004E4F0806190062A802F90062CE0B40B42
:1012230004E4F0805190062C801F900626E0B40160
:10123300057402F080409006268038900629E0B4B9
:101243002B04E4F08030900629E004F0802812405B
:10125300EB802390062EE0B401057402F080069023
:10126300062E7401F09005F7E0B40104E4F0800663
:101273009005F77401F09005FAE075F008A4244C8A
:10128300F582E5F0341A0216B39005FAE01224E46D
:10129300133F0F134E10136111137412138413139E
:1012A300961415AA1F15B82016922F16803013A86E
:1012B3003213B73313C63413D53513E43613F33768
:1012C30014023814113914203A142F3B143E3C14E1
:1012D3004D3D145C3E146B3F147A401489411498BD
:1012E3004214A74314B64414C54514D44614E34723
:1012F30014F24815014915104A151F4B152E4C15AC
:101303003D4D154C4E155A4F15695015785115879B
:101313005215975315CA5415DC5515EB5615FE5740
:10132300160F58162059162D5A163A5B16475C1697
:10133300575D16685E167B5F000016A39006A5E056
:1013430070030215BE9006A50216769006A6E0B4B9
:101353000106740CF00216A39006A60216769006F8
:10136300A7E0B40106741FF00216A39006A70216A5
:10137300769006ABE0B401030216159006AB021695
:10138300769006A8E070067417F00216A39006A8DC
:101393000216769006A9E07006743BF00216A3903D
:1013A30006A90216769005FEE0700302159E9005CD
:1013B300FE0216769005FFE070030216049005FF07
:1013C300021676900600E0700302160490060002EF
:1013D3001676900601E070030216049006010216C9
:1013E30076900606E0700302159E900606021676B6
:1013F300900607E070030216049006070216769023
:101403000608E0700302160490060802167690069A
:1014130009E0700302160490060902167690060F7F
:10142300E0700302159E90060F021676900610E0F8
:101433007003021604900610021676900611E070EF
:1014430003021604900611021676900612E070034A
:10145300021604900612021676900619E070030233
:10146300159E90061902167690061AE0700302166E
:101473000490061A02167690061BE0700302160407
:1014830090061B02167690061CE070030216049069
:10149300061C021676900602E0700302159E900663
:1014A30002021676900603E0700302160490060308
:1014B300021676900604E0700302160490060402F6
:1014C3001676900605E070030216049006050216D0
:1014D3007690060BE0700302159E90060B021676BB
:1014E30090060CE0700302160490060C0216769028
:1014F300060DE0700302160490060D0216769006A0
:101503000EE0700302160490060E0216769006157E
:10151300E0700302159E900615021676900616E0FB
:101523007003021604900616021676900617E070F2
:1015330003021604900617021676900618E070034D
:1015430002160490061802167690061EE0700280BA
:101553004A90061E02167690061FE07003021604D8
:1015630090061F021676900620E070030216049080
:101573000620021676900621E070030216049006F8
:101583002102167690060AE0B4010302165E900665
:101593000A0216A0900614E0B401067414F00216B1
:1015A300A3900614021676900613E07002800C9046
:1015B300061302167690061DE070067463F0021699
:1015C300A390061D021676900622E070067405F0BD
:1015D3000216A3900622021676900625E0B40102B5
:1015E300801F900625021676900628E0700504F009
:1015F3000216A3E4900628F00216A390062BE070CF
:10160300067409F00216A390062B806790062DE05E
:1016130070067407F00216A390062D8056900624D8
:10162300E0700280259006248049900627E070022E
:101633008018900627803C90062AE07002800B9069
:10164300062A802F90062CE07005740BF0805190D1
:10165300062C801F900626E0B401057402F080403A
:101663009006268038900629E07005742BF08030B0
:10167300900629E014F080281241C3802390062E9F
:10168300E0B401057402F0800690062E7401F09018
:1016930005F7E0B40104E4F080069005F77401F067
:1016A3009005FAE075F008A4244DF582E5F0341AAC
:1016B300F583E4939005FAF09005FAE075F008A439
:1016C3002450F582E5F0341AF583E493FB74019317
:1016D300FA740293F99005FBEBF0A3EAF0A3E9F0A7
:0316E30002250AD3
:0D577E007F047E347DDCDDFEDEFADFF60008
:01578B0022FB
:05586A009005FAE0FFCB
:01586F002216
:065870009005FAEFF022A2
:0558760090060AE0FFAE
:01587B00220A
:05587C00900614E0FF9E
:015881002204
:05588200900613E0FF99
:0158870022FE
:0558880090061DE0FF89
:01588D0022F8
:05588E00900622E0FF7E
:0158930022F2
:05589400900625E0FF75
:0158990022EC
:05589A00900628E0FF6C
:01589F0022E6
:0558A00090062BE0FF63
:0158A50022E0
:0558A60090062DE0FF5B
:0158AB0022DA
:0558AC00900624E0FF5E
:0158B10022D4
:0558B200900627E0FF55
:0158B70022CE
:0558B80090062AE0FF4C
:0158BD0022C8
:0558BE0090062CE0FF44
:0158C30022C2
:0558C400900626E0FF44
:0158C90022BC
:0558CA00900629E0FF3B
:0158CF0022B6
:0558D0009005F9E0FF66
:0158D50022B0
:0658D6009005F9EFF0223D
:0558DC0090062EE0FF24
:0158E10022A4
:0558E2009005F7E0FF56
:0158E700229E
:1055C20000000000000000000000000000000000D9
:0855D2000000000000000000D1
:101DF70055045F3F065B4F666D7D077F6F777C39C4
:101E07005E797176385C733E4805840102040810D8
:101E170020408042058C40006030042F0000000005
:101E270000000000000000000000000000000000AB
:101E3700000000000000000000000000000000009B
:101E470000000000000000000000000060F00484B3
:101E5700000000000000000000000000000000007B
:101E6700000000000000000000000000000000006B
:101E7700000000000000000000000000000000005B
:101E8700000000000000000000000000000000004B
:101E9700000000000000000000000000000000003B
:101EA700000000000000000000000000000000002B
:101EB700000000000000000000000000000000001B
:101EC700000000000000000000000000000000000B
:101ED70000000000000000000000000000000000FB
:101EE70000000000000000000000000000000000EB
:101EF70000000000000000000000000000000000DB
:101F070000000000000000000000000000000000CA
:101F170000000000000000000000000000000000BA
:101F270000000000000000000000000000000000AA
:101F3700000000000000000000000000000000009A
:101F470041042E0041058E00500574010101010175
:101F570001010101010101010101015004740100A6
:0E1F670003010201010101010101010101015B
:104DF600C282E4FDFCC280EF30E004D2818002C2B0
:104E06008100000000D280EFC313FF0DBD00010C2E
:0A4E1600ED64084C70DFC280C28119
:014E2000226F
:104E2100C283E4FDFCC280EF30E004D2818002C283
:104E31008100000000D280EFC313FF0DBD00010C03
:0A4E4100ED64084C70DFC280C281EE
:014E4B002244
:104E4C00C2CCE4FDFCC280EF30E004D2818002C20F
:104E5C008100000000D280EFC313FF0DBD00010CD8
:0A4E6C00ED64084C70DFC280C281C3
:014E76002219
:0D000E00D282000000000000C282024DF608
:0D57A800D283000000000000C283024E21E9
:0D57B500D2CC000000000000C2CC024E4C1F
:05441500E4900431F009
:10441A001258A6AE077F4012000E7FC012000EE4AB
:10442A00FB742F2BF582E43404F583E0FF124DF67A
:10443A0074372BF582E43404F583E0FF124DF60B52
:10444A00EBB408DDEE2488FF12000ED2827F401200
:10445A0057A87FC01257A8E4FB743F2BF582E434B7
:10446A0004F583E0FF124E2174472BF582E43404ED
:10447A00F583E0FF124E210BEBB408DDEE2488FF32
:10448A001257A8D2837F401257B57FC01257B5E49E
:10449A00FB744F2BF582E43404F583E0FF124E4C93
:1044AA0074572BF582E43404F583E0FF124E4C0B6B
:0D44BA00EBB408DDEE2488FF1257B5D2CC1C
:0144C70022D2
:104A2C00E490058FF0E4FFE4FE90058FE02484F51C
:104A3C0082E43405F583E0FDEF75F008A4242FF52E
:104A4C0082E43404F583E5822EF582E43583F58324
:104A5C00EDF00EEEB408D20FEFB406CB12441A7F71
:104A6C001E12569990058FE004F0E0C3940840B5EF
:014A7C002217
:10569900EFD39400400B7EFF7DFFDDFEDEFA1F8015
:0156A900EF11
:0156AA0022DD
:104E7700E4FFE4FEEF75F008A4242FF582E4340480
:104E8700F583E5822EF582E43583F583E4F00EEEB3
:084E9700B408E10FEFB406DAE4
:014E9F0022F0
:0A57C2007F78900484E4F0A3DFFC7C
:0157CC0022BA
:104C9700E4FF1258E8EF6401702A124E7790042E51
:104CA700E05403FF242FF582E43404F5837440F0C5
:104CB70012441AE4FF1258EE90042EE004F0E0B418
:044CC7000402E4F00F
:014CCB0022C6
:103E1200124E771246D8900461E090043EF090046E
:103E22005FE090043DF09006A5E0FF75F00A84245F
:103E32005FF582E43404F583E090043CF0EF75F022
:103E42000A84745F25F0F582E43404F583E090047B
:103E52003BF090043A7440F09006A6E0FF75F00A39
:103E620084245FF582E43404F583E0900439F0EFB2
:103E720075F00A84745F25F0F582E43404F583E07A
:103E8200900438F09004377440F09006A7E0FF7574
:103E9200F00A84245FF582E43404F583E09004366A
:103EA200F0EF75F00A84745F25F0F582E43404F5CE
:103EB20083E0900435F09006ABE0245FF582E434B1
:103EC20004F583E0900434F09006A8E0FF75F00A50
:103ED20084245FF582E43404F583E0900432F0EF49
:103EE20075F00A84745F25F0F582E43404F583E00A
:103EF200900431F09006A9E0FF75F00A84245FF582
:103F020082E43404F583E0900430F0EF75F00A8423
:103F1200745F25F0F582E43404F583E090042FF019
:033F220002441A3C
:1054FA00AD07124E7790046EE0900430F0745F2D81
:0F550A00F582E43404F583E090042FF002441A94
:10551900AD07124E7790046DE0900430F0745F2D62
:0F552900F582E43404F583E090042FF002441A75
:10564900124E7790045FE0900430F090042F743785
:04565900F002441AFD
:10560800124E7790045FE0900430F090046EE090C2
:06561800042FF002441A09
:1055F100AD07124E77745F2DF582E43404F583E034
:0756010090042FF002441A8F
:104D9A00AD07124E77ED75F00A84245FF582E4348C
:104DAA0004F583E0900430F0ED75F00A84745F2511
:104DBA00F0F582E43404F583E090042FF002441AFB
:10482500AB07AA06124E777C007D64AF03AE021279
:104835002479745F2FF58274043EF583E09004318A
:10484500F07C007D0AAF03AE021224797C007D0A5C
:10485500122479745F2DF58274043CF583E090048D
:1048650030F0AE02AF037C007D0A122479745F2D0F
:0F487500F58274043CF583E090042FF002441A9E
:064884007B017A0579FEBC
:10488A00124E771223ED245FF582E43404F583E0B7
:10489A00900432F0900001122406245FF582E43479
:1048AA0004F583E0900431F0900002122406245F9C
:1048BA00F582E43404F583E0900430F090000312AA
:1048CA002406245FF582E43404F583E090042FF093
:0348DA0002441A7B
:1033D800124E779004C6E060179005D27401F0A3EE
:1033E8007404F0A374C6F07B017A04795E12435723
:1033F8009004C0E060179005D27401F0A37404F043
:10340800A374C0F07B017A04795A1243579004BA26
:10341800E060179005D27401F0A37404F0A374BAA5
:10342800F07B017A0479561243579004B4E0601790
:103438009005D27401F0A37404F0A374B4F07B0176
:103448007A0479521243579004AEE060179005D27F
:103458007401F0A37404F0A374AEF07B017A0479CC
:103468004E1243579004A8E060179005D27401F0FB
:10347800A37404F0A374A8F07B017A04794A124378
:10348800579004A2E060179005D27401F0A3740469
:10349800F0A374A2F07B017A047946124357900492
:1034A8009CE060179005D27401F0A37404F0A37433
:1034B8009CF07B017A047942124357900496E060AD
:1034C800179005D27401F0A37404F0A37496F07BEE
:1034D800017A04793E124357900490E060179005F2
:1034E800D27401F0A37404F0A37490F07B017A0401
:1034F800793A12435790048AE060179005D2740114
:10350800F0A37404F0A3748AF07B017A047936126C
:103518004357900484E060179005D27401F0A374B7
:1035280004F0A37484F07B017A04793212435722A1
:104357009005CFEBF0A3EAF0A3E9F0A3E0FBA3E01D
:10436700FAA3E0F9900001122406245FF582E434F1
:1043770004F583E0FF9005CFE0FBA3E0FAA3E0F9A3
:10438700EF1224339005D2E0FBA3E0FAA3E0F99003
:104397000002122406245FF582E43404F583E0FF6B
:1043A7009005CFE0FBA3E0FAA3E0F990FFFFEF123F
:1043B70024459005D2E0FBA3E0FAA3E0F9900003BF
:1043C700122406245FF582E43404F583E0FF9005A8
:1043D700CFE0FBA3E0FAA3E0F990FFFEEF1224453C
:1043E7009005D2E0FBA3E0FAA3E0F99000041224C1
:1043F70006245FF582E43404F583E0FF9005CFE0FF
:0E440700FBA3E0FAA3E0F990FFFDEF022445CD
:104010009005C3EBF0A3EAF0A3E9F0A3E0FBA3E073
:10402000FAA3E0F91223EDFF9005C3E0FBA3E0FA49
:10403000A3E0F9EF1224339005C6E0FBA3E0FAA356
:10404000E0F9900001122406FF9005C3E0FBA3E015
:10405000FAA3E0F9900001EF1224459005C6E0FBB9
:10406000A3E0FAA3E0F9900002122406FF9005C332
:10407000E0FBA3E0FAA3E0F9900002EF12244590E0
:1040800005C6E0FBA3E0FAA3E0F9900003122406C2
:10409000FF9005C3E0FBA3E0FAA3E0F9900003EF73
:1040A0001224459005C6E0FBA3E0FAA3E0F99000D6
:1040B00004122406FF9005C3E0FBA3E0FAA3E0F995
:1040C000900004EF1224459005C6E0FBA3E0FAA39C
:1040D000E0F9900007122406FF9005C3E0FBA3E07F
:0B40E000FAA3E0F9900005EF02244570
:0F493200EF75F006A42478F9740435F0FA7B01D0
:104941001223ED90000612244590000112240690D6
:104951000007122445900002122406900008122438
:10496100459000031224069000091224459000048A
:1049710012240690000A1224459000051224069084
:05498100000B022445BB
:0F498600EE75F006A42484F9740435F0FA7B0171
:104995009000061224061224339000071224069074
:1049A50000011224459000081224069000021224EA
:1049B5004590000912240690000312244590000A30
:1049C50012240690000412244590000B1224069030
:0549D50000050224456D
:1035380078C77C057D017BFF7A5579C27E007F06BE
:103548001223C7E49005CDF0A3F012589A9005CD48
:10355800EFF012588E9005CEEFF01258889005C5FE
:10356800EFF01258829005C6EFF01259069005C682
:10357800E0FE9005C5E0FDC39E500AEF9D4006EEB3
:103588006003E0701B9005C6E06003023693900567
:10359800C5E0FE7003023693EFD39E5003023693C4
:1035A800E49005C3F09005C3E0FFC3940A5021EFEF
:1035B80075F006A42484F582E43404F583E07008E9
:1035C8009005C3E0A3F080089005C3E004F080D51F
:1035D800E49005C3F09005C3E0FFA3E075F006A4EE
:1035E8002FF582E435F0F583E582247EF582E583C4
:1035F8003404F583E0FE74C72FF582E43405F583BF
:10360800EEF09005C3E004F0E0B406C99005C4E00C
:103618009005C3F09005C3E0FFD39401400B124915
:10362800329005C3E014F080EBE49005C3F09005F8
:10363800C3E0FF24C7F582E43405F583E0FE748413
:103648002FF582E43404F583EEF09005C3E004F02E
:10365800E0B406DA1233D812441AE4FF12590C9077
:1036680005CDE0B401257B017A047984900484E0D7
:10367800FD9005D3E4F0A3EDF0900489E0540F9099
:0B36880005D5F09005CEE0FF12275D95
:013693002214
:103CF100E49005C9F0A3F01258889005C4EFF012C2
:103D010058829005C5EFF01259069005C6EFF012E2
:103D1100587C9005C7EFF01258769005C8EFF01265
:103D210058949005CAEFF09005C4E0FFA3E0FEC3EC
:103D31009F500EA3E09E4009EF60069005C5E0701C
:103D41001A9005C4E06003023E11A3E0FF70030274
:103D51003E11A3E0D39F5003023E11E49005C3F04E
:103D61009005C7E014FF9005C3E0FEC39F500B12FE
:103D710049869005C3E004F080E69005C7E014751C
:103D8100F006A49005C3F09005C7E075F006A4FF06
:103D91009005C3E0FDC39FE5F06480F874809850FE
:103DA1001474842DF582E43404F583E4F09005C3A2
:103DB100E004F080D21233D812441AE4FF12590CF5
:103DC100900484E07004FF0258709005C8E064021A
:103DD100703E9005C3F09005CAE0FF9005C3E0C3B3
:103DE1009F502D7B017A047984900484E0FD900535
:103DF100D3E4F0A3EDF0900489E0540F9005D5F0E1
:103E01009005C9E0FF12275D9005C3E004F080C66C
:013E1100228E
:10466000E4900591F012587C900591EFF0E49005EC
:1046700090F0900591E014FF900590E0FEC39F50EC
:104680000B124986900590E004F080E6900591E0D9
:104690001475F006A4900590F0900591E075F00671
:1046A000A4FF900590E0FDC39FE5F06480F874805E
:1046B00098501474842DF582E43404F583E4F0906A
:1046C0000590E004F080D21233D812441A9004848A
:0746D000E07004FF125870B6
:0146D70022C0
:1040EB0078927C057D017BFF7A5579C87E007F062F
:1040FB001223C712587C900591EFF012587CE49074
:10410B000590F0900590E0FEC39F5020EE75F006F1
:10411B00A42484F582E43404F583E07007900591C0
:10412B00EEF08008900590E004F080D7E4900590C5
:10413B00F0900590E0FF2484F582E43404F583E0ED
:10414B00FE74922FF582E43405F583EEF090059022
:10415B00E004F0E0B406DAE4900590F0900591E00D
:10416B00FF900590E0FEC39F500B1249869005907F
:10417B00E004F080E7E4900590F0900590E0FF24D8
:10418B0092F582E43405F583E0FE900591E075F03D
:10419B0006A42FF582E435F0F583E582247EF582C3
:1041AB00E5833404F583EEF0900590E004F0E0B481
:0841BB0006C81233D802441AB1
:1041C30078927C057D017BFF7A5579CE7E007F0650
:1041D3001223C712587C900591EFF012587CE4909B
:1041E3000590F0900590E0FEC39F5020EE75F00619
:1041F300A42484F582E43404F583E07007900591E8
:10420300EEF08008900590E004F080D7E4900590EC
:10421300F0900590E0FFA3E075F006A42FF582E48B
:1042230035F0F583E582247EF582E5833404F58356
:10423300E0FE74922FF582E43405F583EEF09005E9
:1042430090E004F0E0B406C9900591E0900590F089
:10425300900590E0FFD39401400B124932900590F2
:10426300E014F080EBE4900590F0900590E0FF24DB
:1042730092F582E43405F583E0FE74842FF582E43D
:104283003404F583EEF0900590E004F0E0B406DA30
:064293001233D802441AA8
:0B3230009005C3EBF0A3EAF0A3E9F067
:10323B0078CC7C057D017BFF7A5579D47E007F06A7
:10324B001223C712587C9005CAEFF012587C9005D8
:10325B00CBEFF0E49005C9F09005CBE0FF9005C9EA
:10326B00E0FEC39F4003023343EE75F006A4FFAEAE
:10327B00F09005C6E0FBA3E0FAA3E02FF9EA3EFAD3
:10328B00900001122406FD9005C3E0FBA3E0FAA316
:10329B00E0F99000011224066D600302333A9005A9
:1032AB00C6E0FBA3E0FAA3E02FF9EA3EFA90000296
:1032BB00122406FF9005C3E0FBA3E0FAA3E0F9900C
:1032CB0000021224066F70679005C9E075F006A422
:1032DB00FFAEF09005C6E0FBA3E0FAA3E02FF9EAFE
:1032EB003EFA900003122406FD9005C3E0FBA3E019
:1032FB00FAA3E0F9900003122406B505329005C637
:10330B00E0FBA3E0FAA3E02FF9EA3EFA90000412E7
:10331B002406FF9005C3E0FBA3E0FAA3E0F99000BD
:10332B0004122406B507089005C9E0A3F0800990A4
:10333B0005C9E004F00232639005CAE09005C9F0BC
:10334B009005CBE0FF9005C9E0FEC39F5021EE75C1
:10335B00F006A4FF9005C6E0FBA3E0FAA3E02FF96B
:10336B00EA35F0FA1249959005C9E004F080D19046
:10337B0005CBE0FF9005CAE06F603DE49005C9F016
:10338B009005CBE024FFFFE434FFFE7C007D0612AA
:10339B0024679005C6E0FBA3E0FAA3E02FF9EA3E11
:1033AB00FAA3E07E0029F9EE3AFAE41224339005F1
:1033BB00C9E004F0E0B406C89005C6E0FBA3E0FA50
:0C33CB00A3E0F91223ED7004FF1258700B
:0133D70022D3
:10565D00E4FF1258DCEFB40105124C978003123EA3
:04566D00120257C20C
:05000600E4FF0254FAC2
:05001E007F010254FA0D
:055942007F020254FA8F
:055947007F030254FA89
:05594C007F040254FA83
:055951007F050254FA7D
:055956007F060254FA77
:05595B007F070254FA71
:055960007F080254FA6B
:055965007F090254FA65
:05596A007F0A0254FA5F
:05596F007F0B0254FA59
:055974007F0C0254FA53
:055979007F0D0254FA4D
:104BE3001258DCEFB401057F010258701258E8BF78
:104BF3000108123E127F021258EE1258E8BF031941
:104C0300E490043EF090043DF090043CF090043BAB
:0C4C1300F012441AE4FF1258EE1244C8DC
:014C1F002272
:104EA0001258E8BF0108123E127F021258EE125843
:104EB000E8BF0311E4900439F0900438F012441A6A
:084EC000E4FF1258EE0244C8A1
:104EC8001258E8BF0108123E127F021258EE12581B
:104ED800E8BF0311E4900436F0900435F012441A48
:084EE800E4FF1258EE0244C879
:1052D3001258E8BF0108123E127F021258EE12580C
:1052E300E8BF030DE4900434F012441AE4FF1258AB
:0452F300EE0244C8BB
:1052F7001258E8BF0108123E127F021258EE1258E8
:10530700E8BF030DE4900432F0124416E4FF12588C
:04531700EE0244C896
:104EF0001258E8BF0108123E127F021258EE1258F3
:104F0000E8BF0311E4900430F090042FF012441A2B
:084F1000E4FF1258EE0244C850
:1056AB007F01125519E49005FEF0A3F0A3F0A304BB
:0256BB00F022DB
:1056BD007F02125519E4900606F0A3F0A3F0A3049F
:0256CD00F022C9
:1056CF007F03125519E490060FF0A3F0A3F0A30483
:0256DF00F022B7
:1056E1007F04125519E4900619F0A3F0A3F0A30466
:0256F100F022A5
:1056F3007F01125519E4900602F0A3F0A3F0A3046E
:02570300F02292
:105705007F02125519E490060BF0A3F0A3F0A30451
:02571500F02280
:105717007F03125519E4900615F0A3F0A3F0A30434
:02572700F0226E
:105729007F04125519E490061EF0A3F0A3F0A30418
:02573900F0225C
:05597E007F0102551934
:055983007F020255192E
:0857F300E4FF125882024D9AF6
:0857FB00E4FF125888024D9AE8
:055988007F010255192A
:05598D007F0202551924
:055992007F030255191E
:055997007F0402551918
:05599C007F0502551912
:0559A1007F0102551911
:0559A6007F020255190B
:0559AB007F0302551905
:0559B0007F04025519FF
:0E578C007F011255191258C490058EEFF022BD
:0559B5007F02025519FC
:0559BA007F01025519F8
:0559BF007F02025519F2
:10558F00E4FFFEFDFC1257EAAC06AD077E277F1045
:0A559F00122479AC06AD070248257E
:08580300E4FF1258E20255F126
:08580B00E4FF1258DC0255F124
:0559C4007F0F0254FA00
:105433001258E8BF01081248847F021258EE12582E
:10544300E8BF030DE4900432F012441AE4FF12584B
:02545300EE2247
:100026001258E8BF01081248847F021258EE12588F
:0D003600E8BF0308124415E4FF1258EE2243
:105455001258E8BF01081248847F021258EE12580C
:10546500E8BF030DE4900430F012441AE4FF12582B
:02547500EE2225
:105477001258E8BF01081248847F021258EE1258EA
:10548700E8BF030DE490042FF012441AE4FF12580A
:02549700EE2203
:104F18001258E8BF010E7B017A06790612488A7F8B
:104F2800021258EE1258E8BF030DE4900432F01252
:084F3800441AE4FF1258EE22B6
:10533E001258E8BF010E7B017A06790612488A7F61
:10534E00021258EE1258E8BF0308124415E4FF1279
:03535E0058EE22E4
:104F40001258E8BF010E7B017A06790612488A7F63
:104F5000021258EE1258E8BF030DE4900430F0122C
:084F6000441AE4FF1258EE228E
:104F68001258E8BF010E7B017A06790612488A7F3B
:104F7800021258EE1258E8BF030DE490042FF01205
:084F8800441AE4FF1258EE2266
:104F90001258E8BF010E7B017A06790F12488A7F0A
:104FA000021258EE1258E8BF030DE4900432F012DA
:084FB000441AE4FF1258EE223E
:105361001258E8BF010E7B017A06790F12488A7F35
:10537100021258EE1258E8BF0308124415E4FF1256
:0353810058EE22C1
:104FB8001258E8BF010E7B017A06790F12488A7FE2
:104FC800021258EE1258E8BF030DE4900430F012B4
:084FD800441AE4FF1258EE2216
:104FE0001258E8BF010E7B017A06790F12488A7FBA
:104FF000021258EE1258E8BF030DE490042FF0128D
:08500000441AE4FF1258EE22ED
:105008001258E8BF010E7B017A06791912488A7F87
:10501800021258EE1258E8BF030DE4900432F01261
:08502800441AE4FF1258EE22C5
:105384001258E8BF010E7B017A06791912488A7F08
:10539400021258EE1258E8BF0308124415E4FF1233
:0353A40058EE229E
:105030001258E8BF010E7B017A06791912488A7F5F
:10504000021258EE1258E8BF030DE4900430F0123B
:08505000441AE4FF1258EE229D
:105058001258E8BF010E7B017A06791912488A7F37
:10506800021258EE1258E8BF030DE490042FF01214
:08507800441AE4FF1258EE2275
:105080001258E8BF010E7B017A06790212488A7F26
:10509000021258EE1258E8BF030DE4900432F012E9
:0850A000441AE4FF1258EE224D
:1053A7001258E8BF010E7B017A06790212488A7FFC
:1053B700021258EE1258E8BF0308124415E4FF1210
:0353C70058EE227B
:1050A8001258E8BF010E7B017A06790212488A7FFE
:1050B800021258EE1258E8BF030DE4900430F012C3
:0850C800441AE4FF1258EE2225
:1050D0001258E8BF010E7B017A06790212488A7FD6
:1050E000021258EE1258E8BF030DE490042FF0129C
:0850F000441AE4FF1258EE22FD
:1050F8001258E8BF010E7B017A06790B12488A7FA5
:10510800021258EE1258E8BF030DE4900432F01270
:08511800441AE4FF1258EE22D4
:1053CA001258E8BF010E7B017A06790B12488A7FD0
:1053DA00021258EE1258E8BF0308124415E4FF12ED
:0353EA0058EE2258
:105120001258E8BF010E7B017A06790B12488A7F7C
:10513000021258EE1258E8BF030DE4900430F0124A
:08514000441AE4FF1258EE22AC
:105148001258E8BF010E7B017A06790B12488A7F54
:10515800021258EE1258E8BF030DE490042FF01223
:08516800441AE4FF1258EE2284
:105170001258E8BF010E7B017A06791512488A7F22
:10518000021258EE1258E8BF030DE4900432F012F8
:08519000441AE4FF1258EE225C
:1053ED001258E8BF010E7B017A06791512488A7FA3
:1053FD00021258EE1258E8BF0308124415E4FF12CA
:03540D0058EE2234
:105198001258E8BF010E7B017A06791512488A7FFA
:1051A800021258EE1258E8BF030DE4900430F012D2
:0851B800441AE4FF1258EE2234
:1051C0001258E8BF010E7B017A06791512488A7FD2
:1051D000021258EE1258E8BF030DE490042FF012AB
:0851E000441AE4FF1258EE220C
:1051E8001258E8BF010E7B017A06791E12488A7FA1
:1051F800021258EE1258E8BF030DE4900432F01280
:08520800441AE4FF1258EE22E3
:105410001258E8BF010E7B017A06791E12488A7F76
:10542000021258EE1258E8BF0308124415E4FF12A6
:0354300058EE2211
:105210001258E8BF010E7B017A06791E12488A7F78
:10522000021258EE1258E8BF030DE4900430F01259
:08523000441AE4FF1258EE22BB
:105238001258E8BF010E7B017A06791E12488A7F50
:10524800021258EE1258E8BF030DE490042FF01232
:08525800441AE4FF1258EE2293
:08581300E4FF1258760255F182
:08581B00E4FF12587C024D9AD3
:08582300E4FF12588E0255F15A
:08582B00E4FF1258940255F14C
:08583300E4FF12589A0255F13E
:10555600E4900590F01258A0900590EFF075F003D6
:0D556600A4FF125499900590E0FF0255F14A
:08583B00E4FF1258A60255F12A
:10526000E4900590F01258AC900590EFF0C3940ACA
:105270005005E0FF0255F1900590E0C3940B5003F8
:0652800002564912560817
:015286002205
:08584300E4FF1258B20255F116
:08584B00E4FF1258B80255F108
:08585300E4FF1258BE0255F1FA
:104C5D00E4900590F01258C4900590EFF01255F1C4
:104C6D0090058EE0FF900590E06F601D1249DA907F
:104C7D000590E090058EF01258D0BF010C7F807E1C
:094C8D0000124D6DE4FF1258D62F
:014C960022FB
:104CCC00E4900590F01258CA900590EFF0124D9AAE
:104CDC001258D0BF011E12577E12567112577E9079
:104CEC000590E02442FFE433FE124D6D12577EE432
:044CFC00FF1258D675
:014D00002290
:104ACE001233D8900489E0540F24FD601314601F34
:104ADE0024FD602A14602C2406702F90042F80175A
:104AEE0090042FE04480F0A3E04480F0A38008906F
:104AFE00042FE04480F0A3E04480F0A380089004EB
:0D4B0E0030800390042FE04480F002441A30
:101F75004106B6004106BB004106B9004106BA005C
:101F85004106B7004106B4004106BC004106B80051
:041F95004106B5004C
:10576E00438901758C3C758AB0D2AFD2A9D28C22F6
:0E579A00438910758DFF758B9CD2AFD2AB2268
:03000B00023F258C
:103F2500C0E0C0F0C083C082C0D075D000C000C062
:0D3F350001C002C003C004C005C006C007E3
:103F42009005F5E4F0A3F0C28D758C3C758AB01231
:103F5200586A9005F5EFF01258DC9005F6EFF090F4
:103F620006B6E004F0E0B4050B9006BBE004F09066
:103F720006B6E4F09006BBE0C394044002E4F0907D
:103F820006B9E0B40104A3E004F012592ABF0114F7
:103F92009006B7E004F0E0D39478400812593090CC
:103FA20006B7E4F09005F5E0FFB45F159006B4E0C3
:103FB20004F0E0B4140B9006BCE004F09006B4E404
:103FC200F0EF645F60129006B8E004F0E0D394C8AA
:103FD2004006E4F0FF1258709005F5E07015A3E07A
:103FE200B402109006B5E004F0E0C3940A4004B2B3
:033FF200CDE4F02B
:103FF500D007D006D005D004D003D002D001D00020
:0B400500D0D0D082D083D0F0D0E032C9
:03001B00024A7D19
:104A7D00C0E0C0F0C083C082C0D075D000C000C0FF
:0D4A8D0001C002C003C004C005C006C00780
:104A9A00E4FF12586AC28F758DFF758B9CEFB42E96
:094AAA0005122049800312253099
:104AB300D007D006D005D004D003D002D001D00057
:0B4AC300D0D0D082D083D0F0D0E03201
:0558E8009006BBE0FF8B
:0158ED002298
:0658EE009006BBEFF02262
:0658F4009006B9EFF0225E
:0558FA009006BAE0FF7A
:0158FF002286
:06590000E49006BAF0225B
:055906009006BCE0FF6B
:01590B002279
:06590C009006BCEFF02242
:06591200E49006B8F0224B
:065918009006BAEFF02238
:0B1F99004806A4140F09040C220006E7
:044B6500E0FD7F8A66
:104B6900D2A0EF54FEFFE4FEEF30E004D2A18002B0
:104B7900C2A1D2A2C2A2EFC313FF0EEEB408E9E4A8
:104B8900FEED30E004D2A18002C2A1D2A2C2A2ED00
:0A4B9900C313FD0EEEB408E9C2A03C
:014BA30022EF
:104BA400D2A0EF4401FFE4FDEF30E004D2A1800283
:104BB400C2A1D2A2C2A2EFC313FF0DEDB408E9E46F
:104BC400FDEEC313FE30A1054480FE8004EE547F45
:0E4BD400FED2A2C2A20DEDB408E7C2A0AF0649
:014BE20022B0
:1044C800E4FF74A42FF582E43406F583E0FE75F06A
:1044D8000A84FDEE75F00A8474AC2FF582E4340684
:1044E800F583E5F0F0EDC454F0FE74AC2FF582E4EA
:1044F8003406F583E02EF00FEFB408C6E4FD7F8E96
:10450800124B697D807F80124B699006ADE0FD7F7C
:104518008C124B69A3E0FD7F88124B69A3E0FD7FF5
:1045280086124B699006B3124B659006B0E0FD7F8A
:1045380084124B69A3E0FD7F82124B69A3E0FD7FE3
:0F45480080124B69A3124B657D807F8E024B69F9
:1046D8007F8C124BA49006ADEFF07F88124BA4A3F9
:1046E800EFF07F86124BA4A3EFF07F84124BA4A3B4
:1046F800EFF07F82124BA4A3EFF07F80124BA4EF60
:10470800547FA3F07F8A124BA4A3EFF0E4FF74ACAC
:104718002FF582E43406F583E0FEC4540FFDEE5411
:104728000FFE74A42FF582E43406F583EEF0ED75E0
:10473800F00AA4FE74A42FF582E43406F583E02E73
:06474800F00FEFB408C8F9
:01474E002248
:0B57CD00C2A0C2A2E4FD7F80024B6975
:101FA40041069100410690004106960041069900C1
:101FB4004106A000410685004106840043069D00B9
:101FC4000000420697004642069B007842068100C4
:101FD4000042067F000042068E0000420692004640
:101FE40042069400784206A200004106830041069E
:101FF400A10041069A004106860041068A00430674
:0A2004008700000043068B00000077
:07586300D2AFD2A8D28822C7
:0300030002585B45
:08585B00C2A8208E02D28E3299
:10557300E4900691F0900690F0900699F0900696CC
:0C558300F09006A0F0900684F0A3F02247
:1025300030B2059006998003900696E004F090066C
:1025400085E004F0E0D394A07480948F4007C28E9D
:10255000D2A8025573900684E014604E14700302F2
:1025600025E314700302262E1470030226BB147098
:102570000302270224056003022755900699E0D341
:1025800094004003022755900696E0FFC3900698FA
:10259000E09F900697E09400400302275C90068439
:1025A000E004F0E4900699F08034900699E0FFFD95
:1025B000900696E02DFDE433FCC390069CE09D90D0
:1025C000069BE09C5003022755EFD3940150030271
:1025D000275C30A802C2A8900684E004F0E49006CC
:1025E00096F022900696E0D394004013900699E06E
:1025F000900691F0E4900699F0900684E004F09043
:102600000697E0FEA3E0FF90069CE02FFF90069B5C
:10261000E03EFEEF7803CEC313CE13D8F9FF900649
:1026200099E0D39FE49E500302275C022755900651
:1026300099E0D394004055900696E0FF900690F004
:10264000E4900696F09006847402F09006A0E013E1
:102650001313541FFE249DF582E43406F583E0FD38
:1026600025E0F0900691E0D39F400E749D2EF582F8
:10267000E43406F583E04401F09006A0E004F0E0C5
:10268000D3941740079006847404F022900697E0D4
:10269000FEA3E0FF90069CE02FFF90069BE03EFE2D
:1026A000EF7803CEC313CE13D8F9FF900696E0D38C
:1026B0009FE49E500302275C022755900696E0D3C4
:1026C00094004013900699E0900691F0E4900699EA
:1026D000F0900684E004F0900697E0FEA3E0FF90FF
:1026E000069CE02FFF90069BE03EFEEF7803CEC3F2
:1026F00013CE13D8F9FF900699E0D39FE49E405C77
:102700008053900699E0D39400401F900696E0FF16
:1027100090069CE09F90069BE09400500AC28E9029
:1027200006837401F0D2A8125573900697E0FEA3B9
:10273000E0FF90069CE02FFF90069BE03EFE900697
:1027400096E0D39FE49E4014125573D2A8C28EE443
:0D275000900683F022125573D2A8C28E228B
:102ECD00900683E064016003023085C2A890069AE3
:102EDD00E014602704600302307E90069DE09006AA
:102EED0087F090069EE0900688F090069FE0900691
:102EFD0089F090069A7401F002307E90069DE0FFF5
:102F0D00900687E06F600302306690069EE0FE90AB
:102F1D000688E06E600302306690069FE0FD900625
:102F2D0089E06D600302306690068BE06F7012A32E
:102F3D00E06E700DA3E0B50508900686E070208068
:102F4D000090069DE090068BF090069EE090068C1A
:102F5D00F090069FE090068DF09006A17401F09020
:102F6D0006867401F0125912E49005C4F09005C460
:102F7D00E0FFC394084003023049EF75F020A4240C
:102F8D0000FDE5F03406FC7B017A0579CD9005F363
:102F9D007420F07FA01245F912577EE49005C3F01E
:102FAD009005C3E0FFC39420400302304074CD2F41
:102FBD00F582E43405F583E070709005C4E075F09A
:102FCD0020A4FF9005C3E07C002FFFEC35F0FEEF51
:102FDD007803C333CE33CED8F92400FDEE3437FC5D
:102FED007B017A0579C59005F37408F07FA0124531
:102FFD00F912577E90068BE0FF9005CAE0B5072ABF
:10300D0090068CE0FF9005CBE0B5071E90068DE095
:10301D00C4540FFF9005CCE0FEC4540FB5070B90C0
:10302D00068A7401F012591280099005C3E004F06C
:10303D00022FAD9005C4E004F0022F7AE490069DB6
:10304D00F0A3F0A3F0900687F0A3F0A3F07F011298
:10305D0058D6E490069AF0801890069DE090068769
:10306D00F090069EE0900688F090069FE09006890D
:08307D00F0D2A8E4900683F0F4
:013085002228
:1020490030B2059006998003900696E004F0900658
:1020590085E004F0E0D394A07480948F4006C28E8A
:10206900D2A88027900684E014605A1470030221D4
:102079005D1470030221A8240360030222EF900675
:1020890099E0D394004007D2A8C28E0255739006F6
:1020990081E0FEA3E0FF7C007D0F122467EF243C62
:1020A900FFE43EFE900696E0D39FEC9E5003022289
:1020B900F6900684E004F0900697EEF0A3EFF0E4C2
:1020C900A3F002215890067FE0FEA3E0FF7C007D8B
:1020D9000F122467EF2478FFE43EFE900699E0F999
:1020E900FD900696E02DFDE433FCD3ED9FEC9E4078
:1020F90022E9701C900680E004F0700690067FE0EB
:1021090004F0900682E004F07006900681E004F085
:102119000222EFE9D3940150030222F690067FE0F0
:10212900FEA3E0FF7C007D0F122467EF2478FFE413
:102139003E90069BF0A3EFF0E490067FF0A3F0A396
:10214900F0A3F030A802C2A8900684E004F0E4905D
:102159000696F022900696E0D394004013900699D3
:10216900E0900691F0E4900699F0900684E004F07E
:10217900900697E0FEA3E0FF90069CE02FFF9006F3
:102189009BE03EFEEF7803CEC313CE13D8F9FF9040
:102199000699E0D39FE49E50030222F60222EF90B3
:1021A9000699E0D3940050030222C4900696E0FFFA
:1021B900900690F0E4900696F09006847402F090F0
:1021C90006A0E0131313541FFE249DF582E4340680
:1021D900F583E025E0F0900691E0FDD39F400E7471
:1021E9009D2EF582E43406F583E04401F09006A0C3
:1021F900E004F0E0D3941750030222C4C28E900683
:1022090090E02DFEE43390068EF0A3CEF0125573C4
:102219009006A3E004F070069006A2E004F0900690
:102229009BE0FEA3E0FF900695E02FF0900694E076
:102239003EF0E0C313FEA3E013FF90069BEEF0A36C
:10224900EFF0900694EEF0A3EFF0D39006A3E0949C
:10225900019006A2E09400405F900692E0FEA3E0A0
:10226900FF900697E0FCA3E0FD9FFFEC9EFED3EFF5
:10227900941EEE94004015900693E09DFF900692FF
:10228900E09CFED3EF941EEE9400502C900697E04C
:10229900FEA3E0FF900693E02FF0900692E03EF057
:1022A900E0C313FEA3E013FF900697EEF0A3EFF04F
:1022B900900692EEF0A3EFF0D2A822900697E0FEE6
:1022C900A3E0FF90069CE02FFF90069BE03EFEEF07
:1022D9007803CEC313CE13D8F9FF900696E0D39FA7
:0E22E900E49E40098000125573D2A8C28E22D6
:05591E009006A1E0FF6E
:015923002261
:06592400E49006A1F02250
:05592A00900686E0FF7D
:01592F002255
:06593000E4900686F0225F
:0559360090068AE0FF6D
:01593B002249
:06593C00E490068AF0224F
:0857EA0090068EE0FEA3E0FF33
:0157F2002294
:1054BA0000000000000000000000000000000000E2
:1054CA0000000000000000000000000000000000D2
:0B200E004806BD0000000000000000BC
:10004600789B7C057D017BFF7A5479BA7E007F2000
:100056001223C7E49005BBF0A3F0A3F0A3F0A3F02E
:10006600A3F0A3F0A3F012586A9005BBEFF0125864
:10007600C49005BCEFF01258CA9005BDEFF01258B7
:10008600769005BEEFF012587C9005BFEFF012583F
:10009600AC9005C0EFF012588E9005C1EFF01258E3
:1000A600949005C2EFF0122ECD12591EEF64016036
:1000B60003020C3D9005BBE024CE24FC400302095C
:1000C6006A24FC4003020A1924FC4003020ABA24EB
:1000D600FC4003020B5B24E47003020C0B14700358
:1000E6000203BE245F6003020C3AE4FF12590C902F
:1000F600068DE0FF54F060030201EA90068BE0FEF5
:10010600C4540FFD9005C0E0FC6D6008EC640A6005
:10011600030201EA9005BCE0B4010CEF540F24740D
:10012600F582E43405800D90068DE0540F2474F5B5
:1001360082E43404F583E0900593F090068BE0FFAB
:10014600900594EDF0EF540FA3F090068CE0FFC4F9
:10015600540F900596F0EF540FA3F0A3EEF090061F
:100166008CE0900599F090068DE090059AF0900548
:1001760093E0FF64336042EF603FE4900591F090B6
:1001860005C2E0FF900591E0C39F50307B017A05E0
:100196007993900593E0FD9005D3E4F0A3EDF090FC
:1001A600068DE0540F9005D5F09005C1E0FF1227AB
:1001B6005D900591E004F080C6020498124E779097
:1001C60005C67401F0A37405F0A37493F07B017A5D
:1001D6000479841240101233D812441A7F5F1258E1
:1001E60070020C3AE4900590F0900590E0FFC394FD
:1001F600304003020C3AEF75F020A4FDACF07B0111
:100206007A05799B9005F37420F07FA01245F912C8
:10021600577EE490058FF090058FE0FFC394204051
:10022600030203B5749B2FF582E43405F583E06081
:10023600030203AC900590E075F020A4FF90058FB3
:10024600E07C002FFFEC35F0FEEF7803C333CE33AE
:10025600CED8F92400FDEE3407FC7B017A057993AC
:100266009005F37408F07FA01245F912577E9005A9
:10027600BCE06401602B90068BE0FF900598E0B52A
:10028600071F90068CE0FF900599E0B507139006CE
:100296008DE0C4540FFF90059AE0FEC4540F6F60C2
:1002A600389005BCE0640160030203AC90068BE065
:1002B600FF900598E06F60030203AC90068CE0FFA8
:1002C600900599E06F60030203AC90068DE0FF9005
:1002D600059AE06F60030203AC90068DE0FF90057F
:1002E6009AF0900593E0C3943250279005BCE0B491
:1002F600010CEF540F2474F582E43405800D90064A
:100306008DE0540F2474F582E43404F583E09005FF
:1003160093F0900593E0FF64336042EF603FE49012
:100326000591F09005C2E0FF900591E0C39F504C07
:100336007B017A057993900593E0FD9005D3E4F06F
:10034600A3EDF090068DE0540F9005D5F09005C111
:10035600E0FF12275D900591E004F080C69005C687
:100366007401F0A37404F0A37484F07B017A057918
:10037600931232301233D812441A8033124E7790C9
:1003860005C67401F0A37405F0A37493F07B017A9B
:100396000479841240101233D812441A7F5F12581F
:1003A60070125924800990058FE004F002021D9016
:1003B6000590E004F00201EFE4FF12590C90068D5F
:1003C600E0FF54F0600302063190068BE0FEC45451
:1003D6000FFD9005C0E0FC6D6008EC640A60030246
:1003E60006319005BCE0B4010CEF540F2474F5827D
:1003F600E43405800D90068DE0540F2474F582E4F4
:100406003404F583E0900593F090068BE0FF9005A9
:1004160094EDF0EF540FA3F090068CE0FFC4540F58
:10042600900596F0EF540FA3F0A3EEF090068CE043
:10043600900599F090068DE090059AF09005BEE043
:100446006401600302054D900593E0FF643360424A
:10045600EF603FE4900591F09005C2E0FF900591B2
:10046600E0C39F50477B017A057993900593E0FDA1
:100476009005D3E4F0A3EDF090068DE0540F9005BF
:10048600D5F09005C1E0FF12275D900591E004F0DC
:1004960080C69005C67401F0A37404F0A37484F0BA
:1004A6007B017A05799312323002061F900594E09B
:1004B600FF900485E06F7026900595E0FF90048616
:1004C600E06F701A900596E0FF900487E0B5070E7E
:1004D600900597E0FF900488E0B50702804F9005ED
:1004E600BFE0900591F0900591E0FFD39401401A8A
:1004F600EF75F006A42478F9740435F0FA7B01123E
:100506004941900591E014F080DCE4900591F0906B
:100516000591E0FFC39406501474842FF582E434E9
:1005260004F583E4F0900591E004F080E29005C6BE
:100536007401F0A37405F0A37493F07B017A047937
:100546008412401002061F9005BEE064026003029A
:100556000C3A900592F09005BFE0FF900592E0FE00
:10056600C39F4003020C3AEE75F006A42484F5827C
:10057600E43404F583E06003020628EE75F006A471
:10058600247FF582E43404F583E0FF900594E0FED1
:10059600EF6E705F900592E0FF75F006A42480F57B
:1005A60082E43404F583E0FE900595E0FDEE6D707F
:1005B60042EF75F006A42481F582E43404F583E065
:1005C600FF900596E0FEEF6E7029900592E0FF75AC
:1005D600F006A42482F582E43404F583E0FE900557
:1005E60097E0FDEEB5050CEF75F006A4247EF974D0
:1005F60004800D900592E075F006A42484F9740435
:1006060035F0FA7B01C0039005C6EBF0A37405F044
:10061600A37493F0D0031240101233D812441A0276
:100626000C3A900592E004F002055CE4900590F027
:10063600900590E0FFC394304003020C3AEF75F04A
:1006460020A4FDACF07B017A05799B9005F374201C
:10065600F07FA01245F912577EE490058FF09005C1
:100666008FE0FFC394204003020961749B2FF5823B
:10067600E43405F583E06003020958900590E075BF
:10068600F020A4FF90058FE07C002FFFEC35F0FEF4
:10069600EF7803C333CE33CED8F92400FDEE34070A
:1006A600FC7B017A0579939005F37408F07FA0121C
:1006B60045F912577E9005BCE06401602B90068BCD
:1006C600E0FF900598E0B5071F90068CE0FF9005C7
:1006D60099E0B5071390068DE0C4540FFF90059A74
:1006E600E0FEC4540F6F60389005BCE064016003FF
:1006F60002095890068BE0FF900598E06F600302B0
:10070600095890068CE0FF900599E06F6003020996
:100716005890068DE0FF90059AE06F600302095835
:1007260090068DE0FF90059AF0900593E0C3943211
:1007360050279005BCE0B4010CEF540F2474F582E9
:10074600E43405800D90068DE0540F2474F582E4A0
:100756003404F583E0900593F09005BEE0640160F3
:1007660003020870900593E0FF64336042EF603F38
:10077600E4900591F09005C2E0FF900591E0C39FDB
:10078600504D7B017A057993900593E0FD9005D352
:10079600E4F0A3EDF090068DE0540F9005D5F090AF
:1007A60005C1E0FF12275D900591E004F080C69038
:1007B60005C67401F0A37404F0A37484F07B017A77
:1007C6000579931232301233D812441A0209619015
:1007D6000594E0FF900485E06F7026900595E0FF94
:1007E600900486E06F701A900596E0FF900487E00B
:1007F600B5070E900597E0FF900488E0B5070280E4
:100806004F9005BFE0900591F0900591E0FFD394DD
:1008160001401AEF75F006A42478F9740435F0FA4D
:100826007B01124941900591E014F080DCE49005CB
:1008360091F0900591E0FFC39406501474842FF54F
:1008460082E43404F583E4F0900591E004F080E25C
:100856009005C67401F0A37405F0A37493F07B01B0
:100866007A0479841240100209429005BEE06402BF
:100876006003020953900592F09005BFE0FF9005D2
:1008860092E0FEC39F4003020953EE75F006A424CE
:1008960084F582E43404F583E0600302094AEE75C8
:1008A600F006A4247FF582E43404F583E0FF900586
:1008B60094E0FEEF6E705F900592E0FF75F006A47F
:1008C6002480F582E43404F583E0FE900595E0FD8E
:1008D600EE6D7042EF75F006A42481F582E43404CF
:1008E600F583E0FF900596E0FEEF6E702990059285
:1008F600E0FF75F006A42482F582E43404F583E073
:10090600FE900597E0FDEEB5050CEF75F006A42404
:100916007EF97404800D900592E075F006A4248497
:10092600F9740435F0FA7B01C0039005C6EBF0A319
:100936007405F0A37493F0D0031240101233D8124A
:10094600441A8009900592E004F002087F125924A7
:10095600800990058FE004F0020664900590E0049B
:10096600F00206367F3512587090068DE0540F90CF
:1009760006BDF09005FEE09006BEF09005FFE09003
:1009860006BFF0900600E09006C0F0900601E090E9
:1009960006C1F090068BE09006C2F090068CE090BF
:1009A60006C3F09005BCE090068DB40103E0800319
:1009B600E054F09006C4F07B017A0679BD123086C9
:1009C6004003020C3A12577E900601E06409703D1E
:1009D600900600E06409702F9005FFE0B4092290AC
:1009E60005FEE004F0E4A3F0A3F09005FEE0B415E4
:1009F6000AE4F090060104F0020C3A900601020B9C
:100A0600E69005FF020BEE900600020BFB90060136
:100A1600020C067F3912587090068DE0FE540F9036
:100A260006BDF0900606E09006BEF0900607E09040
:100A360006BFF0900608E09006C0F0900609E09028
:100A460006C1F090068BE09006C2F090068CE0900E
:100A560006C3F0EE54F0A3F07B017A0679BD122DA1
:100A6600104003020C3A12577E900609E0640970A2
:100A76003D900608E06409702F900607E0B409224D
:100A8600900606E004F0E4A3F0A3F0900606E0B4B6
:100A9600150AE4F090060904F0020C3A90060902E1
:100AA6000BE6900607020BEE900608020BFB90067B
:100AB60009020C067F3D1258709006BD7434F09002
:100AC600060FE09006BEF0900610E09006BFF0908C
:100AD6000611E09006C0F0900612E09006C1F09074
:100AE600068BE09006C2F090068CE09006C3F0906C
:100AF600068DE054F09006C4F07B017A0679BD12AB
:100B0600297E4003020C3A12577E900612E06409D1
:100B1600703D900611E06409702F900610E0B4094C
:100B26002290060FE004F0E4A3F0A3F090060FE095
:100B3600B4150AE4F090061204F0020C3A9006127C
:100B4600020BE6900610020BEE900611020BFB90CC
:100B56000612020C067F411258709006BD7433F0DF
:100B6600900619E09006BEF090061AE09006BFF0D7
:100B760090061BE09006C0F090061CE09006C1F0BF
:100B860090068BE09006C2F090068CE09006C3F0CB
:100B960090068DE054F09006C4F07B017A0679BD8C
:100BA600122B474003020C3A12577E90061CE06453
:100BB60009704A90061BE06409703790061AE0B483
:100BC6000923900619E004F0E4A3F0A3F0900619B7
:100BD600E0B41509E4F090061C04F0805790061C5A
:100BE6007401F0804F90061AE004F0E4A3F0A3F03D
:100BF600804290061BE004F0E4A3F0803790061CC8
:100C0600E004F0802F9005BCE0B40112A3E0FF9051
:100C1600068DE0540F2474F582E4340580129005A5
:100C2600BDE0FF90068DE0540F2474F582E4340491
:0D0C3600F583EFF0125924123CF10235381D
:1054DA00FFFFFFFFFFFFFFFFFFFFFFFFFFFFFFFFD2
:1054EA00FFFFFFFFFFFFFFFFFFFFFFFFFFFFFFFFC2
:102019006020062F00000000000000000000000002
:1020290000000000000000000000000000000000A7
:0F2039000000000048064F0000000000000000FB
:0359C900DFFE22DC
:10563400AE07AF061EEF600C7FF51259C97FF51255
:0556440059C980EE22AF
:10561E00D2B400D2B50000000000C2B400000000F9
:06562E0000C2B5000022DD
:10573B00C2B400D2B50000000000D2B400000000DB
:01574B00223B
:104C2000E4FEEFA806088002C333D8FC30E704D2C4
:104C3000B48002C2B400D2B50000000000C2B50EBC
:104C4000EEB408DE0000D2B40000D2B5000000309F
:0C4C5000B404C20A8002D20AC2B50000FF
:014C5C002235
:1052AE00E4FFD2B4FE00C2B50000000000D2B5008B
:1052BE0000EF25E0FF30B4010F00000EEEB408E55C
:0452CE00C2B5000065
:0152D20022B9
:10574C00C2B4000000D2B50000000000C2B50000D9
:01575C00222A
:10575D00D2B4000000D2B50000000000C2B50000B8
:01576D002219
:1047C100900593E075F020A42400FDE5F03406FC8B
:0E47D1007A06792F7B0174209005CEF07FA030
:1047DF0012561E124C20200A02C322ECFF124C204C
:1047EF00200A02C322AF05124C20200A02C322E482
:1047FF00FD9005CEE0FFEDC39F50161223EDFF1283
:10480F004C20200A02C322740129F9E43AFA0D80E0
:05481F00E012573BD33D
:014824002271
:1045E300EF75F020A4FDACF07A06792F74207B01DF
:0645F3009005F3F07FA02B
:0545F9009005EDEFF05C
:1045FE0012561EE0FF124C20200A02C322ECFF12BC
:10460E004C20200A02C322AF05124C20200A02C3FE
:10461E002212561E9005EDE004FF124C20200A02D5
:10462E00C322E4FD9005F3E014FFEDC39F50141276
:10463E0052AEEF12243312574C740129F9E43AFAB0
:10464E000D80E11252AEEF12243312575D12573B1A
:01465E00D388
:01465F002238
:0B3086009005C3EBF0A3EAF0A3E9F013
:10309100E4A3F0A3F09005C6F09005C6E0FFC39449
:1030A10038400302317A1245E312577EE49005C796
:1030B100F09005C7E0FFC394204003023171742FE3
:1030C1002FF582E43406F583E06003023168900550
:1030D100C6E075F020A4FFA3E07C002FFFEC35F0E3
:1030E100FEEF7803C333CE33CED8F92400FDEE349E
:1030F10007FC7A06794F74081245F112577E900544
:10310100C3E0FBA3E0FAA3E0F9900005122406FF57
:10311100900654E06F7050900006122406FF90064E
:1031210055E06F7042900007122406FF900656E0AA
:103131006F7034900650E09005FEF0900651E090DB
:1031410005FFF0900652E0900600F0900653E090E3
:103151000601F01258D0BF010C7F817E00124D6D27
:10316100E4FF1258D6C3229005C7E004F00230B242
:103171009005C6E004F002309AE49005C6F090058F
:10318100C6E0FFC39420400302322E1245E31257DA
:103191007EE49005C7F09005C7E0FFC3942040038B
:1031A100023225742F2FF582E43406F583E0606B3B
:1031B1009005C6E075F020A4FFA3E07C002FFFEC92
:1031C10035F0FEEF7803C333CE33CED8F92400FDBA
:1031D100EE3407FC9005C3E0FBA3E0FAA3E0F97429
:1031E100081247D912577E9005C7E0242FF582E4D3
:1031F1003406F583E4F09005C6E075F020A4FDAC3B
:10320100F01247D112577E1258D0BF010C7F807E39
:1032110000124D6DE4FF1258D6D3229005C7E00489
:0E322100F00231979005C6E004F002317FC341
:01322F00227C
:0B2D10009005C3EBF0A3EAF0A3E9F08C
:102D1B00E4A3F0A3F09005C6F09005C6E0FFC394C2
:102D2B00384003022E0C1245E312577EE49005C780
:102D3B00F09005C7E0FFC394204003022E03742FCD
:102D4B002FF582E43406F583E06003022DFA90053B
:102D5B00C6E075F020A4FFA3E07C002FFFEC35F05C
:102D6B00FEEF7803C333CE33CED8F92400FDEE3417
:102D7B0007FC7B017A06794F9005F37408F07FA06E
:102D8B001245F912577E9005C3E0FBA3E0FAA3E0CE
:102D9B00F9900005122406FF900654E06F705090D6
:102DAB000006122406FF900655E06F704290000754
:102DBB00122406FF900656E06F7034900650E09098
:102DCB000606F0900651E0900607F0900652E09050
:102DDB000608F0900653E0900609F01258D0BF0198
:102DEB000C7F817E00124D6DE4FF1258D6C32290EA
:102DFB0005C7E004F0022D3C9005C6E004F0022D5F
:102E0B0024E49005C6F09005C6E0FFC39408400388
:102E1B00022ECBEF75F020A42400FDE5F03406FC68
:102E2B001245EB12577EE49005C7F09005C7E0FF03
:102E3B00C394204003022EC2742F2FF582E4340674
:102E4B00F583E060699005C6E075F020A4FFA3E070
:102E5B007C002FFFEC35F0FEEF7803C333CE33CE7F
:102E6B00D8F92400FDEE3437FC9005C3E0FBA3E05A
:102E7B00FAA3E0F99005CE7408F07FA01247DF1299
:102E8B00577E9005C7E0242FF582E43406F583E4E2
:102E9B00F09005C61247C412577E1258D0BF010CD2
:102EAB007F807E00124D6DE4FF1258D6D322900521
:102EBB00C7E004F0022E369005C6E004F0022E1196
:012ECB00C343
:012ECC0022E3
:0B297E009005C3EBF0A3EAF0A3E9F022
:10298900E4A3F0A3F09005C6F09005C6E0FFC39458
:10299900384003022A7A1245E312577EE49005C7AC
:1029A900F09005C7E0FFC394204003022A71742FF9
:1029B9002FF582E43406F583E06003022A68900566
:1029C900C6E075F020A4FFA3E07C002FFFEC35F0F2
:1029D900FEEF7803C333CE33CED8F92400FDEE34AD
:1029E90007FC7B017A06794F9005F37408F07FA004
:1029F9001245F912577E9005C3E0FBA3E0FAA3E064
:102A0900F9900005122406FF900654E06F7050906B
:102A19000006122406FF900655E06F7042900007E9
:102A2900122406FF900656E06F7034900650E0902D
:102A3900060FF0900651E0900610F0900652E090D3
:102A49000611F0900653E0900612F01258D0BF011B
:102A59000C7F817E00124D6DE4FF1258D6C322907F
:102A690005C7E004F00229AA9005C6E004F002298E
:102A790092E49005C6F09005C6E0FFC394084003B0
:102A8900022B45EF75F020A42400FDE5F03404FC89
:102A99001245EB12577EE49005C7F09005C7E0FF99
:102AA900C394204003022B3C742F2FF582E4340693
:102AB900F583E060759005C6E075F020A4FFA3E0FA
:102AC9007C002FFFEC35F0FEEF7803C333CE33CE15
:102AD900D8F92400FDEE3427FC9005C3E0FBA3E000
:102AE900FAA3E0F99005CE7408F07FA01247DF122F
:102AF900577E9005C7E0242FF582E43406F583E478
:102B0900F09005C6E075F020A42400FDE5F034043A
:102B19001247D012577E1258D0BF010C7F807E0019
:102B2900124D6DE4FF1258D6D3229005C7E004F088
:0D2B3900022AA49005C6E004F0022A7FC322
:012B4600226C
:0B2B47009005C3EBF0A3EAF0A3E9F057
:102B5200E4A3F0A3F09005C6F09005C6E0FFC3948D
:102B6200384003022C431245E312577EE49005C716
:102B7200F09005C7E0FFC394204003022C3A742F63
:102B82002FF582E43406F583E06003022C319005D0
:102B9200C6E075F020A4FFA3E07C002FFFEC35F027
:102BA200FEEF7803C333CE33CED8F92400FDEE34E2
:102BB20007FC7B017A06794F9005F37408F07FA039
:102BC2001245F912577E9005C3E0FBA3E0FAA3E099
:102BD200F9900005122406FF900654E06F705090A1
:102BE2000006122406FF900655E06F70429000071F
:102BF200122406FF900656E06F7034900650E09063
:102C02000619F0900651E090061AF0900652E090F4
:102C1200061BF0900653E090061CF01258D0BF013C
:102C22000C7F817E00124D6DE4FF1258D6C32290B4
:102C320005C7E004F0022B739005C6E004F0022BF6
:102C42005BE49005C6F09005C6E0FFC3940840031C
:102C5200022D0EEF75F020A42400FDE5F03405FCF2
:102C62001245EB12577EE49005C7F09005C7E0FFCE
:102C7200C394204003022D05742F2FF582E43406FD
:102C8200F583E060759005C6E075F020A4FFA3E02F
:102C92007C002FFFEC35F0FEEF7803C333CE33CE4A
:102CA200D8F92400FDEE342FFC9005C3E0FBA3E02D
:102CB200FAA3E0F99005CE7408F07FA01247DF1264
:102CC200577E9005C7E0242FF582E43406F583E4AD
:102CD200F09005C6E075F020A42400FDE5F034056F
:102CE2001247D012577E1258D0BF010C7F807E004F
:102CF200124D6DE4FF1258D6D3229005C7E004F0BE
:0D2D0200022C6D9005C6E004F0022C48C3C1
:012D0F0022A1
:0B393E00900590EBF0A3EAF0A3E9F085
:10394900E4A3F0A3F0900593F0900593E0FFC394EE
:10395900204003023A7C1245E312577EE490059415
:10396900F0900594E0FFC394204003023A62900569
:1039790090E0FBA3E0FAA3E0F91223ED7028900090
:10398900011224067020900002122406701890007B
:10399900031224067010742F2FF582E43406F58380
:1039A90074FFF0023A59900594E0FD242FF582E462
:1039B9003406F583E06003023A59900593E075F007
:1039C90020A47C002DFFEC35F0FEEF7803C333CE45
:1039D90033CED8F92400FDEE3407FC7B017A067951
:1039E9004F9005F37408F07FA01245F912577E90A5
:1039F9000590E0FBA3E0FAA3E0F91223EDFF90069E
:103A090050E06F704B900001122406FF900651E0C0
:103A19006F703D900002122406FF900652E06F700D
:103A29002F900003122406FF900653E0B50721905A
:103A39000594E0242FF582E43406F58374FFF090B1
:103A49000593E075F020A4FDACF01247D112577E22
:103A5900900594E004F002396A900593E075F0202E
:103A6900A4FDACF01247D112577E900593E004F003
:043A7900023952D3E9
:013A7D002226
:0B3BBA00900590EBF0A3EAF0A3E9F007
:103BC500E4A3F0A3F0900593F0900593E0FFC39470
:103BD500084003023CEFEF75F020A42400FDE5F05A
:103BE5003406FC1245EB12577EE4900594F09005DF
:103BF50094E0FFC394204003023CE0900590E0FB75
:103C0500A3E0FAA3E0F91223ED7028900001122435
:103C150006702090000212240670189000031224EA
:103C2500067010742F2FF582E43406F58374FFF0C7
:103C3500023CD7900594E0FD242FF582E43406F587
:103C450083E06003023CD7900593E075F020A47CE7
:103C5500002DFFEC35F0FEEF7803C333CE33CED81D
:103C6500F92400FDEE3437FC7B017A06794F900587
:103C7500F37408F07FA01245F912577E900590E085
:103C8500FBA3E0FAA3E0F91223EDFF900650E06FE5
:103C95007040900001122406FF900651E06F7032CB
:103CA500900002122406FF900652E06F70249000E7
:103CB50003122406FF900653E06F7016900594E0FA
:103CC500242FF582E43406F58374FFF01247C11200
:103CD500577E900594E004F0023BF31247C112575A
:0B3CE5007E900593E004F0023BCED37C
:013CF00022B1
:0B369400900590EBF0A3EAF0A3E9F032
:10369F00E4A3F0A3F0900593F0900593E0FFC3949B
:1036AF000840030237E7EF75F020A42400FDE5F092
:1036BF003404FC1245EB12577EE4900594F090050C
:1036CF0094E0FFC3942040030237C9900590E0FBBC
:1036DF00A3E0FAA3E0F91223ED7028900001122461
:1036EF000670209000021224067018900003122416
:1036FF00067010742F2FF582E43406F58374FFF0F3
:10370F000237C0900594E0FD242FF582E43406F5CE
:10371F0083E060030237C0900593E075F020A47C2E
:10372F00002DFFEC35F0FEEF7803C333CE33CED848
:10373F00F92400FDEE3427FC7B017A06794F9005C2
:10374F00F37408F07FA01245F912577E900590E0B0
:10375F00FBA3E0FAA3E0F91223EDFF900650E06F10
:10376F00704F900001122406FF900651E06F7041D8
:10377F00900002122406FF900652E06F7033900003
:10378F0003122406FF900653E06F7025900594E016
:10379F00242FF582E43406F58374FFF0900593E04F
:1037AF0075F020A42400FDE5F034041247D0125721
:1037BF007E900594E004F00236CD900593E075F00D
:1037CF0020A42400FDE5F034041247D012577E9058
:0937DF000593E004F00236A8D3C2
:0137E80022BE
:0B37E900900590EBF0A3EAF0A3E9F0DC
:1037F400E4A3F0A3F0900593F0900593E0FFC39445
:1038040008400302393CEF75F020A42400FDE5F0E4
:103814003405FC1245EB12577EE4900594F09005B4
:1038240094E0FFC39420400302391E900590E0FB0E
:10383400A3E0FAA3E0F91223ED702890000112240A
:1038440006702090000212240670189000031224BF
:10385400067010742F2FF582E43406F58374FFF09C
:10386400023915900594E0FD242FF582E43406F521
:1038740083E06003023915900593E075F020A47C81
:10388400002DFFEC35F0FEEF7803C333CE33CED8F2
:10389400F92400FDEE342FFC7B017A06794F900564
:1038A400F37408F07FA01245F912577E900590E05A
:1038B400FBA3E0FAA3E0F91223EDFF900650E06FBA
:1038C400704F900001122406FF900651E06F704182
:1038D400900002122406FF900652E06F70339000AD
:1038E40003122406FF900653E06F7025900594E0C0
:1038F400242FF582E43406F58374FFF0900593E0F9
:1039040075F020A42400FDE5F034051247D01257C9
:103914007E900594E004F0023822900593E075F05F
:1039240020A42400FDE5F034051247D012577E9000
:093934000593E004F00237FDD315
:01393D002267
:1049DA0078917C057D017BFF7A5479DA7E007F200D
:1049EA001223C7E49005B1F0A3F09005B1E0FEA34D
:1049FA00E0FFC39438EE94005027EF7805C333CE16
:104A0A0033CED8F9FDAC067A0579911247D51257FB
:104A1A007E9005B2E004F070D19005B1E004F08018
:014A2A00C9C2
:014A2B002268
:1055A9007F7E1257E17F031257E17F331257E17F64
:0955B900041257E17FEF0257E1F3
:064D67002401FFE433FE0D
:104D6D009005E3EEF0A3EFF07F7E1257E17F041282
:104D7D0057E17F411257E19005E3E0FF1257E190B3
:0D4D8D0005E3A3E0FF1257E17FEF0257E1BD
:10549900900591EFF07F7E1257E17F031257E17F6C
:1054A900311257E1900591E0FF1257E17FEF025762
:0154B900E111
:105671007F7E1257E17F021257E17F0E1257E17FC1
:04568100EF0257E1FC
:105685007F7E1257E17F021257E17F011257E17FBA
:04569500EF0257E1E8
:0F3A7E009005D6A3E0FFA3E0FBA3E0FAA3E0F9D5
:053A8D009005DFEFF0E1
:103A9200A3EBF0A3EAF0A3E9F0EFD3940240030210
:103AA2003B979005DFE064016017A3E0FBA3E0FA17
:103AB200A3E0F99000021224062401FFE433FE8001
:103AC200219005E0E0FBA3E0FAA3E0F990000212E6
:103AD20024066011124D677F1D7E00124D6D7F1E00
:103AE2007E00124D6D9005DFE064016013A3E0FBE0
:103AF200A3E0FAA3E0F99000031224062401804E09
:103B02009005E0E0FBA3E0FAA3E0F99000031224A1
:103B12000660426401702490000412240670047F3F
:103B22000B802E9005E0E0FBA3E0FAA3E0F9900001
:103B320004122406240BFFE43380169005E0E0FB18
:103B4200A3E0FAA3E0F99000031224062413FFE491
:103B520033FE124D6D9005DFE064016011A3E0FBBE
:103B6200A3E0FAA3E0F9900004122406801F900556
:103B7200E0E0FBA3E0FAA3E0F9900004122406FFC0
:103B820060359000031224066401602BEF2401FFCC
:103B9200E433FE801F9005DFE024FC600D1460100A
:103BA200240270137F3E7E00800A7F3C7E008004E8
:073BB2007F3B7E00124D6D08
:013BB90022E9
:0E275D009005CFEFF0A3EBF0A3EAF0A3E9F0B4
:10276B00E49005DEF01258AC9005DEEFF09005CF4B
:10277B00E0FF7E009005D6EEF0A3EFF09005D0E0E1
:10278B00F9A3E0FAA3E09005D8C9F0A3EAF0A3E916
:10279B00F09005D3E0FDA3E09005DBCDF0A3EDF0C9
:1027AB009005D5E09005DDF0D3EF9402EE94004058
:1027BB00030229687F3E124D6D9005DDE0640F70BA
:1027CB00030228897F687E00124D6D9005DEE06460
:1027DB000A60030228909005D8E0FBA3E0FAA3E07F
:1027EB00F9900001122406FFD39409502B9005D6C3
:1027FB00E07004A3E064016005EF2401803A9005CA
:10280B00D8E0FBA3E0FAA3E0F990000112240660E4
:10281B0074124D677F1F804A9005D8E0FBA3E0FA46
:10282B00A3E0F9900001122406FFD3940F500FEF91
:10283B00C3940A4009EF2417FFE433FE804490054C
:10284B00D8E0FBA3E0FAA3E0F990000112240624E0
:10285B00EF601314601614601914601C24047025A7
:10286B007F287E00801C7F2C7E0080167F2F7E00B1
:10287B0080107F307E00800A7F357E0080047F3F92
:10288B007E00124D6D123A7E9005DDE0640F600301
:10289B000229327F40FE124D6D9005DEE0640A6026
:1028AB000302292C9005D8E0FBA3E0FAA3E0F990F2
:1028BB000001122406FFD394095005EF2401801A5E
:1028CB009005D8E0FBA3E0FAA3E0F99000011224F5
:1028DB0006FFD3940F5009EF2417FFE433FE803E1D
:1028EB009005D8E0FBA3E0FAA3E0F99000011224D5
:1028FB000624EF601314601614601914601C240472
:10290B00701F7F287E0080167F2C7E0080107F2F0B
:10291B007E00800A7F307E0080047F357E00124D62
:10292B006D7F417E0080459005D6E07004A3E06486
:10293B0002603F9005DBE0FEA3E0FFC39432EE9410
:10294B00005009EF2442FFE43EFE80209005DBE0BF
:10295B007004A3E06434701A7F3BFE800F9005DB9C
:10296B00E07004A3E0643470067F3BFE024D6D12F1
:02297B003A7EA2
:01297D002237
:10456300024DCAE493A3F8E493A34003F68001F257
:1045730008DFF48029E493A3F85407240CC8C33359
:10458300C4540F4420C8834004F456800146F6DF28
:10459300E4800B0102040810204080901D6BE47E30
:1045A300019360BCA3FF543F30E509541FFEE4931D
:1045B300A360010ECF54C025E060A840B8E493A3E4
:1045C300FAE493A3F8E493A3C8C582C8CAC583CA0F
:1045D300F0A3C8C582C8CAC583CADFE9DEE780BEC7
:012048000097
:1022F700E709F608DFFA8046E709F208DFFA803EC9
:1023070088828C83E709F0A3DFFA8032E309F608B5
:10231700DFFA8078E309F208DFFA807088828C831D
:10232700E309F0A3DFFA806489828A83E0A3F608D1
:10233700DFFA805889828A83E0A3F208DFFA804CAB
:1023470080D280FA80C680D4806980F28033801082
:1023570080A680EA809A80A880DA80E280CA8033EB
:1023670089828A83ECFAE493A3C8C582C8CCC58363
:10237700CCF0A3C8C582C8CCC583CCDFE9DEE78033
:102387000D89828A83E493A3F608DFF9ECFAA9F0B2
:10239700EDFB2289828A83ECFAE0A3C8C582C8CC08
:1023A700C583CCF0A3C8C582C8CCC583CCDFEADE21
:1023B700E880DB89828A83E493A3F208DFF980CC83
:1023C70088F0EF60010E4E60C388F0ED2402B4047C
:1023D7000050B9F582EB2402B4040050AF23234523
:0623E700822390234773DE
:1023ED00BB010689828A83E0225002E722BBFE02EE
:0923FD00E32289828A83E4932221
:10240600BB010CE58229F582E5833AF583E022508B
:1024160006E92582F8E622BBFE06E92582F8E222D5
:0D242600E58229F582E5833AF583E49322EF
:10243300BB010689828A83F0225002F722BBFE0188
:02244300F32282
:10244500F8BB010DE58229F582E5833AF583E8F0CD
:10245500225006E92582C8F622BBFE05E92582C879
:02246500F22261
:10246700EF8DF0A4A8F0CF8CF0A428CE8DF0A42E89
:02247700FE2243
:10247900BC000BBE0029EF8DF084FFADF022E4CC47
:10248900F875F008EF2FFFEE33FEEC33FCEE9DEC10
:10249900984005FCEE9DFE0FD5F0E9E4CEFD22ED56
:1024A900F8F5F0EE8420D21CFEADF075F008EF2FA0
:1024B900FFED33FD4007985006D5F0F222C398FD91
:0524C9000FD5F0EA222E
:1024CE00A3F8E0C5F025F0F0E582158270021583C1
:0624DE00E0C838F0E8221E
:1024E400D083D082F8E4937012740193700DA3A387
:1024F40093F8740193F5828883E47374029368609B
:06250400EFA3A3A380DF9A
:06250A008A838982E4735C
:104B1B009006C5E0FFA3E0FEA3E0CF90065AF0A3FA
:104B2B00EEF0A3EFF09006C8E0CBF0A3E0CAF0A341
:104B3B00E0C9F07F2290065DAD82AC831223ED8D30
:104B4B00828C83F0A309E970010ADFEC9006C8E0C0
:0A4B5B00FBA3E0FAA3E0F902174BF8
:1016E600E508245AF582E43406F583E005082290DD
:1016F600065730070390065AE475F00112251002CA
:1017060023ED2000E97F2ED2008018EF540F24909D
:10171600D43440D4FF30040BEF24BFB41A00500376
:101726002461FFE50960021509050CE50C70020548
:101736000B30070E900657E475F001122510EF02E4
:1017460024330252877403D2078003E4C207F508E4
:10175600900657122527E4F509F50BF50CE5096007
:10176600077F2012172980F5750AFFC201C200C241
:1017760002C203C205C206C2081216F5FF700D307A
:1017860007057F0012173AAF0CAE0B22B4255FC2D5
:10179600D5C2041216F5FF24D0B40A00501A75F00B
:1017A6000A780930D50508B6FF0106C6A426F62034
:1017B600D5047002D20380D924CFB41A00EF5004A6
:1017C600C2E5D20402193BD20180C6D20080C0D243
:1017D6000280BCD2D580BAD20580B47F20121729E8
:1017E6002002077401B5090040F11216E6FF121730
:1017F60029021763D208D20680951216E6FB121646
