:030000000231BE0C
:0C31BE00787FE4F6D8FD7581210232050F
:102F7B005573617274496E697420436F6D706C6523
:102F8B00746521200D0A00746D313632395F696E1C
:102F9B00697420436F6D706C65746521200D0A0098
:102FAB00496E69745F54696D65723020436F6D7043
:102FBB006C65746521200D0A00496E69745F546954
:102FCB006D65723120436F6D706C65746521200DDA
:102FDB000A006578696E74305F696E697420436F9F
:102FEB006D706C65746521200D0A004473313330AC
:102FFB00325F496E697420436F6D706C6574652127
:04300B00200D0A008A
:1033FE00123E877BFF7A2F797B1234B01235057B14
:10340E00FF7A2F79921234B0123FB87BFF7A2F7960
:10341E00AB1234B0123FD67BFF7A2F79C41234B080
:10342E0012409F7BFF7A2F79DD1234B012400B7B56
:10343E00FF7A2F79F61234B0123FD675B10CE4F53F
:09344E00B21200261209FE80F8FA
:0300230002000ECA
:0D000E00309802C298309904C299C209329C
:094016002009FDEFD209F5992201
:10372400900435EBF0A3EAF0A3E9F0900435E0FB54
:10373400A3E0FAA3E0F9121BCC6017900435A3E4CC
:1037440075F001121C24A9F0FA121BCCFF124016CA
:0337540080D922F7
:103E8700E5A2543FF5A275985075D7C875D6FE754B
:0A3E97008E14438E01D2ACD2AF228C
:0B34B000900007EBF0A3EAF0A3E9F0A6
:1034BB009000327401F0A37400F0A3740AF0900032
:1034CB0007E0F9A3E0FAA3E0900435C9F0A3EAF012
:1034DB00A3E9F0900032E0F9A3E0FAA3E0900438FE
:1034EB00C9F0A3EAF0A3E9F07B017A007935123534
:0A34FB00A77B017A0079350237241F
:10127E006B65795F76616C206973202578202E0D61
:10128E000A000000000000FF41DD01020E0F00FF0A
:10129E0000060203011500FF001E0304021900FFE1
:1012AE0041420405031D00FF41470506041F00FFD0
:1012BE00414C0607052000FF41510708062100FF9B
:1012CE0041560809072600FF415B090A082A00FF5C
:1012DE0041600A0B092C00FF41650B0C0A2E00FF22
:1012EE00416A0C0D0B2F00FF416F0D0E0C3000FFED
:1012FE0041740E010D3100FF41790F0F0F1001FFE8
:10130E0037871010101101FF38611111111201FFF2
:10131E0038891212121301FF3C6D1313131401FFBF
:10132E003C911414140F01FF38B11516183502FF35
:10133E003EF51617153902FF3F071718163D02FF27
:10134E003F191815174102FF3F2B191A1C4503FFB1
:10135E003F3D1A1B194903FF3F4F1B1C1A4D03FF3C
:10136E003F611C191B5103FF3F731D1E1E5204FFCC
:10137E00417E1E1D1D5304FF41831F1F1F1F05FFAE
:10138E00401F2020202006FF40272122255407FF42
:10139E0041882223215507FF418D2324225607FF22
:1013AE0041922425235707FF41972521245807FFF3
:1013BE00419C2627295908FF41A12728265A08FFB4
:1013CE0041A62829275B08FF41AB2926285C08FF88
:1013DE0041B02A2B2B5D09FF41B52B2A2A5E09FF4E
:1013EE0041BA2C2D2D000AFF41BF2D2C2C000AFFD7
:1013FE0041C42E2E2E000BFF41C92F2F2F000CFFA4
:10140E0041CE303030000DFF41D3313131000EFF6F
:10141E0041D83232323515FF3DAA3333333215FF00
:10142E003E4E3434343315FF3DCC3535353415FF4F
:10143E003DEE3636363916FF38D93737373616FF82
:10144E003CB53838383716FF39013939393816FF77
:10145E0039293A3A3A3D17FF39513B3B3B3A17FF90
:10146E003CD83C3C3C3B17FF39793D3D3D3C17FF9A
:10147E0039A13E3E3E4118FF39C93F3F3F3E18FF5E
:10148E003CFB4040403F18FF39F14141414018FFBD
:10149E003A194242424519FF3A414343434219FF2A
:1014AE003D1E4444444319FF3A694545454419FFDE
:1014BE003A91464646491AFF3AB9474747461AFFF8
:1014CE003D41484848471AFF3AE1494949481AFF01
:1014DE003B094A4A4A4D1BFF3B314B4B4B4A1BFFC4
:1014EE003D644C4C4C4B1BFF3B594D4D4D4C1BFF23
:1014FE003B814E4E4E511CFF3BA94F4F4F4E1CFF92
:10150E003D875050504F1CFF3BD1515151501CFF45
:10151E003BF9525252521DFF402F535353531EFF4D
:10152E0040375454545421FF403F5555555522FFD2
:10153E0040475656565623FF404F5757575724FF8E
:10154E0040575858585825FF405F5959595926FF4A
:10155E0040675A5A5A5A27FF406F5B5B5B5B28FF06
:10156E0040775C5C5C5C29FF407F5D5D5D5D2AFFC2
:10157E0040875E5E5E5E2BFF408F00000000000025
:10158E00000000000000000000000000000000004D
:10159E00000000000000000000000000000000003D
:0215AE0000003B
:10185C004105A6004405AA000000014405B20000A1
:10186C0000014405BB000000014405C50000000157
:10187C004405AE000000014405B70000000144051A
:10188C00C1000000014405CA000000014105B60179
:10189C004105C0014105BF004105C9004105CE000D
:1018AC004105D0014105D3004105D6004105D800C2
:1018BC004105CF004105D2004105D5004105D700B7
:1018CC004105D1024105D4004105A4004105D900D0
:0418DC004105A5001D
:10313000E4900003F0A3F043901F53A007E59054E0
:103140001F641F6074123FC8E590541F641F6069BC
:1031500043901F43A0F853A07FE590541F641F6065
:1031600058E590541FFF900003E4F0A3EFF0E0F85F
:10317000E4F0E8900003F0E5A054F8FFA3E02FF09E
:10318000900003E03400F0E0B41E0DA3E0B4780832
:103190001241247F01124118E590541FFFBF1FF810
:1031A000123FC8E590541FFFBF1FF8E4FF124118FB
:0D31B000900003E0FEA3E0FF227E0F7FFFF2
:0131BD0022EF
:10333E00E4900001F0A3F0123130900001EEF0A302
:10334E00EFF0F47003EE640F60187BFF7A12797E53
:10335E00900001E0FFA3E090000ACFF0A3EFF0127F
:10336E0034B0900001E0FEA3E08EF0121C603390AA
:10337E00177833961B7833931D7833991E78000097
:10338E00339C7F03227F02227F01227F00227FFF58
:01339E00220C
:10002600E4FF900000F012333EEF147003020173F8
:100036001470030205D514700302016024036003E3
:100046000209D39005A6E0701812411E900000EF39
:10005600F0C3941450030209D39005A6740102015B
:10006600599005A6E0FF6442600FEF6443600AEF13
:1000760064446005EF6445701912411E900000EF5C
:10008600F0C3940A403C7B017A0579AE1221D8026E
:10009600012A9005A6E0FF6446600FEF6447600AF8
:1000A600EF64486005EF6449701A12411E90000023
:1000B600EFF0C3940A400B7B017A0579B7121CB3A3
:1000C600806280659005A6E0FF644A600FEF644B8E
:1000D600600AEF644C6005EF644D701A12411E9081
:1000E6000000EFF0C3940A400B7B017A0579C11238
:1000F6001E6A803080339005A6E0FF644E600FEFE5
:10010600644F600AEF64506005EF6451702E12412F
:100116001E900000EFF0C3940A400E7B017A057929
:10012600CA122021123FC8802B9005A6E075F00860
:10013600A42493F582E5F034120209CB9005A6E0DB
:1001460075F008A42493F582E5F03412F583E49360
:100156009005A6F01241240209D39005A6E075F099
:1001660008A42494F582E5F034120209CB9005A682
:10017600E0121C3A021D0F022F10023F11024F120D
:10018600025F1302711404E51F04F7200283320292
:10019600953302A73402B93502CB3602DD3702EFBA
:1001A6003803013903133A03253B03373C03493D22
:1001B600035B3E036D3F037F4003914103A342036C
:1001C600B54303C74403D94503EB4603FD47040F74
:1001D6004804214904334A04454B04574C04694DED
:1001E600047B4E048D4F049F5004B15104C2520447
:1001F600D553050954051B55052B56053E57054E87
:1002060058055E59056E5A057E5B058E5C059E5D3A
:1002160005B15E000005C290063DE0B46305E4F05A
:100226000205C290063D0205BF90063EE0B40C03EF
:100236000204DC90063E0205BF90063FE0B41F03B1
:100246000204DC90063F0205BF900643E0B40703B4
:100256000204DC9006430205BF900640E0B4170591
:10026600E4F00205C29006400205BF900641E0B4E4
:100276003B05E4F00205C29006410205BF9005AABF
:10028600E0B41405E4F00205C29005AA0205BF9089
:1002960005ABE0B40905E4F00205C29005AB020522
:1002A600BF9005ACE0B40905E4F00205C29005ACC8
:1002B6000205BF9005ADE0B40905E4F00205C29061
:1002C60005AD0205BF9005B2E0B41405E4F00205E1
:1002D600C29005B20205BF9005B3E0B40905E4F08B
:1002E6000205C29005B30205BF9005B4E0B4090546
:1002F600E4F00205C29005B40205BF9005B5E0B46E
:100306000905E4F00205C29005B50205BF9005BBDC
:10031600E0B41405E4F00205C29005BB0205BF90E7
:1003260005BCE0B40905E4F00205C29005BC02056F
:10033600BF9005BDE0B40905E4F00205C29005BD15
:100346000205BF9005BEE0B40905E4F00205C290BF
:1003560005BE0205BF9005C5E0B41405E4F002052C
:10036600C29005C50205BF9005C6E0B40905E4F0D4
:100376000205C29005C60205BF9005C7E0B409058F
:10038600E4F00205C29005C70205BF9005C8E0B4B7
:100396000905E4F00205C29005C80205BF9005AE46
:1003A600E0B41405E4F00205C29005AE0205BF9064
:1003B60005AFE0B40905E4F00205C29005AF0205F9
:1003C600BF9005B0E0B40905E4F00205C29005B09F
:1003D6000205BF9005B1E0B40905E4F00205C2903C
:1003E60005B10205BF9005B7E0B41405E4F00205B7
:1003F600C29005B70205BF9005B8E0B40905E4F060
:100406000205C29005B80205BF9005B9E0B409051A
:10041600E4F00205C29005B90205BF9005BAE0B442
:100426000905E4F00205C29005BA0205BF9005C1B0
:10043600E0B41405E4F00205C29005C10205BF90C0
:1004460005C2E0B40905E4F00205C29005C2020542
:10045600BF9005C3E0B40905E4F00205C29005C3E8
:100466000205BF9005C4E0B40905E4F00205C29098
:1004760005C40205BF9005CAE0B41405E4F0020500
:10048600C29005CA0205BF9005CBE0B40905E4F0A9
:100496000205C29005CB0205BF9005CCE0B4090564
:1004A600E4F00205C29005CC0205BF9005CDE0B48C
:1004B6000904E4F080069005CDE004F09005B6E06E
:1004C600B401067402F00205C29005B60205AC90AE
:1004D60005C0E0B414030205AC9005C00205BF9048
:1004E60005BFE0B46305E4F00205C29005BF02054E
:1004F600BF9005C9E0B46305E4F00205C29005C9E2
:100506000205BF9005CEE0B40505E4F00205C290F1
:1005160005CE0205BF9005D0E0B409030205AC90F4
:1005260005D00205BF9005D3E0700504F00205C2B0
:10053600E49005D3F00205C29005D6E0B40904E4C0
:10054600F080799005D680719005D8E0B40904E46E
:10055600F080699005D880619005CFE0B40B04E483
:10056600F080599005CF80519005D2E0B40B04E499
:10057600F080499005D280419005D5E0B40B04E4A3
:10058600F080399005D580319005D7E0B40B04E4AE
:10059600F080299005D780219005D1E0B40104E4CC
:1005A600F080199005D17401F080119005D4E0B463
:1005B6003204E4F080069005D4E004F09005A6E04D
:1005C60075F008A42491F582E5F034120209CB9067
:1005D60005A6E0121C3A067F0F068E1006A111062C
:1005E600B41206C71306D91408F01F08FE2006EB3E
:1005F6003206FA3307093407183507273607363720
:1006060007453807543907633A07723B07813C07A9
:10061600903D079F3E07AE3F07BD4007CC4107DB35
:100626004207EA4307F944080845081746082647DB
:1006360008354808444908534A08624B08714C0873
:10064600804D088F4E089D4F08AC5008BB5108CA14
:100656005208DD53091054092255093156094357EA
:10066600095058096059096D5A097A5B09875C096E
:10067600975D09AA5E000009BB90063DE070030283
:10068600090490063D0209B890063EE0B4010674DE
:100696000CF00209BB90063E0209B890063FE0B492
:1006A6000106741FF00209BB90063F0209B89006C6
:1006B60043E0B401067407F00209BB900643020941
:1006C600B8900640E070067417F00209BB90064029
:1006D6000209B8900641E07006743BF00209BB902F
:1006E60006410209B89005AAE070030208E49005E5
:1006F600AA0209B89005ABE070030209569005AB53
:100706000209B89005ACE070030209569005AC02E8
:1007160009B89005ADE070030209569005AD0209CF
:10072600B89005B2E070030208E49005B20209B879
:100736009005B3E070030209569005B30209B8901C
:1007460005B4E070030209569005B40209B8900595
:10075600B5E070030209569005B50209B89005BBCD
:10076600E070030208E49005BB0209B89005BCE0FE
:1007760070030209569005BC0209B89005BDE070E9
:10078600030209569005BD0209B89005BEE0700344
:100796000209569005BE0209B89005C5E07003022D
:1007A60008E49005C50209B89005C6E07003020981
:1007B600569005C60209B89005C7E07003020956AF
:1007C6009005C70209B89005C8E070030209569063
:1007D60005C80209B89005AEE070030208E490056A
:1007E600AE0209B89005AFE070030209569005AF56
:1007F6000209B89005B0E070030209569005B002F0
:1008060009B89005B1E070030209569005B10209D6
:10081600B89005B7E070030208E49005B70209B87E
:100826009005B8E070030209569005B80209B89021
:1008360005B9E070030209569005B90209B890059A
:10084600BAE070030209569005BA0209B89005C1CC
:10085600E070030208E49005C10209B89005C2E001
:1008660070030209569005C20209B89005C3E070EC
:10087600030209569005C30209B89005C4E0700347
:100886000209569005C40209B89005CAE0700280B4
:100896004D9005CA0209B89005CBE07003020956CF
:1008A6009005CB0209B89005CCE07003020956907A
:1008B60005CC0209B89005CDE070030209569005F3
:1008C600CD0209B89005B6E0B401067402F002093B
:1008D600BB9005B60209A59005C0E0B401067414E4
:1008E600F00209BB9005C00209B89005BFE070028E
:1008F600800C9005BF0209B89005C9E070067463C4
:10090600F00209BB9005C90209B89005CEE0700651
:100916007405F00209BB9005CE0209B89005D0E037
:10092600B40102802B9005D00209B89005D3E0707F
:100936000504F00209BBE49005D3F080789005D653
:10094600E07002800B9005D680689005D8E07005AF
:100956007409F080609005D880589005CFE0700249
:1009660080259005CF804B9005D2E07002801890CC
:1009760005D2803E9005D5E07002800B9005D580AB
:10098600319005D7E07005740BF080299005D7806B
:10099600219005D1E0B40104E4F080199005D174EA
:1009A60001F080119005D4E070057432F080069055
:1009B60005D4E014F09005A6E075F008A42492F59D
:1009C60082E5F03412F583E4939005A6F09005A62F
:1009D600E075F008A42495F582E5F03412F583E479
:1009E60093FB740193FA740293F99005A7EBF0A3B5
:0809F600EAF0A3E9F0021C8DF8
:0D3FC8007F047E347DDCDDFEDEFADFF600D6
:013FD50022C9
:0540A6009005A6E0FFFB
:0140AB0022F2
:0640AC009005A6EFF022D2
:0540B2009005B6E0FFDF
:0140B70022E6
:0540B8009005C0E0FFCF
:0140BD0022E0
:0540BE009005BFE0FFCA
:0140C30022DA
:0540C4009005C9E0FFBA
:0140C90022D4
:0540CA009005CEE0FFAF
:0140CF0022CE
:0540D0009005D0E0FFA7
:0140D50022C8
:0540D6009005D3E0FF9E
:0140DB0022C2
:0540DC009005D6E0FF95
:0140E10022BC
:0540E2009005D8E0FF8D
:0140E70022B6
:0540E8009005CFE0FF90
:0140ED0022B0
:0540EE009005D2E0FF87
:0140F30022AA
:0540F4009005D5E0FF7E
:0140F90022A4
:0540FA009005D7E0FF76
:0140FF00229E
:054100009005D1E0FF75
:014105002297
:054106009005D4E0FF6C
:01410B002291
:1018E0005504953F065B4F666D7D077F6F777C39AA
:1018F0005E797176385C733E48059A0102040810DF
:101900002040804205A240006030046500000000D5
:1019100000000000000000000000000000000000C7
:1019200000000000000000000000000000000000B7
:1019300000000000000000000000000060F004AAA9
:101940000000000000000000000000000000000097
:101950000000000000000000000000000000000087
:101960000000000000000000000000000000000077
:101970000000000000000000000000000000000067
:101980000000000000000000000000000000000057
:101990000000000000000000000000000000000047
:1019A0000000000000000000000000000000000037
:1019B0000000000000000000000000000000000027
:1019C0000000000000000000000000000000000017
:1019D0000000000000000000000000000000000007
:1019E00000000000000000000000000000000000F7
:1019F00000000000000000000000000000000000E7
:101A000000000000000000000000000000000000D6
:101A100000000000000000000000000000000000C6
:101A200000000000000000000000000000000000B6
:041A30004104640009
:1037B700C282E4FDFCC280EF30E004D2818002C205
:1037C7008100000000D280EFC313FF0DBD00010C84
:0A37D700ED64084C70DFC280C2816F
:0137E10022C5
:1037E200C283E4FDFCC280EF30E004D2818002C2D9
:1037F2008100000000D280EFC313FF0DBD00010C59
:0A380200ED64084C70DFC280C28143
:01380C002299
:10380D00C2CCE4FDFCC280EF30E004D2818002C264
:10381D008100000000D280EFC313FF0DBD00010C2D
:0A382D00ED64084C70DFC280C28118
:01383700226E
:0D3FE400D282000000000000C2820237B748
:0D3FF100D283000000000000C2830237E20E
:0D3FFE00D2CC000000000000C2CC02380D43
:052ED300E4900467F02B
:102ED8007F40123FE47FC0123FE4E4FE74652EF5A4
:102EE80082E43404F583E0FF1237B7746D2EF5825F
:102EF800E43404F583E0FF1237B70EEEB408DD7F43
:102F08008C123FE4D2827F40123FF17FC0123FF122
:102F1800E4FE74752EF582E43404F583E0FF12377D
:102F2800E2747D2EF582E43404F583E0FF1237E283
:102F38000EEEB408DD7F8C123FF1D2837F40123F42
:102F4800FE7FC0123FFEE4FE74852EF582E4340451
:102F5800F583E0FF12380D748D2EF582E43404F504
:102F680083E0FF12380D0EEEB408DD7F8C123FFEB1
:022F7800D2CCB9
:012F7A002234
:10350500E4900000F0E4FFE4FE900000E0249AF56A
:1035150082E43405F583E0FDEF75F008A42465F534
:1035250082E43404F583E5822EF582E43583F58360
:10353500EDF00EEEB408D20FEFB406CB122ED87F05
:103545001E123EE3900000E004F0E0C3940840B58D
:013555002253
:103EE300EFD39400400B7EFF7DFFDDFEDEFA1F80E3
:013EF300EFDF
:013EF40022AB
:10383800E4FFE4FEEF75F008A42465F582E434049F
:10384800F583E5822EF582E43583F583E4F00EEE08
:08385800B408E10FEFB406DA39
:013860002245
:1036EF00E4FF12410CEF6401702A12383890046421
:1036FF00E05403FF2465F582E43404F5837440F04D
:10370F00122ED8E4FF124112900464E004F0E0B4EA
:04371F000402E4F0CC
:013723002283
:102CEF001238381232C7900497E0900474F09004B1
:102CFF0095E0900473F090063DE0FF75F00A842490
:102D0F0095F582E43404F583E0900472F0EF75F0EA
:102D1F000A84749525F0F582E43404F583E0900479
:102D2F0071F09004707440F090063EE0FF75F00A69
:102D3F00842495F582E43404F583E090046FF0EF7A
:102D4F0075F00A84749525F0F582E43404F583E078
:102D5F0090046EF090046D7440F090063FE0FF75A4
:102D6F00F00A842495F582E43404F583E090046C32
:102D7F00F0EF75F00A84749525F0F582E43404F5CC
:102D8F0083E090046BF0900643E02495F582E434E1
:102D9F0004F583E090046AF0900640E0FF75F00AB6
:102DAF00842495F582E43404F583E0900468F0EF11
:102DBF0075F00A84749525F0F582E43404F583E008
:102DCF00900467F0900641E0FF75F00A842495F5B2
:102DDF0082E43404F583E0900466F0EF75F00A8422
:102DEF00749525F0F582E43404F583E0900465F0E2
:032DFF00022ED8C9
:103E1000AD071238389004A4E0900466F074952D34
:0F3E2000F582E43404F583E0900465F0022ED8B7
:103E2F00AD071238389004A3E0900466F074952D16
:0F3E3F00F582E43404F583E0900465F0022ED898
:103EA100AD0712383874952DF582E43404F583E0BA
:073EB100900465F0022ED819
:10375700AD07123838ED75F00A842495F582E43404
:1037670004F583E0900466F0ED75F00A84749525FE
:10377700F0F582E43404F583E0900465F0022ED876
:063457007B017A0579AA51
:10345D00123838121BCC2495F582E43404F583E040
:10346D00900468F0900001121BE52495F582E43478
:10347D0004F583E0900467F0900002121BE524959B
:10348D00F582E43404F583E0900466F090000312B5
:10349D001BE52495F582E43404F583E0900465F092
:0334AD00022ED814
:0341DD00022CEFC2
:05000600E4FF023E10C2
:05001E007F01023E100D
:054142007F02023E10A7
:054147007F03023E10A1
:05414C007F04023E109B
:054151007F05023E1095
:054156007F06023E108F
:05415B007F07023E1089
:054160007F08023E1083
:054165007F09023E107D
:05416A007F0A023E1077
:05416F007F0B023E1071
:054174007F0C023E106B
:054179007F0D023E1065
:1037870012410CBF0108122CEF7F021241121241A5
:103797000CBF0319E4900474F0900473F090047262
:1037A700F0900471F0122ED8E4FF1241120230A1FA
:1038610012410CBF0108122CEF7F021241121241CA
:103871000CBF0311E490046FF090046EF0122ED887
:08388100E4FF1241120230A124
:1038890012410CBF0108122CEF7F021241121241A2
:103899000CBF0311E490046CF090046BF0122ED865
:0838A900E4FF1241120230A1FC
:103C6D0012410CBF0108122CEF7F021241121241BA
:103C7D000CBF030DE490046AF0122ED8E4FF12413C
:043C8D00120230A14E
:103C910012410CBF0108122CEF7F02124112124196
:103CA1000CBF030DE4900468F0122ED4E4FF12411E
:043CB100120230A12A
:1038B10012410CBF0108122CEF7F0212411212417A
:1038C1000CBF0311E4900466F0900465F0122ED849
:0838D100E4FF1241120230A1D4
:103EF5007F01123E2FE49005AAF0A3F0A3F0A304DE
:023F0500F022A8
:103F07007F02123E2FE49005B2F0A3F0A3F0A304C2
:023F1700F02296
:103F19007F03123E2FE49005BBF0A3F0A3F0A304A6
:023F2900F02284
:103F2B007F04123E2FE49005C5F0A3F0A3F0A30489
:023F3B00F02272
:103F3D007F01123E2FE49005AEF0A3F0A3F0A30491
:023F4D00F02260
:103F4F007F02123E2FE49005B7F0A3F0A3F0A30475
:023F5F00F0224E
:103F61007F03123E2FE49005C1F0A3F0A3F0A30458
:023F7100F0223C
:103F73007F04123E2FE49005CAF0A3F0A3F0A3043C
:023F8300F0222A
:05417E007F01023E2F4D
:054183007F02023E2F47
:08401F00E4FF1240BE02375716
:08402700E4FF1240C402375708
:054188007F01023E2F43
:05418D007F02023E2F3D
:054192007F03023E2F37
:054197007F04023E2F31
:05419C007F05023E2F2B
:0541A1007F01023E2F2A
:0541A6007F02023E2F24
:0541AB007F03023E2F1E
:0541B0007F04023E2F18
:0541B5007F01023E2F16
:0541BA007F02023E2F10
:0541BF007F01023E2F0C
:0541C4007F02023E2F06
:0541C9007F0F023E1013
:0541CE007F0F023E100E
:0541D3007F0F023E1009
:0541D8007F0F023E1004
:103DAA0012410CBF01081234577F0212411212410C
:103DBA000CBF030DE4900468F0122ED8E4FF124100
:023DCA001222C3
:103E4E0012410CBF01081234577F02124112124167
:0D3E5E000CBF0308122ED3E4FF1241122204
:103DCC0012410CBF01081234577F021241121241EA
:103DDC000CBF030DE4900466F0122ED8E4FF1241E0
:023DEC001222A1
:103DEE0012410CBF01081234577F021241121241C8
:103DFE000CBF030DE4900465F0122ED8E4FF1241BF
:023E0E0012227E
:1038D90012410CBF010E7B017A0579B212345D7F6A
:1038E9000212411212410CBF030DE4900468F01258
:0838F9002ED8E4FF1241122257
:103CB50012410CBF010E7B017A0579B212345D7F8A
:103CC5000212411212410CBF0308122ED3E4FF1257
:033CD50041122277
:1039010012410CBF010E7B017A0579B212345D7F41
:103911000212411212410CBF030DE4900466F01231
:083921002ED8E4FF124112222E
:1039290012410CBF010E7B017A0579B212345D7F19
:103939000212411212410CBF030DE4900465F0120A
:083949002ED8E4FF1241122206
:1039510012410CBF010E7B017A0579BB12345D7FE8
:103961000212411212410CBF030DE4900468F012DF
:083971002ED8E4FF12411222DE
:103CD80012410CBF010E7B017A0579BB12345D7F5E
:103CE8000212411212410CBF0308122ED3E4FF1234
:033CF80041122254
:1039790012410CBF010E7B017A0579BB12345D7FC0
:103989000212411212410CBF030DE4900466F012B9
:083999002ED8E4FF12411222B6
:1039A10012410CBF010E7B017A0579BB12345D7F98
:1039B1000212411212410CBF030DE4900465F01292
:0839C1002ED8E4FF124112228E
:1039C90012410CBF010E7B017A0579C512345D7F66
:1039D9000212411212410CBF030DE4900468F01267
:0839E9002ED8E4FF1241122266
:103CFB0012410CBF010E7B017A0579C512345D7F31
:103D0B000212411212410CBF0308122ED3E4FF1210
:033D1B0041122230
:1039F10012410CBF010E7B017A0579C512345D7F3E
:103A01000212411212410CBF030DE4900466F01240
:083A11002ED8E4FF124112223D
:103A190012410CBF010E7B017A0579C512345D7F15
:103A29000212411212410CBF030DE4900465F01219
:083A39002ED8E4FF1241122215
:103A410012410CBF010E7B017A0579AE12345D7F04
:103A51000212411212410CBF030DE4900468F012EE
:083A61002ED8E4FF12411222ED
:103D1E0012410CBF010E7B017A0579AE12345D7F24
:103D2E000212411212410CBF0308122ED3E4FF12ED
:033D3E004112220D
:103A690012410CBF010E7B017A0579AE12345D7FDC
:103A79000212411212410CBF030DE4900466F012C8
:083A89002ED8E4FF12411222C5
:103A910012410CBF010E7B017A0579AE12345D7FB4
:103AA1000212411212410CBF030DE4900465F012A1
:083AB1002ED8E4FF124112229D
:103AB90012410CBF010E7B017A0579B712345D7F83
:103AC9000212411212410CBF030DE4900468F01276
:083AD9002ED8E4FF1241122275
:103D410012410CBF010E7B017A0579B712345D7FF8
:103D51000212411212410CBF0308122ED3E4FF12CA
:033D6100411222EA
:103AE10012410CBF010E7B017A0579B712345D7F5B
:103AF1000212411212410CBF030DE4900466F01250
:083B01002ED8E4FF124112224C
:103B090012410CBF010E7B017A0579B712345D7F32
:103B19000212411212410CBF030DE4900465F01228
:083B29002ED8E4FF1241122224
:103B310012410CBF010E7B017A0579C112345D7F00
:103B41000212411212410CBF030DE4900468F012FD
:083B51002ED8E4FF12411222FC
:103D640012410CBF010E7B017A0579C112345D7FCB
:103D74000212411212410CBF0308122ED3E4FF12A7
:033D8400411222C7
:103B590012410CBF010E7B017A0579C112345D7FD8
:103B69000212411212410CBF030DE4900466F012D7
:083B79002ED8E4FF12411222D4
:103B810012410CBF010E7B017A0579C112345D7FB0
:103B91000212411212410CBF030DE4900465F012B0
:083BA1002ED8E4FF12411222AC
:103BA90012410CBF010E7B017A0579CA12345D7F7F
:103BB9000212411212410CBF030DE4900468F01285
:083BC9002ED8E4FF1241122284
:103D870012410CBF010E7B017A0579CA12345D7F9F
:103D97000212411212410CBF0308122ED3E4FF1284
:033DA700411222A4
:103BD10012410CBF010E7B017A0579CA12345D7F57
:103BE1000212411212410CBF030DE4900466F0125F
:083BF1002ED8E4FF124112225C
:103BF90012410CBF010E7B017A0579CA12345D7F2F
:103C09000212411212410CBF030DE4900465F01237
:083C19002ED8E4FF1241122233
:08402F00E4FF1240B2023EA1C1
:08403700E4FF1240B802375704
:08403F00E4FF1240CA023EA199
:08404700E4FF1240D0023EA18B
:08404F00E4FF1240D6023EA17D
:08405700E4FF1240DC023EA16F
:08405F00E4FF1240E2023EA161
:08406700E4FF1240E8023EA153
:08406F00E4FF1240EE023EA145
:08407700E4FF1240F4023EA137
:08407F00E4FF1240FA023EA129
:08408700E4FF124100023EA11A
:08408F00E4FF1241060237575D
:101A3400410654004106580041065600410657002D
:041A44004106550002
:103FB800438901758C3C758AB0D2AFD2A9D28C22C4
:0E3FD600438910758DFF758B9CD2AFD2AB2244
:03000B0002300FB1
:10300F00C0E0C0F0C083C082C0D075D000C000C087
:0D301F0001C002C003C004C005C006C00708
:10302C00900463E4F0C28D758C3C758AB01240A696
:10303C00900463EFF0900654E004F0E0B40A0B90B7
:10304C000658E004F0900654E4F0900658E0C3945F
:10305C00044002E4F0900656E0B40104A3E004F04E
:10306C00124136BF0114900655E004F0E0D3947879
:0A307C00400812413C900655E4F0B4
:10308600D007D006D005D004D003D002D001D0009E
:0B309600D0D0D082D083D0F0D0E03248
:03001B000235F1BA
:1035F100C0E0C0F0C083C082C0D075D000C000C0A0
:1036010001C002C003C004C005C006C007C28F7557
:103611008DFF758B9C1229E3D007D006D005D0040D
:10362100D003D002D001D000D0D0D082D083D0F04E
:03363100D0E032B4
:05410C00900658E0FFE1
:01411100228B
:06411200900658EFF022B8
:06411800900656EFF022B4
:05411E00900657E0FFD0
:014123002279
:06412400E4900657F022B2
:0B1A480048063C140F09040C220006A5
:04363400E0FD7F8AAC
:10363800D2A0EF54FEFFE4FEEF30E004D2A18002F6
:10364800C2A1D2A2C2A2EFC313FF0EEEB408E9E4EE
:10365800FEED30E004D2A18002C2A1D2A2C2A2ED46
:0A366800C313FD0EEEB408E9C2A082
:013672002235
:10367300D2A0EF4401FFE4FDEF30E004D2A18002C9
:10368300C2A1D2A2C2A2EFC313FF0DEDB408E9E4B5
:10369300FDEEC313FE30A1054480FE8004EE547F8B
:0E36A300FED2A2C2A20DEDB408E7C2A0AF068F
:0136B10022F6
:1030A100E4FF743C2FF582E43406F583E0FE75F00D
:1030B1000A84FDEE75F00A8474442FF582E4340627
:1030C100F583E5F0F0EDC454F0FE74442FF582E48D
:1030D1003406F583E02EF00FEFB408C6E4FD7F8ED1
:1030E1001236387D807F80123638900645E0FD7FAC
:1030F1008C123638A3E0FD7F88123638A3E0FD7FBD
:103101008612363890064B123634900648E0FD7F21
:1031110084123638A3E0FD7F82123638A3E0FD7FAA
:0F31210080123638A31236347D807F8E02363806
:1032C7007F8C123673900645EFF07F88123673A312
:1032D700EFF07F86123673A3EFF07F84123673A365
:1032E700EFF07F82123673A3EFF07F80123673EF11
:1032F700547FA3F07F8A123673A3EFF0E4FF744480
:103307002FF582E43406F583E0FEC4540FFDEE5436
:103317000FFE743C2FF582E43406F583EEF0ED756D
:10332700F00AA4FE743C2FF582E43406F583E02E00
:06333700F00FEFB408C81E
:01333D00226D
:0B400B00C2A0C2A2E4FD7F8002363894
:101A530041062F0041062E004106300041063300A7
:101A630041063A0041062600410625004306370099
:101A73000000420631004642063500784106240044
:101A830041063B0041063400410627004306280077
:081A9300000043062B000000D7
:07409F00D2AFD2A8D28822A3
:0300030002409721
:08409700C2A8208E02D28E3275
:103E6B00E490062FF090062EF0900633F09006307B
:0C3E7B00F090063AF0900625F0A3F0222B
:1029E30030B2059006338003900630E004F0900681
:1029F30026E004F0E0D394A07480948F4007C28E45
:102A0300D2A8023E6B900625E014603F1460751453
:102A13007003022AD224036003022B62900633E080
:102A2300D394004003022B62900630E0FFC390066C
:102A330032E09F900631E094004003022B69900638
:102A430025E004F0E4900633F08034900633E0FF91
:102A5300FD900630E02DFDE433FCC3900636E09D87
:102A6300900635E09C5003022B62EFD39401500390
:102A7300022B6930A802C2A8900625E004F0E49076
:102A83000630F022900630E0D394004013900633D2
:102A9300E090062FF0E4900633F0900625E004F072
:102AA300900631E0FEA3E0FF900636E02FFF90068C
:102AB30035E03EFEEF7803CEC313CE13D8F9FF9073
:102AC3000633E0D39FE49E5003022B69022B6290EE
:102AD3000633E0D39400405C900630E0FF90062E6E
:102AE300F0E4900630F09006257402F090063AE088
:102AF300131313541FFE2437F582E43406F583E0E1
:102B0300FD25E0F090062FE0D39F400E74372EF59D
:102B130082E43406F583E04401F090063AE004F0E1
:102B2300E0D39417400EC28E123E6B9006247401BC
:102B3300F0D2A822900631E0FEA3E0FF900636E033
:102B43002FFF900635E03EFEEF7803CEC313CE137E
:102B5300D8F9FF900630E0D39FE49E40098000122D
:072B63003E6BD2A8C28E22D6
:102E0200900624E064016003022ED2C2A890063428
:102E1200E0146027046003022ECB900637E0900690
:102E220028F0900638E0900629F0900639E09006E6
:102E32002AF09006347401F0022ECB900637E0FFA0
:102E4200900628E06F706A900638E0FE900629E04E
:102E52006E705E900639E0FD90062AE06D7052A316
:102E6200E06F7012A3E06E700DA3E0B50508900646
:102E720027E070208000900637E090062BF0900645
:102E820038E090062CF0900639E090062DF090067E
:102E92003B7401F09006277401F0E4900637F0A32A
:102EA200F0A3F0900628F0A3F0A3F0900634F0808F
:102EB20018900637E0900628F0900638E090062930
:102EC200F0900639E090062AF0D2A8E4900624F0A9
:012ED20022DD
:05412A0090063BE0FFE0
:01412F00226D
:06413000E490063BF022C2
:05413600900627E0FFE8
:01413B002261
:06413C00E4900627F022CA
:102B6A006465636F6465725F76616C2069732025A2
:102B7A0030327820253032782025303278202E0DD8
:102B8A000A0063616C6C2069732025303278202535
:102B9A003032782025303278202E0D0A0063616C9D
:102BAA006C20697320253032782025303278202530
:102BBA0030327820253032782E0D0A0063616C6C31
:102BCA00657220697320726967697374657220730C
:102BDA00756363657373200D0A00686F73742069E7
:102BEA00732025303278202530327820253032780B
:102BFA00202E0D0A00686F73742069732025303205
:102C0A0078202530327820253032782025303278E5
:102C1A002E0D0A00686F73742069732072696769E0
:102C2A00737465722073756363657373200D0A008C
:102C3A00616C61726D2069732025303278202530ED
:102C4A0032782025303278202E0D0A00616C6172AC
:102C5A006D2069732025303278202530327820257E
:102C6A0030327820253032782E0D0A00616C61727C
:102C7A006D20697320726967697374657220737550
:102C8A006363657373200D0A0063616E63656C206C
:102C9A006973202530327820253032782025303269
:102CAA0078202E0D0A0063616E63656C20697320BB
:102CBA002530327820253032782025303278202588
:102CCA003032782E0D0A0063616E63656C20697379
:102CDA0020726967697374657220737563636573BB
:052CEA0073200D0A003B
:0B1A9B0048064C0000000000000000A6
:1009FE00E4900000F0A3F01240A6900000EFF01279
:100A0E004100900001EFF0122E0212412AEF640114
:100A1E006003020F167BFF7A2B796A90062BE0FF9C
:100A2E0090000AE4F0A3EFF090062CE0FF90000C8B
:100A3E00E4F0A3EFF090062DE0FF90000EE4F0A39B
:100A4E00EFF01234B0900000E024CEB4100040035A
:100A5E00020F16900A6F75F003A4C58325F0C583A7
:100A6E0073020A9F020A9F020A9F020A9F020BC488
:100A7E00020BC4020BC4020BC4020CDB020CDB0221
:100A8E000CDB020CDB020DF2020DF2020DF2020D76
:100A9E00F27F351240AC90062DE0540F90064CF0CC
:100AAE009005AAE090064DF09005ABE090064EF052
:100ABE009005ACE090064FF09005ADE0900650F03A
:100ACE0090062BE0900651F090062CE0900652F026
:100ADE00900001E090062DB40103E08003E054F095
:100AEE00900653F07B017A06794C12285640030289
:100AFE000F167BFF7A2B798C900651E0FF90000A3F
:100B0E00E4F0A3EFF0900652E0FF90000CE4F0A3A7
:100B1E00EFF0900653E0FF90000EE4F0A3EFF0121A
:100B2E0034B07BFF7A2B79A79005AAE0FF90000ADC
:100B3E00E4F0A3EFF09005ABE0FF90000CE4F0A31F
:100B4E00EFF09005ACE0FF90000EE4F0A3EFF09014
:100B5E0005ADE0FF900010E4F0A3EFF01234B07B8F
:100B6E00FF7A2B79C61234B0123FC89005ADE064FF
:100B7E0009703D9005ACE06409702F9005ABE0B4B0
:100B8E0009229005AAE004F0E4A3F0A3F09005AAD0
:100B9E00E0B4150AE4F09005AD04F0020F169005CE
:100BAE00AD020EF39005AB020EFB9005AC020F08E2
:100BBE009005AD020F137F391240AC90062DE0FE6A
:100BCE00540F90064CF09005B2E090064DF0900553
:100BDE00B3E090064EF09005B4E090064FF090050D
:100BEE00B5E0900650F090062BE0900651F090067E
:100BFE002CE0900652F0EE54F0A3F07B017A0679C9
:100C0E004C1223854003020F167BFF7A2B79E4905A
:100C1E000651E0FF90000AE4F0A3EFF0900652E0D8
:100C2E00FF90000CE4F0A3EFF0900653E0FF90006D
:100C3E000EE4F0A3EFF01234B07BFF7A2B79FF9025
:100C4E0005B2E0FF90000AE4F0A3EFF09005B3E0E8
:100C5E00FF90000CE4F0A3EFF09005B4E0FF9000DD
:100C6E000EE4F0A3EFF09005B5E0FF900010E4F075
:100C7E00A3EFF01234B07BFF7A2C791E1234B0122F
:100C8E003FC89005B5E06409703D9005B4E0640975
:100C9E00702F9005B3E0B409229005B2E004F0E4A1
:100CAE00A3F0A3F09005B2E0B4150AE4F09005B5F8
:100CBE0004F0020F169005B5020EF39005B3020E66
:100CCE00FB9005B4020F089005B5020F137F3D127D
:100CDE0040AC90062DE0FE540F90064CF09005BBF4
:100CEE00E090064DF09005BCE090064EF09005BDEC
:100CFE00E090064FF09005BEE0900650F090062B67
:100D0E00E0900651F090062CE0900652F0EE54F072
:100D1E00A3F07B017A06794C1225204003020F16B0
:100D2E007BFF7A2C793A900651E0FF90000AE4F0AE
:100D3E00A3EFF0900652E0FF90000CE4F0A3EFF06A
:100D4E00900653E0FF90000EE4F0A3EFF01234B0E3
:100D5E007BFF7A2C79569005BBE0FF90000AE4F0F9
:100D6E00A3EFF09005BCE0FF90000CE4F0A3EFF0D1
:100D7E009005BDE0FF90000EE4F0A3EFF09005BEED
:100D8E00E0FF900010E4F0A3EFF01234B07BFF7A96
:100D9E002C79761234B0123FC89005BEE06409700B
:100DAE003D9005BDE06409702F9005BCE0B40922AA
:100DBE009005BBE004F0E4A3F0A3F09005BBE0B413
:100DCE00150AE4F09005BE04F0020F169005BE025F
:100DDE000EF39005BC020EFB9005BD020F089005A8
:100DEE00B5020F137F411240AC90062DE0FE540F5A
:100DFE0090064CF09005C5E090064DF09005C6E0CB
:100E0E0090064EF09005C7E090064FF09005C8E0B2
:100E1E00900650F090062BE0900651F090062CE0D4
:100E2E00900652F0EE54F0A3F07B017A06794C1244
:100E3E0026BB4003020F167BFF7A2C799390065146
:100E4E00E0FF90000AE4F0A3EFF0900652E0FF906E
:100E5E00000CE4F0A3EFF0900653E0FF90000EE4D8
:100E6E00F0A3EFF01234B07BFF7A2C79B09005C569
:100E7E00E0FF90000AE4F0A3EFF09005C6E0FF90CB
:100E8E00000CE4F0A3EFF09005C7E0FF90000EE435
:100E9E00F0A3EFF09005C8E0FF900010E4F0A3EF90
:100EAE00F01234B07BFF7A2C79D11234B0123FC8D5
:100EBE009005C8E06409704A9005C7E06409703770
:100ECE009005C6E0B409239005C5E004F0E4A3F054
:100EDE00A3F09005C5E0B41509E4F09005C804F040
:100EEE0080269005C87401F0801E9005C6E004F0BF
:100EFE00E4A3F0A3F080119005C7E004F0E4A3F0A2
:0B0F0E0080069005C8E004F0024130AE
:1015B00063616C6C65722072656769737465722013
:1015C0006973206F6C6421200A0D0063616C6C6587
:1015D00072207265676973746572206973206E6525
:1015E0007721200A0D00686F737420726567697334
:1015F000746572206973206F6C6421200A0D006885
:101600006F737420726567697374657220697320E3
:101610006E657721200A0D00616C61726D65722024
:101620007265676973746572206973206F6C6421D9
:10163000200A0D00616C61726D65722072656769C8
:1016400073746572206973206E657721200A0D001E
:1016500063616E63656C657220726567697374653A
:1016600072206973206F6C6421200A0D0063616E23
:1016700063656C6572207265676973746572206951
:1016800073206E657721200A0D0063616C6C6572B2
:101690002069732064656C65746520737563636588
:1016A0007373200D0A0063616C6C20697320253010
:1016B000327820253032782025303278202E0D0ADD
:1016C0000063616C6C2069732025303278202530EE
:1016D0003278202530327820253032782E0D0A00DD
:1016E000686F737465722069732064656C657465D6
:1016F0002073756363657373200D0A00686F7374DC
:10170000206973202530327820253032782025302A
:101710003278202E0D0A00686F73742069732025BB
:10172000303278202530327820253032782025302C
:1017300032782E0D0A00686F737420697320646517
:101740006C6574652073756363657373200D0A009F
:10175000616C61726D65722069732064656C65747B
:10176000652073756363657373200D0A00616C6196
:10177000726D206973202530327820253032782030
:1017800025303278202E0D0A00616C61726D20695F
:101790007320253032782025303278202530327879
:1017A00020253032782E0D0A00616C61726D20693F
:1017B000732064656C65746520737563636573730A
:1017C000200D0A0063616E63656C65722069732089
:1017D00064656C6574652073756363657373200D50
:1017E0000A0063616E63656C20697320253032786E
:1017F00020253032782025303278202E0D0A0063E3
:10180000616E63656C206973202530327820253045
:101810003278202530327820253032782E0D0A009B
:1018200063616E63656C2069732064656C657465C3
:101830002073756363657373200D0A00FFFFFFFF5C
:10184000FFFFFFFFFFFFFFFFFFFFFFFFFFFFFFFFA8
:0C185000FFFFFFFFFFFFFFFFFFFFFFFF98
:101AA600602005DA000000000000000000000000D1
:101AB6000000000000000000000000000000000020
:0F1AC600000000004805FA0000000000000000CA
:0341E000DFFE22DD
:103ECE00AE07AF061EEF600C7FF51241E07FF512D4
:053EDE0041E080EE222E
:103EB800D2B400D2B50000000000C2B40000000077
:063EC80000C2B50000225B
:103F8500C2B400D2B50000000000D2B400000000A9
:013F95002209
:1036B200E4FEEFA806088002C333D8FC30E704D248
:1036C200B48002C2B400D2B50000000000C2B50E40
:1036D200EEB408DE0000D2B40000D2B50000003023
:0C36E200B404C20A8002D20AC2B5000083
:0136EE0022B9
:103C4800E4FFD2B4FE00C2B50000000000D2B50007
:103C580000EF25E0FF30B4010F00000EEEB408E5D8
:043C6800C2B50000E1
:013C6C002235
:103F9600C2B4000000D2B50000000000C2B50000A7
:013FA60022F8
:103FA700D2B4000000D2B50000000000C2B5000086
:013FB70022E7
:10339F00900004E075F020A4ACF07A0579DAFD7B9B
:0933AF0001742090000DF07FA0D4
:1033B800123EB81236B2200A02C322ECFF1236B20D
:1033C800200A02C322AF051236B2200A02C322E441
:1033D800FD90000DE0FFEDC39F5016121BCCFF12AD
:1033E80036B2200A02C322740129F9E43AFA0D80A0
:0533F800E0123F85D347
:0133FD0022AD
:10324A00EF75F020A4FDACF07A0579DA74207B01E1
:06325A0090000DF07FA0C2
:05326000900007EFF0F3
:10326500123EB8E0FF1236B2200A02C322ECFF126A
:1032750036B2200A02C322AF051236B2200A02C3B3
:1032850022123EB8900007E004FF1236B2200A026F
:10329500C322E4FD90000DE014FFEDC39F5014120E
:1032A5003C48EF121C12123F96740129F9E43AFAD0
:1032B5000D80E1123C48EF121C12123FA7123F8508
:0132C500D335
:0132C60022E5
:0B285600900002EBF0A3EAF0A3E9F011
:10286100E4A3F0A3F0900005F0900005E0FFC3940D
:1028710038400302294112324A123FC8E49000064F
:10288100F0900006E0FFC39420400302293874DA77
:102891002FF582E43405F583E0600302292F9000CF
:1028A10005E075F020A4FFA3E07C002FFFEC35F0DC
:1028B100FEEF7803C333CE33CED8F92400FDEE34D6
:1028C10007FC7A0579FA7408123258123FC8900051
:1028D10002E0FBA3E0FAA3E0F9900005121BE5FF7B
:1028E1009005FFE06F7047900006121BE5FF900610
:1028F10000E06F7039900007121BE5FF900601E0C0
:102901006F702B9005FBE09005AAF09005FCE0901C
:1029110005ABF09005FDE09005ACF09005FEE09070
:1029210005ADF07BFF7A1579B01234B0C322900067
:1029310006E004F0022882900005E004F002286A13
:10294100E4900005F0900005E0FFC39420400302ED
:1029510029E112324A123FC8E4900006F0900006C5
:10296100E0FFC39420507074DA2FF582E43405F54A
:1029710083E0605A900005E075F020A4FFA3E07C9D
:10298100002FFFEC35F0FEEF7803C333CE33CED802
:10299100F92400FDEE3407FC900002E0FBA3E0FA0D
:1029A100A3E0F974081233B2123FC8900006E02484
:1029B100DAF582E43405F583E4F09000051233A2E0
:1029C100123FC87BFF7A1579CB1234B0D322900025
:1029D10006E004F002295E900005E004F0022946B9
:0129E100C332
:0129E20022D2
:0B238500900002EBF0A3EAF0A3E9F0E7
:10239000E4A3F0A3F0900005F0900005E0FFC394E3
:1023A00038400302247812324A123FC8E4900006F3
:1023B000F0900006E0FFC39420400302246F74DA1B
:1023C0002FF582E43405F583E06003022466900073
:1023D00005E075F020A4FFA3E07C002FFFEC35F0B2
:1023E000FEEF7803C333CE33CED8F92400FDEE34AC
:1023F00007FC7B017A0579FA90000D7408F07FA044
:10240000123260123FC8900002E0FBA3E0FAA3E0A2
:10241000F9900005121BE5FF9005FFE06F704790F3
:102420000006121BE5FF900600E06F703990000770
:10243000121BE5FF900601E06F702B9005FBE0900A
:1024400005B2F09005FCE09005B3F09005FDE0903A
:1024500005B4F09005FEE09005B5F07BFF7A1579A4
:10246000E61234B0C322900006E004F00223B190DB
:102470000005E004F0022399E4900005F0900005C7
:10248000E0FFC39408400302251E12324A123FC8DF
:10249000E4900006F0900006E0FFC39420507674AC
:1024A000DA2FF582E43405F583E06060900005E002
:1024B00075F020A4FFA3E07C002FFFEC35F0FEEFC9
:1024C0007803C333CE33CED8F92400FDEE3427FC95
:1024D000900002E0FBA3E0FAA3E0F990000D74087D
:1024E000F07FA01233B8123FC8900006E024DAF55E
:1024F00082E43405F583E4F09000051233A2123F24
:10250000C87BFF7A1579FF1234B0D322900006E021
:0F25100004F0022495900005E004F002247DC33E
:01251F002299
:0B252000900002EBF0A3EAF0A3E9F04A
:10252B00E4A3F0A3F0900005F0900005E0FFC39446
:10253B0038400302261312324A123FC8E4900006B9
:10254B00F0900006E0FFC39420400302260A74DAE1
:10255B002FF582E43405F583E06003022601900039
:10256B0005E075F020A4FFA3E07C002FFFEC35F015
:10257B00FEEF7803C333CE33CED8F92400FDEE340F
:10258B0007FC7B017A0579FA90000D7408F07FA0A7
:10259B00123260123FC8900002E0FBA3E0FAA3E006
:1025AB00F9900005121BE5FF9005FFE06F70479057
:1025BB000006121BE5FF900600E06F7039900007D4
:1025CB00121BE5FF900601E06F702B9005FBE0906E
:1025DB0005BBF09005FCE09005BCF09005FDE0908C
:1025EB0005BDF09005FEE09005BEF07BFF7A1679F5
:1025FB00181234B0C322900006E004F002254C9070
:10260B000005E004F0022534E4900005F09000058D
:10261B00E0FFC3940840030226B912324A123FC8A6
:10262B00E4900006F0900006E0FFC394205076740F
:10263B00DA2FF582E43405F583E06060900005E065
:10264B0075F020A4FFA3E07C002FFFEC35F0FEEF2C
:10265B007803C333CE33CED8F92400FDEE342FFCF0
:10266B00900002E0FBA3E0FAA3E0F990000D7408E0
:10267B00F07FA01233B8123FC8900006E024DAF5C1
:10268B0082E43405F583E4F09000051233A2123F87
:10269B00C87BFF7A1679341234B0D322900006E04F
:0F26AB0004F0022630900005E004F0022618C368
:0126BA0022FD
:0B26BB00900002EBF0A3EAF0A3E9F0AE
:1026C600E4A3F0A3F0900005F0900005E0FFC394AA
:1026D6003840030227AE12324A123FC8E490000681
:1026E600F0900006E0FFC3942040030227A574DAA9
:1026F6002FF582E43405F583E0600302279C900001
:1027060005E075F020A4FFA3E07C002FFFEC35F078
:10271600FEEF7803C333CE33CED8F92400FDEE3472
:1027260007FC7B017A0579FA90000D7408F07FA00A
:10273600123260123FC8900002E0FBA3E0FAA3E069
:10274600F9900005121BE5FF9005FFE06F704790BA
:102756000006121BE5FF900600E06F703990000737
:10276600121BE5FF900601E06F702B9005FBE090D1
:1027760005C5F09005FCE09005C6F09005FDE090DB
:1027860005C7F09005FEE09005C8F07BFF7A167944
:10279600501234B0C322900006E004F00226E790FF
:1027A6000005E004F00226CFE4900005F090000555
:1027B600E0FFC39408400302285412324A123FC86D
:1027C600E4900006F0900006E0FFC3942050767473
:1027D600DA2FF582E43405F583E06060900005E0C9
:1027E60075F020A4FFA3E07C002FFFEC35F0FEEF90
:1027F6007803C333CE33CED8F92400FDEE3437FC4C
:10280600900002E0FBA3E0FAA3E0F990000D740843
:10281600F07FA01233B8123FC8900006E024DAF524
:1028260082E43405F583E4F09000051233A2123FEA
:10283600C87BFF7A16796D1234B0D322900006E079
:0F28460004F00227CB900005E004F00227B3C393
:012855002260
:0B21D800900001EBF0A3EAF0A3E9F097
:1021E300E4A3F0A3F0900004F0900004E0FFC39494
:1021F30020400302238312324A123FC8E4900005B1
:10220300F0900005E0FFC394204003022374900084
:1022130001E0FBA3E0FAA3E0F9121BCC70299000C4
:1022230001121BE57021900002121BE5701990004A
:1022330003121BE5701174DA2FF582E43405F5837C
:1022430074FFF0FB022364900005E0FD24DAF582BD
:10225300E43405F583E0600302236B900004E0752A
:10226300F020A47C002DFFEC35F0FEEF7803C333A0
:10227300CE33CED8F92400FDEE3407FC7B017A057A
:1022830079FA90000D7408F07FA0123260123FC8F3
:10229300900001E0FBA3E0FAA3E0F9121BCCFF904E
:1022A30005FBE06F600302236B900001121BE5FF47
:1022B3009005FCE06F600302236B900002121BE5A4
:1022C300FF9005FDE06F600302236B900003121B78
:1022D300E5FF9005FEE06F600302236B900005E0CD
:1022E30024DAF582E43405F58374FFF012339F1288
:1022F3003FC87BFF7A1679A69005FFE0FF90000A9E
:10230300E4F0A3EFF0900600E0FF90000CE4F0A3EC
:10231300EFF0900601E0FF90000EE4F0A3EFF0125F
:1023230034B07BFF7A1679C19005FBE0FF90000A79
:10233300E4F0A3EFF09005FCE0FF90000CE4F0A3C1
:10234300EFF09005FDE0FF90000EE4F0A3EFF090B6
:1023530005FEE0FF900010E4F0A3EFF01234B07B31
:10236300FF7A16798A1234B0900005E004F0022255
:102373000412339F123FC8900004E004F00221ECE2
:01238300D386
:012384002236
:0B1CB300900001EBF0A3EAF0A3E9F0C1
:101CBE00E4A3F0A3F0900004F0900004E0FFC394BE
:101CCE00084003021E6812324A123FC8E490000513
:101CDE00F0900005E0FFC394204003021E569000D2
:101CEE0001E0FBA3E0FAA3E0F9121BCC702D9000EB
:101CFE0001121BE57025900002121BE5701D90006D
:101D0E0003121BE5701574DA2FF582E43405F583A2
:101D1E0074FFF0FB7A1679E0021E4A900005E0FD92
:101D2E0024DAF582E43405F583E06003021E4D905B
:101D3E000004E075F020A47C002DFFEC35F0FEEFE2
:101D4E007803C333CE33CED8F92400FDEE3427FC0E
:101D5E007B017A0579FA90000D7408F07FA012329B
:101D6E0060123FC8900001E0FBA3E0FAA3E0F91275
:101D7E001BCCFF9005FBE06F6003021E4D9000012F
:101D8E00121BE5FF9005FCE06F6003021E4D9000F4
:101D9E0002121BE5FF9005FDE06F6003021E4D90E1
:101DAE000003121BE5FF9005FEE06F6003021E4D5F
:101DBE00900005E024DAF582E43405F58374FFF033
:101DCE009000041233A2123FC87BFF7A1679FC9062
:101DDE0005FFE0FF90000AE4F0A3EFF0900600E0AC
:101DEE00FF90000CE4F0A3EFF0900601E0FF9000EE
:101DFE000EE4F0A3EFF01234B07BFF7A1779179050
:101E0E0005FBE0FF90000AE4F0A3EFF09005FCE084
:101E1E00FF90000CE4F0A3EFF09005FDE0FF9000C2
:101E2E000EE4F0A3EFF09005FEE0FF900010E4F05A
:101E3E00A3EFF01234B07BFF7A1779361234B090DC
:101E4E000005E004F0021CDF9000041233A2123FE2
:0B1E5E00C8900004E004F0021CC7D391
:011E69002256
:0B1E6A00900001EBF0A3EAF0A3E9F008
:101E7500E4A3F0A3F0900004F0900004E0FFC39405
:101E850008400302201F12324A123FC8E4900005A1
:101E9500F0900005E0FFC39420400302200D900060
:101EA50001E0FBA3E0FAA3E0F9121BCC702D900032
:101EB50001121BE57025900002121BE5701D9000B4
:101EC50003121BE5701574DA2FF582E43405F583EA
:101ED50074FFF0FB7A177950022001900005E0FDB0
:101EE50024DAF582E43405F583E0600302200490EA
:101EF5000004E075F020A47C002DFFEC35F0FEEF2A
:101F05007803C333CE33CED8F92400FDEE342FFC4D
:101F15007B017A0579FA90000D7408F07FA01232E2
:101F250060123FC8900001E0FBA3E0FAA3E0F912BC
:101F35001BCCFF9005FBE06F6003022004900001BD
:101F4500121BE5FF9005FCE06F6003022004900082
:101F550002121BE5FF9005FDE06F6003022004906F
:101F65000003121BE5FF9005FEE06F6003022004ED
:101F7500900005E024DAF582E43405F58374FFF07A
:101F85009000041233A2123FC87BFF7A17796D9037
:101F950005FFE0FF90000AE4F0A3EFF0900600E0F3
:101FA500FF90000CE4F0A3EFF0900601E0FF900035
:101FB5000EE4F0A3EFF01234B07BFF7A1779899025
:101FC50005FBE0FF90000AE4F0A3EFF09005FCE0CC
:101FD500FF90000CE4F0A3EFF09005FDE0FF90000A
:101FE5000EE4F0A3EFF09005FEE0FF900010E4F0A2
:101FF500A3EFF01234B07BFF7A1779A91234B090B1
:102005000005E004F0021E969000041233A2123F70
:0B201500C8900004E004F0021E7ED31F
:01202000229D
:0B202100900001EBF0A3EAF0A3E9F04F
:10202C00E4A3F0A3F0900004F0900004E0FFC3944C
:10203C000840030221D612324A123FC8E490000530
:10204C00F0900005E0FFC3942040030221C49000EF
:10205C0001E0FBA3E0FAA3E0F9121BCC702D900079
:10206C0001121BE57025900002121BE5701D9000FB
:10207C0003121BE5701574DA2FF582E43405F58331
:10208C0074FFF0FB7A1779C40221B8900005E0FDCB
:10209C0024DAF582E43405F583E060030221BB9079
:1020AC000004E075F020A47C002DFFEC35F0FEEF71
:1020BC007803C333CE33CED8F92400FDEE3437FC8D
:1020CC007B017A0579FA90000D7408F07FA012322A
:1020DC0060123FC8900001E0FBA3E0FAA3E0F91204
:1020EC001BCCFF9005FBE06F60030221BB9000014D
:1020FC00121BE5FF9005FCE06F60030221BB900012
:10210C0002121BE5FF9005FDE06F60030221BB90FE
:10211C000003121BE5FF9005FEE06F60030221BB7C
:10212C00900005E024DAF582E43405F58374FFF0C1
:10213C009000041233A2123FC87BFF7A1779E29009
:10214C0005FFE0FF90000AE4F0A3EFF0900600E03A
:10215C00FF90000CE4F0A3EFF0900601E0FF90007C
:10216C000EE4F0A3EFF01234B07BFF7A1779FF90F6
:10217C0005FBE0FF90000AE4F0A3EFF09005FCE013
:10218C00FF90000CE4F0A3EFF09005FDE0FF900051
:10219C000EE4F0A3EFF09005FEE0FF900010E4F0E9
:1021AC00A3EFF01234B07BFF7A1879201234B09080
:1021BC000005E004F002204D9000041233A2123FFF
:0B21CC00C8900004E004F0022035D3AE
:0121D70022E5
:1035560078027C067D017BFF7A18793C7E007F200D
:10356600121BA6E4900622F0A3F0900622E0FEA32A
:10357600E0FFC39438EE94005026EF7805C333CEAF
:1035860033CED8F9AC067A0679021233AD123FC8AB
:10359600900623E004F070D2900622E004F080CA80
:0135A6002202
:1031CA000233FEE493A3F8E493A34003F68001F2EA
:1031DA0008DFF48029E493A3F85407240CC8C33306
:1031EA00C4540F4420C8834004F456800146F6DFD5
:1031FA00E4800B010204081020408090185CE47EF1
:10320A00019360BCA3FF543F30E509541FFEE493C9
:10321A00A360010ECF54C025E060A840B8E493A390
:10322A00FAE493A3F8E493A3C8C582C8CAC583CABB
:10323A00F0A3C8C582C8CAC583CADFE9DEE780BE73
:011AD5000010
:101AD600E709F608DFFA8046E709F208DFFA803EF2
:101AE60088828C83E709F0A3DFFA8032E309F608DF
:101AF600DFFA8078E309F208DFFA807088828C8347
:101B0600E309F0A3DFFA806489828A83E0A3F608FA
:101B1600DFFA805889828A83E0A3F208DFFA804CD4
:101B260080D280FA80C680D4806980F280338010AB
:101B360080A680EA809A80A880DA80E280CA803314
:101B460089828A83ECFAE493A3C8C582C8CCC5838C
:101B5600CCF0A3C8C582C8CCC583CCDFE9DEE7805C
:101B66000D89828A83E493A3F608DFF9ECFAA9F0DB
:101B7600EDFB2289828A83ECFAE0A3C8C582C8CC31
:101B8600C583CCF0A3C8C582C8CCC583CCDFEADE4A
:101B9600E880DB89828A83E493A3F208DFF980CCAC
:101BA60088F0EF60010E4E60C388F0ED2402B404A5
:101BB6000050B9F582EB2402B4040050AF2323454C
:061BC6008223901B267330
:101BCC00BB010689828A83E0225002E722BBFE0217
:091BDC00E32289828A83E493224A
:101BE500BB010CE58229F582E5833AF583E02250B5
:101BF50006E92582F8E622BBFE06E92582F8E222FF
:0D1C0500E58229F582E5833AF583E4932218
:101C1200BB010689828A83F0225002F722BBFE01B1
:021C2200F322AB
:101C2400A3F8E0C5F025F0F0E58215827002158373
:061C3400E0C838F0E822D0
:101C3A00D083D082F8E4937012740193700DA3A339
:101C4A0093F8740193F5828883E47374029368604D
:061C5A00EFA3A3A380DF4D
:101C6000D083D082F8E4937012740193700DA3A313
:101C700093F8740193F5828883E473740293B5F04A
:0D1C8000067403936860E9A3A3A3A380D8B2
:061C8D008A838982E473E2
:1035A700900435E0FFA3E0FEA3E0CF90043EF0A334
:1035B700EEF0A3EFF0900438E0CBF0A3E0CAF0A35D
:1035C700E0C9F07F22900441AD82AC83121BCC8D01
:1035D700828C83F0A309E970010ADFEC900438E0DC
:0A35E700FBA3E0FAA3E0F9020F7E57
:100F1900E508243EF582E43404F583E005082290CF
:100F2900043B30070390043EE475F001121C930260
:100F39001BCC2000E97F2ED2008018EF540F24909B
:100F4900D43440D4FF30040BEF24BFB41A0050034B
:100F59002461FFE50960021509050CE50C7002051D
:100F69000B30070E90043BE475F001121C93EF025D
:100F79001C12023C217403D2078003E4C207F5085E
:100F890090043B121CAAE4F509F50BF50CE5096080
:100F9900077F20120F5C80F5750AFFC201C200C2EB
:100FA90002C203C205C206C208120F28FF700D3023
:100FB90007057F00120F6DAF0CAE0B22B4255FC27F
:100FC900D5C204120F28FF24D0B40A00501A75F0B4
:100FD9000A780930D50508B6FF0106C6A426F62009
:100FE900D5047002D20380D924CFB41A00EF50047B
:100FF900C2E5D20402116ED20180C6D20080C0D2ED
:101009000280BCD2D580BAD20580B47F20120F5C91
:101019002002077401B5090040F1120F19FF120FE0
:101029005C020F96D208D2068095120F19FB120F97
:1010390019FA120F19F94A4B7006793F7A127BFF98
:1010490020022EE509602A7E008E82758300121B1C
:10105900E560060EEE650A70F0C2D5EBC0E0EAC0A5
:10106900E0E9C0E0EE1211B5D0E0F9D0E0FAD0E045
:10107900FB121BCCFF60AAEBC0E0EAC0E0E9C0E0CC
:10108900120F5CD0E02401F9D0E03400FAD0E0FB83
:10109900E50A0460DCD50AD980877BFF7A1179B12A
:1010A900D202809C791080027908C206C2088008A1
:1010B900D2D5790A8004790AC2D5E50A047002F505
:1010C9000AE4FAFDFEFF120F19FC7B082001131236
:1010D9000F19FD7B1030000A120F19FE120F19FFAC
:1010E9007B20EC3382D592D55013C3E43000069FA0
:1010F900FFE49EFEE42001039DFDE49CFCE4CBF8A3
:10110900C201EC700CCFCECDCCE824F8F870F38096
:1011190017C3EF33FFEE33FEED33FDEC33FCEB3356
:10112900FB994002FB0FD8E9EB300105F8D0E0C488
:1011390048B201C0E00AEC4D4E4F78207B0070C2E6
:10114900EAB50A0040BCC0E01211B7D0F0D0E020E7
:101159000104C4C0E0C4B201C0F0120F45D0F0D5FB
:10116900F0EB020F96121C3A10335310AD581004CD
:101179004C10004210B14F10B94410B9491019432D
:0811890010BF5510A34610A38E
:101191004510A347125F5010082D100C2E102F2B55
:1011A100101023102D2012482A0FC84800001027C4
:1011B1003F3F3F00790AA2D5200314300509B91039
:1011C100020404B9080104A2D5200602500104203A
:1011D10002689202B509005034C0E07F2030031943
:1011E1007F30A20272067205500F12120EC202C2A5
:1011F10006C205C2087F30800F300503E9C0E01246
:101201000F5C300503D0E0F9D0E0B509CC3005170B
:101211007F30B9100C120F5C7F583004077F788043
:1012210003B90803120F5C3002057F2D020F5C7FAA
:10123100202008F87F2B2006F322920280CF286E0F
:10124100756C6C2900D201120F193001F8C20178B6
:101251000930D50108F6020FC82D50434958120F25
:10126100192403B405004001E490125A93120F4D62
:0D127100743A120F4DD2037509040210AD3E
:101C9300F8E0FBA3A3E0F925F0F0E58215827002DA
:071CA3001583E0FA38F0227E
:091CAA00EBF0A3EAF0A3E9F0223B
:103C2100EFB40A07740D123C2C740A309811A8994C
:103C3100B8130CC2983098FDA899C298B811F63003
:073C410099FDC299F59922DB
:00000001FF
