:0300000002567B2A
:0C567B00787FE4F6D8FD7581210256C24C
:105FF900126526125B4B126AD3126AFF126BD41216
:106009006B2E126919126AE375B10CE4F5B27F7B44
:0F601900FE125F9C1235B3120EA612004680F8DD
:106AC3004F4B535049005350494F4B0053504900CB
:101ACE004105D0004405D2000000004105CF004181
:101ADE0005D6004105D1004305CCFF6AC34305C9B5
:091AEE00FF6AC94305D7FF6ACF66
:03002300026786EB
:06678600C0E0C083C082E8
:10678C00900537E4F0309802C298309904C299C24F
:01679C0009F3
:07679D00D082D083D0E0326E
:030043000257075A
:0D570700C0E0C0F0C083C082C0D075D008E3
:10571400E4FFE59A30E063539AFEAF9B9005D0E036
:105724006401702EA3E0FEB401139005CFE0FD04E4
:10573400F074D22DF582E43405F583EFF0EFB45321
:1057440011EE700E9005D104F09005CFF09005D2C3
:10575400EFF09005CFE0B40321A3E4F0A3F078D2F6
:105764007C057D019005D7E0FBA3E0FAA3E0F912E4
:10577400243AEF70059005D604F0E59A30E105531C
:045784009AFDC209BF
:0B578800D0D0D082D083D0F0D0E0322F
:096B39002009FDEFD209F59922B3
:105F300090061BEBF0A3EAF0A3E9F090061BE0FB50
:105F4000A3E0FAA3E0F91220FF601790061BA3E478
:105F500075F0011221E0A9F0FA1220FFFF126B394F
:035F600080D922C3
:096B42002009FDEFD209F59B22A8
:105F630090061EEBF0A3EAF0A3E9F090061EE0FB17
:105F7300A3E0FAA3E0F91220FF601790061EA3E442
:105F830075F0011221E0A9F0FA1220FFFF126B4213
:035F930080D92290
:10652600E5A2543FF5A253BAFE759850759A507578
:10653600D7C875D6FE758E14438E01D2AC75AF01E1
:03654600D2AF22AF
:0B59FD00900391EBF0A3EAF0A3E9F0A7
:105A08009003BC7401F0A37403F0A37494F09003A2
:105A180091E0F9A3E0FAA3E0900615C9F0A3EAF033
:105A2800A3E9F09003BCE0F9A3E0FAA3E09006181C
:105A3800C9F0A3EAF0A3E9F07B017A0379BF125C0D
:0A5A48008B7B017A0379BF025F3007
:102854000000000000FF663E01020E0F00FF0006AC
:102864000203011500FF67080304021900FF67A4AF
:102874000405031D00FF67C20506041F00FF67E08F
:102884000607052000FF67FE0708062100FF681CF5
:102894000809072600FF683A090A082A00FF685851
:1028A4000A0B092C00FF68760B0C0A0B00FF001EB4
:1028B4000C0D0B0C00FF6CFB0D0E0C0D00FF6D00DE
:1028C4000E010D0E00FF000E0F0F0F1001FF5D9B98
:1028D4001010101101FF60D21111111201FF60FAE2
:1028E4001212121301FF64DE1313131401FF6502A5
:1028F4001414140F01FF61221516183502FF69EE36
:102904001617153902FF6A001718163D02FF6A12DE
:102914001815174102FF6A24191A1C4503FF6A3669
:102924001A1B194903FF6A481B1C1A4D03FF6A5AF4
:102934001C191B5103FF6A6C1D1E1E5204FF6D05FA
:102944001E1D1D5304FF6D0A1F1F1F1F05FF6B541F
:102954002020202006FF6B5C2122625407FF6D0FAC
:102964002223215507FF6D142324225607FF6D19D6
:102974002425235707FF6D1E2560245807FF6D2368
:102984002627295908FF6D282728265A08FF6D2D68
:102994002829275B08FF6D322926285C08FF6D373C
:1029A4002A2B2B5D09FF6AF12B2A2A5E09FF6D3C55
:1029B4002C2D2D000AFF6D412D2C2C000AFF6D4695
:1029C4002E2E2E000BFF68CD2F2F2F000CFF6B64D3
:1029D400303030000DFF6B6C313131000EFF5BED98
:1029E4003232323515FF66603333333215FF002639
:1029F4003434343315FF66823535353415FF66A417
:102A04003636363916FF614A3737373616FF654989
:102A14003838383716FF61723939393816FF619AF8
:102A24003A3A3A3D17FF61C23B3B3B3A17FF656CAC
:102A34003C3C3C3B17FF61EA3D3D3D3C17FF6212C5
:102A44003E3E3E4118FF623A3F3F3F3E18FF658FCE
:102A54004040403F18FF62624141414018FF628A92
:102A64004242424519FF62B24343434219FF65B2F1
:102A74004444444319FF62DA4545454419FF63025F
:102A8400464646491AFF632A474747461AFF65D513
:102A9400484848471AFF6352494949481AFF637A2C
:102AA4004A4A4A4D1BFF63A24B4B4B4A1BFF65F836
:102AB4004C4C4C4B1BFF63CA4D4D4D4C1BFF63F2FA
:102AC4004E4E4E511CFF641A4F4F4F4E1CFF661B57
:102AD4005050504F1CFF6442515151501CFF646AC6
:102AE400525252521DFF6B74535353531EFF6B7C4F
:102AF4005454545421FF6B845555555522FF6B8C07
:102B04005656565623FF6B945757575724FF6894CD
:102B14005858585825FF6B9C5959595926FF6A7EB5
:102B24005A5A5A5A27FF6BA45B5B5B5B28FF6BAC5A
:102B34005C5C5C5C29FF6BB45D5D5D5D2AFF5E518E
:102B44005E5E5E5E2BFF5EC55F5F5F5F5FFF66C6B6
:102B54006062256107FF6D4B6161616160FF6BBC61
:102B64006221606307FF6D506363636362FF6BC43C
:101AF70041053C0041056E0041053D00450541009B
:101B07000000010045054B00000001004505560097
:101B17000000010045056200000001004505460080
:101B270000000100450551000000010045055D006A
:101B37000000010045056800000001004105500153
:101B470041055C0141055B004105670041056D00EA
:101B5700410570024105730041057606410578038A
:101B67004105790141057A0041056F0B4105720076
:101B77004105750041057700410571024105740073
:0C1B870041053A0141057B0141053B018D
:1052F600E49004C2F0A3F043903CE590543C643C37
:105306007003025391126AE3E590543C643C607B5F
:10531600126C8FE590543CFF9004C2E4F0A3EFF0CA
:105326009004C2E07004A3E064387008126C7D7FBC
:1053360001126C71E590543CFFBF3CF8126AE3E53C
:1053460090543CFFBF3CF8E4FF126C71E4FF126C12
:105356008990053DE0645E6023126C1DEF6011903C
:10536600053DE0D3940E40047F0180067F00800255
:105376007F01EF60077F787E00125E8B90053C749C
:0F53860001F09004C2E0FEA3E0FF227E0F7FFF44
:0153950022F5
:104C2000E49004C0F0A3F0FF1252F69004C0EEF03E
:104C3000A3EFF0126CE39004C0E0640F7003A3E0F4
:104C4000F46003024CFAEF64016003024CFA900531
:104C50003DE0FF601C640B6018EF640C6013EF64B0
:104C60000D600EEF640E6009EF642D6004EFB42C4C
:104C70002A9005B2E0540FFFBF080890056EE004CB
:104C8000F08005E490056EF090056EE0D39403404B
:104C90000A7F14126C95E490056EF0126CE9900591
:104CA000B2E0540F24FE601B24FE602624FC603119
:104CB00024077046126CA7EF70409004C0F0A374F4
:104CC0001C8031126CA7EF70319004C0F0A37434D3
:104CD0008022126CA7EF70229004C0F0A3742C8085
:104CE00013126CA1EF7013126CA7EF700D9004C03B
:104CF000F0A37438F07F05126CAD9004C0E0FEA301
:104D0000E0FFEE701DEF24D4601224F8600B24FC49
:104D1000600D241C700C7F03227F02227F01227F02
:044D200000227FFFEF
:014D2400226C
:100EA600E4FF9004BFF0124C20EF14700302119C73
:100EB60014700302165214700302117624036003A1
:100EC600021AA0126C5FEF700690053DE0601212E8
:100ED6006C5FEF6401702290053DE0FF6003B45F34
:100EE60018126C779004BFEFF0C394145003021AE3
:100EF600A090053D740202104990053DE0FF644252
:100F0600600FEF6443600AEF64446005EF64457068
:100F16002D126C779004BFEFF0C3940A40657B01F5
:100F26007A057946124B164057126C4DBF010C7F5D
:100F3600797E00125F9CE4FF126C53021014900538
:100F46003DE0FF6446600FEF6447600AEF64486067
:100F560005EF64497030126C779004BFEFF0C394CC
:100F66000A40207B017A0579511247C04012126C63
:100F76004DBF010C7F797E00125F9CE4FF126C531B
:100F860002101402101A90053DE0FF644A600FEF4C
:100F9600644B600AEF644C6005EF644D702E126C72
:100FA600779004BFEFF0C3940A401F7B017A05795E
:100FB6005D1244444012126C4DBF010C7F797E00D5
:100FC600125F9CE4FF126C538044804890053DE01C
:100FD600FF644E600FEF644F600AEF64506005EFE8
:100FE60064517043126C779004BFEFF0C3940A40CB
:100FF600237B017A05796812456F4012126C4DBF4A
:10100600010C7F797E00125F9CE4FF126C53126A1A
:10101600E302117090053DE075F008A42457F582AF
:10102600E5F03428021A9890053DE0B40B1E126CC8
:10103600779004BFEFF0C394145003021AA09005F2
:101046003D742EF07F06126B2302117090053DE071
:10105600B40C1E126C779004BFEFF0C394145003C7
:10106600021AA090053D742FF07F06126B23021121
:101076007090053DE0B40D1E126C779004BFEFF042
:10108600C394145003021AA090053D7430F07F06F5
:10109600126B2302117090053DE0B40E1E126C77A0
:1010A6009004BFEFF0C394145003021AA090053DBC
:1010B6007431F07F06126B2302117090053DE0B487
:1010C6002D28126C779004BFEFF0C39414500302DE
:1010D6001AA07F797E00125F9C125AFA12555C752F
:1010E600C7207F06126B2302117090053DE0642C29
:1010F6007060126C779004BFEFF0C3941450030233
:101106001AA07F797E00125F9C125AFA125E15129F
:10111600555C7B017A0379769005017410F07D2089
:101126007C157FA0125A61126AE37B017A00794628
:101136009005017410F07D307C157FA0125A611263
:101146006AE3125948126AE375C7207F06126B23B9
:10115600801890053DE075F008A42457F582E5F067
:101166003428F583E49390053DF0126C7D021AA0B5
:1011760090053DE0B45F0C126C5FEF6006125436CA
:10118600021AA090053DE075F008A42458F582E502
:10119600F03428021A9890053DE012229012550F5D
:1011A60012671012771112871212971312A91415CB
:1011B6001A1F152C20160E2F15FD3012BB3212CD1C
:1011C6003312DF3412F1351303361315371327386C
:1011D600133939134B3A135D3B136F3C13813D139F
:1011E600933E13A53F13B74013C94113DB4213EDDA
:1011F6004313FF4414114514234614354714474836
:10120600145949146B4A147D4B148F4C14A14D1478
:10121600B34E14C54F14D75014E95114FA52150A97
:1012260053153E5415505515605615735715845869
:1012360015955915A65A15B75B15C75C15D75D15D3
:10124600E55E15F85F161E61162E630000163F90C8
:1012560005DBE0B46305E4F002163F9005DB0215FA
:10126600F39005DCE0B40C030215119005DC0215C1
:10127600F39005DDE0B41F030215119005DD02159C
:10128600F39005E1E0B407030215119005E102159C
:10129600F39005DEE0B41705E4F002163F9005DE94
:1012A6000215F39005DFE0B43B05E4F002163F902B
:1012B60005DF0215F3900541E0B41405E4F00216CB
:1012C6003F9005410215F3900542E0B40905E4F0AC
:1012D60002163F9005420215F3900543E0B4090556
:1012E600E4F002163F9005430215F3900544E0B47E
:1012F6000905E4F002163F9005440215F390054BEC
:10130600E0B41405E4F002163F90054B0215F39085
:10131600054CE0B40905E4F002163F90054C0215B1
:10132600F390054DE0B40905E4F002163F90054D33
:101336000215F390054EE0B40905E4F002163F905D
:10134600054E0215F3900556E0B41405E4F00216B6
:101356003F9005560215F3900557E0B40905E4F0F1
:1013660002163F9005570215F3900558E0B409059B
:10137600E4F002163F9005580215F3900559E0B4C3
:101386000905E4F002163F9005590215F39005622F
:10139600E0B41405E4F002163F9005620215F390DE
:1013A6000563E0B40905E4F002163F9005630215F3
:1013B600F3900564E0B40905E4F002163F90056475
:1013C6000215F3900565E0B40905E4F002163F90B6
:1013D60005650215F3900546E0B41405E4F002161F
:1013E6003F9005460215F3900547E0B40905E4F081
:1013F60002163F9005470215F3900548E0B409052B
:10140600E4F002163F9005480215F3900549E0B452
:101416000905E4F002163F9005490215F3900551BF
:10142600E0B41405E4F002163F9005510215F3905E
:101436000552E0B40905E4F002163F900552021584
:10144600F3900553E0B40905E4F002163F90055306
:101456000215F3900554E0B40905E4F002163F9036
:1014660005540215F390055DE0B41405E4F0021688
:101476003F90055D0215F390055EE0B40905E4F0C2
:1014860002163F90055E0215F390055FE0B409056C
:10149600E4F002163F90055F0215F3900560E0B494
:1014A6000905E4F002163F9005600215F390056801
:1014B600E0B41405E4F002163F9005680215F390B7
:1014C6000569E0B40905E4F002163F9005690215C6
:1014D600F390056AE0B40905E4F002163F90056A48
:1014E6000215F390056BE0B40904E4F0800690055C
:1014F6006BE004F0900550E0B40103021604900579
:101506005002163C90055CE0B4630302163C90055D
:101516005C0215F390055BE0B46305E4F002163F48
:1015260090055B0215F3900567E0B46305E4F002ED
:10153600163F9005670215F390056DE0B40705E4C4
:10154600F002163F90056D0215F3900570E0B409A0
:101556000302163C9005700215F3900573E07005C2
:1015660004F002163FE4900573F002163F900576EC
:10157600E0B40905E4F002163F900576806F900509
:1015860078E0B40705E4F002163F900578805E9097
:10159600056FE0B40A05E4F002163F90056F804D32
:1015A600900572E0B40B05E4F002163F90057280D8
:1015B6003C900575E0B40B04E4F0807D90057580E1
:1015C6002C900577E0B40B04E4F0806D90057780ED
:1015D6001C900571E0B4010280249005718057903B
:1015E6000574E0B42604E4F0804F900574E004F03E
:1015F600804712523E804290057BE0B4010574029A
:10160600F0803690057B802E90053AE0B40104E424
:10161600F0802690053A801E900579E0B40104E436
:10162600F08016900579800E90057AE0B40104E406
:10163600F0800690057A7401F090053DE075F0089B
:10164600A42455F582E5F03428021A9890053DE069
:10165600122290170B0F171A10172D111740121779
:10166600501317621419731F1981201A572F1A461F
:101676003017743217833317923417A13517B036E3
:1016860017BF3717CE3817DD3917EC3A17FB3B185B
:101696000A3C18193D18283E18373F184640185579
:1016A6004118644218734318824418914518A0469D
:1016B60018AE4718BD4818CC4918DB4A18E94B182C
:1016C600F84C19074D19164E19284F193750194657
:1016D6005119545219645319935419A15519B056F6
:1016E60019C35719D45819E55919F65A1A035B1A2A
:1016F600105C1A205D1A2E5E1A415F1A67611A770E
:101706006300001A889005DBE070030219879005D4
:10171600DB021A3C9005DCE0B40106740CF0021AF8
:10172600889005DC021A3C9005DDE0B40106741FC2
:10173600F0021A889005DD021A3C9005E1E0B4013A
:10174600030219DA9005E1021A3C9005DEE0700604
:101756007417F0021A889005DE021A3C9005DFE045
:101766007006743BF0021A889005DF021A3C900559
:1017760041E0700302191C900541021A3C90054293
:10178600E070030219C9900542021A3C900543E035
:1017960070030219C9900543021A3C900544E07093
:1017A600030219C9900544021A3C90054BE07003E8
:1017B60002191C90054B021A3C90054CE07003027E
:1017C60019C990054C021A3C90054DE070030219A8
:1017D600C990054D021A3C90054EE070030219C9E6
:1017E60090054E021A3C900556E0700302191C90B3
:1017F6000556021A3C900557E070030219C9900578
:1018060057021A3C900558E070030219C990055812
:10181600021A3C900559E070030219C99005590255
:101826001A3C900562E0700302191C900562021AC8
:101836003C900563E070030219C9900563021A3CE7
:10184600900564E070030219C9900564021A3C9081
:101856000565E070030219C9900565021A3C9005FA
:1018660046E0700302191C900546021A3C90054793
:10187600E070030219C9900547021A3C900548E03A
:1018860070030219C9900548021A3C900549E07098
:10189600030219C9900549021A3C900551E07002ED
:1018A6008074900551021A3C900552E070030219AB
:1018B600C9900552021A3C900553E070030219C9FB
:1018C600900553021A3C900554E070030219C99022
:1018D6000554021A3C90055DE07002803990055D62
:1018E600021A3C90055EE070030219C990055E027B
:1018F6001A3C90055FE070030219C990055F021A51
:101906003C900560E070030219C9900560021A3C1C
:10191600900568E070067414F0021A889005680253
:101926001A3C900569E070030219C9900569021A0C
:101936003C90056AE070030219C990056A021A3CD8
:1019460090056BE07002807B90056B021A3C900557
:1019560050E0B40103021A4D900550021A85900515
:101966005CE0B40102801A90055C021A3C90055BAB
:10197600E07002800C90055B021A3C900567E070EF
:10198600067463F0021A88900567021A3C90056D8A
:10199600E07002803F90056D021A3C900570E0B43D
:1019A6000102801F900570021A3C900573E07005D5
:1019B60004F0021A88E4900573F0021A88900576FE
:1019C600E070067409F0021A889005768068900522
:1019D60078E070067407F0021A88900578805790B0
:1019E600056FE07006740AF0021A8890056F80464B
:1019F600900572E070028018900572803990057526
:101A0600E07002800B900575802C900577E07005DC
:101A1600740BF0806D900577801C900571E0B40121
:101A26000280249005718057900574E07005742635
:101A3600F0804F900574E014F08047124D258042E7
:101A460090057BE0B401057402F0803690057B803A
:101A56002E90053AE0B40104E4F0802690053A8021
:101A66001E900579E0B40104E4F0801690057980B3
:101A76000E90057AE0B40104E4F0800690057A74CD
:101A860001F090053DE075F008A42456F582E5F0D6
:101A96003428F583E49390053DF012555C90053D9E
:101AA600E075F008A42459F582E5F03428F583E4BE
:101AB60093FB740193FA740293F990053EEBF0A33D
:081AC600EAF0A3E9F00222B6E8
:0D6AE3007F047E347DDCDDFEDEFADFF60090
:016AF0002283
:056BDB0090053DE0FF04
:016BE0002292
:066BE10090053DEFF022DB
:056BE700900550E0FFE5
:016BEC002286
:056BED0090055CE0FFD3
:016BF2002280
:056BF30090055BE0FFCE
:016BF800227A
:056BF900900567E0FFBC
:016BFE002274
:056BFF0090056DE0FFB0
:016C0400226D
:056C0500900570E0FFA6
:016C0A002267
:056C0B00900573E0FF9D
:016C10002261
:056C1100900576E0FF94
:016C1600225B
:056C1700900578E0FF8C
:016C1C002255
:056C1D00900579E0FF85
:016C2200224F
:056C230090057AE0FF7E
:016C28002249
:056C290090056FE0FF83
:016C2E002243
:056C2F00900572E0FF7A
:016C3400223D
:056C3500900575E0FF71
:016C3A002237
:056C3B00900577E0FF69
:016C40002231
:056C4100900571E0FF69
:016C4600222B
:056C4700900574E0FF60
:016C4C002225
:056C4D0090053CE0FF92
:016C5200221F
:066C530090053CEFF02269
:056C590090057BE0FF47
:016C5E002213
:056C5F0090053AE0FF82
:016C6400220D
:10555C00900550E09005EAF090055CE09005EBF0CA
:10556C0090055BE09005ECF0900567E09005EDF0A0
:10557C0090056DE09005EEF0900570E09005EFF071
:10558C00900573E09005F0F0900576E09005F1F051
:10559C00900578E09005F2F0900579E09005F3F035
:1055AC0090057AE09005F4F090056FE09005F5F029
:1055BC00900571E09005F6F090053AE09005F7F053
:1055CC0090057BE09005F8F07B017A0579EA90056F
:1055DC0001740FF07D407C157FA0125A61026AE3C2
:1035B3007B017A0379769005367410F07D207C15B3
:1035C3007FA0125819126AE37B017A0079469005AD
:1035D300367410F07D307C157FA0125819126AE3FF
:1035E3007B017A0579EA900536740FF07D407C15EE
:1035F3007FA0125819126AE39005EAE0FF90055084
:10360300F09005EBE090055CF09005ECE090055B35
:10361300F09005EDE0900567F09005EEE090056D04
:10362300F09005EFE0900570F09005F0E0900573E1
:10363300F09005F1E0900576F09005F2E0900578C2
:10364300F09005F3E0900579F09005F4E090057AA9
:10365300F09005F5E090056FF09005F6E0900571A8
:10366300F09005F7E090053AF09005F8E090057BBF
:10367300F0EFD3940240069005507401F09005EBEF
:10368300E0D39463400690055C7401F09005ECE090
:10369300D39463400690055B7401F09005EDE0D38D
:1036A300946340069005677401F09005EEE0D394AF
:1036B300074005E490056DF09005EFE0D3940940D1
:1036C300069005707402F09005F0E0D39401400574
:1036D300E4900573F09005F1E0D39409400690055A
:1036E300767406F09005F2E0D394074006900578CF
:1036F3007403F09005F3E0D394014005E490057959
:10370300F09005F4E0D394014005E490057AF0903D
:1037130005F5E0D3940A400690056F740AF090050E
:10372300F6E0D3940240069005717402F09005F719
:10373300E0D39401400690053A7401F09005F8E057
:0C374300D39402400690057B7401F02234
:105AFA009005507401F090055CF0E490055BF0901D
:105B0A000567F090056DF09005707402F0E4900559
:105B1A0073F09005767406F09005787403F0A37418
:105B2A0001F090056F740AF0E4900572F090057523
:105B3A00F0900577F09005717402F0E4900574F026
:015B4A002238
:105E15007F109003767401F0A3DFFC9000467401B7
:105E2500F0E4A3F0A37403F0A37405F0A37402F0E7
:105E3500A314F0A3F0A37406F0A37401F0A3F0A3D8
:0B5E4500F0A3F0A3F0A3F0A3F0A3F083
:015E5000222F
:106728000000000000000000000000000000000061
:106738000000000000000000000000000000000051
:101B93005500313F065B4F666D7D077F6F777C395C
:101BA3005E797176385C733E48038601020408103F
:101BB30020408042038E400060300001000000009E
:101BC3000000000000000000000000000000000012
:101BD3000000000000000000000000000000000002
:101BE3000000000000000000000000006320005619
:101BF30000000000000000000000000000000000E2
:101C030000000000000000000000000000000000D1
:101C130000000000000000000000000000000000C1
:101C230000000000000000000000000000000000B1
:101F130041000000410390005003760101010101DB
:101F2300010101010101010101010150004601000C
:0E1F3300030502010106010101010101010186
:10602800C282E4FDFCC280EF30E004D2818002C26B
:106038008100000000D280EFC313FF0DBD00010CEA
:0A604800ED64084C70DFC280C281D5
:01605200222B
:10605300C283E4FDFCC280EF30E004D2818002C23F
:106063008100000000D280EFC313FF0DBD00010CBF
:0A607300ED64084C70DFC280C281AA
:01607D002200
:10607E00C2CCE4FDFCC280EF30E004D2818002C2CB
:10608E008100000000D280EFC313FF0DBD00010C94
:0A609E00ED64084C70DFC280C2817F
:0160A80022D5
:09694900AE077F401269527FC0C5
:0D695200D282000000000000C28202602816
:0C68E700126952D2827F401268F37FC019
:0D68F300D283000000000000C28302605349
:0C6900001268F3D2837F4012690C7FC044
:0D690C00D2CC000000000000C2CC02607E72
:0554CA00E4900003F076
:1054CF00126C17126949E4FB74012BF582E4340066
:1054DF00F583E0FF12602874092BF582E43400F5A0
:1054EF0083E0FF1260280BEBB408DDEE2488FF1277
:1054FF0068E7E4FB74112BF582E43400F583E0FFD9
:10550F0012605374192BF582E43400F583E0FF1217
:10551F0060530BEBB408DDEE2488FF126900E4FB47
:10552F0074212BF582E43400F583E0FF12607E7462
:10553F00292BF582E43400F583E0FF12607E0BEB3C
:0C554F00B408DDEE2488FF12690CD2CCF9
:01555B00222D
:105CD500126949E4FBAF06126028AF061260280B73
:105CE500EBB408F17F8F1268E7E4FBAF061260534F
:105CF500AF061260530BEBB408F17F8F126900E415
:105D0500FBAF0612607EAF0612607E0BEBB408F1A6
:075D15007F8F12690CD2CC54
:015D1C002264
:105B4B00E49004BFF0E4FFE4FE9004BFE02486F58C
:105B5B0082E43403F583E0FDEF75F008A42401F52E
:105B6B0082E43400F583E5822EF582E43583F583F8
:105B7B00EDF00EEEB408D20FEFB406CB1254CF7F7C
:105B8B001E1269DC9004BFE004F0E0C3940840B53A
:015B9B0022E7
:1069DC00EFD39400400B7EFF7DFFDDFEDEFA1F80BF
:0169EC00EFBB
:0169ED002287
:1060A900E4FFE4FEEF75F008A42401F582E434006E
:1060B900F583E5822EF582E43583F583E4F00EEE6F
:0860C900B408E10FEFB406DAA0
:0160D10022AC
:0A6B0D007F78900056E4F0A3DFFC4F
:016B1700225B
:105EFB00E4FF126C65EF6401702A1260A990000038
:105F0B00E05403FF2401F582E43400F5837440F080
:105F1B001254CFE4FF126C6B900000E004F0E0B47D
:045F2B000402E4F098
:015F2F00224F
:104A03001260A9125793900033E0900010F09000C9
:104A130031E090000FF09005DBE0FF75F00A84248D
:104A230031F582E43400F583E090000EF0EF75F089
:104A33000A84743125F0F582E43400F583E09000B4
:104A43000DF090000C7440F09005DCE0FF75F00A67
:104A5300842431F582E43400F583E090000BF0EF19
:104A630075F00A84743125F0F582E43400F583E0AF
:104A730090000AF09000097440F09005DDE0FF75A6
:104A8300F00A842431F582E43400F583E0900008D1
:104A9300F0EF75F00A84743125F0F582E43400F503
:104AA30083E0900007F09005E1E02431F582E434DF
:104AB30000F583E0900006F09005DEE0FF75F00A54
:104AC300842431F582E43400F583E0900004F0EFB0
:104AD30075F00A84743125F0F582E43400F583E03F
:104AE300900003F09005DFE0FF75F00A842431F5B0
:104AF30082E43400F583E0900002F0EF75F00A845D
:104B0300743125F0F582E43400F583E0900001F080
:034B13000254CF7A
:10674800AD071260A9900040E0900002F074312D6E
:0F675800F582E43400F583E0900001F00254CFA5
:10676700AD071260A990003FE0900002F074312D50
:0F677700F582E43400F583E0900001F00254CF86
:1069A0001260A9900031E0900002F090000174376D
:0469B000F00254CFCE
:10695F001260A9900031E0900002F0900040E090AA
:06696F000001F00254CF0C
:10693200AD071260A974312DF582E43400F583E0CD
:07694200900001F00254CFA8
:105FC900AD071260A9ED75F00A842431F582E43435
:105FD90000F583E0900002F0ED75F00A8474312534
:105FE900F0F582E43400F583E0900001F00254CF2B
:1058E900AB07AA061260A97C007D64AF03AE021261
:1058F900218B74312FF58274003EF583E09000030B
:10590900F07C007D0AAF03AE0212218B7C007D0A78
:1059190012218B74312DF58274003CF583E09000DF
:1059290002F0AE02AF037C007D0A12218B74312D87
:0F593900F58274003CF583E0900001F00254CF3A
:0659A4007B017A05794148
:1059AA001260A91220FF2431F582E43400F583E065
:1059BA00900004F09000011221182431F582E43499
:1059CA0000F583E0900003F09000021221182431C0
:1059DA00F582E43400F583E0900002F090000312AF
:1059EA0021182431F582E43400F583E0900001F0B7
:0359FA000254CF85
:103A3B001260A99000A6E060179004FB7401F0A33C
:103A4B007400F0A374A6F07B017A00793012304B2E
:103A5B0090009EE060179004FB7401F0A37400F0DB
:103A6B00A3749EF07B017A00792C12304B90009658
:103A7B00E060179004FB7401F0A37400F0A374963C
:103A8B00F07B017A00792812304B90008EE06017A2
:103A9B009004FB7401F0A37400F0A3748EF07B010F
:103AAB007A00792412304B900086E060179004FB6B
:103ABB007401F0A37400F0A37486F07B017A007993
:103ACB002012304B90007EE060179004FB7401F0E5
:103ADB00A37400F0A3747EF07B017A00791C123082
:103AEB004B900076E060179004FB7401F0A3740018
:103AFB00F0A37476F07B017A00791812304B9000AA
:103B0B006EE060179004FB7401F0A37400F0A374D3
:103B1B006EF07B017A00791412304B900066E060F6
:103B2B00179004FB7401F0A37400F0A37466F07B90
:103B3B00017A00791012304B90005EE06017900410
:103B4B00FB7401F0A37400F0A3745EF07B017A00A8
:103B5B00790C12304B900056E060179004FB740107
:103B6B00F0A37400F0A37456F07B017A0079041271
:103B7B00304B900607E0FF75F00A842431F582E4A0
:103B8B003400F583E0900006F0EF75F00A84743191
:0F3B9B0025F0F582E43400F583E0900005F02278
:10304B009004F8EBF0A3EAF0A3E9F0A3E0FBA3E014
:10305B00FAA3E0F99000011221182431F582E4342F
:10306B0000F583E0FF9004F8E0FBA3E0FAA3E0F99E
:10307B00EF1221459004FBE0FBA3E0FAA3E0F990EB
:10308B0000021221182431F582E43400F583E0FFAD
:10309B009004F8E0FBA3E0FAA3E0F990FFFFEF1236
:1030AB0021579004FBE0FBA3E0FAA3E0F9900003A7
:1030BB001221182431F582E43400F583E0FF9004EB
:1030CB00F8E0FBA3E0FAA3E0F990FFFEEF12215723
:1030DB009004FBE0FBA3E0FAA3E0F99000041221BB
:1030EB00182431F582E43400F583E0FF9004F8E016
:1030FB00FBA3E0FAA3E0F990FFFDEF122157900438
:10310B00FBE0FBA3E0FAA3E0F990000512211854B1
:10311B000F24FD60361470030231AE24FD700302E0
:10312B0031F31470030232062406600302321F903F
:10313B0004F8E0FBA3E0FAA3E024FDF9EA34FFFA7C
:10314B001220FF44801221450231F39004F8E0FB7A
:10315B00A3E0FAA3E024FDF9EA34FFFA1220FF44BE
:10316B00801221459004F8E0FBA3E0FAA3E024FED3
:10317B00F9EA34FFFA1220FF44801221459004F83B
:10318B00E0FBA3E0FAA3E024FFF9EA34FFFA1220F4
:10319B00FF44801221459004F8E0FBA3E0FAA3E082
:1031AB00F980699004F8E0FBA3E0FAA3E024FDF9B1
:1031BB00EA34FFFA1220FF44801221459004F8E014
:1031CB00FBA3E0FAA3E024FEF9EA34FFFA1220FF96
:1031DB0044801221459004F8E0FBA3E0FAA3E0241D
:1031EB00FFF9EA34FFFA80249004F8E0FBA3E0FA3D
:1031FB00A3E024FEF9EA34FFFA80119004F8E0FB17
:10320B00A3E0FAA3E024FDF9EA34FFFA1220FF440D
:05321B00801221452294
:104E1E009004EAEBF0A3EAF0A3E9F0A3E0FBA3E031
:104E2E00FAA3E0F91220FFFF9004EAE0FBA3E0FAF8
:104E3E00A3E0F9EF1221459004EDE0FBA3E0FAA305
:104E4E00E0F9900001122118FF9004EAE0FBA3E0C4
:104E5E00FAA3E0F9900001EF1221579004EDE0FB68
:104E6E00A3E0FAA3E0F9900002122118FF9004EAE1
:104E7E00E0FBA3E0FAA3E0F9900002EF12215790B5
:104E8E0004EDE0FBA3E0FAA3E0F990000312211871
:104E9E00FF9004EAE0FBA3E0FAA3E0F9900003EF31
:104EAE001221579004EDE0FBA3E0FAA3E0F9900085
:104EBE0004122118FF9004EAE0FBA3E0FAA3E0F944
:104ECE00900004EF1221579004EDE0FBA3E0FAA34B
:104EDE00E0F9900007122118FF9004EAE0FBA3E02E
:0B4EEE00FAA3E0F9900005EF02215745
:095C3D002456F974003EFA7B01C3
:105C46001220FF900008122157900001122118908F
:105C5600000912215790000212211890000A122101
:105C66005790000312211890000B12215790000440
:105C760012211890000C122157900005122118903D
:055C8600000D02215792
:0E5AA70075F008A42456F9740035F0FA7B015E
:105AB5009000081221181221459000091221189012
:105AC500000112215790000A12211890000212219C
:105AD5005790000B12211890000312215790000CCB
:105AE50012211890000412215790000D12211890D0
:055AF50000050221572D
:10374F0078EE7C047D017BFF7A6779287E007F0805
:10375F001220D9E49004F6F0A3F0126C0B9004F64B
:10376F00EFF0126BFF9004F7EFF0126BF99004EC8F
:10377F00EFF0126BF39004EDEFF0126C839004ED09
:10378F00E0FE9004ECE0FDC39E500AEF9D4006EE74
:10379F006003E0701B9004EDE060030238CA9004F0
:1037AF00ECE0FE70030238CAEFD39E50030238CA12
:1037BF00E49004EAF09004EAE0FFC3940A5022EF89
:1037CF0075F008A42456F582740035F0F583E07087
:1037DF00089004EAE0A3F080089004EAE004F08087
:1037EF00D4E49004EAF09004EBE024FFFFE434FF0C
:1037FF00FEEF7803C333CE33CED8F9FF9004EAE05F
:10380F00FD7A002FFFEA3EFE74562FF58274003EBC
:10381F00F583E0FF74EE2DF582E43404F583EFF0C9
:10382F009004EAE004F0E0B406BC9004EBE09004EE
:10383F00EAF09004EAE0FFD39401401DEF24FEFF6D
:10384F00E434FFFEEF7803C333CE33CED8F9125CE6
:10385F003D9004EAE014F080D9E49004EAF090047B
:10386F00EAE0FF24EEF582E43404F583E0FE7456BB
:10387F002FF582E43400F583EEF09004EAE004F0D3
:10388F00E0B406DA123A3B1254CFE4FF126C89907F
:10389F0004F6E0B401257B017A007956900056E0DA
:1038AF00FD9004FCE4F0A3EDF090005BE0540F906A
:0B38BF0004FEF09004F7E0FF1233EA73
:0138CA0022DB
:1048E400E49004F0F0A3F0126BF99004EBEFF012F3
:1048F4006BF39004ECEFF0126C839004EDEFF01284
:104904006BED9004EEEFF0126BE79004EFEFF01212
:104914006C059004F1EFF09004EBE0FFA3E0FEC31C
:104924009F500EA3E09E4009EF60069004ECE070F7
:104934001A9004EBE06003024A02A3E0FF70030252
:104944004A02A3E0D39F5003024A02E49004EAF02F
:104954009004EEE014FD9004EAE0FFC39D500CEFD8
:10496400125AA79004EAE004F080E5ED333333549F
:10497400F89004EAF09004EEE075F008A4FF9004C7
:10498400EAE0FDC39FE5F06480F8748098501474E5
:10499400562DF582E43400F583E4F09004EAE00453
:1049A400F080D2123A3B1254CFE4FF126C8990008B
:1049B40056E07004FF026BE19004EFE06402703E85
:1049C4009004EAF09004F1E0FF9004EAE0C39F5001
:1049D4002D7B017A007956900056E0FD9004FCE4AA
:1049E400F0A3EDF090005BE0540F9004FEF090040F
:0E49F400F0E0FF1233EA9004EAE004F080C61F
:014A02002291
:10543600E49004C0F0126BED9004C0EFF0E4FDFCC4
:105446009004C0E024FFFFE434FFFEC3ED9FEC9E12
:10545600501FEDAE047803C333CE33CED8F92456AD
:10546600F974003EFA7B01125AB50DBD00010C809D
:10547600CF9004C0E024FFFFE434FFFEEF7803C3BF
:1054860033CE33CED8F9FDAC069004C0E075F008F3
:10549600A4FFC3ED9FEC95F0501374562DF582745E
:1054A600003CF583E4F00DBD00010C80DC9006079E
:1054B600E014F0123A3B1254CF900056E07004FF0D
:0354C600126BE185
:0154C90022C0
:10523E0078C17C047D017BFF7A6779307E007F0622
:10524E001220D9126BED9004C0EFF0126BEDAD078A
:10525E00E4FCECC39D501CEC75F008A42456F582BA
:10526E00740035F0F583E070079004C0ECF0800315
:10527E000C80DFE4FC74562CF582E43400F583E0F8
:10528E00FF74C12CF582E43404F583EFF00CECB41A
:10529E0006E3E4FC9004C0E0FFECC39F5007EC1261
:1052AE005AA70C80EFE4FC74C12CF582E43404F5AB
:1052BE0083E0FD9004C0E024FFFFE434FFFEEF78AE
:1052CE0003C333CE33CED8F9FFEC7A002FFFEA3E7C
:1052DE00FE74562FF58274003EF583EDF00CECB49F
:0852EE0006C5123A3B0254CF41
:104D250078C27C047D017BFF7A6779367E007F0639
:104D35001220D9126BED9004C1EFF0126BEDAD07A7
:104D4500E49004C0F09004C0E0FFC39D5022EF75CD
:104D5500F008A42456F582740035F0F583E0700858
:104D65009004C0E0A3F080089004C0E004F080D572
:104D7500E49004C0F09004C1E024FFFFE434FFFE9A
:104D8500EF7803C333CE33CED8F9FF9004C0E0FDEE
:104D95007A002FFFEA3EFE74562FF58274003EF529
:104DA50083E0FF74C22DF582E43404F583EFF090BF
:104DB50004C0E004F0E0B406BC9004C1E09004C077
:104DC500F09004C0E0FFD39401401DEF24FEFFE402
:104DD50034FFFEEF7803C333CE33CED8F9125C3DF2
:104DE5009004C0E014F080D9E49004C0F09004C0B1
:104DF500E0FF24C2F582E43404F583E0FE74562F07
:104E0500F582E43400F583EEF09004C0E004F0E0B0
:094E1500B406DA123A3B0254CF54
:0B2E22009004EAEBF0A3EAF0A3E9F053
:102E2D0078F67C047D017BFF7A67793C7E007F0616
:102E3D001220D9126BED9004F2E4F0A3EFF0126BB7
:102E4D00ED9004F4E4F0A3EFF0E49004F0F0A3F0BF
:102E5D009004F4E0FEA3E0FF9004F0E0FCA3E0FD9D
:102E6D00C39FEC9E4003022F68EDAE047803C3337D
:102E7D00CE33CED8F9FF9004EDE0FBA3E0FAA3E04A
:102E8D002FF9EA3EFA900001122118FD9004EAE0B4
:102E9D00FBA3E0FAA3E0F99000011221186D600385
:102EAD00022F549004EDE0FBA3E0FAA3E02FF9EA22
:102EBD003EFA900002122118FF9004EAE0FBA3E015
:102ECD00FAA3E0F99000021221186F707A9004F0C5
:102EDD00E0FEA3E07803C333CE33CED8F9FF9004E0
:102EED00EDE0FBA3E0FAA3E02FF9EA3EFA90000330
:102EFD00122118FD9004EAE0FBA3E0FAA3E0F9909B
:102F0D000003122118B5053F9004EDE0FBA3E0FA94
:102F1D00A3E02FF9EA3EFA900004122118FF900465
:102F2D00EAE0FBA3E0FAA3E0F9900004122118B542
:102F3D000715900607E014F09004F0E0FFA3E0A35E
:102F4D00CFF0A3EFF080149004F1E004F0600302E1
:102F5D002E5D9004F0E004F0022E5D9004F2E0701E
:102F6D0002A3E070031269B49004F2E0FFA3E090B5
:102F7D0004F0CFF0A3EFF09004F4E0FEA3E0FF9097
:102F8D0004F0E0FCA3E0FDC39FEC9E502FEDAE04DA
:102F9D007803C333CE33CED8F9FF9004EDE0FBA315
:102FAD00E0FAA3E02FF9EA3EFA125AB59004F1E0E7
:102FBD0004F070C39004F0E004F080BB9004F4E0E2
:102FCD00FEA3E0FF9004F2E06E7003A3E06F605982
:102FDD00E49004F0F0A3F09004F0E0FCA3E0FDC356
:102FED009406EC940050429004F5E024FFFF900409
:102FFD00F4E034FFFEEF7803C333CE33CED8F9FFC0
:10300D009004EDE0FBA3E0FAA3E02FF9EA3EFAE924
:10301D002DF9EA3CFAE41221459004F1E004F07038
:10302D00B69004F0E004F080AE9004EDE0FBA3E078
:0D303D00FAA3E0F91220FF7004FF126BE10E
:01304A002263
:0B38CB009004EAEBF0A3EAF0A3E9F0A0
:1038D60078F17C047D017BFF7A6779427E007F0662
:1038E6001220D9126BED9004F0EFF0126BEDAD07DC
:1038F600E4FCECC39D40030239D8EC75F008A4FF44
:103906009004EDE0FBA3E0FAA3E02FF9EA35F0FA24
:10391600900001122118FF9004EAE0FBA3E0FAA34D
:10392600E0F99000011221186F60030239D4EC759A
:10393600F008A4FF9004EDE0FBA3E0FAA3E02FF962
:10394600EA35F0FA900002122118FF9004EAE0FB33
:10395600A3E0FAA3E0F99000021221186F706FEC51
:1039660075F008A4FF9004EDE0FBA3E0FAA3E02FB6
:10397600F9EA35F0FA900003122118FF9004EAE004
:10398600FBA3E0FAA3E0F99000031221186F703E42
:10399600EC75F008A4FF9004EDE0FBA3E0FAA3E0C9
:1039A6002FF9EA35F0FA900004122118FF9004EA84
:1039B600E0FBA3E0FAA3E0F9900004122118B50792
:1039C6000D900607E014F09004F0ECF080040C0271
:1039D60038F89004F0E0FCECC39D501CEC75F00840
:1039E600A4FF9004EDE0FBA3E0FAA3E02FF9EA358B
:1039F600F0FA125AB50C80DF9004F0E06D6035E401
:103A0600FCED24FFFFE434FFFEEF7803C333CE332F
:103A1600CED8F9FF9004EDE0FBA3E0FAA3E02FF97E
:103A2600EA3EFAEC7E0029F9EE3AFAE41221450C58
:043A3600ECB406CD19
:013A3A002269
:10663E00E4FF126C59E4900607F0EFB40107D2CDD7
:10664E00125EFB8003124A03126C5FBF0103126BD2
:01665E000D2E
:01665F002218
:05000600E4FF02674861
:10670800D2CD7F01126748126C4DBF0112126C1D69
:10671800BF010C7F6F7E00125F9CE4FF126C532256
:1067A4007F02126748126C4DBF0112126C1DBF01AB
:0E67B4000C7F707E00125E8BE4FF126C53228D
:1067C2007F03126748126C4DBF0112126C1DBF018C
:0E67D2000C7F717E00125E8BE4FF126C53226E
:1067E0007F04126748126C4DBF0112126C1DBF016D
:0E67F0000C7F727E00125E8BE4FF126C53224F
:1067FE007F05126748126C4DBF0112126C1DBF014E
:0E680E000C7F737E00125E8BE4FF126C53222F
:10681C007F06126748126C4DBF0112126C1DBF012E
:0E682C000C7F747E00125E8BE4FF126C532210
:10683A007F07126748126C4DBF0112126C1DBF010F
:0E684A000C7F757E00125E8BE4FF126C5322F1
:106858007F08126748126C4DBF0112126C1DBF01F0
:0E6868000C7F767E00125E8BE4FF126C5322D2
:106876007F09126748126C4DBF0112126C1DBF01D1
:0E6886000C7F777E00125E8BE4FF126C5322B3
:05001E007F0A026748A3
:056CFB007F0B02674859
:056D00007F0C02674852
:0D000E007F0D126748E4FF126B18D2CD225F
:105D9B00126C59EFB401057F01026BE1126C65BF08
:105DAB000108124A037F02126C6B126C65BF031958
:105DBB00E4900010F090000FF090000EF090000DAA
:0C5DCB00F01254CFE4FF126C6B1255EC88
:015DD70022A9
:1060D200126C65BF0108124A037F02126C6B126CCC
:1060E20065BF0311E490000BF090000AF01254CF48
:0860F200E4FF126C6B0255EC97
:1060FA00126C65BF0108124A037F02126C6B126CA4
:10610A0065BF0311E4900008F0900007F01254CF25
:08611A00E4FF126C6B0255EC6E
:1064DE00126C65BF0108124A037F02126C6B126CBC
:1064EE0065BF030DE4900006F01254CFE4FF126C6A
:0464FE006B0255ECEC
:10650200126C65BF0108124A037F02126C6B126C97
:1065120065BF030DE4900004F01254CBE4FF126C4B
:046522006B0255ECC7
:10612200126C65BF0108124A037F02126C6B126C7B
:1061320065BF0311E4900002F0900001F01254CF09
:08614200E4FF126C6B0255EC46
:1069EE007F01126767E4900541F0A3F0A3F0A304C2
:0269FE00F02285
:106A00007F02126767E490054BF0A3F0A3F0A304A4
:026A1000F02272
:106A12007F03126767E4900556F0A3F0A3F0A30486
:026A2200F02260
:106A24007F04126767E4900562F0A3F0A3F0A30467
:026A3400F0224E
:106A36007F01126767E4900546F0A3F0A3F0A30474
:026A4600F0223C
:106A48007F02126767E4900551F0A3F0A3F0A30456
:026A5800F0222A
:106A5A007F03126767E490055DF0A3F0A3F0A30437
:026A6A00F02218
:106A6C007F04126767E4900568F0A3F0A3F0A30419
:026A7C00F02206
:056D05007F0102676739
:056D0A007F0202676733
:086B5400E4FF126BF3025FC9BC
:086B5C00E4FF126BF9025FC9AE
:056D0F007F010267672F
:056D14007F0202676729
:056D19007F0302676723
:056D1E007F040267671D
:056D23007F0502676717
:056D28007F0102676716
:056D2D007F0202676710
:056D32007F030267670A
:056D37007F0402676704
:0E6AF1007F01126767126C41900390EFF02254
:056D3C007F0202676701
:056D41007F01026767FD
:056D46007F02026767F7
:1068CD00E4FFFEFDFC126B4BAC06AD077E277F107F
:0A68DD0012218BAC06AD070258E94A
:086B6400E4FF126C5F026932CC
:086B6C00E4FF126C59026932CA
:105BED00126C9B9004C0EFF0D394145031E0FAC3C3
:105BFD00940450028019EAD3941250139004C0E01B
:105C0D00C3132484F582E43403F583E0FF80027F1F
:105C1D00FF125CD530A4077F3C7E00125F9C900480
:0F5C2D00C0E0D3941440061260A91254CFC2CD28
:015C3C002245
:10666000126C65BF01081259A47F02126C6B126C88
:1066700065BF030DE4900004F01254CFE4FF126CE8
:026680006B228B
:10002600126C65BF01081259A47F02126C6B126C28
:0D00360065BF03081254CAE4FF126C6B2270
:10668200126C65BF01081259A47F02126C6B126C66
:1066920065BF030DE4900002F01254CFE4FF126CC8
:0266A2006B2269
:1066A400126C65BF01081259A47F02126C6B126C44
:1066B40065BF030DE4900001F01254CFE4FF126CA7
:0266C4006B2247
:10614A00126C65BF010E7B017A05794B1259AA7F41
:10615A0002126C6B126C65BF030DE4900004F0121E
:08616A0054CFE4FF126C6B221C
:10654900126C65BF010E7B017A05794B1259AA7F3E
:1065590002126C6B126C65BF03081254CAE4FF1275
:036569006C6B2236
:10617200126C65BF010E7B017A05794B1259AA7F19
:1061820002126C6B126C65BF030DE4900002F012F8
:0861920054CFE4FF126C6B22F4
:10619A00126C65BF010E7B017A05794B1259AA7FF1
:1061AA0002126C6B126C65BF030DE4900001F012D1
:0861BA0054CFE4FF126C6B22CC
:1061C200126C65BF010E7B017A0579561259AA7FBE
:1061D20002126C6B126C65BF030DE4900004F012A6
:0861E20054CFE4FF126C6B22A4
:10656C00126C65BF010E7B017A0579561259AA7F10
:10657C0002126C6B126C65BF03081254CAE4FF1252
:03658C006C6B2213
:1061EA00126C65BF010E7B017A0579561259AA7F96
:1061FA0002126C6B126C65BF030DE4900002F01280
:08620A0054CFE4FF126C6B227B
:10621200126C65BF010E7B017A0579561259AA7F6D
:1062220002126C6B126C65BF030DE4900001F01258
:0862320054CFE4FF126C6B2253
:10623A00126C65BF010E7B017A0579621259AA7F39
:10624A0002126C6B126C65BF030DE4900004F0122D
:08625A0054CFE4FF126C6B222B
:10658F00126C65BF010E7B017A0579621259AA7FE1
:10659F0002126C6B126C65BF03081254CAE4FF122F
:0365AF006C6B22F0
:10626200126C65BF010E7B017A0579621259AA7F11
:1062720002126C6B126C65BF030DE4900002F01207
:0862820054CFE4FF126C6B2203
:10628A00126C65BF010E7B017A0579621259AA7FE9
:10629A0002126C6B126C65BF030DE4900001F012E0
:0862AA0054CFE4FF126C6B22DB
:1062B200126C65BF010E7B017A0579461259AA7FDD
:1062C20002126C6B126C65BF030DE4900004F012B5
:0862D20054CFE4FF126C6B22B3
:1065B200126C65BF010E7B017A0579461259AA7FDA
:1065C20002126C6B126C65BF03081254CAE4FF120C
:0365D2006C6B22CD
:1062DA00126C65BF010E7B017A0579461259AA7FB5
:1062EA0002126C6B126C65BF030DE4900002F0128F
:0862FA0054CFE4FF126C6B228B
:10630200126C65BF010E7B017A0579461259AA7F8C
:1063120002126C6B126C65BF030DE4900001F01267
:0863220054CFE4FF126C6B2262
:10632A00126C65BF010E7B017A0579511259AA7F59
:10633A0002126C6B126C65BF030DE4900004F0123C
:08634A0054CFE4FF126C6B223A
:1065D500126C65BF010E7B017A0579511259AA7FAC
:1065E50002126C6B126C65BF03081254CAE4FF12E9
:0365F5006C6B22AA
:10635200126C65BF010E7B017A0579511259AA7F31
:1063620002126C6B126C65BF030DE4900002F01216
:0863720054CFE4FF126C6B2212
:10637A00126C65BF010E7B017A0579511259AA7F09
:10638A0002126C6B126C65BF030DE4900001F012EF
:08639A0054CFE4FF126C6B22EA
:1063A200126C65BF010E7B017A05795D1259AA7FD5
:1063B20002126C6B126C65BF030DE4900004F012C4
:0863C20054CFE4FF126C6B22C2
:1065F800126C65BF010E7B017A05795D1259AA7F7D
:1066080002126C6B126C65BF03081254CAE4FF12C5
:036618006C6B2286
:1063CA00126C65BF010E7B017A05795D1259AA7FAD
:1063DA0002126C6B126C65BF030DE4900002F0129E
:0863EA0054CFE4FF126C6B229A
:1063F200126C65BF010E7B017A05795D1259AA7F85
:1064020002126C6B126C65BF030DE4900001F01276
:0864120054CFE4FF126C6B2271
:10641A00126C65BF010E7B017A0579681259AA7F51
:10642A0002126C6B126C65BF030DE4900004F0124B
:08643A0054CFE4FF126C6B2249
:10661B00126C65BF010E7B017A0579681259AA7F4E
:10662B0002126C6B126C65BF03081254CAE4FF12A2
:03663B006C6B2263
:10644200126C65BF010E7B017A0579681259AA7F29
:1064520002126C6B126C65BF030DE4900002F01225
:0864620054CFE4FF126C6B2221
:10646A00126C65BF010E7B017A0579681259AA7F01
:10647A0002126C6B126C65BF030DE4900001F012FE
:08648A0054CFE4FF126C6B22F9
:086B7400E4FF126BE702693235
:086B7C00E4FF126BED025FC99A
:086B8400E4FF126BFF0269320D
:086B8C00E4FF126C05026932FE
:086B9400E4FF126C0B026932F0
:10689400E49004C0F0126C119004C0EFF075F003A2
:0D68A400A4FF1266E79004C0E0FF02693215
:086B9C00E4FF126C17026932DC
:106A7E00E4FF126C29EFC3940A50030269321269C3
:016A8E005FA8
:016A8F0022E4
:086BA400E4FF126C2F026932BC
:086BAC00E4FF126C35026932AE
:086BB400E4FF126C3B026932A0
:105E5100E49004C0F0126C419004C0EFF01269327A
:105E6100900390E0FF9004C0E06F601D12594890CC
:105E710004C0E0900390F0126C4DBF010C7F797E5D
:095E810000125F9CE4FF126C5357
:015E8A0022F5
:105EC500E49004C0F0126C479004C0EFF0125FC973
:105ED500126C4DBF010D9004C0E02442FFE433FE77
:105EE500125E8B126CEFBF010C7F797E00125E8B08
:055EF500E4FF126CF552
:015EFA002285
:1066C600E49004C0F0126BFF9004C0EFF090005607
:1066D600E0B4340A30A4077F687E00125F9CD2CDF6
:0166E6002291
:056D4B007F06026767EE
:086BBC00E4FF126C1D026932B6
:056D50007F07026767E8
:086BC400E4FF126C23026932A8
:101F41004105FB0041060400410601004106020073
:101F51004105FC004105F900410606004105FE006E
:101F61004105FA00410600004105FF004105FD0061
:081F71004106050041060300D2
:106AD300438901758C3C758AB0D2AFD2A9D28C227E
:0E6AFF00438910758DFF758B9CD2AFD2AB22F0
:03000B0002431499
:10431400C0E0C0F0C083C082C0D075D000C000C06F
:0D43240001C002C003C004C005C006C007F0
:10433100900538E4F0A3F0C28D758C3C758AB012FB
:104341006BDB900538EFF0126C59900539EFF09066
:1043510005FBE004F0E0B40A19900604E004F090D3
:104361000600E004F09005FBE4F09005FFE0600238
:1043710014F0900604E0C394044002E4F0900600B7
:10438100E0C394184002E4F09005FDE0600214F0EF
:10439100900601E0B40104A3E004F0126CD7BF0160
:1043A100149005FCE004F0E0D394784008126CDD31
:1043B1009005FCE4F0900603E0B40115900605E0D9
:1043C10004F0E0D394784009900603E4F0900605E8
:1043D100F0900538E0FFB45F159005F9E004F0E0D6
:1043E100B4140B900606E004F09005F9E4F0EF64D4
:1043F1005F601A900538E0643160129005FEE004B8
:10440100F0E0D394C84006E4F0FF126BE190053868
:10441100E07015A3E0B402109005FAE004F0E0C3E7
:08442100940A4004B2CDE4F05E
:10442900D007D006D005D004D003D002D001D000E7
:0B443900D0D0D082D083D0F0D0E03291
:03001B00025B9CE9
:105B9C00C0E0C0F0C083C082C0D075D000C000C0CF
:0D5BAC0001C002C003C004C005C006C00750
:105BB900E4FF126BDBC28F758DFF758B9CEFB42EE2
:095BC90005122B7480031240AC9C
:105BD200D007D006D005D004D003D002D001D00027
:0B5BE200D0D0D082D083D0F0D0E032D1
:056C6500900604E0FFB1
:016C6A002207
:066C6B00900604EFF02288
:066C7100900601EFF02285
:056C7700900602E0FFA1
:016C7C0022F5
:066C7D00E4900602F02283
:056C8300900606E0FF91
:016C880022E9
:066C8900900606EFF02268
:066C8F00E49005FEF02276
:066C9500900602EFF02260
:056C9B00900600E0FF7F
:016CA00022D1
:0B6B1800900600EFF0E49005FBF02277
:056CA1009005FFE0FF7B
:016CA60022CB
:0B6B23009005FFEFF0E49005FBF0226E
:056CA7009005FDE0FF77
:016CAC0022C5
:066CAD009005FDEFF0224E
:066CB300E49005FCF02254
:066CB900E4900605F02244
:066CBF00900603EFF02235
:056CC500900603E0FF52
:016CCA0022A7
:0B1F79004805DA140F09040C220006D2
:045D1D00E0FD7F8A9C
:105D2100D2A0EF54FEFFE4FEEF30E004D2A18002E6
:105D3100C2A1D2A2C2A2EFC313FF0EEEB408E9E4DE
:105D4100FEED30E004D2A18002C2A1D2A2C2A2ED36
:0A5D5100C313FD0EEEB408E9C2A072
:015D5B002225
:105D5C00D2A0EF4401FFE4FDEF30E004D2A18002B9
:105D6C00C2A1D2A2C2A2EFC313FF0DEDB408E9E4A5
:105D7C00FDEEC313FE30A1054480FE8004EE547F7B
:0E5D8C00FED2A2C2A20DEDB408E7C2A0AF067F
:015D9A0022E6
:1055EC00E4FF74DA2FF582E43405F583E0FE75F000
:1055FC000A84FDEE75F00A8474E22FF582E434051A
:10560C00F583E5F0F0EDC454F0FE74E22FF582E47E
:10561C003405F583E02EF00FEFB408C6E4FD7F8E61
:10562C00125D217D807F80125D219005E3E0FD7F7E
:10563C008C125D21A3E0FD7F88125D21A3E0FD7F2C
:10564C0086125D219005E9125D1D9005E6E0FD7F57
:10565C0084125D21A3E0FD7F82125D21A3E0FD7F1A
:0F566C0080125D21A3125D1D7D807F8E025D2166
:105793007F8C125D5C9005E3EFF07F88125D5CA364
:1057A300EFF07F86125D5CA3EFF07F84125D5CA354
:1057B300EFF07F82125D5CA3EFF07F80125D5CEF00
:1057C300547FA3F07F8A125D5CA3EFF0E4FF74E2E1
:1057D3002FF582E43405F583E0FEC4540FFDEE5447
:1057E3000FFE74DA2FF582E43405F583EEF0ED75E0
:1057F300F00AA4FE74DA2FF582E43405F583E02E73
:06580300F00FEFB408C82D
:01580900227C
:0B6B2E00C2A0C2A2E4FD7F80025D2136
:101F84004105B6004105B5004105BB004105BE0051
:101F94004105C5004105AA004105A9004305C20049
:101FA40000004205BC00464205C000784205A60078
:101FB400004205A400004205B300004205B70046F4
:101FC4004205B900784205C700004105A800410553
:101FD400C6004105BF004105AB004105AF00430504
:0A1FE400AC0000004305B00000004F
:076BD400D2AFD2A8D2882243
:03000300026BCCC1
:086BCC00C2A8208E02D28E3215
:1068B100E49005B6F09005B5F09005BEF09005BBEB
:0C68C100F09005C5F09005A9F0A3F022AE
:1040AC0030B2059005BE80039005BBE004F090058E
:1040BC00AAE004F0E0D394A07480948F4007C28EE1
:1040CC00D2A80268B19005A9E01460351460691497
:1040DC00700302416B240360030241DB9005BEE0D8
:1040EC00D3940040030241DB9005BBE0D3944650CF
:1040FC00030241E29005A9E004F0E49005BEF080D3
:10410C00329005BEE0FFFD9005BBE02DFDE433FCD5
:10411C00D3ED948CEC6480948040030241DBEFD3AC
:10412C00940150030241E230A802C2A89005A9E014
:10413C0004F0E49005BBF0229005BBE0D394014061
:10414C00139005BEE09005B6F0E49005BEF0900526
:10415C00A9E004F09005BEE0D394194079807090EA
:10416C0005BEE0D39401405C9005BBE0FF9005B523
:10417C00F0E49005BBF09005A97402F09005C5E041
:10418C00131313541FFE24C2F582E43405F583E0A7
:10419C00FD25E0F09005B6E0D39F400E74C22EF5DD
:1041AC0082E43405F583E04401F09005C5E004F0A9
:1041BC00E0D39417400EC28E1268B19005A874011A
:1041CC00F0D2A8229005BBE0D394194009800012CC
:0741DC0068B1D2A8C28E22D7
:103BAA00E4900514F0126BDB900514EFF09005A871
:103BBA00E064016003023CF4F0C2A89005BFE0147F
:103BCA006027046003023CF29005C2E09005ACF065
:103BDA009005C3E09005ADF09005C4E09005AEF005
:103BEA009005BF7401F0023CF29005C2E0FF900517
:103BFA00ACE06F6003023CDA9005C3E0FE9005ADCD
:103C0A00E06E6003023CDA9005C4E0FD9005AEE088
:103C1A006D6003023CDA9005B0E06F7012A3E06EAB
:103C2A00700DA3E0B505089005ABE0702380009005
:103C3A0005C2E09005B0F09005C3E09005B1F090A0
:103C4A0005C4E09005B2F09005C67401F0126CB399
:103C5A009005AB7401F0126C8F9005B1E0FFE4FCA3
:103C6A00FDFE7808122207C004C005C006C00790EE
:103C7A0005B0E0FFE4FCFDFE7810122207D003D065
:103C8A0002D001D000EF4BFBEE4AFAED49F9EC48BD
:103C9A00F89005B2E0FFEB4FFFEAFEE9FDE8FC7B96
:103CAA00017A057915124EF9EF600D9005AF74018E
:103CBA00F0FF126C53126C8FE49005C2F0A3F0A3CC
:103CCA00F09005ACF0A3F0A3F0E49005BFF08018E3
:103CDA009005C2E09005ACF09005C3E09005ADF008
:0A3CEA009005C4E09005AEF0D2A8EA
:013CF40022AD
:102B740030B2059005BE80039005BBE004F09005DB
:102B8400AAE004F0E0D394A07480948F4006C28E2F
:102B9400D2A880279005A9E014605A147003022C6F
:102BA40088147003022CD324036003022E1A9005A8
:102BB400BEE0D394004007D2A8C28E0268B190054B
:102BC400A6E0FEA3E0FF7C007D0F122179EF243CF8
:102BD400FFE43EFE9005BBE0D39FEC9E5003022E23
:102BE400219005A9E004F09005BCEEF0A3EFF0E419
:102BF400A3F0022C839005A4E0FEA3E0FF7C007DFB
:102C04000F122179EF2478FFE43EFE9005BEE0F92F
:102C1400FD9005BBE02DFDE433FCD3ED9FEC9E401D
:102C240022E9701C9005A5E004F070069005A4E06C
:102C340004F09005A7E004F070069005A6E004F007
:102C4400022E1AE9D394015003022E219005A4E028
:102C5400FEA3E0FF7C007D0F122179EF2478FFE4CE
:102C64003E9005C0F0A3EFF0E49005A4F0A3F0A318
:102C7400F0A3F030A802C2A89005A9E004F0E49003
:102C840005BBF0229005BBE0D3940040139005BE31
:102C9400E09005B6F0E49005BEF09005A9E004F0DC
:102CA4009005BCE0FEA3E0FF9005C1E02FFF900576
:102CB400C0E03EFEEF7803CEC313CE13D8F9FF90E5
:102CC40005BEE0D39FE49E5003022E21022E1A90EB
:102CD40005BEE0D394005003022DEF9005BBE0FF46
:102CE4009005B5F0E49005BBF09005A97402F0904E
:102CF40005C5E0131313541FFE24C2F582E4340502
:102D0400F583E025E0F09005B6E0FDD39F400E7416
:102D1400C22EF582E43405F583E04401F09005C544
:102D2400E004F0E0D394175003022DEFC28E900517
:102D3400B5E02DFEE4339005B3F0A3CEF01268B1F4
:102D44009005C8E004F070069005C7E004F0900513
:102D5400C0E0FEA3E0FF9005BAE02FF09005B9E0D3
:102D64003EF0E0C313FEA3E013FF9005C0EEF0A312
:102D7400EFF09005B9EEF0A3EFF0D39005C8E0941E
:102D8400019005C7E09400405F9005B7E0FEA3E022
:102D9400FF9005BCE0FCA3E0FD9FFFEC9EFED3EF9B
:102DA400941EEE940040159005B8E09DFF9005B781
:102DB400E09CFED3EF941EEE9400502C9005BCE0F2
:102DC400FEA3E0FF9005B8E02FF09005B7E03EF0D9
:102DD400E0C313FEA3E013FF9005BCEEF0A3EFF0F5
:102DE4009005B7EEF0A3EFF0D2A8229005BCE0FE68
:102DF400A3E0FF9005C1E02FFF9005C0E03EFEEF89
:102E04007803CEC313CE13D8F9FF9005BBE0D39F4C
:0E2E1400E49E400980001268B1D2A8C28E224E
:056CCB009005C6E0FF8A
:016CD00022A1
:066CD100E49005C6F0226C
:056CD7009005ABE0FF99
:016CDC002295
:066CDD00E49005ABF0227B
:056CE3009005AFE0FF89
:016CE8002289
:066CE900E49005AFF0226B
:086B4B009005B3E0FEA3E0FF9A
:016B5300221F
:101FEE0048060800000000000000004106140044EE
:0A1FFE000610000000004106070075
:10004600E49004D3F0A3F09004D9F09004E2F0A376
:10005600F0A3F0A3F0A3F0A3F0A3F0A3F0126BDBE0
:100066009004E2EFF0126C419004E3EFF0126C475B
:100076009004E4EFF0126BE79004E5EFF0126BEDFD
:100086009004E6EFF0126BED9004D9EFF0126C29B4
:100096009004E7EFF0126BFF9004E8EFF0126C05A6
:1000A6009004E9EFF0123BAA126CCBEF64016003F7
:1000B600020EA09005B1E0FFE4FCFDFE78081222D6
:1000C60007C004C005C006C0079005B0E0FFE4FC09
:1000D600FDFE7810122207D003D002D001D000EF27
:1000E6004BFBEE4AFAED49F9EC48F89005B2E0FF11
:1000F600EB4FFFEAFEE9FDE8FC9004CF1222849064
:1001060004E2E024CE24FC4003020B2B24FC400333
:10011600020BEB24FC4003020CAB24FC4003020D53
:100126006B24E47003020E3C14700302043F245F48
:100136006003020E9DE4FF126C899005B2E0FF5445
:10014600F0600302028F9005B0E0C4540FFE9004E5
:10015600E7E06E600302028FEEC3940A40030202D8
:100166008F9004E3E0B4010CEF540F2476F582E49B
:100176003403800D9005B2E0540F2446F582E43432
:1001860000F583E09004DAF09005B0E0FFC4540F68
:100196009004DBF0EF540FA3F09005B1E0FFC454D8
:1001A6000F9004DDF0EF540FA3F09005B0E090043B
:1001B600DFF09005B1E09004E0F09005B2E0900425
:1001C600E1F09004DAE0FF64336042EF603FE490D0
:1001D60004D7F09004E9E0FF9004D7E0C39F505C99
:1001E6007B017A0479DA9004DAE0FD9004FCE4F00D
:1001F600A3EDF09005B2E0540F9004FEF09004E8F1
:10020600E0FF1233EA9004D7E004F080C69004EDD4
:100216007401F0A37400F0A37456F07B017A04799C
:10022600DA122E227B017A0479DA9005B2E0540FB5
:100236009004EEF07F921232200209E29004E6E08A
:10024600FF900607E0C39F5003E004F01260A97B0D
:10025600017A0479DA9005B2E0540F9004EEF07F4B
:10026600911232209004ED7401F0A37404F0A3748B
:10027600DAF07B017A007956124E1E123A3B12547E
:10028600CF7F5F126BE1020E9D7B017A0479C790E6
:1002960004CFE0FCA3E0FDA3E0FEA3E0FF1258803C
:1002A600EF3395E0FE9004D3F0A3EFF04E70030217
:1002B6000E9D9004CFE0FCA3E0FDA3E0FEA3E0FFCB
:1002C600900610E0F8A3E0F9A3E0FAA3E0FBC3125E
:1002D60021F67009126CC5EF601F020E9D9004CFC7
:1002E600E0FCA3E0FDA3E0FEA3E0FF9006101222CF
:1002F60084126CB97F01126CBF9004D3E0FEA3E0B8
:10030600FF64014E70089004DA7433F08018EF64CD
:10031600024E70089004DA7434F0800A9005B2E058
:10032600540F9004DAF078DB7C047D017B017A04BB
:1003360079C77E007F041220D99005B2E0FF9004B1
:10034600E1F09004DAE0C3943250279004E3E0B47D
:10035600010CEF540F2476F582E43403800D9005EA
:10036600B2E0540F2446F582E43400F583E09004AD
:10037600DAF09004DAE0FF64336042EF603FE49025
:1003860004D7F09004E9E0FF9004D7E0C39F506CD7
:100396007B017A0479DA9004DAE0FD9004FCE4F05B
:1003A600A3EDF09005B2E0540F9004FEF09004E83F
:1003B600E0FF1233EA9004D7E004F080C69004E62A
:1003C600E0FF900607E0C39F5003E004F07B017A4C
:1003D6000479DA9005B2E0540F9004EEF07F9212A1
:1003E60032209004ED7401F0A37400F0A37456F06B
:1003F6007B017A0479DA122E220209E21260A97BC5
:10040600017A0479DA9005B2E0540F9004EEF07F99
:10041600911232209004ED7401F0A37404F0A374D9
:10042600DAF07B017A007956124E1E123A3B1254CC
:10043600CF7F5F126BE1020B25E4FF126C899005FA
:10044600B2E0FF54F060030207839005B0E0C454A5
:100456000FFE9004E7E06E6003020783EEC3940A82
:1004660040030207839004E3E0B4010CEF540F2429
:1004760076F582E43403800D9005B2E0540F2446ED
:10048600F582E43400F583E09004DAF09005B0E0FC
:10049600FFC4540F9004DBF0EF540FA3F09005B1A6
:1004A600E0FFC4540F9004DDF0EF540FA3F0900565
:1004B600B0E09004DFF09005B1E09004E0F0900524
:1004C600B2E09004E1F09004E5E064016003020606
:1004D600029004DAE0FF64336042EF603FE4900488
:1004E600D7F09004E9E0FF9004D7E0C39F505C7B0F
:1004F600017A0479DA9004DAE0FD9004FCE4F0A3D2
:10050600EDF09005B2E0540F9004FEF09004E8E0A0
:10051600FF1233EA9004D7E004F080C67B017A0428
:1005260079DA9005B2E0540F9004EEF07F92123221
:10053600209004ED7401F0A37400F0A37456F07BD0
:10054600017A0479DA122E220209E29004E6E0FF2B
:10055600900607E0C39F5003E004F07B017A04791C
:10056600DA9005B2E0540F9004EEF07F911232203B
:100576009004ED7401F0A37400F0A37456F07B01AF
:100586007A0479DA1238CB9004E6E09004D7F0903A
:1005960004D7E0FFD394014026EF24FEFFE434FFA6
:1005A600FEEF7803C333CE33CED8F92456F9740060
:1005B6003EFA7B01125C469004D7E014F080D0E44A
:1005C6009004D7F09004D7E0FFC3940650147456F5
:1005D6002FF582E43400F583E4F09004D7E004F0CC
:1005E60080E29004ED7401F0A37404F0A374DAF0D1
:1005F6007B017A007956124E1E0209E29004E5E06C
:1006060064026003020E9D9004DAE0FF6433600327
:10061600EF702F7B017A0479DA9005B2E0540F90DF
:1006260004EEF07F921232209004ED7401F0A37470
:1006360000F0A37456F07B017A0479DA122E2202B6
:1006460009E2E49004D8F09004E6E0FF9004D8E0D4
:10065600FEC39F40030206FCEE75F008A4FFAEF051
:100666002457F58274003EF583E0FD9004DBE0FC40
:10067600ED6C707974582FF58274003EF583E0FFB7
:100686009004DCE0FEEF6E70649004D8E075F0082C
:10069600A4FFAEF02459F58274003EF583E0FD9088
:1006A60004DDE0FCED6C7045745A2FF58274003E53
:1006B600F583E0FF9004DEE0FEEFB506309004D847
:1006C600E0A3F075F008A42456F9740035F0FA7B1F
:1006D60001C0039004EDEBF0A37404F0A374DAF008
:1006E600D003124E1E123A3B1254CF80099004D802
:1006F600E004F002064D9004E6E0FF9004D9E06FB6
:100706006003020E9D9004D8F09004E6E0FD90048C
:10071600D8E0FFC39D4003020E9DEF75F008A424A8
:1007260056F582740035F0F583E07049900607E0CF
:10073600C39D5003E004F07B017A0479DA9005B298
:10074600E0540F9004EEF07F911232209004D8E02E
:1007560075F008A42456F9740035F0FA7B01C0033D
:100766009004EDEBF0A37404F0A374DAF0D0031256
:100776004E1E0209E29004D8E004F0808C7B017AD8
:100786000479C79004CFE0FCA3E0FDA3E0FEA3E05C
:10079600FF125880EF3395E0FE9004D3F0A3EFF0FC
:1007A6004E7003020E9D9004CFE0FCA3E0FDA3E093
:1007B600FEA3E0FF900610E0F8A3E0F9A3E0FAA399
:1007C600E0FBC31221F67009126CC5EF601F020E22
:1007D6009D9004CFE0FCA3E0FDA3E0FEA3E0FF9024
:1007E6000610122284126CB97F01126CBF9004D3DA
:1007F600E0FEA3E0FF64014E70089004DA7433F063
:100806008018EF64024E70089004DA7434F0800A9F
:100816009005B2E0540F9004DAF078DB7C047D0199
:100826007B017A0479C77E007F041220D99005B235
:10083600E0FF9004E1F09004DAE0C3943250279090
:1008460004E3E0B4010CEF540F2476F582E434039C
:10085600800D9005B2E0540F2446F582E43400F58D
:1008660083E09004DAF09004E5E064016003020995
:100876009F9004DAE0FF64336042EF603FE4900447
:10088600D7F09004E9E0FF9004D7E0C39F505C7B6B
:10089600017A0479DA9004DAE0FD9004FCE4F0A32E
:1008A600EDF09005B2E0540F9004FEF09004E8E0FD
:1008B600FF1233EA9004D7E004F080C67B017A0485
:1008C60079DA9005B2E0540F9004EEF07F9212327E
:1008D600209004ED7401F0A37400F0A37456F07B2D
:1008E600017A0479DA122E220209E29004E6E0FF88
:1008F600900607E0C39F5003E004F07B017A047979
:10090600DA9005B2E0540F9004EEF07F9112322097
:100916009004ED7401F0A37400F0A37456F07B010B
:100926007A0479DA1238CB9004E6E09004D7F09096
:1009360004D7E0FFD394014026EF24FEFFE434FF02
:10094600FEEF7803C333CE33CED8F92456F97400BC
:100956003EFA7B01125C469004D7E014F080D0E4A6
:100966009004D7F09004D7E0FFC394065014745651
:100976002FF582E43400F583E4F09004D7E004F028
:1009860080E29004ED7401F0A37404F0A374DAF02D
:100996007B017A007956020B129004E5E06402604E
:1009A60003020B259004DAE0FF64336003EF703531
:1009B6007B017A0479DA9005B2E0540F9004EEF0E8
:1009C6007F921232209004ED7401F0A37400F0A31C
:1009D6007456F07B017A0479DA122E22123A3B120F
:1009E60054CF020E9DE49004D8F09004E6E0FF9008
:1009F60004D8E0FEC39F4003020A9FEE75F008A4E8
:100A0600FFAEF02457F58274003EF583E0FD9004B6
:100A1600DBE0FCED6C707974582FF58274003EF5BE
:100A260083E0FF9004DCE0FEEF6E70649004D8E093
:100A360075F008A4FFAEF02459F58274003EF583E4
:100A4600E0FD9004DDE0FCED6C7045745A2FF582F4
:100A560074003EF583E0FF9004DEE0FEEFB506305D
:100A66009004D8E0A3F075F008A42456F974003574
:100A7600F0FA7B01C0039004EDEBF0A37404F0A33D
:100A860074DAF0D003124E1E123A3B1254CF80098C
:100A96009004D8E004F00209F09004E6E0FF900428
:100AA600D9E06F707A9004D8F09004E6E0FD9004E7
:100AB600D8E0FFC39D5068EF75F008A42456F58270
:100AC600740035F0F583E0704E900607E0C39D5044
:100AD60003E004F07B017A0479DA9005B2E0540F62
:100AE6009004EEF07F911232209004D8E075F00861
:100AF600A42456F9740035F0FA7B01C0039004ED86
:100B0600EBF0A37404F0A374DAF0D003124E1E12B5
:100B16003A3B1254CF80089004D8E004F0808A1241
:100B26006CD1020E9D7F35126BE178BF7C047D018E
:100B36007B017A0579417E007F041220D99005B1A8
:100B4600E0FFE4FCFDFE7808122207C004C005C0E1
:100B560006C0079005B0E0FFE4FCFDFE7810122207
:100B660007D003D002D001D000EF4BFBEE4AFAEDDE
:100B760049F9EC48F89005B2E0FFEB4FFFEAFEE9D1
:100B8600FDE8FC9004C31222847B017A0479BF122B
:100B9600469A5003020E9D126AE3900544E06409EA
:100BA600703D900543E06409702F900542E0B4095A
:100BB60022900541E004F0E4A3F0A3F0900541E0A3
:100BC600B4150AE4F090054404F0020E9D90054425
:100BD600020E16900542020E1F900543020E2C903F
:100BE6000544020E377F39126BE178BF7C047D0124
:100BF6007B017A05794B7E007F041220D99005B1DE
:100C0600E0FFE4FCFDFE7808122207C004C005C020
:100C160006C0079005B0E0FFE4FCFDFE7810122246
:100C260007D003D002D001D000EF4BFBEE4AFAED1D
:100C360049F9EC48F89005B2E0FFEB4FFFEAFEE910
:100C4600FDE8FC9004C31222847B017A0479BF126A
:100C560041E35003020E9D126AE390054EE06409DB
:100C6600703D90054DE06409702F90054CE0B40985
:100C76002290054BE004F0E4A3F0A3F090054BE0CE
:100C8600B4150AE4F090054E04F0020E9D90054E50
:100C9600020E1690054C020E1F90054D020E2C906A
:100CA600054E020E377F3D126BE178BF7C047D0155
:100CB6007B017A0579567E007F041220D99005B112
:100CC600E0FFE4FCFDFE7808122207C004C005C060
:100CD60006C0079005B0E0FFE4FCFDFE7810122286
:100CE60007D003D002D001D000EF4BFBEE4AFAED5D
:100CF60049F9EC48F89005B2E0FFEB4FFFEAFEE950
:100D0600FDE8FC9004C31222847B017A0479BF12A9
:100D16003E3C5003020E9D126AE3900559E06409B9
:100D2600703D900558E06409702F900557E0B409AE
:100D360022900556E004F0E4A3F0A3F0900556E0F7
:100D4600B4150AE4F090055904F0020E9D90055979
:100D5600020E16900557020E1F900558020E2C9093
:100D66000559020E377F41126BE178BF7C047D0185
:100D76007B017A0579627E007F041220D99005B145
:100D8600E0FFE4FCFDFE7808122207C004C005C09F
:100D960006C0079005B0E0FFE4FCFDFE78101222C5
:100DA60007D003D002D001D000EF4BFBEE4AFAED9C
:100DB60049F9EC48F89005B2E0FFEB4FFFEAFEE98F
:100DC600FDE8FC9004C31222847B017A0479BF12E9
:100DD6003F745003020E9D126AE3900565E06409B4
:100DE600704C900564E064097039900563E0B409BD
:100DF60025900562E004F0E4A3F0A3F0900562E01C
:100E0600B4150AE4F090056504F0020E9D900565A0
:100E16007401F0020E9D900563E004F0E4A3F0A3D4
:100E2600F08074900564E004F0E4A3F08069900516
:100E360065E004F08061E4FF126C539006147401BF
:100E4600F09004E3E0B40124A3E0FF9005B2E0547F
:100E56000F2476F582E43403F583EFF07B017A0301
:100E660079769005017410F07D2080249004E4E0EA
:100E7600FF9005B2E0540F2446F582E43400F58372
:100E8600EFF07B017A0079469005017410F07D3011
:100E96007C157FA0125A61126CD11248E402374FBA
:056CEF00900614E0FF17
:016CF400227D
:066CF500900614EFF022EE
:10539600FFFFFFFFFFFFFFFFFFFFFFFFFFFFFFFF17
:1053A600FFFFFFFFFFFFFFFFFFFFFFFFFFFFFFFF07
:1053B600FFFFFFFFFFFFFFFFFFFFFFFFFFFFFFFFF7
:1053C600FFFFFFFFFFFFFFFFFFFFFFFFFFFFFFFFE7
:1053D600FFFFFFFFFFFFFFFFFFFFFFFFFFFFFFFFD7
:1053E600FFFFFFFFFFFFFFFFFFFFFFFFFFFFFFFFC7
:1053F600FFFFFFFFFFFFFFFFFFFFFFFFFFFFFFFFB7
:10540600FFFFFFFFFFFFFFFFFFFFFFFFFFFFFFFFA6
:10541600FFFFFFFFFFFFFFFFFFFFFFFFFFFFFFFF96
:10542600FFFFFFFFFFFFFFFFFFFFFFFFFFFFFFFF86
:036D5500DFFE223C
:10698B00AE07AF061EEF600C7FF5126D557FF5124B
:05699B006D5580EE22A5
:10697500D2B400D2B50000000000C2B4000000008F
:0669850000C2B500002273
:106A9000C2B400D2B50000000000D2B40000000073
:016AA00022D3
:105DD800E4FEEFA806088002C333D8FC30E704D2FB
:105DE800B48002C2B400D2B50000000000C2B50EF3
:105DF800EEB408DE0000D2B40000D2B500000030D6
:0C5E0800B404C20A8002D20AC2B5000035
:015E1400226B
:1064B900E4FFD2B4FE00C2B50000000000D2B5006E
:1064C90000EF25E0FF30B4010F00000EEEB408E53F
:0464D900C2B5000048
:0164DD00229C
:106AA100C2B4000000D2B50000000000C2B5000071
:016AB10022C2
:106AB200D2B4000000D2B50000000000C2B5000050
:016AC20022B1
:0F5A5200E0FCA3E0FD7B017408900501F07FA04C
:105A6100126975125DD8200A02C322ECFF125DD8BB
:105A7100200A02C322AF05125DD8200A02C322E424
:105A8100FD900501E0FFEDC39F50161220FFFF12AC
:105A91005DD8200A02C322740129F9E43AFA0D8083
:055AA100E0126A90D341
:015AA60022DD
:0F580A00E0FCA3E0FD7B019005367408F07FA061
:05581900900530EFF0E6
:10581E00126975E0FF125DD8200A02C322ECFF1256
:10582E005DD8200A02C322AF05125DD8200A02C33A
:10583E0022126975900530E004FF125DD8200A022D
:10584E00C322E4FD900536E014FFEDC39F50141201
:10585E0064B9EF122145126AA1740129F9E43AFAEA
:10586E000D80E11264B9EF122145126AB2126A90EC
:01587E00D356
:01587F002206
:0B469A009004EAEBF0A3EAF0A3E9F0C3
:1046A500E49004F9F0A3F09004EDF0A37420F0E495
:1046B500A3F0A3F09004ED7A0479F112580A90045E
:1046C500F5E0FCA3A3A3E4FFFEFDEC7079126C41B9
:1046D500BF02329004F5A3E0FDA3E0FEA3E054F091
:1046E500FFE4FC9004F51222849004EAE0FBA3E0C9
:1046F500FAA3E02404F9E43AFA12221AEF54F0FF7F
:10470500E4FC12226A9004EAE0FBA3E0FAA3E0F9D4
:1047150090000412223A9004F5E0F8A3E0F9A3E032
:10472500FAA3E0FBC31221F6703578417C057D01C3
:104735007B017A0479F1FE7F041220D9E4900545C6
:10474500F07F7AFE806E9004F9E07002A3E0700FAE
:104755009004EDE0FFA3E09004F9CFF0A3EFF09013
:1047650004EEE02408F09004EDE03400F09004F04D
:10477500E004F070069004EFE004F0C39004EFE06D
:10478500940250030246B99004F9E0FCA3E0FD90C1
:1047950004EAE0FBA3E0FAA3E0F9125A599004F900
:1047A500E07002A3E060097F797E00125E8B8009CC
:0A47B5007F7A7E00125E8BD322C3D0
:0147BF0022D7
:0B41E3009004EAEBF0A3EAF0A3E9F07F
:1041EE00E49004F9F0A3F09004ED7414F0A374209D
:1041FE00F0E4A3F0A3F09004ED7A0479F112580ADA
:10420E009004F5E0FCA3A3A3E4FFFEFDEC707C128A
:10421E006C41BF02329004F5A3E0FDA3E0FEA3E0E3
:10422E0054F0FFE4FC9004F51222849004EAE0FBC3
:10423E00A3E0FAA3E02404F9E43AFA12221AEF54A6
:10424E00F0FFE4FC12226A9004EAE0FBA3E0FAA37A
:10425E00E0F990000412223A9004F5E0F8A3E0F998
:10426E00A3E0FAA3E0FBC31221F67038784B7C056D
:10427E007D017B017A0479F1FE7F041220D9E4904E
:10428E00054FF07F7AFE125F9CD3229004F9E07006
:10429E0002A3E0700F9004EDE0FFA3E09004F9CFCD
:1042AE00F0A3EFF09004EEE02408F09004EDE0347B
:1042BE0000F09004F0E004F070069004EFE004F0DB
:1042CE00C39004F0E094209004EFE09400500302B9
:1042DE0042049004F9E0FCA3E0FD9004EAE0FBA3A5
:1042EE00E0FAA3E0F9125A599004F9E07002A3E043
:1042FE0060097F797E00125E8B80097F7A7E0012C4
:05430E005E8BD322C309
:014313002287
:0B3E3C009004EAEBF0A3EAF0A3E9F029
:103E4700E49004F9F0A3F09004ED7410F0A374204B
:103E5700F0E4A3F0A3F09004EDE0FCA3E0FD7B0108
:103E67007A0479F11258119004F5E0FCA3A3A3E4B6
:103E7700FFFEFDEC707C126C41BF02329004F5A38B
:103E8700E0FDA3E0FEA3E054F0FFE4FC9004F5128C
:103E970022849004EAE0FBA3E0FAA3E02404F9E417
:103EA7003AFA12221AEF54F0FFE4FC12226A900445
:103EB700EAE0FBA3E0FAA3E0F990000412223A90AB
:103EC70004F5E0F8A3E0F9A3E0FAA3E0FBC31221AD
:103ED700F6703878567C057D017B017A0479F1FE0E
:103EE7007F041220D9E490055AF07F7AFE125F9C76
:103EF700D3229004F9E07002A3E0700F9004EDE084
:103F0700FFA3E09004F9CFF0A3EFF09004EEE024D4
:103F170008F09004EDE03400F09004F0E004F07055
:103F2700069004EFE004F0C39004F0E0944090049E
:103F3700EFE094005003023E5D9004F9E0FCA3E03B
:103F4700FD9004EAE0FBA3E0FAA3E0F9125A5990C6
:103F570004F9E07002A3E060097F797E00125E8BAE
:0C3F670080097F7A7E00125E8BD322C39B
:013F7300222B
:0B3F74009004EAEBF0A3EAF0A3E9F0F0
:103F7F00E49004F9F0A3F09004ED7412F0A3742010
:103F8F00F0E4A3F0A3F09004EDE0FCA3E0FD7B01CF
:103F9F007A0479F11258119004F5E0FCA3A3A3E47D
:103FAF00FFFEFDEC707C126C41BF02329004F5A352
:103FBF00E0FDA3E0FEA3E054F0FFE4FC9004F51253
:103FCF0022849004EAE0FBA3E0FAA3E02404F9E4DE
:103FDF003AFA12221AEF54F0FFE4FC12226A90040C
:103FEF00EAE0FBA3E0FAA3E0F990000412223A9072
:103FFF0004F5E0F8A3E0F9A3E0FAA3E0FBC3122174
:10400F00F6703878627C057D017B017A0479F1FEC8
:10401F007F041220D9E4900566F07F7AFE125F9C30
:10402F00D3229004F9E07002A3E0700F9004EDE04A
:10403F00FFA3E09004F9CFF0A3EFF09004EEE0249B
:10404F0008F09004EDE03400F09004F0E004F0701C
:10405F00069004EFE004F0C39004F0E09440900465
:10406F00EFE094005003023F959004F9E0FCA3E0C9
:10407F00FD9004EAE0FBA3E0FAA3E0F9125A59908D
:10408F0004F9E07002A3E060097F797E00125E8B75
:0C409F0080097F7A7E00125E8BD322C362
:0140AB0022F2
:0B4B16009004C0EBF0A3EAF0A3E9F06C
:104B21009004CBE4F0A37420F078CF7C047D017B6A
:104B3100FF7A5379967E00FF1220D99004C0E0FBE2
:104B4100A3E0FAA3E0F912221AE4FBFAF9F8C3127E
:104B510021F670449004CDF0A3F09004CDE0FEA3C3
:104B6100E0FFC39480EE94004003024C1EEF7805F1
:104B7100C333CE33CED8F9FDAC067B017A0479CFAD
:104B81007420125A5B126AE39004CEE004F070CAFA
:104B91009004CDE004F080C2E49004CDF0A3F09045
:104BA10004CBE0FCA3E0FD7B017A0479C312581128
:104BB1009004C7E0FCE4FFFEFDEC703C9004C0E013
:104BC100FBA3E0FAA3E0F912221A9004C3E0F8A3D0
:104BD100E0F9A3E0FAA3E0FBC31221F6701AFE7F0D
:104BE100087DFF7B017A0479C31224579004CB7AA4
:104BF1000479C3125A5280259004CCE02408F09025
:104C010004CBE03400F09004CEE004F07006900490
:0E4C1100CDE004F0C39004CDE094024082C3D5
:014C1F002272
:0B47C0009004C0EBF0A3EAF0A3E9F0C6
:1047CB009004CB7414F0A37420F078CF7C047D019B
:1047DB007BFF7A5379B67E00FF1220D99004C0E09C
:1047EB00FBA3E0FAA3E0F912221AE4FBFAF9F8C3EF
:1047FB001221F670549004CDF0A3F09004CDE0FE9E
:10480B00A3E0FFC39408EE940040030248E2EF7864
:10481B0005C333CE33CED8F9FF9004CCE02FFD90F7
:10482B0004CBE03EFC7B017A0479CF900501742028
:10483B00F07FA0125A61126AE39004CEE004F0708C
:10484B00BA9004CDE004F080B2E49004CDF0A3F074
:10485B009004CBE0FCA3E0FD7B017A0479C31258F2
:10486B00119004C7E0FCE4FFFEFDEC703C9004C02B
:10487B00E0FBA3E0FAA3E0F912221A9004C3E0F8DC
:10488B00A3E0F9A3E0FAA3E0FBC31221F6701AFE32
:10489B007F087DFF7B017A0479C31224579004CBE8
:1048AB007A0479C3125A52802E9004CCE02408F07B
:1048BB009004CBE03400F09004CEE004F07006904E
:1048CB0004CDE004F0C39004CEE094209004CDE03E
:0848DB009400500302485BC386
:0148E30022B2
:0B4444009004C0EBF0A3EAF0A3E9F045
:10444F009004CB7410F0A37420F078CF7C047D011E
:10445F007BFF7A5379D67E00FF1220D99004C0E0FB
:10446F00FBA3E0FAA3E0F912221AE4FBFAF9F8C36E
:10447F001221F670549004CDF0A3F09004CDE0FE1D
:10448F00A3E0FFC39410EE9400400302456DEF7854
:10449F0005C333CE33CED8F9FF9004CCE02FFD9077
:1044AF0004CBE03EFC7B017A0479CF9005017420A8
:1044BF00F07FA0125A61126AE39004CEE004F0700C
:1044CF00BA9004CDE004F080B2E49004CDF0A3F0F4
:1044DF009004CBE0FCA3E0FD7B017A0479C3125872
:1044EF00119004C7E0FCE4FFFEFDEC70439004C0A4
:1044FF00E0FBA3E0FAA3E0F912221A9004C3E0F85C
:10450F00A3E0F9A3E0FAA3E0FBC31221F67021FEAA
:10451F007F087DFF7B017A0479C31224579004CB67
:10452F00E0FCA3E0FD7B017A0479C3125A59802E77
:10453F009004CCE02408F09004CBE03400F0900419
:10454F00CEE004F070069004CDE004F0C39004CEEA
:0F455F00E094409004CDE0940050030244DFC389
:01456E00222A
:0B456F009004C0EBF0A3EAF0A3E9F019
:10457A009004CB7412F0A37420F078CF7C047D01F0
:10458A007BFF7A5379F67E00FF1220D99004C0E0AF
:10459A00FBA3E0FAA3E0F912221AE4FBFAF9F8C342
:1045AA001221F670549004CDF0A3F09004CDE0FEF1
:1045BA00A3E0FFC39410EE94004003024698EF78FC
:1045CA0005C333CE33CED8F9FF9004CCE02FFD904B
:1045DA0004CBE03EFC7B017A0479CF90050174207C
:1045EA00F07FA0125A61126AE39004CEE004F070E0
:1045FA00BA9004CDE004F080B2E49004CDF0A3F0C8
:10460A009004CBE0FCA3E0FD7B017A0479C3125845
:10461A00119004C7E0FCE4FFFEFDEC70439004C077
:10462A00E0FBA3E0FAA3E0F912221A9004C3E0F82F
:10463A00A3E0F9A3E0FAA3E0FBC31221F67021FE7E
