:030000000245BDF9
:0C45BD00787FE4F6D8FD758121024604E9
:104D71001252C2124A2012571512574112580A12E2
:104D8100577412555012572575B10CE4F5B27F8254
:0C4D9100FE124D14120C3112004680F886
:030023000254DFA5
:0654DF00C0E0C083C082A2
:1054E50090045FE4F0309802C298309904C299C2E2
:0154F50009AD
:0754F600D082D083D0E03228
:03004300025581E2
:10558100C0E0E59A30E003539AFEE59A30E1055315
:075591009AFDC209D0E032CF
:09577F002009FDEFD209F5992281
:104CA800900431EBF0A3EAF0A3E9F0900431E0FBC3
:104CB800A3E0FAA3E0F91223F56017900431A3E406
:104CC80075F0011224D6A9F0FA1223F5FF12577FC6
:034CD80080D9225E
:095788002009FDEFD209F59B2276
:104CDB00900669EBF0A3EAF0A3E9F0900669E0FB1C
:104CEB00A3E0FAA3E0F91223F56017900669A3E499
:104CFB0075F0011224D6A9F0FA1223F5FF1257888A
:034D0B0080D9222A
:1052C200E5A2543FF5A253BAFE759850759A5075EF
:1052D200D7C875D6FE758E14438E01D2AC75AF0158
:0352E200D2AF2226
:0B48D100900003EBF0A3EAF0A3E9F075
:1048DC0090002E7401F0A37400F0A37406F0900005
:1048EC0003E0F9A3E0FAA3E0900431C9F0A3EAF0E5
:1048FC00A3E9F090002EE0F9A3E0FAA3E0900434D1
:10490C00C9F0A3EAF0A3E9F07B017A007931124AED
:0A491C00C27B017A007931024CA839
:101A3900616363756D756C6174655F6465636F641B
:101A49006572202564202E0D0A000000000000FFA9
:101A5900560401020E0F00FF00060203011500FFE4
:101A6900001E0304021900FF58EF0405031D00FFBF
:101A790058F40506041F00FF58F90607052000FF62
:101A890058FE0708062100FF59030809072600FF29
:101A99005908090A082A00FF590D0A0B092C00FFE9
:101AA90059120B0C0A2E00FF59170C0D0B2F00FFB2
:101AB900591C0D0E0C3000FF59210E010D3100FF8C
:101AC90059260F0F0F1001FF4B8A1010101101FF3B
:101AD9004E471111111201FF4E6F1212121301FF1D
:101AE900527A1313131401FF529E1414140F01FF99
:101AF9004E971516183502FF56521617153902FF5B
:101B090056641718163D02FF56761815174102FF3D
:101B19005688191A1C4503FF569A1A1B194903FFBF
:101B290056AC1B1C1A4D03FF56BE1C191B5103FF53
:101B390056D01D1E1E5204FF592B1E1D1D5304FF96
:101B490059301F1F1F1F05FF579A2020202006FF0D
:101B590057A22122255407FF59352223215507FF72
:101B6900593A2324225607FF593F2425235707FFB3
:101B790059442521245807FF59492627295908FF7F
:101B8900594E2728265A08FF59532829275B08FF49
:101B990059582926285C08FF595D2A2B2B5D09FF16
:101BA90057332B2A2A5E09FF59622C2D2D000AFF73
:101BB90059672D2C2C000AFF596C2E2E2E000BFF75
:101BC90055362F2F2F000CFF57AA303030000DFF4C
:101BD90057B2313131000EFF59713232323515FFAA
:101BE90053DA3333333215FF00263434343315FFD7
:101BF90053FC3535353415FF541E3636363916FF44
:101C09004EBF3737373616FF52E53838383716FFA3
:101C19004EE73939393816FF4F0F3A3A3A3D17FF2F
:101C29004F373B3B3B3A17FF53083C3C3C3B17FFC4
:101C39004F5F3D3D3D3C17FF4F873E3E3E4118FFFC
:101C49004FAF3F3F3F3E18FF532B4040403F18FFE7
:101C59004FD74141414018FF4FFF4242424519FFCA
:101C690050274343434219FF534E4444444319FF09
:101C7900504F4545454419FF5077464646491AFF96
:101C8900509F474747461AFF5371484848471AFF2C
:101C990050C7494949481AFF50EF4A4A4A4D1BFF64
:101CA90051174B4B4B4A1BFF53944C4C4C4B1BFF4E
:101CB900513F4D4D4D4C1BFF51674E4E4E511CFF30
:101CC900518F4F4F4F4E1CFF53B75050504F1CFF71
:101CD90051B7515151501CFF51DF525252521DFF01
:101CE90057BA535353531EFF57C25454545421FFE8
:101CF90057CA5555555522FF57D25656565623FFA2
:101D090057DA5757575724FF54FD5858585825FF45
:101D190057E25959595926FF52075A5A5A5A27FF11
:101D290057EA5B5B5B5B28FF57F25C5C5C5C29FFF5
:101D390057FA5D5D5D5D2AFF4C045E5E5E5E2BFFBA
:101D49004C735F5F5F5F5FFF588F0000000000000A
:101D5900000000000000000000000000000000007A
:0A1D69000000000000000000000070
:101D73004105C5004105EF004105C6004405CA0001
:101D83000000014405D2000000014405DB0000000F
:101D9300014405E5000000014405CE0000000144B4
:101DA30005D7000000014405E1000000014405EAF5
:101DB300000000014105D6014105E00C4105DF00AB
:101DC3004105E9004105EE004105F1024105F4003A
:101DD3004105F7004105F9004105F00B4105F3000A
:101DE3004105F6004105F8004105F2024105F50001
:0C1DF3004105C3014105FA014105C4018E
:10448F00E4900003F0A3F043907C53A007E5905411
:10449F007C641F7003024529125725E590547C64F4
:1044AF007C60771258BF43907C43A0F853A07FE500
:1044BF0090547C647C60639005C57401F0E5905462
:1044CF007CFF900003E4F0A3EFF0E0F8E4F0E89055
:1044DF000003F0E5A054F8FFA3E02FF0900003E0F5
:1044EF003400F0E0B4780DA3E0B478081258AD7F33
:1044FF00011258A1E590547CFFBF7CF8125725E5B7
:10450F0090547CFFBF7CF8E4FF1258A1E4FF1258CF
:0E451F00B9900003E0FEA3E0FF227E0F7FFFB5
:01452D00226B
:103EB400E4900001F0A3F0FF12448F900001EEF0B3
:103EC400A3EFF01258E3900001E0640F7003A3E045
:103ED400F46003023F7BEF64016003023F7B9005C3
:103EE400C6E070587BFF7A1A79399005EFE0FF90AD
:103EF4000006E4F0A3EFF01248D17BFF7A1A793977
:103F0400900631E0540FFF900006E4F0A3EFF012A6
:103F140048D1900631E0540FFFBF08089005EFE048
:103F240004F08005E49005EFF09005EFE0D3940AE7
:103F3400400A7F141258C5E49005EFF01258E99036
:103F44000631E0540F24FE601324FE601624FC6046
:103F54001E24077022900001745C800C9000017490
:103F6400748005900001746CF0A37478F080087478
:103F740078900001F0A3F0900001E0FEA3E08EF041
:103F84001225123F9B5C783F9E6C783FA174783F6A
:103F9400A4787800003FA77F03227F02227F0122BA
:053FA4007F00227FFFF9
:013FA90022F5
:100C3100E4FF900000F0123EB4EF147003020DE7E0
:100C410014700302127A147003020DC124036003AD
:100C51000216A99005C6E0FF6003B45F181258A7F9
:100C6100900000EFF0C3941450030216A99005C63A
:100C71007402020DBA9005C6E0FF6442600FEF6492
:100C810043600AEF64446005EF6445702D1258A774
:100C9100900000EFF0C3940A40657B017A0579CE9C
:100CA1001238CD5057125877BF010C7F807E001249
:100CB1004D14E4FF12587D020D8B9005C6E0FF64D0
:100CC10046600FEF6447600AEF64486005EF6449CE
:100CD10070301258A7900000EFF0C3940A40207BB7
:100CE100017A0579D7123B495012125877BF010C8E
:100CF1007F807E00124D14E4FF12587D020D8B029D
:100D01000D909005C6E0FF644A600FEF644B600AE6
:100D1100EF644C6005EF644D702E1258A7900000EF
:100D2100EFF0C3940A401F7B017A0579E112362363
:100D31005012125877BF010C7F807E00124D14E4CF
:100D4100FF12587D804480479005C6E0FF644E60E5
:100D51000FEF644F600AEF64506005EF6451704219
:100D61001258A7900000EFF0C3940A40227B017A49
:100D71000579EA1237785012125877BF010C7F803B
:100D81007E00124D14E4FF12587D125725802B90DE
:100D910005C6E075F008A42456F582E5F0341A0280
:100DA10016A19005C6E075F008A42456F582E5F079
:100DB100341AF583E4939005C6F01258AD0216A9D2
:100DC1009005C6E0B45F0C125889EF60061246C662
:100DD1000216A99005C6E075F008A42457F582E52E
:100DE100F0341A0216A19005C6E01224EC0E9A0FF7
:100DF1000EAC100EBC110ECC120EDC130EEE141143
:100E01005F1F11712012562F1244300F00320F1242
:100E1100330F24340F36350F48360F5A370F6C38DD
:100E21000F7E390F903A0FA23B0FB43C0FC63D0F16
:100E3100D83E0FEA3F0FFC40100E41102042103205
:100E410043104444105645106846107A47108C48A8
:100E5100109E4910B04A10C24B10D44C10E64D10F0
:100E6100F84E110A4F111C50112E51113F52114FC2
:100E71005311835411955511A55611B85711C958DD
:100E810011DA5911EB5A11FB5B120B5C121B5D124B
:100E91002C5E123F5F00001267900649E0B46305C3
:100EA100E4F002126790064902123A90064AE0B451
:100EB1000C0302115690064A02123A90064BE0B416
:100EC1001F0302115690064B02123A90064FE0B4EE
:100ED100070302115690064F02123A90064CE0B4F5
:100EE1001705E4F002126790064C02123A90064D83
:100EF100E0B43B05E4F002126790064D02123A900D
:100F010005CAE0B41405E4F00212679005CA0212A2
:100F11003A9005CBE0B40905E4F00212679005CBE5
:100F210002123A9005CCE0B40905E4F00212679090
:100F310005CC02123A9005CDE0B40905E4F00212A5
:100F4100679005CD02123A9005D2E0B41405E4F0A1
:100F51000212679005D202123A9005D3E0B4090556
:100F6100E4F00212679005D302123A9005D4E0B47E
:100F71000905E4F00212679005D402123A9005D5F2
:100F8100E0B40905E4F00212679005D502123A9027
:100F910005DBE0B41405E4F00212679005DB0212F0
:100FA1003A9005DCE0B40905E4F00212679005DC33
:100FB10002123A9005DDE0B40905E4F002126790EF
:100FC10005DD02123A9005DEE0B40905E4F00212F3
:100FD100679005DE02123A9005E5E0B41405E4F0ED
:100FE1000212679005E502123A9005E6E0B40905A0
:100FF100E4F00212679005E602123A9005E7E0B4C8
:101001000905E4F00212679005E702123A9005E83B
:10101100E0B40905E4F00212679005E802123A9083
:1010210005CEE0B41405E4F00212679005CE021279
:101031003A9005CFE0B40905E4F00212679005CFBC
:1010410002123A9005D0E0B40905E4F0021267906B
:1010510005D002123A9005D1E0B40905E4F002127C
:10106100679005D102123A9005D7E0B41405E4F077
:101071000212679005D702123A9005D8E0B409052B
:10108100E4F00212679005D802123A9005D9E0B453
:101091000905E4F00212679005D902123A9005DAC7
:1010A100E0B40905E4F00212679005DA02123A9001
:1010B10005E1E0B41405E4F00212679005E10212C3
:1010C1003A9005E2E0B40905E4F00212679005E206
:1010D10002123A9005E3E0B40905E4F002126790C8
:1010E10005E302123A9005E4E0B40905E4F00212C6
:1010F100679005E402123A9005EAE0B41405E4F0C1
:101101000212679005EA02123A9005EBE0B4090574
:10111100E4F00212679005EB02123A9005ECE0B49C
:101121000905E4F00212679005EC02123A9005ED10
:10113100E0B40904E4F080069005EDE004F09005C8
:10114100D6E0B401030212229005D6021264900582
:10115100E0E0B414030212649005E002123A900533
:10116100DFE0B46305E4F00212679005DF02123A92
:101171009005E9E0B46305E4F00212679005E90225
:10118100123A9005EEE0B40505E4F002126790050D
:10119100EE02123A9005F1E0B409030212649005DF
:1011A100F102123A9005F4E0700504F0021267E4CE
:1011B1009005F4F00212679005F7E0B40905E4F038
:1011C1000212679005F780719005F9E0B40705E414
:1011D100F00212679005F980609005F0E0B40B050C
:1011E100E4F00212679005F0804F9005F3E0B40B34
:1011F10004E4F080719005F3803F9005F6E0B40BB4
:1012010004E4F080619005F6802F9005F8E0B40BBE
:1012110004E4F080519005F8801F9005F2E0B401DC
:10122100057402F080409005F280389005F5E0B435
:101231002B04E4F080309005F5E004F080281241A1
:101241007080239005FAE0B401057402F0800690E5
:1012510005FA7401F09005C3E0B40104E4F08006DE
:101261009005C37401F09005C6E075F008A42454FC
:10127100F582E5F0341A0216A19005C6E01224ECBD
:10128100132D0F133C10134F11136212137213130A
:10129100841415981F15A62016802F166E301396EC
:1012A1003213A53313B43413C33513D23613E137D4
:1012B10013F03813FF39140E3A141D3B142C3C144F
:1012C1003B3D144A3E14593F14684014774114863B
:1012D1004214954314A44414B34514C24614D1478F
:1012E10014E04814EF4914FE4A150D4B151C4C151A
:1012F1002B4D153A4E15484F15575015665115751A
:101301005215855315B85415CA5515D95615EC57AC
:1013110015FD58160E59161B5A16285B16355C1604
:10132100455D16565E16695F00001691900649E00C
:1013310070030215AC90064902166490064AE0B4A7
:101341000106740CF002169190064A02166490068A
:101351004BE0B40106741FF002169190064B021681
:101361006490064FE0B4010302160390064F021683
:101371006490064CE070067417F002169190064CCA
:1013810002166490064DE07006743BF002169190CF
:10139100064D0216649005CAE0700302158C900593
:1013A100CA0216649005CBE070030215F29005CBDA
:1013B1000216649005CCE070030215F29005CC0290
:1013C10016649005CDE070030215F29005CD02166A
:1013D100649005D2E0700302158C9005D202166468
:1013E1009005D3E070030215F29005D302166490C4
:1013F10005D4E070030215F29005D402166490053D
:10140100D5E070030215F29005D50216649005DB54
:10141100E0700302158C9005DB0216649005DCE098
:1014210070030215F29005DC0216649005DDE07090
:10143100030215F29005DD0216649005DEE07003EB
:101441000215F29005DE0216649005E5E0700302D4
:10145100158C9005E50216649005E6E0700302150F
:10146100F29005E60216649005E7E070030215F2BA
:101471009005E70216649005E8E070030215F2900A
:1014810005E80216649005CEE0700302158C900504
:10149100CE0216649005CFE070030215F29005CFDD
:1014A1000216649005D0E070030215F29005D00297
:1014B10016649005D1E070030215F29005D1021671
:1014C100649005D7E0700302158C9005D70216646D
:1014D1009005D8E070030215F29005D802166490C9
:1014E10005D9E070030215F29005D9021664900542
:1014F100DAE070030215F29005DA0216649005E154
:10150100E0700302158C9005E10216649005E2E09B
:1015110070030215F29005E20216649005E3E07093
:10152100030215F29005E30216649005E4E07003EE
:101531000215F29005E40216649005EAE07002805B
:101541004A9005EA0216649005EBE070030215F279
:101551009005EB0216649005ECE070030215F29021
:1015610005EC0216649005EDE070030215F290059A
:10157100ED0216649005D6E0B4010302164C900505
:10158100D602168E9005E0E0B401067414F002163E
:10159100919005E00216649005DFE07002800C90E6
:1015A10005DF0216649005E9E070067463F0021627
:1015B100919005E90216649005EEE070067405F05D
:1015C1000216919005EE0216649005F1E0B4010255
:1015D100801F9005F10216649005F4E0700504F097
:1015E100021691E49005F4F00216919005F7E0706F
:1015F100067409F00216919005F780679005F9E0ED
:1016010070067407F00216919005F980569005F066
:10161100E0700280259005F080499005F3E07002AA
:1016210080189005F3803C9005F6E07002800B90E5
:1016310005F6802F9005F8E07005740BF08051904D
:1016410005F8801F9005F2E0B401057402F08040B6
:101651009005F280389005F5E07005742BF080302C
:101661009005F5E014F0802812424880239005FA95
:10167100E0B401057402F080069005FA7401F0905F
:1016810005C3E0B40104E4F080069005C37401F0E1
:101691009005C6E075F008A42455F582E5F0341AEA
:1016A100F583E4939005C6F09005C6E075F008A4B3
:1016B1002458F582E5F0341AF583E493FB74019321
:1016C100FA740293F99005C7EBF0A3EAF0A3E9F0ED
:0316D10002253FB0
:0D5725007F047E347DDCDDFEDEFADFF60061
:015732002254
:055811009005C6E0FF58
:01581600226F
:065817009005C6EFF0222F
:05581D009005D6E0FF3C
:015822002263
:055823009005E0E0FF2C
:01582800225D
:055829009005DFE0FF27
:01582E002257
:05582F009005E9E0FF17
:015834002251
:055835009005EEE0FF0C
:01583A00224B
:05583B009005F1E0FF03
:015840002245
:055841009005F4E0FFFA
:01584600223F
:055847009005F7E0FFF1
:01584C002239
:05584D009005F9E0FFE9
:015852002233
:055853009005F0E0FFEC
:01585800222D
:055859009005F3E0FFE3
:01585E002227
:05585F009005F6E0FFDA
:015864002221
:055865009005F8E0FFD2
:01586A00221B
:05586B009005F2E0FFD2
:015870002215
:055871009005F5E0FFC9
:01587600220F
:055877009005C5E0FFF3
:01587C002209
:06587D009005C5EFF022CA
:055883009005FAE0FFB2
:0158880022FD
:055889009005C3E0FFE3
:01588E0022F7
:105569000000000000000000000000000000000032
:0855790000000000000000002A
:101DFF005504933F065B4F666D7D077F6F777C3988
:101E0F005E797176385C733E4805B801020408109C
:101E1F002040804205C04000603004630000000095
:101E2F0000000000000000000000000000000000A3
:101E3F000000000000000000000000000000000093
:101E4F0000000000000000000000000060F004B877
:101E5F000000000000000000000000000000000073
:101E6F000000000000000000000000000000000063
:101E7F000000000000000000000000000000000053
:101E8F000000000000000000000000000000000043
:101E9F000000000000000000000000000000000033
:101EAF000000000000000000000000000000000023
:101EBF000000000000000000000000000000000013
:101ECF000000000000000000000000000000000003
:101EDF0000000000000000000000000000000000F3
:101EEF0000000000000000000000000000000000E3
:101EFF0000000000000000000000000000000000D3
:101F0F0000000000000000000000000000000000C2
:101F1F0000000000000000000000000000000000B2
:101F2F0000000000000000000000000000000000A2
:101F3F000000000000000000000000000000000092
:101F4F00410462004105C2005005A80101010101D1
:101F5F0001010101010101010101015004A801006A
:0E1F6F00030102010101010101010101010153
:104D9D00C282E4FDFCC280EF30E004D2818002C209
:104DAD008100000000D280EFC313FF0DBD00010C88
:0A4DBD00ED64084C70DFC280C28173
:014DC70022C9
:104DC800C283E4FDFCC280EF30E004D2818002C2DD
:104DD8008100000000D280EFC313FF0DBD00010C5D
:0A4DE800ED64084C70DFC280C28148
:014DF200229E
:104DF300C2CCE4FDFCC280EF30E004D2818002C269
:104E03008100000000D280EFC313FF0DBD00010C31
:0A4E1300ED64084C70DFC280C2811C
:014E1D002272
:0D000E00D282000000000000C282024D9D61
:0D574F00D283000000000000C283024DC89C
:0D575C00D2CC000000000000C2CC024DF3D2
:0543DC00E4900465F00F
:1043E10012584DAE077F4012000E7FC012000EE43E
:1043F100FB74632BF582E43404F583E0FF124D9DD9
:10440100746B2BF582E43404F583E0FF124D9D0BB0
:10441100EBB408DDEE2488FF12000ED2827F401239
:10442100574F7FC012574FE4FB74732BF582E4346E
:1044310004F583E0FF124DC8747B2BF582E434044C
:10444100F583E0FF124DC80BEBB408DDEE2488FFC5
:1044510012574FD2837F4012575C7FC012575CE4E2
:10446100FB74832BF582E43404F583E0FF124DF3F2
:10447100748B2BF582E43404F583E0FF124DF30BCA
:0D448100EBB408DDEE2488FF12575CD2CCAE
:01448E00220B
:104A2000E4900000F0E4FFE4FE900000E024B8F51C
:104A300082E43405F583E0FDEF75F008A42463F506
:104A400082E43404F583E5822EF582E43583F58330
:104A5000EDF00EEEB408D20FEFB406CB1243E17FB7
:104A60001E125640900000E004F0E0C3940840B5E8
:014A70002223
:10564000EFD39400400B7EFF7DFFDDFEDEFA1F806E
:01565000EF6A
:015651002236
:104E1E00E4FFE4FEEF75F008A42463F582E43404A5
:104E2E00F583E5822EF582E43583F583E4F00EEE0C
:084E3E00B408E10FEFB406DA3D
:014E46002249
:0A5769007F789004B8E4F0A3DFFCA1
:015773002213
:104C3E00E4FF125895EF6401702A124E1E90046222
:104C4E00E05403FF2463F582E43404F5837440F0EA
:104C5E001243E1E4FF12589B900462E004F0E0B4CA
:044C6E000402E4F068
:014C7200221F
:103DA100124E1E12473E900495E0900472F090046A
:103DB10093E0900471F0900649E0FF75F00A8424C5
:103DC10093F582E43404F583E0900470F0EF75F02C
:103DD1000A84749325F0F582E43404F583E09004B9
:103DE1006FF090046E7440F090064AE0FF75F00A9F
:103DF100842493F582E43404F583E090046DF0EFBC
:103E010075F00A84749325F0F582E43404F583E0B7
:103E110090046CF090046B7440F090064BE0FF75D9
:103E2100F00A842493F582E43404F583E090046A73
:103E3100F0EF75F00A84749325F0F582E43404F50B
:103E410083E0900469F090064FE02493F582E43416
:103E510004F583E0900468F090064CE0FF75F00AE9
:103E6100842493F582E43404F583E0900466F0EF52
:103E710075F00A84749325F0F582E43404F583E047
:103E8100900465F090064DE0FF75F00A842493F5E7
:103E910082E43404F583E0900464F0EF75F00A8461
:103EA100749325F0F582E43404F583E0900463F023
:033EB1000243E1E8
:1054A100AD07124E1E9004A2E0900464F074932D97
:0F54B100F582E43404F583E0900463F00243E1F4
:1054C000AD07124E1E9004A1E0900464F074932D79
:0F54D000F582E43404F583E0900463F00243E1D5
:1055F000124E1E900493E0900464F090046374379C
:04560000F00243E190
:1055AF00124E1E900493E0900464F09004A2E090D9
:0655BF000463F00243E169
:10559800AD07124E1E74932DF582E43404F583E0B2
:0755A800900463F00243E1EF
:104D4100AD07124E1EED75F00A842493F582E4340A
:104D510004F583E0900464F0ED75F00A8474932502
:104D6100F0F582E43404F583E0900463F00243E15A
:10481900AB07AA06124E1E7C007D64AF03AE0212DE
:10482900248174932FF58274043EF583E090046526
:10483900F07C007D0AAF03AE021224817C007D0A60
:1048490012248174932DF58274043CF583E090045D
:1048590064F0AE02AF037C007D0A12248174932DAB
:0F486900F58274043CF583E0900463F00243E1B0
:064878007B017A0579CAFC
:10487E00124E1E1223F52493F582E43404F583E0E0
:10488E00900466F090000112240E2493F582E43415
:10489E0004F583E0900465F090000212240E249338
:1048AE00F582E43404F583E0900464F09000031282
:1048BE00240E2493F582E43404F583E0900463F02F
:0348CE000243E1C1
:10336700124E1E9004FAE060179000437401F0A318
:103377007404F0A374FAF07B017A04799212431E65
:103387009004F4E060179000437401F0A37404F014
:10339700A374F4F07B017A04798E12431E9004EE35
:1033A700E060179000437401F0A37404F0A374EE77
:1033B700F07B017A04798A12431E9004E8E06017D3
:1033C7009000437401F0A37404F0A374E8F07B0148
:1033D7007A04798612431E9004E2E0601790004356
:1033E7007401F0A37404F0A374E2F07B017A04790A
:1033F7008212431E9004DCE060179000437401F0D2
:10340700A37404F0A374DCF07B017A04797E124381
:103417001E9004D6E060179000437401F0A3740473
:10342700F0A374D6F07B017A04797A12431E9004D4
:10343700D0E060179000437401F0A37404F0A37404
:10344700D0F07B017A04797612431E9004CAE060BB
:10345700179000437401F0A37404F0A374CAF07BBF
:10346700017A04797212431E9004C4E06017900039
:10347700437401F0A37404F0A374C4F07B017A04CD
:10348700796E12431E9004BEE060179000437401EA
:10349700F0A37404F0A374BEF07B017A04796A1276
:1034A700431E9004B8E060179000437401F0A374C2
:1034B70004F0A374B8F07B017A04796612431E22E4
:10431E00900040EBF0A3EAF0A3E9F0A3E0FBA3E0EA
:10432E00FAA3E0F990000112240E2493F582E434EE
:10433E0004F583E0FF900040E0FBA3E0FAA3E0F970
:10434E00EF12243B900043E0FBA3E0FAA3E0F990C8
:10435E00000212240E2493F582E43404F583E0FF68
:10436E00900040E0FBA3E0FAA3E0F990FFFFEF120C
:10437E00244D900043E0FBA3E0FAA3E0F990000384
:10438E0012240E2493F582E43404F583E0FF9000AA
:10439E0040E0FBA3E0FAA3E0F990FFFEEF12244DFC
:1043AE00900043E0FBA3E0FAA3E0F990000412248E
:1043BE000E2493F582E43404F583E0FF900040E090
:0E43CE00FBA3E0FAA3E0F990FFFDEF02244DFF
:10409500900034EBF0A3EAF0A3E9F0A3E0FBA3E082
:1040A500FAA3E0F91223F5FF900034E0FBA3E0FA50
:1040B500A3E0F9EF12243B900037E0FBA3E0FAA35D
:1040C500E0F990000112240EFF900034E0FBA3E01C
:1040D500FAA3E0F9900001EF12244D900037E0FBC0
:1040E500A3E0FAA3E0F990000212240EFF90003439
:1040F500E0FBA3E0FAA3E0F9900002EF12244D9053
:104105000037E0FBA3E0FAA3E0F990000312240EC8
:10411500FF900034E0FBA3E0FAA3E0F9900003EF81
:1041250012244D900037E0FBA3E0FAA3E0F99000DC
:104135000412240EFF900034E0FBA3E0FAA3E0F99B
:10414500900004EF12244D900037E0FBA3E0FAA3A2
:10415500E0F990000712240EFF900034E0FBA3E085
:0B416500FAA3E0F9900005EF02244DE2
:0F492600EF75F006A424ACF9740435F0FA7B01A8
:104935001223F590000612244D90000112240E90CA
:10494500000712244D90000212240E900008122434
:104955004D90000312240E90000912244D9000047E
:1049650012240E90000A12244D90000512240E9078
:05497500000B02244DBF
:0F497A00EE75F006A424B8F9740435F0FA7B0149
:1049890090000612240E12243B90000712240E9068
:10499900000112244D90000812240E9000021224E6
:1049A9004D90000912240E90000312244D90000A24
:1049B90012240E90000412244D90000B12240E9024
:0549C900000502244D71
:1034C70078387C007D017BFF7A5579697E007F061D
:1034D7001223CFE490003EF0A3F012584190003E33
:1034E700EFF012583590003FEFF012582F9000364A
:1034F700EFF0125829900037EFF01258B3900037C9
:10350700E0FE900036E0FDC39E500AEF9D4006EEB8
:103517006003E0701B900037E060030236229000E2
:1035270036E0FE7003023622EFD39E5003023622A6
:10353700E4900034F0900034E0FFC3940A5021EF88
:1035470075F006A424B8F582E43404F583E0700826
:10355700900034E0A3F08008900034E004F080D5B8
:10356700E4900034F0900034E0FFA3E075F006A487
:103577002FF582E435F0F583E58224B2F582E58301
:103587003404F583E0FE74382FF582E43400F583C4
:10359700EEF0900034E004F0E0B406C9900035E0A6
:1035A700900034F0900034E0FFD39401400B1249AF
:1035B70026900034E014F080EBE4900034F09000A3
:1035C70034E0FF2438F582E43400F583E0FE74B874
:1035D7002FF582E43404F583EEF0900034E004F034
:1035E700E0B406DA1233671243E1E4FF1258B990E8
:1035F700003EE0B401257B017A0479B89004B8E075
:10360700FD900044E4F0A3EDF09004BDE0540F906A
:0B3617000046F090003FE0FF12256528
:013622002285
:103C8000E490003AF0A3F012582F900035EFF012B4
:103C90005829900036EFF01258B3900037EFF01229
:103CA0005823900038EFF012581D900039EFF012B1
:103CB000583B90003BEFF0900035E0FFA3E0FEC3DF
:103CC0009F500EA3E09E4009EF6006900036E07022
:103CD0001A900035E06003023DA0A3E0FF700302EC
:103CE0003DA0A3E0D39F5003023DA0E4900034F038
:103CF000900038E014FF900034E0FEC39F500B1298
:103D0000497A900034E004F080E6900038E01475C1
:103D1000F006A4900034F0900038E075F006A4FF9F
:103D2000900034E0FDC39FE5F06480F87480985003
:103D30001474B82DF582E43404F583E4F090003473
:103D4000E004F080D21233671243E1E4FF1258B965
:103D50009004B8E07004FF025817900039E0640244
:103D6000703E900034F090003BE0FF900034E0C3E0
:103D70009F502D7B017A0479B89004B8E0FD900043
:103D800044E4F0A3EDF09004BDE0540F900046F041
:103D900090003AE0FF122565900034E004F080C600
:013DA0002200
:1046C600E4900002F0125823900002EFF0E490000C
:1046D60001F0900002E014FF900001E0FEC39F503D
:1046E6000B12497A900001E004F080E6900002E0A7
:1046F6001475F006A4900001F0900002E075F00633
:10470600A4FF900001E0FDC39FE5F06480F874808B
:1047160098501474B82DF582E43404F583E4F090CF
:104726000001E004F080D21233671243E19004B82E
:07473600E07004FF125817A8
:01473D002259
:1041700078037C007D017BFF7A55796F7E007F0696
:104180001223CF125823900002EFF0125823E4902C
:104190000001F0900001E0FEC39F5020EE75F00694
:1041A000A424B8F582E43404F583E070079000029B
:1041B000EEF08008900001E004F080D7E490000168
:1041C000F0900001E0FF24B8F582E43404F583E0C8
:1041D000FE74032FF582E43400F583EEF0900001C5
:1041E000E004F0E0B406DAE4900001F0900002E0B0
:1041F000FF900001E0FEC39F500B12497A9000012E
:10420000E004F080E7E4900001F0900001E0FF247A
:1042100003F582E43400F583E0FE900002E075F0DF
:1042200006A42FF582E435F0F583E58224B2F58209
:10423000E5833404F583EEF0900001E004F0E0B48F
:0842400006C81233670243E1D6
:1042480078037C007D017BFF7A5579757E007F06B7
:104258001223CF125823900002EFF0125823E49053
:104268000001F0900001E0FEC39F5020EE75F006BB
:10427800A424B8F582E43404F583E07007900002C2
:10428800EEF08008900001E004F080D7E49000018F
:10429800F0900001E0FFA3E075F006A42FF582E49A
:1042A80035F0F583E58224B2F582E5833404F5839D
:1042B800E0FE74032FF582E43400F583EEF09000FD
:1042C80001E004F0E0B406C9900002E0900001F0BB
:1042D800900001E0FFD39401400B124926900001A1
:1042E800E014F080EBE4900001F0900001E0FF247E
:1042F80003F582E43400F583E0FE74B82FF582E418
:104308003404F583EEF0900001E004F0E0B406DA3E
:064318001233670243E1CD
:0B303800900034EBF0A3EAF0A3E9F0F5
:10304300783D7C007D017BFF7A55797B7E007F068E
:103053001223CF12582390003BEFF0125823900015
:103063003CEFF0E490003AF090003CE0FF90003A2F
:10307300E0FEC39F400302314BEE75F006A4FFAEA2
:10308300F0900037E0FBA3E0FAA3E02FF9EA3EFA61
:1030930090000112240EFD900034E0FBA3E0FAA39C
:1030A300E0F990000112240E6D600302314290009A
:1030B30037E0FBA3E0FAA3E02FF9EA3EFA9000021F
:1030C30012240EFF900034E0FBA3E0FAA3E0F99092
:1030D300000212240E6F706790003AE075F006A4A8
:1030E300FFAEF0900037E0FBA3E0FAA3E02FF9EA8C
:1030F3003EFA90000312240EFD900034E0FBA3E09F
:10310300FAA3E0F990000312240EB50532900037BC
:10311300E0FBA3E0FAA3E02FF9EA3EFA90000412E1
:10312300240EFF900034E0FBA3E0FAA3E0F9900043
:103133000412240EB5070890003AE0A3F08009902A
:10314300003AE004F002306B90003BE090003AF06C
:1031530090003CE0FF90003AE0FEC39F5021EE75E3
:10316300F006A4FF900037E0FBA3E0FAA3E02FF9F9
:10317300EA35F0FA12498990003AE004F080D190E0
:10318300003CE0FF90003BE06F603DE490003AF0CC
:1031930090003CE024FFFFE434FFFE7C007D061238
:1031A300246F900037E0FBA3E0FAA3E02FF9EA3E97
:1031B300FAA3E07E0029F9EE3AFAE412243B9000E8
:1031C3003AE004F0E0B406C8900037E0FBA3E0FA6D
:0C31D300A3E0F91223F57004FF12581756
:0131DF0022CD
:10560400E4FF125883EFB40105124C3E8003123DAF
:04561400A10257692F
:05000600E4FF0254A11B
:05001E007F010254A166
:0558EF007F020254A13C
:0558F4007F030254A136
:0558F9007F040254A130
:0558FE007F050254A12A
:055903007F060254A123
:055908007F070254A11D
:05590D007F080254A117
:055912007F090254A111
:055917007F0A0254A10B
:05591C007F0B0254A105
:055921007F0C0254A1FF
:055926007F0D0254A1F9
:104B8A00125883EFB401057F01025817125895BFD6
:104B9A000108123DA17F0212589B125895BF0319B2
:104BAA00E4900472F0900471F0900470F090046F35
:0C4BBA00F01243E1E4FF12589B12452E5C
:014BC60022CC
:104E4700125895BF0108123DA17F0212589B1258B4
:104E570095BF0311E490046DF090046CF01243E1E8
:084E6700E4FF12589B02452EE6
:104E6F00125895BF0108123DA17F0212589B12588C
:104E7F0095BF0311E490046AF0900469F01243E1C6
:084E8F00E4FF12589B02452EBE
:10527A00125895BF0108123DA17F0212589B12587D
:10528A0095BF030DE4900468F01243E1E4FF12585D
:04529A009B02452E00
:10529E00125895BF0108123DA17F0212589B125859
:1052AE0095BF030DE4900466F01243DDE4FF12583F
:0452BE009B02452EDC
:104E9700125895BF0108123DA17F0212589B125864
:104EA70095BF0311E4900464F0900463F01243E1AA
:084EB700E4FF12589B02452E96
:105652007F011254C0E49005CAF0A3F0A3F0A304A2
:02566200F02234
:105664007F021254C0E49005D2F0A3F0A3F0A30487
:02567400F02222
:105676007F031254C0E49005DBF0A3F0A3F0A3046B
:02568600F02210
:105688007F041254C0E49005E5F0A3F0A3F0A3044E
:02569800F022FE
:10569A007F011254C0E49005CEF0A3F0A3F0A30456
:0256AA00F022EC
:1056AC007F021254C0E49005D7F0A3F0A3F0A3043A
:0256BC00F022DA
:1056BE007F031254C0E49005E1F0A3F0A3F0A3041D
:0256CE00F022C8
:1056D0007F041254C0E49005EAF0A3F0A3F0A30401
:0256E000F022B6
:05592B007F010254C0E1
:055930007F020254C0DB
:08579A00E4FF125829024D4101
:0857A200E4FF12582F024D41F3
:055935007F010254C0D7
:05593A007F020254C0D1
:05593F007F030254C0CB
:055944007F040254C0C5
:055949007F050254C0BF
:05594E007F010254C0BE
:055953007F020254C0B8
:055958007F030254C0B2
:05595D007F040254C0AC
:0E5733007F011254C012586B9005C2EFF02295
:055962007F020254C0A9
:055967007F010254C0A5
:05596C007F020254C09F
:10553600E4FFFEFDFC125791AC06AD077E277F10F7
:0A554600122481AC06AD07024819DB
:0857AA00E4FF12588902559832
:0857B200E4FF12588302559830
:055971007F0F0254A1AC
:1053DA00125895BF01081248787F0212589B12583A
:1053EA0095BF030DE4900466F01243E1E4FF1258FE
:0253FA009B22F4
:10002600125895BF01081248787F0212589B125841
:0D00360095BF03081243DCE4FF12589B2223
:1053FC00125895BF01081248787F0212589B125818
:10540C0095BF030DE4900464F01243E1E4FF1258DD
:02541C009B22D1
:10541E00125895BF01081248787F0212589B1258F5
:10542E0095BF030DE4900463F01243E1E4FF1258BC
:02543E009B22AF
:104EBF00125895BF010E7B017A0579D212487E7F79
:104ECF000212589B125895BF030DE4900466F0121E
:084EDF0043E1E4FF12589B229D
:1052E500125895BF010E7B017A0579D212487E7F4F
:1052F5000212589B125895BF03081243DCE4FF12B3
:03530500589B2290
:104EE700125895BF010E7B017A0579D212487E7F51
:104EF7000212589B125895BF030DE4900464F012F8
:084F070043E1E4FF12589B2274
:104F0F00125895BF010E7B017A0579D212487E7F28
:104F1F000212589B125895BF030DE4900463F012D0
:084F2F0043E1E4FF12589B224C
:104F3700125895BF010E7B017A0579DB12487E7FF7
:104F47000212589B125895BF030DE4900466F012A5
:084F570043E1E4FF12589B2224
:10530800125895BF010E7B017A0579DB12487E7F22
:105318000212589B125895BF03081243DCE4FF128F
:03532800589B226D
:104F5F00125895BF010E7B017A0579DB12487E7FCF
:104F6F000212589B125895BF030DE4900464F0127F
:084F7F0043E1E4FF12589B22FC
:104F8700125895BF010E7B017A0579DB12487E7FA7
:104F97000212589B125895BF030DE4900463F01258
:084FA70043E1E4FF12589B22D4
:104FAF00125895BF010E7B017A0579E512487E7F75
:104FBF000212589B125895BF030DE4900466F0122D
:084FCF0043E1E4FF12589B22AC
:10532B00125895BF010E7B017A0579E512487E7FF5
:10533B000212589B125895BF03081243DCE4FF126C
:03534B00589B224A
:104FD700125895BF010E7B017A0579E512487E7F4D
:104FE7000212589B125895BF030DE4900464F01207
:084FF70043E1E4FF12589B2284
:104FFF00125895BF010E7B017A0579E512487E7F25
:10500F000212589B125895BF030DE4900463F012DF
:08501F0043E1E4FF12589B225B
:10502700125895BF010E7B017A0579CE12487E7F13
:105037000212589B125895BF030DE4900466F012B4
:0850470043E1E4FF12589B2233
:10534E00125895BF010E7B017A0579CE12487E7FE9
:10535E000212589B125895BF03081243DCE4FF1249
:03536E00589B2227
:10504F00125895BF010E7B017A0579CE12487E7FEB
:10505F000212589B125895BF030DE4900464F0128E
:08506F0043E1E4FF12589B220B
:10507700125895BF010E7B017A0579CE12487E7FC3
:105087000212589B125895BF030DE4900463F01267
:0850970043E1E4FF12589B22E3
:10509F00125895BF010E7B017A0579D712487E7F92
:1050AF000212589B125895BF030DE4900466F0123C
:0850BF0043E1E4FF12589B22BB
:10537100125895BF010E7B017A0579D712487E7FBD
:105381000212589B125895BF03081243DCE4FF1226
:03539100589B2204
:1050C700125895BF010E7B017A0579D712487E7F6A
:1050D7000212589B125895BF030DE4900464F01216
:0850E70043E1E4FF12589B2293
:1050EF00125895BF010E7B017A0579D712487E7F42
:1050FF000212589B125895BF030DE4900463F012EF
:08510F0043E1E4FF12589B226A
:10511700125895BF010E7B017A0579E112487E7F0F
:105127000212589B125895BF030DE4900466F012C3
:0851370043E1E4FF12589B2242
:10539400125895BF010E7B017A0579E112487E7F90
:1053A4000212589B125895BF03081243DCE4FF1203
:0353B400589B22E1
:10513F00125895BF010E7B017A0579E112487E7FE7
:10514F000212589B125895BF030DE4900464F0129D
:08515F0043E1E4FF12589B221A
:10516700125895BF010E7B017A0579E112487E7FBF
:105177000212589B125895BF030DE4900463F01276
:0851870043E1E4FF12589B22F2
:10518F00125895BF010E7B017A0579EA12487E7F8E
:10519F000212589B125895BF030DE4900466F0124B
:0851AF0043E1E4FF12589B22CA
:1053B700125895BF010E7B017A0579EA12487E7F64
:1053C7000212589B125895BF03081243DCE4FF12E0
:0353D700589B22BE
:1051B700125895BF010E7B017A0579EA12487E7F66
:1051C7000212589B125895BF030DE4900464F01225
:0851D70043E1E4FF12589B22A2
:1051DF00125895BF010E7B017A0579EA12487E7F3E
:1051EF000212589B125895BF030DE4900463F012FE
:0851FF0043E1E4FF12589B227A
:0857BA00E4FF12581D0255988E
:0857C200E4FF125823024D41DF
:0857CA00E4FF12583502559866
:0857D200E4FF12583B02559858
:0857DA00E4FF1258410255984A
:1054FD00E4900003F0125847900003EFF075F003AD
:0D550D00A4FF125440900003E0FF025598E7
:0857E200E4FF12584D02559836
:10520700E4900003F0125853900003EFF0C3940AA0
:105217005005E0FF025598900003E0C3940B50033C
:065227000255F01255AF24
:01522D00225E
:0857EA00E4FF12585902559822
:0857F200E4FF12585F02559814
:0857FA00E4FF12586502559806
:104C0400E4900003F012586B900003EFF0125598F3
:104C14009005C2E0FF900003E06F601D1249CE9042
:104C24000003E09005C2F0125877BF010C7F807E2C
:094C340000124D14E4FF12587D3A
:014C3D002254
:104C7300E4900003F0125871900003EFF0124D41DD
:104C8300125877BF011E1257251256181257259036
:104C93000003E02442FFE433FE124D14125725E4CF
:044CA300FF12587D27
:014CA70022EA
:06588F001233670243E141
:101F7D0041065A0041065F0041065D0041065E00C4
:101F8D0041065B00410658004106600041065C00B9
:041F9D0041065900A0
:10571500438901758C3C758AB0D2AFD2A9D28C224F
:0E574100438910758DFF758B9CD2AFD2AB22C1
:03000B00023FAA07
:103FAA00C0E0C0F0C083C082C0D075D000C000C0DD
:0D3FBA0001C002C003C004C005C006C0075E
:103FC700900460E4F0A3F0C28D758C3C758AB01242
:103FD7005811900460EFF0125883900461EFF0904D
:103FE700065AE004F0E0B4050B90065FE004F09099
:103FF700065AE4F090065FE0C394044002E4F090B0
:10400700065DE0B40104A3E004F01258D7BF011421
:1040170090065BE004F0E0D3947840081258DD90F6
:10402700065BE4F0900460E0FFB45F15900658E08B
:1040370004F0E0B4140B900660E004F0900658E436
:10404700F0EF645F601290065CE004F0E0D394C880
:104057004006E4F0FF125817900460E07015A3E0E3
:10406700B40210900659E004F0E0C3940A4004B289
:03407700CDE4F0A5
:10407A00D007D006D005D004D003D002D001D0009A
:0B408A00D0D0D082D083D0F0D0E03244
:03001B00024A7125
:104A7100C0E0C0F0C083C082C0D075D000C000C00B
:0D4A810001C002C003C004C005C006C0078C
:104A8E00E4FF125811C28F758DFF758B9CEFB42EFB
:094A9E000512205180031231E0E1
:104AA700D007D006D005D004D003D002D001D00063
:0B4AB700D0D0D082D083D0F0D0E0320D
:0558950090065FE0FF3A
:01589A0022EB
:06589B0090065FEFF02211
:0658A10090065DEFF0220D
:0558A70090065EE0FF29
:0158AC0022D9
:0658AD00E490065EF0220B
:0558B300900660E0FF1B
:0158B80022CD
:0658B900900660EFF022F2
:0658BF00E490065CF022FB
:0658C50090065EEFF022E8
:0B1FA100480648140F09040C2200063B
:044B0C00E0FD7F8ABF
:104B1000D2A0EF54FEFFE4FEEF30E004D2A1800209
:104B2000C2A1D2A2C2A2EFC313FF0EEEB408E9E401
:104B3000FEED30E004D2A18002C2A1D2A2C2A2ED59
:0A4B4000C313FD0EEEB408E9C2A095
:014B4A002248
:104B4B00D2A0EF4401FFE4FDEF30E004D2A18002DC
:104B5B00C2A1D2A2C2A2EFC313FF0DEDB408E9E4C8
:104B6B00FDEEC313FE30A1054480FE8004EE547F9E
:0E4B7B00FED2A2C2A20DEDB408E7C2A0AF06A2
:014B89002209
:10452E00E4FF74482FF582E43406F583E0FE75F05F
:10453E000A84FDEE75F00A8474502FF582E4340679
:10454E00F583E5F0F0EDC454F0FE74502FF582E4DF
:10455E003406F583E02EF00FEFB408C6E4FD7F8E2F
:10456E00124B107D807F80124B10900651E0FD7F24
:10457E008C124B10A3E0FD7F88124B10A3E0FD7F41
:10458E0086124B10900657124B0C900654E0FD7F8E
:10459E0084124B10A3E0FD7F82124B10A3E0FD7F2F
:0F45AE0080124B10A3124B0C7D807F8E024B109E
:10473E007F8C124B4B900651EFF07F88124B4BA3A0
:10474E00EFF07F86124B4BA3EFF07F84124B4BA3FF
:10475E00EFF07F82124B4BA3EFF07F80124B4BEFAB
:10476E00547FA3F07F8A124B4BA3EFF0E4FF7450FB
:10477E002FF582E43406F583E0FEC4540FFDEE54AB
:10478E000FFE74482FF582E43406F583EEF0ED75D6
:10479E00F00AA4FE74482FF582E43406F583E02E69
:0647AE00F00FEFB408C893
:0147B40022E2
:0B577400C2A0C2A2E4FD7F80024B1027
:101FAC00410635004106340041063A0041063D0029
:101FBC004106440041062900410628004306410021
:101FCC00000042063B004642063F007842062500D0
:101FDC00004206230000420632000042063600464C
:101FEC0042063800784206460000410627004106AA
:101FFC00450041063E0041062A0041062E004306DC
:0A200C002B00000043062F00000027
:07580A00D2AFD2A8D2882220
:030003000258029E
:08580200C2A8208E02D28E32F2
:10551A00E4900635F0900634F090063DF090063A95
:0C552A00F0900644F0900628F0A3F02258
:1031E00030B20590063D800390063AE004F0900668
:1031F00029E004F0E0D394A07480948F4007C28E3D
:10320000D2A802551A900628E014603F1460751485
:1032100070030232CF2403600302335F90063DE067
:10322000D39400400302335F90063AE0FFC3900658
:103230003CE09F90063BE09400400302336690061A
:1032400028E004F0E490063DF0803490063DE0FF75
:10325000FD90063AE02DFDE433FCC3900640E09D6E
:1032600090063FE09C500302335FEFD3940150037C
:1032700002336630A802C2A8900628E004F0E49069
:10328000063AF02290063AE0D39400401390063DAF
:10329000E0900635F0E490063DF0900628E004F05A
:1032A00090063BE0FEA3E0FF900640E02FFF900673
:1032B0003FE03EFEEF7803CEC313CE13D8F9FF9064
:1032C000063DE0D39FE49E500302336602335F90D5
:1032D000063DE0D39400405C90063AE0FF9006344F
:1032E000F0E490063AF09006287402F0900644E06C
:1032F000131313541FFE2441F582E43406F583E0D2
:10330000FD25E0F0900635E0D39F400E74412EF588
:1033100082E43406F583E04401F0900644E004F0D2
:10332000E0D39417400EC28E12551A9006277401EE
:10333000F0D2A82290063BE0FEA3E0FF900640E01A
:103340002FFF90063FE03EFEEF7803CEC313CE136F
:10335000D8F9FF90063AE0D39FE49E40098000121E
:07336000551AD2A8C28E220B
:102CD500900627E064016003022E8DC2A890063E8F
:102CE500E0146027046003022E86900641E09006FA
:102CF5002BF0900642E090062CF0900643E09006FB
:102D05002DF090063E7401F0022E86900641E0FFFC
:102D150090062BE06F6003022E6E900642E0FE9057
:102D2500062CE06E6003022E6E900643E0FD9006D1
:102D35002DE06D6003022E6E90062FE06F7012A3DA
:102D4500E06E700DA3E0B5050890062AE0702080BE
:102D550000900641E090062FF0900642E090063084
:102D6500F0900643E0900631F09006457401F0902E
:102D7500062A7401F01258BFE4900035F090003532
:102D8500E0FFC394084003022E51EF75F020A42400
:102D950000FDE5F03406FC7B017A00793E90006485
:102DA5007420F07FA012465F125725E4900034F09E
:102DB500900034E0FFC394204003022E48743E2F58
:102DC500F582E43400F583E07070900035E075F02D
:102DD50020A4FF900034E07C002FFFEC35F0FEEFDF
:102DE5007803C333CE33CED8F92400FDEE3437FC57
:102DF5007B017A0079369000647408F07FA0124652
:102E05005F12572590062FE0FF90003BE0B5072A9B
:102E1500900630E0FF90003CE0B5071E900631E0DB
:102E2500C4540FFF90003DE0FEC4540FB5070B904E
:102E3500062E7401F01258BF8009900034E004F0AA
:102E4500022DB5900035E004F0022D82E490064194
:102E5500F0A3F0A3F090062BF0A3F0A3F07F0112EE
:102E6500587DE490063EF08018900641E090062BD0
:102E7500F0900642E090062CF0900643E090062D77
:082E8500F0D2A8E4900627F04A
:012E8D002222
:1020510030B20590063D800390063AE004F0900608
:1020610029E004F0E0D394A07480948F4006C28EDE
:10207100D2A88027900628E014605A147003022128
:10208100651470030221B0240360030222F7900655
:102091003DE0D394004007D2A8C28E02551A9006A3
:1020A10025E0FEA3E0FF7C007D0F12246FEF243CAE
:1020B100FFE43EFE90063AE0D39FEC9E50030222DD
:1020C100FE900628E004F090063BEEF0A3EFF0E46A
:1020D100A3F0022160900623E0FEA3E0FF7C007DD7
:1020E1000F12246FEF2478FFE43EFE90063DE0F9E5
:1020F100FD90063AE02DFDE433FCD3ED9FEC9E40CC
:1021010022E9701C900624E004F07006900623E09A
:1021110004F0900626E004F07006900625E004F035
:102121000222F7E9D3940150030222FE900623E034
:10213100FEA3E0FF7C007D0F12246FEF2478FFE403
:102141003E90063FF0A3EFF0E4900623F0A3F0A346
:10215100F0A3F030A802C2A8900628E004F0E490B1
:10216100063AF02290063AE0D39400401390063DDF
:10217100E0900635F0E490063DF0900628E004F08A
:1021810090063BE0FEA3E0FF900640E02FFF9006A3
:102191003FE03EFEEF7803CEC313CE13D8F9FF9094
:1021A100063DE0D39FE49E50030222FE0222F790F7
:1021B100063DE0D3940050030222CC90063AE0FFA2
:1021C100900634F0E490063AF09006287402F090FC
:1021D1000644E0131313541FFE2441F582E4340630
:1021E100F583E025E0F0900635E0FDD39F400E74C5
:1021F100412EF582E43406F583E04401F090064473
:10220100E004F0E0D3941750030222CCC28E900672
:1022110034E02DFEE433900632F0A3CEF012551ACD
:10222100900647E004F07006900646E004F0900640
:102231003FE0FEA3E0FF900639E02FF0900638E082
:102241003EF0E0C313FEA3E013FF90063FEEF0A3C0
:10225100EFF0900638EEF0A3EFF0D3900647E0944C
:1022610001900646E09400405F900636E0FEA3E050
:10227100FF90063BE0FCA3E0FD9FFFEC9EFED3EF49
:10228100941EEE94004015900637E09DFF900636AF
:10229100E09CFED3EF941EEE9400502C90063BE0A0
:1022A100FEA3E0FF900637E02FF0900636E03EF007
:1022B100E0C313FEA3E013FF90063BEEF0A3EFF0A3
:1022C100900636EEF0A3EFF0D2A82290063BE0FE96
:1022D100A3E0FF900640E02FFF90063FE03EFEEFB7
:1022E1007803CEC313CE13D8F9FF90063AE0D39FFB
:0E22F100E49E4009800012551AD2A8C28E2227
:0558CB00900645E0FF1E
:0158D00022B5
:0658D100E4900645F02200
:0558D70090062AE0FF2D
:0158DC0022A9
:0658DD00E490062AF0220F
:0558E30090062EE0FF1D
:0158E800229D
:0658E900E490062EF022FF
:08579100900632E0FEA3E0FFE8
:0157990022ED
:10546100000000000000000000000000000000003B
:10547100000000000000000000000000000000002B
:0B201600480661000000000000000010
:10004600780C7C007D017BFF7A5479617E007F20ED
:100056001223CFE490002CF0A3F0A3F0A3F0A3F0BA
:10006600A3F0A3F0A3F012581190002CEFF0125851
:100076006B90002DEFF012587190002EEFF0125891
:100086001D90002FEFF0125823900030EFF0125819
:1000960053900031EFF0125835900032EFF01258BD
:1000A6003B900033EFF0122CD51258CBEF64016071
:1000B60003020C2B90002CE024CE24FC4003020902
:1000C6005824FC4003020A0724FC4003020AA82421
:1000D600FC4003020B4924E47003020BF91470037D
:1000E6000203B5245F6003020C28E4FF1258B9909E
:1000F6000631E0FF54F060030201EA90062FE0FEAD
:10010600C4540FFD900031E0FC6D6008EC640A6099
:10011600030201EA90002DE0B4010CEF540F24A86D
:10012600F582E43405800D900631E0540F24A8F5DD
:1001360082E43404F583E0900004F090062FE0FF9B
:10014600900005EDF0EF540FA3F0900630E0FFC4E9
:10015600540F900007F0EF540FA3F0A3EEF09006B3
:1001660030E090000AF0900631E090000BF090002D
:1001760004E0FF64336042EF603FE4900002F090D9
:100186000033E0FF900002E0C39F50307B017A000D
:100196007904900004E0FD900044E4F0A3EDF090B3
:1001A6000631E0540F900046F0900032E0FF122531
:1001B60065900002E004F080C602048F124E1E9085
:1001C60000377401F0A37400F0A37404F07B017A85
:1001D6000479B81240951233671243E17F5F1258D3
:1001E60017020C28E4900001F0900001E0FFC39490
:1001F600304003020C28EF75F020A4FDACF07B0123
:100206007A00790C9000647420F07FA012465F1289
:100216005725E4900000F0900000E0FFC3942040D2
:10022600030203AC740C2FF582E43400F583E0601E
:10023600030203A3900001E075F020A4FF900000E4
:10024600E07C002FFFEC35F0FEEF7803C333CE33AE
:10025600CED8F92400FDEE3407FC7B017A00790440
:100266009000647408F07FA012465F125725900034
:100276002DE06401602B90062FE0FF900009E0B5A9
:10028600071F900630E0FF90000AE0B507139006BE
:1002960031E0C4540FFF90000BE0FEC4540F6F60B2
:1002A6003890002DE0640160030203A390062FE05E
:1002B600FF900009E06F60030203A3900630E0FFA1
:1002C60090000AE06F60030203A3900631E0FF90FE
:1002D600000BE06F60030203A3900004E0C39432B6
:1002E600502790002DE0900631B4010CE0540F2405
:1002F600A8F582E43405800AE0540F24A8F582E4C8
:100306003404F583E0900004F0900004E0FF6433C9
:100316006042EF603FE4900002F0900033E0FF900F
:100326000002E0C39F504C7B017A007904900004E0
:10033600E0FD900044E4F0A3EDF0900631E0540FA8
:10034600900046F0900032E0FF122565900002E032
:1003560004F080C69000377401F0A37404F0A3740F
:10036600B8F07B017A0079041230381233671243F1
:10037600E18033124E1E9000377401F0A37400F032
:10038600A37404F07B017A0479B81240951233679E
:100396001243E17F5F1258171258D180099000006E
:1003A600E004F002021D900001E004F00201EFE417
:1003B600FF1258B9900631E0FF54F0600302062898
:1003C60090062FE0FEC4540FFD900031E0FC6D60F6
:1003D60008EC640A600302062890002DE0B4010CC4
:1003E600EF540F24A8F582E43405800D900631E021
:1003F600540F24A8F582E43404F583E0900004F059
:1004060090062FE0FF900005EDF0EF540FA3F0905B
:100416000630E0FFC4540F900007F0EF540FA3F02E
:10042600A3EEF0900630E090000AF0900631E090DE
:10043600000BF090002FE064016003020544900079
:1004460004E0FF64336042EF603FE4900002F09006
:100456000033E0FF900002E0C39F50477B017A0023
:100466007904900004E0FD900044E4F0A3EDF090E0
:100476000631E0540F900046F0900032E0FF12255E
:1004860065900002E004F080C69000377401F0A386
:100496007404F0A374B8F07B017A00790412303842
:1004A600020616900005E0FF9004B9E06F702690F2
:1004B6000006E0FF9004BAE06F701A900007E0FFB4
:1004C6009004BBE0B5070E900008E0FF9004BCE086
:1004D600B50702804F900030E0900002F0900002D5
:1004E600E0FFD39401401AEF75F006A424ACF9742A
:1004F6000435F0FA7B01124935900002E014F080D1
:10050600DCE4900002F0900002E0FFC39406501471
:1005160074B82FF582E43404F583E4F0900002E029
:1005260004F080E29000377401F0A37400F0A37425
:1005360004F07B017A0479B8124095020616900001
:100546002FE064026003020C28900003F090003054
:10055600E0FF900003E0FEC39F4003020C28EE7507
:10056600F006A424B8F582E43404F583E0600302BF
:10057600061FEE75F006A424B3F582E43404F58371
:10058600E0FF900005E0FEEF6E705F900003E0FF75
:1005960075F006A424B4F582E43404F583E0FE90F5
:1005A6000006E0FDEE6D7042EF75F006A424B5F589
:1005B60082E43404F583E0FF900007E0FEEF6E70FE
:1005C60029900003E0FF75F006A424B6F582E43412
:1005D60004F583E0FE900008E0FDEEB5050CEF752E
:1005E600F006A424B2F97404800D900003E075F0BF
:1005F60006A424B8F9740435F0FA7B01C003900010
:1006060037EBF0A37400F0A37404F0D00312409506
:100616001233671243E1020C28900003E004F00253
:100626000553E4900001F0900001E0FFC3943040D0
:1006360003020C28EF75F020A4FDACF07B017A00D4
:10064600790C9000647420F07FA012465F12572543
:10065600E4900000F0900000E0FFC3942040030205
:10066600094F740C2FF582E43400F583E060030231
:100676000946900001E075F020A4FF900000E07CA0
:10068600002FFFEC35F0FEEF7803C333CE33CED820
:10069600F92400FDEE3407FC7B017A007904900012
:1006A600647408F07FA012465F12572590002DE073
:1006B6006401602B90062FE0FF900009E0B5071F4C
:1006C600900630E0FF90000AE0B50713900631E08F
:1006D600C4540FFF90000BE0FEC4540F6F603890B7
:1006E600002DE06401600302094690062FE0FF90AA
:1006F6000009E06F6003020946900630E0FF9000B3
:100706000AE06F6003020946900631E0FF90000B95
:10071600E06F6003020946900004E0C3943250275C
:1007260090002DE0900631B4010CE0540F24A8F59A
:1007360082E43405800AE0540F24A8F582E43404E8
:10074600F583E0900004F090002FE064016003025E
:10075600085E900004E0FF64336042EF603FE4907F
:100766000002F0900033E0FF900002E0C39F504D7E
:100776007B017A007904900004E0FD900044E4F0E7
:10078600A3EDF0900631E0540F900046F090003251
:10079600E0FF122565900002E004F080C690003765
:1007A6007401F0A37404F0A374B8F07B017A0079A5
:1007B600041230381233671243E102094F900005E4
:1007C600E0FF9004B9E06F7026900006E0FF900409
:1007D600BAE06F701A900007E0FF9004BBE0B5071F
:1007E6000E900008E0FF9004BCE0B50702804F9031
:1007F6000030E0900002F0900002E0FFD394014048
:100806001AEF75F006A424ACF9740435F0FA7B01EE
:10081600124935900002E014F080DCE4900002F00A
:10082600900002E0FFC39406501474B82FF582E4DA
:100836003404F583E4F0900002E004F080E29000D6
:10084600377401F0A37400F0A37404F07B017A04FA
:1008560079B812409502093090002FE064026003D7
:10086600020941900003F0900030E0FF900003E0A1
:10087600FEC39F4003020941EE75F006A424B8F5B5
:1008860082E43404F583E06003020938EE75F0066D
:10089600A424B3F582E43404F583E0FF900005E078
:1008A600FEEF6E705F900003E0FF75F006A424B4BF
:1008B600F582E43404F583E0FE900006E0FDEE6D7B
:1008C6007042EF75F006A424B5F582E43404F5838E
:1008D600E0FF900007E0FEEF6E7029900003E0FF56
:1008E60075F006A424B6F582E43404F583E0FE90A0
:1008F6000008E0FDEEB5050CEF75F006A424B2F98C
:100906007404800D900003E075F006A424B8F97411
:100916000435F0FA7B01C003900037EBF0A37400B6
:10092600F0A37404F0D0031240951233671243E12A
:100936008009900003E004F002086D1258D1800986
:10094600900000E004F002065B900001E004F00273
:10095600062D7F35125817900631E0540F90066128
:10096600F09005CAE0900662F09005CBE090066331
:10097600F09005CCE0900664F09005CDE090066519
:10098600F090062FE0900666F0900630E09006673D
:10099600F090002DE0900631B40103E08003E054AE
:1009A600F0900668F07B017A067961122E8E40037C
:1009B600020C281257259005CDE06409703D90057C
:1009C600CCE06409702F9005CBE0B409229005CAEB
:1009D600E004F0E4A3F0A3F09005CAE0B4150AE43D
:1009E600F09005CD04F0020C289005CD020BD490B2
:1009F60005CB020BDC9005CC020BE99005CD020B72
:100A0600F47F39125817900631E0FE540F900661B4
:100A1600F09005D2E0900662F09005D3E090066370
:100A2600F09005D4E0900664F09005D5E090066558
:100A3600F090062FE0900666F0900630E09006678C
:100A4600F0EE54F0A3F07B017A067961122B184080
:100A560003020C281257259005D5E06409703D90D5
:100A660005D4E06409702F9005D3E0B409229005FF
:100A7600D2E004F0E4A3F0A3F09005D2E0B4150AA6
:100A8600E4F09005D504F0020C289005D5020BD4AD
:100A96009005D3020BDC9005D4020BE99005D50234
:100AA6000BF47F3D1258179006617434F09005DB05
:100AB600E0900662F09005DCE0900663F09005DDBC
:100AC600E0900664F09005DEE0900665F090062F53
:100AD600E0900666F0900630E0900667F0900631EA
:100AE600E054F0900668F07B017A06796112278659
:100AF6004003020C281257259005DEE06409703D7C
:100B06009005DDE06409702F9005DCE0B4092290C1
:100B160005DBE004F0E4A3F0A3F09005DBE0B415F8
:100B26000AE4F09005DE04F0020C289005DE020BC4
:100B3600D49005DC020BDC9005DD020BE99005DEA6
:100B4600020BF47F411258179006617433F090053A
:100B5600E5E0900662F09005E6E0900663F0900509
:100B6600E7E0900664F09005E8E0900665F09006F0
:100B76002FE0900666F0900630E0900667F090064B
:100B860031E054F0900668F07B017A06796112290B
:100B96004F4003020C281257259005E8E0640970BF
:100BA6004A9005E7E0640970379005E6E0B409234A
:100BB6009005E5E004F0E4A3F0A3F09005E5E0B4C9
:100BC6001509E4F09005E804F080579005E87401F3
:100BD600F0804F9005E6E004F0E4A3F0A3F0804235
:100BE6009005E7E004F0E4A3F080379005E8E00420
:100BF600F0802F90002DE0B40112A3E0FF900631A3
:100C0600E0540F24A8F582E43405801290002EE00B
:100C1600FF900631E0540F24A8F582E43404F583EE
:0B0C2600EFF01258D1123C800234C7DE
:10548100FFFFFFFFFFFFFFFFFFFFFFFFFFFFFFFF2B
:10549100FFFFFFFFFFFFFFFFFFFFFFFFFFFFFFFF1B
:10202100602005FB0000000000000000000000002F
:10203100000000000000000000000000000000009F
:0F2041000000000048061B000000000000000027
:03597600DFFE222F
:1055DB00AE07AF061EEF600C7FF51259767FF51202
:0555EB00597680EE225C
:1055C500D2B400D2B50000000000C2B40000000053
:0655D50000C2B500002237
:1056E200C2B400D2B50000000000D2B40000000035
:0156F2002295
:104BC700E4FEEFA806088002C333D8FC30E704D21E
:104BD700B48002C2B400D2B50000000000C2B50E16
:104BE700EEB408DE0000D2B40000D2B500000030F9
:0C4BF700B404C20A8002D20AC2B5000059
:014C0300228E
:10525500E4FFD2B4FE00C2B50000000000D2B500E4
:1052650000EF25E0FF30B4010F00000EEEB408E5B5
:04527500C2B50000BE
:015279002212
:1056F300C2B4000000D2B50000000000C2B5000033
:015703002283
:10570400D2B4000000D2B50000000000C2B5000011
:015714002272
:1047B500900004E075F020A42400FDE5F03406FC2B
:0E47C5007A0579FB7B01742090003FF07FA005
:1047D3001255C5124BC7200A02C322ECFF124BC766
:1047E300200A02C322AF05124BC7200A02C322E4E8
:1047F300FD90003FE0FFEDC39F50161223F5FF121B
:104803004BC7200A02C322740129F9E43AFA0D8046
:05481300E01256E2D3A3
:01481800227D
:10464900EF75F020A4FDACF07A0579FB74207B01AD
:06465900900064F07FA058
:05465F0090005EEFF089
:104664001255C5E0FF124BC7200A02C322ECFF1209
:104674004BC7200A02C322AF05124BC7200A02C34C
:10468400221255C590005EE004FF124BC7200A02B7
:10469400C322E4FD900064E014FFEDC39F501412A4
:1046A4005255EF12243B1256F3740129F9E43AFAF5
:1046B4000D80E1125255EF12243B1257041256E2B8
:0146C400D322
:0146C50022D2
:0B2E8E00900034EBF0A3EAF0A3E9F0A1
:102E9900E4A3F0A3F0900037F0900037E0FFC3946B
:102EA900384003022F82124649125725E490003810
:102EB900F0900038E0FFC394204003022F7974FB9F
:102EC9002FF582E43405F583E06003022F7090004A
:102ED90037E075F020A4FFA3E07C002FFFEC35F06C
:102EE900FEEF7803C333CE33CED8F92400FDEE3498
:102EF90007FC7A06791B7408124657125725900069
:102F090034E0FBA3E0FAA3E0F990000512240EFFD8
:102F1900900620E06F705090000612240EFF900674
:102F290021E06F704290000712240EFF900622E004
:102F39006F703490061CE09005CAF090061DE09071
:102F490005CBF090061EE09005CCF090061FE090AE
:102F590005CDF0125877BF010C7F817E00124D1408
:102F6900E4FF12587DC322900038E004F0022EBA23
:102F7900900037E004F0022EA2E4900037F09000B0
:102F890037E0FFC3942040030230361246491257F6
:102F990025E4900038F0900038E0FFC39420400306
:102FA90002302D74FB2FF582E43405F583E0606B64
:102FB900900037E075F020A4FFA3E07C002FFFEC20
:102FC90035F0FEEF7803C333CE33CED8F92400FDB4
:102FD900EE3407FC900034E0FBA3E0FAA3E0F974B7
:102FE900081247CD125725900038E024FBF582E4FA
:102FF9003405F583E4F0900037E075F020A4FDACCA
:10300900F01247C5125725125877BF010C7F807EF1
:1030190000124D14E4FF12587DD322900038E004C9
:0E302900F0022F9F900037E004F0022F87C3C3
:013037002276
:0B2B1800900034EBF0A3EAF0A3E9F01A
:102B2300E4A3F0A3F0900037F0900037E0FFC394E4
:102B3300384003022C14124649125725E4900038FA
:102B4300F0900038E0FFC394204003022C0B74FB89
:102B53002FF582E43405F583E06003022C02900034
:102B630037E075F020A4FFA3E07C002FFFEC35F0E5
:102B7300FEEF7803C333CE33CED8F92400FDEE3411
:102B830007FC7B017A06791B9000647408F07FA030
:102B930012465F125725900034E0FBA3E0FAA3E04E
:102BA300F990000512240EFF900620E06F705090FC
:102BB300000612240EFF900621E06F70429000077A
:102BC30012240EFF900622E06F703490061CE090F2
:102BD30005D2F090061DE09005D3F090061EE0901C
:102BE30005D4F090061FE09005D5F0125877BF0189
:102BF3000C7F817E00124D14E4FF12587DC3229096
:102C03000038E004F0022B44900037E004F0022B7C
:102C13002CE4900037F0900037E0FFC394084003A2
:102C2300022CD3EF75F020A42400FDE5F03406FC5C
:102C3300124651125725E4900038F0900038E0FF17
:102C4300C394204003022CCA74FB2FF582E434059D
:102C5300F583E06069900037E075F020A4FFA3E0FE
:102C63007C002FFFEC35F0FEEF7803C333CE33CE79
:102C7300D8F92400FDEE3437FC900034E0FBA3E0E8
:102C8300FAA3E0F990003F7408F07FA01247D31233
:102C93005725900038E024FBF582E43405F583E4FE
:102CA300F09000371247B8125725125877BF010C1E
:102CB3007F807E00124D14E4FF12587DD3229000D2
:102CC30038E004F0022C3E900037E004F0022C19A7
:012CD300C33D
:012CD40022DD
:0B278600900034EBF0A3EAF0A3E9F0B0
:10279100E4A3F0A3F0900037F0900037E0FFC3947A
:1027A100384003022882124649125725E490003826
:1027B100F0900038E0FFC39420400302287974FBB5
:1027C1002FF582E43405F583E06003022870900060
:1027D10037E075F020A4FFA3E07C002FFFEC35F07B
:1027E100FEEF7803C333CE33CED8F92400FDEE34A7
:1027F10007FC7B017A06791B9000647408F07FA0C6
:1028010012465F125725900034E0FBA3E0FAA3E0E3
:10281100F990000512240EFF900620E06F70509091
:10282100000612240EFF900621E06F70429000070F
:1028310012240EFF900622E06F703490061CE09087
:1028410005DBF090061DE09005DCF090061EE0909F
:1028510005DDF090061FE09005DEF0125877BF010C
:102861000C7F817E00124D14E4FF12587DC322902B
:102871000038E004F00227B2900037E004F00227AC
:102881009AE4900037F0900037E0FFC394084003CA
:1028910002294DEF75F020A42400FDE5F03404FC7D
:1028A100124651125725E4900038F0900038E0FFAD
:1028B100C39420400302294474FB2FF582E43405BC
:1028C100F583E06075900037E075F020A4FFA3E088
:1028D1007C002FFFEC35F0FEEF7803C333CE33CE0F
:1028E100D8F92400FDEE3427FC900034E0FBA3E08E
:1028F100FAA3E0F990003F7408F07FA01247D312C9
:102901005725900038E024FBF582E43405F583E493
:10291100F0900037E075F020A42400FDE5F03404C8
:102921001247C4125725125877BF010C7F807E00D1
:10293100124D14E4FF12587DD322900038E004F0C8
:0D2941000228AC900037E004F0022887C3A4
:01294E002266
:0B294F00900034EBF0A3EAF0A3E9F0E5
:10295A00E4A3F0A3F0900037F0900037E0FFC394AF
:10296A00384003022A4B124649125725E490003890
:10297A00F0900038E0FFC394204003022A4274FB1F
:10298A002FF582E43405F583E06003022A399000CA
:10299A0037E075F020A4FFA3E07C002FFFEC35F0B0
:1029AA00FEEF7803C333CE33CED8F92400FDEE34DC
:1029BA0007FC7B017A06791B9000647408F07FA0FB
:1029CA0012465F125725900034E0FBA3E0FAA3E019
:1029DA00F990000512240EFF900620E06F705090C7
:1029EA00000612240EFF900621E06F704290000745
:1029FA0012240EFF900622E06F703490061CE090BD
:102A0A0005E5F090061DE09005E6F090061EE090C0
:102A1A0005E7F090061FE09005E8F0125877BF012D
:102A2A000C7F817E00124D14E4FF12587DC3229060
:102A3A000038E004F002297B900037E004F0022914
:102A4A0063E4900037F0900037E0FFC39408400336
:102A5A00022B16EF75F020A42400FDE5F03405FCE6
:102A6A00124651125725E4900038F0900038E0FFE2
:102A7A00C394204003022B0D74FB2FF582E4340526
:102A8A00F583E06075900037E075F020A4FFA3E0BD
:102A9A007C002FFFEC35F0FEEF7803C333CE33CE44
:102AAA00D8F92400FDEE342FFC900034E0FBA3E0BB
:102ABA00FAA3E0F990003F7408F07FA01247D312FE
:102ACA005725900038E024FBF582E43405F583E4C9
:102ADA00F0900037E075F020A42400FDE5F03405FD
:102AEA001247C4125725125877BF010C7F807E0007
:102AFA00124D14E4FF12587DD322900038E004F0FE
:0D2B0A00022A75900037E004F0022A50C343
:012B1700229B
:0B38CD00900001EBF0A3EAF0A3E9F08B
:1038D800E4A3F0A3F0900004F0900004E0FFC39488
:1038E800204003023A0B124649125725E49000057E
:1038F800F0900005E0FFC3942040030239F19000E6
:1039080001E0FBA3E0FAA3E0F91223F57028900088
:103918000112240E702090000212240E70189000DC
:103928000312240E701074FB2FF582E43405F5831E
:1039380074FFF00239E8900005E0FD24FBF582E40D
:103948003405F583E060030239E8900004E075F07F
:1039580020A47C002DFFEC35F0FEEF7803C333CEB6
:1039680033CED8F92400FDEE3407FC7B017A0679C2
:103978001B9000647408F07FA012465F12572590D0
:103988000001E0FBA3E0FAA3E0F91223F5FF90069B
:103998001CE06F704B90000112240EFF90061DE092
:1039A8006F703D90000212240EFF90061EE06F70AB
:1039B8002F90000312240EFF90061FE0B5072190F8
:1039C8000005E024FBF582E43405F58374FFF090EC
:1039D8000004E075F020A4FDACF01247C51257258D
:1039E800900005E004F00238F9900004E075F0203A
:1039F800A4FDACF01247C5125725900004E004F06E
:043A08000238E1D3CC
:013A0C002297
:0B3B4900900001EBF0A3EAF0A3E9F00C
:103B5400E4A3F0A3F0900004F0900004E0FFC39409
:103B6400084003023C7EEF75F020A42400FDE5F03C
:103B74003406FC124651125725E4900005F09000DB
:103B840005E0FFC394204003023C6F900001E0FB7A
:103B9400A3E0FAA3E0F91223F5702890000112249F
:103BA4000E702090000212240E701890000312244C
:103BB4000E701074FB2FF582E43405F58374FFF066
:103BC400023C66900005E0FD24FBF582E43405F533
:103BD40083E06003023C66900004E075F020A47C5E
:103BE400002DFFEC35F0FEEF7803C333CE33CED88F
:103BF400F92400FDEE3437FC7B017A06791B900032
:103C0400647408F07FA012465F125725900001E00B
:103C1400FBA3E0FAA3E0F91223F5FF90061CE06F82
:103C2400704090000112240EFF90061DE06F703268
:103C340090000212240EFF90061EE06F7024900084
:103C44000312240EFF90061FE06F7016900005E02B
:103C540024FBF582E43405F58374FFF01247B512B2
:103C64005725900005E004F0023B821247B5125735
:0B3C740025900004E004F0023B5DD34B
:013C7F002222
:0B362300900001EBF0A3EAF0A3E9F037
:10362E00E4A3F0A3F0900004F0900004E0FFC39434
:10363E00084003023776EF75F020A42400FDE5F074
:10364E003404FC124651125725E4900005F0900008
:10365E0005E0FFC394204003023758900001E0FBC1
:10366E00A3E0FAA3E0F91223F570289000011224CA
:10367E000E702090000212240E7018900003122477
:10368E000E701074FB2FF582E43405F58374FFF091
:10369E0002374F900005E0FD24FBF582E43405F57A
:1036AE0083E0600302374F900004E075F020A47CA5
:1036BE00002DFFEC35F0FEEF7803C333CE33CED8BA
:1036CE00F92400FDEE3427FC7B017A06791B90006D
:1036DE00647408F07FA012465F125725900001E037
:1036EE00FBA3E0FAA3E0F91223F5FF90061CE06FAE
:1036FE00704F90000112240EFF90061DE06F704176
:10370E0090000212240EFF90061EE06F70339000A0
:10371E000312240EFF90061FE06F7025900005E047
:10372E0024FBF582E43405F58374FFF0900004E089
:10373E0075F020A42400FDE5F034041247C412579E
:10374E0025900005E004F002365C900004E075F070
:10375E0020A42400FDE5F034041247C4125725902E
:09376E000004E004F0023637D338
:01377700222F
:0B377800900001EBF0A3EAF0A3E9F0E1
:10378300E4A3F0A3F0900004F0900004E0FFC394DE
:103793000840030238CBEF75F020A42400FDE5F0C8
:1037A3003405FC124651125725E4900005F09000B1
:1037B30005E0FFC3942040030238AD900001E0FB15
:1037C300A3E0FAA3E0F91223F57028900001122474
:1037D3000E702090000212240E7018900003122421
:1037E3000E701074FB2FF582E43405F58374FFF03B
:1037F3000238A4900005E0FD24FBF582E43405F5CE
:1038030083E060030238A4900004E075F020A47CF8
:10381300002DFFEC35F0FEEF7803C333CE33CED863
:10382300F92400FDEE342FFC7B017A06791B90000E
:10383300647408F07FA012465F125725900001E0E0
:10384300FBA3E0FAA3E0F91223F5FF90061CE06F57
:10385300704F90000112240EFF90061DE06F70411F
:1038630090000212240EFF90061EE06F703390004A
:103873000312240EFF90061FE06F7025900005E0F1
:1038830024FBF582E43405F58374FFF0900004E033
:1038930075F020A42400FDE5F034051247C4125747
:1038A30025900005E004F00237B1900004E075F0C4
:1038B30020A42400FDE5F034051247C412572590D7
:0938C3000004E004F002378CD38C
:0138CC0022D9
:1049CE0078047C007D017BFF7A5479817E007F2004
:1049DE001223CFE4900024F0A3F0900024E0FEA375
:1049EE00E0FFC39438EE94005027EF7805C333CE22
:1049FE0033CED8F9FDAC067A0079041247C91257A6
:104A0E0025900025E004F070D1900024E004F080A1
:014A1E00C9CE
:014A1F002274
:105550007F7E1257887F031257887F331257887FC8
:09556000041257887FEF025788FE
:064D0E002401FFE433FE66
:104D1400900054EEF0A3EFF07F7E1257887F0412C8
:104D240057887F41125788900054E0FF12578890AB
:0D4D34000054A3E0FF1257887FEF0257885C
:10544000900004EFF07F7E1257887F031257887F09
:1054500031125788900004E0FF1257887FEF0257FF
:0154600088C3
:105618007F7E1257887F021257887F0E1257887F25
:04562800EF025788AE
:10562C007F7E1257887F021257887F011257887F1E
:04563C00EF0257889A
:0F3A0D00900047A3E0FFA3E0FBA3E0FAA3E0F9DA
:053A1C00900050EFF0E6
:103A2100A3EBF0A3EAF0A3E9F0EFD3940240030281
:103A31003B26900050E064016017A3E0FBA3E0FA8D
:103A4100A3E0F990000212240E2401FFE433FE806A
:103A510021900051E0FBA3E0FAA3E0F990000212EB
:103A6100240E6011124D0E7F1D7E00124D147F1E1B
:103A71007E00124D14900050E064016013A3E0FB3E
:103A8100A3E0FAA3E0F990000312240E2401804E72
:103A9100900051E0FBA3E0FAA3E0F99000031224A7
:103AA1000E60426401702490000412240E70047FA1
:103AB1000B802E900051E0FBA3E0FAA3E0F9900007
:103AC1000412240E240BFFE4338016900051E0FB16
:103AD100A3E0FAA3E0F990000312240E2413FFE4FB
:103AE10033FE124D14900050E064016011A3E0FB1D
:103AF100A3E0FAA3E0F990000412240E801F9000C5
:103B010051E0FBA3E0FAA3E0F990000412240EFFB8
:103B1100603590000312240E6401602BEF2401FF35
:103B2100E433FE801F900050E024FC600D1460100F
:103B3100240270137F3E7E00800A7F3C7E00800459
:073B41007F3B7E00124D14D2
:013B4800225A
:0E256500900040EFF0A3EBF0A3EAF0A3E9F042
:10257300E490004FF012585390004FEFF09000405A
:10258300E0FF7E00900047EEF0A3EFF0900041E003
:10259300F9A3E0FAA3E0900049C9F0A3EAF0A3E9A4
:1025A300F0900044E0FDA3E090004CCDF0A3EDF0EB
:1025B300900046E090004EF0D3EF9402EE9400407A
:1025C300030227707F3E124D1490004EE0640F709B
:1025D300030226917F687E00124D1490004FE06441
:1025E3000A6003022698900049E0FBA3E0FAA3E007
:1025F300F990000112240EFFD39409502B90004749
:10260300E07004A3E064016005EF2401803A9000C8
:1026130049E0FBA3E0FAA3E0F990000112240E6065
:1026230074124D0E7F1F804A900049E0FBA3E0FA2D
:10263300A3E0F990000112240EFFD3940F500FEF83
:10264300C3940A4009EF2417FFE433FE804490004B
:1026530049E0FBA3E0FAA3E0F990000112240E2461
:10266300EF601314601614601914601C24047025A1
:102673007F287E00801C7F2C7E0080167F2F7E00AB
:1026830080107F307E00800A7F357E0080047F3F8C
:102693007E00124D14123A0D90004EE0640F600359
:1026A30002273A7F40FE124D1490004FE0640A6007
:1026B30003022734900049E0FBA3E0FAA3E0F9907A
:1026C300000112240EFFD394095005EF2401801A50
:1026D300900049E0FBA3E0FAA3E0F9900001122483
:1026E3000EFFD3940F5009EF2417FFE433FE803E0F
:1026F300900049E0FBA3E0FAA3E0F9900001122463
:102703000E24EF601314601614601914601C240463
:10271300701F7F287E0080167F2C7E0080107F2F05
:102723007E00800A7F307E0080047F357E00124D5C
:10273300147F417E008045900047E07004A3E0646D
:1027430002603F90004CE0FEA3E0FFC39432EE949E
:10275300005009EF2442FFE43EFE802090004CE04D
:102763007004A3E06434701A7F3BFE800F90004C2A
:10277300E07004A3E0643470067F3BFE024D141244
:022783003A0D0D
:012785002231
:1045C900024D71E493A3F8E493A34003F68001F24A
:1045D90008DFF48029E493A3F85407240CC8C333F3
:1045E900C4540F4420C8834004F456800146F6DFC2
:1045F900E4800B0102040810204080901D73E47EC2
:10460900019360BCA3FF543F30E509541FFEE493B6
:10461900A360010ECF54C025E060A840B8E493A37D
:10462900FAE493A3F8E493A3C8C582C8CAC583CAA8
:10463900F0A3C8C582C8CAC583CADFE9DEE780BE60
:01205000008F
:1022FF00E709F608DFFA8046E709F208DFFA803EC1
:10230F0088828C83E709F0A3DFFA8032E309F608AD
:10231F00DFFA8078E309F208DFFA807088828C8315
:10232F00E309F0A3DFFA806489828A83E0A3F608C9
:10233F00DFFA805889828A83E0A3F208DFFA804CA3
:10234F0080D280FA80C680D4806980F2803380107A
:10235F0080A680EA809A80A880DA80E280CA8033E3
:10236F0089828A83ECFAE493A3C8C582C8CCC5835B
:10237F00CCF0A3C8C582C8CCC583CCDFE9DEE7802B
:10238F000D89828A83E493A3F608DFF9ECFAA9F0AA
:10239F00EDFB2289828A83ECFAE0A3C8C582C8CC00
:1023AF00C583CCF0A3C8C582C8CCC583CCDFEADE19
:1023BF00E880DB89828A83E493A3F208DFF980CC7B
:1023CF0088F0EF60010E4E60C388F0ED2402B40474
:1023DF000050B9F582EB2402B4040050AF2323451B
:0623EF00822390234F73CE
:1023F500BB010689828A83E0225002E722BBFE02E6
:09240500E32289828A83E4932218
:10240E00BB010CE58229F582E5833AF583E0225083
:10241E0006E92582F8E622BBFE06E92582F8E222CD
:0D242E00E58229F582E5833AF583E49322E7
:10243B00BB010689828A83F0225002F722BBFE0180
:02244B00F3227A
:10244D00F8BB010DE58229F582E5833AF583E8F0C5
:10245D00225006E92582C8F622BBFE05E92582C871
:02246D00F22259
:10246F00EF8DF0A4A8F0CF8CF0A428CE8DF0A42E81
:02247F00FE223B
:10248100BC000BBE0029EF8DF084FFADF022E4CC3F
:10249100F875F008EF2FFFEE33FEEC33FCEE9DEC08
:1024A100984005FCEE9DFE0FD5F0E9E4CEFD22ED4E
:1024B100F8F5F0EE8420D21CFEADF075F008EF2F98
:1024C100FFED33FD4007985006D5F0F222C398FD89
:0524D1000FD5F0EA2226
:1024D600A3F8E0C5F025F0F0E582158270021583B9
:0624E600E0C838F0E82216
:1024EC00D083D082F8E4937012740193700DA3A37F
:1024FC0093F8740193F5828883E473740293686093
:06250C00EFA3A3A380DF92
:10251200D083D082F8E4937012740193700DA3A358
:1025220093F8740193F5828883E473740293B5F08F
:0D253200067403936860E9A3A3A3A380D8F7
:06253F008A838982E47327
:104AC200900431E0FFA3E0FEA3E0CF90043AF0A30C
:104AD200EEF0A3EFF0900434E0CBF0A3E0CAF0A331
:104AE200E0C9F07F2290043DAD82AC831223F58DA4
:104AF200828C83F0A309E970010ADFEC900434E0B0
:0A4B0200FBA3E0FAA3E0F902173963
:1016D400E508243AF582E43404F583E00508229011
:1016E400043730070390043AE475F00112254502EB
:1016F40023F52000E97F2ED2008018EF540F2490A8
:10170400D43440D4FF30040BEF24BFB41A00500388
:101714002461FFE50960021509050CE50C7002055A
:101724000B30070E900437E475F001122545EF02E3
:10173400243B02522E7403D2078003E4C207F50847
:1017440090043712255CE4F509F50BF50CE5096006
:10175400077F2012171780F5750AFFC201C200C265
:1017640002C203C205C206C2081216E3FF700D309E
:1017740007057F00121728AF0CAE0B22B4255FC2F9
:10178400D5C2041216E3FF24D0B40A00501A75F02F
:101794000A780930D50508B6FF0106C6A426F62046
:1017A400D5047002D20380D924CFB41A00EF5004B8
:1017B400C2E5D204021929D20180C6D20080C0D267
:1017C4000280BCD2D580BAD20580B47F201217170C
:1017D4002002077401B5090040F11216D4FF121754
:1017E40017021751D208D20680951216D4FB12168E
:1017F400D4FA1216D4F94A4B700679FA7A197BFF97
:1018040020022EE509602A7E008E82758300122450
:101814000E60060EEE650A70F0C2D5EBC0E0EAC0B9
:10182400E0E9C0E0EE121970D0E0F9D0E0FAD0E0BF
:10183400FB1223F5FF60AAEBC0E0EAC0E0E9C0E0D8
