:03000000024D149A
:0C4D1400787FE4F6D8FD758121024D5B2C
:1049D5005573617274496E697420436F6D706C65AF
:1049E500746521200D0A00746D313632395F696EA8
:1049F500697420436F6D706C65746521200D0A0024
:104A0500496E69745F54696D65723020436F6D70CE
:104A15006C65746521200D0A00496E69745F5469DF
:104A25006D65723120436F6D706C65746521200D65
:104A35000A006578696E74305F696E697420436F2A
:104A45006D706C65746521200D0A00447331333037
:104A5500325F496E697420436F6D706C65746521B2
:104A6500200D0A004744353830305F696E69746936
:104A7500616C697A6174696F6E20436F6D706C65E6
:074A8500746521200D0A00F9
:104F0C00125A027BFF7A4979D51250951251907B37
:104F1C00FF7A4979EC125095125DAC7BFF7A4A7995
:104F2C0005125095125DCA7BFF7A4A791E12509574
:104F3C00125E877BFF7A4A7937125095125DF27BAD
:104F4C00FF7A4A7950125095125C15125DBC7BFFAA
:104F5C007A4A796912509575B10CE4F5B27F82FEEC
:0B4F6C00125452120E0412004680F88E
:03002300025BBEBF
:065BBE00C0E0C083C082BC
:105BC400900495E4F0309802C298309904C299C2C6
:015BD40009C7
:075BD500D082D083D0E03242
:03004300025C4616
:105C4600C0E0E59A30E003539AFEE59A30E1055349
:075C56009AFDC209D0E03203
:095DFD002009FDEFD209F59922FD
:1053E600900467EBF0A3EAF0A3E9F0900467E0FB12
:1053F600A3E0FAA3E0F9122ADA6017900467A3E49F
:1054060075F001122B66A9F0FA122ADAFF125DFD79
:0354160080D92218
:095E06002009FDEFD209F59B22F1
:105419009006BEEBF0A3EAF0A3E9F09006BEE0FB2C
:10542900A3E0FAA3E0F9122ADA60179006BEA3E412
:1054390075F001122B66A9F0FA122ADAFF125E063C
:0354490080D922E5
:105A0200E5A2543FF5A253BAFE759850759A5075A7
:105A1200D7C875D6FE758E14438E01D2AC75AF0110
:035A2200D2AF22DE
:0B509500900039EBF0A3EAF0A3E9F073
:1050A0009000647401F0A37400F0A3743CF09000CD
:1050B00039E0F9A3E0FAA3E0900467C9F0A3EAF0AD
:1050C000A3E9F0900064E0F9A3E0FAA3E090046A99
:1050D000C9F0A3EAF0A3E9F07B017A0079671252E4
:0A50E000327B017A0079670253E683
:101B83006B65795F76616C206973202578202E0D53
:101B93000A000000000000FF5D9C01020E0F00FF21
:101BA30000060203011500FF001E0304021900FFD3
:101BB3005F540405031D00FF5F590506041F00FF62
:101BC3005F5E0607052000FF5F630708062100FF2D
:101BD3005F680809072600FF5F6D090A082A00FFEE
:101BE3005F720A0B092C00FF5F770B0C0A2E00FFB4
:101BF3005F7C0C0D0B2F00FF5F810D0E0C3000FF7F
:101C03005F860E010D3100FF5F8B0F0F0F1001FF79
:101C130054AF1010101101FF55891111111201FF5A
:101C230055B11212121301FF59BA1313131401FF02
:101C330059DE1414140F01FF55D91516183502FF78
:101C43005CD91617153902FF5CEB1718163D02FF16
:101C53005CFD1815174102FF5D0F191A1C4503FFA0
:101C63005D211A1B194903FF5D331B1C1A4D03FF2A
:101C73005D451C191B5103FF5D571D1E1E5204FFBA
:101C83005F901E1D1D5304FF5F951F1F1F1F05FF40
:101C93005E0F2020202006FF5E172122255407FF18
:101CA3005F9A2223215507FF5F9F2324225607FFB4
:101CB3005FA42425235707FF5FA92521245807FF85
:101CC3005FAE2627295908FF5FB32728265A08FF46
:101CD3005FB82829275B08FF5FBD2926285C08FF1A
:101CE3005FC22A2B2B5D09FF5FC72B2A2A5E09FFE0
:101CF3005FCC2C2D2D000AFF5FD12D2C2C000AFF69
:101D03005FD62E2E2E000BFF5FDB2F2F2F000CFF35
:101D13005FE0303030000DFF5E1F313131000EFFC8
:101D23005FE53232323515FF5B1A3333333215FF39
:101D330000263434343315FF5B3C3535353415FF19
:101D43005B5E3636363916FF56013737373616FFA0
:101D53005A253838383716FF56293939393816FF96
:101D630056513A3A3A3D17FF56793B3B3B3A17FFF8
:101D73005A483C3C3C3B17FF56A13D3D3D3C17FFB9
:101D830056C93E3E3E4118FF56F13F3F3F3E18FFC6
:101D93005A6B4040403F18FF57194141414018FFDB
:101DA30057414242424519FF57694343434219FF92
:101DB3005A8E4444444319FF57914545454419FFFE
:101DC30057B9464646491AFF57E1474747461AFF60
:101DD3005AB1484848471AFF5809494949481AFF20
:101DE30058314A4A4A4D1BFF58594B4B4B4A1BFF2C
:101DF3005AD44C4C4C4B1BFF58814D4D4D4C1BFF43
:101E030058A94E4E4E511CFF58D14F4F4F4E1CFFF9
:101E13005AF75050504F1CFF58F9515151501CFF65
:101E23005921525252521DFF5E27535353531EFFE3
:101E33005E2F5454545421FF5E375555555522FF98
:101E43005E3F5656565623FF5E475757575724FF54
:101E53005BDC5858585825FF5E4F5959595926FF8E
:101E63005E575A5A5A5A27FF5E5F5B5B5B5B28FFDC
:101E73005E675C5C5C5C29FF5E6F5D5D5D5D2AFF98
:101E83005E775E5E5E5E2BFF53B15F5F5F5F5FFFFA
:101E93005F060000000000000000000000000000DA
:101EA300000000000000000000000000000000002F
:021EB30000002D
:10218C004105FA004105FB004405FF000000014435
:10219C000607000000014406100000000144061A66
:1021AC00000000014406030000000144060C00007E
:1021BC0000014406160000000144061F0000000147
:1021CC0041060B014106150C4106140041061E0088
:1021DC0041062300410625014106280041062B003B
:1021EC0041062D00410624004106270041062A0025
:1021FC0041062C0041062602410629004105F80142
:08220C0041062E014105F90114
:104BE600E4900003F0A3F043907C53A007E59054B3
:104BF6007C641F7003024C80125DBCE590547C649B
:104C06007C6077125F3643907C43A0F853A07FE523
:104C160090547C647C60639005FA7401F0E59054CE
:104C26007CFF900003E4F0A3EFF0E0F8E4F0E890F6
:104C36000003F0E5A054F8FFA3E02FF0900003E096
:104C46003400F0E0B4780DA3E0B47808125F247F56
:104C560001125F18E590547CFFBF7CF8125DBCE53D
:104C660090547CFFBF7CF8E4FF125F18E4FF125FEC
:0E4C760030900003E0FEA3E0FF227E0F7FFFE0
:014C8400220D
:104FDB00E4900001F0A3F0124BE6900001EEF0A379
:104FEB00EFF0F47003EE640F60187BFF7A1B79838C
:104FFB00900001E0FFA3E090003CCFF0A3EFF01294
:10500B005095900001E0FEA3E08EF0122BA2502DE4
:10501B005C7850306C785033747850367878000068
:10502B0050397F03227F02227F01227F00227FFFE4
:01503B002252
:100E0400E4FF900000F0124FDBEF147003020F6256
:100E14001470030213DC147003020F4224036003F2
:100E24000217F39005FBE0FF6003B45F18125F1E26
:100E3400900000EFF0C3941450030217F39005FBE5
:100E44007401020F3B9005FBE0FF6442600FEF6406
:100E540043600AEF64446005EF64457019125F1E35
:100E6400900000EFF0C3940A403C7B017A067903BA
:100E74001237B3020F0C9005FBE0FF6446600FEFDE
:100E84006447600AEF64486005EF6449701A125FB2
:100E94001E900000EFF0C3940A400B7B017A0679A0
:100EA4000C123976806280659005FBE0FF644A602D
:100EB4000FEF644B600AEF644C6005EF644D701AE9
:100EC400125F1E900000EFF0C3940A400B7B017A7E
:100ED4000679161233FB803080339005FBE0FF6403
:100EE4004E600FEF644F600AEF64506005EF645189
:100EF400702E125F1E900000EFF0C3940A400E7B28
:100F0400017A06791F1235D7125DBC802B9005FB40
:100F1400E075F008A42498F582E5F0341B0217EB81
:100F24009005FBE075F008A42498F582E5F0341BE5
:100F3400F583E4939005FBF0125F240217F3900508
:100F4400FBE0B45F06124E1D0217F39005FBE0753B
:100F5400F008A42499F582E5F0341B0217EB900500
:100F6400FBE0122B7C10120F1024101034111044CB
:100F74001210541310661412D71F12E92013B7303D
:100F8400107832108A33109C3410AE3510C03610ED
:100F9400D23710E43810F63911083A111A3B112CE3
:100FA4003C113E3D11503E11623F11744011864187
:100FB40011984211AA4311BC4411CE4511E04611C7
:100FC400F24712044812164912284A123A4B124C9C
:100FD4004C125E4D12704E12824F12945012A65152
:100FE40012B75212C75312FB54130D55131D561347
:100FF400305713415813515913615A13715B1381BC
:101004005C13915D139F5E13B25F000013C99006D9
:101014009EE0B46305E4F00213C990069E0213AD8A
:1010240090069FE0B40C030212CE90069F0213AD0B
:101034009006A0E0B41F030212CE9006A00213ADE6
:101044009006A4E0B407030212CE9006A40213ADE6
:101054009006A1E0B41705E4F00213C99006A102BA
:1010640013AD9006A2E0B43B05E4F00213C9900668
:10107400A20213AD9005FFE0B41405E4F00213C915
:101084009005FF0213AD900600E0B40905E4F002F8
:1010940013C99006000213AD900601E0B40905E4FB
:1010A400F00213C99006010213AD900602E0B409E0
:1010B40005E4F00213C99006020213AD900607E09E
:1010C400B41405E4F00213C99006070213AD9006A8
:1010D40008E0B40905E4F00213C99006080213AD50
:1010E400900609E0B40905E4F00213C99006090268
:1010F40013AD90060AE0B40905E4F00213C99006A2
:101104000A0213AD900610E0B41405E4F00213C90A
:101114009006100213AD900611E0B40905E4F00244
:1011240013C99006110213AD900612E0B40905E448
:10113400F00213C99006120213AD900613E0B4092D
:1011440005E4F00213C99006130213AD90061AE0E9
:10115400B41405E4F00213C990061A0213AD900604
:101164001BE0B40905E4F00213C990061B0213AD99
:1011740090061CE0B40905E4F00213C990061C02B1
:1011840013AD90061DE0B40905E4F00213C99006FE
:101194001D0213AD900603E0B41405E4F00213C974
:1011A4009006030213AD900604E0B40905E4F002CE
:1011B40013C99006040213AD900605E0B40905E4D2
:1011C400F00213C99006050213AD900606E0B409B7
:1011D40005E4F00213C99006060213AD90060CE074
:1011E400B41405E4F00213C990060C0213AD900682
:1011F4000DE0B40905E4F00213C990060D0213AD25
:1012040090060EE0B40905E4F00213C990060E023C
:1012140013AD90060FE0B40905E4F00213C990067B
:101224000F0213AD900616E0B41405E4F00213C9DE
:101234009006160213AD900617E0B40905E4F00217
:1012440013C99006170213AD900618E0B40905E41B
:10125400F00213C99006180213AD900619E0B40900
:1012640005E4F00213C99006190213AD90061FE0BD
:10127400B41405E4F00213C990061F0213AD9006DE
:1012840020E0B40905E4F00213C99006200213AD6E
:10129400900621E0B40905E4F00213C99006210286
:1012A40013AD900622E0B40904E4F080069006220F
:1012B400E004F090060BE0B401030213BE90060BA9
:1012C4000213C6900615E0B414030213C690061563
:1012D4000213AD900614E0B46305E4F00213C99060
:1012E40006140213AD90061EE0B46305E4F0021385
:1012F400C990061E0213AD900623E0B40505E4F080
:101304000213C99006230213AD900625E0B4090325
:101314000213C69006250213AD900628E07005045A
:10132400F00213C9E4900628F00213C990062BE0DA
:10133400B40905E4F00213C990062B806C90062DC5
:10134400E0B40704E4F0807D90062D805C900624D0
:10135400E0B40B04E4F0806D900624804C900627E2
:10136400E0B40B04E4F0805D900627803C90062AEC
:10137400E0B40B04E4F0804D90062A802C90062CF7
:10138400E0B40B04E4F0803D90062C801C9006260B
:10139400E0B4010280249006268027900629E0B458
:1013A4002B04E4F0801F900629E004F08017124813
:1013B4003F801290062EE0B401057402F08006907E
:1013C400062E7401F09005FBE075F008A42496F550
:1013D40082E5F0341B0217EB9005FBE0122B7C1422
:1013E4008C0F149B1014AE1114C11214D11314E3F6
:1013F4001416F71F17052017C93014F532150433D6
:10140400151334152235153136154037154F381557
:101414005E39156D3A157C3B158B3C159A3D15A923
:101424003E15B83F15C74015D64115E54215F4439E
:10143400160344161245162146163047163F481621
:101444004E49165D4A166C4B167B4C168A4D1699FE
:101454004E16A74F16B65016C55116D45216E4535D
:10146400171754172955173856174B57175C581721
:101474006C5917795A17865B17935C17A35D17B1DC
:101484005E17C45F000017DB90069EE0700302172E
:101494000B90069E0217BF90069FE0B40106740CE1
:1014A400F00217DB90069F0217BF9006A0E0B4017C
:1014B40006741FF00217DB9006A00217BF9006A463
:1014C400E0B401030217629006A40217BF9006A1BC
:1014D400E070067417F00217DB9006A10217BF90A4
:1014E40006A2E07006743BF00217DB9006A2021716
:1014F400BF9005FFE070030216EB9005FF0217BFD3
:10150400900600E070030217519006000217BF9086
:101514000601E070030217519006010217BF9006FE
:1015240002E070030217519006020217BF900607EB
:10153400E070030216EB9006070217BF900608E05E
:1015440070030217519006080217BF900609E07055
:10155400030217519006090217BF90060AE07003B0
:1015640002175190060A0217BF900610E07003029A
:1015740016EB9006100217BF900611E070030217D5
:10158400519006110217BF900612E0700302175122
:101594009006120217BF900613E0700302175190D1
:1015A40006130217BF90061AE070030216EB9006AA
:1015B4001A0217BF90061BE0700302175190061B16
:1015C4000217BF90061CE0700302175190061C021C
:1015D40017BF90061DE0700302175190061D0217F5
:1015E400BF900603E070030216EB9006030217BFD8
:1015F400900604E070030217519006040217BF908E
:101604000605E070030217519006050217BF900605
:1016140006E070030217519006060217BF90060CED
:10162400E070030216EB90060C0217BF90060DE063
:10163400700302175190060D0217BF90060EE0705A
:101644000302175190060E0217BF90060FE07003B5
:1016540002175190060F0217BF900616E07003029E
:1016640016EB9006160217BF900617E070030217D8
:10167400519006170217BF900618E0700302175125
:101684009006180217BF900619E0700302175190D4
:1016940006190217BF90061FE07002804A90061FC9
:1016A4000217BF900620E070030217519006200233
:1016B40017BF900621E0700302175190062102170C
:1016C400BF900622E070030217519006220217BF52
:1016D40090060BE0B401030217D090060B0217D852
:1016E400900615E0B401067414F00217DB90061599
:1016F4000217BF900614E07002800C9006140217C3
:10170400BF90061EE070067463F00217DB90061E9D
:101714000217BF900623E070067405F00217DB90F1
:1017240006230217BF900625E0B40102801F90062D
:10173400250217BF900628E0700504F00217DBE4C9
:10174400900628F00217DB90062BE070067409F06F
:101754000217DB90062B806390062DE0700574075A
:10176400F0807490062D8053900624E0700280254A
:101774009006248046900627E07002801890062781
:10178400803990062AE07002800B90062A802C9003
:10179400062CE07005740BF0803D90062C801C90A4
:1017A4000626E0B4010280249006268027900629AC
:1017B400E07005742BF0801F900629E014F0801768
:1017C4001245A5801290062EE0B401057402F08043
:1017D4000690062E7401F09005FBE075F008A42431
:1017E40097F582E5F0341BF583E4939005FBF090C4
:1017F40005FBE075F008A4249AF582E5F0341BF5A6
:1018040083E493FB740193FA740293F99005FCEB5F
:0A181400F0A3EAF0A3E9F0022BCFE5
:0D5DBC007F047E347DDCDDFEDEFADFF600C4
:015DC90022B7
:055E8E009005FBE0FFA0
:015E930022EC
:065E94009005FBEFF02277
:055E9A0090060BE0FF83
:015E9F0022E0
:055EA000900615E0FF73
:015EA50022DA
:055EA600900614E0FF6E
:015EAB0022D4
:055EAC0090061EE0FF5E
:015EB10022CE
:055EB200900623E0FF53
:015EB70022C8
:055EB800900625E0FF4B
:015EBD0022C2
:055EBE00900628E0FF42
:015EC30022BC
:055EC40090062BE0FF39
:015EC90022B6
:055ECA0090062DE0FF31
:015ECF0022B0
:055ED000900624E0FF34
:015ED50022AA
:055ED600900627E0FF2B
:015EDB0022A4
:055EDC0090062AE0FF22
:015EE100229E
:055EE20090062CE0FF1A
:015EE7002298
:055EE800900626E0FF1A
:015EED002292
:055EEE00900629E0FF11
:015EF300228C
:055EF4009005FAE0FF3B
:015EF9002286
:065EFA009005FAEFF02212
:055F000090062EE0FFF9
:015F05002279
:105C2E000000000000000000000000000000000066
:085C3E0000000000000000005E
:102214005504C93F065B4F666D7D077F6F777C3938
:102224005E797176385C733E4805EE01020408104D
:102234002040804205F64000603004990000000010
:10224400000000000000000000000000000000008A
:10225400000000000000000000000000000000007A
:1022640000000000000000000000000060F004EE28
:10227400000000000000000000000000000000005A
:10228400000000000000000000000000000000004A
:10229400000000000000000000000000000000003A
:1022A400000000000000000000000000000000002A
:1022B400000000000000000000000000000000001A
:1022C400000000000000000000000000000000000A
:1022D40000000000000000000000000000000000FA
:1022E40000000000000000000000000000000000EA
:1022F40000000000000000000000000000000000DA
:1023040000000000000000000000000000000000C9
:1023140000000000000000000000000000000000B9
:1023240000000000000000000000000000000000A9
:102334000000000000000000000000000000000099
:102344000000000000000000000000000000000089
:102354000000000000000000000000000000000079
:10236400410498005005DE01010101010101010150
:10237400010101010101015004DE01000301020118
:0A2384000101010101010101010145
:1054DF00C282E4FDFCC280EF30E004D2818002C2C0
:1054EF008100000000D280EFC313FF0DBD00010C3F
:0A54FF00ED64084C70DFC280C2812A
:01550900227F
:10550A00C283E4FDFCC280EF30E004D2818002C293
:10551A008100000000D280EFC313FF0DBD00010C13
:0A552A00ED64084C70DFC280C281FE
:015534002254
:10553500C2CCE4FDFCC280EF30E004D2818002C21F
:105545008100000000D280EFC313FF0DBD00010CE8
:0A555500ED64084C70DFC280C281D3
:01555F002229
:0D000E00D282000000000000C2820254DF18
:0D5DD800D283000000000000C28302550AC3
:0D5DE500D2CC000000000000C2CC025535F9
:054A8C00E490049BF022
:104A9100125ECAAE077F4012000E7FC012000EE404
:104AA100FB74992BF582E43404F583E0FF1254DFA3
:104AB10074A12BF582E43404F583E0FF1254DF0B7B
:104AC100EBB408DDEE2488FF12000ED2827F401283
:104AD1005DD87FC0125DD8E4FB74A92BF582E43464
:104AE10004F583E0FF12550A74B12BF582E4340416
:104AF100F583E0FF12550A0BEBB408DDEE2488FFC5
:104B0100125DD8D2837F40125DE57FC0125DE5E47E
:104B1100FB74B92BF582E43404F583E0FF125535BB
:104B210074C12BF582E43404F583E0FF1255350B93
:0D4B3100EBB408DDEE2488FF125DE5D2CC68
:014B3E002254
:10519000E4900000F0E4FFE4FE900000E024EEF56F
:1051A00082E43405F583E0FDEF75F008A42499F559
:1051B00082E43404F583E5822EF582E43583F583B9
:1051C000EDF00EEEB408D20FEFB406CB124A917F89
:1051D0001E125CC7900000E004F0E0C3940840B5E4
:0151E00022AC
:105CC700EFD39400400B7EFF7DFFDDFEDEFA1F80E1
:015CD700EFDD
:015CD80022A9
:10556000E4FFE4FEEF75F008A42499F582E4340426
:10557000F583E5822EF582E43583F583E4F00EEEC3
:08558000B408E10FEFB406DAF4
:015588002200
:10537C00E4FF125F0CEF6401702A125560900498E0
:10538C00E05403FF2499F582E43404F5837440F06F
:10539C00124A91E4FF125F12900498E004F0E0B41A
:0453AC000402E4F023
:0153B00022DA
:1042A100125560124E959004CBE09004A8F0900452
:1042B100C9E09004A7F090069EE0FF75F00A8424FF
:1042C100C9F582E43404F583E09004A6F0EF75F0BB
:1042D1000A8474C925F0F582E43404F583E090047E
:1042E100A5F09004A47440F090069FE0FF75F00AD9
:1042F1008424C9F582E43404F583E09004A3F0EF4B
:1043010075F00A8474C925F0F582E43404F583E07C
:104311009004A2F09004A17440F09006A0E0FF7513
:10432100F00A8424C9F582E43404F583E09004A002
:10433100F0EF75F00A8474C925F0F582E43404F5D0
:1043410083E090049FF09006A4E024C9F582E43450
:1043510004F583E090049EF09006A1E0FF75F00A59
:104361008424C9F582E43404F583E090049CF0EFE1
:1043710075F00A8474C925F0F582E43404F583E00C
:1043810090049BF09006A2E0FF75F00A8424C9F521
:1043910082E43404F583E090049AF0EF75F00A8426
:1043A10074C925F0F582E43404F583E0900499F0B2
:0343B100024A912C
:105B8000AD071255609004D8E090049AF074C92DC6
:0F5B9000F582E43404F583E0900499F0024A9121
:105B9F00AD071255609004D7E090049AF074C92DA8
:0F5BAF00F582E43404F583E0900499F0024A9102
:105C5D00AD0712556074C92DF582E43404F583E067
:075C6D00900499F0024A9136
:10547F00AD07125560ED75F00A8424C9F582E43446
:10548F0004F583E090049AF0ED75F00A8474C92551
:10549F00F0F582E43404F583E0900499F0024A9128
:06503C007B017A0579FFFB
:10504200125560122ADA24C9F582E43404F583E0A9
:1050520090049CF0900001122AF324C9F582E434F2
:1050620004F583E090049BF0900002122AF324C915
:10507200F582E43404F583E090049AF09000031280
:105082002AF324C9F582E43404F583E0900499F00C
:03509200024A913E
:10400B00125560900530E060179000417401F0A3E9
:10401B007405F0A37430F07B017A0479C812491748
:10402B0090052AE060179000417401F0A37405F02D
:10403B00A3742AF07B017A0479C4124917900524E2
:10404B00E060179000417401F0A37405F0A3742491
:10405B00F07B017A0479C012491790051EE06017B6
:10406B009000417401F0A37405F0A3741EF07B0162
:10407B007A0479BC124917900518E060179000413B
:10408B007401F0A37405F0A37418F07B017A047922
:10409B00B8124917900512E060179000417401F0B7
:1040AB00A37405F0A37412F07B017A0479B412495E
:1040BB001790050CE060179000417401F0A3740594
:1040CB00F0A3740CF07B017A0479B01249179005B8
:1040DB0006E060179000417401F0A37405F0A3741F
:1040EB0006F07B017A0479AC124917900500E06069
:1040FB00179000417401F0A37405F0A37400F07BDA
:10410B00017A0479A81249179004FAE0601790001D
:10411B00417401F0A37404F0A374FAF07B017A04E8
:10412B0079A41249179004F4E060179000417401D0
:10413B00F0A37404F0A374F4F07B017A0479A01259
:10414B0049179004EEE060179000417401F0A374DE
:10415B0004F0A374EEF07B017A04799C12491722C8
:1049170090003EEBF0A3EAF0A3E9F0A3E0FBA3E0ED
:10492700FAA3E0F9900001122AF324C9F582E434CE
:1049370004F583E0FF90003EE0FBA3E0FAA3E0F973
:10494700EF122B20900041E0FBA3E0FAA3E0F990DF
:104957000002122AF324C9F582E43404F583E0FF48
:1049670090003EE0FBA3E0FAA3E0F990FFFFEF120F
:104977002B32900041E0FBA3E0FAA3E0F99000039B
:10498700122AF324C9F582E43404F583E0FF90008A
:104997003EE0FBA3E0FAA3E0F990FFFEEF122B3213
:1049A700900041E0FBA3E0FAA3E0F9900004122A8B
:1049B700F324C9F582E43404F583E0FF90003EE078
:0E49C700FBA3E0FAA3E0F990FFFDEF022B3214
:10468A00900034EBF0A3EAF0A3E9F0A3E0FBA3E087
:10469A00FAA3E0F9122ADAFF900034E0FBA3E0FA69
:1046AA00A3E0F9EF122B20900037E0FBA3E0FAA376
:1046BA00E0F9900001122AF3FF900034E0FBA3E036
:1046CA00FAA3E0F9900001EF122B32900037E0FBD9
:1046DA00A3E0FAA3E0F9900002122AF3FF90003453
:1046EA00E0FBA3E0FAA3E0F9900002EF122B32906C
:1046FA000037E0FBA3E0FAA3E0F9900003122AF3E3
:10470A00FF900034E0FBA3E0FAA3E0F9900003EF86
:10471A00122B32900037E0FBA3E0FAA3E0F99000F5
:10472A0004122AF3FF900034E0FBA3E0FAA3E0F9B5
:10473A00900004EF122B32900037E0FBA3E0FAA3BB
:10474A00E0F9900005122AF3FF900034E0FBA3E0A1
:0B475A00FAA3E0F9900005EF022B32FB
:10527C00122ADA900006122B32900001122AF390B7
:10528C000007122B32900002122AF3900008122B06
:10529C0032900003122AF3900009122B3290000472
:1052AC00122AF390000A122B32900005122AF39066
:0552BC00000B022B3283
:0F50EA00EE75F006A424EEF9740435F0FA7B019C
:1050F900900006122AF3122B20900007122AF3902F
:105109000001122B32900008122AF3900002122B90
:1051190032900009122AF3900003122B3290000AF0
:10512900122AF3900004122B3290000B122AF390EA
:055139000005022B320D
:1043B40078387C007D017BFF7A5C792E7E007F0655
:1043C400122AB4125EAC900036EFF0125EA6900092
:1043D40037EFF0125F2A900037E0FE900036E0FDE0
:1043E400C39E40030244B9EF9D50030244B9E070F8
:1043F400030244B9E4900034F0900034E0FFC39425
:104404000A5021EF75F006A424EEF582E43404F595
:1044140083E07008900034E0A3F08008900034E05A
:1044240004F080D5E4900034F0900034E0FF24EEF2
:10443400F582E43404F583E0FE74382FF582E43425
:1044440000F583EEF0900034E004F0E0B406DAE422
:10445400900034F0900035E0FF900034E0FEC39FFC
:10446400500B1250EA900034E004F080E7E490002E
:1044740034F0900034E0FF2438F582E43400F5830E
:10448400E0FE900035E075F006A42FF582E435F0E7
:10449400F583E58224E8F582E5833404F583EEF0C0
:1044A400900034E004F0E0B406C812400B124A91C4
:0544B400E4FF125F307F
:0144B90022E0
:104B3F00125EAC900035EFF0125EA6900036EFF0EB
:104B4F00125F2A900037EFF0125EA0900038EFF05E
:104B5F00900035E0FFA3E0FEC39F507AA3E09E4094
:104B6F0075900036E0606FE4900034F0900038E00C
:104B7F0014FF900034E0FEC39F500B1250EA9000D8
:104B8F0034E004F080E6900038E01475F006A4904D
:104B9F000034F0900038E075F006A4FF900034E088
:104BAF00FDC39FE5F06480F8748098501474EE2D67
:104BBF00F582E43404F583E4F0900034E004F080EF
:104BCF00D212400B124A91E4FF125F309004EEE0D4
:064BDF007004FF125E9459
:014BE50022AD
:104E1D00E4900002F0125EA0900002EFF0E490002A
:104E2D0001F0900002E014FF900001E0FEC39F50DE
:104E3D000B1250EA900001E004F080E6900002E0D1
:104E4D001475F006A4900001F0900002E075F006D4
:104E5D00A4FF900001E0FDC39FE5F06480F874802D
:104E6D0098501474EE2DF582E43404F583E4F0903B
:104E7D000001E004F080D212400B124A919004EE32
:074E8D00E07004FF125E94C7
:014E940022FB
:10483F0078037C007D017BFF7A5C79347E007F06F4
:10484F00122AB4125EA0900002EFF0125EA0E49064
:10485F000001F0900001E0FEC39F5020EE75F006BE
:10486F00A424EEF582E43404F583E070079000028F
:10487F00EEF08008900001E004F080D7E490000192
:10488F00F0900001E0FF24EEF582E43404F583E0BC
:10489F00FE74032FF582E43400F583EEF0900001EF
:1048AF00E004F0E0B406DAE4900001F0900002E0DA
:1048BF00FF900001E0FEC39F500B1250EA900001E1
:1048CF00E004F080E7E4900001F0900001E0FF24A5
:1048DF0003F582E43400F583E0FE900002E075F00A
:1048EF0006A42FF582E435F0F583E58224E8F582FE
:1048FF00E5833404F583EEF0900001E004F0E0B4BA
:08490F0006C812400B024A9198
:1045A50078037C007D017BFF7A5C793A7E007F068B
:1045B500122AB4125EA0900002EFF0125EA0E49001
:1045C5000001F0900001E0FEC39F5020EE75F0065B
:1045D500A424EEF582E43404F583E070079000022C
:1045E500EEF08008900001E004F080D7E49000012F
:1045F500F0900001E0FFA3E075F006A42FF582E43A
:1046050035F0F583E58224E8F582E5833404F58306
:10461500E0FE74032FF582E43400F583EEF090009C
:1046250001E004F0E0B406C9900002E0900001F05A
:10463500900001E0FFD39401401AEF75F006A42421
:10464500E2F9740435F0FA7B0112527C900001E026
:1046550014F080DCE4900001F0900001E0FF2403F9
:10466500F582E43400F583E0FE74EE2FF582E43440
:1046750004F583EEF0900001E004F0E0B406DA12F0
:05468500400B024A9108
:0B3B3400900034EBF0A3EAF0A3E9F0EE
:103B3F00783D7C007D017BFF7A5C79407E007F06BB
:103B4F00122AB4125EA090003BEFF0125EA090001C
:103B5F003CEFF0E490003AF090003CE0FF90003A28
:103B6F00E0FEC39F4003023C47EE75F006A4FFAE94
:103B7F00F0900037E0FBA3E0FAA3E02FF9EA3EFA5A
:103B8F00900001122AF3FD900034E0FBA3E0FAA3AA
:103B9F00E0F9900001122AF36D6003023C3E9000A1
:103BAF0037E0FBA3E0FAA3E02FF9EA3EFA90000218
:103BBF00122AF3FF900034E0FBA3E0FAA3E0F990A0
:103BCF000002122AF36F706790003AE075F006A4B6
:103BDF00FFAEF0900037E0FBA3E0FAA3E02FF9EA85
:103BEF003EFA900003122AF3FD900034E0FBA3E0AD
:103BFF00FAA3E0F9900003122AF3B50532900037CB
:103C0F00E0FBA3E0FAA3E02FF9EA3EFA90000412DA
:103C1F002AF3FF900034E0FBA3E0FAA3E0F9900051
:103C2F0004122AF3B5070890003AE0A3F080099038
:103C3F00003AE004F0023B6790003BE090003AF05E
:103C4F0090003CE0FF90003AE0FEC39F5021EE75DC
:103C5F00F006A4FF900037E0FBA3E0FAA3E02FF9F2
:103C6F00EA35F0FA1250F990003AE004F080D19062
:103C7F00003CE0FF90003BE06F603DE490003AF0C5
:103C8F0090003CE024FFFFE434FFFE7C007D061231
:103C9F002B54900037E0FBA3E0FAA3E02FF9EA3EA4
:103CAF00FAA3E07E0029F9EE3AFAE4122B209000F5
:103CBF003AE004F0E0B406C8900037E0FBA3E0FA66
:0C3CCF00A3E0F9122ADA7004FF125E94E0
:013CDB0022C6
:0F5D9C00E4FF125F00EFB4010302537C1242A137
:015DAB0022D5
:05000600E4FF025B8035
:05001E007F01025B8080
:055F54007F02025B80EA
:055F59007F03025B80E4
:055F5E007F04025B80DE
:055F63007F05025B80D8
:055F68007F06025B80D2
:055F6D007F07025B80CC
:055F72007F08025B80C6
:055F77007F09025B80C0
:055F7C007F0A025B80BA
:055F81007F0B025B80B4
:055F86007F0C025B80AE
:055F8B007F0D025B80A8
:1054AF00125F0CBF01081242A17F02125F12125F3E
:1054BF000CBF0319E49004A8F09004A7F09004A681
:1054CF00F09004A5F0124A91E4FF125F12024C858E
:10558900125F0CBF01081242A17F02125F12125F63
:105599000CBF0311E49004A3F09004A2F0124A9105
:0855A900E4FF125F12024C85C1
:1055B100125F0CBF01081242A17F02125F12125F3B
:1055C1000CBF0311E49004A0F090049FF0124A91E3
:0855D100E4FF125F12024C8599
:1059BA00125F0CBF01081242A17F02125F12125F2E
:1059CA000CBF030DE490049EF0124A91E4FF125FAB
:0459DA0012024C85E4
:1059DE00125F0CBF01081242A17F02125F12125F0A
:1059EE000CBF030DE490049CF0124A8DE4FF125F8D
:0459FE0012024C85C0
:1055D900125F0CBF01081242A17F02125F12125F13
:1055E9000CBF0311E490049AF0900499F0124A91C7
:0855F900E4FF125F12024C8571
:105CD9007F01125B9FE49005FFF0A3F0A3F0A304FA
:025CE900F022A7
:105CEB007F02125B9FE4900607F0A3F0A3F0A304DE
:025CFB00F02295
:105CFD007F03125B9FE4900610F0A3F0A3F0A304C2
:025D0D00F02282
:105D0F007F04125B9FE490061AF0A3F0A3F0A304A4
:025D1F00F02270
:105D21007F01125B9FE4900603F0A3F0A3F0A304AC
:025D3100F0225E
:105D33007F02125B9FE490060CF0A3F0A3F0A30490
:025D4300F0224C
:105D45007F03125B9FE4900616F0A3F0A3F0A30473
:025D5500F0223A
:105D57007F04125B9FE490061FF0A3F0A3F0A30457
:025D6700F02228
:055F90007F01025B9F90
:055F95007F02025B9F8A
:085E0F00E4FF125EA602547FBD
:085E1700E4FF125EAC02547FAF
:055F9A007F01025B9F86
:055F9F007F02025B9F80
:055FA4007F03025B9F7A
:055FA9007F04025B9F74
:055FAE007F05025B9F6E
:055FB3007F01025B9F6D
:055FB8007F02025B9F67
:055FBD007F03025B9F61
:055FC2007F04025B9F5B
:055FC7007F01025B9F59
:055FCC007F02025B9F53
:055FD1007F01025B9F4F
:055FD6007F02025B9F49
:055FDB007F0F025B8056
:055FE0007F0F025B8051
:085E1F00E4FF125F00025B804A
:055FE5007F0F025B804C
:105B1A00125F0CBF010812503C7F02125F12125F23
:105B2A000CBF030DE490049CF0124A91E4FF125F4B
:025B3A00122235
:10002600125F0CBF010812503C7F02125F12125F72
:0D0036000CBF0308124A8CE4FF125F122277
:105B3C00125F0CBF010812503C7F02125F12125F01
:105B4C000CBF030DE490049AF0124A91E4FF125F2B
:025B5C00122213
:105B5E00125F0CBF010812503C7F02125F12125FDF
:105B6E000CBF030DE4900499F0124A91E4FF125F0A
:025B7E001222F1
:10560100125F0CBF010E7B017A0679071250427FAF
:1056110002125F12125F0CBF030DE490049CF012A2
:085621004A91E4FF125F12221E
:105A2500125F0CBF010E7B017A0679071250427F87
:105A350002125F12125F0CBF0308124A8CE4FF12B8
:035A45005F1222CB
:10562900125F0CBF010E7B017A0679071250427F87
:1056390002125F12125F0CBF030DE490049AF0127C
:085649004A91E4FF125F1222F6
:10565100125F0CBF010E7B017A0679071250427F5F
:1056610002125F12125F0CBF030DE4900499F01255
:085671004A91E4FF125F1222CE
:10567900125F0CBF010E7B017A0679101250427F2E
:1056890002125F12125F0CBF030DE490049CF0122A
:085699004A91E4FF125F1222A6
:105A4800125F0CBF010E7B017A0679101250427F5B
:105A580002125F12125F0CBF0308124A8CE4FF1295
:035A68005F1222A8
:1056A100125F0CBF010E7B017A0679101250427F06
:1056B10002125F12125F0CBF030DE490049AF01204
:0856C1004A91E4FF125F12227E
:1056C900125F0CBF010E7B017A0679101250427FDE
:1056D90002125F12125F0CBF030DE4900499F012DD
:0856E9004A91E4FF125F122256
:1056F100125F0CBF010E7B017A06791A1250427FAC
:1057010002125F12125F0CBF030DE490049CF012B1
:085711004A91E4FF125F12222D
:105A6B00125F0CBF010E7B017A06791A1250427F2E
:105A7B0002125F12125F0CBF0308124A8CE4FF1272
:035A8B005F122285
:10571900125F0CBF010E7B017A06791A1250427F83
:1057290002125F12125F0CBF030DE490049AF0128B
:085739004A91E4FF125F122205
:10574100125F0CBF010E7B017A06791A1250427F5B
:1057510002125F12125F0CBF030DE4900499F01264
:085761004A91E4FF125F1222DD
:10576900125F0CBF010E7B017A0679031250427F4A
:1057790002125F12125F0CBF030DE490049CF01239
:085789004A91E4FF125F1222B5
:105A8E00125F0CBF010E7B017A0679031250427F22
:105A9E0002125F12125F0CBF0308124A8CE4FF124F
:035AAE005F122262
:10579100125F0CBF010E7B017A0679031250427F22
:1057A10002125F12125F0CBF030DE490049AF01213
:0857B1004A91E4FF125F12228D
:1057B900125F0CBF010E7B017A0679031250427FFA
:1057C90002125F12125F0CBF030DE4900499F012EC
:0857D9004A91E4FF125F122265
:1057E100125F0CBF010E7B017A06790C1250427FC9
:1057F10002125F12125F0CBF030DE490049CF012C1
:085801004A91E4FF125F12223C
:105AB100125F0CBF010E7B017A06790C1250427FF6
:105AC10002125F12125F0CBF0308124A8CE4FF122C
:035AD1005F12223F
:10580900125F0CBF010E7B017A06790C1250427FA0
:1058190002125F12125F0CBF030DE490049AF0129A
:085829004A91E4FF125F122214
:10583100125F0CBF010E7B017A06790C1250427F78
:1058410002125F12125F0CBF030DE4900499F01273
:085851004A91E4FF125F1222EC
:10585900125F0CBF010E7B017A0679161250427F46
:1058690002125F12125F0CBF030DE490049CF01248
:085879004A91E4FF125F1222C4
:105AD400125F0CBF010E7B017A0679161250427FC9
:105AE40002125F12125F0CBF0308124A8CE4FF1209
:035AF4005F12221C
:10588100125F0CBF010E7B017A0679161250427F1E
:1058910002125F12125F0CBF030DE490049AF01222
:0858A1004A91E4FF125F12229C
:1058A900125F0CBF010E7B017A0679161250427FF6
:1058B90002125F12125F0CBF030DE4900499F012FB
:0858C9004A91E4FF125F122274
:1058D100125F0CBF010E7B017A06791F1250427FC5
:1058E10002125F12125F0CBF030DE490049CF012D0
:0858F1004A91E4FF125F12224C
:105AF700125F0CBF010E7B017A06791F1250427F9D
:105B070002125F12125F0CBF0308124A8CE4FF12E5
:035B17005F1222F8
:1058F900125F0CBF010E7B017A06791F1250427F9D
:1059090002125F12125F0CBF030DE490049AF012A9
:085919004A91E4FF125F122223
:10592100125F0CBF010E7B017A06791F1250427F74
:1059310002125F12125F0CBF030DE4900499F01282
:085941004A91E4FF125F1222FB
:085E2700E4FF125E9A025C5DCB
:085E2F00E4FF125EA002547FA3
:085E3700E4FF125EB2025C5DA3
:085E3F00E4FF125EB8025C5D95
:085E4700E4FF125EBE025C5D87
:105BDC00E4900003F0125EC4900003EFF075F00344
:0D5BEC00A4FF125995900003E0FF025C5DDC
:085E4F00E4FF125ECA025C5D73
:085E5700E4FF125ED0025C5D65
:085E5F00E4FF125ED6025C5D57
:085E6700E4FF125EDC025C5D49
:085E6F00E4FF125EE2025C5D3B
:085E7700E4FF125EE8025C5D2D
:1053B100E4900003F0125EEE900003EFF012547FD0
:1053C100125EF4BF011E125DBC125C9F125DBC90A7
:1053D1000003E02442FFE433FE125452125DBCE4A8
:0453E100FF125EFA5F
:0153E50022A5
:065F060012400B024A915B
:10238E004106AF004106B4004106B2004106B3005B
:10239E004106B0004106AD004106B5004106B10050
:0423AE004106AE0036
:105DAC00438901758C3C758AB0D2AFD2A9D28C22B2
:0E5DCA00438910758DFF758B9CD2AFD2AB2232
:03000B000244BAF2
:1044BA00C0E0C0F0C083C082C0D075D000C000C0C8
:0D44CA0001C002C003C004C005C006C00749
:1044D700900496E4F0A3F0C28D758C3C758AB012F7
:1044E7005E8E900496EFF0125F00900497EFF090C5
:1044F70006AFE004F0E0B40A0B9006B4E004F090D5
:1045070006AFE4F09006B4E0C394044002E4F090F0
:1045170006B2E0B40104A3E004F0125F48BF01143F
:104527009006B0E004F0E0D394784008125F4E9014
:1045370006B0E4F0900496E0FFB45F159006ADE096
:1045470004F0E0B4140B9006B5E004F09006ADE477
:10455700F0EF645F60129006B1E004F0E0D394C816
:104567004006E4F0FF125E94900496E07015A3E015
:10457700B402109006AEE004F0E0C3940A4004B21F
:03458700CDE4F090
:10458A00D007D006D005D004D003D002D001D00085
:0B459A00D0D0D082D083D0F0D0E0322F
:03001B000251E1AE
:1051E100C0E0C0F0C083C082C0D075D000C000C094
:0D51F10001C002C003C004C005C006C00715
:1051FE00E4FF125E8EC28F758DFF758B9CEFB42E01
:09520E00051227308003123E84D2
:10521700D007D006D005D004D003D002D001D000EB
:0B522700D0D0D082D083D0F0D0E03295
:055F0C009006B4E0FF67
:015F1100226D
:065F12009006B4EFF0223E
:065F18009006B2EFF0223A
:055F1E009006B3E0FF56
:015F2300225B
:065F2400E49006B3F02238
:055F2A009006B5E0FF48
:015F2F00224F
:065F30009006B5EFF0221F
:065F3600E49006B1F02228
:0B23B20048069D140F09040C220006D1
:0452C100E0FD7F8A03
:1052C500D2A0EF54FEFFE4FEEF30E004D2A180024D
:1052D500C2A1D2A2C2A2EFC313FF0EEEB408E9E445
:1052E500FEED30E004D2A18002C2A1D2A2C2A2ED9D
:0A52F500C313FD0EEEB408E9C2A0D9
:0152FF00228C
:10530000D2A0EF4401FFE4FDEF30E004D2A180021F
:10531000C2A1D2A2C2A2EFC313FF0DEDB408E9E40B
:10532000FDEEC313FE30A1054480FE8004EE547FE1
:0E533000FED2A2C2A20DEDB408E7C2A0AF06E5
:01533E00224C
:104C8500E4FF749D2FF582E43406F583E0FE75F0AC
:104C95000A84FDEE75F00A8474A52FF582E43406C6
:104CA500F583E5F0F0EDC454F0FE74A52FF582E42C
:104CB5003406F583E02EF00FEFB408C6E4FD7F8ED1
:104CC5001252C57D807F801252C59006A6E0FD7FF9
:104CD5008C1252C5A3E0FD7F881252C5A3E0FD7F6B
:104CE500861252C59006AC1252C19006A9E0FD7F0E
:104CF500841252C5A3E0FD7F821252C5A3E0FD7F59
:0F4D0500801252C5A31252C17D807F8E0252C50B
:104E95007F8C1253009006A6EFF07F88125300A373
:104EA500EFF07F86125300A3EFF07F84125300A327
:104EB500EFF07F82125300A3EFF07F80125300EFD3
:104EC500547FA3F07F8A125300A3EFF0E4FF74A58B
:104ED5002FF582E43406F583E0FEC4540FFDEE544D
:104EE5000FFE749D2FF582E43406F583EEF0ED7523
:104EF500F00AA4FE749D2FF582E43406F583E02EB6
:064F0500F00FEFB408C834
:014F0B002283
:0B5DF200C2A0C2A2E4FD7F800252C5E7
:1023BD00410668004106670041066D004106700048
:1023CD004106770041065D0041065C00430674003E
:1023DD00000042066E004642067200784206590021
:1023ED00004206570000420665000042066900469D
:1023FD0042066B0078420679000041065B004106FB
:10240D0078004106710041065E0043065F00000042
:06241D004306620000000E
:075E8700D2AFD2A8D288229D
:03000300025E7F1B
:085E7F00C2A8208E02D28E326F
:105BF900E4900668F0900667F0900670F090066DE4
:0C5C0900F0900677F090065CF0A3F0220B
:103E840030B205900670800390066DE004F0900651
:103E94005DE004F0E0D394A07480948F4007C28E58
:103EA400D2A8025BF990065CE014603F14607514BC
:103EB4007003023F7324036003024003900670E022
:103EC400D39400400302400390066DE0FFC39006C4
:103ED4006FE09F90066EE09400400302400A900653
:103EE4005CE004F0E4900670F08034900670E0FF2B
:103EF400FD90066DE02DFDE433FCC3900673E09D58
:103F0400900672E09C5003024003EFD394015003E7
:103F140002400A30A802C2A890065CE004F0E490D3
:103F2400066DF02290066DE0D39400401390067065
:103F3400E0900668F0E4900670F090065CE004F00F
:103F440090066EE0FEA3E0FF900673E02FFF90065C
:103F540072E03EFEEF7803CEC313CE13D8F9FF9080
:103F64000670E0D39FE49E500302400A024003908F
:103F74000670E0D39400405C90066DE0FF90066705
:103F8400F0E490066DF090065C7402F0900677E021
:103F9400131313541FFE2474F582E43406F583E0EE
:103FA400FD25E0F0900668E0D39F400E74742EF572
:103FB40082E43406F583E04401F0900677E004F0EF
:103FC400E0D39417400EC28E125BF990065B740125
:103FD400F0D2A82290066EE0FEA3E0FF900673E004
:103FE4002FFF900672E03EFEEF7803CEC313CE138C
:103FF400D8F9FF90066DE0D39FE49E40098000123B
:074004005BF9D2A8C28E2275
:1047650090065BE06401600302483EC2A8900671B2
:10477500E0146027046003024837900674E0900651
:104785005FF0900675E0900660F0900676E0900682
:1047950061F09006717401F0024837900674E0FFED
:1047A50090065FE06F7073900675E0FE900660E01E
:1047B5006E7067900676E0FD900661E06D705BA314
:1047C500E06F7012A3E06E700DA3E0B505089006CA
:1047D5005EE070208000900674E0900662F090061E
:1047E50075E0900663F0900676E0900664F090061A
:1047F500787401F090065E7401F0125F36E490065D
:1048050074F0A3F0A3F090065FF0A3F0A3F07F018E
:10481500125EFAE4900671F08018900674E0900636
:104825005FF0900675E0900660F0900676E09006E1
:0A48350061F0D2A8E490065BF022C7
:1027300030B205900670800390066DE004F09006BC
:102740005DE004F0E0D394A07480948F4006C28EC4
:10275000D2A8802790065CE014605A147003022807
:102760004414700302288F240360030229DC9006BE
:1027700070E0D394004007D2A8C28E025BF99006A5
:1027800059E0FEA3E0FF7C007D0F122B54EF243CA8
:10279000FFE43EFE90066DE0D39FEC9E50030229BD
:1027A000E390065CE004F090066EEEF0A3EFF0E438
:1027B000A3F002283F900657E0FEA3E0FF7C007DD7
:1027C0000F122B54EF2478FFE43EFE900670E0F9E0
:1027D000FD90066DE02DFDE433FCD3ED9FEC9E40B3
:1027E00022E9701C900658E004F07006900657E04D
:1027F00004F090065AE004F07006900659E004F0E8
:102800000229DCE9D3940150030229E3900657E042
:10281000FEA3E0FF7C007D0F122B54EF2478FFE431
:102820003E900672F0A3EFF0E4900657F0A3F0A3F9
:10283000F0A3F030A802C2A890065CE004F0E49097
:10284000066DF02290066DE0D39400401390067060
:10285000E0900668F0E4900670F090065CE004F00A
:1028600090066EE0FEA3E0FF900673E02FFF900657
:1028700072E03EFEEF7803CEC313CE13D8F9FF907B
:102880000670E0D39FE49E50030229E30229DC9006
:102890000670E0D3940050030229B190066DE0FF6A
:1028A000900667F0E490066DF090065C7402F0907C
:1028B0000677E0131313541FFE2474F582E43406E4
:1028C000F583E025E0F0900668E0FDD39F400E74AC
:1028D000742EF582E43406F583E04401F090066737
:1028E000E02DFEE433900665F0A3CEF0900677E08D
:1028F00004F0E0D3941750030229B1C28E125BF9A1
:1029000090065B7401F090067AE004F07006900681
:1029100079E004F0900672E0FEA3E0FF90066CE020
:102920002FF090066BE03EF0E0C313FEA3E013FF30
:10293000900672EEF0A3EFF090066BEEF0A3EFF0CE
:10294000D390067AE09401900679E09400405F907D
:102950000669E0FEA3E0FF90066EE0FCA3E0FD9FA9
:10296000FFEC9EFED3EF941EEE9400401590066A95
:10297000E09DFF900669E09CFED3EF941EEE94006C
:10298000502C90066EE0FEA3E0FF90066AE02FF068
:10299000900669E03EF0E0C313FEA3E013FF90064B
:1029A0006EEEF0A3EFF0900669EEF0A3EFF0D2A880
:1029B0002290066EE0FEA3E0FF900673E02FFF90EA
:1029C0000672E03EFEEF7803CEC313CE13D8F9FFB4
:1029D00090066DE0D39FE49E40098000125BF9D21F
:0429E000A8C28E22D9
:055F3C00900678E0FF73
:015F4100223D
:065F4200E4900678F02255
:055F480090065EE0FF81
:015F4D002231
:065F4E00E490065EF02263
:101EB5006465636F6465725F76616C206973202564
:101EC50030327820253032782025303278202E0D9A
:101ED5000A006A203D2025303278200D0A00B7A27D
:101EE500CFD6D2BBB8F6B1EAD6BECEBB200D0A001E
:101EF500B6D4C2EBB3C9B9A6200D0A00D2A3BFD888
:101F0500C6F7C2EBCAC72025303278202530327893
:101F150020253032782E0D0A00B1EAD6BEB5D8D6C6
:101F2500B7CEAA2025782021200A0D00B4E6B4A258
:101F3500B5D8D6B7CEAA2025782021200A0D007461
:101F4500656D705F627566665B305D203C2035307F
:101F5500200D0A0063616E63656E2066756E746997
:101F65006F6E200D0A0063616E63656E2066756E87
:101F750074696F6E206661756C74200D0A0063616B
:101F85006E63656E2066756E74696F6E207375631A
:101F950063657373200D0A006465636F6465722061
:101FA500737563636573732100C4E3BAC3200D0AB7
:101FB50000646973706C61795F72616D206973206B
:101FC500253032782025303278202530327820258A
:101FD5003032782E0D0A0063616C6C206973202500
:101FE50030327820253032782025303278202E0D79
:101FF5000A0063616C6C20697320253032782025D6
:10200500303278202530327820253032782E0D0A6E
:102015000063616C6C65722069732072696769730E
:102025007465722073756363657373200D0A0068A8
:102035006F7374206973202530327820253032780B
:102045002025303278202E0D0A00686F73742069C0
:1020550073202530327820253032782025303278AB
:1020650020253032782E0D0A00686F73742069734D
:10207500207269676973746572207375636365732C
:1020850073200D0A00616C61726D20697320253023
:10209500327820253032782025303278202E0D0AEE
:1020A50000616C61726D20697320253032782025BE
:1020B500303278202530327820253032782E0D0ABE
:1020C50000616C61726D2069732072696769737450
:1020D50065722073756363657373200D0A00636110
:1020E5006E63656C20697320253032782025303287
:1020F500782025303278202E0D0A0063616E6365E5
:102105006C206973202530327820253032782025DF
:1021150030327820253032782E0D0A0063616E63E7
:10212500656C2069732072696769737465722073C1
:10213500756363657373200D0A0073696E676C655B
:102145005F6B6579A3BA202000253032642000201A
:102155000D0A006D756C7469706C655F6B6579A3AC
:10216500BA002532642000000000000000000000D5
:10217500000000000000000000000000000000005A
:072185000000000000000053
:0B2423004806B60000000000000000AA
:10004600780C7C007D017BFF7A21796C7E007F2015
:10005600122AB4E490002CF0A3F0A3F0A3F0A3F0CE
:10006600A3F0A3F0A3F0125E8E90002CEFF0125EC8
:10007600E890002DEFF0125EEE90002EEFF0125E8B
:100086009A90002FEFF0125EA0900030EFF0125E13
:10009600D0900031EFF0125EB2900032EFF0125EB7
:1000A600B8900033EFF0124765125F3CEF640160D1
:1000B60003020DFE7BFF7A1E79B5900662E0FF9083
:1000C600003CE4F0A3EFF0900663E0FF90003EE40E
:1000D600F0A3EFF0900664E0FF900040E4F0A3EF99
:1000E600F012509590002CE024CE24FC4003020828
:1000F600C224FC40030209E724FC4003020AFE2452
:10010600FC4003020C1524E47003020D4014700336
:1001160002047F245F6003020DFBE4FF125F309050
:100126000664E0FF54F060030201EE900662E0FE12
:10013600C4540FFD900031E0FC6D6008EC640A6069
:10014600030201EE90002DE0B4010CEF540F24DE03
:10015600F582E43405800D900664E0540F24DEF544
:1001660082E43404F583E0900004F0900662E0FF38
:10017600900005EDF0EF540FA3F0900663E0FFC486
:10018600540F900007F0EF540FA3F0A3EEF0900089
:1001960004E0FF64336026EF60237B017A00790474
:1001A600FD900038E4F0A3EDF0900664E0540F9063
:1001B600003AF0900032E0FF12300D800302052D68
:1001C6001255609000377401F0A37400F0A3740414
:1001D600F07B017A0479EE12468A12400B124A919C
:1001E6007F5F125E94020DFBE4900001F090000127
:1001F600E0FFC394304003020DFBEF75F020A4FD31
:10020600ACF07B017A00790C90003F7420F07FA05F
:10021600124DB6125DBC7BFF7A1E79D7900001E0C5
:10022600FF90003CE4F0A3EFF0125095E49000003C
:10023600F0900000E0FFC394204003020476740CA3
:100246002FF582E43400F583E0600302046D7BFF42
:100256007A1E79E3125095900001E075F020A4FF14
:10026600900000E07C002FFFEC35F0FEEF7803C332
:1002760033CE33CED8F92400FDEE3407FC7B017A69
:1002860000790490003F7408F07FA0124DB6125D0D
:10029600BC90002DE06401602B900662E0FF9000A8
:1002A60009E0B5071F900663E0FF90000AE0B50776
:1002B60013900664E0C4540FFF90000BE0FEC45494
:1002C6000F6F603890002DE06401600302046D90AA
:1002D6000662E0FF900009E06F600302046D90067D
:1002E60063E0FF90000AE06F600302046D9006640D
:1002F600E0FF90000BE06F600302046D7BFF7A1E47
:1003060079F51250957BFF7A1F7901900662E0FF1E
:1003160090003CE4F0A3EFF0900663E0FF90003E0F
:10032600E4F0A3EFF0900664E0FF900040E4F0A351
:10033600EFF01250957BFF7A1F791E900001E07551
:10034600F020A4FF900000E07C002FFEEC35F0903A
:10035600003CF0A3CEF01250957BFF7A1F793190C6
:100366000001E075F020A4FF900000E07C002FFF64
:10037600EC35F0FEEF7803C333CE33CED8F9240044
:10038600FFEE340790003CF0A3EFF012509590007A
:1003960004E0C3943250307BFF7A1F7944125095A3
:1003A60090002DE0900664B4010CE0540F24DEF5B5
:1003B60082E43405800AE0540F24DEF582E4340436
:1003C600F583E0900004F07BFF7A1F79591250956F
:1003D600900004E0FF64336033EF60307BFF7A1FE8
:1003E600796B1250957B017A007904900004E0FD48
:1003F600900038E4F0A3EDF0900664E0540F90000E
:100406003AF0900032E0FF12300D80287BFF7A1F11
:1004160079831250959000377401F0A37404F0A309
:1004260074EEF07B017A007904123B3412400B1211
:100436004A91803C1255609000377401F0A3740015
:10044600F0A37404F07B017A0479EE12468A124016
:100456000B124A917BFF7A1F799D1250957F5F128E
:100466005E94125F428009900000E004F0020237B9
:10047600900001E004F00201F3E4FF125F30900601
:1004860064E0FF54F06003020617900662E0FEC4C3
:10049600540FFD900031E0FC6D6008EC640A6003C7
:1004A60002061790002DE0B4010CEF540F24DEF580
:1004B60082E43405800D900664E0540F24DEF58254
:1004C600E43404F583E0900004F0900662E0FF90C7
:1004D6000005EDF0EF540FA3F0900663E0FFC4545F
:1004E6000F900007F0EF540FA3F0A3EEF090002F4B
:1004F600E0640160030205AF900004E0FF6433602E
:1005060026EF60237B017A007904FD900038E4F041
:10051600A3EDF0900664E0540F90003AF09000329C
:10052600E0FF12300D801A9000377401F0A37404B6
:10053600F0A374EEF07B017A007904123B340206D4
:1005460006900030E0900002F0900002E0FFD394A5
:1005560001401AEF75F006A424E2F9740435F0FAA6
:100566007B0112527C900002E014F080DCE49000E3
:1005760002F0900002E0FFC39406501474EE2FF5CB
:1005860082E43404F583E4F0900002E004F080E2B3
:100596009000377401F0A37400F0A37404F07B019B
:1005A6007A0479EE12468A805790002FE064026042
:1005B60003020DFB900003F0900030E0FF90000373
:1005C600E0FEC39F4003020DFBEE75F006A424EE89
:1005D600F582E43404F583E0702F900003E075F0B3
:1005E60006A424EEF9740435F0FA7B01C0039000EA
:1005F60037EBF0A37400F0A37404F0D00312468A1C
:1006060012400B124A91020DFB900003E004F080A9
:10061600A7E4900001F0900001E0FFC3943040038E
:10062600020DFBEF75F020A4FDACF07B017A00799A
:100636000C90003F7420F07FA0124DB6125DBCE412
:10064600900000F0900000E0FFC3942040030208F1
:10065600B9740C2FF582E43400F583E060030208D8
:10066600B0900001E075F020A4FF900000E07C004F
:100676002FFFEC35F0FEEF7803C333CE33CED8F937
:100686002400FDEE3407FC7B017A00790490003FDC
:100696007408F07FA0124DB6125DBC90002DE06488
:1006A60001602B900662E0FF900009E0B5071F90FD
:1006B6000663E0FF90000AE0B50713900664E0C405
:1006C600540FFF90000BE0FEC4540F6F603890008B
:1006D6002DE0640160030208B0900662E0FF90001E
:1006E60009E06F60030208B0900663E0FF90000A1D
:1006F600E06F60030208B0900664E0FF90000BE034
:100706006F60030208B07BFF7A1F79AE1250959096
:100716000004E0C39432502790002DE0900664B4A4
:10072600010CE0540F24DEF582E43405800AE0541F
:100736000F24DEF582E43404F583E0900004F090A3
:10074600002FE064016003020804900004E0FF64E7
:10075600336026EF60237B017A007904FD90003830
:10076600E4F0A3EDF0900664E0540F90003AF090A8
:100776000032E0FF12300D80209000377401F0A3A4
:100786007404F0A374EEF07B017A007904123B3412
:1007960012400B124A910208B9900030E090000214
:1007A600F0900002E0FFD39401401AEF75F006A422
:1007B60024E2F9740435F0FA7B0112527C900002AF
:1007C600E014F080DCE4900002F0900002E0FFC349
:1007D6009406501474EE2FF582E43404F583E4F0A5
:1007E600900002E004F080E29000377401F0A374F8
:1007F60000F0A37404F07B017A0479EE804E900039
:100806002FE064027059900003F0900030E0FF90F2
:100816000003E0FEC39F5047EE75F006A424EEF5F4
:1008260082E43404F583E0702E900003E075F00650
:10083600A424EEF9740435F0FA7B01C00390003766
:10084600EBF0A37400F0A37404F0D00312468A12EE
:10085600400B124A918008900003E004F080AB7BC5
:10086600FF7A1F799D1250957BFF7A1F79B6900407
:10087600EEE0FF90003CE4F0A3EFF09004EFE0FF21
:1008860090003EE4F0A3EFF09004F0E0FF9000400B
:10089600E4F0A3EFF09004F1E0FF900042E4F0A34F
:1008A600EFF0125095125F428009900000E004F0CC
:1008B60002064A900001E004F002061C7F35125E33
:1008C60094900664E0540F9006B6F09005FFE09011
:1008D60006B7F0900600E09006B8F0900601E090AA
:1008E60006B9F0900602E09006BAF0900662E09033
:1008F60006BBF0900663E09006BCF090002DE090F9
:100906000664B40103E08003E054F09006BDF07B7A
:10091600017A0679B61232124003020DFB7BFF7A8A
:100926001F79DC9006BBE0FF90003CE4F0A3EFF0FB
:100936009006BCE0FF90003EE4F0A3EFF09006BD09
:10094600E0FF900040E4F0A3EFF01250957BFF7AB1
:100956001F79F79005FFE0FF90003CE4F0A3EFF06D
:10096600900600E0FF90003EE4F0A3EFF090060151
:10097600E0FF900040E4F0A3EFF0900602E0FF9065
:100986000042E4F0A3EFF01250957BFF7A2079162F
:10099600125095125DBC900602E06409703D900607
:1009A60001E06409702F900600E0B409229005FF6B
:1009B600E004F0E4A3F0A3F09005FFE0B4150AE428
:1009C600F090060204F0020DFB900602020D17904D
:1009D6000600020D20900601020D2E900602020D61
:1009E6003A7F39125E94900664E0FE540F9006B684
:1009F600F0900607E09006B7F0900608E09006B87B
:100A0600F0900609E09006B9F090060AE09006BA62
:100A1600F0900662E09006BBF0900663E09006BC9C
:100A2600F0EE54F0A3F07B017A0679B6123CDC4076
:100A360003020DFB7BFF7A2079349006BBE0FF9022
:100A4600003CE4F0A3EFF09006BCE0FF90003EE42B
:100A5600F0A3EFF09006BDE0FF900040E4F0A3EFB6
:100A6600F01250957BFF7A20794F900607E0FF90B1
:100A7600003CE4F0A3EFF0900608E0FF90003EE4AF
:100A8600F0A3EFF0900609E0FF900040E4F0A3EF3A
:100A9600F090060AE0FF900042E4F0A3EFF0125057
:100AA600957BFF7A20796E125095125DBC90060AEE
:100AB600E06409703D900609E06409702F9006080D
:100AC600E0B40922900607E004F0E4A3F0A3F09056
:100AD6000607E0B4150AE4F090060A04F0020DFBDE
:100AE60090060A020D17900608020D2090060902CC
:100AF6000D2E90060A020D3A7F3D125E949006B6C0
:100B06007434F0900610E09006B7F0900611E0906D
:100B160006B8F0900612E09006B9F0900613E09041
:100B260006BAF0900662E09006BBF0900663E0908D
:100B360006BCF0900664E054F09006BDF07B017AA6
:100B46000679B6122BF54003020DFB7BFF7A20795E
:100B56008A9006BBE0FF90003CE4F0A3EFF090061D
:100B6600BCE0FF90003EE4F0A3EFF09006BDE0FF8E
:100B7600900040E4F0A3EFF01250957BFF7A2079C5
:100B8600A6900610E0FF90003CE4F0A3EFF090067C
:100B960011E0FF90003EE4F0A3EFF0900612E0FFB4
:100BA600900040E4F0A3EFF0900613E0FF900042BF
:100BB600E4F0A3EFF01250957BFF7A2079C612502D
:100BC60095125DBC900613E06409703D900612E034
:100BD6006409702F900611E0B40922900610E00413
:100BE600F0E4A3F0A3F0900610E0B4150AE4F09048
:100BF600061304F0020DFB900613020D1790061162
:100C0600020D20900612020D2E900613020D3A7F59
:100C160041125E949006B67433F090061AE0900680
:100C2600B7F090061BE09006B8F090061CE0900620
:100C3600B9F090061DE09006BAF0900662E09006C4
:100C4600BBF0900663E09006BCF0900664E054F0BA
:100C56009006BDF07B017A0679B6122E014003029A
:100C66000DFB7BFF7A2079E39006BBE0FF90003C0A
:100C7600E4F0A3EFF09006BCE0FF90003EE4F0A3A2
:100C8600EFF09006BDE0FF900040E4F0A3EFF01215
:100C960050957BFF7A21790090061AE0FF90003C80
:100CA600E4F0A3EFF090061BE0FF90003EE4F0A313
:100CB600EFF090061CE0FF900040E4F0A3EFF09008
:100CC600061DE0FF900042E4F0A3EFF01250957B82
:100CD600FF7A217921125095125DBC90061DE064C1
:100CE60009704E90061CE06409703A90061BE0B449
:100CF600092590061AE004F0E4A3F0A3F090061A82
:100D0600E0B4150AE4F090061D04F0020DFB90060F
:100D16001D7401F0020DFB90061BE004F0E4A3F045
:100D2600A3F0020DFB90061CE004F0E4A3F0020D14
:100D3600FB90061DE004F0020DFB90002DE0B401CF
:100D460012A3E0FF900664E0540F24DEF582E4343B
:100D560005801290002EE0FF900664E0540F24DE1A
:100D6600F582E43404F583EFF07BFF7A21793F12B4
:100D76005095E4900000F0900000E0FFC3941050FE
:100D8600257BFF7A21794E74DE2FF582E43405F552
:100D960083E0FF90003CE4F0A3EFF0125095900042
:100DA60000E004F080D17BFF7A2179541250957BC4
:100DB600FF7A217958125095E4900000F0900000D7
:100DC600E0FFC3941050257BFF7A21796774DE2FEC
:100DD600F582E43404F583E0FF90003CE4F0A3EFF1
:100DE600F0125095900000E004F080D17BFF7A214C
:0E0DF6007954125095125F42124B3F0243B4E3
:10245E0063616C6C65722072656769737465722056
:10246E006973206F6C6421200A0D0063616C6C65CA
:10247E0072207265676973746572206973206E6568
:10248E007721200A0D00B1EAD6BEB5D8D6B7CEAAAE
:10249E002025782021200A0D00B4E6B4A2B5D8D6A6
:1024AE00B7CEAA2025782021200A0D00686F7374FC
:1024BE00207265676973746572206973206F6C642E
:1024CE0021200A0D00686F7374207265676973743A
:1024DE006572206973206E657721200A0D00616C8C
:1024EE0061726D65722072656769737465722069B9
:1024FE0073206F6C6421200A0D00616C61726D6532
:10250E0072207265676973746572206973206E65D7
:10251E007721200A0D0063616E63656C657220720F
:10252E0065676973746572206973206F6C6421200E
:10253E000A0D0063616E63656C6572207265676972
:10254E0073746572206973206E657721200A0D0001
:10255E0063616C6C65722069732064656C6574656B
:10256E002073756363657373200D0A0063616C6C71
:10257E00206973202530327820253032782025309E
:10258E003278202E0D0A0063616C6C206973202551
:10259E0030327820253032782025303278202530A0
:1025AE0032782E0D0A00686F73746572206973207D
:1025BE0064656C6574652073756363657373200D54
:1025CE000A00686F737420697320253032782025D5
:1025DE003032782025303278202E0D0A00686F7345
:1025EE0074206973202530327820253032782025EA
:1025FE0030327820253032782E0D0A00686F7374D1
:10260E002069732064656C657465207375636365FA
:10261E007373200D0A00616C61726D6572206973AF
:10262E002064656C657465207375636365737320D0
:10263E000D0A00616C61726D20697320253032784D
:10264E0020253032782025303278202E0D0A006178
:10265E006C61726D206973202530327820253032FE
:10266E0078202530327820253032782E0D0A006100
:10267E006C61726D2069732064656C65746520737E
:10268E00756363657373200D0A0063616E63656C19
:10269E0065722069732064656C657465207375635B
:1026AE0063657373200D0A0063616E63656C206948
:1026BE00732025303278202530327820253032783C
:1026CE00202E0D0A0063616E63656C2069732025F0
:1026DE00303278202530327820253032782025305F
:1026EE0032782E0D0A0063616E63656C206973206B
:1026FE0064656C6574652073756363657373200D13
:10270E000A00FFFFFFFFFFFFFFFFFFFFFFFFFFFFBF
:10271E00FFFFFFFFFFFFFFFFFFFFFFFFFFFFFFFFBB
:02272E00FFFFAB
:10242E006020062F000000000000000000000000E9
:10243E00000000000000000000000000000000008E
:0F244E000000000048064F0000000000000000E2
:035FEA00DFFE22B5
:105C8A00AE07AF061EEF600C7FF5125FEA7FF512D2
:055C9A005FEA80EE222C
:105C7400D2B400D2B50000000000C2B4000000009D
:065C840000C2B500002281
:105D6900C2B400D2B50000000000D2B400000000A7
:015D79002207
:10533F00E4FEEFA806088002C333D8FC30E704D29E
:10534F00B48002C2B400D2B50000000000C2B50E96
:10535F00EEB408DE0000D2B40000D2B50000003079
:0C536F00B404C20A8002D20AC2B50000D9
:01537B00220F
:10597000E4FFD2B4FE00C2B50000000000D2B500C2
:1059800000EF25E0FF30B4010F00000EEEB408E593
:04599000C2B500009C
:0159940022F0
:105D7A00C2B4000000D2B50000000000C2B50000A5
:015D8A0022F6
:105D8B00D2B4000000D2B50000000000C2B5000084
:015D9B0022E5
:104F7700900004E075F020A42400FDE5F03406FC61
:0E4F87007A06792F7B01742090003FF07FA006
:104F9500125C7412533F200A02C322ECFF12533FE6
:104FA500200A02C322AF0512533F200A02C322E49E
:104FB500FD90003FE0FFEDC39F5016122ADAFF1265
:104FC500533F200A02C322740129F9E43AFA0D80FD
:054FD500E0125D69D34C
:014FDA0022B4
:104DA000EF75F020A4FDACF07A06792F74207B011A
:064DB00090003FF07FA01F
:054DB600900039EFF050
:104DBB00125C74E0FF12533F200A02C322ECFF1275
:104DCB00533F200A02C322AF0512533F200A02C3EE
:104DDB0022125C74900039E004FF12533F200A0248
:104DEB00C322E4FD90003FE014FFEDC39F5014126B
:104DFB005970EF122B20125D7A740129F9E43AFAFB
:104E0B000D80E1125970EF122B20125D8B125D6930
:014E1B00D3C3
:014E1C002273
:0B321200900034EBF0A3EAF0A3E9F019
:10321D00E4A3F0A3F0900037F0900037E0FFC394E3
:10322D003840030232FD124DA0125DBCE49000380F
:10323D00F0900038E0FFC3942040030232F4742F65
:10324D002FF582E43406F583E060030232EB900043
:10325D0037E075F020A4FFA3E07C002FFFEC35F0E4
:10326D00FEEF7803C333CE33CED8F92400FDEE3410
:10327D0007FC7A06794F7408124DAE125DBC9000B2
:10328D0034E0FBA3E0FAA3E0F9900005122AF3FF66
:10329D00900654E06F7047900006122AF3FF9006D7
:1032AD0055E06F7039900007122AF3FF900656E033
:1032BD006F702B900650E09005FFF0900651E09056
:1032CD000600F0900652E0900601F0900653E09053
:1032DD000602F07BFF7A24795E125095C32290008E
:1032ED0038E004F002323E900037E004F00232265E
:1032FD00E4900037F0900037E0FFC39420400302C4
:10330D0033F9124DA0125DBCE4900038F0900038F6
:10331D00E0FFC3942040030233F0742F2FF582E4B5
:10332D003406F583E070030233E7900037E075F063
:10333D0020A4FFA3E07C002FFFEC35F0FEEF780317
:10334D00C333CE33CED8F92400FDEE3407FC900004
:10335D0034E0FBA3E0FAA3E0F97408124F8F125D7D
:10336D00BC900038E0242FF582E43406F583E4F0B8
:10337D00900037E075F020A4FDACF0124F87125D80
:10338D00BC7BFF7A2479791250957BFF7A2479944E
:10339D00900037E075F020A4FF90003CE5F0F0A31D
:1033AD00EFF01250957BFF7A2479A7900037E075E6
:1033BD00F020A4FFA3E07C002FFFEC35F0FEEF78AA
:1033CD0003C333CE33CED8F92400FFEE340790007B
:1033DD003CF0A3EFF0125095D322900038E004F0AA
:0D33ED0002331A900037E004F0023302C3EF
:0133FA0022B0
:0B3CDC00900034EBF0A3EAF0A3E9F045
:103CE700E4A3F0A3F0900037F0900037E0FFC3940F
:103CF700384003023DCF124DA0125DBCE49000385E
:103D0700F0900038E0FFC394204003023DC6742FB3
:103D17002FF582E43406F583E06003023DBD900091
:103D270037E075F020A4FFA3E07C002FFFEC35F00F
:103D3700FEEF7803C333CE33CED8F92400FDEE343B
:103D470007FC7B017A06794F90003F7408F07FA04B
:103D5700124DB6125DBC900034E0FBA3E0FAA3E07D
:103D6700F9900005122AF3FF900654E06F70479010
:103D77000006122AF3FF900655E06F70399000078E
:103D8700122AF3FF900656E06F702B900650E090D2
:103D97000607F0900651E0900608F0900652E09072
:103DA7000609F0900653E090060AF07BFF7A247923
:103DB700BA125095C322900038E004F0023D0890F3
:103DC7000037E004F0023CF0E4900037F090003751
:103DD700E0FFC394084003023E82EF75F020A4245D
:103DE70000FDE5F03406FC124DA8125DBCE490001E
:103DF70038F0900038E0FFC394205076742F2FF5E9
:103E070082E43406F583E06060900037E075F020C7
:103E1700A4FFA3E07C002FFFEC35F0FEEF7803C38F
:103E270033CE33CED8F92400FDEE3437FC9000347E
:103E3700E0FBA3E0FAA3E0F990003F7408F07FA04D
:103E4700124F95125DBC900038E0242FF582E434C0
:103E570006F583E4F0900037124F7A125DBC7BFFC2
:103E67007A2479D3125095D322900038E004F002D7
:0C3E77003DF9900037E004F0023DD4C398
:013E8300221C
:0B2BF500900034EBF0A3EAF0A3E9F03D
:102C0000E4A3F0A3F0900037F0900037E0FFC39406
:102C1000384003022CE8124DA0125DBCE49000384D
:102C2000F0900038E0FFC394204003022CDF742FA3
:102C30002FF582E43406F583E06003022CD6900081
:102C400037E075F020A4FFA3E07C002FFFEC35F007
:102C5000FEEF7803C333CE33CED8F92400FDEE3433
:102C600007FC7B017A06794F90003F7408F07FA043
:102C7000124DB6125DBC900034E0FBA3E0FAA3E075
:102C8000F9900005122AF3FF900654E06F70479008
:102C90000006122AF3FF900655E06F703990000786
:102CA000122AF3FF900656E06F702B900650E090CA
:102CB0000610F0900651E0900611F0900652E09058
:102CC0000612F0900653E0900613F07BFF7A247909
:102CD000EC125095C322900038E004F0022C2190B1
:102CE0000037E004F0022C09E4900037F090003740
:102CF000E0FFC394084003022DFFEF75F020A424E9
:102D000000FDE5F03404FC124DA8125DBCE4900017
:102D100038F0900038E0FFC394204003022DF67491
:102D20002F2FF582E43406F583E07003022DED9039
:102D30000037E075F020A4FFA3E07C002FFFEC3506
:102D4000F0FEEF7803C333CE33CED8F92400FDEE86
:102D50003427FC900034E0FBA3E0FAA3E0F99000F4
:102D60003F7408F07FA0124F95125DBC900038E0D0
:102D7000242FF582E43406F583E4F0900037E07503
:102D8000F020A42400FDE5F03404124F86125DBC4F
:102D90007BFF7A2579081250957BFF7A24799490ED
:102DA0000037E075F020A42400FEE5F03404900024
:102DB0003CF0A3CEF01250957BFF7A2479A79000C7
:102DC00037E075F020A4FFA3E07C002FFFEC35F086
:102DD000FEEF7803C333CE33CED8F92400FFEE34B0
:102DE0002790003CF0A3EFF0125095D322900038CA
:102DF000E004F0022D12900037E004F0022CEDC345
:012E000022AF
:0B2E0100900034EBF0A3EAF0A3E9F02E
:102E0C00E4A3F0A3F0900037F0900037E0FFC394F8
:102E1C00384003022EF4124DA0125DBCE490003831
:102E2C00F0900038E0FFC394204003022EEB742F87
:102E3C002FF582E43406F583E06003022EE2900065
:102E4C0037E075F020A4FFA3E07C002FFFEC35F0F9
:102E5C00FEEF7803C333CE33CED8F92400FDEE3425
:102E6C0007FC7B017A06794F90003F7408F07FA035
:102E7C00124DB6125DBC900034E0FBA3E0FAA3E067
:102E8C00F9900005122AF3FF900654E06F704790FA
:102E9C000006122AF3FF900655E06F703990000778
:102EAC00122AF3FF900656E06F702B900650E090BC
:102EBC00061AF0900651E090061BF0900652E09036
:102ECC00061CF0900653E090061DF07BFF7A2579E6
:102EDC0024125095C322900038E004F0022E2D905D
:102EEC000037E004F0022E15E4900037F090003724
:102EFC00E0FFC39408400302300BEF75F020A424CC
:102F0C0000FDE5F03405FC124DA8125DBCE4900008
:102F1C0038F0900038E0FFC3942040030230027474
:102F2C002F2FF582E43406F583E07003022FF9901D
:102F3C000037E075F020A4FFA3E07C002FFFEC35F8
:102F4C00F0FEEF7803C333CE33CED8F92400FDEE78
:102F5C00342FFC900034E0FBA3E0FAA3E0F99000DE
:102F6C003F7408F07FA0124F95125DBC900038E0C2
:102F7C00242FF582E43406F583E4F0900037E075F5
:102F8C00F020A42400FDE5F03405124F86125DBC40
:102F9C007BFF7A2579411250957BFF7A24799490A6
:102FAC000037E075F020A42400FEE5F03405900015
:102FBC003CF0A3CEF01250957BFF7A2479A79000B9
:102FCC0037E075F020A4FFA3E07C002FFFEC35F078
:102FDC00FEEF7803C333CE33CED8F92400FFEE34A2
:102FEC002F90003CF0A3EFF0125095D322900038B4
:102FFC00E004F0022F1E900037E004F0022EF9C31B
:01300C0022A1
:0B37B300900001EBF0A3EAF0A3E9F0A6
:1037BE00E4A3F0A3F0900004F0900004E0FFC394A3
:1037CE00204003023974124DA0125DBCE490000536
:1037DE00F0900005E0FFC39420400302395A900098
:1037EE0001E0FBA3E0FAA3E0F9122ADA70299000B7
:1037FE0001122AF37021900002122AF37019900020
:10380E0003122AF37011742F2FF582E43406F58318
:10381E0074FFF0FB02394A900005E0FD242FF5827B
:10382E00E43406F583E06003023951900004E0753C
:10383E00F020A47C002DFFEC35F0FEEF7803C333AF
:10384E00CE33CED8F92400FDEE3407FC7B017A0688
:10385E00794F90003F7408F07FA0124DB6125DBCF8
:10386E00900001E0FBA3E0FAA3E0F9122ADAFF9040
:10387E000650E06F6003023951900001122AF3FFE7
:10388E00900651E06F6003023951900002122AF344
:10389E00FF900652E06F6003023951900003122A26
:1038AE00F3FF900653E06F6003023951900005E07C
:1038BE00242FF582E43406F58374FFF0900004E0C3
:1038CE0075F020A4FDACF0124F87125DBC7BFF7A21
:1038DE0025797A900654E0FF90003CE4F0A3EFF0D7
:1038EE00900655E0FF90003EE4F0A3EFF0900656F0
:1038FE00E0FF900040E4F0A3EFF01250957BFF7ACA
:10390E00257995900650E0FF90003CE4F0A3EFF08F
:10391E00900651E0FF90003EE4F0A3EFF0900652C7
:10392E00E0FF900040E4F0A3EFF0900653E0FF902C
:10393E000042E4F0A3EFF01250957BFF7A25795EFA
:10394E00125095900005E004F00237DF900004E07D
:10395E0075F020A4FDACF0124F87125DBC900004F0
:07396E00E004F00237C7D3AB
:01397500222F
:0B397600900001EBF0A3EAF0A3E9F0E1
:10398100E4A3F0A3F0900004F0900004E0FFC394DE
:10399100084003023B32EF75F020A42400FDE5F05E
:1039A1003406FC124DA8125DBCE4900005F09000B5
:1039B10005E0FFC394204003023B23900001E0FB9C
:1039C100A3E0FAA3E0F9122ADA702D900001122A7D
:1039D100F37025900002122AF3701D900003122A41
:1039E100F37015742F2FF582E43406F58374FFF01C
:1039F100FB7A2579B4023B17900005E0FD242FF5F1
:103A010082E43406F583E06003023B1A900004E08F
:103A110075F020A47C002DFFEC35F0FEEF7803C398
:103A210033CE33CED8F92400FDEE3437FC7B017A56
:103A310006794F90003F7408F07FA0124DB6125DD9
:103A4100BC900001E0FBA3E0FAA3E0F9122ADAFF3F
:103A5100900650E06F6003023B1A900001122AF3B6
:103A6100FF900651E06F6003023B1A900002122A98
:103A7100F3FF900652E06F6003023B1A90000312BD
:103A81002AF3FF900653E06F6003023B1A90000592
:103A9100E0242FF582E43406F58374FFF0124F77AA
:103AA100125DBC7BFF7A2579D0900654E0FF90002F
:103AB1003CE4F0A3EFF0900655E0FF90003EE4F007
:103AC100A3EFF0900656E0FF900040E4F0A3EFF082
:103AD1001250957BFF7A2579EB900650E0FF90001C
:103AE1003CE4F0A3EFF0900651E0FF90003EE4F0DB
:103AF100A3EFF0900652E0FF900040E4F0A3EFF056
:103B0100900653E0FF900042E4F0A3EFF0125095CD
:103B11007BFF7A26790A125095900005E004F002A5
:103B210039AF124F77125DBC900004E004F0023906
:023B31008AD335
:013B3300226F
:0B33FB00900001EBF0A3EAF0A3E9F062
:10340600E4A3F0A3F0900004F0900004E0FFC3945E
:103416000840030235D5EF75F020A42400FDE5F041
:103426003404FC124DA8125DBCE4900005F0900037
:1034360005E0FFC3942040030235B7900001E0FB8E
:10344600A3E0FAA3E0F9122ADA702D900001122AFD
:10345600F37025900002122AF3701D900003122AC1
:10346600F37015742F2FF582E43406F58374FFF09C
:10347600FB7A2679240235AB900005E0FD242FF572
:1034860082E43406F583E060030235AE900004E082
:1034960075F020A47C002DFFEC35F0FEEF7803C319
:1034A60033CE33CED8F92400FDEE3427FC7B017AE7
:1034B60006794F90003F7408F07FA0124DB6125D5A
:1034C600BC900001E0FBA3E0FAA3E0F9122ADAFFC0
:1034D600900650E06F60030235AE900001122AF3A9
:1034E600FF900651E06F60030235AE900002122A8B
:1034F600F3FF900652E06F60030235AE90000312B0
:103506002AF3FF900653E06F60030235AE90000584
:10351600E0242FF582E43406F58374FFF09000046E
:10352600E075F020A42400FDE5F03404124F861265
:103536005DBC7BFF7A267941900654E0FF90003C03
:10354600E4F0A3EFF0900655E0FF90003EE4F0A310
:10355600EFF0900656E0FF900040E4F0A3EFF01283
:1035660050957BFF7A26795D900650E0FF90003CEF
:10357600E4F0A3EFF0900651E0FF90003EE4F0A3E4
:10358600EFF0900652E0FF900040E4F0A3EFF090D9
:103596000653E0FF900042E4F0A3EFF01250957B53
:1035A600FF7A26797D125095900005E004F00234EA
:1035B60034900004E075F020A42400FDE5F0340406
:1035C600124F86125DBC900004E004F002340FD363
:0135D60022D2
:0B35D700900001EBF0A3EAF0A3E9F084
:1035E200E4A3F0A3F0900004F0900004E0FFC39481
:1035F2000840030237B1EF75F020A42400FDE5F086
:103602003405FC124DA8125DBCE4900005F0900058
:1036120005E0FFC394204003023793900001E0FBD2
:10362200A3E0FAA3E0F9122ADA702D900001122A1F
:10363200F37025900002122AF3701D900003122AE3
:10364200F37015742F2FF582E43406F58374FFF0BE
:10365200FB7A267998023787900005E0FD242FF542
:1036620082E43406F583E0600302378A900004E0C6
:1036720075F020A47C002DFFEC35F0FEEF7803C33B
:1036820033CE33CED8F92400FDEE342FFC7B017A01
:1036920006794F90003F7408F07FA0124DB6125D7C
:1036A200BC900001E0FBA3E0FAA3E0F9122ADAFFE2
:1036B200900650E06F600302378A900001122AF3ED
:1036C200FF900651E06F600302378A900002122ACF
:1036D200F3FF900652E06F600302378A90000312F4
:1036E2002AF3FF900653E06F600302378A900005C9
:1036F200E0242FF582E43406F58374FFF090000491
:10370200E075F020A42400FDE5F03405124F861286
:103712005DBC7BFF7A2679B6900654E0FF90003CB0
:10372200E4F0A3EFF0900655E0FF90003EE4F0A332
:10373200EFF0900656E0FF900040E4F0A3EFF012A5
:1037420050957BFF7A2679D3900650E0FF90003C9B
:10375200E4F0A3EFF0900651E0FF90003EE4F0A306
:10376200EFF0900652E0FF900040E4F0A3EFF090FB
:103772000653E0FF900042E4F0A3EFF01250957B75
:10378200FF7A2679F4125095900005E004F0023693
:1037920010900004E075F020A42400FDE5F034054B
:1037A200124F86125DBC900004E004F00235EBD3A8
:0137B20022F4
:10513E00787B7C067D017BFF7A2779107E007F20AD
:10514E00122AB4E490069BF0A3F090069BE0FEA317
:10515E00E0FFC39438EE94005027EF7805C333CEAA
:10516E0033CED8F9FDAC067A06797B124F8B125DE1
:10517E00BC90069CE004F070D190069BE004F08099
:01518E00C957
:01518F0022FD
:105C15007F7E125E067F03125E067F33125E067F6D
:095C250004125E067FEF025E0628
:06544C002401FFE433FE21
:10545200900048EEF0A3EFF07F7E125E067F04120A
:105462005E067F41125E06900048E0FF125E0690E3
:0D5472000048A3E0FF125E067FEF025E0619
:10599500900004EFF07F7E125E067F03125E067FA5
:1059A50031125E06900004E075F008A4FF125E0651
:0559B5007FEF025E0619
:105C9F007F7E125E067F02125E067F0E125E067F09
:045CAF00EF025E069C
:105CB3007F7E125E067F02125E067F01125E067F02
:045CC300EF025E0688
:0F416B0090003BA3E0FFA3E0FBA3E0FAA3E0F981
:05417A00900044EFF08D
:10417F00A3EBF0A3EAF0A3E9F0EFD394024003021C
:10418F004284900044E064016017A3E0FBA3E0FACF
:10419F00A3E0F9900002122AF32401FFE433FE801A
:1041AF0021900045E0FBA3E0FAA3E0F99000021292
:1041BF002AF3601112544C7F1D7E001254527F1E41
:1041CF007E00125452900044E064016013A3E0FBA0
:1041DF00A3E0FAA3E0F9900003122AF32401804E22
:1041EF00900045E0FBA3E0FAA3E0F9900003122A48
:1041FF00F3604264017024900004122AF370047F6C
:10420F000B802E900045E0FBA3E0FAA3E0F99000AD
:10421F0004122AF3240BFFE4338016900045E0FBD1
:10422F00A3E0FAA3E0F9900003122AF32413FFE4AA
:10423F0033FE125452900044E064016011A3E0FB7E
:10424F00A3E0FAA3E0F9900004122AF3801F900074
:10425F0045E0FBA3E0FAA3E0F9900004122AF3FF74
:10426F00602F900003122AF364016025EF2401FFF1
:10427F00E433FE8019900044E024FC600714600AC8
:10428F002402700D7F3E7E0080047F3B7E0012541F
:01429F0052CC
:0142A00022FB
:0E300D00900034EFF0A3EBF0A3EAF0A3E9F09B
